:020000040800F2
:1000000088280020450100089D0200089F02000882
:10001000A3020008A7020008AB02000800000000CD
:10002000000000000000000000000000AF02000817
:10003000B102000800000000B3020008B502000889
:100040005F0100085F0100085F0100085F01000810
:100050005F0100085F0100085F0100085F01000800
:100060005F0100085F0100085F0100085F010008F0
:100070005F0100085F010008A90900085F0100088E
:100080005F0100085F0100085F010008EF0D000834
:100090000B0E00085F0100085F0100085F01000807
:1000A0005F0100085F0100085F0100085F010008B0
:1000B000D70B00085F0100085F0100085F0100081E
:1000C0005F0100085F0100085F0100085F01000890
:1000D0005F010008D9080008BF2700086F39000831
:1000E0005F0100085F0100085F0100085F01000870
:1000F0005F0100085F0100085F0100085F01000860
:100100005F0100085F0100085F0100085F0100084F
:10011000F11300085F0100085F0100085F0100089B
:100120005F0100085F0100085F0100085F0100082F
:10013000DFF80CD009F050FD0048004769010008C5
:10014000882800200648804706480047FEE7FEE76B
:10015000FEE7FEE7FEE7FEE7FEE7FEE7FEE7FEE777
:100160006D910008310100081CB53FA103C9CDE91C
:10017000000108F0FBFF4FF4E13000F00FF94FF4FD
:10018000E13001F047FE4FF4164002F0A5FE4FF4B7
:10019000E13001F057F900F0BDFE01F013FE00F070
:1001A000B3FC00F02FFC01F055FC02F0A7FD02F0BB
:1001B0002FFB03F0C9FC4FF47A7000F00BFC00F049
:1001C00000FD2B49086033E02A4800782A49097865
:1001D00088421CD003F08AFD284908700846007840
:1001E00051280BD008460078522807D008460078DE
:1001F000532803D008460078542808D11F480078B7
:1002000003F0C6FF1E480078401C1D49087000F02E
:10021000D8FC1C4908600968154A1268881A09F058
:10022000B5FA1949086019491748006809F04CFBEC
:10023000134800781528C7DB02F0BEFC1422062103
:10024000134802F0CAFC32220121124802F0C5FC18
:1002500014220A21104802F0C0FC02F0BAFC01E0AE
:1002600002F0E7FCFCE700001122334455667700FA
:1002700008000020E9000020E80000201000002015
:10028000000000200C00002004000020001B374A62
:100290008F2E00084764000833260008704700BF0F
:1002A000FEE700BFFEE700BFFEE700BFFEE77047C6
:1002B0007047704710B502F0E5FC10BD0246002003
:1002C00003E000231354431C98B28842F9DB7047C3
:1002D0002DE9F04F07460D461646994607EB0508EF
:1002E000BA460024A34601E0601C84B22A4850F8B4
:1002F000340008B1082CF7DD082C05DBFF2089F855
:1003000000000020BDE8F08F234840F8347000EB77
:10031000C4000571204800EBC40046711E4800EB84
:10032000C4008671A34605FB06F13846FFF7C6FFF9
:10033000002405E0CAF80080C246A844601C84B2CC
:10034000701EA042F6DC144800EBCB00DAE710B5D3
:1003500002461368907918B9FF200870002010BD7C
:100360009079401E9071907908B1186810601C4611
:10037000241D002008702046F1E7024609B9FF203D
:100380007047091F0B461068186013609079401C75
:1003900090710020F4E700005403002038B50446B3
:1003A0000020FE490870FE490870FE490870FE49A9
:1003B00008701420FD490870204600F03AFA6B4698
:1003C00020221146FA48FFF783FFFA49086038BD3A
:1003D00010B5F6480078142800D110BD002240F274
:1003E0002661F54808F02BFDF448EF49097810F82C
:1003F000310010B3EC480078EA49097888421CD0F3
:10040000EE48E949097810F83100401EEB49E64A08
:10041000127801F832000846E34A127800EBC20075
:100420004068E74A1278815CE34808F069FDE448D7
:100430000078401CE24908705CE0DB480078D9494C
:10044000097888424DD0DD48D74A127800EBC200C7
:100450004168D8480068FFF790FFD3480078401CF7
:10046000C0B2D1490870142801DB00200870CF48C1
:100470000078401CC0B2CD490870142801DB14205C
:1004800008700020CE490870C7480078C54909782F
:1004900088421CD0C948C449097810F83100401E70
:1004A000C1B2C648C04A127800F83210BE4A12786B
:1004B00000EBC2004068C24A1278815CBE4808F076
:1004C0001FFDBF480078401CBD49087012E00020A5
:1004D000BC4908701420B54908700020B84908705C
:1004E00008E00020B74908701420B04908700020C7
:1004F000B3490870012240F22661AF4808F09FFC22
:1005000000BF6AE710B5AC4808F0FEFCC1B2A348D2
:1005100002780078401CA14B1870AB4881541846F3
:1005200000789F490978884204D19D480078401C92
:100530009B49087010BDF8B505460C4626460CB917
:100540000120F8BD002240F226619B4808F077FCAC
:100550001C2094FBF0F100FB114028B11C2094FBFF
:10056000F0F0401CC4B203E01C2094FBF0F0C4B2D5
:100570008E480078A04207DA012240F226618E48B8
:1005800008F05DFCFF20DCE769468A480068FFF759
:10059000DEFE8A49834A127801EBC2014860814835
:1005A0000078142802DB00207E49087000242FE028
:1005B000287882497B4A127801EBC20149680855C4
:1005C000601CC4B21C2C20DB1C217C48754A1278AC
:1005D00000F8321073480078401CC0B271490870AE
:1005E000142801DB00200870694672480068FFF794
:1005F000AEFE72496B4A127801EBC20148606B484B
:100600000078401E6949087000246D1C701EC6B237
:10061000002ECDD19CB169486249097800F831407B
:1006200062480078401E614908705E480078401CAE
:10063000C0B25C490870142801DB002008706148D2
:10064000007820B9FFF7C4FE01205E49087001223E
:1006500040F22661584808F0F2FB002071E770B5BF
:100660000546002400E0641C285D0028FBD1E1B2AF
:100670002846FFF760FF70BD10B54B480078494928
:100680000978884234D04D48474A127800EBC200BE
:10069000416848480068FFF770FE43480078401CF6
:1006A000C0B241490870142801DB002008703F489F
:1006B0000078401CC0B23D490870142801DB1420AA
:1006C0000870394800783749097888420CD03B4A8D
:1006D000354B1B7812F83310334B1B7802EBC302F7
:1006E000506800F01CF924E000203649087020E032
:1006F00032482D4A127800EBC20041682D4800684C
:10070000FFF73BFE28480078401CC0B2264908701D
:10071000142801DB0020087024480078401CC0B277
:1007200022490870142801DB142008700020254994
:10073000087010BD10B55CE0244A1278002A53D12D
:100740000020174A1278921ED1B21F4A525C552AD5
:1007500001D1421CD0B2124A1278521ED1B21A4AAA
:10076000525CAA2A01D1421CD0B20D4A1278184B11
:100770001B68022404FB0322D1B2134A525CFF2AF5
:1007800001D1421CD0B203282ED101220F4B1A7086
:10079000034A12780F4B1A70014A1DE02500002011
:1007A000260000202200002023000020240000203A
:1007B000500500202C00002000380140B00300202C
:1007C0002100002014000020500400202000002000
:1007D0001C000020270000201278094B1B6802240F
:1007E00004FB0322074B1A70074A1278521C064B6F
:1007F0001A70054A1278054B1B789A429CD110BD9D
:100800001C000020280000202600002025000020D9
:1008100008B525208DF8000000208DF80100032088
:100820008DF8020001208DF80300684605F03BFEBC
:1008300008BD10B586B00446012144F2050007F05A
:10084000ADFA01A807F07DF84FF40070ADF8040090
:1008500003208DF8060018208DF8070001A95948DB
:1008600006F0E6FF01A807F06CF84FF48060ADF8E1
:10087000040004208DF8070001A9524806F0D8FFB3
:10088000514808F001FA02A808F0AAFA02940020E0
:10089000ADF80C00ADF80E00ADF810000C20ADF86E
:1008A00012000020ADF8140002A9474808F02FFA02
:1008B000012240F22661444808F0C1FAFFF7A8FF80
:1008C000012240F22551404808F0B9FA01213E4882
:1008D00008F0A9FA06B010BD10B520213A4808F07A
:1008E0007DFB012808D12021374808F084FB3748D8
:1008F000007808B1FFF706FE4021334808F06EFB90
:10090000012808D14021304808F075FB2F480078B5
:1009100008B1FFF75DFD01202C49087010BD30B50E
:100920008DB005460C460121084607F02AFA2848F2
:1009300006F018FB2448001D029003951020049037
:1009400005940020069080200790002008900990D0
:100950000A904FF440500B9000200C9002A91C48C4
:1009600006F0A2FB01220221194806F0D4FB0E205A
:100970008DF8040000208DF805008DF80600012098
:100980008DF8070001A805F08EFD0121104806F042
:10099000B6FB012280210C4808F076FA01210A48B2
:1009A00008F041FA0DB030BD10B54FF4005006F01C
:1009B000DFFB012804D1400306F0CFFBFFF75CFE0C
:1009C00010BD000000080140003801403000002048
:1009D00044000240002107E0002200E0521C43F2E4
:1009E00078739A42FADB491C8142F5D370470021A3
:1009F00005E0002200E0521C0E2AFCDB491C81426B
:100A0000F7D3704730B57F4800684FF47A72B0FB77
:100A1000F2F1B1F1807F01D301201DE021F07F4090
:100A2000401E4FF0E022506150170F22002807DAD5
:100A300013071D0E744B00F00F04241F1D5503E017
:100A400013071C0E714B1C5400BF00204FF0E02216
:100A5000906107201061002008B100BFFEE74FF051
:100A6000E020006920F001004FF0E021086130BD76
:100A70004FF0E020006940F001004FF0E0210861F4
:100A8000704708B54FF4E06005F008FD1C208DF8B4
:100A9000000000208DF8010005208DF802000120E3
:100AA0008DF80300684605F0FEFC08BD0EB5012177
:100AB000084607F080F9FFF7E4FF4FF0804007F0A9
:100AC000D5F941F28830ADF804004720ADF80000B8
:100AD0000020ADF80600ADF8020069464FF08040F6
:100AE00007F098FA0121880708F0B6F801221146AC
:100AF000900707F006FE0121880707F0E7FD0021B7
:100B0000012007F058F90EBD0EB50121062007F0AF
:100B100052F9684607F0AAFD4FF6FF70ADF80400E1
:100B20000020ADF80000ADF80600ADF802006946FF
:100B3000374807F06FFA00221146354807F06DFE7E
:100B40000121334808F00EF83021314807F0F8FD54
:100B500007212F4808F03CF880212D4808F041F883
:100B600001212B4807F0B2FE4FF6FF70ADF80400EC
:100B70004720ADF800000020ADF80600ADF80200F7
:100B80006946244807F046FA0121224807F09EFEF4
:100B90000421204808F01CF801211E4807F0EEFF50
:100BA00020211C4808F00BF880211A4808F019F899
:100BB0000121184807F08AFD0121154807F086FD3C
:100BC0000EBD002012492431088800041149243147
:100BD00009880844704710B50121880708F03FF8DC
:100BE00040B10121880708F04BF80B480068401C11
:100BF00009490860084800680A2802D3002006490D
:100C0000086010BD3C03002018ED00E000E400E0A7
:100C100000040040000800403400002000B589B006
:100C200014208DF8000000208DF8010001208DF8BF
:100C300002008DF80300684605F035FC13208DF89E
:100C4000000000208DF8010002208DF80200012034
:100C50008DF80300684605F026FCAA4805F08CFCD8
:100C60000121480607F0A7F80121082007F096F8AF
:100C70000121084607F092F84FF48070ADF8140097
:100C800003208DF8160048208DF8170005A99E480E
:100C900006F0CEFD4FF40070ADF8140003208DF87F
:100CA000160018208DF8170005A9974806F0C0FD1A
:100CB00001214FF4EA1006F08AFE06A805F080FD37
:100CC00000208DF81E008DF81F008DF820000120F7
:100CD0008DF8210000208DF822008DF823008DF87A
:100CE0001A008DF81B0001208DF81C0002208DF8E1
:100CF0001D000C20ADF8180006A9824805F055FC2F
:100D000000208DF80E008DF80F0001208DF81000E6
:100D10000020ADF80400ADF80600ADF80800ADF80D
:100D20000A00ADF80C0001208DF8110001A805F0B3
:100D3000C6FC0221734806F0C2F80121714806F092
:100D4000BEF8012203216F4805F0B8FF09B000BDCD
:100D50007FB586B0DDE90E560798029004208DF825
:100D60000C009DF820008DF80D008DF80E50002429
:100D700007E009983044015D0DF10F000155601C3A
:100D8000C4B2AC42F5DB01A95E4805F087FD0AB0AC
:100D900070BD30B585B00446A07B28B920680090AE
:100DA00000208DF8080001E02068019004208DF8F3
:100DB0000800E07B18B900208DF8090002E002204D
:100DC0008DF80900207B8DF80A00002506E0201D23
:100DD000415D0DF10B004155681CC5B2207BA84256
:100DE000F5DC6946474805F059FD05B030BD10B542
:100DF0000121444805F0C9FF012805D101214148DE
:100E000006F05DF800F097F810BD10B586B001AAA5
:100E100000213C4805F037FE9DF80D0000286AD1FE
:100E2000029880B20B2806D0A0F58060093803D064
:100E300003285ED12EE05DE00298C0F30740012850
:100E400006D002280CD0032812D0042820D117E0A5
:100E5000DDF80F10DDF813002C4AC2E9001017E08E
:100E6000DDF80F10DDF81300284AC2E904100FE086
:100E7000DDF80F10DDF81300244AC2E9021007E084
:100E8000DDF80F10DDF81300204AC2E9061000BF9C
:100E900000BF2FE00298C0F30740012806D00228C7
:100EA0000CD0032812D0042820D117E0DDF80F4021
:100EB000204608F062FC1649086018E0DDF80F4093
:100EC000604208F05AFC1249486010E0DDF80F401B
:100ED000204608F052FC0E49886008E0DDF80F401B
:100EE000604208F04AFC0A49C86000E000BF00BF49
:100EF00000E000BF00BF0021024805F03CFE06B044
:100F000010BD000000640040000C01404824002097
:100F10006824002008B50020F9490870F9490870D4
:100F2000FFF77CFE6B4620221146F748FFF7D0F909
:100F3000F649086008BD1CB5F548006820280DD1A9
:100F40000020F4490870F448F44A127800EB0210CB
:100F5000C168EE480068FFF710FA1CBD00220121AD
:100F6000EF4805F0ABFEEC48EC49097800EB0110C6
:100F70000078002849D0E9480078EA490978884291
:100F800043D0E548E549097800EB011000780828CE
:100F900020DBE148E149097800EB011000780838CE
:100FA000DD49DE4A127801EB02110870DE48006864
:100FB0000821CDE90010D848D849097800EB011480
:100FC00094E80F00FFF7C4FED74800680830D64900
:100FD000086097E0D4480168CF48D04A127800EB07
:100FE00002100078CDE90001CB48CC49097800EB2C
:100FF000011494E80F00FFF7ABFE0020C649C74A72
:10100000127801EB021108707CE0C4480078C549F1
:10101000097888426DD0C048C04A127800EB0210AF
:10102000C168BA480068FFF7A8F9BC480078401CBE
:10103000C0B2BA490870202801DB00200870B4480B
:101040000068401CB2490860202801D320200860B5
:101050000020B5490860B1480078B2490978884253
:101060003DD0AD48AD49097800EB01100078082863
:1010700021DBA948A949097800EB0110007808385C
:10108000C1B2A548A54A127800EB02100170A6482B
:1010900000680821CDE900109F48A049097800EBBD
:1010A000011494E80F00FFF753FE9F4800680830D2
:1010B0009D49086026E09C4801689748974A127845
:1010C00000EB02100078CDE90001934893490978BC
:1010D00000EB011494E80F00FFF73AFE12E0002045
:1010E0008C49087020208A49086000208E490860D9
:1010F00008E000208749087020208549086000200A
:101100008949086001221146854805F0D7FD00BFD6
:1011100023E72DE9F84305460C4616461F46A04630
:1011200014B90120BDE8F883002201217C4805F0B4
:10113000C5FD1C2094FBF0F100FB114028B11C20E0
:1011400094FBF0F0401CC4B203E01C2094FBF0F0D0
:10115000C4B26F480068A04206D20122114670480E
:1011600005F0ACFD0120DDE7694668480068FFF73F
:10117000EEF869496B4A127801EB0211C8606948C0
:101180000078202802DB00206649087000243EE039
:1011900029786148634A127800EB0210C068015553
:1011A000601CC4B21C2C2DDB5B485E49097800EB47
:1011B000011046601C2058495A4A127801EB02116E
:1011C000087055485749097800EB011007725548D7
:1011D0000078401CC0B253490870202801DB002071
:1011E0000870694649480068FFF7B1F84A494D4A16
:1011F000127801EB0211C86045480068401E44495E
:10120000086000246D1CA8F1010000F0FF08B8F18F
:10121000000FBDD104B340484249097800EB0110EA
:1012200046603D483F49097800EB011004703A4898
:101230003C49097800EB0110077235480068401EF0
:101240003349086037480078401CC0B235490870FF
:10125000202801DB002008702E48007820B90120EA
:101260002C490870FFF767FE012211462C4805F053
:1012700025FD002056E7002000212C4A116000BF08
:1012800003E000212A4A1154401CFF28F9DD704771
:1012900010B50246002000BF03E00023244C235475
:1012A000401CFF28F9DD10BD0FB430B500209DF8BB
:1012B000161000BF17E00DF11702135C104A1478E6
:1012C0001278521C0E4D2A70194A13552A4612786C
:1012D0000C4B1B789A4204D10A4A1278521C094BD3
:1012E0001A70421CD0B28842E5DB30BC5DF814FBBA
:1012F000024622B10F4802600F48017023E01DE052
:101300005400002055000020700C002058000020E0
:101310003C0000204100002070090020390000201E
:1013200000640040380000205000002044000020ED
:10133000700B0020480000204C000020B2F5807F98
:1013400001D9FF2070470020FCE7000010B586B0EF
:10135000044634208DF8000000208DF801000420A0
:101360008DF8020001208DF80300684605F09BF817
:101370000121102006F012FD0121C80406F01BFD1A
:101380002D48406820F480602B494860084640683A
:1013900060F480604860C814ADF8140004208DF833
:1013A000170005A9244806F043FA01940020ADF87F
:1013B0000800ADF80A00ADF80C00ADF810000C20E4
:1013C000ADF80E0001A91D4807F0A1FC012240F272
:1013D00025511A4807F033FD012240F226611748D3
:1013E00007F02DFD0121154807F01DFD06B010BDC9
:1013F00010B52021114807F0F1FD012808D1202166
:101400000E4807F0F8FD0E48007808B100F0CEF85D
:1014100040210A4807F0E2FD012808D14021074891
:1014200007F0E9FD0648007808B100F025F8012032
:101430000349087010BD000000100140004C00403E
:101440005C00002038B504460020FE490870FE49C3
:101450000870FE490870FE4908701420FD490860B4
:101460002046FFF773FF6B4620221146FA48FEF72D
:101470002FFFFA49086038BD10B5F64800681428F7
:1014800000D110BD002240F22661F54807F0D7FCDC
:10149000F448EF49097810F8310018B3EC480078A7
:1014A000EA49097888421DD0EE48E949097810F8E0
:1014B0003100401EEB49E64A127801F83200084636
:1014C000E349097800EBC1004068E749097844180E
:1014D0002178E34807F014FDE3480078401CE24916
:1014E00008705BE0DA480078D849097888424CD027
:1014F000DC48D74A127800EBC2004168D748006840
:10150000FEF73BFFD2480078401CC0B2D0490870BB
:10151000142801DB00200870CE480068401CCD492B
:101520000860142801D3142008600020CE490870F8
:10153000C7480078C549097888421CD0C948C449C1
:10154000097810F83100401EC649C14A127801F8E6
:1015500032000846BE4A127800EBC2004068C24A18
:101560001278815CBE4807F0CBFCBF480078401C75
:10157000BD49087012E00020BC4908701420B5492C
:1015800008600020B849087008E00020B7490870DA
:101590001420B04908600020B3490870012240F2CD
:1015A0002661AF4807F04BFC00BF6AE710B5AC48B6
:1015B00007F0AAFCC1B2A34802780078401CA14BF6
:1015C0001870AB488154184600789F4909788842C2
:1015D00004D19D480078401C9B49087010BDF8B5A7
:1015E00005460C4626460CB90120F8BD002240F203
:1015F00026619B4807F023FC1C2094FBF0F100FBC4
:10160000114028B11C2094FBF0F0401CC4B203E050
:101610001C2094FBF0F0C4B28E480068A04207D2B0
:10162000012240F226618E4807F009FCFF20DCE72A
:1016300069468A480068FEF78AFE8A49834A12781A
:1016400001EBC201486081480078142802DB0020C9
:101650007E49087000242FE0287882497B4A12785E
:1016600001EBC20149680855601CC4B21C2C20DB88
:101670001C217C48754A127800F8321073480078B3
:10168000401CC0B271490870142801DB00200870AA
:10169000694672480068FEF75AFE72496B4A127832
:1016A00001EBC20148606B480068401E6949086050
:1016B00000246D1C701EC6B2002ECDD19CB16948AD
:1016C0006249097800F8314062480068401E61496B
:1016D00008605E480078401CC0B25C49087014285D
:1016E00001DB002008706148007820B9FFF7C4FED4
:1016F00001205E490870012240F22661584807F037
:101700009EFB002071E770B50546002400E0641CD4
:10171000285D0028FBD1E1B22846FFF760FF70BDCD
:101720007EB50020F5E0534C2478002C4AD10022ED
:10173000454C2478641EE1B24D4C645C022C01D10E
:10174000541CE2B2404C24784B4D2D68022606FB17
:101750000544E1B2464C645C0D2C01D1541CE2B24C
:10176000394C2478444D2D68022606FB0544641C40
:10177000E1B23F4C645C0A2C01D1541CE2B2324C01
:1017800024783D4D2D68022606FB0544A41CE1B2D9
:10179000374C645C032C01D1541CE2B2042A10D1F2
:1017A0000124344D2C700120274C2478334D2C70AB
:1017B000254C2478304D2D68022606FB0544304D1B
:1017C0002C70A1E0204C24782D4D2D78AC42F8D11E
:1017D0000024284D2C70002100238DE0274C247814
:1017E0000C44234D2C5D302C0EDB244C24780C440F
:1017F0002C5D392C08DC214C24780C442C5D303CC9
:10180000E4B20DF8014014E01C4C24780C44184D4F
:101810002C5D412C0DDB194C24780C442C5D462C9E
:1018200007DC164C24780C442C5D373CE4B20DF8F0
:101830000140124C24780C44641C0D4D2C5D302C5E
:1018400032DB1FE0E8000020E9000020E00000207B
:10185000E1000020E400002010120020F000002031
:10186000004C004070100020DE00002060000020CE
:10187000101100207800002074000020EA000020F1
:10188000EB000020684C24780C44641C2C5D392C3F
:101890000ADC654C24780C44641C2C5D303CE5B2B9
:1018A0004C1C0DF8045018E05F4C24780C44641C68
:1018B0005E4D2C5D412C10DB5B4C24780C44641C89
:1018C0002C5D462C09DC584C24780C44641C2C5D9F
:1018D000373CE5B24C1C0DF804504C1C1DF804506C
:1018E0001DF8014005EB0414E6B21C465D1CEBB28A
:1018F0004F4D2E558C1CE1B24E4C2468641E640082
:101900008C423FF66BAF01204B4C2478641C4A4D4F
:101910002C70494C2478494D2D78AC427FF403AFAC
:101920007EBD10B50146012024E00A7800EB80035B
:10193000434CE35C9A421CD14A7800EB8003234479
:101940005B789A4215D18A7800EB800323449B7818
:101950009A420ED1CA7800EB80032344DB789A4286
:1019600007D10A7900EB800323441B799A4200D106
:1019700002E0401C1428D8DB00BF324A1278324BF8
:101980001A70012801DB102800DD10BD2D4B1870E6
:1019900000BFFAE730B5C1B000244FF4807101A850
:1019A00007F07DFC00252448007824490978884206
:1019B00021D0FFF7B5FEF0B10120244908700522BF
:1019C0001B49234807F076FCA8B11948FFF7A9FF87
:1019D00001A801231B4A04210090022001F057FCBA
:1019E000C4B2214601A801F043FB194810490A6816
:1019F00002600979017141B030BD00200AE011494F
:101A0000097801EB81010E4A1144095C084A11541E
:101A1000411CC8B20528F2DB0D49054A13680B606A
:101A200012790A7170470000EA00002010110020AE
:101A30006100002074000020E9000020E800002080
:101A40007A00002066000020670000206800002067
:101A50006900002008B50121512006F09FF90420FB
:101A6000ADF8000010208DF8030003208DF802006F
:101A70006946CB4805F0DCFE0421C94805F083FF28
:101A80004FF48040ADF8000010208DF803000320D3
:101A90008DF802006946C34805F0CAFE4FF4804144
:101AA000C04805F070FF08BD0146002901DD084669
:101AB0007047002901DA4842FAE70846F8E72DE9BD
:101AC000F04F85B08246DFF8E0B2B8480068B74909
:101AD00089680844B54949680844B449C968441844
:101AE000E11704EB9171881007F047FE0290AF48B0
:101AF00000684042AD4989680844AC4949680844D7
:101B0000AA49C968441AE11704EB9171881007F0DB
:101B100034FE0390A54909684942A44A92681144D9
:101B2000A24A5268891AA14AD268881807F033FE7F
:101B300006460F46584607F065FE00229C4BCDE94D
:101B4000000107F039FD804632463B4607F034FD80
:101B5000044607F093FE97490490086002A807C85E
:101B60008AE8070005B0BDE8F08FFFB585B00446F0
:101B7000914D2846089907F002FC0646DDE906016A
:101B800007F0F7FB0746314607F0F3FB01902846C4
:101B9000089907F0F4FB0646DDE9060107F097FB1C
:101BA0000746314607F093FB02902846089907F054
:101BB000E6FB0646DDE9060107F089FB07463146EC
:101BC00007F0D7FB03902846089907F0D8FB064694
:101BD000DDE9060107F0CDFB0746314607F077FB4C
:101BE000049001A80FC884E80F0009B0F0BD2DE9EA
:101BF000FF470C9C6C4DDDE9000107F068FB804657
:101C0000029907F064FB0746039907F060FB06465C
:101C10004FF0814107F0E9FB2060009880F0004917
:101C20004846019907F053FB8046029907F04FFBA5
:101C30000746039907F09DFB06464FF0814107F0E8
:101C4000D4FB6060009880F0004A5046019907F08C
:101C50003EFB8146029907F08CFB8046039907F012
:101C600036FB0746294607F08AFB06464FF08141BE
:101C700007F0BBFBA060BDE8FF872DE9FC410446EF
:101C80000D4616461F464DA103C9CDE90001F8B225
:101C90008DF80300F0B28DF80400E8B28DF805006D
:101CA0009DF802009DF8031008449DF804100844B4
:101CB0009DF805100844C0B28DF8060000232246A6
:101CC00008216846FFF725FABDE8FC817CB504468B
:101CD0000D46002040EA044000F2053608208DF849
:101CE00000008DF8014090208DF8020000208DF852
:101CF000030001950023224608216846FFF709FAF0
:101D00007CBD704710B500211E20FFF7DFFF0021CA
:101D10001420FFF7DBFF00211720FFF7D7FF00217A
:101D20001A20FFF7D3FF10BD7FB54FF07E5100980A
:101D300007F025FB054607F04CFD044621461E2012
:101D4000FFF7C4FF019880F000464FF07E51304607
:101D500007F015FB054607F03CFD0446214614201C
:101D6000FFF7B4FF4FF07E51029807F008FB0546DD
:101D700007F02FFD044621461720FFF7A7FF039821
:101D800080F000464FF07E51304607F0F8FA0546E5
:101D900007F01FFD044621461A20FFF797FF7FBD7D
:101DA000001801400010014090C4DF3A50090020A3
:101DB0000000D03FF40000200070124455AA030038
:101DC000000000FF08B50121402005F0E7FF0320D7
:101DD000ADF8000010208DF8030003208DF80200FC
:101DE00069460B4805F024FD0321094805F0CBFDA9
:101DF00008BD10B50121064805F0B8FDC0F101008D
:101E0000C4B222460121024805F0C1FD10BD000008
:101E10000018014038B504460020FE490870FE490C
:101E20000870FE490870FE4908701420FD490860DA
:101E3000204600F06CFC6B4620221146FA48FEF763
:101E400047FAFA49086038BD10B5F648006814280A
:101E500000D110BD002240F22661F54806F0EFFFE8
:101E6000F448EF49097810F8310010B3EC480078D5
:101E7000EA49097888421CD0EE48E949097810F807
:101E80003100401EEB49E64A127801F8320008465C
:101E9000E34A127800EBC2004068E74A1278815C9E
:101EA000E34807F02DF8E4480078401CE249087048
:101EB0005BE0DB480078D949097888424CD0DD489E
:101EC000D74A127800EBC2004168D8480068FEF794
:101ED00054FAD3480078401CC0B2D1490870142885
:101EE00001DB00200870CF480068401CCD49086025
:101EF000142801D3142008600020CF490870C84876
:101F00000078C649097888421CD0CA48C449097873
:101F100010F83100401EC1B2C648C14A127800F81C
:101F20003210BF4A127800EBC2004068C24A1278F1
:101F3000815CBF4806F0E4FFBF480078401CBE4902
:101F4000087012E00020BD4908701420B5490860EF
:101F50000020B949087008E00020B8490870142032
:101F6000B04908600020B4490870012240F226619F
:101F7000AF4806F064FF00BF6BE710B5AC4806F051
:101F8000C3FFC1B2A34802780078401CA14B18706F
:101F9000AB488154184600789F490978884204D19B
:101FA0009D480078401C9C49087010BDF8B5054656
:101FB0000C4626460CB90120F8BD002240F22661ED
:101FC0009B4806F03CFF1C2094FBF0F100FB114005
:101FD00028B11C2094FBF0F0401CC4B203E01C208C
:101FE00094FBF0F0C4B28F480068A04207D20122EF
:101FF00040F226618E4806F022FFFF20DCE76946AA
:102000008A480068FEF7A3F98A49844A127801EBEE
:10201000C201486081480078142802DB00207F4913
:10202000087000242FE0287882497C4A127801EB5E
:10203000C20149680855601CC4B21C2C20DB1C215D
:102040007C48764A127800F8321074480078401CB8
:10205000C0B272490870142801DB0020087069467C
:1020600072480068FEF773F972496C4A127801EB06
:10207000C20148606B480068401E6A49086000243D
:102080006D1C701EC6B2002ECDD19CB1694863494B
:10209000097800F8314063480068401E61490860D3
:1020A0005E480078401CC0B25C490870142801DB0F
:1020B000002008706148007820B9FFF7C5FE0120B4
:1020C0005E490870012240F22661594806F0B7FEC9
:1020D000002071E770B50546002400E0641C285D0F
:1020E0000028FBD1E1B22846FFF760FF70BD30B594
:1020F000014600240A46524DAB5C551CEAB2504DD5
:10210000AD5C43EA0524204630BD2DE9F04F85B093
:102110004B484C490978405C04900498302875D0AD
:1021200009DCA0F11A0008282AD2DFE800F041D526
:10213000E3EBFD29FCFBA2282ED006DC312866D07B
:10214000402865D0A1281BD104E0A3282ED0A428C4
:10215000F9D12CE03A493B480078401C0C5C3A48E5
:10216000047038480078801C0C5C204601F007F9A8
:102170003649086036493548006807F0A5FB00D8A5
:10218000E3E13448006834490860012033490870AD
:10219000002033490860D8E1FFF7B4FD00202F4943
:1021A00008702F49086029490860CEE1CDE1CCE1F3
:1021B0002CA22FA102A807F07FFD082102A8FFF79B
:1021C000F5FE2448006807F01DFB05462A460B462D
:1021D00028A102A807F070FD072102A8FFF7E6FE7C
:1021E00025A223A102A807F067FD0A2102A8FFF794
:1021F000DDFE2448006807F005FB05462A460B462D
:102200001CA102A807F058FD07213DE0EDE023E105
:102210006BE100001C0100201D01002016010020C0
:102220001701002018010020B01700202401002011
:10223000004400401016002015010020000100207D
:10224000B01600201E010020B00100201001002067
:102250000000C843AC020020B4010020140100209B
:10226000380300202020796177203D200000000005
:1022700025730000256600002020706974636820C3
:102280003D200000A802002002A8FFF78FFEF0A268
:10229000AFF2240102A807F00FFD092102A8FFF701
:1022A00085FEEE48006807F0ADFA05462A460B4663
:1022B000AFF2400102A807F0FFFC072102A8FFF7D8
:1022C00075FEE7A2AFF2580102A807F0F5FC022163
:1022D00002A8FFF76BFE38E10120E2490870E249ED
:1022E000E2480078401C0C5C204601F048F8E049C8
:1022F00008602AE1FFF706FD0020DA490870DC4992
:10230000086022E1D849D9480078401C0C5C20467E
:1023100007F052FA0546D74AD74B07F04DF98246E7
:10232000002202E056E031E028E0D44B07F0B6F995
:10233000074607F0A3FACE4908600846006807F090
:1023400061FA05464FF03332CD4B07F083FA03D8DC
:10235000CC48C74908600DE0C548006807F052FA4C
:1023600005464FF03332C84B07F060FA02D8C74831
:10237000BF4908600120C6490870E6E0FFF7C2FCCB
:102380000020C3490870BA490860DEE00120C14955
:102390000870C1490870B449B4480078801C095CD1
:1023A000B14AB2480078401C105C41EA00200FFAA4
:1023B00080F9484607F0EFF907460022B74B07F0CF
:1023C0006DF9054607F05AFAB54908600020A8499A
:1023D0000860BAE00020AF490870FFF793FC0020C6
:1023E000A3490860AC490870AFE09F499F48007856
:1023F000401C0C5C204607F0DFF907460022A94B81
:1024000007F04CF9054607F039FAA74908609649E4
:1024100096480078801C0C5C204607F0CDF90746F2
:102420000022A24B07F03AF9054607F027FA9E4929
:1024300048608D498D480078C01C0C5C204607F030
:10244000BBF907460022994B07F028F9054607F02B
:1024500015FA9549886078E0834984480078401CE3
:102460000C5C04EB8401480007F087F99049086090
:10247000084600688F4908608D4800688E490860EA
:1024800079497A480078801C0C5C204607F094F962
:1024900007460022814B07F001F9054607F0EEF9E7
:1024A00086490860084600688549086083480068D6
:1024B000844908606C496D480078C01C0C5C20465B
:1024C00007F07AF905460022744B07F0E7F8074653
:1024D00007F0D4F97C490860084600687B49086029
:1024E000794800687A49086000BF0120694908708E
:1024F000694908705C495D480078801C095C5A4A4B
:102500005A480078401C105C41EA00200FFA80F91C
:102510007048006807F076F905460E46484607F011
:102520003AF900225D4BCDE9000107F0B7F8074604
:102530002A46334606F099FF824607F09FF958492C
:10254000086000204A49086000BF00BF05B0BDE830
:10255000F08F30B54FF0FF3064E05F4C2478002CF2
:1025600037D100215D4C2478641FE2B23E4CA45C5C
:10257000552C01D14C1CE1B2584C2478241FE2B2F6
:10258000394CA45CAA2C01D14C1CE1B2534C2478E8
:10259000E41EE2B2344CA45C1E2C01D14C1CE1B20E
:1025A00003293AD101244C4D2C704C4C2478641EE4
:1025B000E2B22D4CA45C4A4D2C70484C24782B4D33
:1025C0002C70464C2478464D2D782C44454D2C706B
:1025D00023E0424C2478434D2D78AC421DD1002499
:1025E0003D4D2C70214C23780021002207E01E4C29
:1025F000E45C0C44E1B25C1CE3B2541CE2B2384C23
:102600002478A242F3DBCC43E1B2174CE45C8C4269
:1026100003D1154C154D2D78605D304C2478641C29
:102620002E4D2C702D4C24782F4D2D78AC4294D10A
:1026300030BD10B5294800782B490978884205D06B
:10264000FFF787FF401C01D0FFF75FFD10BD0000C2
:102650002020726F6C6C203D20000000A40200203E
:102660000D0A00006C010020B01600201E010020A1
:10267000100100204AD8124DFB210940008066401D
:102680003333E33F9A99193F3333E3BF9A9919BF24
:102690006D0100206E010020140100200000244084
:1026A000B401002000005940341C002000408F403D
:1026B00064020020680200206C02002070020020EA
:1026C00074020020780200207C020020800200209A
:1026D00084020020AC020020200100201D01002007
:1026E000210100201F0100201C01002008B5262028
:1026F0008DF8000000208DF8010006208DF8020002
:1027000001208DF80300684603F0CDFE08BD10B52A
:1027100086B004460121042005F040FB0121480455
:1027200005F049FB4FF4E06003F0B8FE26208DF879
:10273000000000208DF8010006208DF80200012025
:102740008DF80300684603F0AEFE0420ADF81400D7
:1027500018208DF8170003208DF8160005A92948C8
:1027600005F066F80820ADF8140004208DF8170075
:1027700005A9244805F05CF801940020ADF8080094
:10278000ADF80A00ADF80C00ADF810000C20ADF863
:102790000E0001A91C4806F0BAFA012240F22551A8
:1027A000194806F04CFB012240F22661164806F05B
:1027B00046FB0121144806F036FB06B010BD10B5EB
:1027C0002021114806F00AFC012808D120210E48DA
:1027D00006F011FC0D48007808B1FFF7CEFB402150
:1027E000094806F0FBFB012808D14021064806F005
:1027F00002FC0648007808B1FFF726FB01200349D8
:10280000087010BD0008014000440040280100206D
:1028100008B501217D2005F0C1FAF020ADF80000D7
:1028200048208DF8030003208DF802006946B44863
:1028300004F0FEFF4FF20300ADF8000048208DF8D1
:10284000030003208DF802006946AE4804F0F0FF53
:102850004FF47C70ADF8000048208DF80300032091
:102860008DF802006946A84804F0E2FF4FF47F406B
:10287000ADF8000048208DF8030003208DF8020019
:102880006946A24804F0D4FF4FF4FF40ADF80000C1
:1028900048208DF8030003208DF8020069469C480B
:1028A00004F0C6FF00209B4908709B489B490860C4
:1028B0009B4888609848C860994998484161994800
:1028C00096498861984995480162934893494862BE
:1028D00093499248C1629548954908600020486034
:1028E0008860944908609449086008BD2DE9FF4755
:1028F00082B01C46DDE90E780020009001908F48E0
:1029000001688F48006806F0D5FF04D000208A498E
:1029100008608C4908608A4801688B48006806F0A6
:1029200028FD844908600846006806F06BFF0546EC
:102930000022864B06F07AFF0CD27E48006806F033
:1029400061FF05460022824B06F084FF02D2002080
:102950007849086077490398096806F010FD054634
:1029600078480168284606F0B2FC7649086072484B
:1029700001687048006806F0FCFC814649460498EE
:1029800006F0FDFC06466B490298096806F0F7FC64
:1029900082466C480168504606F099FC054631466F
:1029A00006F095FCA060A06806F02CFF05464FF0ED
:1029B0003332684B06F04EFF02D86748A0600BE048
:1029C000A06806F01FFF05464FF03332634B06F058
:1029D0002DFF01D86248A060A06806F013FF0546ED
:1029E000604A614B06F022FF0AD8A06806F00AFF91
:1029F00005465C4A5D4B06F02DFF01D80020A06023
:102A00004C4800684C4908604D4800684B490860D4
:102A100006B0BDE8F0872DE9F04188B007460E46C4
:102A2000144600253B480078A0B100BF0DE005EB3F
:102A300045003A4901EB800005EB45014C4A02EBA9
:102A400081030ECB0EC0681CC5B2042DEFDB002045
:102A500030490870012E06D0022E0CD0032E17D05C
:102A6000042E2BD11DE02D4A07CA05AB07C30294E3
:102A70000020039023E0294AD2E903105269CDE9EE
:102A80000602059184F0004002900020039016E0B9
:102A9000224A183207CA05AB07C3002002900394EC
:102AA0000DE01E4AD2E90910D26ACDE9060205916D
:102AB0000020029084F00040039000E000BF00BFBF
:102AC000204606F086FEB0F1000801DB404601E03A
:102AD000C8F1000010B92748007838B102AB14489B
:102AE000CDE9006407C8FFF701FF01E00020049072
:102AF00002A807C887E8070008B0BDE8F081000019
:102B000000080140000C0140001001400014014089
:102B100000180140380100208FC2753D041C0020C0
:102B20008FC2F53C8FC275BD8FC2F5BCCDCC4C3D7C
:102B3000341C00203C010020400100203401002012
:102B4000B401002030010020AC0200200000E03F72
:102B50000000E0BF3333E33F9A99193F3333E3BFBB
:102B60009A9919BF7B14AE47E17A843FE17A84BF1A
:102B7000D41B00206E010020014601EB41005E4A9B
:102B800052F8200008B908207047002001EB4102EC
:102B9000594B43F8220001EB410203EB8202908083
:102BA00001EB410203EB8202D08001EB410203EB17
:102BB0008202107200BFE7E710B5FDF723FF002483
:102BC00004E02046FFF7D8FF601CC4B2102CF8DBED
:102BD00010BD10B5FDF74CFF10BD70B503460C4697
:102BE000002101E0481CC1B201EB4100424D55F803
:102BF000200008B11029F5DB102901D1082070BD93
:102C000001EB41003C4D45F8203001EB410005EB64
:102C10008000848001EB410005EB8000C280002031
:102C200001EB4105344E06EB850528720846E6E7C0
:102C3000704710B5002420E004EB44002E4901EB5E
:102C40008000007A002816DD04EB44012A4A52F87D
:102C500021008047002004EB4401274A02EB810158
:102C6000087204EB4400114601EB8000C08810B9E3
:102C70002046FFF781FF601CC4B2102CDCDBFFF79D
:102C8000D7FF10BD002033E000EB40011A4A52F894
:102C9000211059B300EB400102EB81018988C1B9D1
:102CA000012100EB4002144B03EB8202117200EB96
:102CB00040011A4602EB8101C988B9B100EB40011D
:102CC00002EB8101C98800EB400203EB8202918094
:102CD0000CE000EB4001084A02EB81018988491EA3
:102CE00000EB4002044B03EB82029180411CC8B20E
:102CF0001028C9DB70470000401C002001206749F4
:102D00000870674867490860042067490860002028
:102D100066494860002165488160C16001206349BF
:102D200008740020704710B58CB00446201D07C8F9
:102D300009AB07C301A809A90EC9FEF716FF02A82F
:102D40000DC80199CDE90723CDE9051005A80FC8E5
:102D5000FEF7EAFF0CB010BD10B500244F48007814
:102D6000C0B100BF08E04F48006850F82400007C64
:102D700000B105E0601CC4B24B4800688442F2DB3D
:102D800000BF474850F824004949086008460068D9
:102D9000FFF7C9FF10BD0EB54648007868B10520A1
:102DA00045490870454800684860002142488160F4
:102DB000C1600120404908742BE04148007878B197
:102DC00005203D4908700020486000213A48816094
:102DD0003A4801683848C16001203749087418E052
:102DE0003848007890B105203349087033480268AC
:102DF000354801786846FFF70EFE2F489DE80E0023
:102E0000001D0EC001202C49087402E000202A4950
:102E100008740EBD30B502460B460024002104E0C4
:102E2000555C2544ECB24D1CE9B20829F8DB9C4204
:102E300001DB012000E0002030BD30B503460C4628
:102E40000020214605E05D5C012D00D101204D1CD4
:102E5000E9B29142F7DD30BD0EB51C48007890B163
:102E600005201B4908701B4802681748017868460E
:102E7000FFF7D1FD16489DE80E00001D0EC0012091
:102E80001349087402E00020114908740EBD10B502
:102E9000FFF781FFFFF760FF10BD000080010020F9
:102EA00058010020780100207C010020481D0020EE
:102EB000680100206C0100200C1D00201001002082
:102EC0006D01002014010020B00100208C010020C1
:102ED000341D00209001002038B504460020FE4932
:102EE0000870FE490870FE490870FE4908701420F9
:102EF000FD490860204600F0E0FC6B4620221146A8
:102F0000FA48FDF7E5F9FA49086038BD10B5F6480A
:102F10000068142800D110BD002240F22661F54857
:102F200005F08DFFF448EF49097810F8310010B32F
:102F3000EC480078EA49097888421CD0EE48E94913
:102F4000097810F83100401EEB49E64A127801F882
:102F500032000846E34A127800EBC2004068E74AB4
:102F60001278815CE34805F0CBFFE4480078401C10
:102F7000E24908705BE0DB480078D949097888426B
:102F80004CD0DD48D74A127800EBC2004168D848DF
:102F90000068FDF7F2F9D3480078401CC0B2D1496F
:102FA0000870142801DB00200870CF480068401C1E
:102FB000CD490860142801D3142008600020CF49AF
:102FC0000870C8480078C649097888421CD0CA48A9
:102FD000C449097810F83100401EC1B2C648C14A40
:102FE000127800F83210BF4A127800EBC200406835
:102FF000C24A1278815CBF4805F082FFBF48007862
:10300000401CBE49087012E00020BD490870142021
:10301000B54908600020B949087008E00020B849A7
:1030200008701420B04908600020B44908700122DB
:1030300040F22661AF4805F002FF00BF6BE710B514
:10304000AC4805F061FFC1B2A34802780078401C8B
:10305000A14B1870AB488154184600789F490978F5
:10306000884204D19D480078401C9C49087010BDDE
:10307000F8B505460C4626460CB90120F8BD0022DD
:1030800040F226619B4805F0DAFE1C2094FBF0F12B
:1030900000FB114028B11C2094FBF0F0401CC4B28E
:1030A00003E01C2094FBF0F0C4B28F480068A042FB
:1030B00007D2012240F226618E4805F0C0FEFF20B3
:1030C000DCE769468A480068FDF741F98A49844A85
:1030D000127801EBC201486081480078142802DBB5
:1030E00000207F49087000242FE0287882497C4A1C
:1030F000127801EBC20149680855601CC4B21C2C4F
:1031000020DB1C217C48764A127800F83210744883
:103110000078401CC0B272490870142801DB0020FE
:103120000870694672480068FDF711F972496C4AE7
:10313000127801EBC20148606B480068401E6A4982
:10314000086000246D1C701EC6B2002ECDD19CB14B
:1031500069486349097800F8314063480068401EB7
:10316000614908605E480078401CC0B25C49087044
:10317000142801DB002008706148007820B9FFF7AF
:10318000C5FE01205E490870012240F226615948BF
:1031900005F055FE002071E770B50546002400E0FB
:1031A000641C285D0028FBD1E1B22846FFF760FFD0
:1031B00070BD30B54FF0FF3062E0534C2478002CE6
:1031C00037D10022454C2478241FE1B24D4C645C79
:1031D000552C01D1541CE2B2404C2478E41EE1B2DB
:1031E000484C645CAA2C01D1541CE2B23B4C2478BC
:1031F000A41EE1B2434C645C152C01D1541CE2B214
:10320000032A38D10124404D2C70344C2478641E9C
:10321000E1B23C4C645C3D4D2C70304C24783C4D0C
:103220002C702E4C2478394D2D782C44394D2C702F
:1032300021E02A4C2478374D2D78AC421BD1002454
:10324000314D2C70324C23780022002107E02D4CA8
:10325000E45C1444E2B25C1CE3B24C1CE1B22B4CC3
:103260002478A142F3DB274CE45C944203D1254C43
:10327000274D2D78605D194C2478641C174D2C70F7
:10328000164C2478144D2D78AC4296D130BD2DE9E2
:10329000F04305460E46079C002700204FF05509D5
:1032A0008046401C04F808904FF0AA098046401C54
:1032B00004F808904FF015098046401C04F8089067
:1032C00003F1020C8046401C04F808C08046401CF4
:1032D00004F8085080461FE0A4010020A50100204A
:1032E0009B0100209C010020A0010020081F00205D
:1032F000AC01002000480040681D00209A01002019
:1033000084010020081E0020A8010020A90100203F
:10331000A6010020A7010020401C04F808605BB94A
:1033200005EB060C0CF0FF07844600F1010808F0DD
:10333000FF0004F80C7020E005EB060C0CF0FF0712
:10334000002111E012F80190844600F1010808F014
:10335000FF0004F80C9012F801C0BC440CF0FF0709
:1033600001F1010C0CF0FF019942EBDB844600F106
:10337000010808F0FF0004F80C70BDE8F0832DE9A7
:10338000F84F8246504606F001FA009006F03AFAED
:1033900080460022F84B06F081F906460022F74BE2
:1033A00006F00AF9044606F069FA83465846BDE875
:1033B000F88F10B5014600200A46F14CA35C541C5E
:1033C000E2B2EF4CA45C43EA042010BD2DE9F04FBB
:1033D000C7B04FF4807107A805F061FF0020069088
:1033E000039004900590E7490870E548E64909789C
:1033F00010F80190B9F1040F7ED009DCB9F1010F8A
:103400000DD0B9F1020F78D0B9F1030F76D1A9E14F
:10341000B9F1050F73D0B9F1FF0FF7D1EBE1D8493E
:10342000D9480078401C0C5C132C02D0142C67D1B6
:10343000BFE0D349D4480078801C0E5C304606F0CB
:10344000BBF982460022D14B06F028F9074606F068
:1034500015FACF490860CA49CB480078C01C0E5CF9
:10346000304606F0A9F907460022C84B06F016F9C7
:10347000824606F003FAC6498860C149C24800780E
:10348000001D0E5C304606F097F982460022BF4BC5
:1034900006F004F9074606F0F1F9BD49C860B849DD
:1034A000B9480078401D0E5C304606F085F90746A5
:1034B0000022B64B06F0F2F8824606F0DFF9B44976
:1034C0004861AF49B0480078801D0E5C704206F03C
:1034D00062F907460022AD4B06F0E0F8824606F09E
:1034E000CDF9AB498861A649A7480078C01D0E5C9C
:1034F000704206F050F904E07CE1A4E08EE1DAE0ED
:103500009EE007460022A14B06F0C8F8824606F06E
:10351000B5F99F4908629A499B48007808300E5CCB
:10352000304606F049F982460022984B06F0B6F87C
:10353000074606F0A3F996494862914992480078F7
:1035400009300E5C304606F037F9074600228F4BF3
:1035500006F0A4F8824606F091F98D49C86200256C
:103560000BE089480078801C28448549095C05F1F6
:103570000800884A1154681CC5B2082DF1DB854A41
:103580001021854800F039FA07A800907C487E4950
:1035900009780844821C082321464846FFF777FE35
:1035A000069007A80699FFF763FD01207B49087084
:1035B00047E075490978891CC8B2FFF7FAFE7849D7
:1035C000086071490978091DC8B2FFF7F2FE754914
:1035D00008606D490978891DC8B2FFF7EAFE724993
:1035E0000860694909780831C8B2FFF7E2FE6F49FF
:1035F0000860002509E064480078801C2844604980
:10360000085C64494855681CC5B2082DF3DB614A63
:103610001021614800F0F1F96548047007A8009096
:103620005748594909780844821C082321464846CE
:10363000FFF72DFE069007A80699FFF719FD00E099
:1036400000BF00BFEBE04E494F480078401C0C5CC7
:10365000082C2DD2DFE804F02C040506072C0816F0
:1036600027E026E025E024E007A800231A462146AB
:1036700000904846FFF70BFE069007A80699FFF753
:10368000F7FC16E04B4800681421B0FBF1F0C0B223
:103690008DF8080007A8012302AA21460090484699
:1036A000FFF7F5FD069007A80699FFF7E1FC00E09B
:1036B00000BF00BFB3E0324933480078401C0C5CC7
:1036C000022C02D0042C4AD132E02D492E48007839
:1036D000801C0E5C384806702B480078C01C0E5CBD
:1036E0003046FFF74CFE35490860354933480068DD
:1036F00006F0EAF800D833E0324800683249086042
:1037000001203249087000202A49086007A800906B
:103710001B481D4909780844821C04232146484659
:10372000FFF7B5FD069007A80699FFF7A1FC17E083
:10373000FEF7E8FA0020254908701E4908601F4975
:10374000086007A800231A46214600904846FFF764
:103750009EFD069007A80699FFF78AFC00E000BFCF
:1037600000BF5CE0064908480078401C0C5C012C56
:103770002ED0022C3BD133E000E06F4000008940A6
:10378000081E00208B010020A601002000408F4071
:10379000D41B00200823002010F00108380100206D
:1037A000480100204C01002050010020540100205D
:1037B000BA01002038030020B00100209001002051
:1037C0000000C843AC020020B40100208C0100209E
:1037D0002B480078062802DC01202A49087007E0FF
:1037E00000202849087003900490059000E000BF75
:1037F00000BF14E013E0012C02D0022C0BD103E037
:1038000001202049087007E000201E49087003903D
:103810000490059000E000BF00BF00E000BF00BFC3
:1038200047B0BDE8F08F10B5174800781749097800
:10383000884205D0FFF7BDFC401C01D0FFF7C6FD54
:1038400010BD0146012903DB642901DA104806E0B6
:10385000642903DBFF2901DC0E4800E000207047EB
:1038600010B502460B460020002105E0545C8C4058
:103870000443E0B24C1CE1B29942F7DB10BD0000FA
:10388000BA0100208B010020A5010020A401002026
:103890009CC4A03E9CC4A0BE08B527208DF80000A3
:1038A00000208DF8010006208DF8020001208DF81F
:1038B0000300684602F0F7FD08BD10B586B0044667
:1038C0000121082004F06AFA0121880404F073FA47
:1038D0004FF4E06002F0E2FD27208DF800000020A8
:1038E0008DF8010006208DF8020001208DF80300FC
:1038F000684602F0D8FD4FF48060ADF8140018203F
:103900008DF8170003208DF8160005A92B4803F049
:103910008FFF4FF40060ADF8140004208DF81700FD
:1039200005A9264803F084FF01940020ADF80800A3
:10393000ADF80A00ADF80C00ADF810000C20ADF8A1
:103940000E0001A91E4805F0E2F9012240F22551BE
:103950001B4805F074FA012240F22661184805F070
:103960006EFA0121164805F05EFA06B010BD10B5DA
:103970002021134805F032FB012805D120211048F1
:1039800005F039FBFFF75BFB40210D4805F026FBF6
:10399000012805D140210A4805F02DFBFFF7B6FAB2
:1039A0000821074805F01AFB012806D10821044820
:1039B00005F021FB024805F0A7FA10BD000C0140FC
:1039C0000048004070B504460D462668701C08D1BA
:1039D00003F00FFC2946204603F020FD03F015FC00
:1039E0000AE003F006FC204603F048FC2946204686
:1039F00003F014FD03F009FC70BD2DE9F04105460C
:103A00000E461746002429E055F80480385D9C498D
:103A1000087038194078487018F101000AD103F095
:103A2000E8FB974A128891B2281903F02AFD03F0A7
:103A3000ECFB0CE003F0DDFB281903F01FFC904ABF
:103A4000128891B2281903F01CFD03F0DEFB012E51
:103A500000D105E0A01C84B2B01E86B2002ED3D1E6
:103A600000BFBDE8F08130B50346002013E01C5ACA
:103A7000834D2C60012903D12C46247814540CE08A
:103A80007F4C247814547E4C647815186C70841C18
:103A9000A0B28C1EA1B20029E9D100BF30BD2DE932
:103AA000F74183B00D461646002700240020019000
:103AB000A8460420029003F09CFB06F2FF30800A27
:103AC0000190352003F030FE00BF08E04FF4806223
:103AD000039902FB071003F0D1FB02907F1C0198B1
:103AE000874203D29DF808000428EFD0039C05E02C
:103AF00002CD204603F092FC0290241D039830442E
:103B0000A04203D99DF808000428F1D0039C09E0E5
:103B100058F8041B2068814203D0002006B0BDE89D
:103B2000F081241D03983044A042F1D803F06DFBCE
:103B30000120F3E737B5044615462A462046019989
:103B400005F094FB01203EBD2DE9F0414D4A1021C6
:103B50004D48FFF788FF4B4800784A49497840EACA
:103B600001204A490860474880784649C97840EAB8
:103B7000012047490860434800794249497940EAB1
:103B80000120444908603F4880793E49C97940EAAC
:103B90000120414908603B49087A05F00DFE0646C0
:103BA00000223E4B05F07AFD044605F067FE3C49D5
:103BB00008603449487A05F0FFFD06460022374B7D
:103BC00005F06CFD044605F059FE354988602D4925
:103BD000887A05F0F1FD06460022304B05F05EFDC7
:103BE000044605F04BFE2E49C8602649C87A05F008
:103BF000E3FD06460022294B05F050FD044605F082
:103C00003DFE274948611F49097B484205F0C3FD35
:103C100006460022214B05F041FD044605F02EFE2C
:103C20001F4988611749497B484205F0B4FD0646A3
:103C300000221A4B05F032FD044605F01FFE18491C
:103C400008621049887B05F0B7FD06460022134B39
:103C500005F024FD044605F011FE114948620949AA
:103C6000C87B05F0A9FD064600220C4B05F016FDA9
:103C7000044605F003FE0A49C862BDE8F081000071
:103C8000BC0100200823002010F00108480100209A
:103C90004C010020500100205401002000408F40C2
:103CA000041C00202DE9F04704464FF07C512046CB
:103CB00005F065FB814625462E46FE48A0EB6606CC
:103CC00035462946484605F05AFB8246294605F006
:103CD00056FB80464FF07F5105F04EFB07462946C4
:103CE00005F04DFB05462846BDE8F08730B50021BC
:103CF000002300224C1E72E0EF48007878BB0022BF
:103D0000EE480178EE48405C552801D1501CC2B203
:103D1000EA480078401CC1B2E948405C51280BD009
:103D2000E748405C522807D0E548405C542803D05F
:103D3000E348405C532801D1501CC2B2022A49D149
:103D40000120DD4D2870DD480078DE4D2870DB480D
:103D50000078DD4D2D782844DC4D28703AE0FFE7EF
:103D6000D6480078D94D2D78A84233D10020D24DC5
:103D70002870D44803780022002107E0D048C05CB6
:103D80001044C2B2581CC3B2481CC1B2CE4800781D
:103D90008142F3DBCA48CD4D2D78405D904219D168
:103DA000C74DC8480078401C285C44B2002200215E
:103DB00009E0C44800780844C3B2C148C05CC44D9F
:103DC0006854481CC1B2C0480078401C8142F0DBF6
:103DD000E0B230BDB9480078401CB84D2870B748F3
:103DE0000078BC4D2D78A84286D100BFF1E72DE9BF
:103DF000F04F87B08246BAF1510F7DD0BAF1520F21
:103E000003D0BAF1540F78D137E1B148C07800023D
:103E100000B2B1490880AE4880780988084400B2F1
:103E2000AD490880AA484079000200B2AB49088039
:103E3000A74800790988084400B2A8490880A44826
:103E4000C079000200B2A6490880A148807909889B
:103E5000084400B2A24908809F48B0F9000005F06C
:103E60008CFCA049019005F08AFA834605F0CAFC53
:103E7000804600229C4B05F011FC064600229B4B1D
:103E800005F09AFB00229A4BCDE9020105F006FCF1
:103E9000984A994BCDE9040105F08EFB044605F0E4
:103EA000EDFC964908608D48B0F9000005F065FC0E
:103EB0008C49019005F063FA834605F0A3FC0022CB
:103EC000894BCDE9020105F0E9FB06460022874B4C
:103ED00005F072FB04460022854B05F0DFFB854AA6
:103EE000854BCDE9040105F067FB804605F0C6FC73
:103EF000834908607A4801E054E044E1B0F90000E9
:103F000005F03BFC7F49019005F039FA834605F046
:103F100079FC0022744BCDE9020105F0BFFB80461D
:103F20000022724B05F048FB06460022704B05F05C
:103F3000B5FB04466F4A704B05F03EFBCDE904012A
:103F400005F09CFC704908606C48006805F05AFC5C
:103F500021F0004104466D4A6D4B05F067FC02D22A
:103F60000020664908606648006805F04BFC21F0B7
:103F700000410446654A664B05F058FC02D2002019
:103F80005F4908606048006805F03CFC21F0004192
:103F900004465E4A5E4B05F049FC02D200205A49B5
:103FA0000860F1E04A48C078000200B25949088030
:103FB000474880780988084400B256490880444838
:103FC0004079000200B254490880414800790988CC
:103FD000084400B2504908803D48C079000200B250
:103FE0004E4908803A4880790988084400B24B4914
:103FF00008804848B0F9000005F0BFFB484905902B
:1040000005F0BDF9834605F0FDFB06460022364B60
:1040100005F044FB04460022424B05F0CDFA8046F1
:1040200005F02CFC404908603B48B0F9000005F061
:10403000B2FB064600222C4B05F030FB0446002262
:10404000384B05F0B9FA804605F018FC374908608E
:104050003248B0F9000005F09EFB80460022224B5A
:1040600005F01CFB064600222E4B05F0A5FA04467F
:1040700005F004FC2E49086086E01548C07800026F
:1040800000B22C490880124880780988084400B2A0
:10409000284908800E484079000200B2264908806D
:1040A0000B4800790988084400B223490880084871
:1040B000C07943E0DF59375FE0020020E9000020CB
:1040C00010110020EA00002079000020EB00002001
:1040D00018230020E8000020C8010020CA010020A9
:1040E000CC010020000048430000E04000409F4019
:1040F000008066404AD8124DFB210940280200206A
:104100002C020020000082C3300200209A99999965
:104110009999C93FC2010020C4010020C6010020B6
:10412000000080BF000030401C0200202002002060
:1041300024020020CE010020D0010020000200B2A5
:10414000FE490880FE4880790988084400B2FB498E
:104150000880FC48B0F9000005F00FFB0446FA495E
:1041600005F00DF9F9490860F948B0F9000005F0CB
:1041700004FBF8490860F148B0F9000005F0FDFAC9
:10418000F549086000E000BF00BF07B0BDE8F08F50
:1041900001B59AB0002019901890179016901A98AF
:1041A0001590002014901598512808D01598522881
:1041B00005D01598532802D0159854287ED1E74889
:1041C000007800287BD11598FFF711FE159851282B
:1041D0001FD0522802D0542851D135E0E048006861
:1041E000E049E14A127841F82200E0480068E049DD
:1041F000DD4A127841F82200DE480068DE49DA4ADA
:10420000127841F82200D8480078401CD64908703E
:1042100045E0DA480168DA48DA4A127840F82210B4
:10422000D9480068D949D74A127841F82200D848BD
:104230000068D849D34A127841F82200D148007862
:10424000401CD04908702AE0C0480068D249D34ACF
:10425000127841F82200BF480068D149CF4A12784D
:1042600041F82200BC480068CE49CC4A127841F897
:104270002200CA480078401CC84908700FE0BA48BC
:104280000078401CB8490870BE480078401CBD4901
:104290000870C2480078401CC049087000BF00BFC9
:1042A000B148007806280ADDB64800780628FADD0D
:1042B000BA4800780628F6DD002001E037E2B5E1D3
:1042C000199016E01998401C05F057FAA54912906C
:1042D000199851F8200001461190129805F04FF8F6
:1042E0001390149904F0F3FF14901998401CC0B275
:1042F00019909D49097819988842E3DBAA491498D6
:1043000005F073F8A9490860002014900846006879
:10431000A74908600020199016E01998401C05F084
:104320002CFA93491290199851F8200001461190E7
:10433000129805F024F81390149904F0C8FF149013
:104340001998401CC0B21990874909781998884279
:10435000E3DB9549149805F048F89449086000207B
:10436000149008460068934908600020199016E0F0
:104370001998401C05F001FA7F491290199851F8DC
:10438000200001461190129804F0F9FF139014993F
:1043900004F09DFF14901998401CC0B21990724906
:1043A000097819988842E3DB7F49149805F01DF8D5
:1043B0007E49086000201490084600687E49086025
:1043C000002019900DE06E49199851F8200001461F
:1043D0001390149804F07BFF14901998401CC0B2FD
:1043E00019906849097819988842ECDB654800788B
:1043F00005F0CCF901461390149804F0F6FF6B49D0
:10440000086000201490084600686C49086000208D
:1044100019900DE05D49199851F82000014613905C
:10442000149804F054FF14901998401CC0B21990CD
:104430005449097819988842ECDB5248007805F015
:10444000A5F901461390149804F0CFFF574908606E
:10445000002014900846006859490860002019900F
:104460000DE04C49199851F820000146139014981A
:1044700004F02DFF14901998401CC0B219904149C6
:10448000097819988842ECDB3E48007805F07EF9FF
:1044900001461390149804F0A8FF444908600020D6
:1044A00014900846006847490860002019900DE004
:1044B0003949199851F8200001461390149804F0D6
:1044C00006FF14901998401CC0B21990334909781E
:1044D00019988842ECDB3148007805F057F901461D
:1044E0001390149804F081FF304908600020149064
:1044F0000846006834490860002019900DE02849FA
:10450000199851F8200001461390149804F0DFFE2A
:1045100014901998401CC0B2199020490978199834
:104520008842ECDB1D48007805F030F90146139015
:10453000149804F05AFF1D49086047E0D20100209A
:1045400018230020CE010020000080BF340200208C
:10455000D0010020380200203C020020B8020020D8
:104560002802002024230020200300202C02002009
:104570004423002030020020642300201C0200207D
:10458000842300202103002020020020A4230020F7
:1045900024020020C4230020E42300202203002062
:1045A000042400202424002000001042B402002033
:1045B000BC020020C0020020C4020020C80200206B
:1045C000CC020020D0020020D40200200020149051
:1045D00008460068FE490860002019900DE0FD497A
:1045E000199851F8200001461390149804F06FFEBA
:1045F00014901998401CC0B21990F749097819987D
:104600008842ECDBF448007805F0C0F801461390CE
:10461000149804F0EAFEF14908600020149008465E
:104620000068EF4908600120EE490870ED48007805
:1046300000287CD0EC480168006804F0A0FE1290CD
:10464000EA480168006804F09AFE1090E8480168A2
:10465000006804F094FE0F90109904F038FE119059
:10466000129904F034FE1390FFF71CFB1890E048F9
:104670001899006804F083FEDD490860DB4818994A
:10468000006804F07CFED9490860D7481899006892
:1046900004F075FED4490860D1480168006804F050
:1046A0006EFE1290CA480168006804F068FE10901F
:1046B000D0480168006804F062FE0F90109904F081
:1046C00006FE1190129904F002FE1390FFF7EAFA29
:1046D0001890C8481899006804F051FEC549086050
:1046E000BB481899006804F04AFEB9490860BC4804
:1046F0001899006804F043FEB9490860BA48006898
:1047000005F080F8CDE91001B848006805F07AF8A6
:10471000CDE90E01DDE9102306F0C8FCCDE9120158
:1047200005F0ACF8B4490860B148006800E08DE3DA
:1047300005F068F8CDE9100106F068FACDE912013C
:1047400005F09CF8AD4908600846006805F05AF885
:10475000CDE9080106F06AFDCDE90C01A648006824
:1047600005F050F8CDE9040106F0B6FDCDE90801E9
:104770009B48006805F046F8CDE90601DDE908230D
:1047800004F01AFFCDE90A01DDE90C2304F014FF5F
:10479000CDE910019948006805F034F8CDE904012D
:1047A00006F09AFDCDE908019348006805F02AF863
:1047B000CDE9000106F090FDCDE9040184480068D0
:1047C00005F020F8CDE90201DDE9042304F0F4FE50
:1047D000CDE90601DDE9082304F0EEFECDE90C0188
:1047E0008548006805F00EF8CDE9040106F01EFDCD
:1047F000CDE908017F48006805F004F8CDE906011D
:10480000DDE9082304F0D8FECDE90A01DDE90C2337
:1048100004F02BFECDE90E01DDE9102304F0C6FE05
:10482000CDE9120105F02AF817907448006804F0E9
:10483000E9FFCDE9080106F04FFDCDE90C0168481C
:10484000006804F0DFFFCDE90A01DDE90C2304F084
:10485000B3FECDE910016948006804F0D3FFCDE94B
:10486000080106F0E3FCCDE90C015948006804F0AA
:10487000C9FFCDE90A01DDE90C2304F09DFECDE975
:104880000E01DDE9102304F0F0FDCDE9120104F082
:10489000F5FF16900021179805F00CF803D2179831
:1048A00080F0004017900021169805F003F803D21D
:1048B000169880F00040169000214548006805F0E9
:1048C00003F817D200214B48006804F0F3FF11D21F
:1048D000DDE9160104F089FD0F9004F093FFCDE9A6
:1048E000100106F0D1FACDE9120104F0C7FF4449E6
:1048F000086064E000213648006804F0DBFF1DD248
:1049000000213C48006804F0D5FF17D2DDE916010C
:1049100004F06BFD0D9004F075FFCDE90E0106F07B
:10492000B3FA0022374BCDE9100104F045FECDE982
:10493000120104F0A3FF3249086040E0002124483E
:10494000006804F0C1FF1DD200212A48006804F06D
:10495000BBFF17D2DDE9160104F047FD0D9004F00E
:1049600051FFCDE90E0106F08FFA274A274BCDE91A
:10497000100104F01EFECDE9120104F07FFF204972
:1049800008601CE0DDE9160104F02FFD0B9004F037
:1049900039FFCDE90C0106F077FA1B4A1B4BCDE934
:1049A0000E0104F006FE0022164BCDE9100104F0C2
:1049B00003FECDE9120104F061FF114908601048BF
:1049C000006804F01FFF0022114BCDE9060121E031
:1049D000D80200202424002022030020B40200205A
:1049E000DC020020B8020020D0020020CC0200200F
:1049F000C8020020D4020020A4020020A802002047
:104A0000AC0200200000F0BF4AD8124DFB21094043
:104A10000000E03F04F0D0FDCDE9080106F05CFCA9
:104A2000CDE90C01FE48006804F0ECFE0022FD4BCD
:104A3000CDE9020104F0C0FDCDE9040106F04CFC13
:104A4000CDE90801F848006804F0DCFE0022F54BCF
:104A5000CDE9020104F0B0FDCDE9040106F03CFC13
:104A6000CDE90601DDE9082304F0A6FDCDE90A0140
:104A7000DDE90C2304F0A0FDCDE91001EB4800684E
:104A800004F0C0FE0022E74BCDE9060104F094FDDE
:104A9000CDE9080106F0CAFBCDE90C01E048006849
:104AA00004F0B0FE0022DF4BCDE9020104F084FDEA
:104AB000CDE9040106F0BAFBCDE90801DA48006847
:104AC00004F0A0FE0022D74BCDE9020104F074FDF2
:104AD000CDE9040106F0AAFBCDE90601DDE90823D2
:104AE00004F06AFDCDE90A01DDE90C2304F064FD60
:104AF000CDE90E01DDE9102304F0B7FCCDE9120188
:104B000004F0BCFECA490860C848006804F07AFE98
:104B10000022C44BCDE9060104F04EFDCDE90801A9
:104B200006F0DAFBCDE90C01BD48006804F06AFE2E
:104B30000022BC4BCDE9020104F03EFDCDE90401A9
:104B400006F0CAFBCDE90801B748006804F05AFE38
:104B50000022B44BCDE9020104F02EFDCDE90401A1
:104B600006F064FBCDE90601DDE9082304F024FD2D
:104B7000CDE90A01DDE90C2304F01EFDCDE91001A9
:104B8000AA48006804F03EFE0022A64BCDE90601CB
:104B900004F012FDCDE9080106F048FBCDE90C0157
:104BA0009F48006804F02EFE00229E4BCDE90201D2
:104BB00004F002FDCDE9040106F038FBCDE908015F
:104BC0009948006804F01EFE0022964BCDE90201D0
:104BD00004F0F2FCCDE9040106F07EFBCDE906010C
:104BE000DDE9082304F0E8FCCDE90A01DDE90C2346
:104BF00004F0E2FCCDE90E01DDE9102304F0D6FC5F
:104C0000CDE9120104F03AFE8A490860874800683D
:104C100004F0F8FD0022834BCDE9060104F0CCFC42
:104C2000CDE9080106F058FBCDE90C017C4800688D
:104C300004F0E8FD00227B4BCDE9020104F0BCFC4E
:104C4000CDE9040106F0F2FACDE9080176480068E2
:104C500004F0D8FD0022734BCDE9020104F0ACFC56
:104C6000CDE9040106F038FBCDE90601DDE90823B2
:104C700004F0A2FCCDE90A01DDE90C2304F09CFC60
:104C8000CDE910016948006804F0BCFD0022654BC5
:104C9000CDE9060104F090FCCDE9080106F0C6FA62
:104CA000CDE90C015E48006804F0ACFD00225D4BCC
:104CB000CDE9020104F080FCCDE9040106F00CFB13
:104CC000CDE908015848006804F09CFD0022554BCE
:104CD000CDE9020104F070FCCDE9040106F0A6FA6A
:104CE000CDE90601DDE9082304F066FCCDE90A01FF
:104CF000DDE90C2304F060FCCDE90E01DDE91023B1
:104D000004F0B3FBCDE9120104F0B8FD4A49086094
:104D10004648006804F076FD0022424BCDE90601CA
:104D200004F04AFCCDE9080106F080FACDE90C0157
:104D30003B48006804F066FD00223A4BCDE90201D1
:104D400004F03AFCCDE9040106F0C6FACDE9080109
:104D50003548006804F056FD0022324BCDE90201CF
:104D600004F02AFCCDE9040106F0B6FACDE906010B
:104D7000DDE9082304F020FCCDE90A01DDE90C237C
:104D800004F01AFCCDE910012848006804F03AFD4F
:104D90000022244BCDE9060104F00EFCCDE9080108
:104DA00006F09AFACDE90C011D48006804F02AFDCE
:104DB00000221C4BCDE9020104F0FEFBCDE9040109
:104DC00006F034FACDE908011748006804F01AFD2E
:104DD0000022144BCDE9020104F0EEFBCDE9040101
:104DE00006F024FACDE90601DDE9082304F0E4FB2E
:104DF000CDE90A01DDE90C2304F0DEFBCDE90E016B
:104E0000DDE9102304F0D2FBCDE9120104F036FDF8
:104E10000A49086000200A4908700A49087013E02E
:104E2000A80200200000E03FA4020020AC02002005
:104E300054020020580200205C0200206002002082
:104E40002003002021030020FE4908701BB000BD94
:104E500001B598B0002016901590149018981390F2
:104E600000201290119010900F900E900D900C90C9
:104E70000B900A90FBF7A5FE099004F087FCF2491D
:104E800008601398512808D01398522805D0139819
:104E9000532802D01398542879D11398FEF7A7FF0E
:104EA000EA480068EA49EB4A127841F82200EA48E9
:104EB0000068EA49E74A127841F82200E8480168A8
:104EC000E848E44A127840F82210E7480068E749C9
:104ED000E04A127841F82200E5480068E549DD4AD9
:104EE000127841F82200E4480068E449D94A12786F
:104EF00041F82200E2480068E249D64A127841F8B7
:104F00002200E1480068E149D24A127841F82200C3
:104F1000DF480068DF49CF4A127841F82200CD48C7
:104F20000078401CCB49087008460078062801DD4F
:104F3000002008700020169016E01698401C04F01F
:104F40001CFCC3490890169851F8200001460790B0
:104F5000089804F014FA0990149904F0B8F9149020
:104F60001698401CC0B2169016980628E5DBCA4970
:104F7000149804F03AFA0990C8480168099804F0B6
:104F8000F8F9C749086000201490169017E0F6E081
:104F90001698401C04F0F1FBB0490890169851F89F
:104FA000200001460790089804F0E9F90990149947
:104FB00004F08DF914901698401CC0B21690169803
:104FC0000628E5DBB449149804F00FFA0990B548B7
:104FD0000168099804F0CDF9B349086000201490E5
:104FE000169016E01698401C04F0C7FB9D490890E7
:104FF000169851F8200001460790089804F0BFF970
:105000000990149904F063F914901698401CC0B2EA
:10501000169016980628E5DB9F49149804F0E5F9E8
:105020000990A2480168099804F0A3F9A049086012
:105030000020149016900DE08C49169851F820002D
:1050400001460990149804F042F914901698401CF7
:10505000C0B2169016980628EEDB9649149804F014
:10506000C4F9954908600020149016900DE081491C
:10507000169851F8200001460990149804F027F979
:1050800014901698401CC0B2169016980628EEDBB5
:105090008849149804F0A9F9884908600020149000
:1050A00016900DE07549169851F8200001460990B8
:1050B000149804F00CF914901698401CC0B2169085
:1050C00016980628EEDB7B49149804F08EF97C498B
:1050D00008600020149016900DE06A49169851F867
:1050E000200001460990149804F0F1F814901698E5
:1050F000401CC0B2169016980628EEDB6D49149835
:1051000004F073F96F4908600020149016900DE0C8
:105110005E49169851F8200001460990149804F051
:10512000D6F814901698401CC0B21690169806280F
:10513000EEDB6049149804F058F9634908600020D8
:10514000149016900DE05349169851F8200001462E
:105150000990149804F0BBF814901698401CC0B243
:10516000169016980628EEDB5249149804F03DF983
:105170005649086000201490012055490870544891
:105180000078002801F0648052480078002857D049
:1051900051480068401C5049086008460068B0F556
:1051A000487F04D1002008604A490870FDE3444864
:1051B0000168006804F0E3F808904048016800685E
:1051C00004F0DDF806903C480168006804F0D7F868
:1051D0000590069904F07BF80790089904F077F899
:1051E0000990FEF75FFD159033481599006804F0AB
:1051F000C6F83149086031481599006804F0BFF8D5
:105200002E4908602E481599006804F0B8F82C491A
:105210000860324801683248006804F0B0F8129023
:10522000304801682E48006804F0A9F811902E4813
:1052300001682B48006804F0A2F81090274855E058
:105240000BE20000220300201403002028020020AB
:1052500024230020B00200202C0200204423002040
:1052600030020020642300201C0200208423002040
:1052700020020020A423002024020020C4230020B8
:1052800034020020E42300203802002004240020FF
:105290003C0200202424002000001042BC02002018
:1052A000E0010020C0020020E4010020C402002030
:1052B000E80100200000C040D4010020D8010020F7
:1052C000DC010020EC010020F0010020F4010020AE
:1052D000B9020020C0010020A002002058020020D6
:1052E000540200205C020020600200200168006877
:1052F00004F045F80F90FE480168FE48006804F08D
:105300003EF80E90FC480168FA48006804F037F84F
:105310000D90F7480168006804F031F80C90F648E9
:105320000168F348006804F02AF80B90F24801681D
:10533000006804F024F80A9011990D9804F019F807
:10534000039004F05FFA00224FF08043CDE904019E
:1053500004F032F90022E94BCDE9060104F02CF902
:10536000CDE9080104F08AFAE54908600B99129822
:1053700003F0ADFF059004F045FA00224FF08043A2
:10538000CDE9060104F018F9CDE9080104F076FA38
:10539000DC4908604FF07C500F9903F0EAFF04905D
:1053A0000C9903F0E6FF059004F02CFA00224FF070
:1053B0008043CDE9060104F0FFF8CDE9080104F0CF
:1053C0005DFAD1490860CF480168D048006803F011
:1053D000D6FF0990CC480168CD48006803F0CFFFA4
:1053E0000890099903F0C5FFCA490860C6480168DA
:1053F000C948006803F0C3FF0990C1480168C34869
:10540000006803F0BCFF0890099903F0B2FFC3499C
:105410000860BB480168BE48006803F0B0FF09900F
:10542000B8480168BC48006803F0A9FF08900999D2
:1054300003F09FFFBA490860B648006804F0E2F93B
:1054400021F00041B74AB84BCDE9080104F0EEF96C
:1054500002D20020AF490860B048006804F0D2F9D9
:1054600021F00041AF4AB04BCDE9080104F0DEF96C
:1054700002D20020A9490860A948006804F0C2F9D6
:1054800021F00041A74AA84BCDE9080104F0CEF96C
:1054900002D20020A2490860A44801689D48006823
:1054A00003F067FFA2490860A24801689B480068B2
:1054B00003F05FFFA0490860A048016898480068B1
:1054C00003F057FF9E4908609248006897490860BA
:1054D00092480068974908609148006897490860B9
:1054E00000218C48006804F0E5F94ED000218B487B
:1054F000006804F0DFF948D000218948006804F012
:10550000D9F942D0834801688E48006803F037FF1C
:1055100009908D480168099803F0D9FE8A4908600E
:105520007E4801688948006803F029FF099088488F
:105530000168099803F0CBFE854908607848016846
:105540008448006803F01BFF0990834801680998AC
:1055500003F0BDFE804908607B4801687F48006811
:1055600003F0B5FE7D490860794801687C48006811
:1055700003F0ADFE7A490860774801687948006811
:1055800003F0A5FE7749086006E000206E49086038
:105590006F490860704908605E4801687248006899
:1055A00003F0EDFE09906D480168099803F08FFE45
:1055B0006A490860594801686C48006803F0DFFEDA
:1055C000099067480168099803F081FE6449086002
:1055D000534801686648006803F0D1FE09906148AD
:1055E0000168099803F073FE5E490860504801683D
:1055F0006048006803F0C3FE0990584801680998A4
:1056000003F065FE554908604B4801685A48006838
:1056100003F0B5FE099052480168099803F057FE5F
:105620004F490860464801685448006803F0A7FEE7
:1056300009904C480168099803F049FE49490860FF
:10564000464800684E490860454800684D49086072
:10565000444800684C490860A8E52C480168006887
:1056600003F08DFE08902A480168006803F087FE69
:10567000069029480168006803F081FE05900699AC
:1056800003F025FE0790089903F021FE0990FEF72C
:1056900009FB159020481599006803F070FE1E491B
:1056A00008601B481599006803F069FE18490860F6
:1056B00016481599006803F062FE144908603348E3
:1056C0000168006803F05BFE0890314801680068DB
:1056D00003F055FE06902F480168006803F04FFE66
:1056E0000590069903F0F3FD0790089954E0000037
:1056F0005C02002058020020600200200000F0BF81
:10570000880200208C02002090020020DC01002092
:10571000D8010020E4020020D4010020E80200208B
:10572000EC020020FCA9F1D24D62503FFC020020A7
:1057300008030020000300200C03002004030020C5
:105740001003002074020020F002002078020020E4
:10575000F402002070020020F8020020E001002086
:10576000E4010020E8010020680200206C02002013
:10577000640200207C0200208002002084020020BD
:1057800004020020080200200C020020F401002086
:10579000F0010020EC01002003F099FD0990FEF7D4
:1057A00081FA1590FE481599006803F0E8FDFC4960
:1057B0000860FC481599006803F0E1FDF9490860AC
:1057C000F9481599006803F0DAFDF7490860F748D1
:1057D0000168F748006803F0D2FD1290F5480168AF
:1057E000F348006803F0CBFD1190F3480168F048DE
:1057F000006803F0C4FD1090EC480168006803F0F5
:10580000BEFD0F90EB480168E848006803F0B7FD63
:105810000E90E9480168E548006803F0B0FD0D907E
:10582000E4480168006803F0AAFD0C90E2480168B2
:10583000E048006803F0A3FD0B90DF4801680068B2
:1058400003F09DFD0A9011990D9803F040FD06901C
:10585000D5480168069803F092FD089010990E98BB
:1058600003F087FD0490CF480168049803F087FD9A
:1058700006904FF07C500C9903F07BFD03900A9941
:1058800003F077FD0490C6480168049803F077FDA3
:105890000590069903F01BFD0790089903F017FD8A
:1058A0004FF08041099003F06AFDC44908601299E5
:1058B0000B9803F05EFD0690BB480168069803F064
:1058C0005EFD08904FF07C500F9903F052FD03905D
:1058D0000A9903F04EFD0490B2480168049803F061
:1058E0004EFD069010990E9803F0F1FC0490AC4820
:1058F0000168049803F043FD0590069903F0E7FC66
:105900000790089903F0E3FC4FF08041099003F001
:1059100036FDAB49086008460168006803F02FFDBA
:105920000490A6480168006803F029FD03900499DB
:1059300003F0CDFC059003F065FFCDE9060105F00D
:1059400023FDCDE9080103F099FF9E4908604FF05F
:105950007C500F9903F00DFD05900C9903F009FDA3
:10596000069091480168069803F009FD0890129985
:105970000B9803F0ACFC04908A480168049803F08B
:10598000FEFC069011990D9803F0F3FC04908448F6
:105990000168049803F0F3FC0590069903F097FC66
:1059A0000790089903F093FC00E087E24FF08041F4
:1059B000099003F0E4FC8449086011990D9803F004
:1059C000D8FC039003F01EFF00224FF08043CDE986
:1059D000040103F0F1FD00227C4BCDE9060103F048
:1059E000EBFDCDE9080103F049FF794908600B9907
:1059F000129803F06CFC059003F004FF00224FF0B6
:105A00008043CDE9060103F0D7FDCDE9080103F09D
:105A100035FF704908604FF07C500F9903F0A9FCE6
:105A200004900C9903F0A5FC059003F0EBFE002216
:105A30004FF08043CDE9060103F0BEFDCDE908013A
:105A400003F01CFF6449086011990D9803F091FC64
:105A500002905D480168029803F091FC04904FF0B9
:105A60007C500C9903F085FC01900A9903F081FCAD
:105A7000029054480168029803F081FC0390049955
:105A800003F025FC059003F0BDFE00224FF04043DB
:105A9000CDE9060103F090FDCDE9080103F0EEFE2B
:105AA0004E4908600B99129803F011FC0290464889
:105AB0000168029803F063FC049010990E9803F0BB
:105AC00058FC02903F480168029803F058FC03908C
:105AD000049903F0FCFB059003F094FE00224FF0C4
