:020000040800F2
:100000008028002045010008A1020008A302000882
:10001000A7020008AB020008AF02000800000000C1
:10002000000000000000000000000000B302000813
:10003000B502000800000000B7020008B90200087D
:100040005F0100085F0100085F0100085F01000810
:100050005F0100085F0100085F0100085F01000800
:100060005F0100085F0100085F0100085F010008F0
:100070005F0100085F010008AD0900085F0100088A
:100080005F0100085F0100085F010008F30D000830
:100090000F0E00085F0100085F0100085F01000803
:1000A0005F0100085F0100085F0100085F010008B0
:1000B000DB0B00085F0100085F0100085F0100081A
:1000C0005F0100085F0100085F0100085F01000890
:1000D0005F010008DD080008BF2700086F3900082D
:1000E0005F0100085F0100085F0100085F01000870
:1000F0005F0100085F0100085F0100085F01000860
:100100005F0100085F0100085F0100085F0100084F
:10011000F51300085F0100085F0100085F01000897
:100120005F0100085F0100085F0100085F0100082F
:10013000DFF80CD00BF096FD00480047690100087D
:10014000802800200648804706480047FEE7FEE773
:10015000FEE7FEE7FEE7FEE7FEE7FEE7FEE7FEE777
:10016000F9B10008310100081CB53FA103C9CDE970
:1001700000010BF041F84FF4E13000F011F94FF4B9
:10018000E13001F049FE4FF4164002F0A5FE4FF4B5
:10019000E13001F059F900F0BFFE01F015FE00F06A
:1001A000B5FC00F031FC01F057FC02F0A7FD02F0B5
:1001B0002FFB03F0C9FC4FF47A7000F00DFC00F047
:1001C00002FD2B49086034E02A4800782A49097862
:1001D00088421DD003F0A7FF284908700846007820
:1001E00051280BD008460078522807D008460078DE
:1001F000532803D008460078542809D120491F48C5
:10020000007804F0B0F91F480078401C1D490870C0
:1002100000F0D9FC1C4908600968154A1268881A60
:100220000BF0FAFA194908601949184800680BF0F0
:1002300091FB144800781528C6DB02F0BDFC14229F
:100240000621144802F0C9FC32220121124802F0B2
:10025000C4FC14220A21114802F0BFFC02F0B9FCD0
:1002600001E002F0E6FCFCE711223344556677001A
:1002700008000020E9000020E80000201000002015
:10028000E8010020000000200C00002004000020F5
:10029000001B374A8F2E0008E98400083D2600081D
:1002A000704700BFFEE700BFFEE700BFFEE700BFEC
:1002B000FEE770477047704710B502F0E3FC10BDD1
:1002C0000246002003E000231354431C98B28842E6
:1002D000F9DB70472DE9F04F07460D461646994663
:1002E00007EB0508BA460024A34601E0601C84B26F
:1002F0002A4850F8340008B1082CF7DD082C05DB3B
:10030000FF2089F800000020BDE8F08F234840F866
:10031000347000EBC4000571204800EBC400467146
:100320001E4800EBC4008671A34605FB06F1384663
:10033000FFF7C6FF002405E0CAF80080C246A844C3
:10034000601C84B2701EA042F6DC144800EBCB00A7
:10035000DAE710B502461368907918B9FF200870E3
:10036000002010BD9079401E9071907908B11868F6
:1003700010601C46241D002008702046F1E702464C
:1003800009B9FF207047091F0B46106818601360F9
:100390009079401C90710020F4E70000F4020020E6
:1003A00038B504460020FE490870FE490870FE4931
:1003B0000870FE4908701420FD490870204600F0BE
:1003C0003AFA6B4620221146FA48FFF783FFFA49B2
:1003D000086038BD10B5F6480078142800D110BD6B
:1003E000002240F22661F5480AF06FFDF448EF491B
:1003F000097810F8310010B3EC480078EA49097820
:1004000088421CD0EE48E949097810F83100401EB6
:10041000EB49E64A127801F832000846E34A1278BE
:1004200000EBC2004068E74A1278815CE3480AF0BA
:10043000ADFDE4480078401CE24908705CE0DB4810
:100440000078D949097888424DD0DD48D74A1278DA
:1004500000EBC2004168D8480068FFF790FFD3481E
:100460000078401CC0B2D1490870142801DB00207C
:100470000870CF480078401CC0B2CD4908701428DD
:1004800001DB142008700020CE490870C7480078AE
:10049000C549097888421CD0C948C449097810F870
:1004A0003100401EC1B2C648C04A127800F832106E
:1004B000BE4A127800EBC2004068C24A1278815CE2
:1004C000BE480AF063FDBF480078401CBD49087073
:1004D00012E00020BC4908701420B54908700020C3
:1004E000B849087008E00020B74908701420B049E6
:1004F00008700020B3490870012240F22661AF481D
:100500000AF0E3FC00BF6AE710B5AC480AF042FD10
:10051000C1B2A34802780078401CA14B1870AB48C8
:100520008154184600789F490978884204D19D4833
:100530000078401C9B49087010BDF8B505460C4674
:1005400026460CB90120F8BD002240F226619B48E6
:100550000AF0BBFC1C2094FBF0F100FB114028B119
:100560001C2094FBF0F0401CC4B203E01C2094FB60
:10057000F0F0C4B28E480078A04207DA012240F2BF
:1005800026618E480AF0A1FCFF20DCE769468A4814
:100590000068FFF7DEFE8A49834A127801EBC20148
:1005A000486081480078142802DB00207E490870EA
:1005B00000242FE0287882497B4A127801EBC2019F
:1005C00049680855601CC4B21C2C20DB1C217C48E7
:1005D000754A127800F8321073480078401CC0B297
:1005E00071490870142801DB0020087069467248C0
:1005F0000068FFF7AEFE72496B4A127801EBC20148
:1006000048606B480078401E6949087000246D1CE2
:10061000701EC6B2002ECDD19CB1694862490978DE
:1006200000F8314062480078401E614908705E4819
:100630000078401CC0B25C490870142801DB00201F
:1006400008706148007820B9FFF7C4FE01205E49B8
:100650000870012240F2266158480AF036FC00205A
:1006600071E770B50546002400E0641C285D002891
:10067000FBD1E1B22846FFF760FF70BD10B54B48D3
:10068000007849490978884234D04D48474A127861
:1006900000EBC200416848480068FFF770FE43481D
:1006A0000078401CC0B241490870142801DB0020CA
:1006B00008703F480078401CC0B23D4908701428BB
:1006C00001DB1420087039480078374909788842DE
:1006D0000CD03B4A354B1B7812F83310334B1B7848
:1006E00002EBC302506800F01CF924E000203649F8
:1006F000087020E032482D4A127800EBC2004168B1
:100700002D480068FFF73BFE28480078401CC0B227
:1007100026490870142801DB00200870244800785E
:10072000401CC0B222490870142801DB1420087054
:1007300000202549087010BD10B55CE0244A1278ED
:10074000002A53D10020174A1278921ED1B21F4AB4
:10075000525C552A01D1421CD0B2124A1278521E64
:10076000D1B21A4A525CAA2A01D1421CD0B20D4A17
:100770001278184B1B68022404FB0322D1B2134ADF
:10078000525CFF2A01D1421CD0B203282ED1012293
:100790000F4B1A70034A12780F4B1A70014A1DE072
:1007A0002500002026000020220000202300002039
:1007B00024000020F00400202C000020003801401C
:1007C000500300202100002014000020F00300202E
:1007D000200000201C000020270000201278094B78
:1007E0001B68022404FB0322074B1A70074A127885
:1007F000521C064B1A70054A1278054B1B789A4218
:100800009CD110BD1C0000202800002026000020E4
:100810002500002008B525208DF8000000208DF867
:10082000010003208DF8020001208DF803006846C6
:1008300007F07FFE08BD10B586B00446012144F2E2
:10084000050009F0F1FA01A809F0C1F84FF40070B1
:10085000ADF8040003208DF8060018208DF807007D
:1008600001A9594809F02AF801A809F0B0F84FF495
:100870008060ADF8040004208DF8070001A95248FB
:1008800009F01CF851480AF045FA02A80AF0EEFAFD
:1008900002940020ADF80C00ADF80E00ADF8100089
:1008A0000C20ADF812000020ADF8140002A9474852
:1008B0000AF073FA012240F2266144480AF005FB6F
:1008C000FFF7A8FF012240F2255140480AF0FDFA47
:1008D00001213E480AF0EDFA06B010BD10B5202106
:1008E0003A480AF0C1FB012808D1202137480AF014
:1008F000C8FB3748007808B1FFF706FE40213348AF
:100900000AF0B2FB012808D1402130480AF0B9FBB7
:100910002F48007808B1FFF75DFD01202C490870D1
:1009200010BD30B58DB005460C460121084609F0D2
:100930006EFA284808F05CFB2448001D02900395DD
:10094000102004900594002006908020079000203D
:10095000089009900A904FF440500B9000200C90A2
:1009600002A91C4808F0E6FB01220221194808F000
:1009700018FC0E208DF8040000208DF805008DF87D
:10098000060001208DF8070001A807F0D2FD012123
:10099000104808F0FAFB012280210C480AF0BAFA4C
:1009A00001210A480AF085FA0DB030BD10B54FF4A8
:1009B000005008F023FC012804D1400308F013FC88
:1009C000FFF75CFE10BD0000000801400038014048
:1009D0003000002044000240002107E0002200E037
:1009E000521C43F278739A42FADB491C8142F5D3D8
:1009F0007047002105E0002200E0521C0E2AFCDBBB
:100A0000491C8142F7D3704730B57F4800684FF4E6
:100A10007A72B0FBF2F1B1F1807F01D301201DE0C9
:100A200021F07F40401E4FF0E022506150170F220E
:100A3000002807DA13071D0E744B00F00F04241F63
:100A40001D5503E013071C0E714B1C5400BF002002
:100A50004FF0E022906107201061002008B100BF34
:100A6000FEE74FF0E020006920F001004FF0E021A8
:100A7000086130BD4FF0E020006940F001004FF008
:100A8000E0210861704708B54FF4E06007F04CFDC5
:100A90001C208DF8000000208DF8010005208DF845
:100AA000020001208DF80300684607F042FD08BDF2
:100AB0000EB50121084609F0C4F9FFF7E4FF4FF035
:100AC000804009F019FA41F28830ADF8040047205F
:100AD000ADF800000020ADF80600ADF80200694650
:100AE0004FF0804009F0DCFA012188070AF0FAF89B
:100AF00001221146900709F04AFE0121880709F0FA
:100B00002BFE0021012009F09CF90EBD0EB501213C
:100B1000062009F096F9684609F0EEFD4FF6FF70E1
:100B2000ADF804000020ADF80000ADF80600ADF807
:100B300002006946374809F0B3FA002211463548E9
:100B400009F0B1FE012133480AF052F83021314852
:100B500009F03CFE07212F480AF080F880212D483B
:100B60000AF085F801212B4809F0F6FE4FF6FF70D8
:100B7000ADF804004720ADF800000020ADF80600F5
:100B8000ADF802006946244809F08AFA012122489A
:100B900009F0E2FE042120480AF060F801211E4815
:100BA0000AF032F820211C480AF04FF880211A4838
:100BB0000AF05DF80121184809F0CEFD0121154821
:100BC00009F0CAFD0EBD0020124924310888000436
:100BD0001149243109880844704710B5012188075C
:100BE0000AF083F840B1012188070AF08FF80B481A
:100BF0000068401C09490860084800680A2802D3B8
:100C000000200649086010BDDC02002018ED00E05D
:100C100000E400E000040040000800403400002030
:100C200000B589B014208DF8000000208DF8010077
:100C300001208DF802008DF80300684607F079FC6A
:100C400013208DF8000000208DF8010002208DF89F
:100C5000020001208DF80300684607F06AFCAA48EC
:100C600007F0D0FC0121480609F0EBF8012108202B
:100C700009F0DAF80121084609F0D6F84FF480703F
:100C8000ADF8140003208DF8160048208DF81700E9
:100C900005A99E4808F012FE4FF40070ADF814004C
:100CA00003208DF8160018208DF8170005A9974825
:100CB00008F004FE01214FF4EA1008F0CEFE06A869
:100CC00007F0C4FD00208DF81E008DF81F008DF880
:100CD000200001208DF8210000208DF822008DF8E1
:100CE00023008DF81A008DF81B0001208DF81C00E0
:100CF00002208DF81D000C20ADF8180006A98248CE
:100D000007F099FC00208DF80E008DF80F000120EF
:100D10008DF810000020ADF80400ADF80600ADF825
:100D20000800ADF80A00ADF80C0001208DF81100A4
:100D300001A807F00AFD0221734808F006F9012115
:100D4000714808F002F9012203216F4807F0FCFF07
:100D500009B000BD7FB586B0DDE90E560798029058
:100D600004208DF80C009DF820008DF80D008DF802
:100D70000E50002407E009983044015D0DF10F008A
:100D80000155601CC4B2AC42F5DB01A95E4807F016
:100D9000CBFD0AB070BD30B585B00446A07B28B944
:100DA0002068009000208DF8080001E02068019084
:100DB00004208DF80800E07B18B900208DF80900A8
:100DC00002E002208DF80900207B8DF80A00002542
:100DD00006E0201D415D0DF10B004155681CC5B2B8
:100DE000207BA842F5DC6946474807F09DFD05B029
:100DF00030BD10B50121444808F00DF8012805D197
:100E00000121414808F0A1F800F097F810BD10B595
:100E100086B001AA00213C4807F07BFE9DF80D003A
:100E200000286AD1029880B20B2806D0A0F5806015
:100E3000093803D003285ED12EE05DE00298C0F3AC
:100E40000740012806D002280CD0032812D004281D
:100E500020D117E0DDF80F10DDF813002C4AC2E9AD
:100E6000001017E0DDF80F10DDF81300284AC2E982
:100E700004100FE0DDF80F10DDF81300244AC2E97A
:100E8000021007E0DDF80F10DDF81300204AC2E978
:100E9000061000BF00BF2FE00298C0F307400128F2
:100EA00006D002280CD0032812D0042820D117E045
:100EB000DDF80F4020460AF0A6FC1649086018E04D
:100EC000DDF80F4060420AF09EFC1249486010E0D5
:100ED000DDF80F4020460AF096FC0E49886008E0D5
:100EE000DDF80F4060420AF08EFC0A49C86000E05D
:100EF00000BF00BF00E000BF00BF0021024807F0B4
:100F000080FE06B010BD000000640040000C0140EF
:100F1000402400206024002008B50020F949087012
:100F2000F9490870FFF77CFE6B4620221146F7480E
:100F3000FFF7D0F9F649086008BD1CB5F548006810
:100F400020280DD10020F4490870F448F44A1278A2
:100F500000EB0210C168EE480068FFF710FA1CBDF4
:100F600000220121EF4807F0EFFEEC48EC49097838
:100F700000EB01100078002849D0E9480078EA49E0
:100F80000978884243D0E548E549097800EB01102B
:100F90000078082820DBE148E149097800EB0110DE
:100FA00000780838DD49DE4A127801EB021108703A
:100FB000DE4800680821CDE90010D848D8490978F2
:100FC00000EB011494E80F00FFF7C4FED748006857
:100FD0000830D649086097E0D4480168CF48D04A25
:100FE000127800EB02100078CDE90001CB48CC4923
:100FF000097800EB011494E80F00FFF7ABFE002026
:10100000C649C74A127801EB021108707CE0C44857
:101010000078C549097888426DD0C048C04A127826
:1010200000EB0210C168BA480068FFF7A8F9BC4895
:101030000078401CC0B2BA490870202801DB0020AB
:101040000870B4480068401CB2490860202801D3E9
:10105000202008600020B5490860B1480078B249F6
:10106000097888423DD0AD48AD49097800EB0110C0
:101070000078082821DBA948A949097800EB01106C
:1010800000780838C1B2A548A54A127800EB0210D2
:101090000170A64800680821CDE900109F48A049CA
:1010A000097800EB011494E80F00FFF753FE9F4806
:1010B000006808309D49086026E09C480168974810
:1010C000974A127800EB02100078CDE900019348AE
:1010D0009349097800EB011494E80F00FFF73AFEFA
:1010E00012E000208C49087020208A490860002006
:1010F0008E49086008E00020874908702020854953
:10110000086000208949086001221146854807F0DF
:101110001BFE00BF23E72DE9F84305460C461646A3
:101120001F46A04614B90120BDE8F8830022012122
:101130007C4807F009FE1C2094FBF0F100FB1140F5
:1011400028B11C2094FBF0F0401CC4B203E01C202A
:1011500094FBF0F0C4B26F480068A04206D20122AE
:101160001146704807F0F0FD0120DDE76946684848
:101170000068FFF7EEF869496B4A127801EB02113B
:10118000C86069480078202802DB002066490870A2
:1011900000243EE029786148634A127800EB02108F
:1011A000C0680155601CC4B21C2C2DDB5B485E4935
:1011B000097800EB011046601C2058495A4A127801
:1011C00001EB0211087055485749097800EB0110EE
:1011D000077255480078401CC0B253490870202857
:1011E00001DB00200870694649480068FFF7B1F844
:1011F0004A494D4A127801EB0211C860454800681F
:10120000401E4449086000246D1CA8F1010000F054
:10121000FF08B8F1000FBDD104B340484249097836
:1012200000EB011046603D483F49097800EB011092
:1012300004703A483C49097800EB011007723548C0
:101240000068401E3349086037480078401CC0B22F
:1012500035490870202801DB002008702E480078EE
:1012600020B901202C490870FFF767FE01221146C2
:101270002C4807F069FD002056E7002000212C4A89
:10128000116000BF03E000212A4A1154401CFF28CE
:10129000F9DD704710B50246002000BF03E00023CF
:1012A000244C2354401CFF28F9DD10BD0FB430B589
:1012B00000209DF8161000BF17E00DF11702135C17
:1012C000104A14781278521C0E4D2A70194A135580
:1012D0002A4612780C4B1B789A4204D10A4A12789B
:1012E000521C094B1A70421CD0B28842E5DB30BC5C
:1012F0005DF814FB024622B10F4802600F480170EE
:1013000023E01DE05400002055000020100C0020B8
:10131000580000203C00002041000020100900205F
:1013200039000020006400403800002050000020F8
:1013300044000020100B0020480000204C0000203A
:10134000B2F5807F01D9FF2070470020FCE7000044
:1013500010B586B0044634208DF8000000208DF8CA
:10136000010004208DF8020001208DF8030068467A
:1013700007F0DFF80121102008F056FD0121C80414
:1013800008F05FFD2D48406820F480602B494860DC
:101390000846406860F480604860C814ADF81400E6
:1013A00004208DF8170005A9244808F087FA019455
:1013B0000020ADF80800ADF80A00ADF80C00ADF85B
:1013C00010000C20ADF80E0001A91D4809F0E5FC45
:1013D000012240F225511A4809F077FD012240F21E
:1013E0002661174809F071FD0121154809F061FDDA
:1013F00006B010BD10B52021114809F035FE0128B6
:1014000008D120210E4809F03CFE0E48007808B1B2
:1014100000F0CEF840210A4809F026FE012808D144
:101420004021074809F02DFE0648007808B100F079
:1014300025F801200349087010BD0000001001408C
:10144000004C00405C00002038B504460020FE49F6
:101450000870FE490870FE490870FE4908701420A3
:10146000FD4908602046FFF773FF6B4620221146B6
:10147000FA48FEF72FFFFA49086038BD10B5F64864
:101480000068142800D110BD002240F22661F54802
:1014900009F01BFDF448EF49097810F8310018B342
:1014A000EC480078EA49097888421DD0EE48E949BD
:1014B000097810F83100401EEB49E64A127801F82D
:1014C00032000846E349097800EBC1004068E7496B
:1014D000097844182178E34809F058FDE34800787A
:1014E000401CE24908705BE0DA480078D849097886
:1014F00088424CD0DC48D74A127800EBC2004168E1
:10150000D7480068FEF73BFFD2480078401CC0B2C5
:10151000D0490870142801DB00200870CE4800680C
:10152000401CCD490860142801D314200860002015
:10153000CE490870C7480078C549097888421CD050
:10154000C948C449097810F83100401EC649C14A4B
:10155000127801F832000846BE4A127800EBC20049
:101560004068C24A1278815CBE4809F00FFDBF484E
:101570000078401CBD49087012E00020BC4908708A
:101580001420B54908600020B849087008E0002020
:10159000B74908701420B04908600020B3490870AA
:1015A000012240F22661AF4809F08FFC00BF6AE7D4
:1015B00010B5AC4809F0EEFCC1B2A348027800783F
:1015C000401CA14B1870AB488154184600789F49C5
:1015D0000978884204D19D480078401C9B490870D6
:1015E00010BDF8B505460C4626460CB90120F8BDDD
:1015F000002240F226619B4809F067FC1C2094FB06
:10160000F0F100FB114028B11C2094FBF0F0401CCD
:10161000C4B203E01C2094FBF0F0C4B28E48006812
:10162000A04207D2012240F226618E4809F04DFC0B
:10163000FF20DCE769468A480068FEF78AFE8A498F
:10164000834A127801EBC20148608148007814286F
:1016500002DB00207E49087000242FE028788249B0
:101660007B4A127801EBC20149680855601CC4B27C
:101670001C2C20DB1C217C48754A127800F83210A3
:1016800073480078401CC0B271490870142801DB0F
:1016900000200870694672480068FEF75AFE7249D9
:1016A0006B4A127801EBC20148606B480068401E2B
:1016B0006949086000246D1C701EC6B2002ECDD191
:1016C0009CB169486249097800F831406248006875
:1016D000401E614908605E480078401CC0B25C4909
:1016E0000870142801DB002008706148007820B9D8
:1016F000FFF7C4FE01205E490870012240F2266116
:10170000584809F0E2FB002071E770B50546002457
:1017100000E0641C285D0028FBD1E1B22846FFF7F9
:1017200060FF70BD7EB50020F5E0534C2478002C9E
:101730004AD10022454C2478641EE1B24D4C645CD1
:10174000022C01D1541CE2B2404C24784B4D2D6840
:10175000022606FB0544E1B2464C645C0D2C01D127
:10176000541CE2B2394C2478444D2D68022606FB05
:101770000544641CE1B23F4C645C0A2C01D1541C4A
:10178000E2B2324C24783D4D2D68022606FB05441A
:10179000A41CE1B2374C645C032C01D1541CE2B2AE
:1017A000042A10D10124344D2C700120274C2478B8
:1017B000334D2C70254C2478304D2D68022606FBC5
:1017C0000544304D2C70A1E0204C24782D4D2D780F
:1017D000AC42F8D10024284D2C70002100238DE06C
:1017E000274C24780C44234D2C5D302C0EDB244CEC
:1017F00024780C442C5D392C08DC214C24780C44D2
:101800002C5D303CE4B20DF8014014E01C4C24780F
:101810000C44184D2C5D412C0DDB194C24780C44E4
:101820002C5D462C07DC164C24780C442C5D373C90
:10183000E4B20DF80140124C24780C44641C0D4DA8
:101840002C5D302C32DB1FE0E8000020E900002096
:10185000E0000020E1000020E4000020B0110020A2
:10186000F0000020004C004010100020DE0000209E
:1018700060000020B01000207800002074000020DC
:10188000EA000020EB000020684C24780C44641C23
:101890002C5D392C0ADC654C24780C44641C2C5DCE
:1018A000303CE5B24C1C0DF8045018E05F4C247835
:1018B0000C44641C5E4D2C5D412C10DB5B4C247889
:1018C0000C44641C2C5D462C09DC584C24780C44D8
:1018D000641C2C5D373CE5B24C1C0DF804504C1CCC
:1018E0001DF804501DF8014005EB0414E6B21C4637
:1018F0005D1CEBB24F4D2E558C1CE1B24E4C246852
:10190000641E64008C423FF66BAF01204B4C247880
:10191000641C4A4D2C70494C2478494D2D78AC42BA
:101920007FF403AF7EBD10B50146012024E00A78A4
:1019300000EB8003434CE35C9A421CD14A7800EBF5
:10194000800323445B789A4215D18A7800EB8003A8
:1019500023449B789A420ED1CA7800EB800323443B
:10196000DB789A4207D10A7900EB800323441B7984
:101970009A4200D102E0401C1428D8DB00BF324A52
:101980001278324B1A70012801DB102800DD10BDDF
:101990002D4B187000BFFAE730B5C1B000244FF4EA
:1019A000807101A809F0C1FC002524480078244971
:1019B0000978884221D0FFF7B5FEF0B10120244913
:1019C000087005221B49234809F0BAFCA8B1194840
:1019D000FFF7A9FF01A801231B4A04210090022060
:1019E00001F055FCC4B2214601A801F041FB1948A1
:1019F00010490A6802600979017141B030BD0020C8
:101A00000AE01149097801EB81010E4A1144095C91
:101A1000084A1154411CC8B20528F2DB0D49054A99
:101A200013680B6012790A7170470000EA00002009
:101A3000B01000206100002074000020E9000020A8
:101A4000E80000207A0000206600002067000020E7
:101A5000680000206900002008B50121512008F02D
:101A6000E3F90420ADF8000010208DF803000320F6
:101A70008DF802006946CB4807F020FF0421C948D1
:101A800007F0C7FF4FF48040ADF8000010208DF83C
:101A9000030003208DF802006946C34807F00EFFDB
:101AA0004FF48041C04807F0B4FF08BD014600294B
:101AB00001DD08467047002901DA4842FAE7084686
:101AC000F8E72DE9F04F85B08246DFF8E0B2B8487C
:101AD0000068B74989680844B54949680844B44969
:101AE000C9684418E11704EB9171881009F08BFE66
:101AF0000290AF4800684042AD4989680844AC494B
:101B000049680844AA49C968441AE11704EB91716D
:101B1000881009F078FE0390A54909684942A44A53
:101B200092681144A24A5268891AA14AD268881858
:101B300009F077FE06460F46584609F0A9FE002236
:101B40009C4BCDE9000109F07DFD804632463B46C5
:101B500009F078FD044609F0D7FE97490490086023
:101B600002A807C88AE8070005B0BDE8F08FFFB5F6
:101B700085B00446914D2846089909F046FC064672
:101B8000DDE9060109F03BFC0746314609F037FC68
:101B900001902846089909F038FC0646DDE906015F
:101BA00009F0DBFB0746314609F0D7FB02902846D7
:101BB000089909F02AFC0646DDE9060109F0CDFB8B
:101BC0000746314609F01BFC03902846089909F0A6
:101BD0001CFC0646DDE9060109F011FC074631460A
:101BE00009F0BBFB049001A80FC884E80F0009B0FE
:101BF000F0BD2DE9FF470C9C6C4DDDE9000109F0BB
:101C0000ACFB8046029909F0A8FB0746039909F04E
:101C1000A4FB06464FF0814109F02DFC206000989E
:101C200080F000494846019909F097FB80460299E7
:101C300009F093FB0746039909F0E1FB06464FF0D4
:101C4000814109F018FC6060009880F0004A50461D
:101C5000019909F082FB8146029909F0D0FB804688
:101C6000039909F07AFB0746294609F0CEFB0646A0
:101C70004FF0814109F0FFFBA060BDE8FF872DE92F
:101C8000FC4104460D4616461F464DA103C9CDE949
:101C90000001F8B28DF80300F0B28DF80400E8B24C
:101CA0008DF805009DF802009DF8031008449DF88A
:101CB000041008449DF805100844C0B28DF80600D1
:101CC0000023224608216846FFF725FABDE8FC817B
:101CD0007CB504460D46002040EA044000F205367B
:101CE00008208DF800008DF8014090208DF802004A
:101CF00000208DF803000195002322460821684644
:101D0000FFF709FA7CBD704710B500211E20FFF7D0
:101D1000DFFF00211420FFF7DBFF00211720FFF772
:101D2000D7FF00211A20FFF7D3FF10BD7FB54FF07A
:101D30007E51009809F069FB054609F090FD0446C4
:101D400021461E20FFF7C4FF019880F000464FF0A7
:101D50007E51304609F059FB054609F080FD0446E6
:101D600021461420FFF7B4FF4FF07E51029809F08E
:101D70004CFB054609F073FD044621461720FFF78A
:101D8000A7FF039880F000464FF07E51304609F0DF
:101D90003CFB054609F063FD044621461A20FFF787
:101DA00097FF7FBD001801400010014090C4DF3A4A
:101DB000F00800200000D03FF40000200070124422
:101DC00055AA0300000000FF08B50121402008F0DB
:101DD0002BF80320ADF8000010208DF8030003203D
:101DE0008DF8020069460B4807F068FD0321094899
:101DF00007F00FFE08BD10B50121064807F0FCFDF5
:101E0000C0F10100C4B222460121024807F005FEDC
:101E100010BD00000018014038B504460020FE49FE
:101E20000870FE490870FE490870FE4908701420C9
:101E3000FD490860204600F06AFC6B4620221146EE
:101E4000FA48FEF747FAFA49086038BD10B5F64877
:101E50000068142800D110BD002240F22661F54828
:101E600009F033F8F448EF49097810F8310010B35D
:101E7000EC480078EA49097888421CD0EE48E949E4
:101E8000097810F83100401EEB49E64A127801F853
:101E900032000846E34A127800EBC2004068E74A85
:101EA0001278815CE34809F071F8E4480078401C3E
:101EB000E24908705BE0DB480078D949097888423C
:101EC0004CD0DD48D74A127800EBC2004168D848B0
:101ED0000068FEF754FAD3480078401CC0B2D149DC
:101EE0000870142801DB00200870CF480068401CEF
:101EF000CD490860142801D3142008600020CF4980
:101F00000870C8480078C649097888421CD0CA4879
:101F1000C449097810F83100401EC1B2C648C14A10
:101F2000127800F83210BF4A127800EBC200406805
:101F3000C24A1278815CBF4809F028F8BF4800788F
:101F4000401CBE49087012E00020BD4908701420F2
:101F5000B54908600020B949087008E00020B84978
:101F600008701420B04908600020B44908700122AC
:101F700040F22661AF4808F0A8FF00BF6BE710B53C
:101F8000AC4809F007F8C1B2A34802780078401CB9
:101F9000A14B1870AB488154184600789F490978C6
:101FA000884204D19D480078401C9C49087010BDAF
:101FB000F8B505460C4626460CB90120F8BD0022AE
:101FC00040F226619B4808F080FF1C2094FBF0F152
:101FD00000FB114028B11C2094FBF0F0401CC4B25F
:101FE00003E01C2094FBF0F0C4B28F480068A042CC
:101FF00007D2012240F226618E4808F066FFFF20DA
:10200000DCE769468A480068FEF7A3F98A49844AF2
:10201000127801EBC201486081480078142802DB85
:1020200000207F49087000242FE0287882497C4AEC
:10203000127801EBC20149680855601CC4B21C2C1F
:1020400020DB1C217C48764A127800F83210744854
:102050000078401CC0B272490870142801DB0020CF
:102060000870694672480068FEF773F972496C4A55
:10207000127801EBC20148606B480068401E6A4953
:10208000086000246D1C701EC6B2002ECDD19CB11C
:1020900069486349097800F8314063480068401E88
:1020A000614908605E480078401CC0B25C49087015
:1020B000142801DB002008706148007820B9FFF780
:1020C000C5FE01205E490870012240F22661594890
:1020D00008F0FBFE002071E770B50546002400E023
:1020E000641C285D0028FBD1E1B22846FFF760FFA1
:1020F00070BD30B5014600240A46524DAB5C551CFC
:10210000EAB2504DAD5C43EA0524204630BD2DE9CE
:10211000F04F85B04B484C490978405C04900498D6
:10212000302875D009DCA0F11A0008282AD2DFE88F
:1021300000F041F1FFEEED29ECEBA2282ED006DCF9
:10214000312866D0402865D0A1281BD104E0A328FF
:102150002ED0A428F9D12CE03A493B480078401C05
:102160000C5C3A48047038480078801C0C5C2046AF
:1021700001F005F93649086036493548006809F02C
:10218000E9FB00D8E6E134480068344908600120E2
:1021900033490870002033490860DBE1FFF7B4FDE4
:1021A00000202F4908702F49086029490860D1E1B3
:1021B000D0E1CFE12CA22EA102A809F0C3FD052198
:1021C00002A8FFF7F5FE2448006809F061FB054608
:1021D0002A460B4627A102A809F0B4FD072102A850
:1021E000FFF7E6FE24A222A102A809F0ABFD072119
:1021F00002A8FFF7DDFE2248006809F049FB05460A
:102200002A460B461BA102A809F09CFD072139E0D4
:1022100005E13BE16EE100001C0100201D010020F2
:10222000160100201701002018010020501700207F
:102230002401002000440040B015002015010020BA
:1022400000010020501600201E010020B0010020D7
:10225000100100200000C84364020020B4010020E7
:1022600014010020D8020020207961773D00000091
:1022700025730000256600002070697463683D00C6
:102280006002002002A8FFF793FEF3A2AFF2200144
:1022900002A809F057FD062102A8FFF789FEF048C1
:1022A000006809F0F5FA05462A460B46AFF23C01F4
:1022B00002A809F047FD072102A8FFF779FEE9A26D
:1022C000AFF2540102A809F03DFD032102A8FFF777
:1022D0006FFEE548006809F0DBFA05462A460B4622
:1022E000AFF2700102A809F02DFD082102A8FFF746
:1022F0005FFEDEA2AFF2880102A809F023FD0221F1
:1023000002A8FFF755FE25E17EE059E050E017E016
:102310000EE0FFE70120D6490870D649D64800787C
:10232000401C0C5C204601F02AF8D449086011E1F9
:10233000FFF7EAFC0020CE490870D049086009E1A7
:10234000CC49CD480078401C0C5C204609F07AFA54
:102350000546CB4ACB4B09F075F907460022CA4B1C
:1023600009F0E2F9824609F0CFFAC449086008464C
:10237000006809F08DFA05464FF03332C34B09F07F
:10238000AFFA03D8C248BD4908600DE0BB480068F9
:1023900009F07EFA05464FF03332BE4B09F08CFA55
:1023A00002D8BD48B54908600120BC490870D1E099
:1023B000FFF7AAFC0020B9490870B0490860C9E0DD
:1023C0000120B7490870B7490870AA49AA4800789F
:1023D000801C095CA74AA8480078401C105C41EAB0
:1023E00000200FFA80F9484609F01BFA0746002240
:1023F000AD4B09F099F9054609F086FAAB4908603A
:1024000000209E490860A5E00020A5490870FFF75C
:102410007BFC002099490860A24908709AE0954920
:1024200095480078401C0C5C204609F00BFA0746E2
:1024300000229F4B09F078F9054609F065FA9D499D
:1024400008608C498C480078801C0C5C204609F0A0
:10245000F9F907460022984B09F066F9054609F09C
:1024600053FA94494860834983480078C01C0C5C47
:10247000204609F0E7F9074600228F4B09F054F98E
:10248000054609F041FA8B49886063E079497A484A
:102490000078401C0C5C04EB8401480009F0B3F99F
:1024A00086490860084600688549086083480068D6
:1024B000844908606F4970480078801C0C5C204695
:1024C00009F0C0F905460022774B09F02DF90746BF
:1024D00009F01AFA7C490860084600687B490860E0
:1024E000794800687A490860624963480078C01CEE
:1024F0000C5C00BF01206A4908706A4908705D4998
:102500005D480078801C095C5A4A5B480078401C92
:10251000105C41EA00200FFA80F96E48006809F06B
:10252000B7F907468846484609F07BF90546002278
:102530005D4B09F0F9F83A464346CDE9000108F051
:10254000DAFF824609F0E0F95849086000204B495B
:10255000086000BF00BF05B0BDE8F08F30B54FF098
:10256000FF3064E05C4C2478002C37D100215B4CB8
:102570002478641FE2B23F4CA45C552C01D14C1C62
:10258000E1B2564C2478241FE2B23A4CA45CAA2C47
:1025900001D14C1CE1B2514C2478E41EE2B2354C1E
:1025A000A45C1E2C01D14C1CE1B203293AD10124B8
:1025B000494D2C70494C2478641EE2B22D4CA45C29
:1025C000474D2C70454C24782B4D2C70434C24786F
:1025D000434D2D782C44434D2C7023E03F4C247800
:1025E000404D2D78AC421DD100243B4D2C70224C27
:1025F00023780021002207E01E4CE45C0C44E1B289
:102600005C1CE3B2541CE2B2354C2478A242F3DBEA
:10261000CC43E1B2174CE45C8C4203D1154C164D0F
:102620002D78605D2D4C2478641C2C4D2C702B4C27
:1026300024782D4D2D78AC4294D130BD10B527486B
:10264000007829490978884205D0FFF787FF401CA8
:1026500001D0FFF75CFD10BD20726F6C6C3D000077
:102660005C02002020743D00BC0200200D0A000026
:102670006C010020501600201E01002010010020D7
:102680004AD8124DFB210940008066403333E33FB6
:102690009A99193F3333E3BF9A9919BF6D0100200E
:1026A0006E0100201401002000002440B40100202D
:1026B00000005940D41B002000408F402802002019
:1026C0002C020020300200203402002038020020BA
:1026D0003C02002064020020200100201D01002097
:1026E000210100201F0100201C01002008B5262028
:1026F0008DF8000000208DF8010006208DF8020002
:1027000001208DF80300684605F013FF08BD10B5E1
:1027100086B004460121042007F086FB012148040D
:1027200007F08FFB4FF4E06005F0FEFE26208DF8E9
:10273000000000208DF8010006208DF80200012025
:102740008DF80300684605F0F4FE0420ADF814008F
:1027500018208DF8170003208DF8160005A92948C8
:1027600007F0ACF80820ADF8140004208DF817002D
:1027700005A9244807F0A2F801940020ADF808004C
:10278000ADF80A00ADF80C00ADF810000C20ADF863
:102790000E0001A91C4808F000FB012240F225515F
:1027A000194808F092FB012240F22661164808F011
:1027B0008CFB0121144808F07CFB06B010BD10B55D
:1027C0002021114808F050FC012808D120210E4892
:1027D00008F057FC0D48007808B1FFF7D0FB402106
:1027E000094808F041FC012808D14021064808F0BA
:1027F00048FC0648007808B1FFF728FB0120034990
:10280000087010BD0008014000440040280100206D
:1028100008B501217D2007F007FBF020ADF800008E
:1028200048208DF8030003208DF802006946B44863
:1028300007F044F84FF20300ADF8000048208DF88F
:10284000030003208DF802006946AE4807F036F811
:102850004FF47C70ADF8000048208DF80300032091
:102860008DF802006946A84807F028F84FF47F4029
:10287000ADF8000048208DF8030003208DF8020019
:102880006946A24807F01AF84FF4FF40ADF800007F
:1028900048208DF8030003208DF8020069469C480B
:1028A00007F00CF800209B4908709B489B49086082
:1028B0009B4888609848C860994998484161994800
:1028C00096498861984995480162934893494862BE
:1028D00093499248C1629548954908600020486034
:1028E0008860944908609449086008BD2DE9FF4755
:1028F00082B01C46DDE90E780020009001908F48E0
:1029000001688F48006809F01BF804D000208A494C
:1029100008608C4908608A4801688B48006808F0A4
:102920006EFD844908600846006808F0B1FF05465E
:102930000022864B08F0C0FF0CD27E48006808F0E9
:10294000A7FF05460022824B08F0CAFF02D20020F2
:102950007849086077490398096808F056FD0546EC
:1029600078480168284608F0F8FC76490860724803
:1029700001687048006808F042FD814649460498A5
:1029800008F043FD06466B490298096808F03DFDD2
:1029900082466C480168504608F0DFFC0546314627
:1029A00008F0DBFCA060A06808F072FF05464FF05D
:1029B0003332684B08F094FF02D86748A0600BE000
:1029C000A06808F065FF05464FF03332634B08F00E
:1029D00073FF01D86248A060A06808F059FF05465F
:1029E000604A614B08F068FF0AD8A06808F050FF01
:1029F00005465C4A5D4B08F073FF01D80020A060DB
:102A00004C4800684C4908604D4800684B490860D4
:102A100006B0BDE8F0872DE9F04188B007460E46C4
:102A2000144600253B480078A0B100BF0DE005EB3F
:102A300045003A4901EB800005EB45014C4A02EBA9
:102A400081030ECB0EC0681CC5B2042DEFDB002045
:102A500030490870012E06D0022E0CD0032E17D05C
:102A6000042E2BD11DE02D4A07CA05AB07C30294E3
:102A70000020039023E0294AD2E903105269CDE9EE
:102A80000602059184F0004002900020039016E0B9
:102A9000224A183207CA05AB07C3002002900394EC
:102AA0000DE01E4AD2E90910D26ACDE9060205916D
:102AB0000020029084F00040039000E000BF00BFBF
:102AC000204608F0CCFEB0F1000801DB404601E0F2
:102AD000C8F1000010B92748007838B102AB14489B
:102AE000CDE9006407C8FFF701FF01E00020049072
:102AF00002A807C887E8070008B0BDE8F081000019
:102B000000080140000C0140001001400014014089
:102B100000180140380100208FC2753DA41B002021
:102B20008FC2F53C8FC275BD8FC2F5BCCDCC4C3D7C
:102B3000D41B00203C010020400100203401002073
:102B4000B401002030010020640200200000E03FBA
:102B50000000E0BF3333E33F9A99193F3333E3BFBB
:102B60009A9919BF7B14AE47E17A843FE17A84BF1A
:102B7000741B00206E010020014601EB41005E4AFB
:102B800052F8200008B908207047002001EB4102EC
:102B9000594B43F8220001EB410203EB8202908083
:102BA00001EB410203EB8202D08001EB410203EB17
:102BB0008202107200BFE7E710B5FDF725FF002481
:102BC00004E02046FFF7D8FF601CC4B2102CF8DBED
:102BD00010BD10B5FDF74EFF10BD70B503460C4695
:102BE000002101E0481CC1B201EB4100424D55F803
:102BF000200008B11029F5DB102901D1082070BD93
:102C000001EB41003C4D45F8203001EB410005EB64
:102C10008000848001EB410005EB8000C280002031
:102C200001EB4105344E06EB850528720846E6E7C0
:102C3000704710B5002420E004EB44002E4901EB5E
:102C40008000007A002816DD04EB44012A4A52F87D
:102C500021008047002004EB4401274A02EB810158
:102C6000087204EB4400114601EB8000C08810B9E3
:102C70002046FFF781FF601CC4B2102CDCDBFFF79D
:102C8000D7FF10BD002033E000EB40011A4A52F894
:102C9000211059B300EB400102EB81018988C1B9D1
:102CA000012100EB4002144B03EB8202117200EB96
:102CB00040011A4602EB8101C988B9B100EB40011D
:102CC00002EB8101C98800EB400203EB8202918094
:102CD0000CE000EB4001084A02EB81018988491EA3
:102CE00000EB4002044B03EB82029180411CC8B20E
:102CF0001028C9DB70470000E01B00200120674955
:102D00000870674867490860042067490860002028
:102D100066494860002165488160C16001206349BF
:102D200008740020704710B58CB00446201D07C8F9
:102D300009AB07C301A809A90EC9FEF718FF02A82D
:102D40000DC80199CDE90723CDE9051005A80FC8E5
:102D5000FEF7ECFF0CB010BD10B500244F48007812
:102D6000C0B100BF08E04F48006850F82400007C64
:102D700000B105E0601CC4B24B4800688442F2DB3D
:102D800000BF474850F824004949086008460068D9
:102D9000FFF7C9FF10BD0EB54648007868B10520A1
:102DA00045490870454800684860002142488160F4
:102DB000C1600120404908742BE04148007878B197
:102DC00005203D4908700020486000213A48816094
:102DD0003A4801683848C16001203749087418E052
:102DE0003848007890B105203349087033480268AC
:102DF000354801786846FFF70EFE2F489DE80E0023
:102E0000001D0EC001202C49087402E000202A4950
:102E100008740EBD30B502460B460024002104E0C4
:102E2000555C2544ECB24D1CE9B20829F8DB9C4204
:102E300001DB012000E0002030BD30B503460C4628
:102E40000020214605E05D5C012D00D101204D1CD4
:102E5000E9B29142F7DD30BD0EB51C48007890B163
:102E600005201B4908701B4802681748017868460E
:102E7000FFF7D1FD16489DE80E00001D0EC0012091
:102E80001349087402E00020114908740EBD10B502
:102E9000FFF781FFFFF760FF10BD000080010020F9
:102EA00058010020780100207C010020E81C00204F
:102EB000680100206C010020AC1C002010010020E3
:102EC0006D01002014010020B00100208C010020C1
:102ED000D41C00209001002038B504460020FE4993
:102EE0000870FE490870FE490870FE4908701420F9
:102EF000FD490860204600F0E0FC6B4620221146A8
:102F0000FA48FDF7E7F9FA49086038BD10B5F64808
:102F10000068142800D110BD002240F22661F54857
:102F200007F0D3FFF448EF49097810F8310010B3E7
:102F3000EC480078EA49097888421CD0EE48E94913
:102F4000097810F83100401EEB49E64A127801F882
:102F500032000846E34A127800EBC2004068E74AB4
:102F60001278815CE34808F011F8E4480078401CCE
:102F7000E24908705BE0DB480078D949097888426B
:102F80004CD0DD48D74A127800EBC2004168D848DF
:102F90000068FDF7F4F9D3480078401CC0B2D1496D
:102FA0000870142801DB00200870CF480068401C1E
:102FB000CD490860142801D3142008600020CF49AF
:102FC0000870C8480078C649097888421CD0CA48A9
:102FD000C449097810F83100401EC1B2C648C14A40
:102FE000127800F83210BF4A127800EBC200406835
:102FF000C24A1278815CBF4807F0C8FFBF4800781A
:10300000401CBE49087012E00020BD490870142021
:10301000B54908600020B949087008E00020B849A7
:1030200008701420B04908600020B44908700122DB
:1030300040F22661AF4807F048FF00BF6BE710B5CC
:10304000AC4807F0A7FFC1B2A34802780078401C43
:10305000A14B1870AB488154184600789F490978F5
:10306000884204D19D480078401C9C49087010BDDE
:10307000F8B505460C4626460CB90120F8BD0022DD
:1030800040F226619B4807F020FF1C2094FBF0F1E2
:1030900000FB114028B11C2094FBF0F0401CC4B28E
:1030A00003E01C2094FBF0F0C4B28F480068A042FB
:1030B00007D2012240F226618E4807F006FFFF206A
:1030C000DCE769468A480068FDF743F98A49844A83
:1030D000127801EBC201486081480078142802DBB5
:1030E00000207F49087000242FE0287882497C4A1C
:1030F000127801EBC20149680855601CC4B21C2C4F
:1031000020DB1C217C48764A127800F83210744883
:103110000078401CC0B272490870142801DB0020FE
:103120000870694672480068FDF713F972496C4AE5
:10313000127801EBC20148606B480068401E6A4982
:10314000086000246D1C701EC6B2002ECDD19CB14B
:1031500069486349097800F8314063480068401EB7
:10316000614908605E480078401CC0B25C49087044
:10317000142801DB002008706148007820B9FFF7AF
:10318000C5FE01205E490870012240F226615948BF
:1031900007F09BFE002071E770B50546002400E0B3
:1031A000641C285D0028FBD1E1B22846FFF760FFD0
:1031B00070BD30B54FF0FF3062E0534C2478002CE6
:1031C00037D10022454C2478241FE1B24D4C645C79
:1031D000552C01D1541CE2B2404C2478E41EE1B2DB
:1031E000484C645CAA2C01D1541CE2B23B4C2478BC
:1031F000A41EE1B2434C645C152C01D1541CE2B214
:10320000032A38D10124404D2C70344C2478641E9C
:10321000E1B23C4C645C3D4D2C70304C24783C4D0C
:103220002C702E4C2478394D2D782C44394D2C702F
:1032300021E02A4C2478374D2D78AC421BD1002454
:10324000314D2C70324C23780022002107E02D4CA8
:10325000E45C1444E2B25C1CE3B24C1CE1B22B4CC3
:103260002478A142F3DB274CE45C944203D1254C43
:10327000274D2D78605D194C2478641C174D2C70F7
:10328000164C2478144D2D78AC4296D130BD2DE9E2
:10329000F04305460E46079C002700204FF05509D5
:1032A0008046401C04F808904FF0AA098046401C54
:1032B00004F808904FF015098046401C04F8089067
:1032C00003F1020C8046401C04F808C08046401CF4
:1032D00004F8085080461FE0A4010020A50100204A
:1032E0009B0100209C010020A0010020A81E0020BE
:1032F000AC01002000480040081D00209A01002079
:1033000084010020A81D0020A8010020A9010020A0
:10331000A6010020A7010020401C04F808605BB94A
:1033200005EB060C0CF0FF07844600F1010808F0DD
:10333000FF0004F80C7020E005EB060C0CF0FF0712
:10334000002111E012F80190844600F1010808F014
:10335000FF0004F80C9012F801C0BC440CF0FF0709
:1033600001F1010C0CF0FF019942EBDB844600F106
:10337000010808F0FF0004F80C70BDE8F0832DE9A7
:10338000F84F8246504608F047FA009008F080FA5D
:1033900080460022F84B08F0C7F906460022F74B9A
:1033A00008F050F9044608F0AFFA83465846BDE8E5
:1033B000F88F10B5014600200A46F14CA35C541C5E
:1033C000E2B2EF4CA45C43EA042010BD2DE9F04FBB
:1033D000C7B04FF4807107A807F0A7FF0020069040
:1033E000039004900590E7490870E548E64909789C
:1033F00010F80190B9F1040F7ED009DCB9F1010F8A
:103400000DD0B9F1020F78D0B9F1030F76D1A9E14F
:10341000B9F1050F73D0B9F1FF0FF7D1EBE1D8493E
:10342000D9480078401C0C5C132C02D0142C67D1B6
:10343000BFE0D349D4480078801C0E5C304608F0C9
:1034400001FA82460022D14B08F06EF9074608F0D7
:103450005BFACF490860CA49CB480078C01C0E5CB3
:10346000304608F0EFF907460022C84B08F05CF937
:10347000824608F049FAC6498860C149C2480078C6
:10348000001D0E5C304608F0DDF982460022BF4B7D
:1034900008F04AF9074608F037FABD49C860B8494C
:1034A000B9480078401D0E5C304608F0CBF907465D
:1034B0000022B64B08F038F9824608F025FAB449E4
:1034C0004861AF49B0480078801D0E5C704208F03A
:1034D000A8F907460022AD4B08F026F9824608F00D
:1034E00013FAAB498861A649A7480078C01D0E5C55
:1034F000704208F096F904E07CE1A4E08EE1DAE0A5
:103500009EE007460022A14B08F00EF9824608F023
:10351000FBF99F4908629A499B48007808300E5C85
:10352000304608F08FF982460022984B08F0FCF8EC
:10353000074608F0E9F996494862914992480078AF
:1035400009300E5C304608F07DF9074600228F4BAB
:1035500008F0EAF8824608F0D7F98D49C8620025DC
:103560000BE089480078801C28448549095C05F1F6
:103570000800884A1154681CC5B2082DF1DB854A41
:103580001021854800F039FA07A800907C487E4950
:1035900009780844821C082321464846FFF777FE35
:1035A000069007A80699FFF763FD01207B49087084
:1035B00047E075490978891CC8B2FFF7FAFE7849D7
:1035C000086071490978091DC8B2FFF7F2FE754914
:1035D00008606D490978891DC8B2FFF7EAFE724993
:1035E0000860694909780831C8B2FFF7E2FE6F49FF
:1035F0000860002509E064480078801C2844604980
:10360000085C64494855681CC5B2082DF3DB614A63
:103610001021614800F0F1F96548047007A8009096
:103620005748594909780844821C082321464846CE
:10363000FFF72DFE069007A80699FFF719FD00E099
:1036400000BF00BFEBE04E494F480078401C0C5CC7
:10365000082C2DD2DFE804F02C040506072C0816F0
:1036600027E026E025E024E007A800231A462146AB
:1036700000904846FFF70BFE069007A80699FFF753
:10368000F7FC16E04B4800681421B0FBF1F0C0B223
:103690008DF8080007A8012302AA21460090484699
:1036A000FFF7F5FD069007A80699FFF7E1FC00E09B
:1036B00000BF00BFB3E0324933480078401C0C5CC7
:1036C000022C02D0042C4AD132E02D492E48007839
:1036D000801C0E5C384806702B480078C01C0E5CBD
:1036E0003046FFF74CFE35490860354933480068DD
:1036F00008F030F900D833E03248006832490860F9
:1037000001203249087000202A49086007A800906B
:103710001B481D4909780844821C04232146484659
:10372000FFF7B5FD069007A80699FFF7A1FC17E083
:10373000FEF7EAFA0020254908701E4908601F4973
:10374000086007A800231A46214600904846FFF764
:103750009EFD069007A80699FFF78AFC00E000BFCF
:1037600000BF5CE0064908480078401C0C5C012C56
:103770002ED0022C3BD133E000E06F4000008940A6
:10378000A81D00208B010020A601002000408F40D2
:10379000741B0020A822002010F00108380100202E
:1037A000480100204C01002050010020540100205D
:1037B000BA010020D8020020B001002090010020B2
:1037C0000000C84364020020B40100208C010020E6
:1037D0002B480078062802DC01202A49087007E0FF
:1037E00000202849087003900490059000E000BF75
:1037F00000BF14E013E0012C02D0022C0BD103E037
:1038000001202049087007E000201E49087003903D
:103810000490059000E000BF00BF00E000BF00BFC3
:1038200047B0BDE8F08F10B5174800781749097800
:10383000884205D0FFF7BDFC401C01D0FFF7C6FD54
:1038400010BD0146012903DB642901DA104806E0B6
:10385000642903DBFF2901DC0E4800E000207047EB
:1038600010B502460B460020002105E0545C8C4058
:103870000443E0B24C1CE1B29942F7DB10BD0000FA
:10388000BA0100208B010020A5010020A401002026
:103890009CC4A03E9CC4A0BE08B527208DF80000A3
:1038A00000208DF8010006208DF8020001208DF81F
:1038B0000300684604F03DFE08BD10B586B004461E
:1038C0000121082006F0B0FA0121880406F0B9FAB7
:1038D0004FF4E06004F028FE27208DF8000000205F
:1038E0008DF8010006208DF8020001208DF80300FC
:1038F000684604F01EFE4FF48060ADF814001820F6
:103900008DF8170003208DF8160005A92B4805F047
:10391000D5FF4FF40060ADF8140004208DF81700B7
:1039200005A9264805F0CAFF01940020ADF808005B
:10393000ADF80A00ADF80C00ADF810000C20ADF8A1
:103940000E0001A91E4807F028FA012240F2255175
:103950001B4807F0BAFA012240F22661184807F026
:10396000B4FA0121164807F0A4FA06B010BD10B54C
:103970002021134807F078FB012805D120211048A9
:1039800007F07FFBFFF75BFB40210D4807F06CFB66
:10399000012805D140210A4807F073FBFFF7B6FA6A
:1039A0000821074807F060FB012806D108210448D8
:1039B00007F067FB024807F0EDFA10BD000C01406C
:1039C0000048004070B504460D462668701C08D1BA
:1039D00005F055FC2946204605F066FD05F05BFC28
:1039E0000AE005F04CFC204605F08EFC29462046F6
:1039F00005F05AFD05F04FFC70BD2DE9F04105467C
:103A00000E461746002429E055F80480385D9C498D
:103A1000087038194078487018F101000AD105F093
:103A20002EFC974A128891B2281905F070FD05F016
:103A300032FC0CE005F023FC281905F065FC904AE7
:103A4000128891B2281905F062FD05F024FC012EC0
:103A500000D105E0A01C84B2B01E86B2002ED3D1E6
:103A600000BFBDE8F08130B50346002013E01C5ACA
:103A7000834D2C60012903D12C46247814540CE08A
:103A80007F4C247814547E4C647815186C70841C18
:103A9000A0B28C1EA1B20029E9D100BF30BD2DE932
:103AA000F74183B00D461646002700240020019000
:103AB000A8460420029005F0E2FB06F2FF30800ADF
:103AC0000190352005F076FE00BF08E04FF48062DB
:103AD000039902FB071005F017FC02907F1C019868
:103AE000874203D29DF808000428EFD0039C05E02C
:103AF00002CD204605F0D8FC0290241D03983044E6
:103B0000A04203D99DF808000428F1D0039C09E0E5
:103B100058F8041B2068814203D0002006B0BDE89D
:103B2000F081241D03983044A042F1D805F0B3FB86
:103B30000120F3E737B5044615462A462046019989
:103B400007F0DAFB01203EBD2DE9F0414D4A10217E
:103B50004D48FFF788FF4B4800784A49497840EACA
:103B600001204A490860474880784649C97840EAB8
:103B7000012047490860434800794249497940EAB1
:103B80000120444908603F4880793E49C97940EAAC
:103B90000120414908603B49087A07F053FE064678
:103BA00000223E4B07F0C0FD044607F0ADFE3C4945
:103BB00008603449487A07F045FE06460022374B34
:103BC00007F0B2FD044607F09FFE354988602D4995
:103BD000887A07F037FE06460022304B07F0A4FD36
:103BE000044607F091FE2E49C8602649C87A07F0BE
:103BF00029FE06460022294B07F096FD044607F0F1
:103C000083FE274948611F49097B484207F009FEA6
:103C100006460022214B07F087FD044607F074FE9C
:103C20001F4988611749497B484207F0FAFD06465B
:103C300000221A4B07F078FD044607F065FE18498C
:103C400008621049887B07F0FDFD06460022134BF1
:103C500007F06AFD044607F057FE1149486209491A
:103C6000C87B07F0EFFD064600220C4B07F05CFD19
:103C7000044607F049FE0A49C862BDE8F081000029
:103C8000BC010020A822002010F0010848010020FB
:103C90004C010020500100205401002000408F40C2
:103CA000A41B00202DE9F04704464FF07C5120462C
:103CB00007F0ABFB814625462E46FE48A0EB660684
:103CC00035462946484607F0A0FB8246294607F0BC
:103CD0009CFB80464FF07F5107F094FB0746294636
:103CE00007F093FB05462846BDE8F0872DE9F84F1D
:103CF0000446E168084607F088FB0090A168084682
:103D000007F083FB81466168084607F07EFB824628
:103D10002168084607F079FB8346514607F01DFBF2
:103D20008046494607F019FB0746009907F015FB46
:103D30000646FFF7B7FF05462946206807F065FBF2
:103D400020602946606807F060FB60602946A06833
:103D500007F05BFBA0602946E06807F056FBE060D7
:103D6000BDE8F88F2DE9F84F04460D461646316838
:103D7000084607F04AFB00902968084607F045FB13
:103D800082462168084607F040FB8346514607F00B
:103D9000E4FA8146009907F0E0FA8046FFF782FFD7
:103DA00007463946206807F030FB2060394628680E
:103DB00007F02BFB28603946306807F026FB30609F
:103DC000BDE8F88F2DE9F04F8DB0074688461546BF
:103DD0001E46DDE9169A189C2946284607F015FB71
:103DE00041460590404607F010FB3946039038469F
:103DF00007F00BFB0290039907F0AFFA04900599C6
:103E000007F0ABFA8346FFF74DFF0C905146504642
:103E100007F0FBFA49460590484607F0F6FA3146A6
:103E20000390304607F0F1FA0290039907F095FAF3
:103E30000490059907F091FA8346FFF733FF0B9042
:103E40005146284607F0E1FA49460390404607F0FC
:103E5000DCFA31460290384607F0D7FA0190029911
:103E600007F07BFA8346039907F077FA04900C99E0
:103E700007F0CBFA05900B9907F0C7FA0A904FF0BC
:103E80007E500A9907F0BBFA834607F001FD002235
:103E90004FF08043CDE9000107F046FCCDE9020177
:103EA00009F0B8FACDE9040107F02EFD0990494662
:103EB000284607F0AAFA83465146404607F0A5FA7D
:103EC0005946059007F09BFA08905146384607F08E
:103ED0009CFA83463146284607F097FA59460590E2
:103EE00007F08DFA07903146404607F08EFA834678
:103EF0004946384607F089FA5946059007F07FFA97
:103F0000069006AA07A908A8FFF72CFF4FF07E50DD
:103F10000A9907F022FA834607F0BAFC00224FF014
:103F20008043CDE9000107F0FFFBCDE9020109F074
:103F300071FACDE9040107F0E7FC2060DDE9080132
:103F400007F063FA60600999079807F05EFAA060CD
:103F50000999069807F059FAE0600DB0BDE8F08FB6
:103F60002DE9FC5F07460C4615461E46DDE90EAB03
:103F7000DDE90C894146284607F047FA4946019099
:103F8000204607F042FA0090019907F038FACAF883
:103F900000004946384607F038FA31460190284675
:103FA00007F033FA0090019907F029FACBF80000E6
:103FB0003146204607F029FA41460190384607F07D
:103FC00024FA0090019907F01AFA10990860BDE8E8
:103FD000FC9F2DE9F05F07460C4615461E46DDE9BD
:103FE0000DABDDF83090DDF828803146384607F01B
:103FF000B4F9C9F800004146204607F0AEF9CAF806
:10400000000028460B9907F0A8F9CBF80000BDE89E
:10401000F09F2DE9F84F04460D461646E968E06822
:1040200007F0F3F98146A968A06807F0EEF9824627
:104030006968606807F0E9F983462968206807F035
:10404000E4F95946009007F0DAF98046514607F046
:10405000D6F90746494607F0D2F93060A968E0680A
:1040600007F0D3F98146E968A06807F0CEF98246E7
:104070002968606807F0C9F983466968206807F015
:10408000C4F95946009007F068F98046514607F098
:1040900064F90746494607F0B2F97060E96860685C
:1040A00007F0B3F900906968E06807F0AEF981465F
:1040B000296801E0DF59375FA06807F0A6F982465A
:1040C000A968206807F0A1F98346514607F045F931
:1040D0000746494607F041F98046009907F08FF9F5
:1040E000B0606968A06807F090F90090A9686068FE
:1040F00007F08BF981462968E06807F086F9824667
:10410000E968206807F081F98346514607F025F9F0
:104110000746494607F021F98046009907F06FF9F4
:10412000F060BDE8F88F30B50021002300224C1E5E
:1041300072E0F748007878BB0022F6480178F6482C
:10414000405C552801D1501CC2B2F2480078401C96
:10415000C1B2F148405C51280BD0EF48405C522876
:1041600007D0ED48405C542803D0EB48405C53280E
:1041700001D1501CC2B2022A49D10120E44D28705D
:10418000E4480078E54D2870E2480078E44D2D7849
:104190002844E44D28703AE0FFE7DE480078E14D1E
:1041A0002D78A84233D10020D94D2870DB48037800
:1041B0000022002107E0D848C05C1044C2B2581C5D
:1041C000C3B2481CC1B2D64800788142F3DBD24862
:1041D000D44D2D78405D904219D1CF4DCF48007815
:1041E000401C285C44B20022002109E0CB48007842
:1041F0000844C3B2C848C05CCB4D6854481CC1B227
:10420000C7480078401C8142F0DBE0B230BDC148B5
:104210000078401CBF4D2870BE480078C34D2D78F3
:10422000A84286D100BFF1E72DE9F04F89B0824660
:104230000C469146BAF1510F7ED0BAF1520F03D01D
:10424000BAF1540F79D12BE1B748C078000200B21F
:10425000E080E088B4498978084400B2E080B24840
:104260004079000200B220812089AF4909790844D1
:1042700000B22081AC48C079000200B26081608940
:10428000A9498979084400B26081B4F9060007F0B1
:10429000BAFAA749019007F0B8F8834607F0F8FA90
:1042A00007460022A34B07F03FFA0022A24BCDE9BC
:1042B000020107F0C7F90022A04BCDE9040107F085
:1042C00033FA05469E4A9F4B07F0BCF9CDE906013B
:1042D00007F01AFBC9F80C00B4F9080007F093FACC
:1042E0009349019007F091F8834607F0D1FA05460B
:1042F0000022904B07F018FA074600228E4B07F079
:10430000A1F900228D4BCDE9020107F00DFA8C4A8C
:104310008C4BCDE9040107F095F9CDE9060107F0D2
:10432000F3FAC9F81000B4F90A0007F06CFA8649EC
:10433000019007F06AF801E04DE00FE1834607F0D5
:10434000A7FA054600227B4B07F0EEF900227A4BD4
:10435000CDE9020107F076F90022784BCDE904019E
:1043600007F0E2F90746764A764B07F06BF9CDE99C
:10437000060107F0C9FAC9F81400D9F80C0007F0D3
:1043800087FA21F000410546704A714B07F094FA14
:1043900002D20020C9F80C00D9F8100007F078FA12
:1043A00021F000410546694A694B07F085FA02D2BF
:1043B0000020C9F81000D9F8140007F069FA21F0BC
:1043C00000410546614A624B07F076FA02D20020AE
:1043D000C9F81400C3E05448C078000200B220803D
:1043E000208851498978084400B220804E4840799D
:1043F000000200B2608060884B490979084400B22D
:1044000060804948C079000200B2A080A088464977
:104410008979084400B2A080B4F9000007F0F3F9EC
:104420004C49059006F0F1FF834607F031FA00226F
:10443000404BCDE9060107F077F907460022464BCD
:1044400007F000F9054607F05FFAC9F80000B4F973
:10445000020007F0E6F907460022364B07F064F940
:1044600000223D4BCDE9060107F0ECF8054607F0C8
:104470004BFAC9F80400B4F9040007F0D2F900229D
:104480002C4BCDE9060107F04FF905460022324BCF
:1044900007F0D8F8074607F037FAC9F808005EE0D9
:1044A0002148C078000200B2A081A0891E49897805
:1044B000084400B2A0811C484079000200B2E081AB
:1044C000E08919490979084400B2E0811648C079A9
:1044D000000200B22082208A13498979084400B280
:1044E0002082B4F90C0007F08EF90546194906F050
:1044F0008CFFC9F81800B4F90E0007F084F9C9F868
:104500001C00B4F9100007F07EF9C9F8200026E07D
:1045100098020020E9000020B0100020EA000020EE
:1045200079000020EB000020B8220020E8000020E5
:10453000000048430000E04000409F40008066408B
:104540004AD8124DFB210940000082C39A999999DB
:104550009999C93F000080BF0000304000BF00BFF4
:1045600009B0BDE8F08F03B599B0002018901790FE
:10457000199816900020159014901698512808D07C
:104580001698522805D01698532802D01698542809
:104590007ED1FE48007800287BD1FD4AFD4916985F
:1045A000FFF742FE169851281FD0522802D05428F7
:1045B00051D135E0F648C068F749F84A127841F819
:1045C0002200F3480069F649F44A127841F82200C3
:1045D000EF484069F349F14A127841F82200EF4868
:1045E0000078401CED49087045E0E9480068EE4954
:1045F000EE4A127841F82200E5484068EC49EB4A5F
:10460000127841F82200E2488068EA49E74A1278C5
:1046100041F82200E5480078401CE44908702AE08F
:10462000DB488069E449E54A127841F82200D8481D
:10463000C069E349E14A127841F82200D448006A8F
:10464000E049DE4A127841F82200DC480078401C3C
:10465000DA4908700FE0D1480078401CCF49087053
:10466000D2480078401CD1490870D4480078401CDA
:10467000D249087000BF00BFC8480078062808DD8E
:10468000CA4800780628FADDCC480078062801E000
:10469000F1E16EE1F3DD0020149016E01498401C67
:1046A00007F0B1F8BC491290149851F82000014667
:1046B0001190129806F0A9FE1390159906F04DFE80
:1046C00015901498401CC0B21490B44909781498FD
:1046D0008842E3DBBC49159806F0CDFEBB49086073
:1046E0000020159008460068B94908600020149021
:1046F00016E01498401C07F086F8A9491290149807
:1047000051F8200001461190129806F07EFE139099
:10471000159906F022FE15901498401CC0B2149012
:104720009E49097814988842E3DBA749159806F05A
:10473000A2FEA64908600020159008460068A54919
:1047400008600020149016E01498401C07F05BF8F5
:1047500094491290149851F8200001461190129833
:1047600006F053FE1390159906F0F7FD1590149876
:10477000401CC0B214908949097814988842E3DB40
:104780009149159806F077FE904908600020159031
:104790000846006890490860002014900DE08249A6
:1047A000149851F8200001461390159806F0D5FD95
:1047B00015901498401CC0B214907C490978149844
:1047C0008842ECDB7948007807F026F80146139020
:1047D000159806F050FE7D490860002015900846A7
:1047E00000687E490860002014900DE0704914981C
:1047F00051F8200001461390159806F0AEFD159073
:104800001498401CC0B214906849097814988842E2
:10481000ECDB6648007806F0FFFF01461390159820
:1048200006F029FE694908600020159008460068D6
:104830006B490860002014900DE05E49149851F80F
:10484000200001461390159806F087FD15901498E6
:10485000401CC0B214905549097814988842ECDB8A
:104860005248007806F0D8FF01461390159806F0DC
:1048700002FE564908600020159008460068594914
:104880000860002014900DE04B49149851F8200066
:1048900001461390159806F060FD15901498401C81
:1048A000C0B214904549097814988842ECDB43481B
:1048B000007806F0B1FF01461390159806F0DBFD75
:1048C0004249086000201590084600684649086083
:1048D000002014900DE03A49149851F82000014648
:1048E0001390159806F039FD15901498401CC0B22D
:1048F00014903249097814988842ECDB2F480078EC
:1049000006F08AFF01461390159806F0B4FD2F4972
:1049100008600020159008460068344908600020AF
:1049200014900DE02749149851F820000146139087
:10493000159806F012FD15901498401CC0B2149002
:104940001E49097814988842ECDB1C48007806F070
:1049500063FF01461390159806F08DFD1B49086012
:104960000020159008460068214908600120074989
:1049700008700648007800287DD01A4A1849174860
:10498000FFF7F0F91A4A1949174833E0700200207E
:10499000D8220020C422002020230020C0020020B2
:1049A000402300206023002080230020C10200203B
:1049B000A0230020C0230020E0230020C20200200A
:1049C0000024002020240020000010426C0200205F
:1049D00074020020780200207C0200208002002067
:1049E00084020020880200208C0200209002002017
:1049F00094020020FFF7B6F9FE48006806F048FF71
:104A0000CDE90E01FC48006806F042FFCDE90C013B
:104A1000DDE90E2308F090FB21F00041F74AF84B46
:104A2000CDE9100106F00BFECDE9120106F06CFF96
:104A3000F4490860F448006806F02AFFCDE9100147
:104A400008F02AF9CDE9120106F05EFFEF4908608F
:104A50000846006806F01CFFCDE9080108F02CFCB0
:104A6000CDE90C01E748006806F012FFCDE904012A
:104A700008F078FC00E052E3CDE90801E448006862
:104A800006F006FFCDE90601DDE9082306F0DAFDB0
:104A9000CDE90A01DDE90C2306F0D4FDCDE91001D2
:104AA000DA48006806F0F4FECDE9040108F05AFC8B
:104AB000CDE90801D348006806F0EAFECDE900011F
:104AC00008F050FCCDE90401D248006806F0E0FE91
:104AD000CDE90201DDE9042306F0B4FDCDE90601CC
:104AE000DDE9082306F0AEFDCDE90C01C5480068FC
:104AF00006F0CEFECDE9040108F0DEFBCDE90801A9
:104B0000C548006806F0C4FECDE90601DDE90823CA
:104B100006F098FDCDE90A01DDE90C2306F0EBFC77
:104B2000CDE90E01DDE9102306F086FDCDE9120185
:104B300006F0EAFE1890B548006806F0A9FECDE937
:104B4000080108F00FFCCDE90C01B148006806F03F
:104B50009FFECDE90A01DDE90C2306F073FDCDE9E6
:104B60001001AA48006806F093FECDE9080108F09C
:104B7000A3FBCDE90C01A748006806F089FECDE94A
:104B80000A01DDE90C2306F05DFDCDE90E01DDE94A
:104B9000102306F0B0FCCDE9120106F0B5FE179027
:104BA0000021189806F0CCFE03D2189880F000403F
:104BB00018900021179806F0C3FE03D2179880F0D2
:104BC0000040179000219348006806F0C3FE17D2FA
:104BD00000219148006806F0B3FE11D2DDE917010B
:104BE00006F049FC0F9006F053FECDE9100108F0E5
:104BF00091F9CDE9120106F087FE8849086064E06A
:104C000000218448006806F09BFE1DD200218248E6
:104C1000006806F095FE17D2DDE9170106F02BFCBF
:104C20000D9006F035FECDE90E0108F073F9002273
:104C30007B4BCDE9100106F005FDCDE9120106F030
:104C400063FE7649086040E000217248006806F083
:104C500081FE1DD200217048006806F07BFE17D24D
:104C6000DDE9170106F007FC0D9006F011FECDE915
:104C70000E0108F04FF9614A614BCDE9100106F0D1
:104C8000DEFCCDE9120106F03FFE644908601CE03D
:104C9000DDE9170106F0EFFB0B9006F0F9FDCDE919
:104CA0000C0108F037F9554A554BCDE90E0106F0D5
:104CB000C6FC00225A4BCDE9100106F0C3FCCDE939
:104CC000120106F021FE554908605448006806F0BC
:104CD000DFFD0022534BCDE9060106F0B3FCCDE920
:104CE000080108F03FFBCDE90C014848006806F0D8
:104CF000CFFD00224B4BCDE9020106F0A3FCCDE92C
:104D0000040108F02FFBCDE908013E48006806F0D9
:104D1000BFFD0022434BCDE9020106F093FCCDE933
:104D2000040108F01FFBCDE90601DDE9082306F0C8
:104D300089FCCDE90A01DDE90C2306F083FCCDE90D
:104D400010013648006806F0A3FD0022354BCDE97E
:104D5000060106F077FCCDE9080108F0ADFACDE9CF
:104D60000C012A48006806F093FD00222D4BCDE986
:104D7000020106F067FCCDE9040108F09DFACDE9D7
:104D800008012048006806F083FD0022254BCDE98C
:104D9000020106F057FCCDE9040108F08DFACDE9D7
:104DA0000601DDE9082306F04DFCCDE90A01DDE945
:104DB0000C2306F047FCCDE90E01DDE9102306F0D7
:104DC0009AFBCDE9120106F09FFD1A99086013487D
:104DD000006806F05DFD0022124BCDE9060106F0E9
:104DE00031FCCDE9080108F0BDFACDE90C01074816
:104DF000006819E088020020840200204AD8124D81
:104E0000FB2109405C02002080020020600200209B
:104E100094020020900200208C02002064020020F6
:104E20000000F0BF0000E03F06F032FD0022F84B2A
:104E3000CDE9020106F006FCCDE9040108F092FA82
:104E4000CDE90801F348006806F022FD0022F04B8E
:104E5000CDE9020106F0F6FBCDE9040108F02CFAD9
:104E6000CDE90601DDE9082306F0ECFBCDE90A01F6
:104E7000DDE90C2306F0E6FBCDE91001E648006809
:104E800006F006FD0022E24BCDE9060106F0DAFB52
:104E9000CDE9080108F010FACDE90C01DF480068FF
:104EA00006F0F6FC0022DA4BCDE9020106F0CAFB5F
:104EB000CDE9040108F000FACDE90801D548006801
:104EC00006F0E6FC0022D24BCDE9020106F0BAFB67
:104ED000CDE9040108F046FACDE90601DDE9082331
:104EE00006F0B0FBCDE90A01DDE90C2306F0AAFBD0
:104EF000CDE90E01DDE9102306F09EFBCDE912019C
:104F000006F002FD1A994860C348006806F0C0FC2C
:104F10000022BF4BCDE9060106F094FBCDE9080164
:104F200008F020FACDE90C01BC48006806F0B0FC9E
:104F30000022B74BCDE9020106F084FBCDE9040164
:104F400008F0BAF9CDE90801B248006806F0A0FC03
:104F50000022AF4BCDE9020106F074FBCDE904015C
:104F600008F000FACDE90601DDE9082306F06AFB46
:104F7000CDE90A01DDE90C2306F064FBCDE910015F
:104F8000A548006806F084FC0022A14BCDE906018B
:104F900006F058FBCDE9080108F08EF9CDE90C01C7
:104FA0009E48006806F074FC0022994BCDE902018E
:104FB00006F048FBCDE9040108F0D4F9CDE9080179
:104FC0009448006806F064FC0022914BCDE9020190
:104FD00006F038FBCDE9040108F06EF9CDE90601D1
:104FE000DDE9082306F02EFBCDE90A01DDE90C23FB
:104FF00006F028FBCDE90E01DDE9102306F07BFA6F
:10500000CDE9120106F080FC1A9988608248006898
:1050100006F03EFC00227E4BCDE9060106F012FBB5
:10502000CDE9080108F048F9CDE90C017B4800689A
:1050300006F02EFC0022764BCDE9020106F002FBC1
:10504000CDE9040108F08EF9CDE908017148006846
:1050500006F01EFC00226E4BCDE9020106F0F2FACA
:10506000CDE9040108F07EF9CDE90601DDE9082368
:1050700006F0E8FACDE90A01DDE90C2306F0E2FAD0
:10508000CDE910016448006806F002FC0022604B84
:10509000CDE9060106F0D6FACDE9080108F062F97B
:1050A000CDE90C015D48006806F0F2FB0022584B88
:1050B000CDE9020106F0C6FACDE9040108F0FCF8DA
:1050C000CDE908015348006806F0E2FB0022504B8E
:1050D000CDE9020106F0B6FACDE9040108F0ECF8DA
:1050E000CDE90601DDE9082306F0ACFACDE90A01B5
:1050F000DDE90C2306F0A6FACDE90E01DDE9102367
:1051000006F09AFACDE9120106F0FEFB1A99C86082
:1051100000204349087043490870434908701BB098
:1051200000BD07B596B00020159014901698139006
:1051300000201290119010900F900E900D900C90F6
:105140000B900A90FBF73FFD099006F065FB37498D
:1051500008601398512808D01398522805D0139846
:10516000532802D01398542851D1314A3149139809
:10517000FFF75AF82E48C0682F49304A127841F894
:1051800022002B4800692E492C4A127841F822004F
:10519000274840692B49294A127841F822002448BF
:1051A00000682949254A127841F8220020484068C1
:1051B0002649224A127841F822001D488068244975
:1051C0001E4A127841F822001948806921491B4A79
:1051D000127841F822001648C0691F49174A127810
:1051E00041F822001248006A1C49144A127841F81A
:1051F000220012480078401C1049087008460078C8
:10520000062801DD00200870002015903FE048E1ED
:105210000000E03F5C0200206402002060020020E9
:10522000C0020020C1020020C2020020B4020020FF
:10523000D8220020C4220020202300206802002061
:10524000402300206023002080230020A023002092
:10525000C0230020E0230020002400202024002080
:105260001598401C06F0CFFAFE490890159851F8A1
:10527000200001460790089806F0C7F80990149995
:1052800006F06BF814901598401CC0B21590159854
:105290000628E5DBF449149806F0EDF80990F34888
:1052A0000168099806F0ABF81899C86000201490BE
:1052B000159016E01598401C06F0A5FAEC490890E8
:1052C000159851F8200001460790089806F09DF8BF
:1052D0000990149906F041F814901598401CC0B23A
:1052E000159015980628E5DBDF49149806F0C3F8F9
:1052F0000990E0480168099806F081F8189908615A
:1053000000201490159016E01598401C06F07BFACA
:10531000D9490890159851F820000146079008983F
:1053200006F073F80990149906F017F81490159880
:10533000401CC0B2159015980628E5DBCA491498A0
:1053400006F099F80990CD480168099806F057F8D9
:10535000189948610020149015900DE0C8491598DF
:1053600051F8200001460990149805F0F6FF1490BA
:105370001598401CC0B2159015980628EEDBC1495F
:10538000149806F078F81899086000201490159089
:105390000DE0BD49159851F8200001460990149878
:1053A00005F0DBFF14901598401CC0B215901598BD
:1053B0000628EEDBB349149806F05DF818994860AA
:1053C0000020149015900DE0B049159851F8200078
:1053D00001460990149805F0C0FF14901598401CE0
:1053E000C0B2159015980628EEDBA649149806F071
:1053F00042F8189988600020149015900DE0A44997
:10540000159851F8200001460990149805F0A5FF61
:1054100014901598401CC0B2159015980628EEDB24
:105420009849149806F027F818998861002014907C
:1054300015900DE09749159851F820000146099004
:10544000149805F08AFF14901598401CC0B215906E
:1054500015980628EEDB8B49149806F00CF818997D
:10546000C8610020149015900DE08B49159851F8F3
:10547000200001460990149805F06FFF14901598CC
:10548000401CC0B2159015980628EEDB7D49149893
:1054900005F0F1FF189908620020149001207F495F
:1054A00008707E48007800287ED07D48007800286B
:1054B0007BD07C480068401C7A4908600846006838
:1054C000B0F5487F04D10020086075490870FDE3FD
:1054D000189A08321899091D1898FEF743FC179876
:1054E00040680990179800680890099905F08DFFA9
:1054F0001290179880680990179800680890099989
:1055000005F083FF11901798C068099017980068FC
:105510000890099905F079FF109017984068099054
:10552000179840680890099905F06FFF0F90179839
:1055300080680990179840680890099905F065FF00
:105540000E901798C06809901798406808900999BC
:1055500005F05BFF0D901798806809901798806898
:105560000890099905F051FF0C901798C0680990B0
:10557000179880680890099905F047FF0B901798D5
:10558000C06809901798C0680890099905F03DFF18
:105590000A9011990D9805F032FF039006F078F902
:1055A00000224FF0804301E0FEE37EE1CDE90401FB
:1055B00006F048F800223C4BCDE9060106F042F81F
:1055C000CDE9080106F0A0F9384908600B99129856
:1055D00005F0C3FE059006F05BF900224FF0804312
:1055E000CDE9060106F02EF8CDE9080106F08CF9A8
:1055F0002F4908604FF07C500F9905F000FF049090
:105600000C9905F0FCFE059006F042F900224FF0DF
:105610004043CDE9060106F015F8CDE9080106F092
:1056200073F9244908601898806807902048016839
:10563000079805F0EAFE09901898406807901D4801
:105640000168079805F0E1FE0890099905F0D7FE7A
:10565000194908601898006807901648016807986B
:105660002CE00000202300200000104274020020E3
:105670004023002078020020602300207C020020CC
:10568000802300200000C040A0230020C023002071
:10569000E0230020002400202024002071020020AC
:1056A000C0010020580200200000F0BF400200208E
:1056B00044020020480200209C02002005F0A5FEC4
:1056C0000990189880680790FE480168079805F0CF
:1056D0009CFE0890099905F092FEFB490860189815
:1056E00040680790F7480168079805F08EFE09901A
:1056F000189800680790F5480168079805F085FE3E
:105700000890099905F07BFEF1490860F1480068AE
:1057100006F0BEF821F00041EF4AF04BCDE9080158
:1057200006F0CAF802D20020EA490860E64800689C
:1057300006F0AEF821F00041E74AE84BCDE9080158
:1057400006F0BAF802D20020DF490860E04800689D
:1057500006F09EF821F00041DF4AE04BCDE9080158
:1057600006F0AAF802D20020D94908600021D948E1
:10577000006806F0E5F854D00021D348006806F030
:10578000DFF84ED00021D248006806F0D9F848D0A2
:10579000D0480168D248006805F037FE0990D1482A
:1057A0000168099805F0D9FDCE490860C64801682E
:1057B000CD48006805F029FE0990CC480168099899
:1057C00005F0CBFDC9490860C1480168C8480068B8
:1057D00005F01BFE0990C7480168099805F0BDFD5A
:1057E000C44908601898C0680990BE4801680998C3
:1057F00005F0B3FD1899C860189800690990BB4876
:105800000168099805F0A9FD189908611898406980
:105810000990B8480168099805F09FFD18994861FA
:1058200006E00020AF490860B0490860B14908604F
:10583000A8480168B048006805F0E7FD099018988D
:10584000C06801460890099805F087FD1899C8605E
:105850009D480168A948006805F0D7FD099018988F
:10586000006901460890099805F077FD18990861CC
:1058700097480168A248006805F0C7FD099018988C
:10588000406901460890099805F067FD189948613C
:105890001898C0689B490860189800699A49086080
:1058A0001898406999490860BFE3189A0832189916
:1058B000091D1898FEF756FA189A203218991C31CB
:1058C00018981830FEF74EFA179840680990179804
:1058D00000680890099905F098FD12901798806863
:1058E0000990179800680890099905F08EFD1190AD
:1058F0001798C0680990179800680890099905F0F2
:1059000084FD109017984068099017984068089097
:10591000099905F07AFD0F901798806809901798FB
:1059200040680890099905F070FD0E901798C068BE
:105930000990179840680890099905F066FD0D9048
:10594000179880680990179880680890099905F061
:105950005CFD0C901798C0680990179880680890B3
:10596000099905F052FD0B901798C0680990179897
:10597000C0680890099905F048FD0A9011990D98A2
:1059800005F0EBFC06901898006A01460590069811
:1059900005F03BFD089010990E9805F030FD04903D
:1059A0001898C06901460390049805F02EFD0690F2
:1059B0004FF07C500C9905F022FD03900A9905F0F8
:1059C0001EFD04901898806901460390049805F024
:1059D0001CFD0590069905F0C0FC0790089905F09C
:1059E000BCFC4FF08041099005F00FFD484908606C
:1059F00012990B9805F003FD06901898006A01466D
:105A00000590069805F001FD08904FF07C500F9925
:105A100005F0F5FC03900A9905F0F1FC0490189844
:105A2000C06901460390049805F0EFFC06901099B8
:105A30000E9805F092FC0490189880690146039036
:105A4000049805F0E2FC0590069905F086FC0790A5
:105A5000089905F082FC4FF08041099005F0D5FCD3
:105A60002C49086008460168006805F0CEFC0290E9
:105A700027480168006805F0C8FC0190029905F00C
:105A80006CFC039005F004FFCDE9040107F0C2FCB3
:105A9000CDE9060105F038FF1F49099005F0B5FC76
:105AA0001E4908604FF07C500F9905F0A8FC059046
:105AB0000C9905F0A4FC06901898006A0146059020
:105AC00006982DE040020020A002002044020020A1
:105AD000A40200209C020020FCA9F1D24D62503F9C
