:020000040800F2
:1000000080280020450100089D0200089F0200088A
:10001000A3020008A7020008AB02000800000000CD
:10002000000000000000000000000000AF02000817
:10003000B102000800000000B3020008B502000889
:100040005F0100085F0100085F0100085F01000810
:100050005F0100085F0100085F0100085F01000800
:100060005F0100085F0100085F0100085F010008F0
:100070005F0100085F010008A90900085F0100088E
:100080005F0100085F0100085F010008EF0D000834
:100090000B0E00085F0100085F0100085F01000807
:1000A0005F0100085F0100085F0100085F010008B0
:1000B000D70B00085F0100085F0100085F0100081E
:1000C0005F0100085F0100085F0100085F01000890
:1000D0005F010008D90800088B2700083F39000895
:1000E0005F0100085F0100085F0100085F01000870
:1000F0005F0100085F0100085F0100085F01000860
:100100005F0100085F0100085F0100085F0100084F
:10011000F11300085F0100085F0100085F0100089B
:100120005F0100085F0100085F0100085F0100082F
:10013000DFF80CD009F060FD0048004769010008B5
:10014000802800200648804706480047FEE7FEE773
:10015000FEE7FEE7FEE7FEE7FEE7FEE7FEE7FEE777
:100160008D910008310100081CB53FA103C9CDE9FC
:10017000000109F00BF84FF4E13000F00FF94FF4F3
:10018000E13001F047FE4FF4164002F08DFE4FF4CF
:10019000E13001F057F900F0BDFE01F013FE00F070
:1001A000B3FC00F02FFC01F055FC02F08FFD02F0D3
:1001B00015FB03F0B1FC4FF47A7000F00BFC00F07B
:1001C00000FD2B49086033E02A4800782A49097865
:1001D00088421CD003F072FD284908700846007858
:1001E00051280BD008460078522807D008460078DE
:1001F000532803D008460078542808D11F480078B7
:1002000003F0AEFF1E480078401C1D49087000F046
:10021000D8FC1C4908600968154A1268881A09F058
:10022000C5FA1949086019491748006809F05CFBCC
:10023000134800781528C7DB02F0A6FC142206211B
:10024000134802F0B2FC32220121124802F0ADFC48
:1002500014220A21104802F0A8FC02F0A2FC01E0DE
:1002600002F0CFFCFCE70000112233445566770012
:1002700008000020E9000020E80000201000002015
:10028000000000200C00002004000020001B374A62
:100290005F2E00086964000801260008704700BF4F
:1002A000FEE700BFFEE700BFFEE700BFFEE77047C6
:1002B0007047704710B502F0CDFC10BD024600201B
:1002C00003E000231354431C98B28842F9DB7047C3
:1002D0002DE9F04F07460D461646994607EB0508EF
:1002E000BA460024A34601E0601C84B22A4850F8B4
:1002F000340008B1082CF7DD082C05DBFF2089F855
:1003000000000020BDE8F08F234840F8347000EB77
:10031000C4000571204800EBC40046711E4800EB84
:10032000C4008671A34605FB06F13846FFF7C6FFF9
:10033000002405E0CAF80080C246A844601C84B2CC
:10034000701EA042F6DC144800EBCB00DAE710B5D3
:1003500002461368907918B9FF200870002010BD7C
:100360009079401E9071907908B1186810601C4611
:10037000241D002008702046F1E7024609B9FF203D
:100380007047091F0B461068186013609079401C75
:1003900090710020F4E700005003002038B50446B7
:1003A0000020FE490870FE490870FE490870FE49A9
:1003B00008701420FD490870204600F03AFA6B4698
:1003C00020221146FA48FFF783FFFA49086038BD3A
:1003D00010B5F6480078142800D110BD002240F274
:1003E0002661F54808F03BFDF448EF49097810F81C
:1003F000310010B3EC480078EA49097888421CD0F3
:10040000EE48E949097810F83100401EEB49E64A08
:10041000127801F832000846E34A127800EBC20075
:100420004068E74A1278815CE34808F079FDE448C7
:100430000078401CE24908705CE0DB480078D9494C
:10044000097888424DD0DD48D74A127800EBC200C7
:100450004168D8480068FFF790FFD3480078401CF7
:10046000C0B2D1490870142801DB00200870CF48C1
:100470000078401CC0B2CD490870142801DB14205C
:1004800008700020CE490870C7480078C54909782F
:1004900088421CD0C948C449097810F83100401E70
:1004A000C1B2C648C04A127800F83210BE4A12786B
:1004B00000EBC2004068C24A1278815CBE4808F076
:1004C0002FFDBF480078401CBD49087012E0002095
:1004D000BC4908701420B54908700020B84908705C
:1004E00008E00020B74908701420B04908700020C7
:1004F000B3490870012240F22661AF4808F0AFFC12
:1005000000BF6AE710B5AC4808F00EFDC1B2A348C1
:1005100002780078401CA14B1870AB4881541846F3
:1005200000789F490978884204D19D480078401C92
:100530009B49087010BDF8B505460C4626460CB917
:100540000120F8BD002240F226619B4808F087FC9C
:100550001C2094FBF0F100FB114028B11C2094FBFF
:10056000F0F0401CC4B203E01C2094FBF0F0C4B2D5
:100570008E480078A04207DA012240F226618E48B8
:1005800008F06DFCFF20DCE769468A480068FFF749
:10059000DEFE8A49834A127801EBC2014860814835
:1005A0000078142802DB00207E49087000242FE028
:1005B000287882497B4A127801EBC20149680855C4
:1005C000601CC4B21C2C20DB1C217C48754A1278AC
:1005D00000F8321073480078401CC0B271490870AE
:1005E000142801DB00200870694672480068FFF794
:1005F000AEFE72496B4A127801EBC20148606B484B
:100600000078401E6949087000246D1C701EC6B237
:10061000002ECDD19CB169486249097800F831407B
:1006200062480078401E614908705E480078401CAE
:10063000C0B25C490870142801DB002008706148D2
:10064000007820B9FFF7C4FE01205E49087001223E
:1006500040F22661584808F002FC002071E770B5AE
:100660000546002400E0641C285D0028FBD1E1B2AF
:100670002846FFF760FF70BD10B54B480078494928
:100680000978884234D04D48474A127800EBC200BE
:10069000416848480068FFF770FE43480078401CF6
:1006A000C0B241490870142801DB002008703F489F
:1006B0000078401CC0B23D490870142801DB1420AA
:1006C0000870394800783749097888420CD03B4A8D
:1006D000354B1B7812F83310334B1B7802EBC302F7
:1006E000506800F01CF924E000203649087020E032
:1006F00032482D4A127800EBC20041682D4800684C
:10070000FFF73BFE28480078401CC0B2264908701D
:10071000142801DB0020087024480078401CC0B277
:1007200022490870142801DB142008700020254994
:10073000087010BD10B55CE0244A1278002A53D12D
:100740000020174A1278921ED1B21F4A525C552AD5
:1007500001D1421CD0B2124A1278521ED1B21A4AAA
:10076000525CAA2A01D1421CD0B20D4A1278184B11
:100770001B68022404FB0322D1B2134A525CFF2AF5
:1007800001D1421CD0B203282ED101220F4B1A7086
:10079000034A12780F4B1A70014A1DE02500002011
:1007A000260000202200002023000020240000203A
:1007B0004C0500202C00002000380140AC03002034
:1007C00021000020140000204C0400202000002004
:1007D0001C000020270000201278094B1B6802240F
:1007E00004FB0322074B1A70074A1278521C064B6F
:1007F0001A70054A1278054B1B789A429CD110BD9D
:100800001C000020280000202600002025000020D9
:1008100008B525208DF8000000208DF80100032088
:100820008DF8020001208DF80300684605F04BFEAC
:1008300008BD10B586B00446012144F2050007F05A
:10084000BDFA01A807F08DF84FF40070ADF8040070
:1008500003208DF8060018208DF8070001A95948DB
:1008600006F0F6FF01A807F07CF84FF48060ADF8C1
:10087000040004208DF8070001A9524806F0E8FFA3
:10088000514808F011FA02A808F0BAFA02940020C0
:10089000ADF80C00ADF80E00ADF810000C20ADF86E
:1008A00012000020ADF8140002A9474808F03FFAF2
:1008B000012240F22661444808F0D1FAFFF7A8FF70
:1008C000012240F22551404808F0C9FA01213E4872
:1008D00008F0B9FA06B010BD10B520213A4808F06A
:1008E0008DFB012808D12021374808F094FB3748B8
:1008F000007808B1FFF706FE4021334808F07EFB80
:10090000012808D14021304808F085FB2F480078A5
:1009100008B1FFF75DFD01202C49087010BD30B50E
:100920008DB005460C460121084607F03AFA2848E2
:1009300006F028FB2448001D029003951020049027
:1009400005940020069080200790002008900990D0
:100950000A904FF440500B9000200C9002A91C48C4
:1009600006F0B2FB01220221194806F0E4FB0E203A
:100970008DF8040000208DF805008DF80600012098
:100980008DF8070001A805F09EFD0121104806F032
:10099000C6FB012280210C4808F086FA01210A4892
:1009A00008F051FA0DB030BD10B54FF4005006F00C
:1009B000EFFB012804D1400306F0DFFBFFF75CFEEC
:1009C00010BD000000080140003801403000002048
:1009D00044000240002107E0002200E0521C43F2E4
:1009E00078739A42FADB491C8142F5D370470021A3
:1009F00005E0002200E0521C0E2AFCDB491C81426B
:100A0000F7D3704730B57F4800684FF47A72B0FB77
:100A1000F2F1B1F1807F01D301201DE021F07F4090
:100A2000401E4FF0E022506150170F22002807DAD5
:100A300013071D0E744B00F00F04241F1D5503E017
:100A400013071C0E714B1C5400BF00204FF0E02216
:100A5000906107201061002008B100BFFEE74FF051
:100A6000E020006920F001004FF0E021086130BD76
:100A70004FF0E020006940F001004FF0E0210861F4
:100A8000704708B54FF4E06005F018FD1C208DF8A4
:100A9000000000208DF8010005208DF802000120E3
:100AA0008DF80300684605F00EFD08BD0EB5012166
:100AB000084607F090F9FFF7E4FF4FF0804007F099
:100AC000E5F941F28830ADF804004720ADF80000A8
:100AD0000020ADF80600ADF8020069464FF08040F6
:100AE00007F0A8FA0121880708F0C6F8012211468C
:100AF000900707F016FE0121880707F0F7FD002197
:100B0000012007F068F90EBD0EB50121062007F09F
:100B100062F9684607F0BAFD4FF6FF70ADF80400C1
:100B20000020ADF80000ADF80600ADF802006946FF
:100B3000374807F07FFA00221146354807F07DFE5E
:100B40000121334808F01EF83021314807F008FE33
:100B500007212F4808F04CF880212D4808F051F863
:100B600001212B4807F0C2FE4FF6FF70ADF80400DC
:100B70004720ADF800000020ADF80600ADF80200F7
:100B80006946244807F056FA0121224807F0AEFED4
:100B90000421204808F02CF801211E4807F0FEFF30
:100BA00020211C4808F01BF880211A4808F029F879
:100BB0000121184807F09AFD0121154807F096FD1C
:100BC0000EBD002012492431088800041149243147
:100BD00009880844704710B50121880708F04FF8CC
:100BE00040B10121880708F05BF80B480068401C01
:100BF00009490860084800680A2802D3002006490D
:100C0000086010BD3803002018ED00E000E400E0AB
:100C100000040040000800403400002000B589B006
:100C200014208DF8000000208DF8010001208DF8BF
:100C300002008DF80300684605F045FC13208DF88E
:100C4000000000208DF8010002208DF80200012034
:100C50008DF80300684605F036FCAA4805F09CFCB8
:100C60000121480607F0B7F80121082007F0A6F88F
:100C70000121084607F0A2F84FF48070ADF8140087
:100C800003208DF8160048208DF8170005A99E480E
:100C900006F0DEFD4FF40070ADF8140003208DF86F
:100CA000160018208DF8170005A9974806F0D0FD0A
:100CB00001214FF4EA1006F09AFE06A805F090FD17
:100CC00000208DF81E008DF81F008DF820000120F7
:100CD0008DF8210000208DF822008DF823008DF87A
:100CE0001A008DF81B0001208DF81C0002208DF8E1
:100CF0001D000C20ADF8180006A9824805F065FC1F
:100D000000208DF80E008DF80F0001208DF81000E6
:100D10000020ADF80400ADF80600ADF80800ADF80D
:100D20000A00ADF80C0001208DF8110001A805F0B3
:100D3000D6FC0221734806F0D2F80121714806F072
:100D4000CEF8012203216F4805F0C8FF09B000BDAD
:100D50007FB586B0DDE90E560798029004208DF825
:100D60000C009DF820008DF80D008DF80E50002429
:100D700007E009983044015D0DF10F000155601C3A
:100D8000C4B2AC42F5DB01A95E4805F097FD0AB09C
:100D900070BD30B585B00446A07B28B920680090AE
:100DA00000208DF8080001E02068019004208DF8F3
:100DB0000800E07B18B900208DF8090002E002204D
:100DC0008DF80900207B8DF80A00002506E0201D23
:100DD000415D0DF10B004155681CC5B2207BA84256
:100DE000F5DC6946474805F069FD05B030BD10B532
:100DF0000121444805F0D9FF012805D101214148CE
:100E000006F06DF800F097F810BD10B586B001AA95
:100E100000213C4805F047FE9DF80D0000286AD1EE
:100E2000029880B20B2806D0A0F58060093803D064
:100E300003285ED12EE05DE00298C0F30740012850
:100E400006D002280CD0032812D0042820D117E0A5
:100E5000DDF80F10DDF813002C4AC2E9001017E08E
:100E6000DDF80F10DDF81300284AC2E904100FE086
:100E7000DDF80F10DDF81300244AC2E9021007E084
:100E8000DDF80F10DDF81300204AC2E9061000BF9C
:100E900000BF2FE00298C0F30740012806D00228C7
:100EA0000CD0032812D0042820D117E0DDF80F4021
:100EB000204608F072FC1649086018E0DDF80F4083
:100EC000604208F06AFC1249486010E0DDF80F400B
:100ED000204608F062FC0E49886008E0DDF80F400B
:100EE000604208F05AFC0A49C86000E000BF00BF39
:100EF00000E000BF00BF0021024805F04CFE06B034
:100F000010BD000000640040000C0140402400209F
:100F10006024002008B50020F9490870F9490870DC
:100F2000FFF77CFE6B4620221146F748FFF7D0F909
:100F3000F649086008BD1CB5F548006820280DD1A9
:100F40000020F4490870F448F44A127800EB0210CB
:100F5000C168EE480068FFF710FA1CBD00220121AD
:100F6000EF4805F0BBFEEC48EC49097800EB0110B6
:100F70000078002849D0E9480078EA490978884291
:100F800043D0E548E549097800EB011000780828CE
:100F900020DBE148E149097800EB011000780838CE
:100FA000DD49DE4A127801EB02110870DE48006864
:100FB0000821CDE90010D848D849097800EB011480
:100FC00094E80F00FFF7C4FED74800680830D64900
:100FD000086097E0D4480168CF48D04A127800EB07
:100FE00002100078CDE90001CB48CC49097800EB2C
:100FF000011494E80F00FFF7ABFE0020C649C74A72
:10100000127801EB021108707CE0C4480078C549F1
:10101000097888426DD0C048C04A127800EB0210AF
:10102000C168BA480068FFF7A8F9BC480078401CBE
:10103000C0B2BA490870202801DB00200870B4480B
:101040000068401CB2490860202801D320200860B5
:101050000020B5490860B1480078B2490978884253
:101060003DD0AD48AD49097800EB01100078082863
:1010700021DBA948A949097800EB0110007808385C
:10108000C1B2A548A54A127800EB02100170A6482B
:1010900000680821CDE900109F48A049097800EBBD
:1010A000011494E80F00FFF753FE9F4800680830D2
:1010B0009D49086026E09C4801689748974A127845
:1010C00000EB02100078CDE90001934893490978BC
:1010D00000EB011494E80F00FFF73AFE12E0002045
:1010E0008C49087020208A49086000208E490860D9
:1010F00008E000208749087020208549086000200A
:101100008949086001221146854805F0E7FD00BFC6
:1011100023E72DE9F84305460C4616461F46A04630
:1011200014B90120BDE8F883002201217C4805F0B4
:10113000D5FD1C2094FBF0F100FB114028B11C20D0
:1011400094FBF0F0401CC4B203E01C2094FBF0F0D0
:10115000C4B26F480068A04206D20122114670480E
:1011600005F0BCFD0120DDE7694668480068FFF72F
:10117000EEF869496B4A127801EB0211C8606948C0
:101180000078202802DB00206649087000243EE039
:1011900029786148634A127800EB0210C068015553
:1011A000601CC4B21C2C2DDB5B485E49097800EB47
:1011B000011046601C2058495A4A127801EB02116E
:1011C000087055485749097800EB011007725548D7
:1011D0000078401CC0B253490870202801DB002071
:1011E0000870694649480068FFF7B1F84A494D4A16
:1011F000127801EB0211C86045480068401E44495E
:10120000086000246D1CA8F1010000F0FF08B8F18F
:10121000000FBDD104B340484249097800EB0110EA
:1012200046603D483F49097800EB011004703A4898
:101230003C49097800EB0110077235480068401EF0
:101240003349086037480078401CC0B235490870FF
:10125000202801DB002008702E48007820B90120EA
:101260002C490870FFF767FE012211462C4805F053
:1012700035FD002056E7002000212C4A116000BFF8
:1012800003E000212A4A1154401CFF28F9DD704771
:1012900010B50246002000BF03E00023244C235475
:1012A000401CFF28F9DD10BD0FB430B500209DF8BB
:1012B000161000BF17E00DF11702135C104A1478E6
:1012C0001278521C0E4D2A70194A13552A4612786C
:1012D0000C4B1B789A4204D10A4A1278521C094BD3
:1012E0001A70421CD0B28842E5DB30BC5DF814FBBA
:1012F000024622B10F4802600F48017023E01DE052
:1013000054000020550000206C0C002058000020E4
:101310003C000020410000206C0900203900002022
:1013200000640040380000205000002044000020ED
:101330006C0B0020480000204C000020B2F5807F9C
:1013400001D9FF2070470020FCE7000010B586B0EF
:10135000044634208DF8000000208DF801000420A0
:101360008DF8020001208DF80300684605F0ABF807
:101370000121102006F022FD0121C80406F02BFDFA
:101380002D48406820F480602B494860084640683A
:1013900060F480604860C814ADF8140004208DF833
:1013A000170005A9244806F053FA01940020ADF86F
:1013B0000800ADF80A00ADF80C00ADF810000C20E4
:1013C000ADF80E0001A91D4807F0B1FC012240F262
:1013D00025511A4807F043FD012240F226611748C3
:1013E00007F03DFD0121154807F02DFD06B010BDA9
:1013F00010B52021114807F001FE012808D1202155
:101400000E4807F008FE0E48007808B100F0CEF84C
:1014100040210A4807F0F2FD012808D14021074881
:1014200007F0F9FD0648007808B100F025F8012022
:101430000349087010BD000000100140004C00403E
:101440005C00002038B504460020FE490870FE49C3
:101450000870FE490870FE4908701420FD490860B4
:101460002046FFF773FF6B4620221146FA48FEF72D
:101470002FFFFA49086038BD10B5F64800681428F7
:1014800000D110BD002240F22661F54807F0E7FCCC
:10149000F448EF49097810F8310018B3EC480078A7
:1014A000EA49097888421DD0EE48E949097810F8E0
:1014B0003100401EEB49E64A127801F83200084636
:1014C000E349097800EBC1004068E749097844180E
:1014D0002178E34807F024FDE3480078401CE24906
:1014E00008705BE0DA480078D849097888424CD027
:1014F000DC48D74A127800EBC2004168D748006840
:10150000FEF73BFFD2480078401CC0B2D0490870BB
:10151000142801DB00200870CE480068401CCD492B
:101520000860142801D3142008600020CE490870F8
:10153000C7480078C549097888421CD0C948C449C1
:10154000097810F83100401EC649C14A127801F8E6
:1015500032000846BE4A127800EBC2004068C24A18
:101560001278815CBE4807F0DBFCBF480078401C65
:10157000BD49087012E00020BC4908701420B5492C
:1015800008600020B849087008E00020B7490870DA
:101590001420B04908600020B3490870012240F2CD
:1015A0002661AF4807F05BFC00BF6AE710B5AC48A6
:1015B00007F0BAFCC1B2A34802780078401CA14BE6
:1015C0001870AB488154184600789F4909788842C2
:1015D00004D19D480078401C9B49087010BDF8B5A7
:1015E00005460C4626460CB90120F8BD002240F203
:1015F00026619B4807F033FC1C2094FBF0F100FBB4
:10160000114028B11C2094FBF0F0401CC4B203E050
:101610001C2094FBF0F0C4B28E480068A04207D2B0
:10162000012240F226618E4807F019FCFF20DCE71A
:1016300069468A480068FEF78AFE8A49834A12781A
:1016400001EBC201486081480078142802DB0020C9
:101650007E49087000242FE0287882497B4A12785E
:1016600001EBC20149680855601CC4B21C2C20DB88
:101670001C217C48754A127800F8321073480078B3
:10168000401CC0B271490870142801DB00200870AA
:10169000694672480068FEF75AFE72496B4A127832
:1016A00001EBC20148606B480068401E6949086050
:1016B00000246D1C701EC6B2002ECDD19CB16948AD
:1016C0006249097800F8314062480068401E61496B
:1016D00008605E480078401CC0B25C49087014285D
:1016E00001DB002008706148007820B9FFF7C4FED4
:1016F00001205E490870012240F22661584807F037
:10170000AEFB002071E770B50546002400E0641CC4
:10171000285D0028FBD1E1B22846FFF760FF70BDCD
:101720007EB50020F5E0534C2478002C4AD10022ED
:10173000454C2478641EE1B24D4C645C022C01D10E
:10174000541CE2B2404C24784B4D2D68022606FB17
:101750000544E1B2464C645C0D2C01D1541CE2B24C
:10176000394C2478444D2D68022606FB0544641C40
:10177000E1B23F4C645C0A2C01D1541CE2B2324C01
:1017800024783D4D2D68022606FB0544A41CE1B2D9
:10179000374C645C032C01D1541CE2B2042A10D1F2
:1017A0000124344D2C700120274C2478334D2C70AB
:1017B000254C2478304D2D68022606FB0544304D1B
:1017C0002C70A1E0204C24782D4D2D78AC42F8D11E
:1017D0000024284D2C70002100238DE0274C247814
:1017E0000C44234D2C5D302C0EDB244C24780C440F
:1017F0002C5D392C08DC214C24780C442C5D303CC9
:10180000E4B20DF8014014E01C4C24780C44184D4F
:101810002C5D412C0DDB194C24780C442C5D462C9E
:1018200007DC164C24780C442C5D373CE4B20DF8F0
:101830000140124C24780C44641C0D4D2C5D302C5E
:1018400032DB1FE0E8000020E9000020E00000207B
:10185000E1000020E40000200C120020F000002035
:10186000004C00406C100020DE00002060000020D2
:101870000C1100207800002074000020EA000020F5
:10188000EB000020684C24780C44641C2C5D392C3F
:101890000ADC654C24780C44641C2C5D303CE5B2B9
:1018A0004C1C0DF8045018E05F4C24780C44641C68
:1018B0005E4D2C5D412C10DB5B4C24780C44641C89
:1018C0002C5D462C09DC584C24780C44641C2C5D9F
:1018D000373CE5B24C1C0DF804504C1C1DF804506C
:1018E0001DF8014005EB0414E6B21C465D1CEBB28A
:1018F0004F4D2E558C1CE1B24E4C2468641E640082
:101900008C423FF66BAF01204B4C2478641C4A4D4F
:101910002C70494C2478494D2D78AC427FF403AFAC
:101920007EBD10B50146012024E00A7800EB80035B
:10193000434CE35C9A421CD14A7800EB8003234479
:101940005B789A4215D18A7800EB800323449B7818
:101950009A420ED1CA7800EB80032344DB789A4286
:1019600007D10A7900EB800323441B799A4200D106
:1019700002E0401C1428D8DB00BF324A1278324BF8
:101980001A70012801DB102800DD10BD2D4B1870E6
:1019900000BFFAE730B5C1B000244FF4807101A850
:1019A00007F08DFC002524480078244909788842F6
:1019B00021D0FFF7B5FEF0B10120244908700522BF
:1019C0001B49234807F086FCA8B11948FFF7A9FF77
:1019D00001A801231B4A04210090022001F03FFCD2
:1019E000C4B2214601A801F02BFB194810490A682E
:1019F00002600979017141B030BD00200AE011494F
:101A0000097801EB81010E4A1144095C084A11541E
:101A1000411CC8B20528F2DB0D49054A13680B606A
:101A200012790A7170470000EA0000200C110020B2
:101A30006100002074000020E9000020E800002080
:101A40007A00002066000020670000206800002067
:101A50006900002008B50121512006F0AFF90420EB
:101A6000ADF8000010208DF8030003208DF802006F
:101A70006946CB4805F0ECFE0421C94805F093FF08
:101A80004FF48040ADF8000010208DF803000320D3
:101A90008DF802006946C34805F0DAFE4FF4804134
:101AA000C04805F080FF08BD0146002901DD084659
:101AB0007047002901DA4842FAE70846F8E72DE9BD
:101AC000F04F85B08246DFF8E0B2B8480068B74909
:101AD00089680844B54949680844B449C968441844
:101AE000E11704EB9171881007F057FE0290AF48A0
:101AF00000684042AD4989680844AC4949680844D7
:101B0000AA49C968441AE11704EB9171881007F0DB
:101B100044FE0390A54909684942A44A92681144C9
:101B2000A24A5268891AA14AD268881807F043FE6F
:101B300006460F46584607F075FE00229C4BCDE93D
:101B4000000107F049FD804632463B4607F044FD60
:101B5000044607F0A3FE97490490086002A807C84E
:101B60008AE8070005B0BDE8F08FFFB585B00446F0
:101B7000914D2846089907F012FC0646DDE906015A
:101B800007F007FC0746314607F003FC01902846A2
:101B9000089907F004FC0646DDE9060107F0A7FBFB
:101BA0000746314607F0A3FB02902846089907F044
:101BB000F6FB0646DDE9060107F099FB07463146CC
:101BC00007F0E7FB03902846089907F0E8FB064674
:101BD000DDE9060107F0DDFB0746314607F087FB2C
:101BE000049001A80FC884E80F0009B0F0BD2DE9EA
:101BF000FF470C9C6C4DDDE9000107F078FB804647
:101C0000029907F074FB0746039907F070FB06463C
:101C10004FF0814107F0F9FB2060009880F0004907
:101C20004846019907F063FB8046029907F05FFB85
:101C30000746039907F0ADFB06464FF0814107F0D8
:101C4000E4FB6060009880F0004A5046019907F07C
:101C50004EFB8146029907F09CFB8046039907F0F2
:101C600046FB0746294607F09AFB06464FF081419E
:101C700007F0CBFBA060BDE8FF872DE9FC410446DF
:101C80000D4616461F464DA103C9CDE90001F8B225
:101C90008DF80300F0B28DF80400E8B28DF805006D
:101CA0009DF802009DF8031008449DF804100844B4
:101CB0009DF805100844C0B28DF8060000232246A6
:101CC00008216846FFF725FABDE8FC817CB504468B
:101CD0000D46002040EA044000F2053608208DF849
:101CE00000008DF8014090208DF8020000208DF852
:101CF000030001950023224608216846FFF709FAF0
:101D00007CBD704710B500211E20FFF7DFFF0021CA
:101D10001420FFF7DBFF00211720FFF7D7FF00217A
:101D20001A20FFF7D3FF10BD7FB54FF07E5100980A
:101D300007F035FB054607F05CFD044621461E20F2
:101D4000FFF7C4FF019880F000464FF07E51304607
:101D500007F025FB054607F04CFD044621461420FC
:101D6000FFF7B4FF4FF07E51029807F018FB0546CD
:101D700007F03FFD044621461720FFF7A7FF039811
:101D800080F000464FF07E51304607F008FB0546D4
:101D900007F02FFD044621461A20FFF797FF7FBD6D
:101DA000001801400010014090C4DF3A4C090020A7
:101DB0000000D03FF40000200070124455AA030038
:101DC000000000FF08B50121402005F0F7FF0320C7
:101DD000ADF8000010208DF8030003208DF80200FC
:101DE00069460B4805F034FD0321094805F0DBFD89
:101DF00008BD10B50121064805F0C8FDC0F101007D
:101E0000C4B222460121024805F0D1FD10BD0000F8
:101E10000018014038B504460020FE490870FE490C
:101E20000870FE490870FE4908701420FD490860DA
:101E3000204600F052FC6B4620221146FA48FEF77D
:101E400047FAFA49086038BD10B5F648006814280A
:101E500000D110BD002240F22661F54806F0FFFFD8
:101E6000F448EF49097810F8310010B3EC480078D5
:101E7000EA49097888421CD0EE48E949097810F807
:101E80003100401EEB49E64A127801F8320008465C
:101E9000E34A127800EBC2004068E74A1278815C9E
:101EA000E34807F03DF8E4480078401CE249087038
:101EB0005BE0DB480078D949097888424CD0DD489E
:101EC000D74A127800EBC2004168D8480068FEF794
:101ED00054FAD3480078401CC0B2D1490870142885
:101EE00001DB00200870CF480068401CCD49086025
:101EF000142801D3142008600020CF490870C84876
:101F00000078C649097888421CD0CA48C449097873
:101F100010F83100401EC1B2C648C14A127800F81C
:101F20003210BF4A127800EBC2004068C24A1278F1
:101F3000815CBF4806F0F4FFBF480078401CBE49F2
:101F4000087012E00020BD4908701420B5490860EF
:101F50000020B949087008E00020B8490870142032
:101F6000B04908600020B4490870012240F226619F
:101F7000AF4806F074FF00BF6BE710B5AC4806F041
:101F8000D3FFC1B2A34802780078401CA14B18705F
:101F9000AB488154184600789F490978884204D19B
:101FA0009D480078401C9C49087010BDF8B5054656
:101FB0000C4626460CB90120F8BD002240F22661ED
:101FC0009B4806F04CFF1C2094FBF0F100FB1140F5
:101FD00028B11C2094FBF0F0401CC4B203E01C208C
:101FE00094FBF0F0C4B28F480068A04207D20122EF
:101FF00040F226618E4806F032FFFF20DCE769469A
:102000008A480068FEF7A3F98A49844A127801EBEE
:10201000C201486081480078142802DB00207F4913
:10202000087000242FE0287882497C4A127801EB5E
:10203000C20149680855601CC4B21C2C20DB1C215D
:102040007C48764A127800F8321074480078401CB8
:10205000C0B272490870142801DB0020087069467C
:1020600072480068FEF773F972496C4A127801EB06
:10207000C20148606B480068401E6A49086000243D
:102080006D1C701EC6B2002ECDD19CB1694863494B
:10209000097800F8314063480068401E61490860D3
:1020A0005E480078401CC0B25C490870142801DB0F
:1020B000002008706148007820B9FFF7C5FE0120B4
:1020C0005E490870012240F22661594806F0C7FEB9
:1020D000002071E770B50546002400E0641C285D0F
:1020E0000028FBD1E1B22846FFF760FF70BD30B594
:1020F000014600240A46524DAB5C551CEAB2504DD5
:10210000AD5C43EA0524204630BD2DE9FE4F4C4826
:102110004C490978405C02900298212876D009DC6D
:10212000A0F11A0007282AD2DFE800F041F2F0EF10
:10213000EE29ED00A2282ED006DC302867D0312809
:1021400066D0A1281BD104E0A3282ED0A428F9D161
:102150002CE03B493B480078401C0C5C3A4804703A
:1021600038480078801C0C5C204601F0F0F83749B4
:10217000086037493548006807F0B6FB00D8CCE165
:102180003448006834490860012034490870002050
:1021900033490860C1E1FFF7B5FD00202F49087001
:1021A0002F49086029490860B7E1B6E1B5E12DA2E1
:1021B0002EA1684607F090FD07216846FFF7F6FE5E
:1021C0002B48006807F02EFB05462A460B4629A13E
:1021D000684607F081FD07216846FFF7E7FE26A263
:1021E00022A1684607F078FD07216846FFF7DEFE6A
:1021F0002348006807F016FB05462A460B461DA13A
:10220000684607F069FD072168463BE0FAE004E113
:102210003AE100001C0100201D01002016010020F1
:102220001701002018010020AC1700202401002015
:10223000004400400C160020150100200001002081
:10224000AC1600201E010020B0010020100100206B
:102250000000C843A8020020B4010020140100209F
:102260003403002020206578203D200025730000E5
:10227000E00200202566000020206579203D200036
:10228000E4020020FFF792FEE4A2AFF220016846CC
:1022900007F022FD07216846FFF788FEE148006845
:1022A00007F0C0FA05462A460B46AFF238016846E9
:1022B00007F012FD07216846FFF778FEDAA2AFF2B9
:1022C0005401684607F008FD0F216846FFF76EFECF
:1022D000D848006807F0A6FA05462A460B46AFF232
:1022E0006C01684607F0F8FC07216846FFF75EFEC0
:1022F000D1A2AFF28801684607F0EEFC02216846E1
:10230000FFF754FE09E159E050E017E00EE0FFE767
:102310000120CA490870CA49CA480078401C0C5CB0
:10232000204601F014F8C8490860F6E0FFF7EAFC1F
:102330000020C2490870C4490860EEE0C049C148A5
:102340000078401C0C5C204607F046FA0546BF4A60
:10235000BF4B07F041F907460022BE4B07F0AEF92C
:10236000824607F09BFAB84908600846006807F003
:1023700059FA05464FF03332B74B07F07BFA03D8D2
:10238000B648B14908600DE0AF48006807F04AFA66
:1023900005464FF03332B24B07F058FA02D8B14835
:1023A000A94908600120B0490870B6E0FFF7AAFC0F
:1023B0000020AD490870A4490860AEE00120AB4997
:1023C0000870AB4908709E499E480078801C095CE3
:1023D0009B4A9C480078401C105C41EA00200FFAA0
:1023E00080F9484607F0E7F907460022A14B07F0BD
:1023F00065F9054607F052FA9F49086000209249A6
:1024000008608AE0002099490870FFF77BFC0020F3
:102410008D490860964908707FE0894989480078AD
:10242000401C0C5C204607F0D7F907460022914B70
:1024300007F044F9054607F031FA904908608049F1
:1024400080480078801C0C5C204607F0C5F90746E0
:102450000022884B07F032F9054607F01FFA87493A
:102460004860774977480078C01C0C5C204607F02C
:10247000B3F9054600227F4B07F020F9074607F025
:102480000DFA7E49886048E06D496E480078401C2E
:102490000C5C04EB8401480007F07FF97849086080
:1024A0000846006877490860754800687649086002
:1024B000634964480078801C0C5C204607F08CF966
:1024C000074600226B4B07F0F9F8054607F0E6F9DE
:1024D0006E490860084600686D4908606B480068EE
:1024E0006C490860564957480078C01C0C5C20466F
:1024F00007F072F9054600225E4B07F0DFF8074649
:1025000007F0CCF964490860084600686349086030
:10251000614800686249086000BF00BFBDE8FE8FE7
:1025200030B54FF0FF3064E05E4C2478002C37D19A
:1025300000215D4C2478641FE2B2414CA45C552C10
:1025400001D14C1CE1B2584C2478241FE2B23C4C1F
:10255000A45CAA2C01D14C1CE1B2534C2478E41E9B
:10256000E2B2374CA45C1E2C01D14C1CE1B2032911
:102570003AD101244B4D2C704B4C2478641EE2B2AE
:102580002F4CA45C494D2C70474C24782D4D2C7059
:10259000454C2478454D2D782C44454D2C7023E036
:1025A000414C2478424D2D78AC421DD100243D4D44
:1025B0002C70244C23780021002207E0204CE45C9E
:1025C0000C44E1B25C1CE3B2541CE2B2374C2478F8
:1025D000A242F3DBCC43E1B2194CE45C8C4203D160
:1025E000174C184D2D78605D2F4C2478641C2E4DAF
:1025F0002C702D4C24782F4D2D78AC4294D130BDC9
:1026000010B5294800782B490978884205D0FFF792
:1026100087FF401C01D0FFF778FD10BD2020657AB0
:10262000203D2000E8020020202074696D65203DD7
:1026300020000000180300200D0A00006C0100209B
:10264000AC1600201E010020100100204AD8124DB7
:10265000FB210940008066403333E33F9A99193FDC
:102660003333E3BF9A9919BF6D0100206E0100203A
:102670001401002000002440B4010020301C002080
:1026800064020020680200206C020020700200201A
:1026900074020020780200207C02002080020020CA
:1026A00084020020200100201D01002021010020C3
:1026B0001F0100201C01002008B526208DF8000015
:1026C00000208DF8010006208DF8020001208DF811
:1026D0000300684603F0F7FE08BD10B586B0044657
:1026E0000121042005F06AFB0121480405F073FB79
:1026F0004FF4E06003F0E2FE26208DF80000002099
:102700008DF8010006208DF8020001208DF80300ED
:10271000684603F0D8FE0420ADF8140018208DF8A8
:10272000170003208DF8160005A9294805F090F838
:102730000820ADF8140004208DF8170005A92448DE
:1027400005F086F801940020ADF80800ADF80A0005
:10275000ADF80C00ADF810000C20ADF80E0001A98A
:102760001C4806F0E4FA012240F22551194806F00F
:1027700076FB012240F22661164806F070FB01212B
:10278000144806F060FB06B010BD10B520211148BA
:1027900006F034FC012808D120210E4806F03BFC4D
:1027A0000D48007808B1FFF7E8FB4021094806F022
:1027B00025FC012808D14021064806F02CFC0648DB
:1027C000007808B1FFF740FB01200349087010BDF5
:1027D00000080140004400402801002008B5012104
:1027E0007D2005F0EBFAF020ADF8000048208DF8D0
:1027F000030003208DF802006946B54805F028F86B
:102800004FF20300ADF8000048208DF803000320CC
:102810008DF802006946AF4805F01AF84FF47C7055
:10282000ADF8000048208DF8030003208DF8020069
:102830006946A94805F00CF84FF47F40ADF8000058
:1028400048208DF8030003208DF802006946A34854
:1028500004F0FEFF4FF4FF40ADF8000048208DF873
:10286000030003208DF8020069469D4804F0F0FF44
:1028700000209C4908709C489C4908609C488860DE
:102880009948C8609A49994841619A48974988612E
:1028900099499648016294489449486294499348FA
:1028A000C162914895490860954848600020886059
:1028B000944908609449086008BD2DE9FF4782B03B
:1028C0001C46DDE90E780020009001908F480168D9
:1028D0008F48006806F0FEFF04D000208A49086097
:1028E0008C4908608A4801688B48006806F051FDF1
:1028F000844908600846006806F094FF05464FF0DA
:102900003332864B06F0A2FF0DD27E48006806F0F7
:1029100089FF05464FF03332814B06F0ABFF02D200
:1029200000207849086077490398096806F037FD68
:10293000054678480168284606F0D9FC75490860C4
:10294000714801686F48006806F023FD81464946DA
:10295000049806F024FD06466A490298096806F0C4
:102960001EFD82466B480168504606F0C0FC0546D5
:10297000314606F0BCFCA060A06806F053FF054697
:102980004FF03332674B06F075FF02D86648A060FF
:102990000BE0A06806F046FF05464FF03332634B6C
:1029A00006F054FF01D86248A060A06806F03AFF24
:1029B0000546604A604B06F049FF0AD8A06806F059
:1029C00031FF05465B4A5D4B06F054FF01D80020FD
:1029D000A0604C4800684C4908604D4800684B496D
:1029E000086006B0BDE8F0872DE9F04188B00746E1
:1029F0000E46144600253B480078A0B100BF0DE00C
:102A000005EB4500394901EB800005EB45014C4AD7
:102A100002EB81030ECB0EC0681CC5B2042DEFDBA8
:102A2000002030490870012E06D0022E0CD0032E53
:102A300017D0042E2BD11DE02C4A07CA05AB07C3C3
:102A400002940020039023E0284AD2E9031052693F
:102A5000CDE90602059184F0004002900020039029
:102A600016E0224A183207CA05AB07C300200290BD
:102A700003940DE01D4AD2E90910D26ACDE906029D
:102A800005910020029084F00040039000E000BF18
:102A900000BF204606F0ADFEB0F1000801DB404665
:102AA00001E0C8F1000010B92648007838B102AB47
:102AB0001248CDE9006407C8FFF7FFFE01E00020DF
:102AC000049002A807C887E8070008B0BDE8F081B5
:102AD00000080140000C01400010014000140140BA
:102AE00000180140380100208FC2753D001C0020F5
:102AF0008FC2F53C8FC275BD8FC2F5BC301C002063
:102B00000AD7A33B3C0100204001002034010020F3
:102B1000B401002030010020A80200203333D33F4D
:102B20003333D3BF3333E33F9A99193F3333E3BF92
:102B30009A9919BF7B14AE47E17A843FE17A84BF4A
:102B4000D01B00206E010020014601EB41005E4ACF
:102B500052F8200008B908207047002001EB41021C
:102B6000594B43F8220001EB410203EB82029080B3
:102B700001EB410203EB8202D08001EB410203EB47
:102B80008202107200BFE7E710B5FDF73BFF00249B
:102B900004E02046FFF7D8FF601CC4B2102CF8DB1D
:102BA00010BD10B5FDF764FF10BD70B503460C46AF
:102BB000002101E0481CC1B201EB4100424D55F833
:102BC000200008B11029F5DB102901D1082070BDC3
:102BD00001EB41003C4D45F8203001EB410005EB95
:102BE0008000848001EB410005EB8000C280002062
:102BF00001EB4105344E06EB850528720846E6E7F1
:102C0000704710B5002420E004EB44002E4901EB8E
:102C10008000007A002816DD04EB44012A4A52F8AD
:102C200021008047002004EB4401274A02EB810188
:102C3000087204EB4400114601EB8000C08810B913
:102C40002046FFF781FF601CC4B2102CDCDBFFF7CD
:102C5000D7FF10BD002033E000EB40011A4A52F8C4
:102C6000211059B300EB400102EB81018988C1B901
:102C7000012100EB4002144B03EB8202117200EBC6
:102C800040011A4602EB8101C988B9B100EB40014D
:102C900002EB8101C98800EB400203EB82029180C4
:102CA0000CE000EB4001084A02EB81018988491ED3
:102CB00000EB4002044B03EB82029180411CC8B23E
:102CC0001028C9DB704700003C1C00200120674928
:102CD0000870674867490860042067490860002059
:102CE00066494860002165488160C16001206349F0
:102CF00008740020704710B58CB00446201D07C82A
:102D000009AB07C301A809A90EC9FEF72EFF02A847
:102D10000DC80199CDE90723CDE9051005A80FC815
:102D2000FFF702F80CB010BD10B500244F48007832
:102D3000C0B100BF08E04F48006850F82400007C94
:102D400000B105E0601CC4B24B4800688442F2DB6D
:102D500000BF474850F82400494908600846006809
:102D6000FFF7C9FF10BD0EB54648007868B10520D1
:102D70004549087045480068486000214248816024
:102D8000C1600120404908742BE04148007878B1C7
:102D900005203D4908700020486000213A488160C4
:102DA0003A4801683848C16001203749087418E082
:102DB0003848007890B105203349087033480268DC
:102DC000354801786846FFF70FFE2F489DE80E0052
:102DD000001D0EC001202C49087402E000202A4981
:102DE00008740EBD30B502460B460024002104E0F5
:102DF000555C2544ECB24D1CE9B20829F8DB9C4235
:102E000001DB012000E0002030BD30B503460C4658
:102E10000020214605E05D5C012D00D101204D1C04
:102E2000E9B29142F7DD30BD0EB51C48007890B193
:102E300005201B4908701B4802681748017868463E
:102E4000FFF7D2FD16489DE80E00001D0EC00120C0
:102E50001349087402E00020114908740EBD10B532
:102E6000FFF781FFFFF760FF10BD00008001002029
:102E700058010020780100207C010020441D002022
:102E8000680100206C010020081D002010010020B6
:102E90006D01002014010020B00100208C010020F1
:102EA000301D00209001002038B504460020FE4966
:102EB0000870FE490870FE490870FE490870142029
:102EC000FD490860204600F0E0FC6B4620221146D8
:102ED000FA48FDF7FDF9FA49086038BD10B5F64823
:102EE0000068142800D110BD002240F22661F54888
:102EF00005F0B5FFF448EF49097810F8310010B338
:102F0000EC480078EA49097888421CD0EE48E94943
:102F1000097810F83100401EEB49E64A127801F8B2
:102F200032000846E34A127800EBC2004068E74AE4
:102F30001278815CE34805F0F3FFE4480078401C18
:102F4000E24908705BE0DB480078D949097888429B
:102F50004CD0DD48D74A127800EBC2004168D8480F
:102F60000068FDF70AFAD3480078401CC0B2D14986
:102F70000870142801DB00200870CF480068401C4E
:102F8000CD490860142801D3142008600020CF49DF
:102F90000870C8480078C649097888421CD0CA48D9
:102FA000C449097810F83100401EC1B2C648C14A70
:102FB000127800F83210BF4A127800EBC200406865
:102FC000C24A1278815CBF4805F0AAFFBF4800786A
:102FD000401CBE49087012E00020BD490870142052
:102FE000B54908600020B949087008E00020B849D8
:102FF00008701420B04908600020B449087001220C
:1030000040F22661AF4805F02AFF00BF6BE710B51C
:10301000AC4805F089FFC1B2A34802780078401C93
:10302000A14B1870AB488154184600789F49097825
:10303000884204D19D480078401C9C49087010BD0E
:10304000F8B505460C4626460CB90120F8BD00220D
:1030500040F226619B4805F002FF1C2094FBF0F132
:1030600000FB114028B11C2094FBF0F0401CC4B2BE
:1030700003E01C2094FBF0F0C4B28F480068A0422B
:1030800007D2012240F226618E4805F0E8FEFF20BB
:10309000DCE769468A480068FDF759F98A49844A9D
:1030A000127801EBC201486081480078142802DBE5
:1030B00000207F49087000242FE0287882497C4A4C
:1030C000127801EBC20149680855601CC4B21C2C7F
:1030D00020DB1C217C48764A127800F832107448B4
:1030E0000078401CC0B272490870142801DB00202F
:1030F0000870694672480068FDF729F972496C4A00
:10310000127801EBC20148606B480068401E6A49B2
:10311000086000246D1C701EC6B2002ECDD19CB17B
:1031200069486349097800F8314063480068401EE7
:10313000614908605E480078401CC0B25C49087074
:10314000142801DB002008706148007820B9FFF7DF
:10315000C5FE01205E490870012240F226615948EF
:1031600005F07DFE002071E770B50546002400E003
:10317000641C285D0028FBD1E1B22846FFF760FF00
:1031800070BD30B54FF0FF3062E0534C2478002C16
:1031900037D10022454C2478241FE1B24D4C645CA9
:1031A000552C01D1541CE2B2404C2478E41EE1B20B
:1031B000484C645CAA2C01D1541CE2B23B4C2478EC
:1031C000A41EE1B2434C645C152C01D1541CE2B244
:1031D000032A38D10124404D2C70344C2478641ECD
:1031E000E1B23C4C645C3D4D2C70304C24783C4D3D
:1031F0002C702E4C2478394D2D782C44394D2C7060
:1032000021E02A4C2478374D2D78AC421BD1002484
:10321000314D2C70324C23780022002107E02D4CD8
:10322000E45C1444E2B25C1CE3B24C1CE1B22B4CF3
:103230002478A142F3DB274CE45C944203D1254C73
:10324000274D2D78605D194C2478641C174D2C7027
:10325000164C2478144D2D78AC4296D130BD2DE912
:10326000F04305460E46079C002700204FF0550905
:103270008046401C04F808904FF0AA098046401C84
:1032800004F808904FF015098046401C04F8089097
:1032900003F1020C8046401C04F808C08046401C24
:1032A00004F8085080461FE0A4010020A50100207A
:1032B0009B0100209C010020A0010020041F002091
:1032C000AC01002000480040641D00209A0100204D
:1032D00084010020041E0020A8010020A901002074
:1032E000A6010020A7010020401C04F808605BB97B
:1032F00005EB060C0CF0FF07844600F1010808F00E
:10330000FF0004F80C7020E005EB060C0CF0FF0742
:10331000002111E012F80190844600F1010808F044
:10332000FF0004F80C9012F801C0BC440CF0FF0739
:1033300001F1010C0CF0FF019942EBDB844600F136
:10334000010808F0FF0004F80C70BDE8F0832DE9D7
:10335000F84F8246504606F029FA009006F062FACD
:1033600080460022F84B06F0A9F906460022F74BEA
:1033700006F032F9044606F091FA83465846BDE855
:10338000F88F10B5014600200A46F14CA35C541C8E
:10339000E2B2EF4CA45C43EA042010BD2DE9F04FEB
:1033A000C7B04FF4807107A805F089FF0020069090
:1033B000039004900590E7490870E548E6490978CC
:1033C00010F80190B9F1040F7ED009DCB9F1010FBA
:1033D0000DD0B9F1020F78D0B9F1030F76D1A9E180
:1033E000B9F1050F73D0B9F1FF0FF7D1EBE1D8496F
:1033F000D9480078401C0C5C132C02D0142C67D1E7
:10340000BFE0D349D4480078801C0E5C304606F0FB
:10341000E3F982460022D14B06F050F9074606F048
:103420003DFACF490860CA49CB480078C01C0E5C01
:10343000304606F0D1F907460022C84B06F03EF9A7
:10344000824606F02BFAC6498860C149C248007816
:10345000001D0E5C304606F0BFF982460022BF4BCD
:1034600006F02CF9074606F019FABD49C860B849BC
:10347000B9480078401D0E5C304606F0ADF90746AD
:103480000022B64B06F01AF9824606F007FAB44954
:103490004861AF49B0480078801D0E5C704206F06C
:1034A0008AF907460022AD4B06F008F9824606F07D
:1034B000F5F9AB498861A649A7480078C01D0E5CA4
:1034C000704206F078F904E07CE1A4E08EE1DAE0F5
:1034D0009EE007460022A14B06F0F0F8824606F077
:1034E000DDF99F4908629A499B48007808300E5CD4
:1034F000304606F071F982460022984B06F0DEF85D
:10350000074606F0CBF996494862914992480078FF
:1035100009300E5C304606F05FF9074600228F4BFB
:1035200006F0CCF8824606F0B9F98D49C86200254C
:103530000BE089480078801C28448549095C05F126
:103540000800884A1154681CC5B2082DF1DB854A71
:103550001021854800F039FA07A800907C487E4980
:1035600009780844821C082321464846FFF777FE65
:10357000069007A80699FFF763FD01207B490870B4
:1035800047E075490978891CC8B2FFF7FAFE784907
:10359000086071490978091DC8B2FFF7F2FE754944
:1035A00008606D490978891DC8B2FFF7EAFE7249C3
:1035B0000860694909780831C8B2FFF7E2FE6F492F
:1035C0000860002509E064480078801C28446049B0
:1035D000085C64494855681CC5B2082DF3DB614A94
:1035E0001021614800F0F1F96548047007A80090C7
:1035F0005748594909780844821C082321464846FF
:10360000FFF72DFE069007A80699FFF719FD00E0C9
:1036100000BF00BFEBE04E494F480078401C0C5CF7
:10362000082C2DD2DFE804F02C040506072C081620
:1036300027E026E025E024E007A800231A462146DB
:1036400000904846FFF70BFE069007A80699FFF783
:10365000F7FC16E04B4800681421B0FBF1F0C0B253
:103660008DF8080007A8012302AA214600904846C9
:10367000FFF7F5FD069007A80699FFF7E1FC00E0CB
:1036800000BF00BFB3E0324933480078401C0C5CF7
:10369000022C02D0042C4AD132E02D492E48007869
:1036A000801C0E5C384806702B480078C01C0E5CED
:1036B0003046FFF74CFE354908603549334800680D
:1036C00006F012F900D833E0324800683249086049
:1036D00001203249087000202A49086007A800909C
:1036E0001B481D4909780844821C0423214648468A
:1036F000FFF7B5FD069007A80699FFF7A1FC17E0B4
:10370000FEF700FB0020254908701E4908601F498C
:10371000086007A800231A46214600904846FFF794
:103720009EFD069007A80699FFF78AFC00E000BFFF
:1037300000BF5CE0064908480078401C0C5C012C86
:103740002ED0022C3BD133E000E06F4000008940D6
:10375000041E00208B010020A601002000408F40A5
:10376000D01B00200423002010F0010838010020A5
:10377000480100204C01002050010020540100208D
:10378000BA01002034030020B00100209001002085
:103790000000C843A8020020B40100208C010020D2
:1037A0002B480078062802DC01202A49087007E02F
:1037B00000202849087003900490059000E000BFA5
:1037C00000BF14E013E0012C02D0022C0BD103E067
:1037D00001202049087007E000201E49087003906E
:1037E0000490059000E000BF00BF00E000BF00BFF4
:1037F00047B0BDE8F08F10B5174800781749097831
:10380000884205D0FFF7BDFC401C01D0FFF7C6FD84
:1038100010BD0146012903DB642901DA104806E0E6
:10382000642903DBFF2901DC0E4800E0002070471B
:1038300010B502460B460020002105E0545C8C4088
:103840000443E0B24C1CE1B29942F7DB10BD00002A
:10385000BA0100208B010020A5010020A401002056
:103860009CC4A03E9CC4A0BE08B527208DF80000D3
:1038700000208DF8010006208DF8020001208DF84F
:103880000300684602F01FFE08BD10B586B004466E
:103890000121082004F092FA0121880404F09BFA27
:1038A0004FF4E06002F00AFE27208DF800000020AF
:1038B0008DF8010006208DF8020001208DF803002C
:1038C000684602F000FE4FF48060ADF81400182046
:1038D0008DF8170003208DF8160005A92B4803F07A
:1038E000B7FF4FF40060ADF8140004208DF8170006
:1038F00005A9264803F0ACFF01940020ADF80800AC
:10390000ADF80A00ADF80C00ADF810000C20ADF8D1
:103910000E0001A91E4805F00AFA012240F22551C5
:103920001B4805F09CFA012240F22661184805F078
:1039300096FA0121164805F086FA06B010BD10B5BA
:103940002021134805F05AFB012805D120211048F9
:1039500005F061FBFFF75BFB40210D4805F04EFBD6
:10396000012805D140210A4805F055FBFFF7B6FABA
:103970000821074805F042FB012806D10821044828
:1039800005F049FB024805F0CFFA10BD000C0140DC
:103990000048004070B504460D462668701C08D1EA
:1039A00003F037FC2946204603F048FD03F03DFCB8
:1039B0000AE003F02EFC204603F070FC2946204666
:1039C00003F03CFD03F031FC70BD2DE9F0410546EC
:1039D0000E461746002429E055F80480385D9C49BE
:1039E000087038194078487018F101000AD103F0C6
:1039F00010FC974A128891B2281903F052FD03F087
:103A000014FC0CE003F005FC281903F047FC904A75
:103A1000128891B2281903F044FD03F006FC012E30
:103A200000D105E0A01C84B2B01E86B2002ED3D116
:103A300000BFBDE8F08130B50346002013E01C5AFA
:103A4000834D2C60012903D12C46247814540CE0BA
:103A50007F4C247814547E4C647815186C70841C48
:103A6000A0B28C1EA1B20029E9D100BF30BD2DE962
:103A7000F74183B00D461646002700240020019030
:103A8000A8460420029003F0C4FB06F2FF30800A2F
:103A90000190352003F058FE00BF08E04FF480622B
:103AA000039902FB071003F0F9FB02907F1C0198B9
:103AB000874203D29DF808000428EFD0039C05E05C
:103AC00002CD204603F0BAFC0290241D0398304436
:103AD000A04203D99DF808000428F1D0039C09E016
:103AE00058F8041B2068814203D0002006B0BDE8CE
:103AF000F081241D03983044A042F1D803F095FBD7
:103B00000120F3E737B5044615462A4620460199B9
:103B100005F0BCFB01203EBD2DE9F0414D4A1021CE
:103B20004D48FFF788FF4B4800784A49497840EAFA
:103B300001204A490860474880784649C97840EAE8
:103B4000012047490860434800794249497940EAE1
:103B50000120444908603F4880793E49C97940EADC
:103B60000120414908603B49087A05F035FE0646C8
:103B700000223E4B05F0A2FD044605F08FFE3C49B5
:103B800008603449487A05F027FE06460022374B84
:103B900005F094FD044605F081FE354988602D4905
:103BA000887A05F019FE06460022304B05F086FDA6
:103BB000044605F073FE2E49C8602649C87A05F010
:103BC0000BFE06460022294B05F078FD044605F061
:103BD00065FE274948611F49097B484205F0EBFD16
:103BE00006460022214B05F069FD044605F056FE0D
:103BF0001F4988611749497B484205F0DCFD0646AC
:103C000000221A4B05F05AFD044605F047FE1849FC
:103C100008621049887B05F0DFFD06460022134B41
:103C200005F04CFD044605F039FE1149486209498A
:103C3000C87B05F0D1FD064600220C4B05F03EFD89
:103C4000044605F02BFE0A49C862BDE8F081000079
:103C5000BC0100200423002010F0010848010020CE
:103C60004C010020500100205401002000408F40F2
:103C7000001C00202DE9F04704464FF07C512046FF
:103C800005F08DFB814625462E46FE48A0EB6606D4
:103C900035462946484605F082FB8246294605F00E
:103CA0007EFB80464FF07F5105F076FB07462946A4
:103CB00005F075FB05462846BDE8F08730B50021C4
:103CC000002300224C1E72E0EF48007878BB0022EF
:103CD000EE480178EE48405C552801D1501CC2B234
:103CE000EA480078401CC1B2E948405C51280BD03A
:103CF000E748405C522807D0E548405C542803D090
:103D0000E348405C532801D1501CC2B2022A49D179
:103D10000120DD4D2870DD480078DE4D2870DB483D
:103D20000078DD4D2D782844DC4D28703AE0FFE71F
:103D3000D6480078D94D2D78A84233D10020D24DF5
:103D40002870D44803780022002107E0D048C05CE6
:103D50001044C2B2581CC3B2481CC1B2CE4800784D
:103D60008142F3DBCA48CD4D2D78405D904219D198
:103D7000C74DC8480078401C285C44B2002200218E
:103D800009E0C44800780844C3B2C148C05CC44DCF
:103D90006854481CC1B2C0480078401C8142F0DB26
:103DA000E0B230BDB9480078401CB84D2870B74823
:103DB0000078BC4D2D78A84286D100BFF1E72DE9EF
:103DC000F04F87B08246BAF1510F7DD0BAF1520F51
:103DD00003D0BAF1540F78D137E1B148C07800026E
:103DE00000B2B1490880AE4880780988084400B222
:103DF000AD490880AA484079000200B2AB4908806A
:103E0000A74800790988084400B2A8490880A44856
:103E1000C079000200B2A6490880A14880790988CB
:103E2000084400B2A24908809F48B0F9000005F09C
:103E3000B4FCA049019005F0B2FA834605F0F2FC0B
:103E4000804600229C4B05F039FC064600229B4B25
:103E500005F0C2FB00229A4BCDE9020105F02EFCD1
:103E6000984A994BCDE9040105F0B6FB044605F0EC
:103E700015FD964908608D48B0F9000005F08DFCED
:103E80008C49019005F08BFA834605F0CBFC0022AB
:103E9000894BCDE9020105F011FC06460022874B53
:103EA00005F09AFB04460022854B05F007FC854A85
:103EB000854BCDE9040105F08FFB804605F0EEFC53
:103EC000834908607A4801E054E044E1B0F9000019
:103ED00005F063FC7F49019005F061FA834605F027
:103EE000A1FC0022744BCDE9020105F0E7FB8046FE
:103EF0000022724B05F070FB06460022704B05F065
:103F0000DDFB04466F4A704B05F066FBCDE904010A
:103F100005F0C4FC704908606C48006805F082FC3C
:103F200021F0004104466D4A6D4B05F08FFC02D232
:103F30000020664908606648006805F073FC21F0BF
:103F400000410446654A664B05F080FC02D2002021
:103F50005F4908606048006805F064FC21F000419A
:103F600004465E4A5E4B05F071FC02D200205A49BD
:103F70000860F1E04A48C078000200B25949088060
:103F8000474880780988084400B256490880444868
:103F90004079000200B254490880414800790988FC
:103FA000084400B2504908803D48C079000200B280
:103FB0004E4908803A4880790988084400B24B4944
:103FC00008804848B0F9000005F0E7FB4849059033
:103FD00005F0E5F9834605F025FC06460022364B40
:103FE00005F06CFB04460022424B05F0F5FA8046D2
:103FF00005F054FC404908603B48B0F9000005F06A
:10400000DAFB064600222C4B05F058FB0446002242
:10401000384B05F0E1FA804605F040FC374908606E
:104020003248B0F9000005F0C6FB80460022224B62
:1040300005F044FB064600222E4B05F0CDFA04465F
:1040400005F02CFC2E49086086E01548C078000277
:1040500000B22C490880124880780988084400B2D0
:10406000284908800E484079000200B2264908809D
:104070000B4800790988084400B2234908800848A1
:10408000C07943E0DF59375FDC020020E9000020FF
:104090000C110020EA00002079000020EB00002035
:1040A00014230020E8000020C8010020CA010020DD
:1040B000CC010020000048430000E04000409F4049
:1040C000008066404AD8124DFB210940280200209A
:1040D0002C020020000048C3300200209A999999D0
:1040E0009999C93FC2010020C4010020C6010020E7
:1040F000000080BF000030401C0200202002002091
:1041000024020020CE010020D0010020000200B2D5
:10411000FE490880FE4880790988084400B2FB49BE
:104120000880FC48B0F9000005F037FB0446FA4966
:1041300005F035F9F9490860F948B0F9000005F0D3
:104140002CFBF8490860F148B0F9000005F025FBA8
:10415000F549086000E000BF00BF07B0BDE8F08F80
:1041600001B59AB0002019901890179016901A98DF
:104170001590002014901598512808D015985228B1
:1041800005D01598532802D0159854287ED1E748B9
:10419000007800287BD11598FFF711FE159851285B
:1041A0001FD0522802D0542851D135E0E048006891
:1041B000E049E14A127841F82200E0480068E0490D
:1041C000DD4A127841F82200DE480068DE49DA4A0A
:1041D000127841F82200D8480078401CD64908706F
:1041E00045E0DA480168DA48DA4A127840F82210E5
:1041F000D9480068D949D74A127841F82200D848EE
:104200000068D849D34A127841F82200D148007892
:10421000401CD04908702AE0C0480068D249D34AFF
:10422000127841F82200BF480068D149CF4A12787D
:1042300041F82200BC480068CE49CC4A127841F8C7
:104240002200CA480078401CC84908700FE0BA48EC
:104250000078401CB8490870BE480078401CBD4931
:104260000870C2480078401CC049087000BF00BFF9
:10427000B148007806280ADDB64800780628FADD3D
:10428000BA4800780628F6DD002001E037E2B5E103
:10429000199016E01998401C05F07FFAA549129074
:1042A000199851F8200001461190129805F077F8FE
:1042B0001390149905F01BF814901998401CC0B283
:1042C00019909D49097819988842E3DBAA49149806
:1042D00005F09BF8A9490860002014900846006882
:1042E000A74908600020199016E01998401C05F0B5
:1042F00054FA93491290199851F8200001461190F0
:10430000129805F04CF81390149904F0F0FF1490F3
:104310001998401CC0B219908749097819988842A9
:10432000E3DB9549149805F070F894490860002083
:10433000149008460068934908600020199016E020
:104340001998401C05F029FA7F491290199851F8E4
:10435000200001461190129805F021F8139014994D
:1043600004F0C5FF14901998401CC0B2199072490E
:10437000097819988842E3DB7F49149805F045F8DD
:104380007E49086000201490084600687E49086055
:10439000002019900DE06E49199851F8200001464F
:1043A0001390149804F0A3FF14901998401CC0B205
:1043B00019906849097819988842ECDB65480078BB
:1043C00005F0F4F901461390149805F01EF86B49B6
:1043D000086000201490084600686C4908600020BE
:1043E00019900DE05D49199851F82000014613908D
:1043F000149804F07CFF14901998401CC0B21990D6
:104400005449097819988842ECDB5248007805F045
:10441000CDF901461390149804F0F7FF574908604E
:10442000002014900846006859490860002019903F
:104430000DE04C49199851F820000146139014984A
:1044400004F055FF14901998401CC0B219904149CE
:10445000097819988842ECDB3E48007805F0A6F907
:1044600001461390149804F0D0FF444908600020DE
:1044700014900846006847490860002019900DE034
:104480003949199851F8200001461390149804F006
:104490002EFF14901998401CC0B219903349097826
:1044A00019988842ECDB3148007805F07FF9014625
:1044B0001390149804F0A9FF30490860002014906C
:1044C0000846006834490860002019900DE028492A
:1044D000199851F8200001461390149804F007FF32
:1044E00014901998401CC0B2199020490978199865
:1044F0008842ECDB1D48007805F058F9014613901E
:10450000149804F082FF1D49086047E0D2010020A2
:1045100014230020CE010020000080BF34020020C0
:10452000D0010020380200203C020020B40200200C
:1045300028020020202300201D0300202C02002040
:104540004023002030020020602300201C020020B5
:10455000802300201E03002020020020A023002032
:1045600024020020C0230020E02300201F0300209D
:10457000002400202024002000001042B00200206F
:10458000B8020020BC020020C0020020C4020020AB
:10459000C8020020CC020020D0020020002014908D
:1045A00008460068FE490860002019900DE0FD49AA
:1045B000199851F8200001461390149804F097FEC2
:1045C00014901998401CC0B21990F74909781998AD
:1045D0008842ECDBF448007805F0E8F801461390D7
:1045E000149804F012FFF149086000201490084666
:1045F0000068EF4908600120EE490870ED48007836
:1046000000287CD0EC480168006804F0C8FE1290D5
:10461000EA480168006804F0C2FE1090E8480168AA
:10462000006804F0BCFE0F90109904F060FE119039
:10463000129904F05CFE1390FFF71CFB1890E04801
:104640001899006804F0ABFEDD490860DB48189952
:10465000006804F0A4FED9490860D748189900689A
:1046600004F09DFED4490860D1480168006804F058
:1046700096FE1290CA480168006804F090FE1090FF
:10468000D0480168006804F08AFE0F90109904F089
:104690002EFE1190129904F02AFE1390FFF7EAFA09
:1046A0001890C8481899006804F079FEC549086058
:1046B000BB481899006804F072FEB9490860BC480C
:1046C0001899006804F06BFEB9490860BA480068A0
:1046D00005F0A8F8CDE91001B848006805F0A2F887
:1046E000CDE90E01DDE9102306F0F0FCCDE9120161
:1046F00005F0D4F8B4490860B148006800E08DE3E3
:1047000005F090F8CDE9100106F090FACDE912011C
:1047100005F0C4F8AD4908600846006805F082F865
:10472000CDE9080106F092FDCDE90C01A64800682C
:1047300005F078F8CDE9040106F0DEFDCDE90801C9
:104740009B48006805F06EF8CDE90601DDE9082315
:1047500004F042FFCDE90A01DDE90C2304F03CFF3F
:10476000CDE910019948006805F05CF8CDE9040135
:1047700006F0C2FDCDE908019348006805F052F843
:10478000CDE9000106F0B8FDCDE9040184480068D8
:1047900005F048F8CDE90201DDE9042304F01CFF2F
:1047A000CDE90601DDE9082304F016FFCDE90C018F
:1047B0008548006805F036F8CDE9040106F046FDAD
:1047C000CDE908017F48006805F02CF8CDE9060125
:1047D000DDE9082304F000FFCDE90A01DDE90C233F
:1047E00004F053FECDE90E01DDE9102304F0EEFEE6
:1047F000CDE9120105F052F817907448006805F0F1
:1048000011F8CDE9080106F077FDCDE90C01684803
:10481000006805F007F8CDE90A01DDE90C2304F092
:10482000DBFECDE910016948006804F0FBFFCDE92B
:10483000080106F00BFDCDE90C015948006804F0B1
:10484000F1FFCDE90A01DDE90C2304F0C5FECDE955
:104850000E01DDE9102304F018FECDE9120105F088
:104860001DF816900021179805F034F803D2179818
:1048700080F0004017900021169805F02BF803D225
:10488000169880F00040169000214548006805F019
:104890002BF817D200214B48006805F01BF811D205
:1048A000DDE9160104F0B1FD0F9004F0BBFFCDE986
:1048B000100106F0F9FACDE9120104F0EFFF4449C6
:1048C000086064E000213648006805F003F81DD256
:1048D00000213C48006804F0FDFF17D2DDE9160115
:1048E00004F093FD0D9004F09DFFCDE90E0106F05C
:1048F000DBFA0022374BCDE9100104F06DFECDE963
:10490000120104F0CBFF3249086040E00021244846
:10491000006804F0E9FF1DD200212A48006804F075
:10492000E3FF17D2DDE9160104F06FFD0D9004F0EE
:1049300079FFCDE90E0106F0B7FA274A274BCDE9FA
:10494000100104F046FECDE9120104F0A7FF204952
:1049500008601CE0DDE9160104F057FD0B9004F03F
:1049600061FFCDE90C0106F09FFA1B4A1B4BCDE914
:104970000E0104F02EFE0022164BCDE9100104F0CA
:104980002BFECDE9120104F089FF1149086010489F
:10499000006804F047FF0022114BCDE9060121E039
:1049A000D4020020202400201F030020B002002099
:1049B000D8020020B4020020CC020020C80200204F
:1049C000C4020020D0020020A0020020A402002087
:1049D000A80200200000F0BF4AD8124DFB21094078
:1049E0000000E03F04F0F8FDCDE9080106F084FC8A
:1049F000CDE90C01FE48006804F014FF0022FD4BD5
:104A0000CDE9020104F0E8FDCDE9040106F074FCF3
:104A1000CDE90801F848006804F004FF0022F54BD6
:104A2000CDE9020104F0D8FDCDE9040106F064FCF3
:104A3000CDE90601DDE9082304F0CEFDCDE90A0148
:104A4000DDE90C2304F0C8FDCDE91001EB48006856
:104A500004F0E8FE0022E74BCDE9060104F0BCFDBE
:104A6000CDE9080106F0F2FBCDE90C01E048006851
:104A700004F0D8FE0022DF4BCDE9020104F0ACFDCA
:104A8000CDE9040106F0E2FBCDE90801DA4800684F
:104A900004F0C8FE0022D74BCDE9020104F09CFDD2
:104AA000CDE9040106F0D2FBCDE90601DDE90823DA
:104AB00004F092FDCDE90A01DDE90C2304F08CFD40
:104AC000CDE90E01DDE9102304F0DFFCCDE9120190
:104AD00004F0E4FECA490860C848006804F0A2FE79
:104AE0000022C44BCDE9060104F076FDCDE90801B2
:104AF00006F002FCCDE90C01BD48006804F092FE0E
:104B00000022BC4BCDE9020104F066FDCDE90401B1
:104B100006F0F2FBCDE90801B748006804F082FE18
:104B20000022B44BCDE9020104F056FDCDE90401A9
:104B300006F08CFBCDE90601DDE9082304F04CFD0D
:104B4000CDE90A01DDE90C2304F046FDCDE91001B1
:104B5000AA48006804F066FE0022A64BCDE90601D3
:104B600004F03AFDCDE9080106F070FBCDE90C0137
:104B70009F48006804F056FE00229E4BCDE90201DA
:104B800004F02AFDCDE9040106F060FBCDE908013F
:104B90009948006804F046FE0022964BCDE90201D8
:104BA00004F01AFDCDE9040106F0A6FBCDE90601EB
:104BB000DDE9082304F010FDCDE90A01DDE90C234D
:104BC00004F00AFDCDE90E01DDE9102304F0FEFC3E
:104BD000CDE9120104F062FE8A4908608748006846
:104BE00004F020FE0022834BCDE9060104F0F4FC22
:104BF000CDE9080106F080FBCDE90C017C48006896
:104C000004F010FE00227B4BCDE9020104F0E4FC2D
:104C1000CDE9040106F01AFBCDE9080176480068E9
:104C200004F000FE0022734BCDE9020104F0D4FC35
:104C3000CDE9040106F060FBCDE90601DDE90823BA
:104C400004F0CAFCCDE90A01DDE90C2304F0C4FC40
:104C5000CDE910016948006804F0E4FD0022654BCD
:104C6000CDE9060104F0B8FCCDE9080106F0EEFA42
:104C7000CDE90C015E48006804F0D4FD00225D4BD4
:104C8000CDE9020104F0A8FCCDE9040106F034FBF3
:104C9000CDE908015848006804F0C4FD0022554BD6
:104CA000CDE9020104F098FCCDE9040106F0CEFA4A
:104CB000CDE90601DDE9082304F08EFCCDE90A0107
:104CC000DDE90C2304F088FCCDE90E01DDE91023B9
:104CD00004F0DBFBCDE9120104F0E0FD4A49086075
:104CE0004648006804F09EFD0022424BCDE90601D3
:104CF00004F072FCCDE9080106F0A8FACDE90C0138
:104D00003B48006804F08EFD00223A4BCDE90201D9
:104D100004F062FCCDE9040106F0EEFACDE90801E9
:104D20003548006804F07EFD0022324BCDE90201D7
:104D300004F052FCCDE9040106F0DEFACDE90601EB
:104D4000DDE9082304F048FCCDE90A01DDE90C2384
:104D500004F042FCCDE910012848006804F062FD2F
:104D60000022244BCDE9060104F036FCCDE9080110
:104D700006F0C2FACDE90C011D48006804F052FDAE
:104D800000221C4BCDE9020104F026FCCDE9040110
:104D900006F05CFACDE908011748006804F042FD0E
:104DA0000022144BCDE9020104F016FCCDE9040108
:104DB00006F04CFACDE90601DDE9082304F00CFC0D
:104DC000CDE90A01DDE90C2304F006FCCDE90E0172
:104DD000DDE9102304F0FAFBCDE9120104F05EFDD9
:104DE0000A49086000200A4908700A49087013E05F
:104DF000A40200200000E03FA0020020A802002042
:104E000054020020580200205C02002060020020B2
:104E10001D0300201E030020FE4908701BB000BDCA
:104E200001B598B000201690159014901898139022
:104E300000201290119010900F900E900D900C90F9
:104E40000B900A90FBF7BDFE099004F0AFFCF2490D
:104E500008601398512808D01398522805D0139849
:104E6000532802D01398542879D11398FEF7A7FF3E
:104E7000EA480068EA49EB4A127841F82200EA4819
:104E80000068EA49E74A127841F82200E8480068D9
:104E9000E849E44A127841F82200E7480068E74907
:104EA000E04A127841F82200E5480068E549DD4A09
:104EB000127841F82200E4480068E449D94A12789F
:104EC00041F82200E2480068E249D64A127841F8E7
:104ED0002200E1480068E149D24A127841F82200F4
:104EE000DF480068DF49CF4A127841F82200CD48F8
:104EF0000078401CCB49087008460078062801DD80
:104F0000002008700020169016E01698401C04F04F
:104F100044FCC3490890169851F8200001460790B8
:104F2000089804F03CFA0990149904F0E0F9149000
:104F30001698401CC0B2169016980628E5DBCA49A0
:104F4000149804F062FA0990C8480168099804F0BE
:104F500020FAC749086000201490169017E0F6E088
:104F60001698401C04F019FCB0490890169851F8A6
:104F7000200001460790089804F011FA099014994E
:104F800004F0B5F914901698401CC0B2169016980B
:104F90000628E5DBB449149804F037FA0990B548BF
:104FA0000168099804F0F5F9B349086000201490ED
:104FB000169016E01698401C04F0EFFB9D490890EF
:104FC000169851F8200001460790089804F0E7F978
:104FD0000990149904F08BF914901698401CC0B2F3
:104FE000169016980628E5DB9F49149804F00DFAF0
:104FF0000990A2480168099804F0CBF9A04908601B
:105000000020149016900DE08C49169851F820005D
:1050100001460990149804F06AF914901698401CFF
:10502000C0B2169016980628EEDB9649149804F044
:10503000ECF9954908600020149016900DE0814924
:10504000169851F8200001460990149804F04FF981
:1050500014901698401CC0B2169016980628EEDBE5
:105060008849149804F0D1F9884908600020149008
:1050700016900DE07549169851F8200001460990E8
:10508000149804F034F914901698401CC0B216908D
:1050900016980628EEDB7B49149804F0B6F97C4993
:1050A00008600020149016900DE06A49169851F897
:1050B000200001460990149804F019F914901698EC
:1050C000401CC0B2169016980628EEDB6D49149865
:1050D00004F09BF96F4908600020149016900DE0D1
:1050E0005E49169851F8200001460990149804F082
:1050F000FEF814901698401CC0B216901698062818
:10510000EEDB6049149804F080F9634908600020E0
:10511000149016900DE05349169851F8200001465E
:105120000990149804F0E3F814901698401CC0B24B
:10513000169016980628EEDB5249149804F065F98B
:1051400056490860002014900120554908705448C1
:105150000078002801F08D805248016848480068B6
:1051600004F017F9079004F05DFB21F000410022E4
:105170004D4BCDE9080104F07DFB11D34048016897
:105180004848006804F005F9079004F04BFB21F053
:1051900000410022444BCDE9080104F06BFB02D230
:1051A000012042490870324800684149086032488D
:1051B000006840490860324800683A4908603B4846
:1051C0000078002825D03C480078401C3A490870F7
:1051D00008460078FA2804D1002008703349087086
:1051E000FEE32B480168006804F0D9F808902748CE
:1051F0000168006804F0D3F806902348016800684D
:1052000004F0CDF80590069904F071F8079008991C
:1052100054E03BE21F03002010030020280200207E
:1052200020230020AC0200202C020020402300207C
:1052300030020020602300201C0200208023002078
:1052400020020020A023002024020020C0230020F0
:1052500034020020E0230020380200200024002037
:105260003C0200202024002000001042B802002050
:10527000E0010020BC020020E4010020C002002068
:10528000E80100200000C040D4010020D801002027
:10529000DC010020EC010020F0010020F4010020DE
:1052A000B50200201802002000001440C0010020B8
:1052B00010020020140200201C03002004F017F844
:1052C0000990FEF7D7FC1590FE481599006804F088
:1052D00066F8FC490860FC481599006804F05FF81E
:1052E000F9490860F9481599006804F058F8F74939
:1052F0000860F7480168F748006804F050F8129019
:10530000F5480168F348006804F049F81190F34843
:105310000168F048006804F042F81090EC48016819
:10532000006804F03CF80F90EB480168E84800681A
:1053300004F035F80E90E9480168E548006804F08B
:105340002EF80D90E4480168006804F028F80C90ED
:10535000E2480168E048006804F021F80B90DF485B
:105360000168006804F01BF80A9011990D9804F088
:1053700010F8039004F056FA00224FF08043CDE974
:10538000040104F029F90022D54BCDE9060104F00F
:1053900023F9CDE9080104F081FAD24908600B999C
:1053A000129803F0A4FF059004F03CFA00224FF09D
:1053B0008043CDE9060104F00FF9CDE9080104F0BE
:1053C0006DFAC94908604FF07C500F9903F0E1FF76
:1053D00004900C9903F0DDFF059004F023FA0022FD
:1053E0004FF08043CDE9060104F0F6F8CDE908015D
:1053F00004F054FABD490860BB480168B34800682E
:1054000003F0CDFF0990B9480168AF48006803F088
:10541000C6FF0890099903F0BCFFB5490860B3487E
:105420000168A848006803F0BAFF0990AD48016818
:10543000A648006803F0B3FF0890099903F0A9FF9C
:10544000AC490860A74801689F48006803F0A7FFBF
:105450000990A54801689B48006803F0A0FF0890E8
:10546000099903F096FFA4490860A148006804F078
:10547000D9F921F00041A14AA14BCDE9080104F07E
:10548000E5F902D200209A4908609A48006804F0C1
:10549000C9F921F00041994A994BCDE9080104F07E
:1054A000D5F902D20020934908609348006804F0BF
:1054B000B9F921F00041914A914BCDE9080104F07E
:1054C000C5F902D200208C4908608E4801688848DE
:1054D000006803F05EFF8C4908608C4801688548CD
:1054E000006803F056FF8A4908608A4801688248CC
:1054F000006803F04EFF884908607D4800688149D4
:1055000008607C480068814908607B4800688149E0
:10551000086000217648006804F0DCF94ED00021D4
:105520007448006804F0D6F948D000217248006839
:1055300004F0D0F942D06E4801687848006803F062
:105540002EFF099076480168099803F0D0FE74494F
:105550000860684801687348006803F020FF0990FC
:1055600071480168099803F0C2FE6F4908606248FB
:1055700001686E48006803F012FF09906C480168EA
:10558000099803F0B4FE6A490860654801686948F3
:10559000006803F0ACFE674908606348016866482C
:1055A000006803F0A4FE644908606148016863482C
:1055B000006803F09CFE6149086006E0002058493D
:1055C0000860594908605A490860494801685C48C0
:1055D000006803F0E4FE099056480168099803F05A
:1055E00086FE54490860434801685648006803F045
:1055F000D6FE099050480168099803F078FE4E499C
:1056000008603D4801685048006803F0C8FE0990F2
:105610004A480168099803F06AFE484908603A4818
:1056200001684A48006803F0BAFE099041480168E1
:10563000099803F05CFE3F4908603548016844481A
:10564000006803F0ACFE09903B480168099803F03C
:105650004EFE39490860304801683E48006803F052
:105660009EFE099035480168099803F040FE3349D1
:10567000086030480068384908602F48006837499A
:1056800008602E48006836490860A9E50F4801689F
:10569000006803F084FE08900B480168006803F07E
:1056A0007EFE069007480168006803F078FE0590CA
:1056B000069903F01CFE0790089903F018FE099064
:1056C00050E00000D4010020D8010020DC010020BF
:1056D00058020020540200205C02002060020020DA
:1056E0000000F0BF880200208C0200209002002001
:1056F000E0020020E4020020E8020020FCA9F1D230
:105700004D62503FF802002004030020FC020020FC
:1057100008030020000300200C0300207402002076
:10572000EC02002078020020F0020020700200202D
:10573000F4020020E0010020E4010020E801002044
:10574000680200206C020020640200207C0200201D
:1057500080020020840200200402002008020020B1
:105760000C020020FEF786FA1590FE481599006895
:1057700003F015FEFB490860FB481599006803F02B
:105780000EFEF9490860F9481599006803F007FE14
:10579000F6490860F6480168006803F000FE0890CA
:1057A000F4480168006803F0FAFD0690F2480168C9
:1057B000006803F0F4FD0590069903F098FD07904A
:1057C000089903F094FD0990FEF754FA1590EA4801
:1057D0001599006803F0E3FDE7490860E54815996D
:1057E000006803F0DCFDE3490860E14815990068B2
:1057F00003F0D5FDDE490860E0480168E048006834
:1058000003F0CDFD1290DF480168DD48006803F029
:10581000C6FD1190DC480168D948006803F0BFFD5F
:105820001090D6480168006803F0B9FD0F90D54884
:105830000168D248006803F0B2FD0E90D2480168BA
:10584000CE48006803F0ABFD0D90CE4801680068BB
:1058500003F0A5FD0C90CC480168CA48006803F02D
:105860009EFD0B90C8480168006803F098FD0A90FF
:1058700011990D9803F03BFD0690BD48016806980C
:1058800003F08DFD089010990E9803F082FD0490AE
:10589000B8480168049803F082FD06904FF07C50F0
:1058A0000C9903F076FD03900A9903F072FD0490C1
:1058B000B1480168049803F072FD0590069903F061
:1058C00016FD0790089903F012FD4FF080410990F2
:1058D00003F065FDAD49086012990B9803F059FD7E
:1058E0000690A3480168069803F059FD08904FF010
:1058F0007C500F9903F04DFD03900A9903F049FD88
:1059000004909C480168049803F049FD06901099A2
:105910000E9803F0ECFC049097480168049803F09B
:105920003EFD0590069903F0E2FC0790089903F00C
:10593000DEFC4FF08041099003F031FD944908608E
:1059400008460168006803F02AFD04908F4801684A
:10595000006803F024FD0390049903F0C8FC05904F
:1059600003F060FFCDE9060105F01EFDCDE9080159
:1059700003F094FF874908604FF07C500F9903F0C3
:1059800008FD05900C9903F004FD06907848016825
:10599000069803F004FD089012990B9803F0A7FCF9
:1059A000049074480168049803F0F9FC069011997A
:1059B0000D9803F0EEFC04906F480168049803F022
:1059C000EEFC0590069903F092FC0790089903F00D
:1059D0008EFC4FF08041099003F0E1FC6E4900E03D
:1059E00080E2086011990D9803F0D3FC039003F056
:1059F00019FF00224FF08043CDE9040103F0ECFDD4
:105A00000022664BCDE9060103F0E6FDCDE9080171
:105A100003F044FF624908600B99129803F067FC99
:105A2000059003F0FFFE00224FF08043CDE9060110
:105A300003F0D2FDCDE9080103F030FF59490860B9
:105A40004FF07C500F9903F0A4FC04900C9903F0E4
:105A5000A0FC059003F0E6FE00224FF08043CDE964
:105A6000060103F0B9FDCDE9080103F017FF4E4927
:105A7000086011990D9803F08CFC0290464801686B
:105A8000029803F08CFC04904FF07C500C9903F0CA
:105A900080FC01900A9903F07CFC02903D4801686B
:105AA000029803F07CFC0390049903F020FC05901D
:105AB00003F0B8FE00224FF04043CDE9060103F0A9
:105AC0008BFDCDE9080103F0E9FE384908600B9928
:105AD000129803F00CFC02902F480168029803F022
