:020000040800F2
:100000005028002045010008A1020008A3020008B2
:10001000A7020008AB020008AF02000800000000C1
:10002000000000000000000000000000B302000813
:10003000B502000800000000B7020008B90200087D
:100040005F0100085F0100085F0100085F01000810
:100050005F0100085F0100085F0100085F01000800
:100060005F0100085F0100085F0100085F010008F0
:100070005F0100085F010008AD0900085F0100088A
:100080005F0100085F0100085F010008F30D000830
:100090000F0E00085F0100085F0100085F01000803
:1000A0005F0100085F0100085F0100085F010008B0
:1000B000DB0B00085F0100085F0100085F0100081A
:1000C0005F0100085F0100085F0100085F01000890
:1000D0005F010008DD080008632700085B3800089E
:1000E0005F0100085F0100085F0100085F01000870
:1000F0005F0100085F0100085F0100085F01000860
:100100005F0100085F0100085F0100085F0100084F
:10011000F51300085F0100085F0100085F01000897
:100120005F0100085F0100085F0100085F0100082F
:10013000DFF80CD009F04CFA0048004769010008CC
:10014000502800200648804706480047FEE7FEE7A3
:10015000FEE7FEE7FEE7FEE7FEE7FEE7FEE7FEE777
:10016000098B0008310100081CB540A103C9CDE985
:10017000000108F0C9FC4FF4E13000F011F94FF430
:10018000E13001F021FF4FF4164002F01BFE4FF466
:10019000E13001F059F900F0BFFE01F0EDFE00F092
:1001A000B5FC00F031FC01F057FC02F033FD02F029
:1001B00001FB03F03FFC4FF47A7000F00DFC01F0FE
:1001C000DBFD00F000FD2B49086033E02A48007891
:1001D0002A49097888421CD003F0FEFC284908709F
:1001E0000846007851280BD008460078522807D0DE
:1001F00008460078532803D008460078542808D1D0
:100200001F48007803F03AFF1E480078401C1D4943
:10021000087000F0D8FC1C4908600968154A12688B
:10022000881A08F081FF19490860194917480068C1
:1002300009F036F8134800781528C7DB02F048FCAF
:1002400014220621134802F054FC322201211248E4
:1002500002F04FFC14220A21104802F04AFC02F07E
:1002600044FC01E002F071FCFCE700001122334481
:100270005566770008000020E9000020E800002013
:1002800010000020000000200C00002004000020CE
:10029000001B374A812D0008E35D0008292600086D
:1002A000704700BFFEE700BFFEE700BFFEE700BFEC
:1002B000FEE770477047704710B502F06FFC10BD45
:1002C0000246002003E000231354431C98B28842E6
:1002D000F9DB70472DE9F04F07460D461646994663
:1002E00007EB0508BA460024A34601E0601C84B26F
:1002F0002A4850F8340008B1082CF7DD082C05DB3B
:10030000FF2089F800000020BDE8F08F234840F866
:10031000347000EBC4000571204800EBC400467146
:100320001E4800EBC4008671A34605FB06F1384663
:10033000FFF7C6FF002405E0CAF80080C246A844C3
:10034000601C84B2701EA042F6DC144800EBCB00A7
:10035000DAE710B502461368907918B9FF200870E3
:10036000002010BD9079401E9071907908B11868F6
:1003700010601C46241D002008702046F1E702464C
:1003800009B9FF207047091F0B46106818601360F9
:100390009079401C90710020F4E7000028030020B1
:1003A00038B504460020FE490870FE490870FE4931
:1003B0000870FE4908701420FD490870204600F0BE
:1003C0003AFA6B4620221146FA48FFF783FFFA49B2
:1003D000086038BD10B5F6480078142800D110BD6B
:1003E000002240F22661F54808F0F7F9F448EF4999
:1003F000097810F8310010B3EC480078EA49097820
:1004000088421CD0EE48E949097810F83100401EB6
:10041000EB49E64A127801F832000846E34A1278BE
:1004200000EBC2004068E74A1278815CE34808F0BC
:1004300035FAE4480078401CE24908705CE0DB488B
:100440000078D949097888424DD0DD48D74A1278DA
:1004500000EBC2004168D8480068FFF790FFD3481E
:100460000078401CC0B2D1490870142801DB00207C
:100470000870CF480078401CC0B2CD4908701428DD
:1004800001DB142008700020CE490870C7480078AE
:10049000C549097888421CD0C948C449097810F870
:1004A0003100401EC1B2C648C04A127800F832106E
:1004B000BE4A127800EBC2004068C24A1278815CE2
:1004C000BE4808F0EBF9BF480078401CBD490870F1
:1004D00012E00020BC4908701420B54908700020C3
:1004E000B849087008E00020B74908701420B049E6
:1004F00008700020B3490870012240F22661AF481D
:1005000008F06BF900BF6AE710B5AC4808F0CAF90B
:10051000C1B2A34802780078401CA14B1870AB48C8
:100520008154184600789F490978884204D19D4833
:100530000078401C9B49087010BDF8B505460C4674
:1005400026460CB90120F8BD002240F226619B48E6
:1005500008F043F91C2094FBF0F100FB114028B196
:100560001C2094FBF0F0401CC4B203E01C2094FB60
:10057000F0F0C4B28E480078A04207DA012240F2BF
:1005800026618E4808F029F9FF20DCE769468A4891
:100590000068FFF7DEFE8A49834A127801EBC20148
:1005A000486081480078142802DB00207E490870EA
:1005B00000242FE0287882497B4A127801EBC2019F
:1005C00049680855601CC4B21C2C20DB1C217C48E7
:1005D000754A127800F8321073480078401CC0B297
:1005E00071490870142801DB0020087069467248C0
:1005F0000068FFF7AEFE72496B4A127801EBC20148
:1006000048606B480078401E6949087000246D1CE2
:10061000701EC6B2002ECDD19CB1694862490978DE
:1006200000F8314062480078401E614908705E4819
:100630000078401CC0B25C490870142801DB00201F
:1006400008706148007820B9FFF7C4FE01205E49B8
:100650000870012240F22661584808F0BEF80020D8
:1006600071E770B50546002400E0641C285D002891
:10067000FBD1E1B22846FFF760FF70BD10B54B48D3
:10068000007849490978884234D04D48474A127861
:1006900000EBC200416848480068FFF770FE43481D
:1006A0000078401CC0B241490870142801DB0020CA
:1006B00008703F480078401CC0B23D4908701428BB
:1006C00001DB1420087039480078374909788842DE
:1006D0000CD03B4A354B1B7812F83310334B1B7848
:1006E00002EBC302506800F01CF924E000203649F8
:1006F000087020E032482D4A127800EBC2004168B1
:100700002D480068FFF73BFE28480078401CC0B227
:1007100026490870142801DB00200870244800785E
:10072000401CC0B222490870142801DB1420087054
:1007300000202549087010BD10B55CE0244A1278ED
:10074000002A53D10020174A1278921ED1B21F4AB4
:10075000525C552A01D1421CD0B2124A1278521E64
:10076000D1B21A4A525CAA2A01D1421CD0B20D4A17
:100770001278184B1B68022404FB0322D1B2134ADF
:10078000525CFF2A01D1421CD0B203282ED1012293
:100790000F4B1A70034A12780F4B1A70014A1DE072
:1007A0002500002026000020220000202300002039
:1007B00024000020240500202C00002000380140E7
:1007C00084030020210000201400002024040020C5
:1007D000200000201C000020270000201278094B78
:1007E0001B68022404FB0322074B1A70074A127885
:1007F000521C064B1A70054A1278054B1B789A4218
:100800009CD110BD1C0000202800002026000020E4
:100810002500002008B525208DF8000000208DF867
:10082000010003208DF8020001208DF803006846C6
:1008300005F007FB08BD10B586B00446012144F25F
:10084000050006F079FF01A806F049FD4FF400709D
:10085000ADF8040003208DF8060018208DF807007D
:1008600001A9594806F0B2FC01A806F038FD4FF482
:100870008060ADF8040004208DF8070001A95248FB
:1008800006F0A4FC514807F0CDFE02A807F076FF61
:1008900002940020ADF80C00ADF80E00ADF8100089
:1008A0000C20ADF812000020ADF8140002A9474852
:1008B00007F0FBFE012240F22661444807F08DFF5D
:1008C000FFF7A8FF012240F22551404807F085FFBD
:1008D00001213E4807F075FF06B010BD10B520217C
:1008E0003A4808F049F8012808D12021374808F093
:1008F00050F83748007808B1FFF706FE402133482A
:1009000008F03AF8012808D14021304808F041F8B1
:100910002F48007808B1FFF75DFD01202C490870D1
:1009200010BD30B58DB005460C460121084606F0D5
:10093000F6FE284805F0E4FF2448001D02900395C8
:10094000102004900594002006908020079000203D
:10095000089009900A904FF440500B9000200C90A2
:1009600002A91C4806F06EF801220221194806F07F
:10097000A0F80E208DF8040000208DF805008DF8F9
:10098000060001208DF8070001A805F05AFA0121A0
:10099000104806F082F8012280210C4807F042FF3F
:1009A00001210A4807F00DFF0DB030BD10B54FF41E
:1009B000005006F0ABF8012804D1400306F09BF884
:1009C000FFF75CFE10BD0000000801400038014048
:1009D0003000002044000240002107E0002200E037
:1009E000521C43F278739A42FADB491C8142F5D3D8
:1009F0007047002105E0002200E0521C0E2AFCDBBB
:100A0000491C8142F7D3704730B57F4800684FF4E6
:100A10007A72B0FBF2F1B1F1807F01D301201DE0C9
:100A200021F07F40401E4FF0E022506150170F220E
:100A3000002807DA13071D0E744B00F00F04241F63
:100A40001D5503E013071C0E714B1C5400BF002002
:100A50004FF0E022906107201061002008B100BF34
:100A6000FEE74FF0E020006920F001004FF0E021A8
:100A7000086130BD4FF0E020006940F001004FF008
:100A8000E0210861704708B54FF4E06005F0D4F943
:100A90001C208DF8000000208DF8010005208DF845
:100AA000020001208DF80300684605F0CAF908BD70
:100AB0000EB50121084606F04CFEFFF7E4FF4FF0AB
:100AC000804006F0A1FE41F28830ADF804004720D6
:100AD000ADF800000020ADF80600ADF80200694650
:100AE0004FF0804006F064FF0121880707F082FD87
:100AF00001221146900707F0D2FA0121880707F07A
:100B0000B3FA0021012006F024FE0EBD0EB501212E
:100B1000062006F01EFE684607F076FA4FF6FF70D4
:100B2000ADF804000020ADF80000ADF80600ADF807
:100B300002006946374806F03BFF0022114635485F
:100B400007F039FB0121334807F0DAFC3021314846
:100B500007F0C4FA07212F4807F008FD80212D482F
:100B600007F00DFD01212B4807F07EFB4FF6FF70CB
:100B7000ADF804004720ADF800000020ADF80600F5
:100B8000ADF802006946244806F012FF0121224810
:100B900007F06AFB0421204807F0E8FC01211E4809
:100BA00007F0BAFC20211C4807F0D7FC80211A4826
:100BB00007F0E5FC0121184807F056FA0121154815
:100BC00007F052FA0EBD00201249243108880004B3
:100BD0001149243109880844704710B5012188075C
:100BE00007F00BFD40B10121880707F017FD0B4806
:100BF0000068401C09490860084800680A2802D3B8
:100C000000200649086010BD1003002018ED00E028
:100C100000E400E000040040000800403400002030
:100C200000B589B014208DF8000000208DF8010077
:100C300001208DF802008DF80300684605F001F9E7
:100C400013208DF8000000208DF8010002208DF89F
:100C5000020001208DF80300684605F0F2F8AA486A
:100C600005F058F90121480606F073FD012108201E
:100C700006F062FD0121084606F05EFD4FF480702B
:100C8000ADF8140003208DF8160048208DF81700E9
:100C900005A99E4806F09AFA4FF40070ADF81400CA
:100CA00003208DF8160018208DF8170005A9974825
:100CB00006F08CFA01214FF4EA1006F056FB06A864
:100CC00005F04CFA00208DF81E008DF81F008DF8FD
:100CD000200001208DF8210000208DF822008DF8E1
:100CE00023008DF81A008DF81B0001208DF81C00E0
:100CF00002208DF81D000C20ADF8180006A98248CE
:100D000005F021F900208DF80E008DF80F0001206C
:100D10008DF810000020ADF80400ADF80600ADF825
:100D20000800ADF80A00ADF80C0001208DF81100A4
:100D300001A805F092F90221734805F08EFD01210A
:100D4000714805F08AFD012203216F4805F084FCFB
:100D500009B000BD7FB586B0DDE90E560798029058
:100D600004208DF80C009DF820008DF80D008DF802
:100D70000E50002407E009983044015D0DF10F008A
:100D80000155601CC4B2AC42F5DB01A95E4805F018
:100D900053FA0AB070BD30B585B00446A07B28B9BF
:100DA0002068009000208DF8080001E02068019084
:100DB00004208DF80800E07B18B900208DF80900A8
:100DC00002E002208DF80900207B8DF80A00002542
:100DD00006E0201D415D0DF10B004155681CC5B2B8
:100DE000207BA842F5DC6946474805F025FA05B0A6
:100DF00030BD10B50121444805F095FC012805D10E
:100E00000121414805F029FD00F097F810BD10B50B
:100E100086B001AA00213C4805F003FB9DF80D00B7
:100E200000286AD1029880B20B2806D0A0F5806015
:100E3000093803D003285ED12EE05DE00298C0F3AC
:100E40000740012806D002280CD0032812D004281D
:100E500020D117E0DDF80F10DDF813002C4AC2E9AD
:100E6000001017E0DDF80F10DDF81300284AC2E982
:100E700004100FE0DDF80F10DDF81300244AC2E97A
:100E8000021007E0DDF80F10DDF81300204AC2E978
:100E9000061000BF00BF2FE00298C0F307400128F2
:100EA00006D002280CD0032812D0042820D117E045
:100EB000DDF80F40204608F02EF91649086018E0CA
:100EC000DDF80F40604208F026F91249486010E052
:100ED000DDF80F40204608F01EF90E49886008E052
:100EE000DDF80F40604208F016F90A49C86000E0DA
:100EF00000BF00BF00E000BF00BF0021024805F0B6
:100F000008FB06B010BD000000640040000C01406A
:100F1000102400203024002008B50020F949087072
:100F2000F9490870FFF77CFE6B4620221146F7480E
:100F3000FFF7D0F9F649086008BD1CB5F548006810
:100F400020280DD10020F4490870F448F44A1278A2
:100F500000EB0210C168EE480068FFF710FA1CBDF4
:100F600000220121EF4805F077FBEC48EC490978B5
:100F700000EB01100078002849D0E9480078EA49E0
:100F80000978884243D0E548E549097800EB01102B
:100F90000078082820DBE148E149097800EB0110DE
:100FA00000780838DD49DE4A127801EB021108703A
:100FB000DE4800680821CDE90010D848D8490978F2
:100FC00000EB011494E80F00FFF7C4FED748006857
:100FD0000830D649086097E0D4480168CF48D04A25
:100FE000127800EB02100078CDE90001CB48CC4923
:100FF000097800EB011494E80F00FFF7ABFE002026
:10100000C649C74A127801EB021108707CE0C44857
:101010000078C549097888426DD0C048C04A127826
:1010200000EB0210C168BA480068FFF7A8F9BC4895
:101030000078401CC0B2BA490870202801DB0020AB
:101040000870B4480068401CB2490860202801D3E9
:10105000202008600020B5490860B1480078B249F6
:10106000097888423DD0AD48AD49097800EB0110C0
:101070000078082821DBA948A949097800EB01106C
:1010800000780838C1B2A548A54A127800EB0210D2
:101090000170A64800680821CDE900109F48A049CA
:1010A000097800EB011494E80F00FFF753FE9F4806
:1010B000006808309D49086026E09C480168974810
:1010C000974A127800EB02100078CDE900019348AE
:1010D0009349097800EB011494E80F00FFF73AFEFA
:1010E00012E000208C49087020208A490860002006
:1010F0008E49086008E00020874908702020854953
:10110000086000208949086001221146854805F0E1
:10111000A3FA00BF23E72DE9F84305460C4616461F
:101120001F46A04614B90120BDE8F8830022012122
:101130007C4805F091FA1C2094FBF0F100FB114073
:1011400028B11C2094FBF0F0401CC4B203E01C202A
:1011500094FBF0F0C4B26F480068A04206D20122AE
:101160001146704805F078FA0120DDE769466848C5
:101170000068FFF7EEF869496B4A127801EB02113B
:10118000C86069480078202802DB002066490870A2
:1011900000243EE029786148634A127800EB02108F
:1011A000C0680155601CC4B21C2C2DDB5B485E4935
:1011B000097800EB011046601C2058495A4A127801
:1011C00001EB0211087055485749097800EB0110EE
:1011D000077255480078401CC0B253490870202857
:1011E00001DB00200870694649480068FFF7B1F844
:1011F0004A494D4A127801EB0211C860454800681F
:10120000401E4449086000246D1CA8F1010000F054
:10121000FF08B8F1000FBDD104B340484249097836
:1012200000EB011046603D483F49097800EB011092
:1012300004703A483C49097800EB011007723548C0
:101240000068401E3349086037480078401CC0B22F
:1012500035490870202801DB002008702E480078EE
:1012600020B901202C490870FFF767FE01221146C2
:101270002C4805F0F1F9002056E7002000212C4A07
:10128000116000BF03E000212A4A1154401CFF28CE
:10129000F9DD704710B50246002000BF03E00023CF
:1012A000244C2354401CFF28F9DD10BD0FB430B589
:1012B00000209DF8161000BF17E00DF11702135C17
:1012C000104A14781278521C0E4D2A70194A135580
:1012D0002A4612780C4B1B789A4204D10A4A12789B
:1012E000521C094B1A70421CD0B28842E5DB30BC5C
:1012F0005DF814FB024622B10F4802600F480170EE
:1013000023E01DE05400002055000020440C002084
:10131000580000203C00002041000020440900202B
:1013200039000020006400403800002050000020F8
:1013300044000020440B0020480000204C00002006
:10134000B2F5807F01D9FF2070470020FCE7000044
:1013500010B586B0044634208DF8000000208DF8CA
:10136000010004208DF8020001208DF8030068467A
:1013700004F067FD0121102006F0DEF90121C80408
:1013800006F0E7F92D48406820F480602B4948605A
:101390000846406860F480604860C814ADF81400E6
:1013A00004208DF8170005A9244805F00FFF0194CB
:1013B0000020ADF80800ADF80A00ADF80C00ADF85B
:1013C00010000C20ADF80E0001A91D4807F06DF9C2
:1013D000012240F225511A4807F0FFF9012240F29C
:1013E0002661174807F0F9F90121154807F0E9F9D6
:1013F00006B010BD10B52021114807F0BDFA012834
:1014000008D120210E4807F0C4FA0E48007808B130
:1014100000F0CEF840210A4807F0AEFA012808D1C2
:101420004021074807F0B5FA0648007808B100F0F7
:1014300025F801200349087010BD0000001001408C
:10144000004C00405C00002038B504460020FE49F6
:101450000870FE490870FE490870FE4908701420A3
:10146000FD4908602046FFF773FF6B4620221146B6
:10147000FA48FEF72FFFFA49086038BD10B5F64864
:101480000068142800D110BD002240F22661F54802
:1014900007F0A3F9F448EF49097810F8310018B3C0
:1014A000EC480078EA49097888421DD0EE48E949BD
:1014B000097810F83100401EEB49E64A127801F82D
:1014C00032000846E349097800EBC1004068E7496B
:1014D000097844182178E34807F0E0F9E3480078F8
:1014E000401CE24908705BE0DA480078D849097886
:1014F00088424CD0DC48D74A127800EBC2004168E1
:10150000D7480068FEF73BFFD2480078401CC0B2C5
:10151000D0490870142801DB00200870CE4800680C
:10152000401CCD490860142801D314200860002015
:10153000CE490870C7480078C549097888421CD050
:10154000C948C449097810F83100401EC649C14A4B
:10155000127801F832000846BE4A127800EBC20049
:101560004068C24A1278815CBE4807F097F9BF48CC
:101570000078401CBD49087012E00020BC4908708A
:101580001420B54908600020B849087008E0002020
:10159000B74908701420B04908600020B3490870AA
:1015A000012240F22661AF4807F017F900BF6AE751
:1015B00010B5AC4807F076F9C1B2A34802780078BC
:1015C000401CA14B1870AB488154184600789F49C5
:1015D0000978884204D19D480078401C9B490870D6
:1015E00010BDF8B505460C4626460CB90120F8BDDD
:1015F000002240F226619B4807F0EFF81C2094FB84
:10160000F0F100FB114028B11C2094FBF0F0401CCD
:10161000C4B203E01C2094FBF0F0C4B28E48006812
:10162000A04207D2012240F226618E4807F0D5F889
:10163000FF20DCE769468A480068FEF78AFE8A498F
:10164000834A127801EBC20148608148007814286F
:1016500002DB00207E49087000242FE028788249B0
:101660007B4A127801EBC20149680855601CC4B27C
:101670001C2C20DB1C217C48754A127800F83210A3
:1016800073480078401CC0B271490870142801DB0F
:1016900000200870694672480068FEF75AFE7249D9
:1016A0006B4A127801EBC20148606B480068401E2B
:1016B0006949086000246D1C701EC6B2002ECDD191
:1016C0009CB169486249097800F831406248006875
:1016D000401E614908605E480078401CC0B25C4909
:1016E0000870142801DB002008706148007820B9D8
:1016F000FFF7C4FE01205E490870012240F2266116
:10170000584807F06AF8002071E770B505460024D4
:1017100000E0641C285D0028FBD1E1B22846FFF7F9
:1017200060FF70BD7EB50020F5E0534C2478002C9E
:101730004AD10022454C2478641EE1B24D4C645CD1
:10174000022C01D1541CE2B2404C24784B4D2D6840
:10175000022606FB0544E1B2464C645C0D2C01D127
:10176000541CE2B2394C2478444D2D68022606FB05
:101770000544641CE1B23F4C645C0A2C01D1541C4A
:10178000E2B2324C24783D4D2D68022606FB05441A
:10179000A41CE1B2374C645C032C01D1541CE2B2AE
:1017A000042A10D10124344D2C700120274C2478B8
:1017B000334D2C70254C2478304D2D68022606FBC5
:1017C0000544304D2C70A1E0204C24782D4D2D780F
:1017D000AC42F8D10024284D2C70002100238DE06C
:1017E000274C24780C44234D2C5D302C0EDB244CEC
:1017F00024780C442C5D392C08DC214C24780C44D2
:101800002C5D303CE4B20DF8014014E01C4C24780F
:101810000C44184D2C5D412C0DDB194C24780C44E4
:101820002C5D462C07DC164C24780C442C5D373C90
:10183000E4B20DF80140124C24780C44641C0D4DA8
:101840002C5D302C32DB1FE0E8000020E900002096
:10185000E0000020E1000020E4000020E41100206E
:10186000F0000020004C004044100020DE0000206A
:1018700060000020E41000207800002074000020A8
:10188000EA000020EB000020684C24780C44641C23
:101890002C5D392C0ADC654C24780C44641C2C5DCE
:1018A000303CE5B24C1C0DF8045018E05F4C247835
:1018B0000C44641C5E4D2C5D412C10DB5B4C247889
:1018C0000C44641C2C5D462C09DC584C24780C44D8
:1018D000641C2C5D373CE5B24C1C0DF804504C1CCC
:1018E0001DF804501DF8014005EB0414E6B21C4637
:1018F0005D1CEBB24F4D2E558C1CE1B24E4C246852
:10190000641E64008C423FF66BAF01204B4C247880
:10191000641C4A4D2C70494C2478494D2D78AC42BA
:101920007FF403AF7EBD10B50146012024E00A78A4
:1019300000EB8003434CE35C9A421CD14A7800EBF5
:10194000800323445B789A4215D18A7800EB8003A8
:1019500023449B789A420ED1CA7800EB800323443B
:10196000DB789A4207D10A7900EB800323441B7984
:101970009A4200D102E0401C1428D8DB00BF324A52
:101980001278324B1A70012801DB102800DD10BDDF
:101990002D4B187000BFFAE730B5C1B000244FF4EA
:1019A000807101A807F049F90025244800782449EE
:1019B0000978884221D0FFF7B5FEF0B10120244913
:1019C000087005221B49234807F042F9A8B11948BD
:1019D000FFF7A9FF01A801231B4A04210090022060
:1019E00001F0CBFBC4B2214601A801F0B7FA1948B7
:1019F00010490A6802600979017141B030BD0020C8
:101A00000AE01149097801EB81010E4A1144095C91
:101A1000084A1154411CC8B20528F2DB0D49054A99
:101A200013680B6012790A7170470000EA00002009
:101A3000E41000206100002074000020E900002074
:101A4000E80000207A0000206600002067000020E7
:101A5000680000206900002008B50121512005F030
:101A60006BFE0420ADF8000010208DF80300032069
:101A70008DF802006946F94805F0A8FB0421F748F3
:101A800005F04FFC4FF48040ADF8000010208DF8B9
:101A9000030003208DF802006946F14805F096FB2B
:101AA0004FF48041EE4805F03CFC08BD014600299A
:101AB00001DD08467047002901DA4842FAE7084686
:101AC000F8E72DE9F04F85B08246DFF898B3E64895
:101AD0000068E54989680844E34949680844E249DF
:101AE000C9684418E11704EB9171881007F013FBE3
:101AF0000290DD4800684042DB4989680844DA49C1
:101B000049680844D849C968441AE11704EB91713F
:101B1000881007F000FB0390D34909684942D24A74
:101B200092681144D04A5268891ACF4AD2688818FC
:101B300007F0FFFA06460F46584607F050FB002212
:101B4000CA4BCDE9000107F005FA804632463B4614
:101B500007F000FA044607F07DFBC54904900860D1
:101B600002A807C88AE8070005B0BDE8F08FFFB5F6
:101B700085B00446BF4D2846089907F0CEF80646C2
:101B8000DDE9060107F0C3F80746314607F0BFF864
:101B900001902846089907F0C0F80646DDE90601DD
:101BA00007F063F80746314607F05FF802902846D1
:101BB000089907F0B2F80646DDE9060107F055F886
:101BC0000746314607F0A3F803902846089907F026
:101BD000A4F80646DDE9060107F099F80746314604
:101BE00007F043F8049001A80FC884E80F0009B07B
:101BF000F0BD2DE9FF470C9C9A4DDDE9000107F08F
:101C000034F88046029907F030F80746039907F048
:101C10002CF806464FF0814107F0B5F82060009897
:101C200080F000494846019907F01FF88046029964
:101C300007F01BF80746039907F069F806464FF0CE
:101C4000814107F0A0F86060009880F0004A50469B
:101C5000019907F00AF88146029907F058F8804682
:101C6000039907F002F80746294607F056F806469A
:101C70004FF0814107F087F8A060BDE8FF872DE9AC
:101C8000FC4104460D4616461F467BA103C9CDE91B
:101C90000001F8B28DF80300F0B28DF80400E8B24C
:101CA0008DF805009DF802009DF8031008449DF88A
:101CB000041008449DF805100844C0B28DF80600D1
:101CC0000023224608216846FFF725FABDE8FC817B
:101CD0007CB50446002040EA044040F440750020F2
:101CE000009000232A4604216846FFF714FA0020DA
:101CF00040EA044000F203350220009000232A4607
:101D000004216846FFF707FA002040EA044040F447
:101D100040750120009000232A4604216846FFF701
:101D2000FAF97CBD7CB50446002040EA044040F44A
:101D300040750020009000232A4604216846FFF7E2
:101D4000EAF9002040EA044000F203350420009044
:101D500000232A4604216846FFF7DDF9002040EA07
:101D6000044040F440750120009000232A460421DD
:101D70006846FFF7D0F97CBD10B50120FFF7A8FF3A
:101D80000220FFF7A5FF0320FFF7A2FF0420FFF7C3
:101D90009FFF10BD10B50120FFF7C4FF0A20FEF71A
:101DA0001BFE0220FFF7BEFF0A20FEF715FE0320F0
:101DB000FFF7B8FF0A20FEF70FFE0420FFF7B2FF7F
:101DC00010BDF8B504460D46002040EA044000F27C
:101DD000053600950023324604216846FFF79BF93B
:101DE000F8BD2DE9FC41064614461D464FF00000A3
:101DF00040EA064040F44177CDE900454FF000034A
:101E00003A464FF008016846FFF785F9BDE8FC81C6
:101E100038B504464FF0807040EA044000F20C45AB
:101E20000020009002232A4604216846FFF773F938
:101E300038BD1FB504464FF0807040EA044000F200
:101E40000940009004208DF80C0001208DF80E0050
:101E50008DF80F006846FEF79EFF1FBD0018014079
:101E60000010014090C4DF3A240900200000D03F58
:101E7000F40000200070124455AA0300000000FF87
:101E800010B50446394A00230120FFF7AAFF374A5C
:101E90005242D3140220FFF7A4FF344A0023032048
:101EA000FFF79FFF314A5242D3140420FFF799FFF6
:101EB00010BD704710B500210120FFF782FF0021FF
:101EC0000220FFF77EFF00210320FFF77AFF0021A9
:101ED0000420FFF776FF10BD2DE9FF47009807F0BB
:101EE0007EF90746224A234B07F034F8054607F0EF
:101EF00057F9044621460120FFF763FF019880F05F
:101F00000049484607F06BF90746194A194B07F094
:101F100021F8054607F044F9044621460220FFF760
:101F200050FF029807F05BF90746114A114B07F082
:101F300011F8054607F034F9044621460320FFF75F
:101F400040FF039880F00049484607F048F90746EB
:101F5000074A084B06F0FEFF054607F021F9044644
:101F600021460420FFF72DFFBDE8FF87801A0600F9
:101F70009EEFA7C64B97834008B50121402005F08E
:101F8000DBFB0320ADF8000010208DF803000320D8
:101F90008DF8020069460B4805F018F9032109483D
:101FA00005F0BFF908BD10B50121064805F0ACF9F0
:101FB000C0F10100C4B222460121024805F0B5F982
:101FC00010BD00000018014038B504460020FE494D
:101FD0000870FE490870FE490870FE490870142018
:101FE000FD490860204600F064FB6B462022114644
:101FF000FA48FEF76FF9FA49086038BD10B5F6489F
:102000000068142800D110BD002240F22661F54876
:1020100006F0E3FBF448EF49097810F8310010B3FB
:10202000EC480078EA49097888421CD0EE48E94932
:10203000097810F83100401EEB49E64A127801F8A1
:1020400032000846E34A127800EBC2004068E74AD3
:102050001278815CE34806F021FCE4480078401CDB
:10206000E24908705BE0DB480078D949097888428A
:102070004CD0DD48D74A127800EBC2004168D848FE
:102080000068FEF77CF9D3480078401CC0B2D14903
:102090000870142801DB00200870CF480068401C3D
:1020A000CD490860142801D3142008600020CF49CE
:1020B0000870C8480078C649097888421CD0CA48C8
:1020C000C449097810F83100401EC1B2C648C14A5F
:1020D000127800F83210BF4A127800EBC200406854
:1020E000C24A1278815CBF4806F0D8FBBF4800782E
:1020F000401CBE49087012E00020BD490870142041
:10210000B54908600020B949087008E00020B849C6
:1021100008701420B04908600020B44908700122FA
:1021200040F22661AF4806F058FB00BF6BE710B5E0
:10213000AC4806F0B7FBC1B2A34802780078401C57
:10214000A14B1870AB488154184600789F49097814
:10215000884204D19D480078401C9C49087010BDFD
:10216000F8B505460C4626460CB90120F8BD0022FC
:1021700040F226619B4806F030FB1C2094FBF0F1F6
:1021800000FB114028B11C2094FBF0F0401CC4B2AD
:1021900003E01C2094FBF0F0C4B28F480068A0421A
:1021A00007D2012240F226618E4806F016FBFF207E
:1021B000DCE769468A480068FEF7CBF88A49844A1A
:1021C000127801EBC201486081480078142802DBD4
:1021D00000207F49087000242FE0287882497C4A3B
:1021E000127801EBC20149680855601CC4B21C2C6E
:1021F00020DB1C217C48764A127800F832107448A3
:102200000078401CC0B272490870142801DB00201D
:102210000870694672480068FEF79BF872496C4A7C
:10222000127801EBC20148606B480068401E6A49A1
:10223000086000246D1C701EC6B2002ECDD19CB16A
:1022400069486349097800F8314063480068401ED6
:10225000614908605E480078401CC0B25C49087063
:10226000142801DB002008706148007820B9FFF7CE
:10227000C5FE01205E490870012240F226615948DE
:1022800006F0ABFA002071E770B50546002400E0C7
:10229000641C285D0028FBD1E1B22846FFF760FFEF
:1022A00070BD30B5014600240A46524DAB5C551C4A
:1022B000EAB2504DAD5C43EA0524204630BD2DE91D
:1022C000FC414C484C490978455CA12D0ED006DCF8
:1022D0001A2D39D01B2D75D01C2D1DD129E1A22D11
:1022E00026D0A32D2ED0A42DF7D12CE04149424871
:1022F0000078401C0C5C414804703F480078801C0A
:102300000C5C204600F0B1FF3D4908603D493C4867
:10231000006806F0C5FF00D813E13B4800683B4960
:10232000086001203A49087000203A49086008E135
:10233000FFF7C0FD00203649087036490860304973
:102340000860FEE0FDE0FCE033A236A1684607F03D
:102350007FF907216846FFF703FF2B48006806F066
:102360003EFF064632460B462FA1684607F070F93D
:1023700007216846FFF7F4FE2CA22AA1684607F061
:1023800067F907216846FFF7EBFE2B48006806F067
:1023900026FF064632460B4623A1684607F058F949
:1023A00007216846FFF7DCFE24A21EA1684607F05D
:1023B0004FF907216846FFF7D3FE2348006806F06F
:1023C0000EFF43E0A7E000001C0100201D010020DB
:1023D000160100201701002018010020841700209A
:1023E0002401002000440040E415002015010020D5
:1023F00000010020841600201E010020B0010020F2
:10240000100100200000C84398020020B401002001
:10241000140100200C0300202020796177203D204A
:102420000000000025730000256600002020706970
:10243000746368203D200000940200202020726F09
:102440006C6C203D200000009002002006463246C1
:102450000B46AFF22C01684607F0FAF807216846F0
:10246000FFF77EFE77A2AFF24401684607F0F0F86E
:1024700007216846FFF774FE7448006806F0AFFE57
:10248000064632460B46AFF26001684607F0E0F8B8
:1024900007216846FFF764FE6DA2AFF27801684637
:1024A00007F0D6F807216846FFF75AFE6A48006829
:1024B00006F095FE064632460B46AFF2940168469A
:1024C00007F0C6F807216846FFF74AFE63A2AFF29D
:1024D000AC01684607F0BCF807216846FFF740FEEC
:1024E0006048006806F07BFE064632460B46AFF2B7
:1024F000C801684607F0ACF807216846FFF730FED0
:1025000059A2AFF2E001684607F0A2F8022168463E
:10251000FFF726FE15E0012054490870544955483C
:102520000078401C0C5C204600F09FFE5249086079
:1025300007E0FFF7BFFC00204C4908704E490860D7
:1025400000BF00BFBDE8FC8130B54FF0FF3064E054
:102550004A4C2478002C37D10021494C2478641F40
:10256000E2B2434CA45C552C01D14C1CE1B2444C6A
:102570002478241FE2B23E4CA45CAA2C01D14C1C4E
:10258000E1B23F4C2478E41EE2B2394CA45C1E2C2C
:1025900001D14C1CE1B203293AD10124374D2C70F2
:1025A000374C2478641EE2B2314CA45C354D2C705B
:1025B000334C24782F4D2C70314C2478314D2D78AC
:1025C0002C44314D2C7023E02D4C24782E4D2D7849
:1025D000AC421DD10024294D2C70264C23780021BB
:1025E000002207E0224CE45C0C44E1B25C1CE3B244
:1025F000541CE2B2234C2478A242F3DBCC43E1B278
:102600001B4CE45C8C4203D1194C1A4D2D78605D53
:102610001B4C2478641C1A4D2C70194C24781B4DCB
:102620002D78AC4294D130BD10B5154800781749CB
:102630000978884205D0FFF787FF401C01D0FFF7DB
:102640003EFE10BD2020657A203D2000D8020020EB
:1026500020206579203D2000D402002020206578CC
:10266000203D2000D00200200D0A00006C01002057
:10267000841600201E0100201001002020010020EF
:102680001D010020210100201F0100201C0100204D
:1026900008B526208DF8000000208DF801000620E6
:1026A0008DF8020001208DF80300684603F0C9FB95
:1026B00008BD10B586B004460121042005F03CF8A1
:1026C0000121480405F045F84FF4E06003F0B4FB45
:1026D00026208DF8000000208DF8010006208DF8DE
:1026E000020001208DF80300684603F0AAFB0420D5
:1026F000ADF8140018208DF8170003208DF816008F
:1027000005A9294804F062FD0820ADF81400042052
:102710008DF8170005A9244804F058FD0194002005
:10272000ADF80800ADF80A00ADF80C00ADF81000E7
:102730000C20ADF80E0001A91C4805F0B6FF0122DF
:1027400040F22551194806F048F8012240F226616E
:10275000164806F042F80121144806F032F806B097
:1027600010BD10B52021114806F006F9012808D146
:1027700020210E4806F00DF90D48007808B1FFF74A
:10278000D6FC4021094806F0F7F8012808D140217D
:10279000064806F0FEF80648007808B1FFF72EFC60
:1027A00001200349087010BD0008014000440040AA
:1027B0002801002008B501217D2004F0BDFFF02094
:1027C000ADF8000048208DF8030003208DF80200CA
:1027D0006946994804F0FAFC4FF20300ADF8000096
:1027E00048208DF8030003208DF8020069469348C5
:1027F00004F0ECFC4FF47C70ADF8000048208DF83C
:10280000030003208DF8020069468D4804F0DEFCC9
:102810004FF47F40ADF8000048208DF803000320FE
:102820008DF802006946874804F0D0FC4FF4FF4061
:10283000ADF8000048208DF8030003208DF8020059
:102840006946814804F0C2FC002080490870804835
:1028500080490860804888607D48C8607E497D481E
:1028600041617E487B4988617D497A4801627848A8
:102870007849486278497748C16200207949086000
:102880007949086008BD2DE9FF4782B01C46DDE9A3
:102890000E78002000900190744801687448006828
:1028A00006F0F4FC04D000206F490860714908600C
:1028B0006F4801687048006806F029FA69490860A5
:1028C0000398096806F029FA05466A48016828460F
:1028D00006F0CBF967490860634801686148006801
:1028E00006F015FA81464946049806F016FA06469F
:1028F0005C490298096806F010FA82465D48016852
:10290000504606F0B2F90546314606F0AEF9A06031
:10291000A06806F064FC05464FF03332574B06F0D2
:1029200085FC02D85648A0600BE0A06806F057FC72
:1029300005464FF03332534B06F064FC01D8524841
:10294000A06048480068484908604948006847490D
:10295000086006B0BDE8F0872DE9F04188B0074671
:102960000E461446002539480078A0B100BF0DE09E
:1029700005EB4500374901EB800005EB4501434A73
:1029800002EB81030ECB0EC0681CC5B2042DEFDB39
:1029900000202E490870012E06D0022E0CD0032EE6
:1029A00015D0042E29D11BE02A4A07CA05AB07C35C
:1029B00002940020039021E0264A0C3207CA05AB9E
:1029C00007C384F0004002900020039016E0214AE3
:1029D000183207CA05AB07C30020029003940DE02C
:1029E0001C4AD2E90910D26ACDE9060205910020FD
:1029F000029084F00040039000E000BF00BF20463A
:102A000006F0B5FBB0F1000801DB404601E0C8F17B
:102A1000000038B102ABCDE9006405A807C8FFF794
:102A200032FF01E00020049002A807C887E80700F1
:102A300008B0BDE8F081000000080140000C014032
:102A4000001001400014014000180140380100202E
:102A50008FC2753DD81B00208FC2F53C8FC275BD5B
:102A60008FC2F5BC3C010020400100203401002051
:102A7000B401002030010020980200203333E33FEE
:102A80009A99193F3333E3BF9A9919BFA81B0020C5
:102A9000014601EB41005E4A52F8200008B90820C7
:102AA0007047002001EB4102594B43F8220001EB33
:102AB000410203EB8202908001EB410203EB8202B0
:102AC000D08001EB410203EB8202107200BFE7E706
:102AD00010B5FDF799FF002404E02046FFF7D8FF6A
:102AE000601CC4B2102CF8DB10BD10B5FDF7C2FF9E
:102AF00010BD70B503460C46002101E0481CC1B270
:102B000001EB4100424D55F8200008B11029F5DBDA
:102B1000102901D1082070BD01EB41003C4D45F862
:102B2000203001EB410005EB8000848001EB410087
:102B300005EB8000C280002001EB4105344E06EB1E
:102B4000850528720846E6E7704710B5002420E0A6
:102B500004EB44002E4901EB8000007A002816DDCA
:102B600004EB44012A4A52F821008047002004EB7C
:102B70004401274A02EB8101087204EB440011462C
:102B800001EB8000C08810B92046FFF781FF601C70
:102B9000C4B2102CDCDBFFF7D7FF10BD002033E000
:102BA00000EB40011A4A52F8211059B300EB4001E2
:102BB00002EB81018988C1B9012100EB4002144B6D
:102BC00003EB8202117200EB40011A4602EB810115
:102BD000C988B9B100EB400102EB8101C98800EB63
:102BE000400203EB820291800CE000EB4001084AB6
:102BF00002EB81018988491E00EB4002044B03EB84
:102C000082029180411CC8B21028C9DB70470000C5
:102C1000081C002001205D4908705D485D4908607E
:102C200004205D49086000205C49486000215B4841
:102C30008160C1600120594908740020704710B5B7
:102C40008CB00446201D07C809AB07C301A809A919
:102C50000EC9FEF78CFF02A80DC80199CDE9072324
:102C6000CDE9051005A80FC8FFF736F90CB010BD67
:102C700010B5002445480078C0B100BF08E04548C1
:102C8000006850F82400007C00B105E0601CC4B26C
:102C9000414800688442F2DB00BF3D4850F8240000
:102CA0003F49086008460068FFF7C9FF10BD0EB530
:102CB0003C48007868B105203B4908703B480068F3
:102CC0004860002138488160C1600120364908749D
:102CD00018E03748007890B1052033490870334830
:102CE0000268344801786846FFF736FE2E489DE8B2
:102CF0000E00001D0EC001202B49087402E00020C8
:102D0000294908740EBD30B502460B460024002147
:102D100004E0555C2544ECB24D1CE9B20829F8DB0F
:102D20009C4201DB012000E0002030BD30B50346AD
:102D30000C460020214605E05D5C012D00D10120FC
:102D40004D1CE9B29142F7DD30BD0EB51A4800784E
:102D500090B1052019490870194802681548017892
:102D60006846FFF7F9FD15489DE80E00001D0EC0EE
:102D700001201249087402E00020104908740EBDB9
:102D800010B5FFF794FFFFF773FF10BD800100201F
:102D900058010020780100207C010020101D002037
:102DA000680100206C010020D41C002010010020CC
:102DB00014010020B00100208C010020FC1C002028
:102DC0009001002038B504460020FE490870FE49F5
:102DD0000870FE490870FE4908701420FD4908601B
:102DE000204600F0E0FC6B4620221146FA48FDF731
:102DF00071FAFA49086038BD10B5F6480068142821
:102E000000D110BD002240F22661F54805F0E5FC36
:102E1000F448EF49097810F8310010B3EC48007815
:102E2000EA49097888421CD0EE48E949097810F847
:102E30003100401EEB49E64A127801F8320008469C
:102E4000E34A127800EBC2004068E74A1278815CDE
:102E5000E34805F023FDE4480078401CE24908708F
:102E60005BE0DB480078D949097888424CD0DD48DE
:102E7000D74A127800EBC2004168D8480068FDF7D5
:102E80007EFAD3480078401CC0B2D149087014289B
:102E900001DB00200870CF480068401CCD49086065
:102EA000142801D3142008600020CF490870C848B6
:102EB0000078C649097888421CD0CA48C4490978B4
:102EC00010F83100401EC1B2C648C14A127800F85D
:102ED0003210BF4A127800EBC2004068C24A127832
:102EE000815CBF4805F0DAFCBF480078401CBE4951
:102EF000087012E00020BD4908701420B549086030
:102F00000020B949087008E00020B8490870142072
:102F1000B04908600020B4490870012240F22661DF
:102F2000AF4805F05AFC00BF6BE710B5AC4805F0A0
:102F3000B9FCC1B2A34802780078401CA14B1870BC
:102F4000AB488154184600789F490978884204D1DB
:102F50009D480078401C9C49087010BDF8B5054696
:102F60000C4626460CB90120F8BD002240F226612D
:102F70009B4805F032FC1C2094FBF0F100FB114053
:102F800028B11C2094FBF0F0401CC4B203E01C20CC
:102F900094FBF0F0C4B28F480068A04207D201222F
:102FA00040F226618E4805F018FCFF20DCE76946F8
:102FB0008A480068FDF7CDF98A49844A127801EB06
:102FC000C201486081480078142802DB00207F4954
:102FD000087000242FE0287882497C4A127801EB9F
:102FE000C20149680855601CC4B21C2C20DB1C219E
:102FF0007C48764A127800F8321074480078401CF9
:10300000C0B272490870142801DB002008706946BC
:1030100072480068FDF79DF972496C4A127801EB1D
:10302000C20148606B480068401E6A49086000247D
:103030006D1C701EC6B2002ECDD19CB1694863498B
:10304000097800F8314063480068401E6149086013
:103050005E480078401CC0B25C490870142801DB4F
:10306000002008706148007820B9FFF7C5FE0120F4
:103070005E490870012240F22661594805F0ADFB17
:10308000002071E770B50546002400E0641C285D4F
:103090000028FBD1E1B22846FFF760FF70BD30B5D4
:1030A0004FF0FF3062E0534C2478002C37D10022DF
:1030B000454C2478241FE1B24D4C645C552C01D161
:1030C000541CE2B2404C2478E41EE1B2484C645CEB
:1030D000AA2C01D1541CE2B23B4C2478A41EE1B2CC
:1030E000434C645C152C01D1541CE2B2032A38D144
:1030F0000124404D2C70344C2478641EE1B23C4CC9
:10310000645C3D4D2C70304C24783C4D2C702E4C22
:103110002478394D2D782C44394D2C7021E02A4CDF
:103120002478374D2D78AC421BD10024314D2C70C2
:10313000324C23780022002107E02D4CE45C14443B
:10314000E2B25C1CE3B24C1CE1B22B4C2478A142ED
:10315000F3DB274CE45C944203D1254C274D2D78BA
:10316000605D194C2478641C174D2C70164C247823
:10317000144D2D78AC4296D130BD2DE9F043054673
:103180000E46079C002700204FF055098046401C42
:1031900004F808904FF0AA098046401C04F80890F3
:1031A0004FF015098046401C04F8089003F1020C0A
:1031B0008046401C04F808C08046401C04F80850B3
:1031C00080461FE0A4010020A50100209B010020F3
:1031D0009C010020A0010020D01E0020AC01002096
:1031E00000480040301D00209A010020840100208A
:1031F000D01D0020A8010020A9010020A601002068
:10320000A7010020401C04F808605BB905EB060C20
:103210000CF0FF07844600F1010808F0FF0004F8F5
:103220000C7020E005EB060C0CF0FF07002111E00C
:1032300012F80190844600F1010808F0FF0004F83C
:103240000C9012F801C0BC440CF0FF0701F1010C16
:103250000CF0FF019942EBDB844600F1010808F015
:10326000FF0004F80C70BDE8F0832DE9F84F8246AA
:10327000504605F059FF009005F0B1FF804600224E
:10328000F84B05F0D9FE06460022F74B05F062FE2A
:10329000044605F0DFFF83465846BDE8F88F10B5B9
:1032A000014600200A46F14CA35C541CE2B2EF4CEC
:1032B000A45C43EA042010BD2DE9F04FC7B04FF4E1
:1032C000807107A805F0B9FC0020069003900490D7
:1032D0000590E7490870E548E649097810F801903B
:1032E000B9F1040F7ED009DCB9F1010F0DD0B9F1AD
:1032F000020F78D0B9F1030F76D1A9E1B9F1050F2A
:1033000073D0B9F1FF0FF7D1EBE1D849D948007874
:10331000401C0C5C132C02D0142C67D1BFE0D349A5
:10332000D4480078801C0E5C304605F013FF8246BE
:103330000022D14B05F080FE074605F08BFFCF49F8
:103340000860CA49CB480078C01C0E5C304605F0C6
:1033500001FF07460022C84B05F06EFE824605F0CD
:1033600079FFC6498860C149C2480078001D0E5CDB
:10337000304605F0EFFE82460022BF4B05F05CFEB2
:10338000074605F067FFBD49C860B849B9480078ED
:10339000401D0E5C304605F0DDFE07460022B64BB0
:1033A00005F04AFE824605F055FFB4494861AF4931
:1033B000B0480078801D0E5C704205F0BAFE0746EA
:1033C0000022AD4B05F038FE824605F043FFAB49C5
:1033D0008861A649A7480078C01D0E5C704205F0C0
:1033E000A8FE04E07CE1A4E08EE1DAE09EE007467E
:1033F0000022A14B05F020FE824605F02BFF9F49DD
:1034000008629A499B48007808300E5C304605F007
:10341000A1FE82460022984B05F00EFE074605F0FD
:1034200019FF9649486291499248007809300E5C2C
:10343000304605F08FFE074600228F4B05F0FCFD5D
:10344000824605F007FF8D49C86200250BE08948D8
:103450000078801C28448549095C05F10800884AE9
:103460001154681CC5B2082DF1DB854A102185482E
:1034700000F039FA07A800907C487E490978084492
:10348000821C082321464846FFF777FE069007A8CE
:103490000699FFF763FD01207B49087047E07549F5
:1034A0000978891CC8B2FFF7FAFE784908607149AB
:1034B0000978091DC8B2FFF7F2FE754908606D4929
:1034C0000978891DC8B2FFF7EAFE724908606949A8
:1034D00009780831C8B2FFF7E2FE6F49086000259D
:1034E00009E064480078801C28446049085C64490D
:1034F0004855681CC5B2082DF3DB614A10216148AC
:1035000000F0F1F96548047007A800905748594940
:1035100009780844821C082321464846FFF72DFEFF
:10352000069007A80699FFF719FD00E000BF00BF4D
:10353000EBE04E494F480078401C0C5C082C2DD223
:10354000DFE804F02C040506072C081627E026E027
:1035500025E024E007A800231A46214600904846AB
:10356000FFF70BFE069007A80699FFF7F7FC16E099
:103570004B4800681421B0FBF1F0C0B28DF8080090
:1035800007A8012302AA214600904846FFF7F5FD4F
:10359000069007A80699FFF7E1FC00E000BF00BF16
:1035A000B3E0324933480078401C0C5C022C02D056
:1035B000042C4AD132E02D492E480078801C0E5C44
:1035C000384806702B480078C01C0E5C3046FFF768
:1035D0004CFE3549086035493348006805F060FE07
:1035E00000D833E03248006832490860012032498F
:1035F000087000202A49086007A800901B481D4950
:1036000009780844821C042321464846FFF7B5FD8B
:10361000069007A80699FFF7A1FC17E0FEF74AFC01
:103620000020254908701E4908601F49086007A846
:1036300000231A46214600904846FFF79EFD06905B
:1036400007A80699FFF78AFC00E000BF00BF5CE016
:10365000064908480078401C0C5C012C2ED0022C36
:103660003BD133E000E06F4000008940D01D0020D6
:103670008B010020A601002000408F40A81B0020E5
:10368000D022002010F0010838010020480100205D
:103690004C0100205001002054010020BA010020FC
:1036A0000C030020B0010020900100200000C8435E
:1036B00098020020B40100208C0100202B480078E3
:1036C000062802DC01202A49087007E0002028496A
:1036D000087003900490059000E000BF00BF14E064
:1036E00013E0012C02D0022C0BD103E00120204971
:1036F000087007E000201E490870039004900590B0
:1037000000E000BF00BF00E000BF00BF47B0BDE861
:10371000F08F10B51748007817490978884205D00E
:10372000FFF7BDFC401C01D0FFF7C6FD10BD0146F0
:10373000012903DB642901DA104806E0642903DB70
:10374000FF2901DC0E4800E00020704710B502465A
:103750000B460020002105E0545C8C400443E0B29D
:103760004C1CE1B29942F7DB10BD0000BA01002009
:103770008B010020A5010020A40100209CC4A03ED4
:103780009CC4A0BE08B527208DF8000000208DF84D
:10379000010006208DF8020001208DF80300684624
:1037A00002F04FFB08BD10B586B004460121082089
:1037B00003F0C2FF0121880403F0CBFF4FF4E06067
:1037C00002F03AFB27208DF8000000208DF8010060
:1037D00006208DF8020001208DF80300684602F0F3
:1037E00030FB4FF48060ADF8140018208DF81700FE
:1037F00003208DF8160005A92B4803F0E7FC4FF4D1
:103800000060ADF8140004208DF8170005A92648C3
:1038100003F0DCFC01940020ADF80800ADF80A00CC
:10382000ADF80C00ADF810000C20ADF80E0001A9A9
:103830001E4804F03AFF012240F225511B4804F0D3
:10384000CCFF012240F22661184804F0C6FF012196
:10385000164804F0B6FF06B010BD10B5202113487D
:1038600005F08AF8012805D12021104805F091F8CB
:10387000FFF75BFB40210D4805F07EF8012805D1DC
:1038800040210A4805F085F8FFF7B6FA08210748F5
:1038900005F072F8012806D10821044805F079F8EE
:1038A000024804F0FFFF10BD000C0140004800403A
:1038B00070B504460D462668701C08D103F067F900
:1038C0002946204603F078FA03F06DF90AE003F088
:1038D0005EF9204603F0A0F92946204603F06CFA71
:1038E00003F061F970BD2DE9F04105460E4617461B
:1038F000002429E055F80480385D9C490870381987
:103900004078487018F101000AD103F040F9974A55
:10391000128891B2281903F082FA03F044F90CE0FE
:1039200003F035F9281903F077F9904A128891B21B
:10393000281903F074FA03F036F9012E00D105E0DE
:10394000A01C84B2B01E86B2002ED3D100BFBDE849
:10395000F08130B50346002013E01C5A834D2C60E3
:10396000012903D12C46247814540CE07F4C247890
:1039700014547E4C647815186C70841CA0B28C1E94
:10398000A1B20029E9D100BF30BD2DE9F74183B0D4
:103990000D4616460027002400200190A84604206A
:1039A000029003F0F4F806F2FF30800A019035200F
:1039B00003F088FB00BF08E04FF48062039902FB2C
:1039C000071003F029F902907F1C0198874203D267
:1039D0009DF808000428EFD0039C05E002CD2046A6
:1039E00003F0EAF90290241D03983044A04203D961
:1039F0009DF808000428F1D0039C09E058F8041B46
:103A00002068814203D0002006B0BDE8F081241D6B
:103A100003983044A042F1D803F0C5F80120F3E741
:103A200037B5044615462A462046019905F0ECF8BC
:103A300001203EBD2DE9F0414D4A10214D48FFF7D0
:103A400088FF4B4800784A49497840EA01204A49B2
:103A50000860474880784649C97840EA01204749CC
:103A60000860434800794249497940EA01204449C5
:103A700008603F4880793E49C97940EA01204149C0
:103A800008603B49087A05F065FB064600223E4B7C
:103A900005F0D2FA044605F0DDFB3C4908603449E4
:103AA000487A05F057FB06460022374B05F0C4FA6A
:103AB000044605F0CFFB354988602D49887A05F02A
:103AC00049FB06460022304B05F0B6FA044605F0E5
:103AD000C1FB2E49C8602649C87A05F03BFB064663
:103AE0000022294B05F0A8FA044605F0B3FB27494C
:103AF00048611F49097B484205F01BFB064600222E
:103B0000214B05F099FA044605F0A4FB1F49886192
:103B10001749497B484205F00CFB064600221A4B28
:103B200005F08AFA044605F095FB18490862104929
:103B3000887B05F00FFB06460022134B05F07CFA4C
:103B4000044605F087FB114948620949C87B05F026
:103B500001FB064600220C4B05F06EFA044605F008
:103B600079FB0A49C862BDE8F0810000BC01002071
:103B7000D022002010F00108480100204C01002054
:103B8000500100205401002000408F40D81B00202D
:103B90002DE9F04704464FF07C51204605F0BDF872
:103BA000814625462E46FE48A0EB66063546294648
:103BB000484605F0B2F88246294605F0AEF8804640
:103BC0004FF07F5105F0A6F80746294605F0A5F805
:103BD00005462846BDE8F08730B5002100230022C5
:103BE0004C1E72E0EF48007878BB0022EE48017866
:103BF000EE48405C552801D1501CC2B2EA4800781A
:103C0000401CC1B2E948405C51280BD0E748405CF9
:103C1000522807D0E548405C542803D0E348405C74
:103C2000532801D1501CC2B2022A49D10120DD4DD6
:103C30002870DD480078DE4D2870DB480078DD4DC7
:103C40002D782844DC4D28703AE0FFE7D64800780C
:103C5000D94D2D78A84233D10020D24D2870D448B8
:103C600003780022002107E0D048C05C1044C2B2B3
:103C7000581CC3B2481CC1B2CE4800788142F3DB65
:103C8000CA48CD4D2D78405D904219D1C74DC848E6
:103C90000078401C285C44B20022002109E0C4489E
:103CA00000780844C3B2C148C05CC44D6854481C85
:103CB000C1B2C0480078401C8142F0DBE0B230BDA8
:103CC000B9480078401CB84D2870B7480078BC4D02
:103CD0002D78A84286D100BFF1E72DE9F04F87B0DB
:103CE0008246BAF1510F7DD0BAF1520F03D0BAF12A
:103CF000540F78D137E1B148C078000200B2B14921
:103D00000880AE4880780988084400B2AD49088030
:103D1000AA484079000200B2AB490880A748007960
:103D20000988084400B2A8490880A448C079000264
:103D300000B2A6490880A14880790988084400B2E9
:103D4000A24908809F48B0F9000005F0E4F9A049B5
:103D5000019004F0E2FF834605F041FA804600221C
:103D60009C4B05F069F9064600229B4B05F0F2F8E2
:103D700000229A4BCDE9020105F05EF9984A994B71
:103D8000CDE9040105F0E6F8044605F063FA96492A
:103D900008608D48B0F9000005F0BDF98C4901902C
:103DA00004F0BBFF834605F01AFA0022894BCDE9E7
:103DB000020105F041F906460022874B05F0CAF8DA
:103DC00004460022854B05F037F9854A854BCDE93D
:103DD000040105F0BFF8804605F03CFA834908600D
:103DE0007A4801E054E044E1B0F9000005F093F9AD
:103DF0007F49019004F091FF834605F0F0F900221D
:103E0000744BCDE9020105F017F980460022724B90
:103E100005F0A0F806460022704B05F00DF90446A7
:103E20006F4A704B05F096F8CDE9040105F012FADF
:103E3000704908606C48006805F0D1F921F0004134
:103E400004466D4A6D4B05F0DDF902D2002066494B
:103E500008606648006805F0C2F921F00041044698
:103E6000654A664B05F0CEF902D200205F49086032
:103E70006048006805F0B3F921F0004104465E4A4D
:103E80005E4B05F0BFF902D200205A490860F1E00C
:103E90004A48C078000200B25949088047488078F3
:103EA0000988084400B25649088044484079000215
:103EB00000B254490880414800790988084400B29A
:103EC000504908803D48C079000200B24E49088040
:103ED0003A4880790988084400B24B49088048482C
:103EE000B0F9000005F017F94849059004F015FFF6
:103EF000834605F074F906460022364B05F09CF81F
:103F000004460022424B05F025F8804605F0A2F950
:103F1000404908603B48B0F9000005F00AF9064640
:103F200000222C4B05F088F804460022384B05F09F
:103F300011F8804605F08EF9374908603248B0F92B
:103F4000000005F0F6F880460022224B05F074F8D8
:103F5000064600222E4B04F0FDFF044605F07AF9D8
:103F60002E49086086E01548C078000200B22C494E
:103F70000880124880780988084400B228490880DF
:103F80000E484079000200B2264908800B480079AB
:103F90000988084400B2234908800848C07943E0F2
:103FA000DF59375FCC020020E9000020E410002038
:103FB000EA00002079000020EB000020E022002031
:103FC000E8000020C6010020C8010020CA0100202E
:103FD0000000A0410000E04000409F40008066409B
:103FE0004AD8124DFB2109401C020020200200206B
:103FF0000000C8C2240200209A9999999999C93F52
:10400000C0010020C2010020C4010020000080BFC8
:10401000000030401002002014020020180200208E
:10402000CC010020CE010020000200B2FC49088033
:10403000FC4880790988084400B2F9490880FA48A8
:10404000B0F9000005F067F80446F84904F065FE91
:10405000F7490860F748B0F9000005F05CF8F64948
:104060000860EF48B0F9000005F055F8F349086022
:1040700000E000BF00BF07B0BDE8F08F01B59AB007
:10408000002019901890179016901A9815900020FB
:1040900014901598512808D01598522805D01598D5
:1040A000532802D0159854287ED1E548007800287E
:1040B0007BD11598FFF711FE159851281FD0522873
:1040C00002D0542851D135E0DE480068DE49DF4A8D
:1040D000127841F82200DE480068DE49DB4A127897
:1040E00041F82200DC480068DC49D84A127841F8DF
:1040F0002200D6480078401CD449087045E0D848D2
:104100000168D848D84A127840F82210D748016888
:10411000D748D54A127840F82210D6480068D649C8
:10412000D14A127841F82200CF480078401CCE498D
:1041300008702AE0BE480068D049D14A127841F898
:104140002200BD480068CF49CD4A127841F82200CC
:10415000BA480068CC49CA4A127841F82200C848D7
:104160000078401CC64908700FE0B8480078401C31
:10417000B6490870BC480078401CBB490870C0486C
:104180000078401CBE49087000BF00BFAF480078EF
:1041900006280ADDB44800780628FADDB848007819
:1041A0000628F6DD002001E02CE2A8E119900DE0E0
:1041B000A549199851F8200001461390149804F06D
:1041C00054FD14901998401CC0B219909F49097869
:1041D00019988842ECDB9D48007804F0A5FF014661
:1041E0001390149804F0CFFDA849086000201490A3
:1041F00008460068A6490860002019900DE095491E
:10420000199851F8200001461390149804F02DFDE0
:1042100014901998401CC0B219908C4909781998CB
:104220008842ECDB8948007804F07EFF0146139059
:10423000149804F0A8FD95490860002014900846E1
:10424000006894490860002019900DE0834919988E
:1042500051F8200001461390149804F006FD1490C4
:104260001998401CC0B21990784909781998884269
:10427000ECDB7648007804F057FF01461390149861
:1042800004F081FD81490860002014900846006810
:1042900081490860002019900DE07249199851F881
:1042A000200001461390149804F0DFFC1490199834
:1042B000401CC0B219906C49097819988842ECDB0F
:1042C0006948007804F030FF01461390149804F018
:1042D0005AFD6E49086000201490084600686F4936
:1042E0000860002019900DE06149199851F82000EC
:1042F00001461390149804F0B8FC14901998401CCF
:10430000C0B219905849097819988842ECDB564890
:10431000007804F009FF01461390149804F033FD6F
:104320005A49086000201490084600685C490860FB
:10433000002019900DE05049199851F820000146CD
:104340001390149804F091FC14901998401CC0B27A
:1043500019904549097819988842ECDB4248007861
:1043600004F0E2FE01461390149804F00CFD474956
:10437000086000201490084600684A490860002040
:1043800019900DE03D49199851F82000014613900D
:10439000149804F06AFC14901998401CC0B219904B
:1043A0003749097819988842ECDB3548007804F0E1
:1043B000BBFE01461390149804F0E5FC33490860F5
:1043C00000201490084600683749086000201990C2
:1043D0000DE02C49199851F82000014613901498CB
:1043E00004F043FC14901998401CC0B21990244961
:1043F000097819988842ECDB2148007804F094FE93
:1044000001461390149804F0BEFC20490860002077
:10441000149008460068254908600020199055E06E
:10442000D0010020E0220020CC010020000080BF4D
:1044300028020020CE0100202C02002030020020A3
:10444000A40200201C020020EC220020F402002024
:10445000200200200C230020240200202C23002016
:10446000100200204C230020F5020020140200203E
:104470006C230020180200208C230020AC23002095
:10448000F6020020CC230020EC230020A002002014
:10449000A8020020AC020020B0020020B4020020DC
:1044A000B8020020BC020020C0020020C40200208C
:1044B000FE49199851F8200001461390149804F011
:1044C000D4FB14901998401CC0B21990F84909788F
:1044D00019988842ECDBF648007804F025FE014686
:1044E0001390149804F04FFCF249086000201490D7
:1044F00008460068F04908600120F0490870EF485C
:10450000007800287ED0EE480168006804F005FCC1
:104510001290EC480168006804F0FFFB1090EA4834
:104520000168006804F0F9FB0F90109904F09DFBFE
:104530001190129904F099FB1390FFF729FB189042
:10454000E1481899006804F0E8FBDF490860DD489D
:104550001899006804F0E1FBDA490860D848189916
:10456000006804F0DAFBD6490860D34801680068A7
:1045700004F0D3FB1290D5480168006804F0CDFB2D
:104580001090D3480168006804F0C7FB0F901099A1
:1045900004F06BFB1190129904F067FB1390FFF786
:1045A000F7FA1890CA481899006804F0B6FBC84991
:1045B0000860C6481899006804F0AFFBC34908605A
:1045C000BD481899006804F0A8FBBB490860BC48C6
:1045D000006804F004FECDE91001BA48006804F058
:1045E000FEFDCDE90E01DDE9102306F02BFACDE941
:1045F000120104F02FFEB7490860B348006804F0C8
:10460000EEFD00E08CE3CDE9100105F0CBFFCDE934
:10461000120104F01FFEB04908600846006804F06B
:10462000DEFDCDE9080106F0CDFACDE90C01A9487F
:10463000006804F0D4FDCDE9040106F019FBCDE9D2
:1046400008019D48006804F0CAFDCDE90601DDE9D6
:10465000082304F07FFCCDE90A01DDE90C2304F016
:1046600079FCCDE910019C48006804F0B8FDCDE963
:10467000040106F0FDFACDE908019648006804F04F
:10468000AEFDCDE9000106F0F3FACDE904018F4853
:10469000006804F0A4FDCDE90201DDE9042304F083
:1046A00059FCCDE90601DDE9082304F053FCCDE90E
:1046B0000C018848006804F092FDCDE9040106F081
:1046C00081FACDE908018248006804F088FDCDE94F
:1046D0000601DDE9082304F03DFCCDE90A01DDE92E
:1046E0000C2304F090FBCDE90E01DDE9102304F06A
:1046F0002BFCCDE9120104F0ADFD1790764800685F
:1047000004F06DFDCDE9080106F0B2FACDE90C0127
:104710006948006804F063FDCDE90A01DDE90C2376
:1047200004F018FCCDE910016B48006804F057FD57
:10473000CDE9080106F046FACDE90C0163480068AE
:1047400004F04DFDCDE90A01DDE90C2304F002FC83
:10475000CDE90E01DDE9102304F055FBCDE912018E
:1047600004F078FD16900021179804F08FFD03D215
:10477000179880F0004017900021169804F086FDED
:1047800003D2169880F00040169000214F48006830
:1047900004F086FD17D200214D48006804F076FD34
:1047A00011D2DDE9160104F0EEFA0F9004F017FDC6
:1047B000CDE9100106F034F8CDE9120104F04AFD0C
:1047C0004649086064E000214048006804F05EFD4E
:1047D0001DD200213E48006804F058FD17D2DDE9E3
:1047E000160104F0D0FA0D9004F0F9FCCDE90E01A9
:1047F00006F016F800223A4BCDE9100104F0AAFBAE
:10480000CDE9120104F026FD3449086040E00021A2
:104810002E48006804F044FD1DD200212C48006899
:1048200004F03EFD17D2DDE9160104F0ACFA0D905C
:1048300004F0D5FCCDE90E0105F0F2FF294A2A4B20
:10484000CDE9100104F083FBCDE9120104F002FD73
:10485000224908601CE0DDE9160104F094FA0B908F
:1048600004F0BDFCCDE90C0105F0DAFF1D4A1E4B3A
:10487000CDE90E0104F06BFB0022194BCDE91001CC
:1048800004F068FBCDE9120104F0E4FC1349086070
:104890001248006804F0A3FC0022144BCDE9060185
:1048A00004F058FBCDE9080122E00000EC230020D1
:1048B000F6020020A0020020C8020020A40200206E
:1048C000BC020020B8020020B4020020C402002074
:1048D000C0020020900200209402002098020020D4
:1048E0000000F0BF4AD8124DFB2109400000E03F14
:1048F00006F0BEF9CDE90C01FE48006804F06FFC3B
:104900000022FD4BCDE9020104F024FBCDE90401B6
:1049100006F0AEF9CDE90801F848006804F05FFC44
:104920000022F54BCDE9020104F014FBCDE90401AE
:1049300006F09EF9CDE90601DDE9082304F00AFB43
:10494000CDE90A01DDE90C2304F004FBCDE91001F7
:10495000EB48006804F043FC0022E74BCDE9060178
:1049600004F0F8FACDE9080106F02CF9CDE90C01C4
:10497000E048006804F033FC0022DF4BCDE902017F
:1049800004F0E8FACDE9040106F01CF9CDE90801CC
:10499000DA48006804F023FC0022D74BCDE902017D
:1049A00004F0D8FACDE9040106F00CF9CDE90601CE
:1049B000DDE9082304F0CEFACDE90A01DDE90C2394
:1049C00004F0C8FACDE90E01DDE9102304F01BFA6A
:1049D000CDE9120104F03EFCCA490860C8480068ED
:1049E00004F0FDFB0022C44BCDE9060104F0B2FA4D
:1049F000CDE9080106F03CF9CDE90C01BD4800689D
:104A000004F0EDFB0022BC4BCDE9020104F0A2FA58
:104A1000CDE9040106F02CF9CDE90801B74800689A
:104A200004F0DDFB0022B44BCDE9020104F092FA60
:104A3000CDE9040106F0C6F8CDE90601DDE9082359
:104A400004F088FACDE90A01DDE90C2304F082FACA
:104A5000CDE91001AA48006804F0C1FB0022A64B72
:104A6000CDE9060104F076FACDE9080106F0AAF8CE
:104A7000CDE90C019F48006804F0B1FB00229E4B79
:104A8000CDE9020104F066FACDE9040106F09AF8D6
:104A9000CDE908019948006804F0A1FB0022964B7B
:104AA000CDE9020104F056FACDE9040106F0E0F880
:104AB000CDE90601DDE9082304F04CFACDE90A014D
:104AC000DDE90C2304F046FACDE90E01DDE91023FF
:104AD00004F03AFACDE9120104F0BCFB8A490860FF
:104AE0008748006804F07BFB0022834BCDE9060178
:104AF00004F030FACDE9080106F0BAF8CDE90C016E
:104B00007C48006804F06BFB00227B4BCDE902017E
:104B100004F020FACDE9040106F054F8CDE90801CB
:104B20007648006804F05BFB0022734BCDE902017C
:104B300004F010FACDE9040106F09AF8CDE9060177
:104B4000DDE9082304F006FACDE90A01DDE90C23CA
:104B500004F000FACDE910016948006804F03FFB59
:104B60000022654BCDE9060104F0F4F9CDE9080116
:104B700006F028F8CDE90C015E48006804F02FFB30
:104B800000225D4BCDE9020104F0E4F9CDE9040116
:104B900006F06EF8CDE908015848006804F01FFBE4
:104BA0000022554BCDE9020104F0D4F9CDE904010E
:104BB00006F008F8CDE90601DDE9082304F0CAF99A
:104BC000CDE90A01DDE90C2304F0C4F9CDE90E01B9
:104BD000DDE9102304F017F9CDE9120104F03AFBE6
:104BE0004A4908604648006804F0F9FA0022424B3E
:104BF000CDE9060104F0AEF9CDE9080105F0E2FFC8
:104C0000CDE90C013B48006804F0E9FA00223A4B78
:104C1000CDE9020104F09EF9CDE9040106F028F87F
:104C2000CDE908013548006804F0D9FA0022324B7A
:104C3000CDE9020104F08EF9CDE9040106F018F87F
:104C4000CDE90601DDE9082304F084F9CDE90A0184
:104C5000DDE90C2304F07EF9CDE910012848006855
:104C600004F0BDFA0022244BCDE9060104F072F9EC
:104C7000CDE9080105F0FCFFCDE90C011D480068F5
:104C800004F0ADFA00221C4BCDE9020104F062F9F8
:104C9000CDE9040105F096FFCDE908011748006849
:104CA00004F09DFA0022144BCDE9020104F052F900
:104CB000CDE9040105F086FFCDE90601DDE9082311
:104CC00004F048F9CDE90A01DDE90C2304F042F9CA
:104CD000CDE90E01DDE9102304F036F9CDE912012A
:104CE00004F0B8FA0A49086000200A4908700A4925
:104CF000087013E0940200200000E03F90020020C2
:104D000098020020480200204C020020500200209F
:104D100054020020F4020020F5020020FD49087032
:104D20001BB000BD01B598B00020179016901590EB
:104D300018981490002013901290119010900F90DA
:104D40000E900D900C900B900A90FBF73CFF099091
:104D500004F0EAF9F04908601498512808D0149832
:104D6000522805D01498532802D01498542870D192
:104D70001498FEF7B2FFE9480068E949E94A127859
:104D800041F82200E8480068E849E64A127841F80C
:104D90002200E7480068E749E24A127841F8220019
:104DA000E5480068E549DF4A127841F82200E44806
:104DB0000068E449DB4A127841F82200E2480068C2
:104DC000E249D84A127841F82200E1480168E148F6
:104DD000D44A127840F82210DF480068DF49D14AEF
:104DE000127841F82200DE480068DE49CD4A127888
:104DF00041F82200CB480078401CCA490870084698
:104E00000078062801DD00200870002017900DE0D2
:104E1000C349179851F8200001460990159803F0EE
:104E200024FF15901798401CC0B2179017980628B9
:104E3000EEDBCD49159803F0A6FF0990CB48016839
:104E4000099803F064FFCA49086000201590179084
:104E50000EE0E4E0B549179851F8200001460990AA
:104E6000159803F002FF15901798401CC0B21790D8
:104E700017980628EEDBBC49159803F084FF0990CB
:104E8000BC480168099803F042FFBB490860002054
:104E9000159017900DE0A749179851F8200001468A
:104EA0000990159803F0E1FE15901798401CC0B2C8
:104EB000179017980628EEDBAB49159803F063FFAF
:104EC0000990AE480168099803F021FFAC490860D9
:104ED0000020159017900DE09849179851F8200080
:104EE00001460990159803F0C0FE15901798401CD4
:104EF000C0B2179017980628EEDB9B49159803F06F
:104F000042FFA04908600020159017900DE08D49E0
:104F1000179851F8200001460990159803F0A5FE56
:104F200015901798401CC0B2179017980628EEDB12
:104F30008D49159803F027FF9349086000201590CC
:104F400017900DE08149179851F82000014609900B
:104F5000159803F08AFE15901798401CC0B2179060
:104F600017980628EEDB8049159803F00CFF874957
:104F700008600020159017900DE07649179851F8B9
:104F8000200001460990159803F06FFE15901798C0
:104F9000401CC0B2179017980628EEDB724915988E
:104FA00003F0F1FE7A4908600020159017900DE09B
:104FB0006A49179851F8200001460990159803F0A6
:104FC00054FE15901798401CC0B2179017980628E9
:104FD000EEDB6549159803F0D6FE6E4908600020A7
:104FE000159017900DE05F49179851F82000014681
:104FF0000990159803F039FE15901798401CC0B21F
:10500000179017980628EEDB5749159803F0BBFE5A
:1050100061490860002015900120604908705F48D0
:105020000078002875D059480168006803F075FEC3
:10503000089055480168006803F06FFE06905148DB
:105040000168006803F069FE0590069903F00DFE03
:105050000790089903F009FE0990FEF799FD169054
:1050600048481699006803F058FE464908604648CB
:105070001699006803F051FE4349086043481699A9
:10508000006803F04AFE414908604348016800682F
:1050900003F043FE08903F480168006803F03DFEBE
:1050A00006903B480168006803F037FE05900699BA
:1050B00003F0DBFD0790089903F0D7FD0990FEF798
:1050C00067FD169032481699006803F026FE3049B5
:1050D000086030481699006803F01FFE2D490860EB
:1050E0002D481699006803F018FE2B4908602C48DB
:1050F0000168006803F011FE13902A4801682848EF
:10510000006803F00AFE12902748016824480068EE
:105110004CE0FDE3F6020020E80200201C02002023
:10512000EC2200209C020020200200200C23002002
:10513000240200202C230020100200204C230020F9
:10514000140200206C230020180200208C23002071
:1051500028020020AC2300202C020020CC230020B9
:1051600030020020EC2300200000C040A8020020F4
:10517000E0010020AC020020E4010020B002002089
:10518000E8010020D4010020D8010020DC0100202B
:10519000EC010020F0010020F4010020A502002015
:1051A000480200204C0200205002002003F0B5FD10
:1051B0001190FE480168FE48006803F0AEFD1090B3
:1051C000FC480168006803F0A8FD0F90FA480168E8
:1051D000F848006803F0A1FD0E90F4480168F54816
:1051E000006803F09AFD0D90F3480168006803F031
:1051F00094FD0C90ED480168EF48006803F08DFDC8
:105200000B90EA480168006803F087FD0A90119945
:105210000D9803F02AFD0690E8480168069803F00F
:105220007CFD089010990E9803F071FD0490E448FD
:105230000168049803F071FD06904FF07C500C99C2
:1052400003F065FD03900A9903F061FD0490DD48C9
:105250000168049803F061FD0590069903F005FDCF
:105260000790089903F001FD4FF08041099003F089
:1052700054FDD549086012990B9803F048FD06903B
:10528000CE480168069803F048FD08904FF07C5026
:105290000F9903F03CFD03900A9903F038FD049048
:1052A000C7480168049803F038FD069010990E98DD
:1052B00003F0DBFC0490C3480168049803F02DFD63
:1052C0000590069903F0D1FC0790089903F0CDFCF6
:1052D0004FF08041099003F020FDBC49086008466A
:1052E0000168006803F019FD0490B7480168006880
:1052F00003F013FD0390049903F0B7FC059003F04D
:105300006EFFCDE9060105F00BFDCDE9080103F0C4
:10531000A1FFAF4908604FF07C500F9903F0F7FCF4
:1053200005900C9903F0F3FC0690A44801680698D8
:1053300003F0F3FC089012990B9803F096FC04908C
:105340009F480168049803F0E8FC069011990D98B5
:1053500003F0DDFC04909B480168049803F0DDFC39
:105360000590069903F081FC0790089903F07DFCF5
:105370004FF08041099003F0D0FC964908601199E4
:105380000D9803F0C4FC039003F029FF00224FF0B6
:105390008043CDE9040103F0DDFD00228E4BCDE911
:1053A000060103F0D7FDCDE9080103F053FF8B4957
:1053B00008600B99129803F058FC059003F00FFF5A
:1053C00000224FF08043CDE9060103F0C3FDCDE993
:1053D000080103F03FFF824908604FF07C500F99AD
:1053E00003F095FC04900C9903F091FC059003F0F8
:1053F000F6FE00224FF08043CDE9060103F0AAFD3E
:10540000CDE9080103F026FF7649086011990D984F
:1054100003F07DFC02906F480168029803F07DFC68
:1054200004904FF07C500C9903F071FC01900A99A4
:1054300003F06DFC029066480168029803F06DFC71
:105440000390049903F011FC059003F0C8FE0022BC
:105450004FF04043CDE9060103F07CFDCDE90801A2
:1054600003F0F8FE604908600B99129803F0FDFB09
:10547000029058480168029803F04FFC049010997C
:105480000E9803F044FC029051480168029803F022
:1054900044FC0390049903F0E8FB059003F09FFEA1
:1054A00000224FF08043CDE9060103F053FDCDE922
:1054B000080103F0CFFE4D4908604FF07C500F9972
:1054C00003F025FC01900C9903F021FC0290414867
:1054D0000168029803F021FC04900D99119803F0E3
:1054E000C4FB02903A480168029803F016FC03904E
:1054F000049903F0BAFB059003F071FE00224FF00F
:105500008043CDE9060103F025FDCDE9080103F054
:10551000A1FE37490860354801682848006803F053
:10552000FCFB0790324801682548006803F0F5FB52
:105530000690079903F0EBFB0990294801682D4874
:10554000006803F0EAFB0790264801682A480068D3
:1055500003F0E3FB0690079903F0D9FB0890099943
:1055600003F083FB2549086021480168154800685D
:1055700003F0D3FB07901C4801681048006803F053
:10558000CCFB0690079903F0C2FB0990154801680F
:105590001B48006803F0C1FB0790104801681548DC
:1055A000006803F0BAFB069007992BE05402002034
:1055B000480200204C02002050020020F40100208C
:1055C000F0010020EC0100203C02002040020020FD
:1055D00034020020380200200000F0BF60020020EA
:1055E00064020020680200206C020020700200208B
:1055F00074020020DC010020D8010020D00200202D
:10560000D401002003F083FB0890099903F02DFBDF
:10561000FE490860FE480168FE48006803F07DFB13
:105620000290FD480168FD48006803F076FB019098
:10563000029903F06CFB0490F9480168F94800688E
:1056400003F06BFB0290F8480168F848006803F02B
:1056500064FB0190029903F05AFB0390049903F054
:1056600004FB059003F0BBFDF14AF24BCDE90601C6
:1056700003F070FCCDE9080103F0ECFDEE49086091
:10568000EE48006803F0ABFD21F00041EC4AED4B21
:10569000CDE9080103F0B6FD02D20020E749086019
:1056A000DA48006803F09BFD21F00041E44AE54B35
:1056B000CDE9080103F0A6FD02D20020D34908601D
:1056C000DD48006803F08BFD21F00041DC4ADD4B32
:1056D000CDE9080103F096FD02D20020D64908600A
:1056E0000021D648006803F0D1FD71D00021C748E1
:1056F000006803F0CBFD6BD00021CF48006803F0B9
:10570000C5FD65D00021D048006803F0C9FD5FD217
:10571000CA48006803F063FDCC4ACD4BCDE90201D5
:1057200003F018FCCDE90601CA48006803F057FDF4
:10573000CDE90401DDE9062303F065FBCDE90801AD
:1057400003F088FDC3490860B048006803F047FDD6
:10575000BE4ABF4BCDE9020103F0FCFBCDE90601D7
:10576000BD48006803F03BFDCDE90401DDE90623F7
:1057700003F049FBCDE9080103F06CFDB649086070
:10578000AD480168B048006803F0C7FA0990B34813
:105790000168099803F069FAB0490860AD480168EA
:1057A000AF48006803F061FAAD490860AA48016893
:1057B000AC48006803F059FAAA490860A748016894
:1057C000A948006803F051FAA749086007E0FFE71D
:1057D0000020A0490860A0490860A04908609748D7
:1057E000006803F0FCFCA14AA14BCDE9020103F0E3
:1057F000B1FBCDE906019A48006803F0F0FCCDE961
:105800000401DDE9062303F0FEFACDE9080103F007
:1058100021FD934908607D48006803F0E0FC934A4D
:10582000934BCDE9020103F095FBCDE906018D48CC
:10583000006803F0D4FCCDE90401DDE9062303F0A0
:10584000E2FACDE9080103F005FD864908607A48CF
:1058500001688848006803F060FA0990824801688E
:10586000099803F002FA804908607D48006882497F
:1058700008607C480068814908607B48006880496E
:105880000860FBF7A0F9099003F04EFC7D49086021
:105890007D4801687B48006803F002FD15D27A4814
:1058A00001687848006803F032FA059003F097FC2D
:1058B000764A774BCDE9060103F04CFBCDE90801B0
:1058C00003F0C8FC734908601AE06E4801684FF0A5
:1058D0009E4003F0CAF904906B480168049803F0F5
:1058E00016FA059003F07BFC684A694BCDE9060186
:1058F00003F030FBCDE9080103F0ACFC654908601A
:105900005F4801686448006803F007FA634900E0F3
:105910006CE1049003F001FA069058480168604871
:10592000006803F0FAF95D49029003F0F6F904907B
:105930005C48006880F0004002904F48016802987F
:1059400003F0EBF90390049903F0E1F9059006994F
:1059500003F0DDF907904F480168079803F0DDF97F
:105960004FF08041089003F00EFA09904E4801680C
:10597000099803F07AF94C490860404801684648A4
:10598000006803F0CAF94549049003F0C6F906908F
:105990003B4801684248006803F0BFF93F49029064
:1059A00003F0BBF90490344801683F48006803F0F5
:1059B000B4F90390049903F058F90590069903F09F
:1059C000A6F9079033480168079803F0A6F94FF04D
:1059D0008041089003F0D7F909903248016809988E
:1059E00003F043F92F490860234801682A480068FA
:1059F00003F093F90690224801682A48006803F0F2
:105A00008CF92649029003F088F94FE0D402002077
:105A10006C020020F001002070020020EC01002048
:105A200060020020D801002064020020D401002080
:105A30009A9999999999D93FD8020020D0020020CB
:105A40001839359D46DF813F5C02002061325530B8
:105A50002AA9333FDC020020E0020020E4020020FB
:105A6000E0010020E4010020E80100200AD7A37033
:105A70003D0AB73F5802002004020020080200201F
:105A80000C020020EC020020E80200208DEDB5A001
:105A9000F7C6B03EF002002054020020000080BF94
:105AA000500200204C020020480200200490D248FE
:105AB0000168D248006803F030F9D149029003F040
:105AC0002CF90390049903F022F90590069903F04C
:105AD000CCF80790CB480168079803F01EF94FF007
