:020000040800F2
:1000000090280020450100089D0200089F0200087A
:10001000A3020008A7020008AB02000800000000CD
:10002000000000000000000000000000AF02000817
:10003000B102000800000000B3020008B502000889
:100040005F0100085F0100085F0100085F01000810
:100050005F0100085F0100085F0100085F01000800
:100060005F0100085F0100085F0100085F010008F0
:100070005F0100085F010008A90900085F0100088E
:100080005F0100085F0100085F010008EF0D000834
:100090000B0E00085F0100085F0100085F01000807
:1000A0005F0100085F0100085F0100085F010008B0
:1000B000D70B00085F0100085F0100085F0100081E
:1000C0005F0100085F0100085F0100085F01000890
:1000D0005F010008D90800089F270008533900086D
:1000E0005F0100085F0100085F0100085F01000870
:1000F0005F0100085F0100085F0100085F01000860
:100100005F0100085F0100085F0100085F0100084F
:10011000F11300085F0100085F0100085F0100089B
:100120005F0100085F0100085F0100085F0100082F
:10013000DFF80CD009F0A6FA004800476901000872
:10014000902800200648804706480047FEE7FEE763
:10015000FEE7FEE7FEE7FEE7FEE7FEE7FEE7FEE777
:10016000198C0008310100081CB53FA103C9CDE975
:10017000000108F051FD4FF4E13000F00FF94FF4A9
:10018000E13001F047FE4FF4164002F097FE4FF4C5
:10019000E13001F057F900F0BDFE01F013FE00F070
:1001A000B3FC00F02FFC01F055FC02F099FD02F0C9
:1001B0001FFB03F0BBFC4FF47A7000F00BFC00F067
:1001C00000FD2B49086033E02A4800782A49097865
:1001D00088421CD003F07CFD28490870084600784E
:1001E00051280BD008460078522807D008460078DE
:1001F000532803D008460078542808D11F480078B7
:1002000003F0B8FF1E480078401C1D49087000F03C
:10021000D8FC1C4908600968154A1268881A09F058
:100220000BF81949086019491748006809F0A2F845
:10023000134800781528C7DB02F0B0FC1422062111
:10024000134802F0BCFC32220121124802F0B7FC34
:1002500014220A21104802F0B2FC02F0ACFC01E0CA
:1002600002F0D9FCFCE70000112233445566770008
:1002700008000020E9000020E80000201000002015
:10028000000000200C00002004000020001B374A62
:10029000732E0008F35E000809260008704700BFAF
:1002A000FEE700BFFEE700BFFEE700BFFEE77047C6
:1002B0007047704710B502F0D7FC10BD0246002011
:1002C00003E000231354431C98B28842F9DB7047C3
:1002D0002DE9F04F07460D461646994607EB0508EF
:1002E000BA460024A34601E0601C84B22A4850F8B4
:1002F000340008B1082CF7DD082C05DBFF2089F855
:1003000000000020BDE8F08F234840F8347000EB77
:10031000C4000571204800EBC40046711E4800EB84
:10032000C4008671A34605FB06F13846FFF7C6FFF9
:10033000002405E0CAF80080C246A844601C84B2CC
:10034000701EA042F6DC144800EBCB00DAE710B5D3
:1003500002461368907918B9FF200870002010BD7C
:100360009079401E9071907908B1186810601C4611
:10037000241D002008702046F1E7024609B9FF203D
:100380007047091F0B461068186013609079401C75
:1003900090710020F4E700005C03002038B50446AB
:1003A0000020FE490870FE490870FE490870FE49A9
:1003B00008701420FD490870204600F03AFA6B4698
:1003C00020221146FA48FFF783FFFA49086038BD3A
:1003D00010B5F6480078142800D110BD002240F274
:1003E0002661F54808F081FAF448EF49097810F8D9
:1003F000310010B3EC480078EA49097888421CD0F3
:10040000EE48E949097810F83100401EEB49E64A08
:10041000127801F832000846E34A127800EBC20075
:100420004068E74A1278815CE34808F0BFFAE44884
:100430000078401CE24908705CE0DB480078D9494C
:10044000097888424DD0DD48D74A127800EBC200C7
:100450004168D8480068FFF790FFD3480078401CF7
:10046000C0B2D1490870142801DB00200870CF48C1
:100470000078401CC0B2CD490870142801DB14205C
:1004800008700020CE490870C7480078C54909782F
:1004900088421CD0C948C449097810F83100401E70
:1004A000C1B2C648C04A127800F83210BE4A12786B
:1004B00000EBC2004068C24A1278815CBE4808F076
:1004C00075FABF480078401CBD49087012E0002052
:1004D000BC4908701420B54908700020B84908705C
:1004E00008E00020B74908701420B04908700020C7
:1004F000B3490870012240F22661AF4808F0F5F9CF
:1005000000BF6AE710B5AC4808F054FAC1B2A3487E
:1005100002780078401CA14B1870AB4881541846F3
:1005200000789F490978884204D19D480078401C92
:100530009B49087010BDF8B505460C4626460CB917
:100540000120F8BD002240F226619B4808F0CDF959
:100550001C2094FBF0F100FB114028B11C2094FBFF
:10056000F0F0401CC4B203E01C2094FBF0F0C4B2D5
:100570008E480078A04207DA012240F226618E48B8
:1005800008F0B3F9FF20DCE769468A480068FFF706
:10059000DEFE8A49834A127801EBC2014860814835
:1005A0000078142802DB00207E49087000242FE028
:1005B000287882497B4A127801EBC20149680855C4
:1005C000601CC4B21C2C20DB1C217C48754A1278AC
:1005D00000F8321073480078401CC0B271490870AE
:1005E000142801DB00200870694672480068FFF794
:1005F000AEFE72496B4A127801EBC20148606B484B
:100600000078401E6949087000246D1C701EC6B237
:10061000002ECDD19CB169486249097800F831407B
:1006200062480078401E614908705E480078401CAE
:10063000C0B25C490870142801DB002008706148D2
:10064000007820B9FFF7C4FE01205E49087001223E
:1006500040F22661584808F048F9002071E770B56B
:100660000546002400E0641C285D0028FBD1E1B2AF
:100670002846FFF760FF70BD10B54B480078494928
:100680000978884234D04D48474A127800EBC200BE
:10069000416848480068FFF770FE43480078401CF6
:1006A000C0B241490870142801DB002008703F489F
:1006B0000078401CC0B23D490870142801DB1420AA
:1006C0000870394800783749097888420CD03B4A8D
:1006D000354B1B7812F83310334B1B7802EBC302F7
:1006E000506800F01CF924E000203649087020E032
:1006F00032482D4A127800EBC20041682D4800684C
:10070000FFF73BFE28480078401CC0B2264908701D
:10071000142801DB0020087024480078401CC0B277
:1007200022490870142801DB142008700020254994
:10073000087010BD10B55CE0244A1278002A53D12D
:100740000020174A1278921ED1B21F4A525C552AD5
:1007500001D1421CD0B2124A1278521ED1B21A4AAA
:10076000525CAA2A01D1421CD0B20D4A1278184B11
:100770001B68022404FB0322D1B2134A525CFF2AF5
:1007800001D1421CD0B203282ED101220F4B1A7086
:10079000034A12780F4B1A70014A1DE02500002011
:1007A000260000202200002023000020240000203A
:1007B000580500202C00002000380140B80300201C
:1007C00021000020140000205804002020000020F8
:1007D0001C000020270000201278094B1B6802240F
:1007E00004FB0322074B1A70074A1278521C064B6F
:1007F0001A70054A1278054B1B789A429CD110BD9D
:100800001C000020280000202600002025000020D9
:1008100008B525208DF8000000208DF80100032088
:100820008DF8020001208DF80300684605F091FB69
:1008300008BD10B586B00446012144F2050007F05A
:1008400003F801A806F0D3FD4FF40070ADF80400E2
:1008500003208DF8060018208DF8070001A95948DB
:1008600006F03CFD01A806F0C2FD4FF48060ADF833
:10087000040004208DF8070001A9524806F02EFD5F
:10088000514807F057FF02A808F000F80294002032
:10089000ADF80C00ADF80E00ADF810000C20ADF86E
:1008A00012000020ADF8140002A9474807F085FFA8
:1008B000012240F22661444808F017F8FFF7A8FF2C
:1008C000012240F22551404808F00FF801213E482E
:1008D00007F0FFFF06B010BD10B520213A4808F020
:1008E000D3F8012808D12021374808F0DAF8374832
:1008F000007808B1FFF706FE4021334808F0C4F83D
:10090000012808D14021304808F0CBF82F48007862
:1009100008B1FFF75DFD01202C49087010BD30B50E
:100920008DB005460C460121084606F080FF284898
:1009300006F06EF82448001D0290039510200490E4
:1009400005940020069080200790002008900990D0
:100950000A904FF440500B9000200C9002A91C48C4
:1009600006F0F8F801220221194806F02AF90E20B3
:100970008DF8040000208DF805008DF80600012098
:100980008DF8070001A805F0E4FA0121104806F0EF
:100990000CF9012280210C4807F0CCFF01210A4804
:1009A00007F097FF0DB030BD10B54FF4005006F0C2
:1009B00035F9012804D1400306F025F9FFF75CFE64
:1009C00010BD000000080140003801403000002048
:1009D00044000240002107E0002200E0521C43F2E4
:1009E00078739A42FADB491C8142F5D370470021A3
:1009F00005E0002200E0521C0E2AFCDB491C81426B
:100A0000F7D3704730B57F4800684FF47A72B0FB77
:100A1000F2F1B1F1807F01D301201DE021F07F4090
:100A2000401E4FF0E022506150170F22002807DAD5
:100A300013071D0E744B00F00F04241F1D5503E017
:100A400013071C0E714B1C5400BF00204FF0E02216
:100A5000906107201061002008B100BFFEE74FF051
:100A6000E020006920F001004FF0E021086130BD76
:100A70004FF0E020006940F001004FF0E0210861F4
:100A8000704708B54FF4E06005F05EFA1C208DF861
:100A9000000000208DF8010005208DF802000120E3
:100AA0008DF80300684605F054FA08BD0EB5012123
:100AB000084606F0D6FEFFF7E4FF4FF0804006F050
:100AC0002BFF41F28830ADF804004720ADF800005C
:100AD0000020ADF80600ADF8020069464FF08040F6
:100AE00006F0EEFF0121880707F00CFE01221146F7
:100AF000900707F05CFB0121880707F03DFB002110
:100B0000012006F0AEFE0EBD0EB50121062006F056
:100B1000A8FE684607F000FB4FF6FF70ADF8040032
:100B20000020ADF80000ADF80600ADF802006946FF
:100B3000374806F0C5FF00221146354807F0C3FBD1
:100B40000121334807F064FD3021314807F04EFBA6
:100B500007212F4807F092FD80212D4807F097FDCF
:100B600001212B4807F008FC4FF6FF70ADF8040098
:100B70004720ADF800000020ADF80600ADF80200F7
:100B80006946244806F09CFF0121224807F0F4FB47
:100B90000421204807F072FD01211E4807F044FDA2
:100BA00020211C4807F061FD80211A4807F06FFDE5
:100BB0000121184807F0E0FA0121154807F0DCFA96
:100BC0000EBD002012492431088800041149243147
:100BD00009880844704710B50121880707F095FD82
:100BE00040B10121880707F0A1FD0B480068401CB7
:100BF00009490860084800680A2802D3002006490D
:100C0000086010BD4403002018ED00E000E400E09F
:100C100000040040000800403400002000B589B006
:100C200014208DF8000000208DF8010001208DF8BF
:100C300002008DF80300684605F08BF913208DF84B
:100C4000000000208DF8010002208DF80200012034
:100C50008DF80300684605F07CF9AA4805F0E2F932
:100C60000121480606F0FDFD0121082006F0ECFDFB
:100C70000121084606F0E8FD4FF48070ADF814003D
:100C800003208DF8160048208DF8170005A99E480E
:100C900006F024FB4FF40070ADF8140003208DF82B
:100CA000160018208DF8170005A9974806F016FBC6
:100CB00001214FF4EA1006F0E0FB06A805F0D6FA91
:100CC00000208DF81E008DF81F008DF820000120F7
:100CD0008DF8210000208DF822008DF823008DF87A
:100CE0001A008DF81B0001208DF81C0002208DF8E1
:100CF0001D000C20ADF8180006A9824805F0ABF9DC
:100D000000208DF80E008DF80F0001208DF81000E6
:100D10000020ADF80400ADF80600ADF80800ADF80D
:100D20000A00ADF80C0001208DF8110001A805F0B3
:100D30001CFA0221734805F018FE0121714805F0E4
:100D400014FE012203216F4805F00EFD09B000BD1D
:100D50007FB586B0DDE90E560798029004208DF825
:100D60000C009DF820008DF80D008DF80E50002429
:100D700007E009983044015D0DF10F000155601C3A
:100D8000C4B2AC42F5DB01A95E4805F0DDFA0AB059
:100D900070BD30B585B00446A07B28B920680090AE
:100DA00000208DF8080001E02068019004208DF8F3
:100DB0000800E07B18B900208DF8090002E002204D
:100DC0008DF80900207B8DF80A00002506E0201D23
:100DD000415D0DF10B004155681CC5B2207BA84256
:100DE000F5DC6946474805F0AFFA05B030BD10B5EF
:100DF0000121444805F01FFD012805D1012141488A
:100E000005F0B3FD00F097F810BD10B586B001AA4B
:100E100000213C4805F08DFB9DF80D0000286AD1AB
:100E2000029880B20B2806D0A0F58060093803D064
:100E300003285ED12EE05DE00298C0F30740012850
:100E400006D002280CD0032812D0042820D117E0A5
:100E5000DDF80F10DDF813002C4AC2E9001017E08E
:100E6000DDF80F10DDF81300284AC2E904100FE086
:100E7000DDF80F10DDF81300244AC2E9021007E084
:100E8000DDF80F10DDF81300204AC2E9061000BF9C
:100E900000BF2FE00298C0F30740012806D00228C7
:100EA0000CD0032812D0042820D117E0DDF80F4021
:100EB000204608F0B8F91649086018E0DDF80F4040
:100EC000604208F0B0F91249486010E0DDF80F40C8
:100ED000204608F0A8F90E49886008E0DDF80F40C8
:100EE000604208F0A0F90A49C86000E000BF00BFF6
:100EF00000E000BF00BF0021024805F092FB06B0F1
:100F000010BD000000640040000C0140502400208F
:100F10007024002008B50020F9490870F9490870CC
:100F2000FFF77CFE6B4620221146F748FFF7D0F909
:100F3000F649086008BD1CB5F548006820280DD1A9
:100F40000020F4490870F448F44A127800EB0210CB
:100F5000C168EE480068FFF710FA1CBD00220121AD
:100F6000EF4805F001FCEC48EC49097800EB011072
:100F70000078002849D0E9480078EA490978884291
:100F800043D0E548E549097800EB011000780828CE
:100F900020DBE148E149097800EB011000780838CE
:100FA000DD49DE4A127801EB02110870DE48006864
:100FB0000821CDE90010D848D849097800EB011480
:100FC00094E80F00FFF7C4FED74800680830D64900
:100FD000086097E0D4480168CF48D04A127800EB07
:100FE00002100078CDE90001CB48CC49097800EB2C
:100FF000011494E80F00FFF7ABFE0020C649C74A72
:10100000127801EB021108707CE0C4480078C549F1
:10101000097888426DD0C048C04A127800EB0210AF
:10102000C168BA480068FFF7A8F9BC480078401CBE
:10103000C0B2BA490870202801DB00200870B4480B
:101040000068401CB2490860202801D320200860B5
:101050000020B5490860B1480078B2490978884253
:101060003DD0AD48AD49097800EB01100078082863
:1010700021DBA948A949097800EB0110007808385C
:10108000C1B2A548A54A127800EB02100170A6482B
:1010900000680821CDE900109F48A049097800EBBD
:1010A000011494E80F00FFF753FE9F4800680830D2
:1010B0009D49086026E09C4801689748974A127845
:1010C00000EB02100078CDE90001934893490978BC
:1010D00000EB011494E80F00FFF73AFE12E0002045
:1010E0008C49087020208A49086000208E490860D9
:1010F00008E000208749087020208549086000200A
:101100008949086001221146854805F02DFB00BF82
:1011100023E72DE9F84305460C4616461F46A04630
:1011200014B90120BDE8F883002201217C4805F0B4
:101130001BFB1C2094FBF0F100FB114028B11C208C
:1011400094FBF0F0401CC4B203E01C2094FBF0F0D0
:10115000C4B26F480068A04206D20122114670480E
:1011600005F002FB0120DDE7694668480068FFF7EB
:10117000EEF869496B4A127801EB0211C8606948C0
:101180000078202802DB00206649087000243EE039
:1011900029786148634A127800EB0210C068015553
:1011A000601CC4B21C2C2DDB5B485E49097800EB47
:1011B000011046601C2058495A4A127801EB02116E
:1011C000087055485749097800EB011007725548D7
:1011D0000078401CC0B253490870202801DB002071
:1011E0000870694649480068FFF7B1F84A494D4A16
:1011F000127801EB0211C86045480068401E44495E
:10120000086000246D1CA8F1010000F0FF08B8F18F
:10121000000FBDD104B340484249097800EB0110EA
:1012200046603D483F49097800EB011004703A4898
:101230003C49097800EB0110077235480068401EF0
:101240003349086037480078401CC0B235490870FF
:10125000202801DB002008702E48007820B90120EA
:101260002C490870FFF767FE012211462C4805F053
:101270007BFA002056E7002000212C4A116000BFB5
:1012800003E000212A4A1154401CFF28F9DD704771
:1012900010B50246002000BF03E00023244C235475
:1012A000401CFF28F9DD10BD0FB430B500209DF8BB
:1012B000161000BF17E00DF11702135C104A1478E6
:1012C0001278521C0E4D2A70194A13552A4612786C
:1012D0000C4B1B789A4204D10A4A1278521C094BD3
:1012E0001A70421CD0B28842E5DB30BC5DF814FBBA
:1012F000024622B10F4802600F48017023E01DE052
:101300005400002055000020780C002058000020D8
:101310003C00002041000020780900203900002016
:1013200000640040380000205000002044000020ED
:10133000780B0020480000204C000020B2F5807F90
:1013400001D9FF2070470020FCE7000010B586B0EF
:10135000044634208DF8000000208DF801000420A0
:101360008DF8020001208DF80300684604F0F1FDBD
:101370000121102006F068FA0121C80406F071FA74
:101380002D48406820F480602B494860084640683A
:1013900060F480604860C814ADF8140004208DF833
:1013A000170005A9244805F099FF01940020ADF825
:1013B0000800ADF80A00ADF80C00ADF810000C20E4
:1013C000ADF80E0001A91D4807F0F7F9012240F21F
:1013D00025511A4807F089FA012240F22661174880
:1013E00007F083FA0121154807F073FA06B010BD23
:1013F00010B52021114807F047FB012808D1202112
:101400000E4807F04EFB0E48007808B100F0CEF809
:1014100040210A4807F038FB012808D1402107483D
:1014200007F03FFB0648007808B100F025F80120DE
:101430000349087010BD000000100140004C00403E
:101440005C00002038B504460020FE490870FE49C3
:101450000870FE490870FE4908701420FD490860B4
:101460002046FFF773FF6B4620221146FA48FEF72D
:101470002FFFFA49086038BD10B5F64800681428F7
:1014800000D110BD002240F22661F54807F02DFA88
:10149000F448EF49097810F8310018B3EC480078A7
:1014A000EA49097888421DD0EE48E949097810F8E0
:1014B0003100401EEB49E64A127801F83200084636
:1014C000E349097800EBC1004068E749097844180E
:1014D0002178E34807F06AFAE3480078401CE249C3
:1014E00008705BE0DA480078D849097888424CD027
:1014F000DC48D74A127800EBC2004168D748006840
:10150000FEF73BFFD2480078401CC0B2D0490870BB
:10151000142801DB00200870CE480068401CCD492B
:101520000860142801D3142008600020CE490870F8
:10153000C7480078C549097888421CD0C948C449C1
:10154000097810F83100401EC649C14A127801F8E6
:1015500032000846BE4A127800EBC2004068C24A18
:101560001278815CBE4807F021FABF480078401C21
:10157000BD49087012E00020BC4908701420B5492C
:1015800008600020B849087008E00020B7490870DA
:101590001420B04908600020B3490870012240F2CD
:1015A0002661AF4807F0A1F900BF6AE710B5AC4863
:1015B00007F000FAC1B2A34802780078401CA14BA2
:1015C0001870AB488154184600789F4909788842C2
:1015D00004D19D480078401C9B49087010BDF8B5A7
:1015E00005460C4626460CB90120F8BD002240F203
:1015F00026619B4807F079F91C2094FBF0F100FB71
:10160000114028B11C2094FBF0F0401CC4B203E050
:101610001C2094FBF0F0C4B28E480068A04207D2B0
:10162000012240F226618E4807F05FF9FF20DCE7D7
:1016300069468A480068FEF78AFE8A49834A12781A
:1016400001EBC201486081480078142802DB0020C9
:101650007E49087000242FE0287882497B4A12785E
:1016600001EBC20149680855601CC4B21C2C20DB88
:101670001C217C48754A127800F8321073480078B3
:10168000401CC0B271490870142801DB00200870AA
:10169000694672480068FEF75AFE72496B4A127832
:1016A00001EBC20148606B480068401E6949086050
:1016B00000246D1C701EC6B2002ECDD19CB16948AD
:1016C0006249097800F8314062480068401E61496B
:1016D00008605E480078401CC0B25C49087014285D
:1016E00001DB002008706148007820B9FFF7C4FED4
:1016F00001205E490870012240F22661584807F037
:10170000F4F8002071E770B50546002400E0641C81
:10171000285D0028FBD1E1B22846FFF760FF70BDCD
:101720007EB50020F5E0534C2478002C4AD10022ED
:10173000454C2478641EE1B24D4C645C022C01D10E
:10174000541CE2B2404C24784B4D2D68022606FB17
:101750000544E1B2464C645C0D2C01D1541CE2B24C
:10176000394C2478444D2D68022606FB0544641C40
:10177000E1B23F4C645C0A2C01D1541CE2B2324C01
:1017800024783D4D2D68022606FB0544A41CE1B2D9
:10179000374C645C032C01D1541CE2B2042A10D1F2
:1017A0000124344D2C700120274C2478334D2C70AB
:1017B000254C2478304D2D68022606FB0544304D1B
:1017C0002C70A1E0204C24782D4D2D78AC42F8D11E
:1017D0000024284D2C70002100238DE0274C247814
:1017E0000C44234D2C5D302C0EDB244C24780C440F
:1017F0002C5D392C08DC214C24780C442C5D303CC9
:10180000E4B20DF8014014E01C4C24780C44184D4F
:101810002C5D412C0DDB194C24780C442C5D462C9E
:1018200007DC164C24780C442C5D373CE4B20DF8F0
:101830000140124C24780C44641C0D4D2C5D302C5E
:1018400032DB1FE0E8000020E9000020E00000207B
:10185000E1000020E400002018120020F000002029
:10186000004C004078100020DE00002060000020C6
:10187000181100207800002074000020EA000020E9
:10188000EB000020684C24780C44641C2C5D392C3F
:101890000ADC654C24780C44641C2C5D303CE5B2B9
:1018A0004C1C0DF8045018E05F4C24780C44641C68
:1018B0005E4D2C5D412C10DB5B4C24780C44641C89
:1018C0002C5D462C09DC584C24780C44641C2C5D9F
:1018D000373CE5B24C1C0DF804504C1C1DF804506C
:1018E0001DF8014005EB0414E6B21C465D1CEBB28A
:1018F0004F4D2E558C1CE1B24E4C2468641E640082
:101900008C423FF66BAF01204B4C2478641C4A4D4F
:101910002C70494C2478494D2D78AC427FF403AFAC
:101920007EBD10B50146012024E00A7800EB80035B
:10193000434CE35C9A421CD14A7800EB8003234479
:101940005B789A4215D18A7800EB800323449B7818
:101950009A420ED1CA7800EB80032344DB789A4286
:1019600007D10A7900EB800323441B799A4200D106
:1019700002E0401C1428D8DB00BF324A1278324BF8
:101980001A70012801DB102800DD10BD2D4B1870E6
:1019900000BFFAE730B5C1B000244FF4807101A850
:1019A00007F0D3F9002524480078244909788842B3
:1019B00021D0FFF7B5FEF0B10120244908700522BF
:1019C0001B49234807F0CCF9A8B11948FFF7A9FF34
:1019D00001A801231B4A04210090022001F049FCC8
:1019E000C4B2214601A801F035FB194810490A6824
:1019F00002600979017141B030BD00200AE011494F
:101A0000097801EB81010E4A1144095C084A11541E
:101A1000411CC8B20528F2DB0D49054A13680B606A
:101A200012790A7170470000EA00002018110020A6
:101A30006100002074000020E9000020E800002080
:101A40007A00002066000020670000206800002067
:101A50006900002008B50121512005F0F5FE0420A1
:101A6000ADF8000010208DF8030003208DF802006F
:101A70006946CB4805F032FC0421C94805F0D9FC81
:101A80004FF48040ADF8000010208DF803000320D3
:101A90008DF802006946C34805F020FC4FF48041F0
:101AA000C04805F0C6FC08BD0146002901DD084616
:101AB0007047002901DA4842FAE70846F8E72DE9BD
:101AC000F04F85B08246DFF8E0B2B8480068B74909
:101AD00089680844B54949680844B449C968441844
:101AE000E11704EB9171881007F09DFB0290AF485D
:101AF00000684042AD4989680844AC4949680844D7
:101B0000AA49C968441AE11704EB9171881007F0DB
:101B10008AFB0390A54909684942A44A9268114486
:101B2000A24A5268891AA14AD268881807F089FB2C
:101B300006460F46584607F0BBFB00229C4BCDE9FA
:101B4000000107F08FFA804632463B4607F08AFADA
:101B5000044607F0E9FB97490490086002A807C80B
:101B60008AE8070005B0BDE8F08FFFB585B00446F0
:101B7000914D2846089907F058F90646DDE9060117
:101B800007F04DF90746314607F049F9019028461C
:101B9000089907F04AF90646DDE9060107F0EDF875
:101BA0000746314607F0E9F802902846089907F001
:101BB0003CF90646DDE9060107F0DFF80746314645
:101BC00007F02DF903902846089907F02EF90646EC
:101BD000DDE9060107F023F90746314607F0CDF8A5
:101BE000049001A80FC884E80F0009B0F0BD2DE9EA
:101BF000FF470C9C6C4DDDE9000107F0BEF8804604
:101C0000029907F0BAF80746039907F0B6F80646B6
:101C10004FF0814107F03FF92060009880F00049C3
:101C20004846019907F0A9F88046029907F0A5F8FF
:101C30000746039907F0F3F806464FF0814107F095
:101C40002AF96060009880F0004A5046019907F038
:101C500094F88146029907F0E2F88046039907F06C
:101C60008CF80746294607F0E0F806464FF0814118
:101C700007F011F9A060BDE8FF872DE9FC4104469B
:101C80000D4616461F464DA103C9CDE90001F8B225
:101C90008DF80300F0B28DF80400E8B28DF805006D
:101CA0009DF802009DF8031008449DF804100844B4
:101CB0009DF805100844C0B28DF8060000232246A6
:101CC00008216846FFF725FABDE8FC817CB504468B
:101CD0000D46002040EA044000F2053608208DF849
:101CE00000008DF8014090208DF8020000208DF852
:101CF000030001950023224608216846FFF709FAF0
:101D00007CBD704710B500211E20FFF7DFFF0021CA
:101D10001420FFF7DBFF00211720FFF7D7FF00217A
:101D20001A20FFF7D3FF10BD7FB54FF07E5100980A
:101D300007F07BF8054607F0A2FA044621461E206C
:101D4000FFF7C4FF019880F000464FF07E51304607
:101D500007F06BF8054607F092FA04462146142076
:101D6000FFF7B4FF4FF07E51029807F05EF805468A
:101D700007F085FA044621461720FFF7A7FF0398CE
:101D800080F000464FF07E51304607F04EF8054691
:101D900007F075FA044621461A20FFF797FF7FBD2A
:101DA000001801400010014090C4DF3A580900209B
:101DB0000000D03FF40000200070124455AA030038
:101DC000000000FF08B50121402005F03DFD032083
:101DD000ADF8000010208DF8030003208DF80200FC
:101DE00069460B4805F07AFA0321094805F021FB02
:101DF00008BD10B50121064805F00EFBC0F1010039
:101E0000C4B222460121024805F017FB10BD0000B4
:101E10000018014038B504460020FD490870FD490E
:101E20000870FD490870FD4908701420FC490860DD
:101E3000204600F05CFC6B4620221146F948FEF774
:101E400047FAF949086038BD10B5F548006814280C
:101E500000D110BD002240F22661F44806F045FD95
:101E6000F348EE49097810F8310010B3EB480078D8
:101E7000E949097888421CD0ED48E849097810F80A
:101E80003100401EEA49E54A127801F8320008465E
:101E9000E24A127800EBC2004068E64A1278815CA0
:101EA000E24806F083FDE3480078401CE1490870F1
:101EB0005BE0DA480078D849097888424CD0DC48A1
:101EC000D64A127800EBC2004168D7480068FEF796
:101ED00054FAD2480078401CC0B2D0490870142887
:101EE00001DB00200870CE480068401CCC49086027
:101EF000142801D3142008600020CE490870C74878
:101F00000078C549097888421CD0C948C349097876
:101F100010F83100401EC1B2C548C04A127800F81E
:101F20003210BE4A127800EBC2004068C14A1278F3
:101F3000815CBE4806F03AFDBE480078401CBD49B1
:101F4000087012E00020BC4908701420B4490860F1
:101F50000020B849087008E00020B7490870142034
:101F6000AF4908600020B3490870012240F22661A1
:101F7000AE4806F0BAFC00BF6BE710B5AB4806F000
:101F800019FDC1B2A24802780078401CA04B18701D
:101F9000AA488154184600789E490978884204D19D
:101FA0009C480078401C9B49087010BDF8B5054658
:101FB0000C4626460CB90120F8BD002240F22661ED
:101FC0009A4806F092FC1C2094FBF0F100FB1140B3
:101FD00028B11C2094FBF0F0401CC4B203E01C208C
:101FE00094FBF0F0C4B28E480068A04207D20122F0
:101FF00040F226618D4806F078FCFF20DCE7694658
:1020000089480068FEF7A3F98949834A127801EBF1
:10201000C201486080480078142802DB00207E4915
:10202000087000242FE0287881497B4A127801EB60
:10203000C20149680855601CC4B21C2C20DB1C215D
:102040007B48754A127800F8321073480078401CBB
:10205000C0B271490870142801DB0020087069467D
:1020600071480068FEF773F971496B4A127801EB09
:10207000C20148606A480068401E6949086000243F
:102080006D1C701EC6B2002ECDD19CB1684862494D
:10209000097800F8314062480068401E60490860D5
:1020A0005D480078401CC0B25B490870142801DB11
:1020B000002008706048007820B9FFF7C5FE0120B5
:1020C0005D490870012240F22661584806F00DFC77
:1020D000002071E770B50546002400E0641C285D0F
:1020E0000028FBD1E1B22846FFF760FF70BD30B594
:1020F000014600240A46514DAB5C551CEAB24F4DD7
:10210000AD5C43EA0524204630BD2DE9FE4F4B4827
:102110004B490978405C02900298212876D009DC6E
:10212000A0F11A00072828D2DFE800F03FFDFCFBF1
:10213000FA27F900A2282CD004DC302867D0A12887
:102140001BD104E0A3282ED0A428F9D12CE03B49D0
:102150003B480078401C0C5C3A48047038480078D2
:10216000801C0C5C204601F0FCF8374908603749B8
:102170003548006807F0FEF800D8D2E1344800681E
:102180003449086001203449087000203349086050
:10219000C7E1FFF7B7FD00202F4908702F490860FD
:1021A00029490860BDE1BCE1BBE12DA22FA1684631
:1021B00007F0D8FA08216846FFF7F8FE24480068BF
:1021C00007F076F805462A460B4629A1684607F02F
:1021D000C9FA07216846FFF7E9FE26A223A168464F
:1021E00007F0C0FA0A216846FFF7E0FE24480068BD
:1021F00007F05EF805462A460B461DA1684607F023
:10220000B1FA07216846FFF7D1FE3BE047E151E113
:102210001C0100201D0100201601002017010020D4
:1022200018010020B81700202401002000440040BD
:10223000181600201501002000010020B81600200B
:102240001E010020B0010020100100200000C84342
:10225000B4020020B401002014010020400300203B
:102260002020796177203D200000000025730000C8
:102270002566000020207069746368203D200000FE
:10228000B0020020E7A2AFF21C01684607F06AFA2C
:1022900009216846FFF78AFEE548006807F008F85C
:1022A00005462A460B46AFF23801684607F05AFA4F
:1022B00007216846FFF77AFEDEA2AFF250016846BA
:1022C00007F050FA07216846FFF770FEDB48006808
:1022D00006F0EEFF05462A460B46AFF26C01684653
:1022E00007F040FA07216846FFF760FED4A2AFF27C
:1022F0008401684607F036FA07216846FFF756FE64
:10230000D148006806F0D4FF05462A460B46AFF2D6
:10231000A001684607F026FA0721684604E09AE023
:1023200091E058E04FE040E0FFF740FEC7A2AFF277
:10233000C401684607F016FA07216846FFF736FE23
:10234000C448006806F0B4FF05462A460B46AFF2C3
:10235000E001684607F006FA07216846FFF726FE07
:10236000BDA2AFF2F801684607F0FCF90F216846FC
:10237000FFF71CFEBC48006806F09AFF05462A4697
:102380000B46AFF21411684607F0ECF907216846D6
:10239000FFF70CFEB5A2AFF22C11684607F0E2F988
:1023A00002216846FFF702FEBBE00120B049087039
:1023B000B049B1480078401C0C5C204600F0D1FFC9
:1023C000AE490860ADE0FFF79DFC0020A849087009
:1023D000AA490860A5E0A749A7480078401C0C5C02
:1023E000204606F03FFF0546A54AA64B06F03AFEFA
:1023F00007460022A44B06F0A7FE824606F094FF93
:102400009E4908600846006806F052FF05464FF0F6
:1024100033329E4B06F074FF03D89D4897490860FD
:102420000DE09648006806F043FF05464FF0333252
:10243000984B06F051FF02D8974890490860012058
:10244000964908706DE0FFF75DFC00209349087025
:102450008A49086065E00120914908709149087037
:10246000844985480078801C095C824A824800784B
:10247000401C105C41EA00200FFA80F9484606F043
:10248000E0FE07460022884B06F05EFE054606F099
:102490004BFF8649086000207849086041E0002031
:1024A0007F490870FFF72EFC0020744908607D49C1
:1024B000087036E06F4970480078401C0C5C20467C
:1024C00006F0D0FE07460022794B06F03DFE054699
:1024D00006F02AFF77490860664967480078801C43
:1024E0000C5C204606F0BEFE07460022704B06F04C
:1024F0002BFE054606F018FF6E4948605D495E48B0
:102500000078C01C0C5C204606F0ACFE054600229C
:10251000674B06F019FE074606F006FF654988601E
:1025200000BF00BFBDE8FE8F30B54FF0FF3064E064
:10253000614C2478002C37D10021604C2478641F32
:10254000E2B24C4CA45C552C01D14C1CE1B25B4C6A
:102550002478241FE2B2474CA45CAA2C01D14C1C65
:10256000E1B2564C2478E41EE2B2424CA45C1E2C2C
:1025700001D14C1CE1B203293AD101244E4D2C70FB
:102580004E4C2478641EE2B23A4CA45C4C4D2C7044
:102590004A4C2478384D2C70484C2478484D2D787E
:1025A0002C44484D2C7023E0444C2478454D2D7824
:1025B000AC421DD10024404D2C702F4C23780021BB
:1025C000002207E02B4CE45C0C44E1B25C1CE3B25B
:1025D000541CE2B23A4C2478A242F3DBCC43E1B281
:1025E000244CE45C8C4203D1224C234D2D78605D59
:1025F000324C2478641C314D2C70304C2478324D90
:102600002D78AC4294D130BD10B52C4800782E49BD
:102610000978884205D0FFF787FF401C01D0FFF7FB
:1026200074FD10BD2020726F6C6C203D20000000F6
:10263000AC0200202020657A203D2000F40200201A
:1026400020206579203D2000F002002020206578C0
:10265000203D2000EC020020202074696D6520746C
:10266000616B656E203D2000240300200D0A0000F0
:102670006C010020B81600201E010020100100206F
:102680004AD8124DFB210940008066403333E33FB6
:102690009A99193F3333E3BF9A9919BF6D0100200E
:1026A0006E0100201401002000002440B40100202D
:1026B000000059403C1C0020200100201D0100208A
:1026C000210100201F0100201C01002008B5262048
:1026D0008DF8000000208DF8010006208DF8020022
:1026E00001208DF80300684603F033FC08BD10B5E7
:1026F00086B004460121042005F0A6F80121480413
:1027000005F0AFF84FF4E06003F01EFC26208DF8D2
:10271000000000208DF8010006208DF80200012045
:102720008DF80300684603F014FC0420ADF8140093
:1027300018208DF8170003208DF8160005A92948E8
:1027400004F0CCFD0820ADF8140004208DF817002B
:1027500005A9244804F0C2FD01940020ADF808004A
:10276000ADF80A00ADF80C00ADF810000C20ADF883
:102770000E0001A91C4806F020F8012240F2255164
:10278000194806F0B2F8012240F22661164806F018
:10279000ACF80121144806F09CF806B010BD10B545
:1027A0002021114806F070F9012808D120210E4897
:1027B00006F077F90D48007808B1FFF7DEFB4021FD
:1027C000094806F061F9012808D14021064806F0C1
:1027D00068F90648007808B1FFF736FB0120034985
:1027E000087010BD0008014000440040280100208E
:1027F00008B501217D2005F027F8F020ADF8000094
:1028000048208DF8030003208DF802006946B54882
:1028100004F064FD4FF20300ADF8000048208DF88D
:10282000030003208DF802006946AF4804F056FD0E
:102830004FF47C70ADF8000048208DF803000320B1
:102840008DF802006946A94804F048FD4FF47F4026
:10285000ADF8000048208DF8030003208DF8020039
:102860006946A34804F03AFD4FF4FF40ADF800007C
:1028700048208DF8030003208DF8020069469D482A
:1028800004F02CFD00209C4908709C489C4908607D
:102890009C4888609948C8609A49994841619A481B
:1028A00097498861994996480162944894494862D9
:1028B00094499348C1629148954908609548486099
:1028C00000208860944908609449086008BD2DE99B
:1028D000FF4782B01C46DDE90E7800200090019091
:1028E0008F4801688F48006806F03AFD04D0002048
:1028F0008A4908608C4908608A4801688B480068EA
:1029000006F08DFA844908600846006806F0D0FC9D
:1029100005464FF03332864B06F0DEFC0DD27E4882
:10292000006806F0C5FC05464FF03332814B06F0D7
:10293000E7FC02D2002078490860774903980968CB
:1029400006F073FA054678480168284606F015FA3D
:1029500075490860714801686F48006806F05FFAC1
:1029600081464946049806F060FA06466A4902988C
:10297000096806F05AFA82466B480168504606F02C
:10298000FCF90546314606F0F8F9A060A06806F0AB
:102990008FFC05464FF03332674B06F0B1FC02D88E
:1029A0006648A0600BE0A06806F082FC05464FF088
:1029B0003332634B06F090FC01D86248A060A068F7
:1029C00006F076FC0546604A604B06F085FC0AD8A6
:1029D000A06806F06DFC05465B4A5D4B06F090FC76
:1029E00001D80020A0604C4800684C4908604D4860
:1029F00000684B49086006B0BDE8F0872DE9F0415A
:102A000088B007460E46144600253B480078A0B122
:102A100000BF0DE005EB4500394901EB800005EBF7
:102A200045014C4A02EB81030ECB0EC0681CC5B2B7
:102A3000042DEFDB002030490870012E06D0022E55
:102A40000CD0032E17D0042E2BD11DE02C4A07CA20
:102A500005AB07C302940020039023E0284AD2E983
:102A600003105269CDE90602059184F000400290FE
:102A70000020039016E0224A183207CA05AB07C3AC
:102A80000020029003940DE01D4AD2E90910D26A99
:102A9000CDE9060205910020029084F000400390E9
:102AA00000E000BF00BF204606F0E9FBB0F10008DF
:102AB00001DB404601E0C8F1000010B9264800786B
:102AC00038B102AB1248CDE9006407C8FFF7FFFE3A
:102AD00001E00020049002A807C887E8070008B0BA
:102AE000BDE8F08100080140000C014000100140E9
:102AF0000014014000180140380100208FC2753DCC
:102B00000C1C00208FC2F53C8FC275BD8FC2F5BC76
:102B10003C1C00200AD7A33B3C01002040010020C0
:102B200034010020B401002030010020B402002054
:102B30003333D33F3333D3BF3333E33F9A99193F12
:102B40003333E3BF9A9919BF7B14AE47E17A843FD0
:102B5000E17A84BFDC1B00206E010020014601EBFE
:102B600041005E4A52F8200008B908207047002052
:102B700001EB4102594B43F8220001EB410203EB08
:102B80008202908001EB410203EB8202D08001EBD4
:102B9000410203EB8202107200BFE7E710B5FDF7B8
:102BA00031FF002404E02046FFF7D8FF601CC4B2C8
:102BB000102CF8DB10BD10B5FDF75AFF10BD70B535
:102BC00003460C46002101E0481CC1B201EB410064
:102BD000424D55F8200008B11029F5DB102901D12C
:102BE000082070BD01EB41003C4D45F8203001EB61
:102BF000410005EB8000848001EB410005EB800083
:102C0000C280002001EB4105344E06EB8505287299
:102C10000846E6E7704710B5002420E004EB4400C6
:102C20002E4901EB8000007A002816DD04EB4401F8
:102C30002A4A52F821008047002004EB4401274A29
:102C400002EB8101087204EB4400114601EB8000A5
:102C5000C08810B92046FFF781FF601CC4B2102C59
:102C6000DCDBFFF7D7FF10BD002033E000EB4001B5
:102C70001A4A52F8211059B300EB400102EB8101CE
:102C80008988C1B9012100EB4002144B03EB820299
:102C9000117200EB40011A4602EB8101C988B9B1FB
:102CA00000EB400102EB8101C98800EB400203EB1D
:102CB000820291800CE000EB4001084A02EB8101A6
:102CC0008988491E00EB4002044B03EB820291808D
:102CD000411CC8B21028C9DB70470000481C002006
:102CE0000120674908706748674908600420674900
:102CF0000860002066494860002165488160C16025
:102D00000120634908740020704710B58CB0044658
:102D1000201D07C809AB07C301A809A90EC9FEF702
:102D200024FF02A80DC80199CDE90723CDE90510BC
:102D300005A80FC8FEF7F8FF0CB010BD10B50024B1
:102D40004F480078C0B100BF08E04F48006850F815
:102D50002400007C00B105E0601CC4B24B48006850
:102D60008442F2DB00BF474850F82400494908601C
:102D700008460068FFF7C9FF10BD0EB54648007849
:102D800068B1052045490870454800684860002141
:102D900042488160C1600120404908742BE04148ED
:102DA000007878B105203D49087000204860002176
:102DB0003A4881603A4801683848C1600120374983
:102DC000087418E03848007890B10520334908703D
:102DD00033480268354801786846FFF70FFE2F48F0
:102DE0009DE80E00001D0EC001202C49087402E071
:102DF00000202A4908740EBD30B502460B46002457
:102E0000002104E0555C2544ECB24D1CE9B20829D0
:102E1000F8DB9C4201DB012000E0002030BD30B532
:102E200003460C460020214605E05D5C012D00D1E3
:102E300001204D1CE9B29142F7DD30BD0EB51C48B2
:102E4000007890B105201B4908701B48026817489C
:102E500001786846FFF7D2FD16489DE80E00001D78
:102E60000EC001201349087402E0002011490874C3
:102E70000EBD10B5FFF781FFFFF760FF10BD00002A
:102E80008001002058010020780100207C010020F2
:102E9000501D0020680100206C010020141D00203E
:102EA000100100206D01002014010020B00100205D
:102EB0008C0100203C1D00209001002038B5044604
:102EC0000020FE490870FE490870FE490870FE495E
:102ED00008701420FD490860204600F0E0FC6B46B5
:102EE00020221146FA48FDF7F3F9FA49086038BD87
:102EF00010B5F6480068142800D110BD002240F239
:102F00002661F54805F0F1FCF448EF49097810F81E
:102F1000310010B3EC480078EA49097888421CD0A7
:102F2000EE48E949097810F83100401EEB49E64ABD
:102F3000127801F832000846E34A127800EBC2002A
:102F40004068E74A1278815CE34805F02FFDE448C9
:102F50000078401CE24908705BE0DB480078D94902
:102F6000097888424CD0DD48D74A127800EBC2007D
:102F70004168D8480068FDF700FAD3480078401C43
:102F8000C0B2D1490870142801DB00200870CF4876
:102F90000068401CCD490860142801D31420086043
:102FA0000020CF490870C8480078C649097888428F
:102FB0001CD0CA48C449097810F83100401EC1B27B
:102FC000C648C14A127800F83210BF4A127800EBA6
:102FD000C2004068C24A1278815CBF4805F0E6FC36
:102FE000BF480078401CBE49087012E00020BD496F
:102FF00008701420B54908600020B949087008E03D
:103000000020B84908701420B04908600020B44975
:103010000870012240F22661AF4805F066FC00BF4F
:103020006BE710B5AC4805F0C5FCC1B2A348027807
:103030000078401CA14B1870AB48815418460078AA
:103040009F490978884204D19D480078401C9C49DA
:10305000087010BDF8B505460C4626460CB901208F
:10306000F8BD002240F226619B4805F03EFC1C2082
:1030700094FBF0F100FB114028B11C2094FBF0F010
:10308000401CC4B203E01C2094FBF0F0C4B28F4893
:103090000068A04207D2012240F226618E4805F066
:1030A00024FCFF20DCE769468A480068FDF74FF9F9
:1030B0008A49844A127801EBC2014860814800784D
:1030C000142802DB00207F49087000242FE02878B4
:1030D00082497C4A127801EBC20149680855601C9C
:1030E000C4B21C2C20DB1C217C48764A127800F8E4
:1030F000321074480078401CC0B27249087014281D
:1031000001DB00200870694672480068FDF71FF96E
:1031100072496C4A127801EBC20148606B48006842
:10312000401E6A49086000246D1C701EC6B2002E45
:10313000CDD19CB169486349097800F831406348B2
:103140000068401E614908605E480078401CC0B2BB
:103150005C490870142801DB002008706148007881
:1031600020B9FFF7C5FE01205E490870012240F238
:103170002661594805F0B9FB002071E770B5054696
:10318000002400E0641C285D0028FBD1E1B2284641
:10319000FFF760FF70BD30B54FF0FF3062E0534C79
:1031A0002478002C37D10022454C2478241FE1B22A
:1031B0004D4C645C552C01D1541CE2B2404C247837
:1031C000E41EE1B2484C645CAA2C01D1541CE2B26A
:1031D0003B4C2478A41EE1B2434C645C152C01D115
:1031E000541CE2B2032A38D10124404D2C70344CD7
:1031F0002478641EE1B23C4C645C3D4D2C70304C34
:1032000024783C4D2C702E4C2478394D2D782C444C
:10321000394D2C7021E02A4C2478374D2D78AC4262
:103220001BD10024314D2C70324C23780022002118
:1032300007E02D4CE45C1444E2B25C1CE3B24C1C8D
:10324000E1B22B4C2478A142F3DB274CE45C94429E
:1032500003D1254C274D2D78605D194C2478641CD2
:10326000174D2C70164C2478144D2D78AC4296D105
:1032700030BD2DE9F04305460E46079C002700208F
:103280004FF055098046401C04F808904FF0AA09F9
:103290008046401C04F808904FF015098046401CF9
:1032A00004F8089003F1020C8046401C04F808C0A2
:1032B0008046401C04F8085080461FE0A40100200E
:1032C000A50100209B0100209C010020A0010020FE
:1032D000101F0020AC01002000480040701D00209D
:1032E0009A01002084010020101E0020A801002067
:1032F000A9010020A6010020A7010020401C04F81D
:1033000008605BB905EB060C0CF0FF07844600F182
:10331000010808F0FF0004F80C7020E005EB060C33
:103320000CF0FF07002111E012F80190844600F133
:10333000010808F0FF0004F80C9012F801C0BC442A
:103340000CF0FF0701F1010C0CF0FF019942EBDBDF
:10335000844600F1010808F0FF0004F80C70BDE895
:10336000F0832DE9F84F8246504605F065FF009046
:1033700005F09EFF80460022F84B05F0E5FE06466C
:103380000022F74B05F06EFE044605F0CDFF8346A4
:103390005846BDE8F88F10B5014600200A46F14CAA
:1033A000A35C541CE2B2EF4CA45C43EA042010BDC1
:1033B0002DE9F04FC7B04FF4807107A805F0C5FCA8
:1033C00000200690039004900590E7490870E548B6
:1033D000E649097810F80190B9F1040F7ED009DCB4
:1033E000B9F1010F0DD0B9F1020F78D0B9F1030F87
:1033F00076D1A9E1B9F1050F73D0B9F1FF0FF7D17B
:10340000EBE1D849D9480078401C0C5C132C02D061
:10341000142C67D1BFE0D349D4480078801C0E5CDF
:10342000304605F01FFF82460022D14B05F08CFE8E
:10343000074605F079FFCF490860CA49CB480078B4
:10344000C01C0E5C304605F00DFF07460022C84B3D
:1034500005F07AFE824605F067FFC6498860C149DB
:10346000C2480078001D0E5C304605F0FBFE824627
:103470000022BF4B05F068FE074605F055FFBD4929
:10348000C860B849B9480078401D0E5C304605F068
:10349000E9FE07460022B64B05F056FE824605F0CF
:1034A00043FFB4494861AF49B0480078801D0E5CC5
:1034B000704205F0C6FE07460022AD4B05F044FE03
:1034C000824605F031FFAB498861A649A7480078DC
:1034D000C01D0E5C704205F0B4FE04E07CE1A4E087
:1034E0008EE1DAE09EE007460022A14B05F02CFEBB
:1034F000824605F019FF9F4908629A499B48007867
:1035000008300E5C304605F0ADFE82460022984B36
:1035100005F01AFE074605F007FF964948629149F3
:103520009248007809300E5C304605F09BFE074655
:1035300000228F4B05F008FE824605F0F5FE8D490E
:10354000C86200250BE089480078801C2844854922
:10355000095C05F10800884A1154681CC5B2082DA1
:10356000F1DB854A1021854800F039FA07A8009060
:103570007C487E4909780844821C08232146484635
:10358000FFF777FE069007A80699FFF763FD012075
:103590007B49087047E075490978891CC8B2FFF774
:1035A000FAFE7849086071490978091DC8B2FFF729
:1035B000F2FE754908606D490978891DC8B2FFF7A8
:1035C000EAFE72490860694909780831C8B2FFF714
:1035D000E2FE6F490860002509E064480078801C1D
:1035E00028446049085C64494855681CC5B2082DE8
:1035F000F3DB614A1021614800F0F1F9654804707D
:1036000007A800905748594909780844821C0823A4
:1036100021464846FFF72DFE069007A80699FFF7BA
:1036200019FD00E000BF00BFEBE04E494F480078B5
:10363000401C0C5C082C2DD2DFE804F02C0405069D
:10364000072C081627E026E025E024E007A8002341
:103650001A46214600904846FFF70BFE069007A841
:103660000699FFF7F7FC16E04B4800681421B0FB01
:10367000F1F0C0B28DF8080007A8012302AA214684
:1036800000904846FFF7F5FD069007A80699FFF75A
:10369000E1FC00E000BF00BFB3E0324933480078EE
:1036A000401C0C5C022C02D0042C4AD132E02D4983
:1036B0002E480078801C0E5C384806702B48007835
:1036C000C01C0E5C3046FFF74CFE3549086035499A
:1036D0003348006805F04EFE00D833E032480068F9
:1036E0003249086001203249087000202A490860E8
:1036F00007A800901B481D4909780844821C042330
:1037000021464846FFF7B5FD069007A80699FFF742
:10371000A1FC17E0FEF7F6FA0020254908701E49C3
:1037200008601F49086007A800231A462146009038
:103730004846FFF79EFD069007A80699FFF78AFC0A
:1037400000E000BF00BF5CE0064908480078401C6C
:103750000C5C012C2ED0022C3BD133E000E06F40FA
:1037600000008940101E00208B010020A6010020CF
:1037700000408F40DC1B00201023002010F00108C7
:1037800038010020480100204C0100205001002099
:1037900054010020BA01002040030020B0010020A5
:1037A000900100200000C843B4020020B4010020B2
:1037B0008C0100202B480078062802DC01202A49D1
:1037C000087007E0002028490870039004900590D5
:1037D00000E000BF00BF14E013E0012C02D0022C77
:1037E0000BD103E001202049087007E000201E49AA
:1037F000087003900490059000E000BF00BF00E057
:1038000000BF00BF47B0BDE8F08F10B51748007883
:1038100017490978884205D0FFF7BDFC401C01D04C
:10382000FFF7C6FD10BD0146012903DB642901DA5B
:10383000104806E0642903DBFF2901DC0E4800E0A4
:103840000020704710B502460B460020002105E01D
:10385000545C8C400443E0B24C1CE1B29942F7DB6B
:1038600010BD0000BA0100208B010020A50100203E
:10387000A40100209CC4A03E9CC4A0BE08B5272083
:103880008DF8000000208DF8010006208DF8020060
:1038900001208DF80300684602F05BFB08BD10B5FF
:1038A00086B004460121082003F0CEFF01218804E0
:1038B00003F0D7FF4FF4E06002F046FB27208DF8BD
:1038C000000000208DF8010006208DF80200012084
:1038D0008DF80300684602F03CFB4FF48060ADF8C1
:1038E000140018208DF8170003208DF8160005A984
:1038F0002B4803F0F3FC4FF40060ADF814000420F3
:103900008DF8170005A9264803F0E8FC0194002073
:10391000ADF80800ADF80A00ADF80C00ADF81000E5
:103920000C20ADF80E0001A91E4804F046FF01224C
:1039300040F225511B4804F0D8FF012240F22661D5
:10394000184804F0D2FF0121164804F0C2FF06B067
:1039500010BD10B52021134805F096F8012805D1B7
:103960002021104805F09DF8FFF75BFB40210D4832
:1039700005F08AF8012805D140210A4805F091F8A0
:10398000FFF7B6FA0821074805F07EF8012806D1AE
:103990000821044805F085F8024805F00BF810BD31
:1039A000000C01400048004070B504460D462668F2
:1039B000701C08D103F073F92946204603F084FAFD
:1039C00003F079F90AE003F06AF9204603F0ACF954
:1039D0002946204603F078FA03F06DF970BD2DE911
:1039E000F04105460E461746002429E055F80480AC
:1039F000385D9C49087038194078487018F101000A
:103A00000AD103F04CF9974A128891B2281903F0B1
:103A10008EFA03F050F90CE003F041F9281903F095
:103A200083F9904A128891B2281903F080FA03F0C2
:103A300042F9012E00D105E0A01C84B2B01E86B26E
:103A4000002ED3D100BFBDE8F08130B50346002081
:103A500013E01C5A834D2C60012903D12C46247895
:103A600014540CE07F4C247814547E4C6478151860
:103A70006C70841CA0B28C1EA1B20029E9D100BFD9
:103A800030BD2DE9F74183B00D46164600270024CE
:103A900000200190A8460420029003F000F906F2ED
:103AA000FF30800A0190352003F094FB00BF08E04E
:103AB0004FF48062039902FB071003F035F902907E
:103AC0007F1C0198874203D29DF808000428EFD09C
:103AD000039C05E002CD204603F0F6F90290241D78
:103AE00003983044A04203D99DF808000428F1D07F
:103AF000039C09E058F8041B2068814203D0002091
:103B000006B0BDE8F081241D03983044A042F1D8EE
:103B100003F0D1F80120F3E737B5044615462A46ED
:103B20002046019905F0F8F801203EBD2DE9F0414D
:103B30004D4A10214D48FFF788FF4B4800784A490D
:103B4000497840EA01204A49086047488078464958
:103B5000C97840EA01204749086043480079424952
:103B6000497940EA0120444908603F4880793E494C
:103B7000C97940EA0120414908603B49087A05F0CB
:103B800071FB064600223E4B05F0DEFA044605F0C6
:103B9000CBFB3C4908603449487A05F063FB064694
:103BA0000022374B05F0D0FA044605F0BDFB35493D
:103BB00088602D49887A05F055FB06460022304B77
:103BC00005F0C2FA044605F0AFFB2E49C86026494D
:103BD000C87A05F047FB06460022294B05F0B4FAE7
:103BE000044605F0A1FB274948611F49097B48426B
:103BF00005F027FB06460022214B05F0A5FA0446F6
:103C000005F092FB1F4988611749497B484205F03E
:103C100018FB064600221A4B05F096FA044605F0FA
:103C200083FB184908621049887B05F01BFB064698
:103C30000022134B05F088FA044605F075FB114984
:103C400048620949C87B05F00DFB064600220C4B73
:103C500005F07AFA044605F067FB0A49C862BDE838
:103C6000F0810000BC0100201023002010F00108AA
:103C7000480100204C010020500100205401002088
:103C800000408F400C1C00202DE9F04704464FF007
:103C90007C51204605F0C9F8814625462E46FE484F
:103CA000A0EB660635462946484605F0BEF8824632
:103CB000294605F0BAF880464FF07F5105F0B2F87A
:103CC0000746294605F0B1F805462846BDE8F087C5
:103CD00030B50021002300224C1E72E0EF4800782E
:103CE00078BB0022EE480178EE48405C552801D1AF
:103CF000501CC2B2EA480078401CC1B2E948405C9E
:103D000051280BD0E748405C522807D0E548405C7A
:103D1000542803D0E348405C532801D1501CC2B260
:103D2000022A49D10120DD4D2870DD480078DE4DA2
:103D30002870DB480078DD4D2D782844DC4D287054
:103D40003AE0FFE7D6480078D94D2D78A84233D124
:103D50000020D24D2870D44803780022002107E0CB
:103D6000D048C05C1044C2B2581CC3B2481CC1B297
:103D7000CE4800788142F3DBCA48CD4D2D78405DB6
:103D8000904219D1C74DC8480078401C285C44B205
:103D90000022002109E0C44800780844C3B2C148A9
:103DA000C05CC44D6854481CC1B2C0480078401C77
:103DB0008142F0DBE0B230BDB9480078401CB84D1C
:103DC0002870B7480078BC4D2D78A84286D100BF36
:103DD000F1E72DE9F04F87B08246BAF1510F7DD05F
:103DE000BAF1520F03D0BAF1540F78D137E1B1488C
:103DF000C078000200B2B1490880AE4880780988D6
:103E0000084400B2AD490880AA484079000200B2D7
:103E1000AB490880A74800790988084400B2A8493E
:103E20000880A448C079000200B2A6490880A148D1
:103E300080790988084400B2A24908809F48B0F9F7
:103E4000000005F0F0F9A049019004F0EEFF834670
:103E500005F02EFA804600229C4B05F075F90646C7
:103E600000229B4B05F0FEF800229A4BCDE902019F
:103E700005F06AF9984A994BCDE9040105F0F2F88A
:103E8000044605F051FA964908608D48B0F90000E3
:103E900005F0C9F98C49019004F0C7FF834605F08D
:103EA00007FA0022894BCDE9020105F04DF90646DB
:103EB0000022874B05F0D6F804460022854B05F01A
:103EC00043F9854A854BCDE9040105F0CBF88046DE
:103ED00005F02AFA834908607A4801E054E044E199
:103EE000B0F9000005F09FF97F49019004F09DFFB3
:103EF000834605F0DDF90022744BCDE9020105F09F
:103F000023F980460022724B05F0ACF806460022E9
:103F1000704B05F019F904466F4A704B05F0A2F892
:103F2000CDE9040105F000FA704908606C480068AA
:103F300005F0BEF921F0004104466D4A6D4B05F0D5
:103F4000CBF902D20020664908606648006805F097
:103F5000AFF921F000410446654A664B05F0BCF913
:103F600002D200205F4908606048006805F0A0F9AF
:103F700021F0004104465E4A5E4B05F0ADF902D2E5
:103F800000205A490860F1E04A48C078000200B2B7
:103F900059490880474880780988084400B2564942
:103FA000088044484079000200B2544908804148E2
:103FB00000790988084400B2504908803D48C0791A
:103FC000000200B24E4908803A48807909880844C6
:103FD00000B24B4908804848B0F9000005F023F9C9
:103FE0004849059004F021FF834605F061F9064633
:103FF0000022364B05F0A8F804460022424B05F09B
:1040000031F8804605F090F9404908603B48B0F926
:10401000000005F016F9064600222C4B05F094F836
:1040200004460022384B05F01DF8804605F07CF967
:10403000374908603248B0F9000005F002F98046BF
:104040000022224B05F080F8064600222E4B05F098
:1040500009F8044605F068F92E49086086E015481D
:10406000C078000200B22C49088012488078098884
:10407000084400B2284908800E484079000200B286
:10408000264908800B4800790988084400B2234972
:1040900008800848C07943E0DF59375FE802002014
:1040A000E900002018110020EA000020790000201B
:1040B000EB00002020230020E8000020C6010020A3
:1040C000C8010020CA0100200000A0410000E0401B
:1040D00000409F40008066404AD8124DFB210940B5
:1040E0001C020020200200200000E6C22402002062
:1040F0009A9999999999C93FC0010020C20100205D
:10410000C4010020000080BF0000304010020020E9
:104110001402002018020020CC010020CE01002053
:10412000000200B2FC490880FC48807909880844F4
:1041300000B2F9490880FA48B0F9000005F073F8B8
:104140000446F84904F071FEF7490860F748B0F9F1
:10415000000005F068F8F6490860EF48B0F9000083
:1041600005F061F8F349086000E000BF00BF07B048
:10417000BDE8F08F01B59AB0002019901890179003
:1041800016901A981590002014901598512808D070
:104190001598522805D01598532802D01598542800
:1041A0007ED1E548007800287BD11598FFF711FEF5
:1041B000159851281FD0522802D0542851D135E0EB
:1041C000DE480068DE49DF4A127841F82200DE4806
:1041D0000068DE49DB4A127841F82200DC480068BA
:1041E000DC49D84A127841F82200D6480078401CB1
:1041F000D449087045E0D8480168D848D84A1278B0
:1042000040F82210D7480168D748D54A127840F8BC
:104210002210D6480068D649D14A127841F82200C7
:10422000CF480078401CCE4908702AE0BE4800689C
:10423000D049D14A127841F82200BD480068CF49E0
:10424000CD4A127841F82200BA480068CC49CA4ADF
:10425000127841F82200C8480078401CC64908700E
:104260000FE0B8480078401CB6490870BC48007898
:10427000401CBB490870C0480078401CBE4908700B
:1042800000BF00BFAF48007806280ADDB4480078B8
:104290000628FADDB84800780628F6DD002001E09F
:1042A0002CE2A8E119900DE0A549199851F82000D9
:1042B00001461390149804F060FD14901998401C66
:1042C000C0B219909F49097819988842ECDB9D4843
:1042D000007804F0B1FF01461390149804F0DBFD60
:1042E000A84908600020149008460068A6490860A4
:1042F000002019900DE09549199851F820000146C9
:104300001390149804F039FD14901998401CC0B211
:1043100019908C49097819988842ECDB8948007813
:1043200004F08AFF01461390149804F0B4FD9549F7
:104330000860002014900846006894490860002036
:1043400019900DE08349199851F820000146139007
:10435000149804F012FD14901998401CC0B21990E2
:104360007849097819988842ECDB7648007804F09F
:1043700063FF01461390149804F08DFD8149086095
:1043800000201490084600688149086000201990B8
:104390000DE07249199851F82000014613901498C5
:1043A00004F0EBFC14901998401CC0B219906C49B1
:1043B000097819988842ECDB6948007804F03CFFE2
:1043C00001461390149804F066FD6E4908600020C1
:1043D0001490084600686F490860002019900DE0AD
:1043E0006149199851F8200001461390149804F07F
:1043F000C4FC14901998401CC0B21990584909780F
:1044000019988842ECDB5648007804F015FF014605
:104410001390149804F03FFD5A490860002014904E
:10442000084600685C490860002019900DE050497A
:10443000199851F8200001461390149804F09DFC3F
:1044400014901998401CC0B21990454909781998E0
:104450008842ECDB4248007804F0EEFE01461390FF
:10446000149804F018FD474908600020149008468D
:1044700000684A490860002019900DE03D491998EC
:1044800051F8200001461390149804F076FC149023
:104490001998401CC0B21990374909781998884278
:1044A000ECDB3548007804F0C7FE01461390149801
:1044B00004F0F1FC334908600020149008460068BD
:1044C00037490860002019900DE02C49199851F8DF
:1044D000200001461390149804F04FFC1490199892
:1044E000401CC0B219902449097819988842ECDB25
:1044F0002148007804F0A0FE01461390149804F0BF
:10450000CAFC20490860002014900846006825492C
:1045100008600020199055E0D001002020230020E1
:10452000CC010020000080BF28020020CE01002026
:104530002C02002030020020C00200201C020020BB
:104540002C23002028030020200200204C230020E0
:10455000240200206C230020100200208C23002065
:104560002903002014020020AC23002018020020A0
:10457000CC230020EC2300202A0300200C24002060
:104580002C240020BC020020C4020020C80200200D
:10459000CC020020D0020020D4020020D80200204B
:1045A000DC020020E0020020FE49199851F82000AA
:1045B00001461390149804F0E0FB14901998401CE5
:1045C000C0B21990F849097819988842ECDBF6488E
:1045D000007804F031FE01461390149804F05BFC5F
:1045E000F24908600020149008460068F04908600D
:1045F0000120F0490870EF48007800287ED0EE488E
:104600000168006804F011FC1290EC480168006831
:1046100004F00BFC1090EA480168006804F005FC07
:104620000F90109904F0A9FB1190129904F0A5FBCA
:104630001390FFF729FB1890E1481899006804F0DF
:10464000F4FBDF490860DD481899006804F0EDFBD1
:10465000DA490860D8481899006804F0E6FBD649A2
:104660000860D3480168006804F0DFFB1290D54869
:104670000168006804F0D9FB1090D3480168006815
:1046800004F0D3FB0F90109904F077FB119012996E
:1046900004F073FB1390FFF7F7FA1890CA481899C3
:1046A000006804F0C2FBC8490860C6481899006851
:1046B00004F0BBFBC3490860BD481899006804F0CA
:1046C000B4FBBB490860BC48006804F0F1FDCDE9CB
:1046D0001001BA48006804F0EBFDCDE90E01DDE9F8
:1046E000102306F039FACDE9120104F01DFEB74996
:1046F0000860B348006804F0DBFD00E08CE3CDE91E
:10470000100105F0D9FFCDE9120104F00DFEB0490A
:1047100008600846006804F0CBFDCDE9080106F00A
:10472000DBFACDE90C01A948006804F0C1FDCDE930
:10473000040106F027FBCDE908019D48006804F05C
:10474000B7FDCDE90601DDE9082304F08BFCCDE9D6
:104750000A01DDE90C2304F085FCCDE910019C4839
:10476000006804F0A5FDCDE9040106F00BFBCDE9DE
:1047700008019648006804F09BFDCDE9000106F0B1
:1047800001FBCDE904018F48006804F091FDCDE9FB
:104790000201DDE9042304F065FCCDE90601DDE951
:1047A000082304F05FFCCDE90C018848006804F0A0
:1047B0007FFDCDE9040106F08FFACDE908018248BA
:1047C000006804F075FDCDE90601DDE9082304F079
:1047D00049FCCDE90A01DDE90C2304F09CFBCDE99D
:1047E0000E01DDE9102304F037FCCDE9120104F0DD
:1047F0009BFD17907648006804F05AFDCDE908014A
:1048000006F0C0FACDE90C016948006804F050FDDB
:10481000CDE90A01DDE90C2304F024FCCDE9100107
:104820006B48006804F044FDCDE9080106F054FA35
:10483000CDE90C016348006804F03AFDCDE90A01B6
:10484000DDE90C2304F00EFCCDE90E01DDE91023B7
:1048500004F061FBCDE9120104F066FD1690002121
:10486000179804F07DFD03D2179880F00040179050
:104870000021169804F074FD03D2169880F00040D1
:10488000169000214F48006804F074FD17D20021F3
:104890004D48006804F064FD11D2DDE9160104F012
:1048A000FAFA0F9004F004FDCDE9100106F042F889
:1048B000CDE9120104F038FD4649086064E00021AA
:1048C0004048006804F04CFD1DD200213E480068BD
:1048D00004F046FD17D2DDE9160104F0DCFA0D9074
:1048E00004F0E6FCCDE90E0106F024F800223A4B74
:1048F000CDE9100104F0B6FBCDE9120104F014FD7E
:104900003449086040E000212E48006804F032FD80
:104910001DD200212C48006804F02CFD17D2DDE9DF
:10492000160104F0B8FA0D9004F0C2FCCDE90E01B6
:1049300006F000F8294A2A4BCDE9100104F08FFB5C
:10494000CDE9120104F0F0FC224908601CE0DDE929
:10495000160104F0A0FA0B9004F0AAFCCDE90C01BA
:1049600005F0E8FF1D4A1E4BCDE90E0104F077FB70
:104970000022194BCDE9100104F074FBCDE91201BE
:1049800004F0D2FC134908601248006804F090FC5F
:104990000022144BCDE9060104F064FBCDE90801C7
:1049A00022E000002C2400202A030020BC0200206A
:1049B000E4020020C0020020D8020020D40200201F
:1049C000D0020020E0020020DC020020AC02002027
:1049D000B0020020B40200200000F0BF4AD8124DFF
:1049E000FB2109400000E03F06F0CCF9CDE90C01C5
:1049F000FE48006804F05CFC0022FD4BCDE902019A
:104A000004F030FBCDE9040106F0BCF9CDE9080162
:104A1000F848006804F04CFC0022F54BCDE9020197
:104A200004F020FBCDE9040106F0ACF9CDE9060164
:104A3000DDE9082304F016FBCDE90A01DDE90C23CA
:104A400004F010FBCDE91001EB48006804F030FCE5
:104A50000022E74BCDE9060104F004FBCDE9080193
:104A600006F03AF9CDE90C01E048006804F020FCBA
:104A70000022DF4BCDE9020104F0F4FACDE9040194
:104A800006F02AF9CDE90801DA48006804F010FCC4
:104A90000022D74BCDE9020104F0E4FACDE904018C
:104AA00006F01AF9CDE90601DDE9082304F0DAFA87
:104AB000CDE90A01DDE90C2304F0D4FACDE90E01B9
:104AC000DDE9102304F027FACDE9120104F02CFCF3
:104AD000CA490860C848006804F0EAFB0022C44BD9
:104AE000CDE9060104F0BEFACDE9080106F04AF965
:104AF000CDE90C01BD48006804F0DAFB0022BC4B94
:104B0000CDE9020104F0AEFACDE9040106F03AF96C
:104B1000CDE90801B748006804F0CAFB0022B44B95
:104B2000CDE9020104F09EFACDE9040106F0D4F8C3
:104B3000CDE90601DDE9082304F094FACDE90A0184
:104B4000DDE90C2304F08EFACDE91001AA480068D3
:104B500004F0AEFB0022A64BCDE9060104F082FA78
:104B6000CDE9080106F0B8F8CDE90C019F480068CE
:104B700004F09EFB00229E4BCDE9020104F072FA84
:104B8000CDE9040106F0A8F8CDE9080199480068CC
:104B900004F08EFB0022964BCDE9020104F062FA8C
:104BA000CDE9040106F0EEF8CDE90601DDE90823C0
:104BB00004F058FACDE90A01DDE90C2304F052FAB9
:104BC000CDE90E01DDE9102304F046FACDE912012A
:104BD00004F0AAFB8A4908608748006804F068FB73
:104BE0000022834BCDE9060104F03CFACDE908012F
:104BF00006F0C8F8CDE90C017C48006804F058FBC9
:104C000000227B4BCDE9020104F02CFACDE904012E
:104C100006F062F8CDE908017648006804F048FB28
:104C20000022734BCDE9020104F01CFACDE9040126
:104C300006F0A8F8CDE90601DDE9082304F012FA30
:104C4000CDE90A01DDE90C2304F00CFACDE91001ED
:104C50006948006804F02CFB0022654BCDE9060191
:104C600004F000FACDE9080106F036F8CDE90C01B0
:104C70005E48006804F01CFB00225D4BCDE9020198
:104C800004F0F0F9CDE9040106F07CF8CDE9080163
:104C90005848006804F00CFB0022554BCDE9020196
:104CA00004F0E0F9CDE9040106F016F8CDE90601BB
:104CB000DDE9082304F0D6F9CDE90A01DDE90C238A
:104CC00004F0D0F9CDE90E01DDE9102304F023F959
:104CD000CDE9120104F028FB4A4908604648006803
:104CE00004F0E6FA0022424BCDE9060104F0BAF9DD
:104CF000CDE9080105F0F0FFCDE90C013B48006863
:104D000004F0D6FA00223A4BCDE9020104F0AAF9E8
:104D1000CDE9040106F036F8CDE908013548006810
:104D200004F0C6FA0022324BCDE9020104F09AF9F0
:104D3000CDE9040106F026F8CDE90601DDE90823F6
:104D400004F090F9CDE90A01DDE90C2304F08AF9B9
:104D5000CDE910012848006804F0AAFA0022244B8B
:104D6000CDE9060104F07EF9CDE9080106F00AF864
:104D7000CDE90C011D48006804F09AFA00221C4B92
:104D8000CDE9020104F06EF9CDE9040105F0A4FFBC
:104D9000CDE908011748006804F08AFA0022144B94
:104DA000CDE9020104F05EF9CDE9040105F094FFBC
:104DB000CDE90601DDE9082304F054F9CDE90A0143
:104DC000DDE90C2304F04EF9CDE90E01DDE91023F5
:104DD00004F042F9CDE9120104F0A6FA0A4908608C
:104DE00000200A4908700A49087013E0B002002048
:104DF0000000E03FAC020020B40200204802002086
:104E00004C02002050020020540200202803002001
:104E100029030020FD4908701BB000BD01B598B002
:104E2000002016901590149018981390002012905E
:104E3000119010900F900E900D900C900B900A9086
:104E4000FBF7BFFE099004F0F7F9F14908601398E9
:104E5000512808D01398522805D01398532802D00F
:104E60001398542870D11398FEF7B3FFE9480068EF
:104E7000E949EA4A127841F82200E9480168E9481C
:104E8000E64A127840F82210E7480168E748E34A0A
:104E9000127840F82210E6480068E649DF4A1278A6
:104EA00041F82200E4480168E448DC4A127840F8FE
:104EB0002210E3480068E349D84A127841F82200FA
:104EC000E1480068E149D54A127841F82200E048FB
:104ED0000068E049D14A127841F82200DE480068B3
:104EE000DE49CE4A127841F82200CC480078401CB6
:104EF000CA49087008460078062801DD00200870BD
:104F0000002016900DE0C449169851F82000014683
:104F10000990149803F031FF14901698401CC0B209
:104F2000169016980628EEDBCD49149803F0B3FFCF
:104F30000990CC480168099803F071FFCA490860DC
:104F40000020149016900EE0E4E0B649169851F84F
:104F5000200001460990149803F00FFF1490169852
:104F6000401CC0B2169016980628EEDBBC49149877
:104F700003F091FF0990BD480168099803F04FFFC5
:104F8000BB4908600020149016900DE0A7491698C0
:104F900051F8200001460990149803F0EEFE149099
:104FA0001698401CC0B2169016980628EEDBAC4945
:104FB000149803F070FF0990AE480168099803F057
:104FC0002EFFAD4908600020149016900DE099491D
:104FD000169851F8200001460990149803F0CDFE70
:104FE00014901698401CC0B2169016980628EEDB56
:104FF0009B49149803F04FFFA049086000201490CB
:1050000016900DE08D49169851F820000146099040
:10501000149803F0B2FE14901698401CC0B216907B
:1050200016980628EEDB8E49149803F034FF944955
:1050300008600020149016900DE08249169851F8EF
:10504000200001460990149803F097FE14901698DA
:10505000401CC0B2169016980628EEDB80491498C2
:1050600003F019FF874908600020149016900DE0A6
:105070007649169851F8200001460990149803F0DB
:105080007CFE14901698401CC0B216901698062804
:10509000EEDB7349149803F0FEFE7B4908600020A4
:1050A000149016900DE06B49169851F820000146B7
:1050B0000990149803F061FE14901698401CC0B239
:1050C000169016980628EEDB6549149803F0E3FE67
:1050D0006E4908600020149016900DE05F49169804
:1050E00051F8200001460990149803F046FE1490F0
:1050F0001698401CC0B2169016980628EEDB584948
:10510000149803F0C8FE6249086000201490012042
:10511000604908705F480078002876D059480168D7
:10512000006803F082FE089055480168006803F0AB
:105130007CFE069051480168006803F076FE0590F9
:10514000069903F01AFE0790089903F016FE0990DD
:10515000FEF79AFD159049481599006803F065FE21
:105160004649086046481599006803F05EFE4449C8
:10517000086044481599006803F057FE41490860EB
:1051800043480168006803F050FE08903F480168FA
:10519000006803F04AFE06903B480168006803F08F
:1051A00044FE0590069903F0E8FD0790089903F086
:1051B000E4FD0990FEF768FD1590334815990068E5
:1051C00003F033FE3049086030481599006803F059
:1051D0002CFE2E4908602E481599006803F025FE24
:1051E0002B4908602C4801682C48006803F01DFE1C
:1051F00012902B4801682948006803F016FE1190B0
:1052000028480168254800684EE0FDE32A03002095
:105210001C0300201C0200202C230020B8020020C8
:10522000200200204C230020240200206C230020B8
:10523000100200208C23002014020020AC23002048
:1052400018020020CC23002028020020EC2300209C
:105250002C0200200C240020300200202C240020EE
:105260000000C040C4020020E0010020C80200206D
:10527000E4010020CC020020E8010020D40100203D
:10528000D8010020DC010020EC010020F00100200A
:10529000F4010020C10200204C020020480200203E
:1052A000500200205402002003F0BFFD1090FE4881
:1052B0000168006803F0B9FD0F90FC480168FA48E6
:1052C000006803F0B2FD0E90F9480168F6480068E6
:1052D00003F0ABFD0D90F5480168006803F0A5FDF3
:1052E0000C90F3480168F148006803F09EFD0B90B4
:1052F000EF480168006803F098FD0A9011990D9835
:1053000003F03BFD0690EB480168069803F08DFD25
:10531000089010990E9803F082FD0490E648016809
:10532000049803F082FD06904FF07C500C9903F036
:1053300076FD03900A9903F072FD0490DF4801683E
:10534000049803F072FD0590069903F016FD07908E
:10535000089903F012FD4FF08041099003F065FDBC
:10536000D749086012990B9803F059FD0690D1486F
:105370000168069803F059FD08904FF07C500F9992
:1053800003F04DFD03900A9903F049FD0490CA48CB
:105390000168049803F049FD069010990E9803F0F7
:1053A000ECFC0490C5480168049803F03EFD0590AC
:1053B000069903F0E2FC0790089903F0DEFC4FF039
:1053C0008041099003F031FDBE490860084601683C
:1053D000006803F02AFD0490B9480168006803F0F2
:1053E00024FD0390049903F0C8FC059003F060FFCE
:1053F000CDE9060105F01EFDCDE9080103F094FF9B
:10540000B14908604FF07C500F9903F008FD0590FA
:105410000C9903F004FD0690A6480168069803F075
:1054200004FD089012990B9803F0A7FC0490A24881
:105430000168049803F0F9FC069011990D9803F0A7
:10544000EEFC04909D480168049803F0EEFC059082
:10545000069903F092FC0790089903F08EFC4FF038
:105460008041099003F0E1FC9849086011990D987A
:1054700003F0D5FC039003F01BFF00224FF08043A4
:10548000CDE9040103F0EEFD0022914BCDE90601C8
:1054900003F0E8FDCDE9080103F046FF8D490860FF
:1054A0000B99129803F069FC059003F001FF0022AC
:1054B0004FF08043CDE9060103F0D4FDCDE90801AA
:1054C00003F032FF844908604FF07C500F9903F0DD
:1054D000A6FC04900C9903F0A2FC059003F0E8FEF2
:1054E00000224FF08043CDE9060103F0BBFDCDE97A
:1054F000080103F019FF7949086011990D9803F02C
:105500008EFC029071480168029803F08EFC0490B2
:105510004FF07C500C9903F082FC01900A9903F043
:105520007EFC029068480168029803F07EFC0390BC
:10553000049903F022FC059003F0BAFE00224FF01C
:105540004043CDE9060103F08DFDCDE9080103F0EC
:10555000EBFE634908600B99129803F00EFC029071
:105560005A480168029803F060FC049010990E9864
:1055700003F055FC029054480168029803F055FC72
:105580000390049903F0F9FB059003F091FE0022CB
:105590004FF08043CDE9060103F064FDCDE9080139
:1055A00003F0C2FE4F4908604FF07C500F9903F0A2
:1055B00036FC01900C9903F032FC029043480168DC
:1055C000029803F032FC04900D99119803F0D5FB7A
:1055D00002903D480168029803F027FC039004996B
:1055E00003F0CBFB059003F063FE00224FF08043F5
:1055F000CDE9060103F036FDCDE9080103F094FE84
:1056000039490860374801682A48006803F00DFCF2
:105610000790354801682848006803F006FC0690AA
:10562000079903F0FCFB09902B4801682F4800689C
:1056300003F0FBFB0790294801682D48006803F040
:10564000F4FB0690079903F0EAFB0890099903F030
:1056500094FB28490860244801681848006803F052
:10566000E4FB07901E4801681248006803F0DDFB68
:105670000690079903F0D3FB0990184801681E486B
:10568000006803F0D2FB07901248016817480068D1
:1056900003F0CBFB0690079903F0C1FB0890099932
:1056A00003F06BFB15492BE04C0200205002002058
:1056B00054020020F4010020F0010020EC01002041
:1056C0003C0200204002002034020020380200206A
:1056D0000000F0BF7C020020800200208402002035
:1056E000880200208C02002090020020DC010020B3
:1056F000D8010020EC020020D4010020F00200209C
:105700000860FE480168FE48006803F08EFB0790C1
:10571000FC480168FC48006803F087FB0690079985
:1057200003F07DFB0990F9480168F948006803F02F
:105730007CFB0790F7480168F748006803F075FBA9
:105740000690079903F06BFB0890099903F015FB8D
:10575000F2490860F248006803F0AAFD21F0004118
:10576000F04AF14BCDE9080103F0B6FD02D200206A
:10577000EB490860ED48006803F09AFD21F0004114
:10578000E84AE94BCDE9080103F0A6FD02D200206A
:10579000E6490860E148006803F08AFD21F0004115
:1057A000E04AE14BCDE9080103F096FD02D200206A
:1057B000DA490860DE480168D948006803F02FFB29
:1057C000DC490860DC480168D848006803F027FB22
:1057D000DA490860DA480168D048006803F01FFB26
:1057E000D8490860CE480068D1490860CF480068B1
:1057F000D1490860C9480068D14908600021C848FB
:10580000006803F0ADFD4ED00021C848006803F0E9
:10581000A7FD48D00021C148006803F0A1FD42D097
:10582000BF480168C848006803F0FFFA0990C748FC
:105830000168099803F0A1FAC4490860BB480168EF
:10584000C348006803F0F1FA0990C248016809985A
:1058500003F093FABF490860B0480168BE48006889
:1058600003F0E3FA0990BD480168099803F085FA4E
:10587000BA490860B5480168B948006803F07DFA84
:10588000B7490860B3480168B648006803F075FA84
:10589000B4490860B1480168B348006803F06DFA84
:1058A000B149086006E00020A8490860A9490860DD
:1058B000AA4908609A480168AC48006803F0B5FA44
:1058C0000990A7480168099803F057FAA4490860AD
:1058D00096480168A648006803F0A7FA0990A14815
:1058E0000168099803F049FA9E4908608B480168ED
:1058F000A048006803F099FA09909B48016809984C
:1059000003F03BFA984908608A4801689A480068A1
:1059100003F08BFA099092480168099803F02DFA78
:105920008F490860854801689448006803F07DFA53
:1059300009908C480168099803F01FFA89490860AA
:10594000804801688E48006803F06FFA0990864825
:105950000168099803F011FA8349086080480068DB
:10596000884908607F480068874908607E48006869
:1059700086490860FBF725F9099003F05DFC84492E
:105980000860844801688248006803F0F3FC15D27F
:10599000804801687E48006803F041FA059003F0F2
:1059A00087FC7D4A7D4BCDE9060103F05BFBCDE929
:1059B000080103F0B9FC7A4908601AE074480168EC
:1059C0004FF09E4003F0D9F90490724801680498A2
:1059D00003F025FA059003F06BFC6F4A6F4BCDE99D
:1059E000060103F03FFBCDE9080103F09DFC6C4983
:1059F0000860664801686B48006803F016FA6A4957
:105A0000049003F012FA00E078E106905E48016825
:105A10006648006803F009FA6349029003F005FA4A
:105A200004906348006880F0004002905548016887
:105A3000029803F0FAF90390049903F0F0F9059045
:105A4000069903F0ECF9079055480168079803F0B0
:105A5000ECF94FF08041089003F01DFA0990554889
:105A60000168099803F089F95249086046480168BD
:105A70004C48006803F0D9F94B49049003F0D5F97C
:105A80000690424801684948006803F0CEF946494B
:105A9000029003F0CAF904903A480168454800684A
:105AA00003F0C3F90390049903F067F90590069990
:105AB00003F0B5F907903A480168079803F0B5F983
:105AC0004FF08041089003F0E6F9099038480168EA
:105AD000099803F052F9364908602A4801683148AC
