:020000040800F2
:1000000068280020450100089D0200089F020008A2
:10001000A3020008A7020008AB02000800000000CD
:10002000000000000000000000000000AF02000817
:10003000B102000800000000B3020008B502000889
:100040005F0100085F0100085F0100085F01000810
:100050005F0100085F0100085F0100085F01000800
:100060005F0100085F0100085F0100085F010008F0
:100070005F0100085F010008A90900085F0100088E
:100080005F0100085F0100085F010008EF0D000834
:100090000B0E00085F0100085F0100085F01000807
:1000A0005F0100085F0100085F0100085F010008B0
:1000B000D70B00085F0100085F0100085F0100081E
:1000C0005F0100085F0100085F0100085F01000890
:1000D0005F010008D9080008572700080F390008F9
:1000E0005F0100085F0100085F0100085F01000870
:1000F0005F0100085F0100085F0100085F01000860
:100100005F0100085F0100085F0100085F0100084F
:10011000F11300085F0100085F0100085F0100089B
:100120005F0100085F0100085F0100085F0100082F
:10013000DFF80CD009F094FA004800476901000884
:10014000682800200648804706480047FEE7FEE78B
:10015000FEE7FEE7FEE7FEE7FEE7FEE7FEE7FEE777
:10016000F58B0008310100081CB53FA103C9CDE99A
:10017000000108F03FFD4FF4E13000F00FF94FF4BB
:10018000E13001F047FE4FF4164002F075FE4FF4E7
:10019000E13001F057F900F0BDFE01F013FE00F070
:1001A000B3FC00F02FFC01F055FC02F077FD02F0EB
:1001B000FBFA03F099FC4FF47A7000F00BFC00F0AE
:1001C00000FD2B49086033E02A4800782A49097865
:1001D00088421CD003F05AFD284908700846007870
:1001E00051280BD008460078522807D008460078DE
:1001F000532803D008460078542808D11F480078B7
:1002000003F096FF1E480078401C1D49087000F05E
:10021000D8FC1C4908600968154A1268881A08F059
:10022000F9FF1949086019491748006809F090F862
:10023000134800781528C7DB02F08EFC1422062133
:10024000134802F09AFC32220121124802F095FC78
:1002500014220A21104802F090FC02F08AFC01E00E
:1002600002F0B7FCFCE7000011223344556677002A
:1002700008000020E9000020E80000201000002015
:10028000000000200C00002004000020001B374A62
:100290002F2E0008D15E0008D5250008704700BF4A
:1002A000FEE700BFFEE700BFFEE700BFFEE77047C6
:1002B0007047704710B502F0B5FC10BD0246002033
:1002C00003E000231354431C98B28842F9DB7047C3
:1002D0002DE9F04F07460D461646994607EB0508EF
:1002E000BA460024A34601E0601C84B22A4850F8B4
:1002F000340008B1082CF7DD082C05DBFF2089F855
:1003000000000020BDE8F08F234840F8347000EB77
:10031000C4000571204800EBC40046711E4800EB84
:10032000C4008671A34605FB06F13846FFF7C6FFF9
:10033000002405E0CAF80080C246A844601C84B2CC
:10034000701EA042F6DC144800EBCB00DAE710B5D3
:1003500002461368907918B9FF200870002010BD7C
:100360009079401E9071907908B1186810601C4611
:10037000241D002008702046F1E7024609B9FF203D
:100380007047091F0B461068186013609079401C75
:1003900090710020F4E700003803002038B50446CF
:1003A0000020FE490870FE490870FE490870FE49A9
:1003B00008701420FD490870204600F03AFA6B4698
:1003C00020221146FA48FFF783FFFA49086038BD3A
:1003D00010B5F6480078142800D110BD002240F274
:1003E0002661F54808F06FFAF448EF49097810F8EB
:1003F000310010B3EC480078EA49097888421CD0F3
:10040000EE48E949097810F83100401EEB49E64A08
:10041000127801F832000846E34A127800EBC20075
:100420004068E74A1278815CE34808F0ADFAE44896
:100430000078401CE24908705CE0DB480078D9494C
:10044000097888424DD0DD48D74A127800EBC200C7
:100450004168D8480068FFF790FFD3480078401CF7
:10046000C0B2D1490870142801DB00200870CF48C1
:100470000078401CC0B2CD490870142801DB14205C
:1004800008700020CE490870C7480078C54909782F
:1004900088421CD0C948C449097810F83100401E70
:1004A000C1B2C648C04A127800F83210BE4A12786B
:1004B00000EBC2004068C24A1278815CBE4808F076
:1004C00063FABF480078401CBD49087012E0002064
:1004D000BC4908701420B54908700020B84908705C
:1004E00008E00020B74908701420B04908700020C7
:1004F000B3490870012240F22661AF4808F0E3F9E1
:1005000000BF6AE710B5AC4808F042FAC1B2A34890
:1005100002780078401CA14B1870AB4881541846F3
:1005200000789F490978884204D19D480078401C92
:100530009B49087010BDF8B505460C4626460CB917
:100540000120F8BD002240F226619B4808F0BBF96B
:100550001C2094FBF0F100FB114028B11C2094FBFF
:10056000F0F0401CC4B203E01C2094FBF0F0C4B2D5
:100570008E480078A04207DA012240F226618E48B8
:1005800008F0A1F9FF20DCE769468A480068FFF718
:10059000DEFE8A49834A127801EBC2014860814835
:1005A0000078142802DB00207E49087000242FE028
:1005B000287882497B4A127801EBC20149680855C4
:1005C000601CC4B21C2C20DB1C217C48754A1278AC
:1005D00000F8321073480078401CC0B271490870AE
:1005E000142801DB00200870694672480068FFF794
:1005F000AEFE72496B4A127801EBC20148606B484B
:100600000078401E6949087000246D1C701EC6B237
:10061000002ECDD19CB169486249097800F831407B
:1006200062480078401E614908705E480078401CAE
:10063000C0B25C490870142801DB002008706148D2
:10064000007820B9FFF7C4FE01205E49087001223E
:1006500040F22661584808F036F9002071E770B57D
:100660000546002400E0641C285D0028FBD1E1B2AF
:100670002846FFF760FF70BD10B54B480078494928
:100680000978884234D04D48474A127800EBC200BE
:10069000416848480068FFF770FE43480078401CF6
:1006A000C0B241490870142801DB002008703F489F
:1006B0000078401CC0B23D490870142801DB1420AA
:1006C0000870394800783749097888420CD03B4A8D
:1006D000354B1B7812F83310334B1B7802EBC302F7
:1006E000506800F01CF924E000203649087020E032
:1006F00032482D4A127800EBC20041682D4800684C
:10070000FFF73BFE28480078401CC0B2264908701D
:10071000142801DB0020087024480078401CC0B277
:1007200022490870142801DB142008700020254994
:10073000087010BD10B55CE0244A1278002A53D12D
:100740000020174A1278921ED1B21F4A525C552AD5
:1007500001D1421CD0B2124A1278521ED1B21A4AAA
:10076000525CAA2A01D1421CD0B20D4A1278184B11
:100770001B68022404FB0322D1B2134A525CFF2AF5
:1007800001D1421CD0B203282ED101220F4B1A7086
:10079000034A12780F4B1A70014A1DE02500002011
:1007A000260000202200002023000020240000203A
:1007B000340500202C000020003801409403002064
:1007C000210000201400002034040020200000201C
:1007D0001C000020270000201278094B1B6802240F
:1007E00004FB0322074B1A70074A1278521C064B6F
:1007F0001A70054A1278054B1B789A429CD110BD9D
:100800001C000020280000202600002025000020D9
:1008100008B525208DF8000000208DF80100032088
:100820008DF8020001208DF80300684605F07FFB7B
:1008300008BD10B586B00446012144F2050006F05B
:10084000F1FF01A806F0C1FD4FF40070ADF80400FF
:1008500003208DF8060018208DF8070001A95948DB
:1008600006F02AFD01A806F0B0FD4FF48060ADF857
:10087000040004208DF8070001A9524806F01CFD71
:10088000514807F045FF02A807F0EEFF0294002050
:10089000ADF80C00ADF80E00ADF810000C20ADF86E
:1008A00012000020ADF8140002A9474807F073FFBA
:1008B000012240F22661444808F005F8FFF7A8FF3E
:1008C000012240F22551404807F0FDFF01213E483A
:1008D00007F0EDFF06B010BD10B520213A4808F032
:1008E000C1F8012808D12021374808F0C8F8374856
:1008F000007808B1FFF706FE4021334808F0B2F84F
:10090000012808D14021304808F0B9F82F48007874
:1009100008B1FFF75DFD01202C49087010BD30B50E
:100920008DB005460C460121084606F06EFF2848AA
:1009300006F05CF82448001D0290039510200490F6
:1009400005940020069080200790002008900990D0
:100950000A904FF440500B9000200C9002A91C48C4
:1009600006F0E6F801220221194806F018F90E20D7
:100970008DF8040000208DF805008DF80600012098
:100980008DF8070001A805F0D2FA0121104806F001
:10099000FAF8012280210C4807F0BAFF01210A4829
:1009A00007F085FF0DB030BD10B54FF4005006F0D4
:1009B00023F9012804D1400306F013F9FFF75CFE88
:1009C00010BD000000080140003801403000002048
:1009D00044000240002107E0002200E0521C43F2E4
:1009E00078739A42FADB491C8142F5D370470021A3
:1009F00005E0002200E0521C0E2AFCDB491C81426B
:100A0000F7D3704730B57F4800684FF47A72B0FB77
:100A1000F2F1B1F1807F01D301201DE021F07F4090
:100A2000401E4FF0E022506150170F22002807DAD5
:100A300013071D0E744B00F00F04241F1D5503E017
:100A400013071C0E714B1C5400BF00204FF0E02216
:100A5000906107201061002008B100BFFEE74FF051
:100A6000E020006920F001004FF0E021086130BD76
:100A70004FF0E020006940F001004FF0E0210861F4
:100A8000704708B54FF4E06005F04CFA1C208DF873
:100A9000000000208DF8010005208DF802000120E3
:100AA0008DF80300684605F042FA08BD0EB5012135
:100AB000084606F0C4FEFFF7E4FF4FF0804006F062
:100AC00019FF41F28830ADF804004720ADF800006E
:100AD0000020ADF80600ADF8020069464FF08040F6
:100AE00006F0DCFF0121880707F0FAFD012211461C
:100AF000900707F04AFB0121880707F02BFB002134
:100B0000012006F09CFE0EBD0EB50121062006F068
:100B100096FE684607F0EEFA4FF6FF70ADF8040057
:100B20000020ADF80000ADF80600ADF802006946FF
:100B3000374806F0B3FF00221146354807F0B1FBF5
:100B40000121334807F052FD3021314807F03CFBCA
:100B500007212F4807F080FD80212D4807F085FDF3
:100B600001212B4807F0F6FB4FF6FF70ADF80400AB
:100B70004720ADF800000020ADF80600ADF80200F7
:100B80006946244806F08AFF0121224807F0E2FB6B
:100B90000421204807F060FD01211E4807F032FDC6
:100BA00020211C4807F04FFD80211A4807F05DFD09
:100BB0000121184807F0CEFA0121154807F0CAFABA
:100BC0000EBD002012492431088800041149243147
:100BD00009880844704710B50121880707F083FD94
:100BE00040B10121880707F08FFD0B480068401CC9
:100BF00009490860084800680A2802D3002006490D
:100C0000086010BD2003002018ED00E000E400E0C3
:100C100000040040000800403400002000B589B006
:100C200014208DF8000000208DF8010001208DF8BF
:100C300002008DF80300684605F079F913208DF85D
:100C4000000000208DF8010002208DF80200012034
:100C50008DF80300684605F06AF9AA4805F0D0F956
:100C60000121480606F0EBFD0121082006F0DAFD1F
:100C70000121084606F0D6FD4FF48070ADF814004F
:100C800003208DF8160048208DF8170005A99E480E
:100C900006F012FB4FF40070ADF8140003208DF83D
:100CA000160018208DF8170005A9974806F004FBD8
:100CB00001214FF4EA1006F0CEFB06A805F0C4FAB5
:100CC00000208DF81E008DF81F008DF820000120F7
:100CD0008DF8210000208DF822008DF823008DF87A
:100CE0001A008DF81B0001208DF81C0002208DF8E1
:100CF0001D000C20ADF8180006A9824805F099F9EE
:100D000000208DF80E008DF80F0001208DF81000E6
:100D10000020ADF80400ADF80600ADF80800ADF80D
:100D20000A00ADF80C0001208DF8110001A805F0B3
:100D30000AFA0221734805F006FE0121714805F008
:100D400002FE012203216F4805F0FCFC09B000BD42
:100D50007FB586B0DDE90E560798029004208DF825
:100D60000C009DF820008DF80D008DF80E50002429
:100D700007E009983044015D0DF10F000155601C3A
:100D8000C4B2AC42F5DB01A95E4805F0CBFA0AB06B
:100D900070BD30B585B00446A07B28B920680090AE
:100DA00000208DF8080001E02068019004208DF8F3
:100DB0000800E07B18B900208DF8090002E002204D
:100DC0008DF80900207B8DF80A00002506E0201D23
:100DD000415D0DF10B004155681CC5B2207BA84256
:100DE000F5DC6946474805F09DFA05B030BD10B501
:100DF0000121444805F00DFD012805D1012141489C
:100E000005F0A1FD00F097F810BD10B586B001AA5D
:100E100000213C4805F07BFB9DF80D0000286AD1BD
:100E2000029880B20B2806D0A0F58060093803D064
:100E300003285ED12EE05DE00298C0F30740012850
:100E400006D002280CD0032812D0042820D117E0A5
:100E5000DDF80F10DDF813002C4AC2E9001017E08E
:100E6000DDF80F10DDF81300284AC2E904100FE086
:100E7000DDF80F10DDF81300244AC2E9021007E084
:100E8000DDF80F10DDF81300204AC2E9061000BF9C
:100E900000BF2FE00298C0F30740012806D00228C7
:100EA0000CD0032812D0042820D117E0DDF80F4021
:100EB000204608F0A6F91649086018E0DDF80F4052
:100EC000604208F09EF91249486010E0DDF80F40DA
:100ED000204608F096F90E49886008E0DDF80F40DA
:100EE000604208F08EF90A49C86000E000BF00BF08
:100EF00000E000BF00BF0021024805F080FB06B003
:100F000010BD000000640040000C014028240020B7
:100F10004824002008B50020F9490870F9490870F4
:100F2000FFF77CFE6B4620221146F748FFF7D0F909
:100F3000F649086008BD1CB5F548006820280DD1A9
:100F40000020F4490870F448F44A127800EB0210CB
:100F5000C168EE480068FFF710FA1CBD00220121AD
:100F6000EF4805F0EFFBEC48EC49097800EB011085
:100F70000078002849D0E9480078EA490978884291
:100F800043D0E548E549097800EB011000780828CE
:100F900020DBE148E149097800EB011000780838CE
:100FA000DD49DE4A127801EB02110870DE48006864
:100FB0000821CDE90010D848D849097800EB011480
:100FC00094E80F00FFF7C4FED74800680830D64900
:100FD000086097E0D4480168CF48D04A127800EB07
:100FE00002100078CDE90001CB48CC49097800EB2C
:100FF000011494E80F00FFF7ABFE0020C649C74A72
:10100000127801EB021108707CE0C4480078C549F1
:10101000097888426DD0C048C04A127800EB0210AF
:10102000C168BA480068FFF7A8F9BC480078401CBE
:10103000C0B2BA490870202801DB00200870B4480B
:101040000068401CB2490860202801D320200860B5
:101050000020B5490860B1480078B2490978884253
:101060003DD0AD48AD49097800EB01100078082863
:1010700021DBA948A949097800EB0110007808385C
:10108000C1B2A548A54A127800EB02100170A6482B
:1010900000680821CDE900109F48A049097800EBBD
:1010A000011494E80F00FFF753FE9F4800680830D2
:1010B0009D49086026E09C4801689748974A127845
:1010C00000EB02100078CDE90001934893490978BC
:1010D00000EB011494E80F00FFF73AFE12E0002045
:1010E0008C49087020208A49086000208E490860D9
:1010F00008E000208749087020208549086000200A
:101100008949086001221146854805F01BFB00BF94
:1011100023E72DE9F84305460C4616461F46A04630
:1011200014B90120BDE8F883002201217C4805F0B4
:1011300009FB1C2094FBF0F100FB114028B11C209E
:1011400094FBF0F0401CC4B203E01C2094FBF0F0D0
:10115000C4B26F480068A04206D20122114670480E
:1011600005F0F0FA0120DDE7694668480068FFF7FE
:10117000EEF869496B4A127801EB0211C8606948C0
:101180000078202802DB00206649087000243EE039
:1011900029786148634A127800EB0210C068015553
:1011A000601CC4B21C2C2DDB5B485E49097800EB47
:1011B000011046601C2058495A4A127801EB02116E
:1011C000087055485749097800EB011007725548D7
:1011D0000078401CC0B253490870202801DB002071
:1011E0000870694649480068FFF7B1F84A494D4A16
:1011F000127801EB0211C86045480068401E44495E
:10120000086000246D1CA8F1010000F0FF08B8F18F
:10121000000FBDD104B340484249097800EB0110EA
:1012200046603D483F49097800EB011004703A4898
:101230003C49097800EB0110077235480068401EF0
:101240003349086037480078401CC0B235490870FF
:10125000202801DB002008702E48007820B90120EA
:101260002C490870FFF767FE012211462C4805F053
:1012700069FA002056E7002000212C4A116000BFC7
:1012800003E000212A4A1154401CFF28F9DD704771
:1012900010B50246002000BF03E00023244C235475
:1012A000401CFF28F9DD10BD0FB430B500209DF8BB
:1012B000161000BF17E00DF11702135C104A1478E6
:1012C0001278521C0E4D2A70194A13552A4612786C
:1012D0000C4B1B789A4204D10A4A1278521C094BD3
:1012E0001A70421CD0B28842E5DB30BC5DF814FBBA
:1012F000024622B10F4802600F48017023E01DE052
:101300005400002055000020540C002058000020FC
:101310003C0000204100002054090020390000203A
:1013200000640040380000205000002044000020ED
:10133000540B0020480000204C000020B2F5807FB4
:1013400001D9FF2070470020FCE7000010B586B0EF
:10135000044634208DF8000000208DF801000420A0
:101360008DF8020001208DF80300684604F0DFFDCF
:101370000121102006F056FA0121C80406F05FFA98
:101380002D48406820F480602B494860084640683A
:1013900060F480604860C814ADF8140004208DF833
:1013A000170005A9244805F087FF01940020ADF837
:1013B0000800ADF80A00ADF80C00ADF810000C20E4
:1013C000ADF80E0001A91D4807F0E5F9012240F231
:1013D00025511A4807F077FA012240F22661174892
:1013E00007F071FA0121154807F061FA06B010BD47
:1013F00010B52021114807F035FB012808D1202124
:101400000E4807F03CFB0E48007808B100F0CEF81B
:1014100040210A4807F026FB012808D1402107484F
:1014200007F02DFB0648007808B100F025F80120F0
:101430000349087010BD000000100140004C00403E
:101440005C00002038B504460020FE490870FE49C3
:101450000870FE490870FE4908701420FD490860B4
:101460002046FFF773FF6B4620221146FA48FEF72D
:101470002FFFFA49086038BD10B5F64800681428F7
:1014800000D110BD002240F22661F54807F01BFA9A
:10149000F448EF49097810F8310018B3EC480078A7
:1014A000EA49097888421DD0EE48E949097810F8E0
:1014B0003100401EEB49E64A127801F83200084636
:1014C000E349097800EBC1004068E749097844180E
:1014D0002178E34807F058FAE3480078401CE249D5
:1014E00008705BE0DA480078D849097888424CD027
:1014F000DC48D74A127800EBC2004168D748006840
:10150000FEF73BFFD2480078401CC0B2D0490870BB
:10151000142801DB00200870CE480068401CCD492B
:101520000860142801D3142008600020CE490870F8
:10153000C7480078C549097888421CD0C948C449C1
:10154000097810F83100401EC649C14A127801F8E6
:1015500032000846BE4A127800EBC2004068C24A18
:101560001278815CBE4807F00FFABF480078401C33
:10157000BD49087012E00020BC4908701420B5492C
:1015800008600020B849087008E00020B7490870DA
:101590001420B04908600020B3490870012240F2CD
:1015A0002661AF4807F08FF900BF6AE710B5AC4875
:1015B00007F0EEF9C1B2A34802780078401CA14BB5
:1015C0001870AB488154184600789F4909788842C2
:1015D00004D19D480078401C9B49087010BDF8B5A7
:1015E00005460C4626460CB90120F8BD002240F203
:1015F00026619B4807F067F91C2094FBF0F100FB83
:10160000114028B11C2094FBF0F0401CC4B203E050
:101610001C2094FBF0F0C4B28E480068A04207D2B0
:10162000012240F226618E4807F04DF9FF20DCE7E9
:1016300069468A480068FEF78AFE8A49834A12781A
:1016400001EBC201486081480078142802DB0020C9
:101650007E49087000242FE0287882497B4A12785E
:1016600001EBC20149680855601CC4B21C2C20DB88
:101670001C217C48754A127800F8321073480078B3
:10168000401CC0B271490870142801DB00200870AA
:10169000694672480068FEF75AFE72496B4A127832
:1016A00001EBC20148606B480068401E6949086050
:1016B00000246D1C701EC6B2002ECDD19CB16948AD
:1016C0006249097800F8314062480068401E61496B
:1016D00008605E480078401CC0B25C49087014285D
:1016E00001DB002008706148007820B9FFF7C4FED4
:1016F00001205E490870012240F22661584807F037
:10170000E2F8002071E770B50546002400E0641C93
:10171000285D0028FBD1E1B22846FFF760FF70BDCD
:101720007EB50020F5E0534C2478002C4AD10022ED
:10173000454C2478641EE1B24D4C645C022C01D10E
:10174000541CE2B2404C24784B4D2D68022606FB17
:101750000544E1B2464C645C0D2C01D1541CE2B24C
:10176000394C2478444D2D68022606FB0544641C40
:10177000E1B23F4C645C0A2C01D1541CE2B2324C01
:1017800024783D4D2D68022606FB0544A41CE1B2D9
:10179000374C645C032C01D1541CE2B2042A10D1F2
:1017A0000124344D2C700120274C2478334D2C70AB
:1017B000254C2478304D2D68022606FB0544304D1B
:1017C0002C70A1E0204C24782D4D2D78AC42F8D11E
:1017D0000024284D2C70002100238DE0274C247814
:1017E0000C44234D2C5D302C0EDB244C24780C440F
:1017F0002C5D392C08DC214C24780C442C5D303CC9
:10180000E4B20DF8014014E01C4C24780C44184D4F
:101810002C5D412C0DDB194C24780C442C5D462C9E
:1018200007DC164C24780C442C5D373CE4B20DF8F0
:101830000140124C24780C44641C0D4D2C5D302C5E
:1018400032DB1FE0E8000020E9000020E00000207B
:10185000E1000020E4000020F4110020F00000204E
:10186000004C004054100020DE00002060000020EA
:10187000F41000207800002074000020EA0000200E
:10188000EB000020684C24780C44641C2C5D392C3F
:101890000ADC654C24780C44641C2C5D303CE5B2B9
:1018A0004C1C0DF8045018E05F4C24780C44641C68
:1018B0005E4D2C5D412C10DB5B4C24780C44641C89
:1018C0002C5D462C09DC584C24780C44641C2C5D9F
:1018D000373CE5B24C1C0DF804504C1C1DF804506C
:1018E0001DF8014005EB0414E6B21C465D1CEBB28A
:1018F0004F4D2E558C1CE1B24E4C2468641E640082
:101900008C423FF66BAF01204B4C2478641C4A4D4F
:101910002C70494C2478494D2D78AC427FF403AFAC
:101920007EBD10B50146012024E00A7800EB80035B
:10193000434CE35C9A421CD14A7800EB8003234479
:101940005B789A4215D18A7800EB800323449B7818
:101950009A420ED1CA7800EB80032344DB789A4286
:1019600007D10A7900EB800323441B799A4200D106
:1019700002E0401C1428D8DB00BF324A1278324BF8
:101980001A70012801DB102800DD10BD2D4B1870E6
:1019900000BFFAE730B5C1B000244FF4807101A850
:1019A00007F0C1F9002524480078244909788842C5
:1019B00021D0FFF7B5FEF0B10120244908700522BF
:1019C0001B49234807F0BAF9A8B11948FFF7A9FF46
:1019D00001A801231B4A04210090022001F027FCEA
:1019E000C4B2214601A801F013FB194810490A6846
:1019F00002600979017141B030BD00200AE011494F
:101A0000097801EB81010E4A1144095C084A11541E
:101A1000411CC8B20528F2DB0D49054A13680B606A
:101A200012790A7170470000EA000020F4100020CB
:101A30006100002074000020E9000020E800002080
:101A40007A00002066000020670000206800002067
:101A50006900002008B50121512005F0E3FE0420B3
:101A6000ADF8000010208DF8030003208DF802006F
:101A70006946CB4805F020FC0421C94805F0C7FCA5
:101A80004FF48040ADF8000010208DF803000320D3
:101A90008DF802006946C34805F00EFC4FF4804102
:101AA000C04805F0B4FC08BD0146002901DD084628
:101AB0007047002901DA4842FAE70846F8E72DE9BD
:101AC000F04F85B08246DFF8E0B2B8480068B74909
:101AD00089680844B54949680844B449C968441844
:101AE000E11704EB9171881007F08BFB0290AF486F
:101AF00000684042AD4989680844AC4949680844D7
:101B0000AA49C968441AE11704EB9171881007F0DB
:101B100078FB0390A54909684942A44A9268114498
:101B2000A24A5268891AA14AD268881807F077FB3E
:101B300006460F46584607F0A9FB00229C4BCDE90C
:101B4000000107F07DFA804632463B4607F078FAFE
:101B5000044607F0D7FB97490490086002A807C81D
:101B60008AE8070005B0BDE8F08FFFB585B00446F0
:101B7000914D2846089907F046F90646DDE9060129
:101B800007F03BF90746314607F037F90190284640
:101B9000089907F038F90646DDE9060107F0DBF899
:101BA0000746314607F0D7F802902846089907F013
:101BB0002AF90646DDE9060107F0CDF80746314669
:101BC00007F01BF903902846089907F01CF9064610
:101BD000DDE9060107F011F90746314607F0BBF8C9
:101BE000049001A80FC884E80F0009B0F0BD2DE9EA
:101BF000FF470C9C6C4DDDE9000107F0ACF8804616
:101C0000029907F0A8F80746039907F0A4F80646DA
:101C10004FF0814107F02DF92060009880F00049D5
:101C20004846019907F097F88046029907F093F823
:101C30000746039907F0E1F806464FF0814107F0A7
:101C400018F96060009880F0004A5046019907F04A
:101C500082F88146029907F0D0F88046039907F090
:101C60007AF80746294607F0CEF806464FF081413C
:101C700007F0FFF8A060BDE8FF872DE9FC410446AE
:101C80000D4616461F464DA103C9CDE90001F8B225
:101C90008DF80300F0B28DF80400E8B28DF805006D
:101CA0009DF802009DF8031008449DF804100844B4
:101CB0009DF805100844C0B28DF8060000232246A6
:101CC00008216846FFF725FABDE8FC817CB504468B
:101CD0000D46002040EA044000F2053608208DF849
:101CE00000008DF8014090208DF8020000208DF852
:101CF000030001950023224608216846FFF709FAF0
:101D00007CBD704710B500211E20FFF7DFFF0021CA
:101D10001420FFF7DBFF00211720FFF7D7FF00217A
:101D20001A20FFF7D3FF10BD7FB54FF07E5100980A
:101D300007F069F8054607F090FA044621461E2090
:101D4000FFF7C4FF019880F000464FF07E51304607
:101D500007F059F8054607F080FA0446214614209A
:101D6000FFF7B4FF4FF07E51029807F04CF805469C
:101D700007F073FA044621461720FFF7A7FF0398E0
:101D800080F000464FF07E51304607F03CF80546A3
:101D900007F063FA044621461A20FFF797FF7FBD3C
:101DA000001801400010014090C4DF3A34090020BF
:101DB0000000D03FF40000200070124455AA030038
:101DC000000000FF08B50121402005F02BFD032095
:101DD000ADF8000010208DF8030003208DF80200FC
:101DE00069460B4805F068FA0321094805F00FFB26
:101DF00008BD10B50121064805F0FCFAC0F101004C
:101E0000C4B222460121024805F005FB10BD0000C6
:101E10000018014038B504460020FD490870FD490E
:101E20000870FD490870FD4908701420FC490860DD
:101E3000204600F038FC6B4620221146F948FEF798
:101E400047FAF949086038BD10B5F548006814280C
:101E500000D110BD002240F22661F44806F033FDA7
:101E6000F348EE49097810F8310010B3EB480078D8
:101E7000E949097888421CD0ED48E849097810F80A
:101E80003100401EEA49E54A127801F8320008465E
:101E9000E24A127800EBC2004068E64A1278815CA0
:101EA000E24806F071FDE3480078401CE149087003
:101EB0005BE0DA480078D849097888424CD0DC48A1
:101EC000D64A127800EBC2004168D7480068FEF796
:101ED00054FAD2480078401CC0B2D0490870142887
:101EE00001DB00200870CE480068401CCC49086027
:101EF000142801D3142008600020CE490870C74878
:101F00000078C549097888421CD0C948C349097876
:101F100010F83100401EC1B2C548C04A127800F81E
:101F20003210BE4A127800EBC2004068C14A1278F3
:101F3000815CBE4806F028FDBE480078401CBD49C3
:101F4000087012E00020BC4908701420B4490860F1
:101F50000020B849087008E00020B7490870142034
:101F6000AF4908600020B3490870012240F22661A1
:101F7000AE4806F0A8FC00BF6BE710B5AB4806F012
:101F800007FDC1B2A24802780078401CA04B18702F
:101F9000AA488154184600789E490978884204D19D
:101FA0009C480078401C9B49087010BDF8B5054658
:101FB0000C4626460CB90120F8BD002240F22661ED
:101FC0009A4806F080FC1C2094FBF0F100FB1140C5
:101FD00028B11C2094FBF0F0401CC4B203E01C208C
:101FE00094FBF0F0C4B28E480068A04207D20122F0
:101FF00040F226618D4806F066FCFF20DCE769466A
:1020000089480068FEF7A3F98949834A127801EBF1
:10201000C201486080480078142802DB00207E4915
:10202000087000242FE0287881497B4A127801EB60
:10203000C20149680855601CC4B21C2C20DB1C215D
:102040007B48754A127800F8321073480078401CBB
:10205000C0B271490870142801DB0020087069467D
:1020600071480068FEF773F971496B4A127801EB09
:10207000C20148606A480068401E6949086000243F
:102080006D1C701EC6B2002ECDD19CB1684862494D
:10209000097800F8314062480068401E60490860D5
:1020A0005D480078401CC0B25B490870142801DB11
:1020B000002008706048007820B9FFF7C5FE0120B5
:1020C0005D490870012240F22661584806F0FBFB8A
:1020D000002071E770B50546002400E0641C285D0F
:1020E0000028FBD1E1B22846FFF760FF70BD30B594
:1020F000014600240A46514DAB5C551CEAB24F4DD7
:10210000AD5C43EA0524204630BD2DE9FE4F4B4827
:102110004B490978405C02900298212876D009DC6E
:10212000A0F11A00072828D2DFE800F03FFDFCFBF1
:10213000FA27F900A2282CD004DC302867D0A12887
:102140001BD104E0A3282ED0A428F9D12CE03B49D0
:102150003B480078401C0C5C3A48047038480078D2
:10216000801C0C5C204601F0DAF8374908603749DA
:102170003548006807F0ECF800D8B8E1344800684A
:102180003449086001203449087000203349086050
:10219000ADE1FFF7B7FD00202F4908702F49086017
:1021A00029490860A3E1A2E1A1E12DA22FA168467F
:1021B00007F0C6FA07216846FFF7F8FE24480068D2
:1021C00007F064F805462A460B4629A1684607F041
:1021D000B7FA07216846FFF7E9FE26A223A1684661
:1021E00007F0AEFA07216846FFF7E0FE24480068D2
:1021F00007F04CF805462A460B461DA1684607F035
:102200009FFA07216846FFF7D1FE3BE02DE137E159
:102210001C0100201D0100201601002017010020D4
:1022200018010020941700202401002000440040E1
:10223000F415002015010020000100209416002054
:102240001E010020B0010020100100200000C84342
:10225000A8020020B4010020140100201C0300206B
:102260002020796177203D200000000025730000C8
:102270002566000020207069746368203D200000FE
:10228000A4020020DAA2AFF21C01684607F058FA57
:1022900007216846FFF78AFED848006806F0F6FF77
:1022A00005462A460B46AFF23801684607F048FA61
:1022B00007216846FFF77AFED1A2AFF250016846C7
:1022C00007F03EFA07216846FFF770FECE48006827
:1022D00006F0DCFF05462A460B46AFF26C01684665
:1022E00007F02EFA07216846FFF760FEC7A2AFF29B
:1022F0008401684607F024FA07216846FFF756FE76
:10230000C448006806F0C2FF05462A460B46AFF2F5
:10231000A001684607F014FA0721684604E080E04F
:1023200077E03EE035E026E0FFF740FEBAA2AFF2EC
:10233000C401684607F004FA07216846FFF736FE35
:10234000B748006806F0A2FF05462A460B46AFF2E2
:10235000E001684607F0F4F907216846FFF726FE1A
:10236000B0A2AFF2F801684607F0EAF90221684628
:10237000FFF71CFEBBE00120AB490870AB49AC483D
:102380000078401C0C5C204600F0C9FFA949086099
:10239000ADE0FFF7B7FC0020A3490870A54908602D
:1023A000A5E0A249A2480078401C0C5C204606F03B
:1023B00047FF0546A04AA14B06F042FE0746002211
:1023C0009F4B06F0AFFE824606F09CFF99490860DD
:1023D0000846006806F05AFF05464FF03332994B25
:1023E00006F07CFF03D89848924908600DE09148B8
:1023F000006806F04BFF05464FF03332934B06F072
:1024000059FF02D892488B49086001209149087011
:102410006DE0FFF777FC00208E4908708549086061
:1024200065E001208C4908708C4908707F4980481C
:102430000078801C095C7D4A7D480078401C105C57
:1024400041EA00200FFA80F9484606F0E8FE074608
:102450000022834B06F066FE054606F053FF8149D5
:10246000086000207349086041E000207A49087044
:10247000FFF748FC00206F4908607849087036E093
:102480006A496B480078401C0C5C204606F0D8FE78
:1024900007460022744B06F045FE054606F032FF63
:1024A00072490860614962480078801C0C5C2046D3
:1024B00006F0C6FE074600226B4B06F033FE0546CB
:1024C00006F020FF69494860584959480078C01C07
:1024D0000C5C204606F0B4FE05460022624B06F076
:1024E00021FE074606F00EFF6049886000BF00BF6E
:1024F000BDE8FE8F30B54FF0FF3064E05C4C2478CF
:10250000002C37D100215B4C2478641FE2B2474C89
:10251000A45C552C01D14C1CE1B2564C2478241FEC
:10252000E2B2424CA45CAA2C01D14C1CE1B2514C49
:102530002478E41EE2B23D4CA45C1E2C01D14C1C5C
:10254000E1B203293AD10124494D2C70494C247839
:10255000641EE2B2354CA45C474D2C70454C247887
:10256000334D2C70434C2478434D2D782C44434DEF
:102570002C7023E03F4C2478404D2D78AC421DD187
:1025800000243B4D2C702A4C23780021002207E0C8
:10259000264CE45C0C44E1B25C1CE3B2541CE2B295
:1025A000354C2478A242F3DBCC43E1B21F4CE45C0F
:1025B0008C4203D11D4C1E4D2D78605D2D4C24782E
:1025C000641C2C4D2C702B4C24782D4D2D78AC4256
:1025D00094D130BD10B52748007829490978884240
:1025E00005D0FFF787FF401C01D0FFF78EFD10BD1F
:1025F0002020726F6C6C203D20000000A0020020A3
:102600002020657A203D2000E80200202020657906
:10261000203D2000E402002020206578203D20009D
:10262000E00200200D0A00006C010020941600203A
:102630001E010020100100204AD8124DFB21094044
:10264000008066403333E33F9A99193F3333E3BF49
:102650009A9919BF6D0100206E010020140100201D
:1026600000002440B401002000005940181C002044
:10267000200100201D010020210100201F01002059
:102680001C01002008B526208DF8000000208DF8E0
:10269000010006208DF8020001208DF80300684635
:1026A00003F045FC08BD10B586B0044601210420A6
:1026B00005F0B8F80121480405F0C1F84FF4E060D6
:1026C00003F030FC26208DF8000000208DF801007A
:1026D00006208DF8020001208DF80300684603F003
:1026E00026FC0420ADF8140018208DF817000320F4
:1026F0008DF8160005A9294804F0DEFD0820ADF884
:10270000140004208DF8170005A9244804F0D4FD16
:1027100001940020ADF80800ADF80A00ADF80C00F7
:10272000ADF810000C20ADF80E0001A91C4806F011
:1027300032F8012240F22551194806F0C4F801226E
:1027400040F22661164806F0BEF80121144806F052
:10275000AEF806B010BD10B52021114806F082F980
:10276000012808D120210E4806F089F90D4800788B
:1027700008B1FFF702FC4021094806F073F901286F
:1027800008D14021064806F07AF90648007808B1D9
:10279000FFF75AFB01200349087010BD00080140F3
:1027A000004400402801002008B501217D2005F0EB
:1027B00039F8F020ADF8000048208DF80300032020
:1027C0008DF802006946B64804F076FD4FF203002A
:1027D000ADF8000048208DF8030003208DF80200BA
:1027E0006946B04804F068FD4FF47C70ADF8000015
:1027F00048208DF8030003208DF802006946AA489E
:1028000004F05AFD4FF47F40ADF8000048208DF8E9
:10281000030003208DF802006946A44804F04CFD33
:102820004FF4FF40ADF8000048208DF8030003206E
:102830008DF8020069469E4804F03EFD00209D4947
:1028400008709D489D4908609D4888609A48C86006
:102850009B499A4841619B48984988619A499748A1
:10286000016295489549486295499448C1629248E9
:1028700096490860964848609148886000209549CC
:1028800008609549086008BD2DE9FF4782B01C46E5
:10289000DDE90E7800200090019090480168904892
:1028A000006806F04BFD04D000208B4908608D497C
:1028B00008608D4801688A48006806F09EFA8549DC
:1028C00008600846006806F0E1FC05464FF0333228
:1028D000864B06F0EFFC0DD27E48006806F0D6FC71
:1028E00005464FF03332824B06F0F8FC02D200204E
:1028F0007849086077490398096806F084FA054624
:1029000078480168284606F026FA76490860724839
:1029100001687048006806F070FA814649460498DC
:1029200006F071FA06466B490298096806F06BFAE0
:1029300082466C480168504606F00DFA054631465D
:1029400006F009FAA060A06806F0A0FC05464FF06A
:102950003332684B06F0C2FC02D86748A0600BE037
:10296000A06806F093FC05464FF03332634B06F047
:10297000A1FC01D86248A060A06806F087FC05466B
:10298000604A614B06F096FC0AD8A06806F07EFC0F
:1029900005465C4A5D4B06F0A1FC01D80020A06012
:1029A0004C4800684C4908604D4800684B49086035
:1029B00006B0BDE8F0872DE9F04188B007460E4625
:1029C000144600253B480078A0B100BF0DE005EBA0
:1029D00045003A4901EB800005EB45014C4A02EB0A
:1029E00081030ECB0EC0681CC5B2042DEFDB0020A6
:1029F00030490870012E06D0022E0CD0032E17D0BD
:102A0000042E2BD11DE02D4A07CA05AB07C3029443
:102A10000020039023E0294AD2E903105269CDE94E
:102A20000602059184F0004002900020039016E019
:102A3000224A183207CA05AB07C30020029003944C
:102A40000DE01E4AD2E90910D26ACDE906020591CD
:102A50000020029084F00040039000E000BF00BF1F
:102A6000204606F0FAFBB0F1000801DB404601E029
:102A7000C8F1000010B92748007838B102AB1348FC
:102A8000CDE9006407C8FFF7FFFE01E000200490D5
:102A900002A807C887E8070008B0BDE8F081000079
:102AA00000080140000C01400010014000140140EA
:102AB00000180140380100208FC2753DE81B00203E
:102AC0008FC2F53C8FC275BD8FC2F5BC181C0020AB
:102AD0000AD7233C3C0100204001002034010020A3
:102AE000B401002030010020A80200203333D33F7E
:102AF0003333D3BF3333E33F9A99193F3333E3BFC3
:102B00009A9919BF7B14AE47E17A843FE17A84BF7A
:102B1000B81B00206E010020014601EB41005E4A17
:102B200052F8200008B908207047002001EB41024C
:102B3000594B43F8220001EB410203EB82029080E3
:102B400001EB410203EB8202D08001EB410203EB77
:102B50008202107200BFE7E710B5FDF753FF0024B3
:102B600004E02046FFF7D8FF601CC4B2102CF8DB4D
:102B700010BD10B5FDF77CFF10BD70B503460C46C7
:102B8000002101E0481CC1B201EB4100424D55F863
:102B9000200008B11029F5DB102901D1082070BDF3
:102BA00001EB41003C4D45F8203001EB410005EBC5
:102BB0008000848001EB410005EB8000C280002092
:102BC00001EB4105344E06EB850528720846E6E721
:102BD000704710B5002420E004EB44002E4901EBBF
:102BE0008000007A002816DD04EB44012A4A52F8DE
:102BF00021008047002004EB4401274A02EB8101B9
:102C0000087204EB4400114601EB8000C08810B943
:102C10002046FFF781FF601CC4B2102CDCDBFFF7FD
:102C2000D7FF10BD002033E000EB40011A4A52F8F4
:102C3000211059B300EB400102EB81018988C1B931
:102C4000012100EB4002144B03EB8202117200EBF6
:102C500040011A4602EB8101C988B9B100EB40017D
:102C600002EB8101C98800EB400203EB82029180F4
:102C70000CE000EB4001084A02EB81018988491E03
:102C800000EB4002044B03EB82029180411CC8B26E
:102C90001028C9DB70470000241C00200120674970
:102CA0000870674867490860042067490860002089
:102CB00066494860002165488160C1600120634920
:102CC00008740020704710B58CB00446201D07C85A
:102CD00009AB07C301A809A90EC9FEF746FF02A860
:102CE0000DC80199CDE90723CDE9051005A80FC846
:102CF000FFF71AF80CB010BD10B500244F4800784B
:102D0000C0B100BF08E04F48006850F82400007CC4
:102D100000B105E0601CC4B24B4800688442F2DB9D
:102D200000BF474850F82400494908600846006839
:102D3000FFF7C9FF10BD0EB54648007868B1052001
:102D40004549087045480068486000214248816054
:102D5000C1600120404908742BE04148007878B1F7
:102D600005203D4908700020486000213A488160F4
:102D70003A4801683848C16001203749087418E0B2
:102D80003848007890B1052033490870334802680C
:102D9000354801786846FFF70EFE2F489DE80E0083
:102DA000001D0EC001202C49087402E000202A49B1
:102DB00008740EBD30B502460B460024002104E025
:102DC000555C2544ECB24D1CE9B20829F8DB9C4265
:102DD00001DB012000E0002030BD30B503460C4689
:102DE0000020214605E05D5C012D00D101204D1C35
:102DF000E9B29142F7DD30BD0EB51C48007890B1C4
:102E000005201B4908701B4802681748017868466E
:102E1000FFF7D1FD16489DE80E00001D0EC00120F1
:102E20001349087402E00020114908740EBD10B562
:102E3000FFF781FFFFF760FF10BD00008001002059
:102E400058010020780100207C0100202C1D00206A
:102E5000680100206C010020F01C002010010020FF
:102E60006D01002014010020B00100208C01002021
:102E7000181D00209001002038B504460020FE49AE
:102E80000870FE490870FE490870FE490870142059
:102E9000FD490860204600F0E0FC6B462022114608
:102EA000FA48FDF715FAFA49086038BD10B5F6483A
:102EB0000068142800D110BD002240F22661F548B8
:102EC00005F001FDF448EF49097810F8310010B31E
:102ED000EC480078EA49097888421CD0EE48E94974
:102EE000097810F83100401EEB49E64A127801F8E3
:102EF00032000846E34A127800EBC2004068E74A15
:102F00001278815CE34805F03FFDE4480078401CFE
:102F1000E24908705BE0DB480078D94909788842CB
:102F20004CD0DD48D74A127800EBC2004168D8483F
:102F30000068FDF722FAD3480078401CC0B2D1499E
:102F40000870142801DB00200870CF480068401C7E
:102F5000CD490860142801D3142008600020CF490F
:102F60000870C8480078C649097888421CD0CA4809
:102F7000C449097810F83100401EC1B2C648C14AA0
:102F8000127800F83210BF4A127800EBC200406895
:102F9000C24A1278815CBF4805F0F6FCBF48007851
:102FA000401CBE49087012E00020BD490870142082
:102FB000B54908600020B949087008E00020B84908
:102FC00008701420B04908600020B449087001223C
:102FD00040F22661AF4805F076FC00BF6BE710B504
:102FE000AC4805F0D5FCC1B2A34802780078401C7B
:102FF000A14B1870AB488154184600789F49097856
:10300000884204D19D480078401C9C49087010BD3E
:10301000F8B505460C4626460CB90120F8BD00223D
:1030200040F226619B4805F04EFC1C2094FBF0F119
:1030300000FB114028B11C2094FBF0F0401CC4B2EE
:1030400003E01C2094FBF0F0C4B28F480068A0425B
:1030500007D2012240F226618E4805F034FCFF20A1
:10306000DCE769468A480068FDF771F98A49844AB5
:10307000127801EBC201486081480078142802DB15
:1030800000207F49087000242FE0287882497C4A7C
:10309000127801EBC20149680855601CC4B21C2CAF
:1030A00020DB1C217C48764A127800F832107448E4
:1030B0000078401CC0B272490870142801DB00205F
:1030C0000870694672480068FDF741F972496C4A18
:1030D000127801EBC20148606B480068401E6A49E3
:1030E000086000246D1C701EC6B2002ECDD19CB1AC
:1030F00069486349097800F8314063480068401E18
:10310000614908605E480078401CC0B25C490870A4
:10311000142801DB002008706148007820B9FFF70F
:10312000C5FE01205E490870012240F2266159481F
:1031300005F0C9FB002071E770B50546002400E0EA
:10314000641C285D0028FBD1E1B22846FFF760FF30
:1031500070BD30B54FF0FF3062E0534C2478002C46
:1031600037D10022454C2478241FE1B24D4C645CD9
:10317000552C01D1541CE2B2404C2478E41EE1B23B
:10318000484C645CAA2C01D1541CE2B23B4C24781C
:10319000A41EE1B2434C645C152C01D1541CE2B274
:1031A000032A38D10124404D2C70344C2478641EFD
:1031B000E1B23C4C645C3D4D2C70304C24783C4D6D
:1031C0002C702E4C2478394D2D782C44394D2C7090
:1031D00021E02A4C2478374D2D78AC421BD10024B5
:1031E000314D2C70324C23780022002107E02D4C09
:1031F000E45C1444E2B25C1CE3B24C1CE1B22B4C24
:103200002478A142F3DB274CE45C944203D1254CA3
:10321000274D2D78605D194C2478641C174D2C7057
:10322000164C2478144D2D78AC4296D130BD2DE942
:10323000F04305460E46079C002700204FF0550935
:103240008046401C04F808904FF0AA098046401CB4
:1032500004F808904FF015098046401C04F80890C7
:1032600003F1020C8046401C04F808C08046401C54
:1032700004F8085080461FE0A4010020A5010020AA
:103280009B0100209C010020A0010020EC1E0020DA
:10329000AC010020004800404C1D00209A01002095
:1032A00084010020EC1D0020A8010020A9010020BD
:1032B000A6010020A7010020401C04F808605BB9AB
:1032C00005EB060C0CF0FF07844600F1010808F03E
:1032D000FF0004F80C7020E005EB060C0CF0FF0773
:1032E000002111E012F80190844600F1010808F075
:1032F000FF0004F80C9012F801C0BC440CF0FF076A
:1033000001F1010C0CF0FF019942EBDB844600F166
:10331000010808F0FF0004F80C70BDE8F0832DE907
:10332000F84F8246504605F075FF009005F0AEFF5D
:1033300080460022F84B05F0F5FE06460022F74BCA
:1033400005F07EFE044605F0DDFF83465846BDE8E5
:10335000F88F10B5014600200A46F14CA35C541CBE
:10336000E2B2EF4CA45C43EA042010BD2DE9F04F1B
:10337000C7B04FF4807107A805F0D5FC0020069077
:10338000039004900590E7490870E548E6490978FC
:1033900010F80190B9F1040F7ED009DCB9F1010FEA
:1033A0000DD0B9F1020F78D0B9F1030F76D1A9E1B0
:1033B000B9F1050F73D0B9F1FF0FF7D1EBE1D8499F
:1033C000D9480078401C0C5C132C02D0142C67D117
:1033D000BFE0D349D4480078801C0E5C304605F02D
:1033E0002FFF82460022D14B05F09CFE074605F0D8
:1033F00089FFCF490860CA49CB480078C01C0E5CE1
:10340000304605F01DFF07460022C84B05F08AFE36
:10341000824605F077FFC6498860C149C2480078F6
:10342000001D0E5C304605F00BFF82460022BF4BAC
:1034300005F078FE074605F065FFBD49C860B8494C
:10344000B9480078401D0E5C304605F0F9FE07468D
:103450000022B64B05F066FE824605F053FFB449E4
:103460004861AF49B0480078801D0E5C704205F09D
:10347000D6FE07460022AD4B05F054FE824605F00D
:1034800041FFAB498861A649A7480078C01D0E5C82
:10349000704205F0C4FE04E07CE1A4E08EE1DAE0D5
:1034A0009EE007460022A14B05F03CFE824605F057
:1034B00029FF9F4908629A499B48007808300E5CB2
:1034C000304605F0BDFE82460022984B05F02AFEEC
:1034D000074605F017FF96494862914992480078DF
:1034E00009300E5C304605F0ABFE074600228F4BDC
:1034F00005F018FE824605F005FF8D49C8620025DB
:103500000BE089480078801C28448549095C05F156
:103510000800884A1154681CC5B2082DF1DB854AA1
:103520001021854800F039FA07A800907C487E49B0
:1035300009780844821C082321464846FFF777FE95
:10354000069007A80699FFF763FD01207B490870E4
:1035500047E075490978891CC8B2FFF7FAFE784937
:10356000086071490978091DC8B2FFF7F2FE754974
:1035700008606D490978891DC8B2FFF7EAFE7249F3
:103580000860694909780831C8B2FFF7E2FE6F495F
:103590000860002509E064480078801C28446049E0
:1035A000085C64494855681CC5B2082DF3DB614AC4
:1035B0001021614800F0F1F96548047007A80090F7
:1035C0005748594909780844821C0823214648462F
:1035D000FFF72DFE069007A80699FFF719FD00E0FA
:1035E00000BF00BFEBE04E494F480078401C0C5C28
:1035F000082C2DD2DFE804F02C040506072C081651
:1036000027E026E025E024E007A800231A4621460B
:1036100000904846FFF70BFE069007A80699FFF7B3
:10362000F7FC16E04B4800681421B0FBF1F0C0B283
:103630008DF8080007A8012302AA214600904846F9
:10364000FFF7F5FD069007A80699FFF7E1FC00E0FB
:1036500000BF00BFB3E0324933480078401C0C5C27
:10366000022C02D0042C4AD132E02D492E48007899
:10367000801C0E5C384806702B480078C01C0E5C1D
:103680003046FFF74CFE354908603549334800683D
:1036900005F05EFE00D833E0324800683249086029
:1036A00001203249087000202A49086007A80090CC
:1036B0001B481D4909780844821C042321464846BA
:1036C000FFF7B5FD069007A80699FFF7A1FC17E0E4
:1036D000FEF718FB0020254908701E4908601F49A5
:1036E000086007A800231A46214600904846FFF7C5
:1036F0009EFD069007A80699FFF78AFC00E000BF30
:1037000000BF5CE0064908480078401C0C5C012CB6
:103710002ED0022C3BD133E000E06F400000894006
:10372000EC1D00208B010020A601002000408F40EE
:10373000B81B0020EC22002010F001083801002006
:10374000480100204C0100205001002054010020BD
:10375000BA0100201C030020B001002090010020CD
:103760000000C843A8020020B40100208C01002002
:103770002B480078062802DC01202A49087007E05F
:1037800000202849087003900490059000E000BFD5
:1037900000BF14E013E0012C02D0022C0BD103E097
:1037A00001202049087007E000201E49087003909E
:1037B0000490059000E000BF00BF00E000BF00BF24
:1037C00047B0BDE8F08F10B5174800781749097861
:1037D000884205D0FFF7BDFC401C01D0FFF7C6FDB5
:1037E00010BD0146012903DB642901DA104806E017
:1037F000642903DBFF2901DC0E4800E0002070474C
:1038000010B502460B460020002105E0545C8C40B8
:103810000443E0B24C1CE1B29942F7DB10BD00005A
:10382000BA0100208B010020A5010020A401002086
:103830009CC4A03E9CC4A0BE08B527208DF8000003
:1038400000208DF8010006208DF8020001208DF87F
:103850000300684602F06BFB08BD10B586B0044655
:103860000121082003F0DEFF0121880403F0E7FFB7
:103870004FF4E06002F056FB27208DF80000002096
:103880008DF8010006208DF8020001208DF803005C
:10389000684602F04CFB4FF48060ADF8140018202D
:1038A0008DF8170003208DF8160005A92B4803F0AA
:1038B00003FD4FF40060ADF8140004208DF81700EC
:1038C00005A9264803F0F8FC01940020ADF8080093
:1038D000ADF80A00ADF80C00ADF810000C20ADF802
:1038E0000E0001A91E4804F056FF012240F22551A6
:1038F0001B4804F0E8FF012240F22661184804F05A
:10390000E2FF0121164804F0D2FF06B010BD10B549
:103910002021134805F0A6F8012805D120211048E0
:1039200005F0ADF8FFF75BFB40210D4805F09AF874
:10393000012805D140210A4805F0A1F8FFF7B6FAA1
:103940000821074805F08EF8012806D1082104480F
:1039500005F095F8024805F01BF810BD000C014079
:103960000048004070B504460D462668701C08D11A
:1039700003F083F92946204603F094FA03F089F90D
:103980000AE003F07AF9204603F0BCF92946204604
:1039900003F088FA03F07DF970BD2DE9F04105468A
:1039A0000E461746002429E055F80480385D9C49EE
:1039B000087038194078487018F101000AD103F0F6
:1039C0005CF9974A128891B2281903F09EFA03F025
:1039D00060F90CE003F051F9281903F093F9904ACB
:1039E000128891B2281903F090FA03F052F9012ECF
:1039F00000D105E0A01C84B2B01E86B2002ED3D147
:103A000000BFBDE8F08130B50346002013E01C5A2A
:103A1000834D2C60012903D12C46247814540CE0EA
:103A20007F4C247814547E4C647815186C70841C78
:103A3000A0B28C1EA1B20029E9D100BF30BD2DE992
:103A4000F74183B00D461646002700240020019060
:103A5000A8460420029003F010F906F2FF30800A15
:103A60000190352003F0A4FB00BF08E04FF4806212
:103A7000039902FB071003F045F902907F1C01989F
:103A8000874203D29DF808000428EFD0039C05E08C
:103A900002CD204603F006FA0290241D039830441C
:103AA000A04203D99DF808000428F1D0039C09E046
:103AB00058F8041B2068814203D0002006B0BDE8FE
:103AC000F081241D03983044A042F1D803F0E1F8BE
:103AD0000120F3E737B5044615462A4620460199EA
:103AE00005F008F901203EBD2DE9F0414D4A1021B5
:103AF0004D48FFF788FF4B4800784A49497840EA2B
:103B000001204A490860474880784649C97840EA18
:103B1000012047490860434800794249497940EA11
:103B20000120444908603F4880793E49C97940EA0C
:103B30000120414908603B49087A05F081FB0646AF
:103B400000223E4B05F0EEFA044605F0DBFB3C4953
:103B500008603449487A05F073FB06460022374B6B
:103B600005F0E0FA044605F0CDFB354988602D49A3
:103B7000887A05F065FB06460022304B05F0D2FA44
:103B8000044605F0BFFB2E49C8602649C87A05F0F7
:103B900057FB06460022294B05F0C4FA044605F0FF
:103BA000B1FB274948611F49097B484205F037FBB3
:103BB00006460022214B05F0B5FA044605F0A2FBAB
:103BC0001F4988611749497B484205F028FB064692
:103BD00000221A4B05F0A6FA044605F093FB18499B
:103BE00008621049887B05F02BFB06460022134B28
:103BF00005F098FA044605F085FB11494862094929
:103C0000C87B05F01DFB064600220C4B05F08AFA26
:103C1000044605F077FB0A49C862BDE8F081000060
:103C2000BC010020EC22002010F001084801002017
:103C30004C010020500100205401002000408F4022
:103C4000E81B00202DE9F04704464FF07C51204648
:103C500005F0D9F8814625462E46FE48A0EB6606BB
:103C600035462946484605F0CEF88246294605F0F5
:103C7000CAF880464FF07F5105F0C2F80746294642
:103C800005F0C1F805462846BDE8F08730B50021AB
:103C9000002300224C1E72E0EF48007878BB00221F
:103CA000EE480178EE48405C552801D1501CC2B264
:103CB000EA480078401CC1B2E948405C51280BD06A
:103CC000E748405C522807D0E548405C542803D0C0
:103CD000E348405C532801D1501CC2B2022A49D1AA
:103CE0000120DD4D2870DD480078DE4D2870DB486E
:103CF0000078DD4D2D782844DC4D28703AE0FFE750
:103D0000D6480078D94D2D78A84233D10020D24D25
:103D10002870D44803780022002107E0D048C05C16
:103D20001044C2B2581CC3B2481CC1B2CE4800787D
:103D30008142F3DBCA48CD4D2D78405D904219D1C8
:103D4000C74DC8480078401C285C44B200220021BE
:103D500009E0C44800780844C3B2C148C05CC44DFF
:103D60006854481CC1B2C0480078401C8142F0DB56
:103D7000E0B230BDB9480078401CB84D2870B74853
:103D80000078BC4D2D78A84286D100BFF1E72DE91F
:103D9000F04F87B08246BAF1510F7DD0BAF1520F81
:103DA00003D0BAF1540F78D137E1B148C07800029E
:103DB00000B2B1490880AE4880780988084400B252
:103DC000AD490880AA484079000200B2AB4908809A
:103DD000A74800790988084400B2A8490880A44887
:103DE000C079000200B2A6490880A14880790988FC
:103DF000084400B2A24908809F48B0F9000005F0CD
:103E000000FAA049019004F0FEFF834605F03EFA57
:103E1000804600229C4B05F085F9064600229B4B0C
:103E200005F00EF900229A4BCDE9020105F07AF96E
:103E3000984A994BCDE9040105F002F9044605F0D2
:103E400061FA964908608D48B0F9000005F0D9F98B
:103E50008C49019004F0D7FF834605F017FA002241
:103E6000894BCDE9020105F05DF906460022874B3A
:103E700005F0E6F804460022854B05F053F9854A23
:103E8000854BCDE9040105F0DBF8804605F03AFAF0
:103E9000834908607A4801E054E044E1B0F9000049
:103EA00005F0AFF97F49019004F0ADFF834605F0BE
:103EB000EDF90022744BCDE9020105F033F980469B
:103EC0000022724B05F0BCF806460022704B05F04C
:103ED00029F904466F4A704B05F0B2F8CDE90401A8
:103EE00005F010FA704908606C48006805F0CEF9DA
:103EF00021F0004104466D4A6D4B05F0DBF902D21A
:103F00000020664908606648006805F0BFF921F0A6
:103F100000410446654A664B05F0CCF902D2002008
:103F20005F4908606048006805F0B0F921F0004181
:103F300004465E4A5E4B05F0BDF902D200205A49A4
:103F40000860F1E04A48C078000200B25949088090
:103F5000474880780988084400B256490880444898
:103F60004079000200B2544908804148007909882C
:103F7000084400B2504908803D48C079000200B2B0
:103F80004E4908803A4880790988084400B24B4974
:103F900008804848B0F9000005F033F94849059019
:103FA00004F031FF834605F071F906460022364BD6
:103FB00005F0B8F804460022424B05F041F880466F
:103FC00005F0A0F9404908603B48B0F9000005F051
:103FD00026F9064600222C4B05F0A4F804460022E0
:103FE000384B05F02DF8804605F08CF9374908600C
:103FF0003248B0F9000005F012F980460022224B49
:1040000005F090F8064600222E4B05F019F80446FC
:1040100005F078F92E49086086E01548C07800025E
:1040200000B22C490880124880780988084400B200
:10403000284908800E484079000200B226490880CD
:104040000B4800790988084400B2234908800848D1
:10405000C07943E0DF59375FDC020020E90000202F
:10406000F4100020EA00002079000020EB0000207E
:10407000FC220020E8000020C6010020C80100202A
:10408000CA0100200000A0410000E04000409F4025
:10409000008066404AD8124DFB2109401C020020D6
:1040A0002002002000000FC3240200209A99999951
:1040B0009999C93FC0010020C2010020C40100201D
:1040C000000080BF000030401002002014020020D9
:1040D00018020020CC010020CE010020000200B216
:1040E000FC490880FC4880790988084400B2F949F5
:1040F0000880FA48B0F9000005F083F80446F84952
:1041000004F081FEF7490860F748B0F9000005F0B7
:1041100078F8F6490860EF48B0F9000005F071F84A
:10412000F349086000E000BF00BF07B0BDE8F08FB2
:1041300001B59AB0002019901890179016901A980F
:104140001590002014901598512808D015985228E1
:1041500005D01598532802D0159854287ED1E548EB
:10416000007800287BD11598FFF711FE159851288B
:104170001FD0522802D0542851D135E0DE480068C3
:10418000DE49DF4A127841F82200DE480068DE4945
:10419000DB4A127841F82200DC480068DC49D84A42
:1041A000127841F82200D6480078401CD4490870A3
:1041B00045E0D8480168D848D84A127840F822101B
:1041C000D7480168D748D54A127840F82210D64817
:1041D0000068D649D14A127841F82200CF480078C9
:1041E000401CCE4908702AE0BE480068D049D14A38
:1041F000127841F82200BD480068CF49CD4A1278B4
:1042000041F82200BA480068CC49CA4A127841F8FD
:104210002200C8480078401CC64908700FE0B84822
:104220000078401CB6490870BC480078401CBB4967
:104230000870C0480078401CBE49087000BF00BF2D
:10424000AF48007806280ADDB44800780628FADD71
:10425000B84800780628F6DD002001E02CE2A8E14D
:1042600019900DE0A549199851F8200001461390C6
:10427000149804F070FD14901998401CC0B2199065
:104280009F49097819988842ECDB9D48007804F032
:10429000C1FF01461390149804F0EBFDA849086093
:1042A0000020149008460068A64908600020199074
:1042B0000DE09549199851F8200001461390149883
:1042C00004F049FD14901998401CC0B219908C4913
:1042D000097819988842ECDB8948007804F09AFF45
:1042E00001461390149804F0C4FD9549086000201D
:1042F00014900846006894490860002019900DE069
:104300008349199851F8200001461390149804F03D
:1043100022FD14901998401CC0B219907849097870
:1043200019988842ECDB7648007804F073FF014668
:104330001390149804F09DFD8149086000201490AA
:104340000846006881490860002019900DE0724914
:10435000199851F8200001461390149804F0FBFCC2
:1043600014901998401CC0B219906C49097819989A
:104370008842ECDB6948007804F04CFF014613905A
:10438000149804F076FD6E490860002014900846E9
:1043900000686F490860002019900DE06149199884
:1043A00051F8200001461390149804F0D4FC1490A6
:1043B0001998401CC0B21990584909781998884238
:1043C000ECDB5648007804F025FF01461390149862
:1043D00004F04FFD5A490860002014900846006818
:1043E0005C490860002019900DE05049199851F877
:1043F000200001461390149804F0ADFC1490199815
:10440000401CC0B219904549097819988842ECDBE4
:104410004248007804F0FEFE01461390149804F020
:1044200028FD4749086000201490084600684A4962
:104430000860002019900DE03D49199851F82000BE
:1044400001461390149804F086FC14901998401CAF
:10445000C0B219903749097819988842ECDB354881
:10446000007804F0D7FE01461390149804F001FD83
:1044700033490860002014900846006837490860F6
:10448000002019900DE02C49199851F820000146A0
:104490001390149804F05FFC14901998401CC0B25B
:1044A00019902449097819988842ECDB2148007852
:1044B00004F0B0FE01461390149804F0DAFC204991
:1044C0000860002014900846006825490860002014
:1044D000199055E0D0010020FC220020CC010020E2
:1044E000000080BF28020020CE0100202C02002006
:1044F00030020020B40200201C020020082300200B
:104500000403002020020020282300202402002091
:10451000482300201002002068230020050300200B
:10452000140200208823002018020020A823002065
:10453000C823002006030020E823002008240020D0
:10454000B0020020B8020020BC020020C0020020FF
:10455000C4020020C8020020CC020020D0020020AB
:10456000D4020020FE49199851F82000014613900A
:10457000149804F0F0FB14901998401CC0B21990E4
:10458000F849097819988842ECDBF648007804F07D
:1045900041FE01461390149804F06BFCF249086048
:1045A0000020149008460068F04908600120F04996
:1045B0000870EF48007800287ED0EE480168006857
:1045C00004F021FC1290EC480168006804F01BFC28
:1045D0001090EA480168006804F015FC0F901099EB
:1045E00004F0B9FB1190129904F0B5FB1390FFF79A
:1045F00029FB1890E1481899006804F004FCDF4991
:104600000860DD481899006804F0FDFBDA4908608D
:10461000D8481899006804F0F6FBD6490860D348DA
:104620000168006804F0EFFB1290D548016800684B
:1046300004F0E9FB1090D3480168006804F0E3FB44
:104640000F90109904F087FB1190129904F083FBEE
:104650001390FFF7F7FA1890CA481899006804F009
:10466000D2FBC8490860C6481899006804F0CBFB23
:10467000C3490860BD481899006804F0C4FBBB49F1
:104680000860BC48006804F001FECDE91001BA489A
:10469000006804F0FBFDCDE90E01DDE9102306F012
:1046A00049FACDE9120104F02DFEB7490860B3487C
:1046B000006804F0EBFD00E08CE3CDE9100105F0AB
:1046C000E9FFCDE9120104F01DFEB049086008467B
:1046D000006804F0DBFDCDE9080106F0EBFACDE956
:1046E0000C01A948006804F0D1FDCDE9040106F0F1
:1046F00037FBCDE908019D48006804F0C7FDCDE90E
:104700000601DDE9082304F09BFCCDE90A01DDE99F
:104710000C2304F095FCCDE910019C48006804F0DE
:10472000B5FDCDE9040106F01BFBCDE90801964873
:10473000006804F0ABFDCDE9000106F011FBCDE906
:1047400004018F48006804F0A1FDCDE90201DDE914
:10475000042304F075FCCDE90601DDE9082304F02B
:104760006FFCCDE90C018848006804F08FFDCDE9AD
:10477000040106F09FFACDE908018248006804F0C0
:1047800085FDCDE90601DDE9082304F059FCCDE9FA
:104790000A01DDE90C2304F0ACFBCDE90E01DDE9F3
:1047A000102304F047FCCDE9120104F0ABFD179093
:1047B0007648006804F06AFDCDE9080106F0D0FAF9
:1047C000CDE90C016948006804F060FDCDE90A01FB
:1047D000DDE90C2304F034FCCDE910016B480068DE
:1047E00004F054FDCDE9080106F064FACDE90C01AE
:1047F0006348006804F04AFDCDE90A01DDE90C23B5
:1048000004F01EFCCDE90E01DDE9102304F071FB7C
:10481000CDE9120104F076FD16900021179804F0FE
:104820008DFD03D2179880F0004017900021169854
:1048300004F084FD03D2169880F000401690002109
:104840004F48006804F084FD17D200214D480068ED
:1048500004F074FD11D2DDE9160104F00AFB0F909B
:1048600004F014FDCDE9100106F052F8CDE9120173
:1048700004F048FD4649086064E0002140480068B3
:1048800004F05CFD1DD200213E48006804F056FD96
:1048900017D2DDE9160104F0ECFA0D9004F0F6FCF5
:1048A000CDE90E0106F034F800223A4BCDE91001B3
:1048B00004F0C6FBCDE9120104F024FD3449086080
:1048C00040E000212E48006804F042FD1DD2002186
:1048D0002C48006804F03CFD17D2DDE9160104F015
:1048E000C8FA0D9004F0D2FCCDE90E0106F010F8E4
:1048F000294A2A4BCDE9100104F09FFBCDE91201B2
:1049000004F000FD224908601CE0DDE9160104F016
:10491000B0FA0B9004F0BAFCCDE90C0105F0F8FFF9
:104920001D4A1E4BCDE90E0104F087FB0022194BF6
:10493000CDE9100104F084FBCDE9120104F0E2FCA2
:10494000134908601248006804F0A0FC0022144BD0
:10495000CDE9060104F074FBCDE9080122E0000076
:104960000824002006030020B0020020D802002006
:10497000B4020020CC020020C8020020C4020020A3
:10498000D4020020D0020020A0020020A4020020B7
:10499000A80200200000F0BF4AD8124DFB210940B8
:1049A0000000E03F06F0DCF9CDE90C01FE480068AC
:1049B00004F06CFC0022FD4BCDE9020104F040FB49
:1049C000CDE9040106F0CCF9CDE90801F84800680A
:1049D00004F05CFC0022F54BCDE9020104F030FB51
:1049E000CDE9040106F0BCF9CDE90601DDE90823B3
:1049F00004F026FBCDE90A01DDE90C2304F020FBDD
:104A0000CDE91001EB48006804F040FC0022E74BC0
:104A1000CDE9060104F014FBCDE9080106F04AF9DE
:104A2000CDE90C01E048006804F030FC0022DF4BC7
:104A3000CDE9020104F004FBCDE9040106F03AF9E6
:104A4000CDE90801DA48006804F020FC0022D74BC9
:104A5000CDE9020104F0F4FACDE9040106F02AF9E7
:104A6000CDE90601DDE9082304F0EAFACDE90A01FF
:104A7000DDE90C2304F0E4FACDE90E01DDE91023B1
:104A800004F037FACDE9120104F03CFCCA49086091
:104A9000C848006804F0FAFB0022C44BCDE90601C7
:104AA00004F0CEFACDE9080106F05AF9CDE90C017F
:104AB000BD48006804F0EAFB0022BC4BCDE90201CE
:104AC00004F0BEFACDE9040106F04AF9CDE9080187
:104AD000B748006804F0DAFB0022B44BCDE90201CC
:104AE00004F0AEFACDE9040106F0E4F8CDE90601E0
:104AF000DDE9082304F0A4FACDE90A01DDE90C237D
:104B000004F09EFACDE91001AA48006804F0BEFB4B
:104B10000022A64BCDE9060104F092FACDE9080186
:104B200006F0C8F8CDE90C019F48006804F0AEFB20
:104B300000229E4BCDE9020104F082FACDE9040186
:104B400006F0B8F8CDE908019948006804F09EFB2A
:104B50000022964BCDE9020104F072FACDE904017E
:104B600006F0FEF8CDE90601DDE9082304F068FA55
:104B7000CDE90A01DDE90C2304F062FACDE90E016A
:104B8000DDE9102304F056FACDE9120104F0BAFB76
:104B90008A4908608748006804F078FB0022834B4C
:104BA000CDE9060104F04CFACDE9080106F0D8F889
:104BB000CDE90C017C48006804F068FB00227B4BC7
:104BC000CDE9020104F03CFACDE9040106F072F8E7
:104BD000CDE908017648006804F058FB0022734BC9
:104BE000CDE9020104F02CFACDE9040106F0B8F891
:104BF000CDE90601DDE9082304F022FACDE90A0136
:104C0000DDE90C2304F01CFACDE9100169480068C5
:104C100004F03CFB0022654BCDE9060104F010FADC
:104C2000CDE9080106F046F8CDE90C015E480068C0
:104C300004F02CFB00225D4BCDE9020104F000FAE8
:104C4000CDE9040106F08CF8CDE908015848006868
:104C500004F01CFB0022554BCDE9020104F0F0F9F1
:104C6000CDE9040106F026F8CDE90601DDE90823C7
:104C700004F0E6F9CDE90A01DDE90C2304F0E0F9DE
:104C8000CDE90E01DDE9102304F033F9CDE912017D
:104C900004F038FB4A4908604648006804F0F6FA18
:104CA0000022424BCDE9060104F0CAF9CDE9080122
:104CB00006F000F8CDE90C013B48006804F0E6FA84
:104CC00000223A4BCDE9020104F0BAF9CDE9040122
:104CD00006F046F8CDE908013548006804F0D6FA38
:104CE0000022324BCDE9020104F0AAF9CDE904011A
:104CF00006F036F8CDE90601DDE9082304F0A0F955
:104D0000CDE90A01DDE90C2304F09AF9CDE910019F
:104D10002848006804F0BAFA0022244BCDE90601C5
:104D200004F08EF9CDE9080106F01AF8CDE90C017E
:104D30001D48006804F0AAFA00221C4BCDE90201CC
:104D400004F07EF9CDE9040105F0B4FFCDE90801D6
:104D50001748006804F09AFA0022144BCDE90201CA
:104D600004F06EF9CDE9040105F0A4FFCDE90601D8
:104D7000DDE9082304F064F9CDE90A01DDE90C233B
:104D800004F05EF9CDE90E01DDE9102304F052F9DB
:104D9000CDE9120104F0B6FA0A49086000200A4978
:104DA00008700A49087013E0A40200200000E03FE8
:104DB000A0020020A8020020480200204C0200208F
:104DC00050020020540200200403002005030020AC
:104DD000FE4908701BB000BD01B59AB000201890C4
:104DE0001790169015901A98149000201390129016
:104DF000119010900F900E900D900C900B900A90C7
:104E0000FBF7DFFE099004F005FAF14908601498F9
:104E1000512808D01498522805D01498532802D04D
:104E2000149854287ED11498FEF7B1FFE948006821
:104E3000E949EA4A127841F82200E9480068E9495C
:104E4000E64A127841F82200E7480068E749E34A59
:104E5000127841F82200E6480068E649DF4A1278F5
:104E600041F82200E4480068E449DC4A127841F83D
:104E70002200E3480068E349D84A127841F822004A
:104E8000E1480068E149D54A127841F82200E0483B
:104E90000068E049D14A127841F82200DE480068F3
:104EA000DE49CE4A127841F82200CC480078401CF6
:104EB000CA49087008460078062801DD00200870FD
:104EC000002018900DE0C449189851F820000146C0
:104ED0000990159803F03FFF15901898401CC0B238
:104EE000189018980628EEDBCD48006804F0CEF93B
:104EF00021F00041CDE90601CA49159803F0B9FF38
:104F0000039004F0C3F921F00041CDE90401DDE98B
:104F1000062304F08FF821F00041CDE9080104F0E8
:104F2000F1F900E031E1C04908600021159804F072
:104F300005FA05D2BC48006880F00040BA49086014
:104F40000020159018900DE0A649189851F82000FF
:104F500001460990159803F0FEFE15901898401C24
:104F6000C0B2189018980628EEDBB048006804F02C
:104F70008DF921F00041CDE90601AA49159803F009
:104F800078FF039004F082F921F00041CDE904019B
:104F9000DDE9062304F04EF821F00041CDE90801D7
:104FA00004F0B0F9A24908600021159804F0C6F990
:104FB00005D29F48006880F000409D4908600020AD
:104FC000159018900DE08949189851F82000014675
:104FD0000990159803F0BFFE15901898401CC0B2B8
:104FE000189018980628EEDB9248006804F04EF9F5
:104FF00021F00041CDE906018A49159803F039FFF7
:10500000039004F043F921F00041CDE90401DDE90A
:10501000062304F00FF821F00041CDE9080104F067
:1050200071F9854908600021159804F087F905D2C7
:105030008148006880F000407F490860002015909A
:1050400018900DE06B49189851F82000014609901E
:10505000159803F080FE15901898401CC0B2189067
:1050600018980628EEDB6F49159803F002FF734984
:1050700008600020159018900DE06049189851F8CC
:10508000200001460990159803F065FE15901898C8
:10509000401CC0B2189018980628EEDB614915989C
:1050A00003F0E7FE664908600020159018900DE0B7
:1050B0005449189851F8200001460990159803F0BA
:1050C0004AFE15901898401CC0B2189018980628EF
:1050D000EEDB5449159803F0CCFE5A4908600020D5
:1050E000159018900DE04949189851F82000014694
:1050F0000990159803F02FFE15901898401CC0B227
:10510000189018980628EEDB4649159803F0B1FE72
:105110004D4908600020159018900DE03D49189801
:1051200051F8200001460990159803F014FE1590DF
:105130001898401CC0B2189018980628EEDB394920
:10514000159803F096FE41490860002015901890CC
:105150000DE03249189851F8200001460990159841
:1051600003F0F9FD15901898401CC0B218901898DB
:105170000628EEDB2B49159803F07BFE34490860C6
:10518000002015900120334908703248007800282B
:105190007ED02C480168006803F035FE089028484E
:1051A0000168006803F02FFE06902448016800683B
:1051B00003F029FE0590069903F0CDFD07900899AC
:1051C00003F0C9FD0990FEF73DFD45E00603002010
:1051D000F80200201C02002008230020AC0200205E
:1051E0002002002028230020240200204823002041
:1051F00010020020682300201402002088230020D1
:1052000018020020A823002028020020C823002024
:105210002C020020E8230020300200200824002077
:10522000B80200200000C040E0010020BC020020C5
:10523000E4010020C0020020E8010020D401002089
:10524000D8010020DC010020EC010020F00100204A
:10525000F4010020B50200201690FE48169900685F
:1052600003F0D1FDFB490860FB481699006803F084
:10527000CAFDF9490860F9481699006803F0C3FDB2
:10528000F6490860F6480168006803F0BCFD00E0DC
:10529000FEE30890F3480168006803F0B4FD06904F
:1052A000F1480168006803F0AEFD0590069903F02F
:1052B00052FD0790089903F04EFD0990FEF7C2FCDD
:1052C0001690E9481699006803F09DFDE6490860CC
:1052D000E4481699006803F096FDE2490860E0484A
:1052E0001699006803F08FFDDD490860DF4801680A
:1052F000006803F088FD1390DD480168DB48006812
:1053000003F081FD1290DB480168D848006803F083
:105310007AFD1190D8480168D448006803F073FD05
:105320001090D3480168006803F06DFD0F90D148DC
:105330000168CF48006803F066FD0E90CE48016812
:10534000CB48006803F05FFD0D90CA480168006813
:1053500003F059FD0C90C8480168C648006803F086
:1053600052FD0B90C4480168006803F04CFD0A90A0
:1053700011990D9803F0EFFC0690B9480168069862
:1053800003F041FD089010990E9803F036FD04904B
:10539000B4480168049803F036FD06904FF07C5045
:1053A0000C9903F02AFD03900A9903F026FD04905E
:1053B000AD480168049803F026FD0590069903F0B6
:1053C000CAFC0790089903F0C6FC4FF08041099091
:1053D00003F019FDA949086012990B9803F00DFD1F
:1053E00006909F480168069803F00DFD08904FF065
:1053F0007C500F9903F001FD03900A9903F0FDFC26
:10540000049098480168049803F0FDFC06901099F8
:105410000E9803F0A0FC049093480168049803F0F0
:10542000F2FC0590069903F096FC0790089903F0AA
:1054300092FC4FF08041099003F0E5FC9049086030
:1054400008460168006803F0DEFC04908B480168A0
:10545000006803F0D8FC0390049903F07CFC0590ED
:1054600003F014FFCDE9060105F0D2FCCDE90801F7
:1054700003F048FF834908604FF07C500F9903F018
:10548000BCFC05900C9903F0B8FC069074480168C8
:10549000069803F0B8FC089012990B9803F05BFC97
:1054A000049070480168049803F0ADFC06901199CF
:1054B0000D9803F0A2FC04906B480168049803F077
:1054C000A2FC0590069903F046FC0790089903F0AA
:1054D00042FC4FF08041099003F095FC6A49086056
:1054E00011990D9803F089FC039003F0CFFE002280
:1054F0004FF08043CDE9040103F0A2FD0022634B8D
:10550000CDE9060103F09CFDCDE9080103F0FAFEA8
:105510005F4908600B99129803F01DFC059003F099
:10552000B5FE00224FF08043CDE9060103F088FD6F
:10553000CDE9080103F0E6FE564908604FF07C50C3
:105540000F9903F05AFC04900C9903F056FC059057
:1055500003F09CFE00224FF08043CDE9060103F0EA
:105560006FFDCDE9080103F0CDFE4B4908601199AC
:105570000D9803F042FC029043480168029803F042
:1055800042FC04904FF07C500C9903F036FC0190E3
:105590000A9903F032FC02903A480168029803F03D
:1055A00032FC0390049903F0D6FB059003F06EFEE5
:1055B00000224FF04043CDE9060103F041FDCDE963
:1055C000080103F09FFE354908600B99129803F01B
:1055D000C2FB02902C480168029803F014FC04906E
:1055E00010990E9803F009FC029026480168029871
:1055F00003F009FC0390049903F0ADFB059003F060
:1056000045FE00224FF08043CDE9060103F018FD6E
:10561000CDE9080103F076FE214908604FF07C5087
:105620000F9903F0EAFB01900C9903F0E6FB02905E
:1056300015480168029803F0E6FB04900D99119853
:1056400003F089FB02900F480168029803F0DBFB2E
:10565000039027E0D4010020D8010020DC010020C5
:10566000F4010020F0010020EC010020480200209D
:105670004C02002050020020540200203C02002076
:105680004002002034020020380200200000F0BF59
:105690007002002074020020780200207C020020AA
:1056A00080020020049903F056FB059003F0EEFD04
:1056B00000224FF08043CDE9060103F0C1FCCDE9A3
:1056C000080103F01FFEFE490860FE480168FE481D
:1056D000006803F098FB0790F9480168FB480068F0
:1056E00003F091FB0690079903F087FB0990F848B7
:1056F0000168F848006803F086FB0790F6480168E7
:10570000F648006803F07FFB0690079903F075FBED
:105710000890099903F01FFBF1490860E848016807
:10572000F048006803F06FFB0790EF480168E64817
:10573000006803F068FB0690079903F05EFB099090
:10574000E5480168E948006803F05DFB0790E84818
:105750000168E048006803F056FB0690079903F0E3
:105760004CFB0890099903F0F6FAE2490860DE481C
:105770000168D648006803F046FB0290D1480168F2
:10578000D848006803F03FFB0190029903F035FB15
:105790000490D7480168D148006803F034FB0290B8
:1057A000CB480168D148006803F02DFB01900299B5
:1057B00003F023FB0390049903F0CDFA059003F066
:1057C00065FDCD4ACD4BCDE9060103F039FCCDE9AD
:1057D000080103F097FDCA490860C148006803F05A
:1057E00055FD21F00041C74AC74BCDE9080103F040
:1057F00061FD02D20020BA490860BE48006803F08B
:1058000045FD21F00041BF4ABF4BCDE9080103F03F
:1058100051FD02D20020B7490860B948006803F082
:1058200035FD21F00041B74AB74BCDE9080103F03F
:1058300041FD02D20020B24908600021A84800685A
:1058400003F07CFD4ED00021AA48006803F076FDED
:1058500048D00021AA48006803F070FD42D0A0485B
:105860000168AA48006803F0CEFA0990A8480168C8
:10587000099803F070FAA64908609E480168A54897
:10588000006803F0C0FA0990A3480168099803F082
:1058900062FAA14908609A480168A048006803F0CC
:1058A000B2FA09909E480168099803F054FA9C499D
:1058B0000860974801689B48006803F04CFA9949D2
:1058C0000860954801689848006803F044FA9649D2
:1058D0000860934801689548006803F03CFA9349D2
:1058E000086006E000208A4908608B4908608C49FE
:1058F00008607B4801688E48006803F084FA0990CC
:1059000088480168099803F026FA864908607948B2
:1059100001688848006803F076FA099082480168B7
:10592000099803F018FA80490860754801688248B0
:10593000006803F068FA09907C480168099803F050
:105940000AFA7A490860774800687C490860764816
:1059500000687B490860754800687A490860FBF771
:1059600030F9099003F056FC7749086077480168E0
:105970007548006803F0ECFC15D274480168724861
:10598000006803F03AFA059003F080FC704A714B0E
:10599000CDE9060103F054FBCDE9080103F0B2FCA8
:1059A0006D4908601AE0684801684FF09E4003F0B6
:1059B000D2F9049065480168049803F01EFA059036
:1059C00003F064FC624A634BCDE9060103F038FB47
:1059D000CDE9080103F096FC5F4908605948016869
:1059E0005E48006803F00FFA5D49049003F00BFA7B
:1059F0000690534801685B48006803F004FA584970
:105A0000029003F000FA04905748006880F00040CC
:105A100002904A480168029803F0F5F9039004994E
:105A200003F0EBF90590069903F0E7F907904A486F
:105A30000168079803F0E7F94FF08041089003F000
:105A400018FA099049480168099803F084F9474910
:105A500008603B4801684148006803F0D4F94049B8
:105A6000049003F0D0F90690364801683D4800687C
:105A700003F0C9F93A49029003F0C5F904902F48A0
:105A800001683A48006803F0BEF90390049900E009
:105A900023E103F060F90590069903F0AEF9079051
:105AA0002D480168079803F0AEF94FF08041089047
:105AB00003F0DFF909902C480168099858E00000CC
:105AC0008402002080020020F4010020F001002068
:105AD00074020020DC01002078020020D8010020A0
