:020000040800F2
:10000000B028002045010008910200089302000872
:10001000970200089B0200089F02000800000000F1
:10002000000000000000000000000000A302000823
:10003000A502000800000000A7020008A9020008AD
:100040005F0100085F0100085F0100085F01000810
:100050005F0100085F0100085F0100085F01000800
:100060005F0100085F0100085F0100085F010008F0
:100070005F0100085F0100089D0900085F0100089A
:100080005F0100085F0100085F010008E30D000840
:10009000FF0D00085F0100085F0100085F01000814
:1000A0005F0100085F0100085F0100085F010008B0
:1000B000CB0B00085F0100085F0100085F0100082A
:1000C0005F0100085F0100085F0100085F01000890
:1000D0005F010008CD080008F3260008074C00085F
:1000E0005F0100085F0100085F0100085F01000870
:1000F0005F0100085F0100085F0100085F01000860
:100100005F0100085F0100085F0100085F0100084F
:10011000E51300085F0100085F0100085F010008A7
:100120005F0100085F0100085F0100085F0100082F
:10013000DFF80CD00AF066FB0048004769010008B0
:10014000B02800200648804706480047FEE7FEE743
:10015000FEE7FEE7FEE7FEE7FEE7FEE7FEE7FEE777
:10016000FD9D0008310100081CB53EA103C9CDE981
:10017000000109F043FE4FF4E13000F009F94FF4BB
:10018000E13001F019FF4FF4164003F02FFE4FF459
:10019000E13001F051F900F0B7FE01F0E5FE00F0AA
:1001A000ADFC00F07DFC00F027FC01F04DFC02F0FE
:1001B000BFFE02F0C7FA04F013FE4FF47A7000F0AD
:1001C00003FC4FF47A7000F0FFFB01F0CDFD00F06E
:1001D000F2FC2649086033E0254800782549097873
:1001E00088421CD004F0CEFE2349087008460078EF
:1001F00051280BD008460078522807D008460078CE
:10020000532803D008460078542808D11A480078AB
:1002100005F008F919480078401C1849087000F0EA
:10022000CAFC174908600968104A1268881A0AF05F
:10023000F5F8144908601449124800680AF0AAF950
:100240000E4800781528C7DB02F0D0FD32220121CC
:100250000E4802F0DCFD02F0D6FD01E002F003FEE4
:10026000FCE70000112233445566770008000020A7
:10027000E9000020E800002010000020000000201D
:100280000C00002004000020001B374AE770000823
:10029000704700BFFEE700BFFEE700BFFEE700BFFC
:1002A000FEE770477047704710B502F005FE10BDBD
:1002B0000246002003E000231354431C98B28842F6
:1002C000F9DB70472DE9F04F07460D461646994673
:1002D00007EB0508BA460024A34601E0601C84B27F
:1002E0002A4850F8340008B1082CF7DD082C05DB4B
:1002F000FF2089F800000020BDE8F08F234840F877
:10030000347000EBC4000571204800EBC400467156
:100310001E4800EBC4008671A34605FB06F1384673
:10032000FFF7C6FF002405E0CAF80080C246A844D3
:10033000601C84B2701EA042F6DC144800EBCB00B7
:10034000DAE710B502461368907918B9FF200870F3
:10035000002010BD9079401E9071907908B1186806
:1003600010601C46241D002008702046F1E702465C
:1003700009B9FF207047091F0B4610681860136009
:100380009079401C90710020F4E700005003002099
:1003900038B504460020FE490870FE490870FE4941
:1003A0000870FE4908701420FD490870204600F0CE
:1003B0003AFA6B4620221146FA48FFF783FFFA49C2
:1003C000086038BD10B5F6480078142800D110BD7B
:1003D000002240F22661F54809F079FBF448EF4924
:1003E000097810F8310010B3EC480078EA49097830
:1003F00088421CD0EE48E949097810F83100401EC7
:10040000EB49E64A127801F832000846E34A1278CE
:1004100000EBC2004068E74A1278815CE34809F0CB
:10042000B7FBE4480078401CE24908705CE0DB4818
:100430000078D949097888424DD0DD48D74A1278EA
:1004400000EBC2004168D8480068FFF790FFD3482E
:100450000078401CC0B2D1490870142801DB00208C
:100460000870CF480078401CC0B2CD4908701428ED
:1004700001DB142008700020CE490870C7480078BE
:10048000C549097888421CD0C948C449097810F880
:100490003100401EC1B2C648C04A127800F832107E
:1004A000BE4A127800EBC2004068C24A1278815CF2
:1004B000BE4809F06DFBBF480078401CBD4908707C
:1004C00012E00020BC4908701420B54908700020D3
:1004D000B849087008E00020B74908701420B049F6
:1004E00008700020B3490870012240F22661AF482D
:1004F00009F0EDFA00BF6AE710B5AC4809F04CFB13
:10050000C1B2A34802780078401CA14B1870AB48D8
:100510008154184600789F490978884204D19D4843
:100520000078401C9B49087010BDF8B505460C4684
:1005300026460CB90120F8BD002240F226619B48F6
:1005400009F0C5FA1C2094FBF0F100FB114028B122
:100550001C2094FBF0F0401CC4B203E01C2094FB70
:10056000F0F0C4B28E480078A04207DA012240F2CF
:1005700026618E4809F0ABFAFF20DCE769468A481D
:100580000068FFF7DEFE8A49834A127801EBC20158
:10059000486081480078142802DB00207E490870FA
:1005A00000242FE0287882497B4A127801EBC201AF
:1005B00049680855601CC4B21C2C20DB1C217C48F7
:1005C000754A127800F8321073480078401CC0B2A7
:1005D00071490870142801DB0020087069467248D0
:1005E0000068FFF7AEFE72496B4A127801EBC20158
:1005F00048606B480078401E6949087000246D1CF3
:10060000701EC6B2002ECDD19CB1694862490978EE
:1006100000F8314062480078401E614908705E4829
:100620000078401CC0B25C490870142801DB00202F
:1006300008706148007820B9FFF7C4FE01205E49C8
:100640000870012240F22661584809F040FA002063
:1006500071E770B50546002400E0641C285D0028A1
:10066000FBD1E1B22846FFF760FF70BD10B54B48E3
:10067000007849490978884234D04D48474A127871
:1006800000EBC200416848480068FFF770FE43482D
:100690000078401CC0B241490870142801DB0020DA
:1006A00008703F480078401CC0B23D4908701428CB
:1006B00001DB1420087039480078374909788842EE
:1006C0000CD03B4A354B1B7812F83310334B1B7858
:1006D00002EBC302506800F01CF924E00020364908
:1006E000087020E032482D4A127800EBC2004168C1
:1006F0002D480068FFF73BFE28480078401CC0B238
:1007000026490870142801DB00200870244800786E
:10071000401CC0B222490870142801DB1420087064
:1007200000202549087010BD10B55CE0244A1278FD
:10073000002A53D10020174A1278921ED1B21F4AC4
:10074000525C552A01D1421CD0B2124A1278521E74
:10075000D1B21A4A525CAA2A01D1421CD0B20D4A27
:100760001278184B1B68022404FB0322D1B2134AEF
:10077000525CFF2A01D1421CD0B203282ED10122A3
:100780000F4B1A70034A12780F4B1A70014A1DE082
:100790002500002026000020220000202300002049
:1007A000240000204C0500202C00002000380140CF
:1007B000AC03002021000020140000204C04002085
:1007C000200000201C000020270000201278094B88
:1007D0001B68022404FB0322074B1A70074A127895
:1007E000521C064B1A70054A1278054B1B789A4228
:1007F0009CD110BD1C0000202800002026000020F5
:100800002500002008B525208DF8000000208DF877
:10081000010003208DF8020001208DF803006846D6
:1008200006F089FC08BD10B586B00446012144F2EB
:10083000050008F0FBF801A807F0CBFE4FF40070AC
:10084000ADF8040003208DF8060018208DF807008D
:1008500001A9594807F034FE01A807F0BAFE4FF489
:100860008060ADF8040004208DF8070001A952480B
:1008700007F026FE514809F04FF802A809F0F8F8F1
:1008800002940020ADF80C00ADF80E00ADF8100099
:100890000C20ADF812000020ADF8140002A9474862
:1008A00009F07DF8012240F22661444809F00FF971
:1008B000FFF7A8FF012240F22551404809F007F94F
:1008C00001213E4809F0F7F806B010BD10B520210F
:1008D0003A4809F0CBF9012808D12021374809F01E
:1008E000D2F93748007808B1FFF706FE40213348B7
:1008F00009F0BCF9012808D14021304809F0C3F9BA
:100900002F48007808B1FFF75DFD01202C490870E1
:1009100010BD30B58DB005460C460121084608F0E3
:1009200078F8284807F066F92448001D02900395DE
:10093000102004900594002006908020079000204D
:10094000089009900A904FF440500B9000200C90B2
:1009500002A91C4807F0F0F901220221194807F00A
:1009600022FA0E208DF8040000208DF805008DF885
:10097000060001208DF8070001A806F0DCFB01212C
:10098000104807F004FA012280210C4809F0C4F84D
:1009900001210A4809F08FF80DB030BD10B54FF4B1
:1009A000005007F02DFA012804D1400307F01DFA8A
:1009B000FFF75CFE10BD0000000801400038014058
:1009C0003000002044000240002107E0002200E047
:1009D000521C43F278739A42FADB491C8142F5D3E8
:1009E0007047002105E0002200E0521C0E2AFCDBCB
:1009F000491C8142F7D3704730B57F4800684FF4F7
:100A00007A72B0FBF2F1B1F1807F01D301201DE0D9
:100A100021F07F40401E4FF0E022506150170F221E
:100A2000002807DA13071D0E744B00F00F04241F73
:100A30001D5503E013071C0E714B1C5400BF002012
:100A40004FF0E022906107201061002008B100BF44
:100A5000FEE74FF0E020006920F001004FF0E021B8
:100A6000086130BD4FF0E020006940F001004FF018
:100A7000E0210861704708B54FF4E06006F056FBCE
:100A80001C208DF8000000208DF8010005208DF855
:100A9000020001208DF80300684606F04CFB08BDFB
:100AA0000EB50121084607F0CEFFFFF7E4FF4FF037
:100AB000804008F023F841F28830ADF80400472068
:100AC000ADF800000020ADF80600ADF80200694660
:100AD0004FF0804008F0E6F80121880708F004FF95
:100AE00001221146900708F054FC0121880708F004
:100AF00035FC0021012007F0A6FF0EBD0EB5012137
:100B0000062007F0A0FF684608F0F8FB4FF6FF70DC
:100B1000ADF804000020ADF80000ADF80600ADF817
:100B200002006946374808F0BDF8002211463548F2
:100B300008F0BBFC0121334808F05CFE302131484D
:100B400008F046FC07212F4808F08AFE80212D4836
:100B500008F08FFE01212B4808F000FD4FF6FF70D2
:100B6000ADF804004720ADF800000020ADF8060005
:100B7000ADF802006946244808F094F801212248A3
:100B800008F0ECFC0421204808F06AFE01211E4810
:100B900008F03CFE20211C4808F059FE80211A482C
:100BA00008F067FE0121184808F0D8FB012115481C
:100BB00008F0D4FB0EBD002012492431088800043F
:100BC0001149243109880844704710B5012188076C
:100BD00008F08DFE40B10121880708F099FE0B480E
:100BE0000068401C09490860084800680A2802D3C8
:100BF00000200649086010BD3803002018ED00E011
:100C000000E400E000040040000800403400002040
:100C100000B589B014208DF8000000208DF8010087
:100C200001208DF802008DF80300684606F083FA73
:100C300013208DF8000000208DF8010002208DF8AF
:100C4000020001208DF80300684606F074FAAA48F5
:100C500006F0DAFA0121480607F0F5FE0121082026
:100C600007F0E4FE0121084607F0E0FE4FF4807033
:100C7000ADF8140003208DF8160048208DF81700F9
:100C800005A99E4807F01CFC4FF40070ADF8140055
:100C900003208DF8160018208DF8170005A9974835
:100CA00007F00EFC01214FF4EA1007F0D8FC06A86B
:100CB00006F0CEFB00208DF81E008DF81F008DF889
:100CC000200001208DF8210000208DF822008DF8F1
:100CD00023008DF81A008DF81B0001208DF81C00F0
:100CE00002208DF81D000C20ADF8180006A98248DE
:100CF00006F0A3FA00208DF80E008DF80F000120F9
:100D00008DF810000020ADF80400ADF80600ADF835
:100D10000800ADF80A00ADF80C0001208DF81100B4
:100D200001A806F014FB0221734806F010FF012110
:100D3000714806F00CFF012203216F4806F006FE01
:100D400009B000BD7FB586B0DDE90E560798029068
:100D500004208DF80C009DF820008DF80D008DF812
:100D60000E50002407E009983044015D0DF10F009A
:100D70000155601CC4B2AC42F5DB01A95E4806F027
:100D8000D5FB0AB070BD30B585B00446A07B28B94C
:100D90002068009000208DF8080001E02068019094
:100DA00004208DF80800E07B18B900208DF80900B8
:100DB00002E002208DF80900207B8DF80A00002552
:100DC00006E0201D415D0DF10B004155681CC5B2C8
:100DD000207BA842F5DC6946474806F0A7FB05B032
:100DE00030BD10B50121444806F017FE012805D199
:100DF0000121414806F0ABFE00F097F810BD10B598
:100E000086B001AA00213C4806F085FC9DF80D0043
:100E100000286AD1029880B20B2806D0A0F5806025
:100E2000093803D003285ED12EE05DE00298C0F3BC
:100E30000740012806D002280CD0032812D004282D
:100E400020D117E0DDF80F10DDF813002C4AC2E9BD
:100E5000001017E0DDF80F10DDF81300284AC2E992
:100E600004100FE0DDF80F10DDF81300244AC2E98A
:100E7000021007E0DDF80F10DDF81300204AC2E988
:100E8000061000BF00BF2FE00298C0F30740012802
:100E900006D002280CD0032812D0042820D117E055
:100EA000DDF80F40204609F0B0FA1649086018E056
:100EB000DDF80F40604209F0A8FA1249486010E0DE
:100EC000DDF80F40204609F0A0FA0E49886008E0DE
:100ED000DDF80F40604209F098FA0A49C86000E066
:100EE00000BF00BF00E000BF00BF0021024806F0C5
:100EF0008AFC06B010BD000000640040000C0140F8
:100F0000702400209024002008B50020F9490870C2
:100F1000F9490870FFF77CFE6B4620221146F7481E
:100F2000FFF7D0F9F649086008BD1CB5F548006820
:100F300020280DD10020F4490870F448F44A1278B2
:100F400000EB0210C168EE480068FFF710FA1CBD04
:100F500000220121EF4806F0F9FCEC48EC49097841
:100F600000EB01100078002849D0E9480078EA49F0
:100F70000978884243D0E548E549097800EB01103B
:100F80000078082820DBE148E149097800EB0110EE
:100F900000780838DD49DE4A127801EB021108704A
:100FA000DE4800680821CDE90010D848D849097802
:100FB00000EB011494E80F00FFF7C4FED748006867
:100FC0000830D649086097E0D4480168CF48D04A35
:100FD000127800EB02100078CDE90001CB48CC4933
:100FE000097800EB011494E80F00FFF7ABFE002036
:100FF000C649C74A127801EB021108707CE0C44868
:101000000078C549097888426DD0C048C04A127836
:1010100000EB0210C168BA480068FFF7A8F9BC48A5
:101020000078401CC0B2BA490870202801DB0020BB
:101030000870B4480068401CB2490860202801D3F9
:10104000202008600020B5490860B1480078B24906
:10105000097888423DD0AD48AD49097800EB0110D0
:101060000078082821DBA948A949097800EB01107C
:1010700000780838C1B2A548A54A127800EB0210E2
:101080000170A64800680821CDE900109F48A049DA
:10109000097800EB011494E80F00FFF753FE9F4816
:1010A000006808309D49086026E09C480168974820
:1010B000974A127800EB02100078CDE900019348BE
:1010C0009349097800EB011494E80F00FFF73AFE0A
:1010D00012E000208C49087020208A490860002016
:1010E0008E49086008E00020874908702020854963
:1010F000086000208949086001221146854806F0F1
:1011000025FC00BF23E72DE9F84305460C461646AB
:101110001F46A04614B90120BDE8F8830022012132
:101120007C4806F013FC1C2094FBF0F100FB1140FE
:1011300028B11C2094FBF0F0401CC4B203E01C203A
:1011400094FBF0F0C4B26F480068A04206D20122BE
:101150001146704806F0FAFB0120DDE76946684851
:101160000068FFF7EEF869496B4A127801EB02114B
:10117000C86069480078202802DB002066490870B2
:1011800000243EE029786148634A127800EB02109F
:10119000C0680155601CC4B21C2C2DDB5B485E4945
:1011A000097800EB011046601C2058495A4A127811
:1011B00001EB0211087055485749097800EB0110FE
:1011C000077255480078401CC0B253490870202867
:1011D00001DB00200870694649480068FFF7B1F854
:1011E0004A494D4A127801EB0211C860454800682F
:1011F000401E4449086000246D1CA8F1010000F065
:10120000FF08B8F1000FBDD104B340484249097846
:1012100000EB011046603D483F49097800EB0110A2
:1012200004703A483C49097800EB011007723548D0
:101230000068401E3349086037480078401CC0B23F
:1012400035490870202801DB002008702E480078FE
:1012500020B901202C490870FFF767FE01221146D2
:101260002C4806F073FB002056E7002000212C4A92
:10127000116000BF03E000212A4A1154401CFF28DE
:10128000F9DD704710B50246002000BF03E00023DF
:10129000244C2354401CFF28F9DD10BD0FB430B599
:1012A00000209DF8161000BF17E00DF11702135C27
:1012B000104A14781278521C0E4D2A70194A135590
:1012C0002A4612780C4B1B789A4204D10A4A1278AB
:1012D000521C094B1A70421CD0B28842E5DB30BC6C
:1012E0005DF814FB024622B10F4802600F480170FE
:1012F00023E01DE054000020550000206C0C00206D
:10130000580000203C000020410000206C09002013
:101310003900002000640040380000205000002008
:10132000440000206C0B0020480000204C000020EE
:10133000B2F5807F01D9FF2070470020FCE7000054
:1013400010B586B0044634208DF8000000208DF8DA
:10135000010004208DF8020001208DF8030068468A
:1013600005F0E9FE0121102007F060FB0121C8040F
:1013700007F069FB2D48406820F480602B494860E5
:101380000846406860F480604860C814ADF81400F6
:1013900004208DF8170005A9244807F091F801945E
:1013A0000020ADF80800ADF80A00ADF80C00ADF86B
:1013B00010000C20ADF80E0001A91D4808F0EFFA4E
:1013C000012240F225511A4808F081FB012240F227
:1013D0002661174808F07BFB0121154808F06BFBDC
:1013E00006B010BD10B52021114808F03FFC0128BF
:1013F00008D120210E4808F046FC0E48007808B1BC
:1014000000F0CEF840210A4808F030FC012808D14D
:101410004021074808F037FC0648007808B100F082
:1014200025F801200349087010BD0000001001409C
:10143000004C00405C00002038B504460020FE4906
:101440000870FE490870FE490870FE4908701420B3
:10145000FD4908602046FFF773FF6B4620221146C6
:10146000FA48FEF72FFFFA49086038BD10B5F64874
:101470000068142800D110BD002240F22661F54812
:1014800008F025FBF448EF49097810F8310018B34B
:10149000EC480078EA49097888421DD0EE48E949CD
:1014A000097810F83100401EEB49E64A127801F83D
:1014B00032000846E349097800EBC1004068E7497B
:1014C000097844182178E34808F062FBE348007883
:1014D000401CE24908705BE0DA480078D849097896
:1014E00088424CD0DC48D74A127800EBC2004168F1
:1014F000D7480068FEF73BFFD2480078401CC0B2D6
:10150000D0490870142801DB00200870CE4800681C
:10151000401CCD490860142801D314200860002025
:10152000CE490870C7480078C549097888421CD060
:10153000C948C449097810F83100401EC649C14A5B
:10154000127801F832000846BE4A127800EBC20059
:101550004068C24A1278815CBE4808F019FBBF4857
:101560000078401CBD49087012E00020BC4908709A
:101570001420B54908600020B849087008E0002030
:10158000B74908701420B04908600020B3490870BA
:10159000012240F22661AF4808F099FA00BF6AE7DD
:1015A00010B5AC4808F0F8FAC1B2A3480278007848
:1015B000401CA14B1870AB488154184600789F49D5
:1015C0000978884204D19D480078401C9B490870E6
:1015D00010BDF8B505460C4626460CB90120F8BDED
:1015E000002240F226619B4808F071FA1C2094FB0F
:1015F000F0F100FB114028B11C2094FBF0F0401CDE
:10160000C4B203E01C2094FBF0F0C4B28E48006822
:10161000A04207D2012240F226618E4808F057FA14
:10162000FF20DCE769468A480068FEF78AFE8A499F
:10163000834A127801EBC20148608148007814287F
:1016400002DB00207E49087000242FE028788249C0
:101650007B4A127801EBC20149680855601CC4B28C
:101660001C2C20DB1C217C48754A127800F83210B3
:1016700073480078401CC0B271490870142801DB1F
:1016800000200870694672480068FEF75AFE7249E9
:101690006B4A127801EBC20148606B480068401E3B
:1016A0006949086000246D1C701EC6B2002ECDD1A1
:1016B0009CB169486249097800F831406248006885
:1016C000401E614908605E480078401CC0B25C4919
:1016D0000870142801DB002008706148007820B9E8
:1016E000FFF7C4FE01205E490870012240F2266126
:1016F000584808F0ECF9002071E770B50546002461
:1017000000E0641C285D0028FBD1E1B22846FFF709
:1017100060FF70BD7EB50020F5E0534C2478002CAE
:101720004AD10022454C2478641EE1B24D4C645CE1
:10173000022C01D1541CE2B2404C24784B4D2D6850
:10174000022606FB0544E1B2464C645C0D2C01D137
:10175000541CE2B2394C2478444D2D68022606FB15
:101760000544641CE1B23F4C645C0A2C01D1541C5A
:10177000E2B2324C24783D4D2D68022606FB05442A
:10178000A41CE1B2374C645C032C01D1541CE2B2BE
:10179000042A10D10124344D2C700120274C2478C8
:1017A000334D2C70254C2478304D2D68022606FBD5
:1017B0000544304D2C70A1E0204C24782D4D2D781F
:1017C000AC42F8D10024284D2C70002100238DE07C
:1017D000274C24780C44234D2C5D302C0EDB244CFC
:1017E00024780C442C5D392C08DC214C24780C44E2
:1017F0002C5D303CE4B20DF8014014E01C4C247820
:101800000C44184D2C5D412C0DDB194C24780C44F4
:101810002C5D462C07DC164C24780C442C5D373CA0
:10182000E4B20DF80140124C24780C44641C0D4DB8
:101830002C5D302C32DB1FE0E8000020E9000020A6
:10184000E0000020E1000020E40000200C12002055
:10185000F0000020004C00406C100020DE00002052
:10186000600000200C11002078000020740000208F
:10187000EA000020EB000020684C24780C44641C33
:101880002C5D392C0ADC654C24780C44641C2C5DDE
:10189000303CE5B24C1C0DF8045018E05F4C247845
:1018A0000C44641C5E4D2C5D412C10DB5B4C247899
:1018B0000C44641C2C5D462C09DC584C24780C44E8
:1018C000641C2C5D373CE5B24C1C0DF804504C1CDC
:1018D0001DF804501DF8014005EB0414E6B21C4647
:1018E0005D1CEBB24F4D2E558C1CE1B24E4C246862
:1018F000641E64008C423FF66BAF01204B4C247891
:10190000641C4A4D2C70494C2478494D2D78AC42CA
:101910007FF403AF7EBD10B50146012024E00A78B4
:1019200000EB8003434CE35C9A421CD14A7800EB05
:10193000800323445B789A4215D18A7800EB8003B8
:1019400023449B789A420ED1CA7800EB800323444B
:10195000DB789A4207D10A7900EB800323441B7994
:101960009A4200D102E0401C1428D8DB00BF324A62
:101970001278324B1A70012801DB102800DD10BDEF
:101980002D4B187000BFFAE730B5C1B000244FF4FA
:10199000807101A808F0CBFA00252448007824497A
:1019A0000978884221D0FFF7B5FEF0B10120244923
:1019B000087005221B49234808F0C4FAA8B1194849
:1019C000FFF7A9FF01A801231B4A04210090022070
:1019D00002F0E7FBC4B2214601A802F0D3FA19488D
:1019E00010490A6802600979017141B030BD0020D8
:1019F0000AE01149097801EB81010E4A1144095CA2
:101A0000084A1154411CC8B20528F2DB0D49054AA9
:101A100013680B6012790A7170470000EA00002019
:101A20000C1100206100002074000020E90000205B
:101A3000E80000207A0000206600002067000020F7
:101A4000680000206900002008B50121512006F03F
:101A5000EDFF0420ADF8000010208DF803000320F6
:101A60008DF802006946F94806F02AFD0421F7487E
:101A700006F0D1FD4FF48040ADF8000010208DF845
:101A8000030003208DF802006946F14806F018FDB6
:101A90004FF48041EE4806F0BEFD08BD0146002926
:101AA00001DD08467047002901DA4842FAE7084696
:101AB000F8E72DE9F04F85B08246DFF898B3E648A5
:101AC0000068E54989680844E34949680844E249EF
:101AD000C9684418E11704EB9171881008F095FC6F
:101AE0000290DD4800684042DB4989680844DA49D1
:101AF00049680844D849C968441AE11704EB917150
:101B0000881008F082FC0390D34909684942D24A00
:101B100092681144D04A5268891ACF4AD26888180C
:101B200008F081FC06460F46584608F0D2FC002219
:101B3000CA4BCDE9000108F087FB804632463B46A0
:101B400008F082FB044608F0FFFCC54904900860D9
:101B500002A807C88AE8070005B0BDE8F08FFFB506
:101B600085B00446BF4D2846089908F050FA06464D
:101B7000DDE9060108F045FA0746314608F041FA6A
:101B800001902846089908F042FA0646DDE9060168
:101B900008F0E5F90746314608F0E1F902902846D9
:101BA000089908F034FA0646DDE9060108F0D7F98D
:101BB0000746314608F025FA03902846089908F0B0
:101BC00026FA0646DDE9060108F01BFA074631460B
:101BD00008F0C5F9049001A80FC884E80F0009B007
:101BE000F0BD2DE9FF470C9C9A4DDDE9000108F09E
:101BF000B6F98046029908F0B2F90746039908F051
:101C0000AEF906464FF0814108F037FA206000989F
:101C100080F000494846019908F0A1F980460299F0
:101C200008F09DF90746039908F0EBF906464FF0D6
:101C3000814108F022FA6060009880F0004A504626
:101C4000019908F08CF98146029908F0DAF980468A
:101C5000039908F084F90746294608F0D8F90646A2
:101C60004FF0814108F009FAA060BDE8FF872DE937
:101C7000FC4104460D4616461F467BA103C9CDE92B
:101C80000001F8B28DF80300F0B28DF80400E8B25C
:101C90008DF805009DF802009DF8031008449DF89A
:101CA000041008449DF805100844C0B28DF80600E1
:101CB0000023224608216846FFF725FABDE8FC818B
:101CC0007CB50446002040EA044040F44075002002
:101CD000009000232A4604216846FFF714FA0020EA
:101CE00040EA044000F203350220009000232A4617
:101CF00004216846FFF707FA002040EA044040F458
:101D000040750120009000232A4604216846FFF711
:101D1000FAF97CBD7CB50446002040EA044040F45A
:101D200040750020009000232A4604216846FFF7F2
:101D3000EAF9002040EA044000F203350420009054
:101D400000232A4604216846FFF7DDF9002040EA17
:101D5000044040F440750120009000232A460421ED
:101D60006846FFF7D0F97CBD10B50120FFF7A8FF4A
:101D70000220FFF7A5FF0320FFF7A2FF0420FFF7D3
:101D80009FFF10BD10B50120FFF7C4FF0A20FEF72A
:101D90001BFE0220FFF7BEFF0A20FEF715FE032000
:101DA000FFF7B8FF0A20FEF70FFE0420FFF7B2FF8F
:101DB00010BDF8B504460D46002040EA044000F28C
:101DC000053600950023324604216846FFF79BF94B
:101DD000F8BD2DE9FC41064614461D464FF00000B3
:101DE00040EA064040F44177CDE900454FF000035A
:101DF0003A464FF008016846FFF785F9BDE8FC81D7
:101E000038B504464FF0807040EA044000F20C45BB
:101E10000020009002232A4604216846FFF773F948
:101E200038BD1FB504464FF0807040EA044000F210
:101E30000940009004208DF80C0001208DF80E0060
:101E40008DF80F006846FEF79EFF1FBD0018014089
:101E50000010014090C4DF3A4C0900200000D03F40
:101E6000F40000200070124455AA0300000000FF97
:101E700010B50446394A00230120FFF7AAFF374A6C
:101E80005242D3140220FFF7A4FF344A0023032058
:101E9000FFF79FFF314A5242D3140420FFF799FF06
:101EA00010BD704710B500210120FFF782FF00210F
:101EB0000220FFF77EFF00210320FFF77AFF0021B9
:101EC0000420FFF776FF10BD2DE9FF47009808F0CA
:101ED00000FB0746224A234B08F0B6F9054608F0F6
:101EE000D9FA044621460120FFF763FF019880F0EC
:101EF0000049484608F0EDFA0746194A194B08F020
:101F0000A3F9054608F0C6FA044621460220FFF769
:101F100050FF029808F0DDFA0746114A114B08F00D
:101F200093F9054608F0B6FA044621460320FFF768
:101F300040FF039880F00049484608F0CAFA074677
:101F4000074A084B08F080F9054608F0A3FA044652
:101F500021460420FFF72DFFBDE8FF87801A060009
:101F60009EEFA7C64B97834008B50121402006F09D
:101F70005DFD0320ADF8000010208DF80300032064
:101F80008DF8020069460B4806F09AFA03210948C9
:101F900006F041FB08BD10B50121064806F02EFBF6
:101FA000C0F10100C4B222460121024806F037FB0D
:101FB00010BD00000018014038B504460020F84963
:101FC0000870F8490870F8490870F849087014203A
:101FD000F7490860204600F034FB6B46202211468A
:101FE000F448FEF76FF9F449086038BD10B5F048C1
:101FF0000068142800D110BD002240F22661EF488D
:1020000007F065FDEE48E949097810F8310010B392
:10201000E6480078E449097888421CD0E848E3495A
:10202000097810F83100401EE549E04A127801F8BD
:1020300032000846DD4A127800EBC2004068E14AEF
:102040001278815CDD4807F0A3FDDE480078401C73
:10205000DC4908705BE0D5480078D34909788842AC
:102060004CD0D748D14A127800EBC2004168D24820
:102070000068FEF77CF9CD480078401CC0B2CB491F
:102080000870142801DB00200870C9480068401C53
:10209000C7490860142801D3142008600020C949EA
:1020A0000870C2480078C049097888421CD0C448EA
:1020B000BE49097810F83100401EC1B2C048BB4A81
:1020C000127800F83210B94A127800EBC20040686A
:1020D000BC4A1278815CB94807F05AFDB9480078CB
:1020E000401CB849087012E00020B749087014205D
:1020F000AF4908600020B349087008E00020B249E9
:1021000008701420AA4908600020AE490870012216
:1021100040F22661A94807F0DAFC00BF6BE710B572
:10212000A64807F039FDC1B29D4802780078401CEE
:102130009B4B1870A5488154184600789949097836
:10214000884204D197480078401C9649087010BD19
:10215000F8B505460C4626460CB90120F8BD00220C
:1021600040F22661954807F0B2FC1C2094FBF0F188
:1021700000FB114028B11C2094FBF0F0401CC4B2BD
:1021800003E01C2094FBF0F0C4B289480068A04230
:1021900007D2012240F22661884807F098FCFF2010
:1021A000DCE7694684480068FEF7CBF884497E4A3C
:1021B000127801EBC20148607B480078142802DBEA
:1021C00000207949087000242FE028787C49764A5D
:1021D000127801EBC20149680855601CC4B21C2C7E
:1021E00020DB1C217648704A127800F832106E48C5
:1021F0000078401CC0B26C490870142801DB002034
:10220000087069466C480068FEF79BF86C49664A9E
:10221000127801EBC201486065480068401E6449BD
:10222000086000246D1C701EC6B2002ECDD19CB17A
:1022300063485D49097800F831405D480068401EF8
:102240005B49086058480078401CC0B25649087085
:10225000142801DB002008705B48007820B9FFF7E4
:10226000C5FE012058490870012240F226615348FA
:1022700007F02DFC002071E770B50546002400E052
:10228000641C285D0028FBD1E1B22846FFF760FFFF
:1022900070BD30B5014600240A464C4DAB5C551C60
:1022A000EAB24A4DAD5C43EA0524204630BD2DE933
:1022B000F04F89B045484649097810F801B0BBF1A4
:1022C000A10F09D0BBF1A20F66D0BBF1A30F64D060
:1022D000BBF1A40F62D102E13D480078401C00F040
:1022E000FF0A5046FFF7D5FF3A493B4A127841F8BA
:1022F000220037480078C01C00F0FF0A5046FFF764
:10230000C8FF3649344A127841F822003048007834
:10231000401D00F0FF0A2D4810F80A102E480278E0
:102320000078401C2C4B18702D4840F8221018469D
:102330000078032802DB0020194608702448007842
:10234000801D00F0FF0A234800682249496888423E
:1023500005D1204840681F498968884202D009B0E9
:10236000BDE8F08F1D4800681C494968884205D1C6
:102370001A48406819498968884200D0EFE7184830
:10238000006817494968884205D1154840681449D2
:102390008968884226D0E2E79FE09FE0A0E0000045
:1023A00018010020190100200F0100201001002059
:1023B00014010020AC170020200100200044004040
:1023C0000C1600200E01002000010020AC16002099
:1023D0001A010020AC1B00200D010020B81B0020BA
:1023E000C41B00207F4810F80A00012804D17E4851
:1023F000806840427C4988607C49886808F013F80E
:1024000080467B4A7B4B07F01FFF00227A4BCDE9C9
:10241000000107F08BFF064609F084F8CDE90401BE
:102420007649886807F0FFFFCDE90201DDE9042362
:1024300007F00AFF044608F087F806906B498868A1
:1024400007F0F1FF6A4A6B4BCDE9000107F0FCFE93
:1024500006460022684B07F069FF804609F0B8F88D
:10246000CDE902016549886807F0DDFF0446DDE932
:10247000022307F0E9FECDE9040108F065F80790B2
:102480005949886807F0CFFF8046594A594B07F0F1
:10249000DBFE06460022584B07F048FF044608F0D2
:1024A00053F808900021069808F06AF809D1002135
:1024B000079808F065F804D10021089808F060F842
:1024C00003D001204E49087002E000204C490870FA
:1024D0004C4806A90EC90EC002E001E000E000BFB2
:1024E00000BF00BF3BE730B54FF0FF3064E0464C23
:1024F0002478002C37D10021444C2478641FE2B2A8
:10250000384CA45C552C01D14C1CE1B23F4C2478D2
:10251000241FE2B2334CA45CAA2C01D14C1CE1B2C2
:102520003A4C2478E41EE2B22E4CA45C1E2C01D15D
:102530004C1CE1B203293AD10124334D2C70334CA9
:102540002478641EE2B2274CA45C314D2C702F4CD1
:102550002478304D2C702D4C24782D4D2D782C4422
:102560002D4D2C7023E0294C24782B4D2D78AC4236
:102570001DD10024244D2C70264C237800210022EC
:1025800007E0184CE45C0C44E1B25C1CE3B2541C60
:10259000E2B21F4C2478A242F3DBCC43E1B2114CEF
:1025A000E45C8C4203D10F4C1A4D2D78605D174CC2
:1025B0002478641C154D2C70144C2478174D2D78FC
:1025C000AC4294D130BD10B5104800781349097859
:1025D000884205D0FFF787FF401C01D0FFF767FE58
:1025E00010BD0000AC160020C41B0020B81B00204A
:1025F0004AD8124DFB21094000806640AC1B0020E8
:1026000024010020D01B00201C0100201901002003
:102610001D0100201A0100201B01002018010020CC
:1026200008B526208DF8000000208DF80100062056
:102630008DF8020001208DF80300684604F07BFD50
:1026400008BD10B586B004460121042006F0EEF95D
:102650000121480406F0F7F94FF4E06004F066FD4C
:1026600026208DF8000000208DF8010006208DF84E
:10267000020001208DF80300684604F05CFD042090
:10268000ADF8140018208DF8170003208DF81600FF
:1026900005A9294805F014FF0820ADF8140004200E
:1026A0008DF8170005A9244805F00AFF01940020C1
:1026B000ADF80800ADF80A00ADF80C00ADF8100058
:1026C0000C20ADF80E0001A91C4807F068F90122A2
:1026D00040F22551194807F0FAF9012240F226612B
:1026E000164807F0F4F90121144807F0E4F906B0A0
:1026F00010BD10B52021114807F0B8FA012808D103
:1027000020210E4807F0BFFA0D48007808B1FFF706
:1027100006FD4021094807F0A9FA012808D1402107
:10272000064807F0B0FA0648007808B1FFF75EFCEB
:1027300001200349087010BD00080140004400401A
:102740002501002008B501217D2006F06FF9F02059
:10275000ADF8000048208DF8030003208DF802003A
:102760006946FA4805F0ACFE4FF20300ADF80000F0
:1027700048208DF8030003208DF802006946F448D4
:1027800005F09EFE4FF47C70ADF8000048208DF8F7
:10279000030003208DF802006946EE4805F090FE24
:1027A0004FF47F40ADF8000048208DF8030003206F
:1027B0008DF802006946E84805F082FE4FF4FF40BC
:1027C000ADF8000048208DF8030003208DF80200CA
:1027D0006946E24805F074FE0020E1490870E148CE
:1027E000E1490860E1484860DE488860DF49DE482A
:1027F000C160DF48DC490861DE49DB484161D948F6
:10280000D9498861D949D848C16108BD2DE9F0414D
:1028100006460C460027012E06D0022E5ED0032E5F
:102820002BD0042E7ED18BE01021C84805F0D9FEB4
:1028300020702021C54805F0D4FE60704021C348B7
:1028400005F0CFFEA0708021C04805F0CAFEE07000
:102850001021C04805F0C5FE20712021BD4805F0BB
:10286000C0FE60710121BA4805F0BBFEA0710221D3
:10287000B74805F0B6FEE07192E04FF48051B448DD
:1028800005F0AFFEE0714FF40051B14805F0A9FE2C
:10289000A0714FF48041AE4805F0A3FE60714FF483
:1028A0000041AB4805F09DFE20714FF48071AA48AD
:1028B00005F097FEE0704FF40071A74805F091FE17
:1028C000A0704FF48061A44805F08BFE60704FF457
:1028D0000061A14805F085FE207061E080219F48DD
:1028E00005F07FFE20704FF480719C4805F079FE62
:1028F00060704FF40071994805F073FEA0704FF4BA
:102900008061964805F06DFEE0704FF400619348D9
:1029100005F067FE20714FF48051904805F061FE8C
:10292000607100E03BE04FF400518C4805F059FE27
:10293000A0714FF48041894805F053FEE0712FE00B
:102940004FF48051844805F04CFE20704FF4005144
:10295000814805F046FE60704FF480417E4805F0E6
:1029600040FEA0704FF400417B4805F03AFEE07055
:102970004021784805F035FE20718021754805F02A
:1029800030FE60714FF48071724805F02AFEA0712C
:102990004FF400716F4805F024FEE07100E000BFC5
:1029A00000BF00250BE00FB9605D08B1012000E019
:1029B00000200746605D70494855681CC5B2082D67
:1029C000F1DB3846BDE8F0812DE9F04F93B00546C4
:1029D0000E46202269490BA807F090FA2022674989
:1029E000203103A807F08AFA4FF00009CA460024F4
:1029F00029E003A951F8240007F007FD0290285DA3
:102A000007F00CFD83460BA850F82410584607F039
:102A1000FEFA8046029907F0FAFA0746514607F097
:102A20009EFA8246285D07F0F9FC80460BA850F814
:102A30002410404607F0EBFA0746494607F08FFAA4
:102A40008146601CC4B2B442D3DB484607F041FD66
:102A500007460022134607F04FFD04D1484800689E
:102A60004849086005E04946504607F006FB4549DD
:102A70000860132407E0601E414951F8200041F826
:102A80002400601EC4B2012CF5DA3E4800683C49BF
:102A900008600A465168106807F061FA01903848EA
:102AA0008168019807F05BFA02903548C168029886
:102AB00007F0A7FA834632480169584607F0A1FAA1
:102AC00080462F484169404607F09BFA07462E4949
:102AD00007F0D3FA2D4908602B492C48006807F00D
:102AE00059FD03D828482949086008E028492748A3
:102AF000006807F045FD02D825482449086013B056
:102B0000BDE8F08F2DE9FF4782B014461E46DDF880
:102B100038A000200090019069463046FFF776FE0D
:102B20008146B9F1000F06D1002020606060A060EE
:102B300006B0BDE8F08708216846FFF745FF154855
:102B40000078B04238D013252DE000000008014085
:102B5000000C014000100140001401400018014029
:102B6000310100208FC2753D4C1C00208FC2F53C06
:102B70008FC275BD8FC2F5BC70010020CCB60008B5
:102B8000DC1B002028010020000040402C01002018
:102B9000000040C0300100206E4800686E4941F8D6
:102BA0002500681EC5B2012DF6DA6A4800686A4938
:102BB000086000206949086068490398096807F0BF
:102BC00026FA074663490298096807F020FA80460A
:102BD000394607F0C4F9A060A06807F07AFC074600
:102BE0004FF033325E4B07F09BFC02D85D48A0608B
:102BF0000BE0A06807F06DFC07464FF033325A4BEC
:102C000007F07AFC01D85948A06000BF90E72DE991
:102C1000F04186B007460E46144600255448007819
:102C200080B100BF09E0534800EBC500524901EBF9
:102C3000C50206CA06C0681CC5B2042DF3DB00201D
:102C40004B490870012E06D0022E0CD0032E15D051
:102C5000042E27D11BE0474903C9CDE904010194A3
:102C6000002002901FE04349D1E90201CDE90401AF
:102C700084F0004001900020029014E03D49D1E929
:102C80000401CDE904010020019002940BE03949D0
:102C9000D1E90601CDE904010020019084F0004053
:102CA000029000E000BF00BF204607F0DAFBB0F161
:102CB000000801DB404601E0C8F1000038B13346AE
:102CC00001AA0094DDE90401FFF71CFF01E00020E8
:102CD000039001A807C887E8070006B0BDE8F081A7
:102CE00010B526490120FFF791FD254908700821FC
:102CF0002248FFF769FE1748006822490860224908
:102D00000220FFF783FD2149087008211E48FFF7C4
:102D10005BFE104800681E4908601E490320FFF74B
:102D200075FD1D49087008211A48FFF74DFE094836
:102D300000681A4908601A490420FFF767FD19491D
:102D4000087008211648FFF73FFE02480068164940
:102D5000086010BD28010020DC1B00202C01002091
:102D60003333E33F9A99193F3333E3BF9A9919BF3D
:102D7000310100204C1C00202C1C002032010020BE
:102D800052010020580100203A0100205301002088
:102D90005C0100204201002054010020600100205D
:102DA0004A0100205501002064010020014601EB8A
:102DB00041005E4A52F8200008B908207047002000
:102DC00001EB4102594B43F8220001EB410203EBB6
:102DD0008202908001EB410203EB8202D08001EB82
:102DE000410203EB8202107200BFE7E710B5FDF766
:102DF00003FE002404E02046FFF7D8FF601CC4B2A5
:102E0000102CF8DB10BD10B5FDF72CFE10BD70B511
:102E100003460C46002101E0481CC1B201EB410011
:102E2000424D55F8200008B11029F5DB102901D1D9
:102E3000082070BD01EB41003C4D45F8203001EB0E
:102E4000410005EB8000848001EB410005EB800030
:102E5000C280002001EB4105344E06EB8505287247
:102E60000846E6E7704710B5002420E004EB440074
:102E70002E4901EB8000007A002816DD04EB4401A6
:102E80002A4A52F821008047002004EB4401274AD7
:102E900002EB8101087204EB4400114601EB800053
:102EA000C08810B92046FFF781FF601CC4B2102C07
:102EB000DCDBFFF7D7FF10BD002033E000EB400163
:102EC0001A4A52F8211059B300EB400102EB81017C
:102ED0008988C1B9012100EB4002144B03EB820247
:102EE000117200EB40011A4602EB8101C988B9B1A9
:102EF00000EB400102EB8101C98800EB400203EBCB
:102F0000820291800CE000EB4001084A02EB810153
:102F10008988491E00EB4002044B03EB820291803A
:102F2000411CC8B21028C9DB704700006C1C00208F
:102F30000120FE490870FE48FE4908600420FE4951
:102F400008600020FD4948600021FC488160C160A4
:102F50000120FA4908740020704710B58CB004466F
:102F6000201D07C809AB07C301A809A90EC9FEF7B0
:102F7000F6FD02A80DC80199CDE90723CDE905109A
:102F800005A80FC8FEF7A0FF0CB010BD10B50024B7
:102F9000E6480078C0B100BF08E0E648006850F895
:102FA0002400007C00B105E0601CC4B2E248006867
:102FB0008442F2DB00BFDE4850F82400E04908609C
:102FC00008460068FFF7C9FF10BDDE48007858B119
:102FD0000520DD4908700846DC4B0ECB001D0EC0F5
:102FE0000120D949087402E00020D74908747047CD
:102FF000D748007870B1D748007858B10520D64935
:1030000008700846D54B0ECB001D0EC00120D249DA
:10301000087402E00020D0490874704730B50246B9
:103020000B460024002104E0555C2544ECB24D1C05
:10303000E9B20829F8DB9C4201DB012000E0002016
:1030400030BD30B503460C460020214605E05D5CEE
:10305000012D00D101204D1CE9B29142F7DD30BDB8
:103060002DE9F04F87B0BE48007800287AD00520BF
:10307000BC490870BC480078012806D0022872D0EC
:10308000032871D0042870D1F7E3B8480078B84914
:103090000978884243D10120B6490870B3480078C6
:1030A0008870B3480078C87005A90320FFF7AEFB0D
:1030B0008246BAF1000F23D00722052105A8FFF7A9
:1030C000C0FF70B10220AB490870A648AA4B0ECBD6
:1030D000001D0EC00120A34908740020A0490870FB
:1030E00072E0A64AA048017802A8FFF790FD9D482B
:1030F00002A90EC9001D0EC001209A49087463E0A0
:103100009F4A9948017802A8FFF781FD954802A9D6
:103110000EC9001D0EC001209249087454E0994860
:1031200000689949096888423FD305A90320FFF741
:103130006DFB8246BAF1000F27D00722042105A8B3
:10314000FFF77FFF90B103208A49087085488A4BBA
:103150000ECB001D0EC0012082490874002080495A
:10316000087031E0EFE330E02BE2EDE3874A7E4880
:10317000017802A8FFF74BFD7A4802A90EC9001D8D
:103180000EC00120774908741EE081480268764825
:10319000017802A8FFF73BFD724802A90EC9001D85
:1031A0000EC001206F4908740EE0794802686E482D
:1031B000017802A8FFF72BFD6A4802A90EC9001D7D
:1031C0000EC0012067490874EDE3724800780128B9
:1031D0007CD16C4800686C490968884215D3614904
:1031E000654BD3E900209B68C1E902034A600120D6
:1031F000087400205A490870664908705C480078D5
:103200005A490870FEF7F3FBDAE15F480068A0F561
:1032100096705C490968884259D805A90220FFF7D1
:10322000F5FA8246BAF1000F2AD0082105A8FFF767
:10323000F5FEB0B14B48504BD3E900219B68C0E983
:103240000213426001204749087400204449087075
:10325000504908704648007844490870FEF7C7FB9B
:10326000AEE14A4A4048017802A8FFF7D0FC3D4849
:1032700002A90EC9001D0EC001203A4908749FE141
:103280004148006878383F49096888420ED83C4A6E
:103290003548017802A8FFF7BAFC324802A90EC9E6
:1032A000001D0EC001202F49087489E138480268CA
:1032B0002D48017802A8FFF7AAFC2A4802A90EC9E6
:1032C000001D0EC001202749087479E10FE0304845
:1032D00002682548017802A8FFF799FC214802A955
:1032E0000EC9001D0EC001201E49087468E129485E
:1032F000007802287ED1234800682749096888425F
:103300004FD3184A1C4BD3E900109B68C2E9020353
:1033100051600120114608740020114908701D49B0
:103320000870134800781149087037E0B001002098
:103330008C010020A8010020AC010020741D002099
:103340009C01002024010020381D0020D01B0020FB
:10335000B9010020BB0100204C1D0020881D002069
:10336000BC010020601D0020E0010020660000205C
:10337000E2010020A30100202C1D00200000A0423B
:103380000000C84234030020800100200000704289
:10339000C0010020C901002088010020FEF727FBA2
:1033A0000EE1FE480068A0F59670FD490968884264
:1033B0005AD805A90220FFF729FA8246BAF1000F70
:1033C0002CD0082105A8FFF729FEC0B1F548F64B1F
:1033D000D3E900219B68C0E9021342600120F14952
:1033E00008740020F1490870F1490870F14800782C
:1033F000F14900E048E00870FEF7F9FAE0E0EF4A32
:10340000EF48017802A8FFF702FCE64802A90EC9BE
:10341000001D0EC00120E3490874D1E0DF480068B8
:103420007838DF49096888420ED8E64AE4480178CE
:1034300002A8FFF7ECFBDB4802A90EC9001D0EC075
:103440000120D8490874BBE0DF480268DC480178F5
:1034500002A8FFF7DCFBD34802A90EC9001D0EC06D
:103460000120D0490874ABE0D7480268D4480178FD
:1034700002A8FFF7CCFBCB4802A90EC9001D0EC065
:103480000120C84908749BE0CB480078C9490978F5
:10349000884240D1C8480078CC498870C548007837
:1034A000C87005A90420FFF7B1F98246BAF1000FF0
:1034B00022D00222002105A8FFF7C3FD68B1B94957
:1034C000B94BD3E900209B68C1E902034A6001209F
:1034D00008740020B549087072E0BD4AB848017808
:1034E00002A8FFF794FBAF4802A90EC9001D0EC049
:1034F0000120AC49087463E0B24AB148017802A8DF
:10350000FFF785FBA74802A90EC9001D0EC00120C8
:10351000A449087454E0A2480068AE49096888428A
:103520003FD305A90420FFF771F98246BAF1000FD5
:1035300027D00222002105A8FFF783FD90B1994A08
:10354000994BD3E900109B68C2E902035160012046
:1035500011460874002095490870964800789649ED
:1035600008702DE0954A9648017802A8FFF74FFBB6
:103570008C4802A90EC9001D0EC00120894908749B
:103580001EE0914802688E48017802A8FFF73FFBD1
:10359000844802A90EC9001D0EC00120814908748B
:1035A0000EE0894802688648017802A8FFF72FFBE1
:1035B0007C4802A90EC9001D0EC00120794908747B
:1035C000EDE37C48007801287BDB7A480078082806
:1035D00077DC734800688049096888420ED97148D1
:1035E000714BD3E900219B68C0E9021342600120BE
:1035F0006C49087400206D490870D4E16E48007869
:103600006C490978884237D105A90120FFF7FEF8F7
:103610008246BAF1000F20D00722052105A8FFF746
:1036200010FD58B15F48604B0ECB001D0EC001204D
:103630005C49087400205D490870B4E1644A604840
:10364000017802A8FFF7E3FA564802A90EC9001D47
:103650000EC0012053490874A5E15D4A584801781D
:1036600002A8FFF7D4FA4F4802A90EC9001D0EC0E8
:1036700001204C49087496E1494800685649096898
:1036800088423ED846480068B0F5FA7F39D305A98C
:103690000120FFF7BBF88246BAF1000F21D00722C4
:1036A000052105A8FFF7CDFC60B13E483E4B0ECB8F
:1036B000001D0EC001203B49087400203B490870E2
:1036C00071E12EE0424A3E48017802A8FFF79FFAD6
:1036D000344802A90EC9001D0EC0012031490874EA
:1036E00061E1394802683648017802A8FFF78FFA8D
:1036F0002C4802A90EC9001D0EC0012029490874DA
:1037000051E1314802682E48017802A8FFF77FFA9C
:10371000244802A90EC9001D0EC0012021490874C9
:1037200041E124480078092887DB224800781028E6
:1037300092DC2A4800781F490978B0EB010B01D4CC
:10374000594601E0CBF10001084606F06CFE8046C8
:103750000022234B06F0D1FCCDE90001214800688E
:1037600006F061FE0646DDE9002306F06DFDCDE9B9
:1037700002010B48006806F067FE0446DDE90223FB
:1037800006F0CEFE32D80748074B0ECB001D0EC008
:103790000120044908740020044925E08801002024
:1037A00034030020601D00202C1D0020BC010020DF
:1037B000C9010020E20100206600002000007042E4
:1037C000E00100200000C842C0010020A301002049
:1037D0000000A0428001002084010020E1010020BF
:1037E0000000E03F7C0100200870DCE0FC4800782D
:1037F000FC490978884237D105A90220FFF706F86D
:103800008246BAF1000F20D00222002105A8FFF75E
:1038100018FC58B1F449F54B0DCB091D0DC1012021
:10382000103908740020F2490870BCE0F14AF248EF
:10383000017802A8FFF7EBF9EB4802A90EC9001DB9
:103840000EC00120E8490874ADE0EC4AEA4801786E
:1038500002A8FFF7DCF9E44802A90EC9001D0EC05A
:103860000120E14908749EE0E5480078DD490978C7
:10387000401A049002D4049902E095E00499494268
:10388000084606F0D0FD80460022DE4B06F0D6FC4E
:10389000CDE90001DC48006806F0C5FD0646DDE91B
:1038A000002306F0D1FCCDE90201D848006806F0FB
:1038B000CBFD0446DDE9022306F032FE64D8D04891
:1038C0000078C8490978B0EB010B01D4594601E0F2
:1038D000CBF10001084606F0A6FD80460022C94B48
:1038E00006F00BFCCDE90001C748006806F09BFD1F
:1038F0000646DDE9002306F0A7FCCDE90201C34836
:10390000006806F0A1FD0446DDE9022306F0F4FD9F
:103910003AD205A90220FEF779FF8246BAF1000FDC
:1039200022D00322002105A8FFF78BFB68B1AE4926
:10393000AE4B0DCB091D0DC10120103908740020BC
:10394000AB4908702FE02BE228E2AA4AAA48017886
:1039500002A8FFF75CF9A44802A90EC9001D0EC019
:103960000120A14908741EE0A9480268A248017814
:1039700002A8FFF74CF99C4802A90EC9001D0EC011
:103980000120994908740EE0A14802689A4801781C
:1039900002A8FFF73CF9944802A90EC9001D0EC009
:1039A000012091490874FAE18E48007801287DDBF6
:1039B0008C480078082879DC9448006895490968A3
:1039C000884212D98848894BD3E900219B68C0E915
:1039D0000213426001208449087400208449087061
:1039E000804800787E490870D7E17D4800787D499D
:1039F0000978884237D105A90120FEF707FF8246E2
:103A0000BAF1000F20D00222002105A8FFF719FB10
:103A100058B17548754B0ECB001D0EC00120724980
:103A20000874002072490870B7E1724A7248017840
:103A300002A8FFF7ECF86C4802A90EC9001D0EC0E1
:103A4000012069490874A8E16A4A6B48017802A814
:103A5000FFF7DDF8644802A90EC9001D0EC0012061
:103A60006149087499E1694800686A4909688842AF
:103A700043D866480068B0F5FA7F3ED305A9012017
:103A8000FEF7C4FE8246BAF1000F26D002220021C2
:103A900005A8FFF7D6FA88B15348544B0ECB001D4A
:103AA0000EC0012050490874002000E035E0504964
:103AB00008704C4800784A4908706EE14D4A4E48FB
:103AC000017802A8FFF7A3F8474802A90EC9001D14
:103AD0000EC00120444908745FE14D480268464821
:103AE000017802A8FFF793F83F4802A90EC9001D0C
:103AF0000EC001203C4908744FE1454802683E4829
:103B0000017802A8FFF783F8374802A90EC9001D03
:103B10000EC00120344908743FE13248007809287A
:103B200091DB3048007810288DDC354800782D492D
:103B30000978B0EB010B01D4594601E0CBF100014B
:103B4000084606F070FC064600222E4B06F0D5FA19
:103B5000CDE900012C48006806F065FC0446DDE96B
:103B6000002306F071FBCDE902012848006806F049
:103B70006BFC8046DDE9022306F0D2FC0FD81A491F
:103B80001A4B0DCB091D0DC10120103908740020FE
:103B9000174908701348007811490870FDE0104873
:103BA000007810490978884254D105A90220FEF70F
:103BB0002DFE8246BAF1000F3DD00722052105A84F
:103BC000FFF73FFA58B1084A084B0BCB121D0BC246
:103BD000012005490874002005490870DDE01BE05C
:103BE00066000020E2010020601D00202C1D002046
:103BF000BC0100200000A042E00100200000C842FB
:103C0000E10100200000E03F7C010020340300209F
:103C1000C001002084010020674A6848017802A89A
:103C2000FEF7F5FF664802A90EC9001D0EC001206F
:103C300063490874B1E0634A6048017802A8FEF75E
:103C4000E6FF5F4802A90EC9001D0EC001205C49B5
:103C50000874A2E05C4800785C490978401A049036
:103C600001D4049901E004994942084606F0DBFBBF
:103C700080460022564B06F0E1FACDE90001554896
:103C8000006806F0D0FB0646DDE9002306F0DCFA0A
:103C9000CDE902015048006806F0D6FB0446DDE994
:103CA000022306F03DFC69D8474800784749097867
:103CB000B0EB010B01D4594601E0CBF100010846FD
:103CC00006F0B1FB80460022414B06F016FACDE922
:103CD00000014048006806F0A6FB0646DDE9002327
:103CE00006F0B2FACDE902013B48006806F0ACFBF1
:103CF0000446DDE9022306F0FFFB3FD205A90220BE
:103D0000FEF784FD8246BAF1000F27D00722042176
:103D100005A8FFF796F990B12948304BD3E9002167
:103D20009B68C0E902134260012025490874002005
:103D30002B490870254800782A4908702DE01E4A52
:103D40001E48017802A8FEF762FF1D4802A90EC9AD
:103D5000001D0EC001201A4908741EE022480268A6
:103D60001648017802A8FEF752FF154802A90EC9AD
:103D7000001D0EC00120124908740EE01A480268A6
:103D80000E48017802A8FEF742FF0D4802A90EC9AD
:103D9000001D0EC001200A49087400E000BF02E0C7
:103DA00000200749087407B0BDE8F08F10B5FFF791
:103DB00057F9FFF7EBF810BD0000A042E00100202A
:103DC000601D00200000C842E1010020E201002047
:103DD0000000E03F7C010020340300202C1D002067
:103DE000BC01002066000020C001002038B5044658
:103DF0000020FE490870FE490870FE490870FE491F
:103E000008701420FD490860204600F0A2FE6B46B1
:103E100020221146FA48FCF755FAFA49086038BDE5
:103E200010B5F6480068142800D110BD002240F2F9
:103E30002661F54805F04BFEF448EF49097810F883
:103E4000310010B3EC480078EA49097888421CD068
:103E5000EE48E949097810F83100401EEB49E64A7E
:103E6000127801F832000846E34A127800EBC200EB
:103E70004068E74A1278815CE34805F089FEE4482F
:103E80000078401CE24908705BE0DB480078D949C3
:103E9000097888424CD0DD48D74A127800EBC2003E
:103EA0004168D8480068FCF762FAD3480078401CA3
:103EB000C0B2D1490870142801DB00200870CF4837
:103EC0000068401CCD490860142801D31420086004
:103ED0000020CF490870C8480078C6490978884250
:103EE0001CD0CA48C449097810F83100401EC1B23C
:103EF000C648C14A127800F83210BF4A127800EB67
:103F0000C2004068C24A1278815CBF4805F040FE9A
:103F1000BF480078401CBE49087012E00020BD492F
:103F200008701420B54908600020B949087008E0FD
:103F30000020B84908701420B04908600020B44936
:103F40000870012240F22661AF4805F0C0FD00BFB5
:103F50006BE710B5AC4805F01FFEC1B2A34802786C
:103F60000078401CA14B1870AB488154184600786B
:103F70009F490978884204D19D480078401C9C499B
:103F8000087010BDF8B505460C4626460CB9012050
:103F9000F8BD002240F226619B4805F098FD1C20E8
:103FA00094FBF0F100FB114028B11C2094FBF0F0D1
:103FB000401CC4B203E01C2094FBF0F0C4B28F4854
:103FC0000068A04207D2012240F226618E4805F027
:103FD0007EFDFF20DCE769468A480068FCF7B1F9FE
:103FE0008A49844A127801EBC2014860814800780E
:103FF000142802DB00207F49087000242FE0287875
:1040000082497C4A127801EBC20149680855601C5C
:10401000C4B21C2C20DB1C217C48764A127800F8A4
:10402000321074480078401CC0B2724908701428DD
:1040300001DB00200870694672480068FCF781F9CE
:1040400072496C4A127801EBC20148606B48006803
:10405000401E6A49086000246D1C701EC6B2002E06
:10406000CDD19CB169486349097800F83140634873
:104070000068401E614908605E480078401CC0B27C
:104080005C490870142801DB002008706148007842
:1040900020B9FFF7C5FE01205E490870012240F2F9
:1040A0002661594805F013FD002071E770B50546FB
:1040B000002400E0641C285D0028FBD1E1B2284602
:1040C000FFF760FF70BD30B54FF0FF3062E0534C3A
:1040D0002478002C37D10022454C2478241FE1B2EB
:1040E0004D4C645C552C01D1541CE2B2404C2478F8
:1040F000E41EE1B2484C645CAA2C01D1541CE2B22B
:104100003B4C2478A41EE1B2434C645C152C01D1D5
:10411000541CE2B2032A38D10124404D2C70344C97
:104120002478641EE1B23C4C645C3D4D2C70304CF4
:1041300024783C4D2C702E4C2478394D2D782C440D
:10414000394D2C7021E02A4C2478374D2D78AC4223
:104150001BD10024314D2C70324C237800220021D9
:1041600007E02D4CE45C1444E2B25C1CE3B24C1C4E
:10417000E1B22B4C2478A142F3DB274CE45C94425F
:1041800003D1254C274D2D78605D194C2478641C93
:10419000174D2C70164C2478144D2D78AC4296D1C6
:1041A00030BD2DE9F04305460E46079C0027002050
:1041B0004FF055098046401C04F808904FF0AA09BA
:1041C0008046401C04F808904FF015098046401CBA
:1041D00004F8089003F1020C8046401C04F808C063
:1041E0008046401C04F8085080461FE0D40100209F
:1041F000D5010020CB010020CC010020D0010020FF
:10420000341F0020DC01002000480040941D0020E5
:10421000CA010020B4010020341E0020D801002073
:10422000D9010020D6010020D7010020401C04F84D
:1042300008605BB905EB060C0CF0FF07844600F143
:10424000010808F0FF0004F80C7020E005EB060CF4
:104250000CF0FF07002111E012F80190844600F1F4
:10426000010808F0FF0004F80C9012F801C0BC44EB
:104270000CF0FF0701F1010C0CF0FF019942EBDBA0
:10428000844600F1010808F0FF0004F80C70BDE856
:10429000F0832DE9F84F8246504606F0BFF80090B3
:1042A00006F017F980460022F94B06F03FF8064663
:1042B0000022F84B05F0C8FF044606F045F9834696
:1042C0005846BDE8F88F10B502460B460020002185
:1042D00005E0545C8C400443E0B24C1CE1B29942CE
:1042E000F7DB10BD10B5014600200A46EA4CA35C7E
:1042F000541CE2B2E84CA45C43EA042010BD2DE952
:10430000F04FC9B04FF4807109A805F010FE0020ED
:104310000890059006900790E0490870DE48E04953
:10432000097810F80190B9F1040F7CD009DCB9F1DB
:10433000010F0DD0B9F1020F76D0B9F1030F74D18E
:1043400080E3B9F1050F71D0B9F1FF0FF7D196E312
:10435000D149D3480078401C0D5C132D02D0142D98
:1043600065D1BFE0CC49CE480078801C0E5C304659
:1043700006F06AF882460022CA4B05F0D7FF0746CE
:1043800006F0E2F8C8490860C349C5480078C01C77
:104390000E5C304606F058F807460022C14B05F087
:1043A000C5FF824606F0D0F8BF494860BA49BC480C
:1043B0000078001D0E5C304606F046F8824600226A
:1043C000B84B05F0B3FF074606F0BEF8B649886063
:1043D000B149B3480078401D0E5C304606F034F811
:1043E00007460022AF4B05F0A1FF824606F0ACF86D
:1043F000AD49C860A849AA480078801D0E5C70428B
:1044000006F011F807460022A64B05F08FFF824602
:1044100006F09AF8A44908619F49A1480078C01D98
:104420000E5C704204E029E3A6E03BE327E1A0E054
:1044300005F0F9FF074600229A4B05F077FF824608
:1044400006F082F898494861934995480078083009
:104450000E5C304605F0F8FF82460022914B05F0D5
:1044600065FF074606F070F88F4988618A498C48D5
:10447000007809300E5C304605F0E6FF0746002262
:10448000884B05F053FF824606F05EF88649C86106
:1044900000240BE082480078801C20447E49095C9F
:1044A00004F10800814A1154601CC4B2082CF1DBED
:1044B0007E4A10217E4800F0ECFB09A80090764867
:1044C000774909780844821C082329464846FFF7A3
:1044D00068FE089009A80899FFF754FD0120754966
:1044E000087047E06E490978891CC8B2FFF7FAFEE8
:1044F000714908606A490978091DC8B2FFF7F2FEE0
:104500006E49086066490978891DC8B2FFF7EAFE5E
:104510006B490860624909780831C8B2FFF7E2FECA
:1045200068490860002409E05D480078801C204448
:104530005949085C5D490855601CC4B2082CF3DB7E
:104540005A4A10215A4800F0A4FB5F48057009A898
:1045500000905148524909780844821C0823294692
:104560004846FFF71EFE089009A80899FFF70AFDC4
:1045700000E000BF00BF96E2474949480078401C70
:104580000D5C082D78D2DFE805F0770405060708F2
:10459000526072E071E070E06FE003A90120FEF765
:1045A00035F9082103A8FFF78EFE8DF8080003A94E
:1045B0000220FEF72BF9082103A8FFF784FE8DF8EF
:1045C000090003A90320FEF721F9082103A8FFF73A
:1045D0007AFE8DF80A0003A90420FEF717F90821D6
:1045E00003A8FFF770FE8DF80B0000240FE002A86F
:1045F000005D18B9A82002A9085506E002A8005DD0
:10460000FF2802D1542002A90855601CC4B2042C12
:10461000EDDB09A8042302AA294600904846FFF7CB
:10462000C0FD089009A80899FFF7ACFC25E009A88F
:1046300000231A46294600904846FFF7B2FD08902D
:1046400009A80899FFF79EFC17E02048006814218C
:10465000B0FBF1F0C0B28DF8040009A8012301AA53
:10466000294600904846FFF79CFD089009A8089944
:10467000FFF788FC01E0FFE700BF00BF13E2064937
:1046800007480078401C0D5C062D7DD220E000001C
:1046900000E06F4000008940341E0020BB01002074
:1046A000D601002000408F402C1C00203423002025
:1046B00010F00108310100207C0100208001002061
:1046C0008401002088010020E30100203403002041
:1046D000DFE805F05A035FDEFDFCFC49FC4800788A
:1046E000801C0E5C0120FB490870F849F8480078EE
:1046F000C01C0E5C3046FFF7CCFDF7490860F3495B
:10470000F3480078001D0E5CF4480670F04800780D
:10471000401D0E5CF2480670F249EF48006805F053
:1047200039FF00D88CE1ED480078012803DBEB4825
:104730000078102800DD83E1E9480078012803DBD8
:10474000E7480078102800DD7AE1E5480178E34881
:104750000078083081421BD1E348007810B900206E
:10476000E24908600120E049087009A80090D74894
:10477000D74909780844821C042329464846FFF794
:1047800010FD089009A800E059E10899FFF7FAFB2D
:1047900056E1CE49CE480078801C0E5CCD480670AC
:1047A000CB480078C01C0E5C3046FFF772FDCA494A
:1047B0000860C649C6480078001D0E5CC7480670F0
:1047C000C3480078401D0E5CC5480670C549C24804
:1047D000006805F0DFFE00D832E1C048007801280B
:1047E00003DBBE480078102800DD29E1BC480078D2
:1047F000012803DBBA480078102800DD20E1B54825
:10480000007803281DD1B5480078B5490978884259
:1048100017DD0120B44908700020B449086009A8D8
:104820000090AA48AA4909780844821C0423294612
:104830004846FFF7B6FC089009A80899FFF7A2FBC5
:1048400025E0A448007804281DD1A4480078A44994
:104850000978884217DA0120A34908700020A3498B
:10486000086009A800909948994909780844821C71
:10487000042329464846FFF794FC089009A80899A4
:10488000FFF780FB03E005219948FFF77BFBD7E0AA
:104890008E498F480078801C0E5C02208D4908707C
:1048A0008A498B480078C01C0E5C3046FFF7F1FC4B
:1048B00089490860854986480078001D0E5C874854
:1048C000067083480078401D0E5C01E040E09FE0E8
:1048D0008348067083498048006805F05BFE00D875
:1048E000AEE07E480078012803DB7C480078102881
:1048F00000DDA5E07A480078012803DB78480078DD
:10490000102800DD9CE07548007808387449097863
:1049100088421CD17448007810B90020734908609F
:1049200001207149087000207249087009A80090A0
:104930006648674909780844821C0423294648468A
:10494000FFF72FFC089009A80899FFF71BFB77E0F9
:104950005E495F480078801C0E5C02205D4908704B
:104960005A495B480078C01C0E5C3046FFF791FC4A
:1049700059490860554956480078001D0E5C574853
:10498000067053480078401D0E5C5548067050482C
:104990000078801D0E5C5748067052494E480068EA
:1049A00005F0F8FD00D84BE04C480078012803DB07
:1049B0004A480078102800DD42E049480078012884
:1049C00003DB47480078102800DD39E043480078D1
:1049D000083843490978884219D14348007810B90A
:1049E00000204249086001203F49087009A8009052
:1049F0003648374909780844821C0423294648462A
:104A0000FFF7CFFB089009A80899FFF7BBFA17E05A
:104A1000FDF748FA002034490870344908602E49EF
:104A2000086009A800231A46294600904846FFF767
:104A3000B8FB089009A80899FFF7A4FA00E000BFA6
:104A400000BF30E0214922480078401C0D5C012D58
:104A500002D0022D0FD107E027480078062802DC9B
:104A600001202649087007E00020244908700590BD
:104A70000690079000E000BF00BF14E013E0012D96
:104A800002D0022D0BD103E001201C49087007E081
:104A900000201A49087005900690079000E000BFBA
:104AA00000BF00E000BF00BF49B0BDE8F08F10B507
:104AB0001348007813490978884205D0FFF703FBB3
:104AC000401C01D0FFF71BFC10BD0000341E00206D
:104AD000D6010020E0010020C0010020E1010020FB
:104AE000E20100200000C843BC0100203403002084
:104AF000C4010020C9010020E3010020BB01002007
:104B0000D5010020D40100200146012903DB6429DE
:104B100001DA054806E0642903DBFF2901DC0348CC
:104B200000E00020704700009CC4A03E9CC4A0BED2
:104B300008B527208DF8000000208DF80100062020
:104B40008DF8020001208DF80300684602F0F3FAA8
:104B500008BD10B586B004460121082003F066FFA9
:104B60000121880403F06FFF4FF4E06002F0DEFAE9
:104B700027208DF8000000208DF8010006208DF818
:104B8000020001208DF80300684602F0D4FA4FF4C9
:104B90008060ADF8140018208DF8170003208DF800
:104BA000160005A92B4803F08BFC4FF40060ADF80C
:104BB000140004208DF8170005A9264803F080FC96
:104BC00001940020ADF80800ADF80A00ADF80C0023
:104BD000ADF810000C20ADF80E0001A91E4804F03D
:104BE000DEFE012240F225511B4804F070FF012235
:104BF00040F22661184804F06AFF0121164804F0CB
:104C00005AFF06B010BD10B52021134805F02EF84C
:104C1000012805D12021104805F035F8FFF799F952
:104C200040210D4805F022F8012805D140210A480D
:104C300005F029F8FFF7F4F80821074805F016F801
:104C4000012806D10821044805F01DF8024804F0A7
:104C5000A3FF10BD000C01400048004070B50446A1
:104C60000D462668701C08D103F00BF92946204632
:104C700003F01CFA03F011F90AE003F002F92046F0
:104C800003F044F92946204603F010FA03F005F931
:104C900070BD2DE9F04105460E461746002429E077
:104CA00055F80480385D9C49087038194078487080
:104CB00018F101000AD103F0E4F8974A128891B282
:104CC000281903F026FA03F0E8F80CE003F0D9F80D
:104CD000281903F01BF9904A128891B2281903F0A1
:104CE00018FA03F0DAF8012E00D105E0A01C84B216
:104CF000B01E86B2002ED3D100BFBDE8F08130B522
:104D00000346002013E01C5A834D2C60012903D177
:104D10002C46247814540CE07F4C247814547E4C98
:104D2000647815186C70841CA0B28C1EA1B2002986
:104D3000E9D100BF30BD2DE9F74183B00D461646DD
:104D40000027002400200190A8460420029003F0D0
:104D500098F806F2FF30800A0190352003F02CFB12
:104D600000BF08E04FF48062039902FB071003F0D4
:104D7000CDF802907F1C0198874203D29DF808006D
:104D80000428EFD0039C05E002CD204603F08EF905
:104D90000290241D03983044A04203D99DF80800D6
:104DA0000428F1D0039C09E058F8041B20688142D4
:104DB00003D0002006B0BDE8F081241D03983044E4
:104DC000A042F1D803F069F80120F3E737B50446B3
:104DD00015462A462046019905F090F801203EBD6F
:104DE0002DE9F0414D4A10214D48FFF788FF4B480F
:104DF00000784A49497840EA01204A490860474812
:104E000080784649C97840EA01204749086043480C
:104E100000794249497940EA0120444908603F4805
:104E200080793E49C97940EA0120414908603B49FF
:104E3000087A05F009FB064600223E4B05F076FA9B
:104E4000044605F081FB3C4908603449487A05F086
:104E5000FBFA06460022374B05F068FA044605F0D7
:104E600073FB354948602D49887A05F0EDFA06460E
:104E70000022304B05F05AFA044605F065FB2E4936
:104E800088602649C87A05F0DFFA06460022294BD9
:104E900005F04CFA044605F057FB2749C8601F4946
:104EA000097B484205F0BFFA06460022214B05F077
:104EB0003DFA044605F048FB1F4908611749497B44
:104EC000484205F0B0FA064600221A4B05F02EFAC9
:104ED000044605F039FB184948611049887B05F004
:104EE000B3FA06460022134B05F020FA044605F0FB
:104EF0002BFB114988610949C87B05F0A5FA0646D4
:104F000000220C4B05F012FA044605F01DFB0A497D
:104F1000C861BDE8F0810000E401002034230020D6
:104F200010F001087C010020800100208401002095
:104F30008801002000408F404C1C00202DE9F047E4
:104F400004464FF07C51204605F061F88146254625
:104F50002E46FE48A0EB660635462946484605F033
:104F600056F88246294605F052F880464FF07F51A8
:104F700005F04AF80746294605F049F8054628464F
:104F8000BDE8F08730B50021002300224C1E72E0FE
:104F9000EF48007878BB0022EE480178EE48405C8C
:104FA000552801D1501CC2B2EA480078401CC1B259
:104FB000E948405C51280BD0E748405C522807D0B4
:104FC000E548405C542803D0E348405C532801D1B5
:104FD000501CC2B2022A49D10120DD4D2870DD48A3
:104FE0000078DE4D2870DB480078DD4D2D782844B0
:104FF000DC4D28703AE0FFE7D6480078D94D2D788F
:10500000A84233D10020D24D2870D4480378002222
:10501000002107E0D048C05C1044C2B2581CC3B2A3
:10502000481CC1B2CE4800788142F3DBCA48CD4D5E
:105030002D78405D904219D1C74DC8480078401C7A
:10504000285C44B20022002109E0C44800780844EA
:10505000C3B2C148C05CC44D6854481CC1B2C0480A
:105060000078401C8142F0DBE0B230BDB9480078E6
:10507000401CB84D2870B7480078BC4D2D78A84228
:1050800086D100BFF1E72DE9F04F87B08246BAF133
:10509000510F7DD0BAF1520F03D0BAF1540F78D12D
:1050A00037E1B148C078000200B2B1490880AE488B
:1050B00080780988084400B2AD490880AA48407940
:1050C000000200B2AB490880A7480079098808446B
:1050D00000B2A8490880A448C079000200B2A649DD
:1050E0000880A148007A0988084400B2A2490880D3
:1050F0009F48B0F9000005F088F9A049019004F03C
:1051000086FF834605F0E5F9804600229C4B05F0BA
:105110000DF9064600229B4B05F096F800229A4BAB
:10512000CDE9020105F002F9984A994BCDE9040155
:1051300005F08AF8044605F007FA964908608D489C
:10514000B0F9000005F061F98C49019004F05FFFAF
:10515000834605F0BEF90022894BCDE9020105F036
:10516000E5F806460022874B05F06EF8044600225B
:10517000854B05F0DBF8854A854BCDE9040105F048
:1051800063F8804605F0E0F9834908607A4801E059
:1051900054E042E1B0F9000005F037F97F49019091
:1051A00004F035FF834605F094F90022744BCDE9F5
:1051B000020105F0BBF880460022724B05F044F86E
:1051C00006460022704B05F0B1F804466F4A704B5A
:1051D00005F03AF8CDE9040105F0B6F97049086028
:1051E0006C48006805F075F921F000410446002282
:1051F0006C4B05F081F902D20020664908606648D0
:10520000006805F066F921F0004104460022654B74
:1052100005F072F902D200205F490860604800681A
:1052200005F057F921F00041044600225D4B05F0DE
:1052300063F902D200205A490860EFE04A48C0787A
:10524000000200B25849088047488078098808441D
:1052500000B25549088044484079000200B25349E1
:105260000880414800790988084400B24F49088005
:105270003D48C079000200B24D4908803A48007AA2
:105280000988084400B24A4908804748B0F900003C
:1052900005F0BBF84749059004F0B9FE834605F0D8
:1052A00018F906460022364B05F040F80446002265
:1052B000414B04F0C9FF804605F046F93F490860BC
:1052C0003A48B0F9000005F0AEF8064600222C4B33
:1052D00005F02CF804460022374B04F0B5FF804659
:1052E00005F032F9364908603148B0F9000005F0A0
:1052F0009AF880460022224B05F018F80646002254
:105300002D4B04F0A1FF044605F01EF92D4908605D
:1053100084E01548C078000200B22B49088012488A
:1053200080780988084400B2274908800E484079EF
:10533000000200B2254908800B480079098808441A
:1053400000B2224908800848C07941E0DF59375F40
:10535000F4020020E90000200C110020EA000020E7
:1053600079000020EB00002044230020E80000200A
:10537000EE010020F0010020F20100200000614554
:105380000000E04000409F40008066404AD8124D37
:10539000FB2109404402002048020020000061C5B2
:1053A0004C02002000003440E8010020EA01002007
:1053B000EC010020000080BF0000304038020020D7
:1053C0003C02002040020020F4010020F6010020F1
:1053D000000200B2FC490880FC48007A09880844B1
:1053E00000B2F9490880FA48B0F9000005F00DF85C
:1053F0000446F84904F00BFEF7490860F748B0F995
:10540000000005F002F8F6490860EF48B0F9000026
:1054100004F0FBFFF349086000E000BF00BF07B0E5
:10542000BDE8F08F01B59AB0002019901890179040
:1054300016901A981590002014901598512808D0AD
:105440001598522805D01598532802D0159854283D
:105450007ED1E548007800287BD11598FFF713FE30
:10546000159851281FD0522802D0542851D135E028
:10547000DE480068DE49DF4A127841F82200DE4843
:105480000068DE49DB4A127841F82200DC480068F7
:10549000DC49D84A127841F82200D6480078401CEE
:1054A000D449087045E0D8480168D848D84A1278ED
:1054B00040F82210D7480168D748D54A127840F8FA
:1054C0002210D6480068D649D14A127841F8220005
:1054D000CF480078401CCE4908702AE0BE480068DA
:1054E000D049D14A127841F82200BD480068CF491E
:1054F000CD4A127841F82200BA480068CC49CA4A1D
:10550000127841F82200C8480078401CC64908704B
:105510000FE0B8480078401CB6490870BC480078D5
:10552000401CBB490870C0480078401CBE49087048
:1055300000BF00BFAF48007806280ADDB4480078F5
:105540000628FADDB84800780628F6DD002001E0DC
:105550002CE2A8E119900DE0A549199851F8200016
:1055600001461390149804F0FAFC14901998401C0A
:10557000C0B219909F49097819988842ECDB9D4880
:10558000007804F04BFF01461390149804F075FD69
:10559000A84908600020149008460068A6490860E1
:1055A000002019900DE09549199851F82000014606
:1055B0001390149804F0D3FC14901998401CC0B2B6
:1055C00019908C49097819988842ECDB8948007851
:1055D00004F024FF01461390149804F04EFD954901
:1055E0000860002014900846006894490860002074
:1055F00019900DE08349199851F820000146139045
:10560000149804F0ACFC14901998401CC0B2199086
:105610007849097819988842ECDB7648007804F0DC
:10562000FDFE01461390149804F027FD814908609F
:1056300000201490084600688149086000201990F5
:105640000DE07249199851F8200001461390149802
:1056500004F085FC14901998401CC0B219906C4954
:10566000097819988842ECDB6948007804F0D6FE86
:1056700001461390149804F000FD6E490860002064
:105680001490084600686F490860002019900DE0EA
:105690006149199851F8200001461390149804F0BC
:1056A0005EFC14901998401CC0B2199058490978B2
:1056B00019988842ECDB5648007804F0AFFE0146AA
:1056C0001390149804F0D9FC5A49086000201490F3
:1056D000084600685C490860002019900DE05049B8
:1056E000199851F8200001461390149804F037FCE3
:1056F00014901998401CC0B219904549097819981E
:105700008842ECDB4248007804F088FE01461390A2
:10571000149804F0B2FC4749086000201490084631
:1057200000684A490860002019900DE03D49199829
:1057300051F8200001461390149804F010FC1490C6
:105740001998401CC0B219903749097819988842B5
:10575000ECDB3548007804F061FE014613901498A4
:1057600004F08BFC33490860002014900846006860
:1057700037490860002019900DE02C49199851F81C
:10578000200001461390149804F0E9FB1490199836
:10579000401CC0B219902449097819988842ECDB62
:1057A0002148007804F03AFE01461390149804F062
:1057B00064FC2049086000201490084600682549D0
:1057C00008600020199055E0F801002044230020D3
:1057D000F4010020000080BF50020020F6010020EC
:1057E0005402002058020020CC0200204402002075
:1057F000502300201C0300204802002070230020BA
:105800004C0200209023002038020020B02300200A
:105810001D0300203C020020D02300204002002075
:10582000F0230020102400201E030020302400203C
:1058300050240020C8020020D0020020D402002002
:10584000D8020020DC020020E0020020E402002058
:10585000E8020020EC020020FE49199851F82000CF
:1058600001461390149804F07AFB14901998401C88
:10587000C0B21990F849097819988842ECDBF648CB
:10588000007804F0CBFD01461390149804F0F5FB6A
:10589000F24908600020149008460068F04908604A
:1058A0000120F0490870EF48007800287ED0EE48CB
:1058B0000168006804F0ABFB1290EC4801680068D6
:1058C00004F0A5FB1090EA480168006804F09FFB13
:1058D0000F90109904F043FB1190129904F03FFBD4
:1058E0001390FFF72BFB1890E1481899006804F01B
:1058F0008EFBDF490860DD481899006804F087FBDB
:10590000DA490860D8481899006804F080FBD64945
:105910000860D3480168006804F079FB1290D5480C
:105920000168006804F073FB1090D34801680068B8
:1059300004F06DFB0F90109904F011FB1190129977
:1059400004F00DFB1390FFF7F9FA1890CA48189964
:10595000006804F05CFBC8490860C64818990068F4
:1059600004F055FBC3490860BD481899006804F06D
:105970004EFBBB490860BC48006804F0AAFDCDE9B5
:105980001001BA48006804F0A4FDCDE90E01DDE97C
:10599000102305F007FDCDE9120104F0D5FDB7494C
:1059A0000860B348006804F094FD00E08CE3CDE9A2
:1059B000100105F0A7FACDE9120104F0C5FDB049C8
:1059C00008600846006804F084FDCDE9080105F090
:1059D000A9FDCDE90C01A948006804F07AFDCDE9E4
:1059E000040105F0F5FDCDE908019D48006804F0CB
:1059F00070FDCDE90601DDE9082304F025FCCDE9C1
:105A00000A01DDE90C2304F01FFCCDE910019C48DC
:105A1000006804F05EFDCDE9040105F0D9FDCDE993
:105A200008019648006804F054FDCDE9000105F036
:105A3000CFFDCDE904018F48006804F04AFDCDE9AF
:105A40000201DDE9042304F0FFFBCDE90601DDE9F5
:105A5000082304F0F9FBCDE90C018848006804F044
:105A600038FDCDE9040105F05DFDCDE9080182486E
:105A7000006804F02EFDCDE90601DDE9082304F0FD
:105A8000E3FBCDE90A01DDE90C2304F036FBCDE9A7
:105A90000E01DDE9102304F0D1FBCDE9120104F081
:105AA00053FD17907648006804F013FDCDE9080116
:105AB00005F08EFDCDE90C016948006804F009FD90
:105AC000CDE90A01DDE90C2304F0BEFBCDE91001AC
:105AD0006B48006804F0FDFCCDE9080105F022FDEB
