:020000040800F2
:10000000302D002045010008A1020008A3020008CD
:10001000A7020008AB020008AF02000800000000C1
:10002000000000000000000000000000B302000813
:10003000B502000800000000B7020008B90200087D
:100040005F0100085F0100085F0100085F01000810
:100050005F0100085F0100085F0100085F01000800
:100060005F0100085F0100085F0100085F010008F0
:100070005F0100085F010008AD0900085F0100088A
:100080005F0100085F0100085F010008F30D000830
:100090000F0E00085F0100085F0100085F01000803
:1000A0005F0100085F0100085F0100085F010008B0
:1000B000DB0B00085F0100085F0100085F0100081A
:1000C0005F0100085F0100085F0100085F01000890
:1000D0005F010008DD080008632700085B3800089E
:1000E0005F0100085F0100085F0100085F01000870
:1000F0005F0100085F0100085F0100085F01000860
:100100005F0100085F0100085F0100085F0100084F
:10011000F51300085F0100085F0100085F01000897
:100120005F0100085F0100085F0100085F0100082F
:10013000DFF80CD009F046FA0048004769010008D2
:10014000302D00200648804706480047FEE7FEE7BE
:10015000FEE7FEE7FEE7FEE7FEE7FEE7FEE7FEE777
:10016000FD8A0008310100081CB540A103C9CDE992
:10017000000108F0C3FC4FF4E13000F011F94FF436
:10018000E13001F021FF4FF4164002F01BFE4FF466
:10019000E13001F059F900F0BFFE01F0EDFE00F092
:1001A000B5FC00F031FC01F057FC02F033FD02F029
:1001B00001FB03F03FFC4FF47A7000F00DFC01F0FE
:1001C000DBFD00F000FD2B49086033E02A48007891
:1001D0002A49097888421CD003F0FEFC284908709F
:1001E0000846007851280BD008460078522807D0DE
:1001F00008460078532803D008460078542808D1D0
:100200001F48007803F038FF1E480078401C1D4945
:10021000087000F0D8FC1C4908600968154A12688B
:10022000881A08F07BFF19490860194917480068C7
:1002300009F030F8134800781528C7DB02F048FCB5
:1002400014220621134802F054FC322201211248E4
:1002500002F04FFC14220A21104802F04AFC02F07E
:1002600044FC01E002F071FCFCE700001122334481
:100270005566770008000020E9000020E800002013
:1002800010000020000000200C00002004000020CE
:10029000001B374A812D0008D95D00082926000877
:1002A000704700BFFEE700BFFEE700BFFEE700BFEC
:1002B000FEE770477047704710B502F06FFC10BD45
:1002C0000246002003E000231354431C98B28842E6
:1002D000F9DB70472DE9F04F07460D461646994663
:1002E00007EB0508BA460024A34601E0601C84B26F
:1002F0002A4850F8340008B1082CF7DD082C05DB3B
:10030000FF2089F800000020BDE8F08F234840F866
:10031000347000EBC4000571204800EBC400467146
:100320001E4800EBC4008671A34605FB06F1384663
:10033000FFF7C6FF002405E0CAF80080C246A844C3
:10034000601C84B2701EA042F6DC144800EBCB00A7
:10035000DAE710B502461368907918B9FF200870E3
:10036000002010BD9079401E9071907908B11868F6
:1003700010601C46241D002008702046F1E702464C
:1003800009B9FF207047091F0B46106818601360F9
:100390009079401C90710020F4E7000028030020B1
:1003A00038B504460020FE490870FE490870FE4931
:1003B0000870FE4908701420FD490870204600F0BE
:1003C0003AFA6B4620221146FA48FFF783FFFA49B2
:1003D000086038BD10B5F6480078142800D110BD6B
:1003E000002240F22661F54808F0F1F9F448EF499F
:1003F000097810F8310010B3EC480078EA49097820
:1004000088421CD0EE48E949097810F83100401EB6
:10041000EB49E64A127801F832000846E34A1278BE
:1004200000EBC2004068E74A1278815CE34808F0BC
:100430002FFAE4480078401CE24908705CE0DB4891
:100440000078D949097888424DD0DD48D74A1278DA
:1004500000EBC2004168D8480068FFF790FFD3481E
:100460000078401CC0B2D1490870142801DB00207C
:100470000870CF480078401CC0B2CD4908701428DD
:1004800001DB142008700020CE490870C7480078AE
:10049000C549097888421CD0C948C449097810F870
:1004A0003100401EC1B2C648C04A127800F832106E
:1004B000BE4A127800EBC2004068C24A1278815CE2
:1004C000BE4808F0E5F9BF480078401CBD490870F7
:1004D00012E00020BC4908701420B54908700020C3
:1004E000B849087008E00020B74908701420B049E6
:1004F00008700020B3490870012240F22661AF481D
:1005000008F065F900BF6AE710B5AC4808F0C4F917
:10051000C1B2A34802780078401CA14B1870AB48C8
:100520008154184600789F490978884204D19D4833
:100530000078401C9B49087010BDF8B505460C4674
:1005400026460CB90120F8BD002240F226619B48E6
:1005500008F03DF91C2094FBF0F100FB114028B19C
:100560001C2094FBF0F0401CC4B203E01C2094FB60
:10057000F0F0C4B28E480078A04207DA012240F2BF
:1005800026618E4808F023F9FF20DCE769468A4897
:100590000068FFF7DEFE8A49834A127801EBC20148
:1005A000486081480078142802DB00207E490870EA
:1005B00000242FE0287882497B4A127801EBC2019F
:1005C00049680855601CC4B21C2C20DB1C217C48E7
:1005D000754A127800F8321073480078401CC0B297
:1005E00071490870142801DB0020087069467248C0
:1005F0000068FFF7AEFE72496B4A127801EBC20148
:1006000048606B480078401E6949087000246D1CE2
:10061000701EC6B2002ECDD19CB1694862490978DE
:1006200000F8314062480078401E614908705E4819
:100630000078401CC0B25C490870142801DB00201F
:1006400008706148007820B9FFF7C4FE01205E49B8
:100650000870012240F22661584808F0B8F80020DE
:1006600071E770B50546002400E0641C285D002891
:10067000FBD1E1B22846FFF760FF70BD10B54B48D3
:10068000007849490978884234D04D48474A127861
:1006900000EBC200416848480068FFF770FE43481D
:1006A0000078401CC0B241490870142801DB0020CA
:1006B00008703F480078401CC0B23D4908701428BB
:1006C00001DB1420087039480078374909788842DE
:1006D0000CD03B4A354B1B7812F83310334B1B7848
:1006E00002EBC302506800F01CF924E000203649F8
:1006F000087020E032482D4A127800EBC2004168B1
:100700002D480068FFF73BFE28480078401CC0B227
:1007100026490870142801DB00200870244800785E
:10072000401CC0B222490870142801DB1420087054
:1007300000202549087010BD10B55CE0244A1278ED
:10074000002A53D10020174A1278921ED1B21F4AB4
:10075000525C552A01D1421CD0B2124A1278521E64
:10076000D1B21A4A525CAA2A01D1421CD0B20D4A17
:100770001278184B1B68022404FB0322D1B2134ADF
:10078000525CFF2A01D1421CD0B203282ED1012293
:100790000F4B1A70034A12780F4B1A70014A1DE072
:1007A0002500002026000020220000202300002039
:1007B00024000020240500202C00002000380140E7
:1007C00084030020210000201400002024040020C5
:1007D000200000201C000020270000201278094B78
:1007E0001B68022404FB0322074B1A70074A127885
:1007F000521C064B1A70054A1278054B1B789A4218
:100800009CD110BD1C0000202800002026000020E4
:100810002500002008B525208DF8000000208DF867
:10082000010003208DF8020001208DF803006846C6
:1008300005F001FB08BD10B586B00446012144F265
:10084000050006F073FF01A806F043FD4FF40070A9
:10085000ADF8040003208DF8060018208DF807007D
:1008600001A9594806F0ACFC01A806F032FD4FF48E
:100870008060ADF8040004208DF8070001A95248FB
:1008800006F09EFC514807F0C7FE02A807F070FF73
:1008900002940020ADF80C00ADF80E00ADF8100089
:1008A0000C20ADF812000020ADF8140002A9474852
:1008B00007F0F5FE012240F22661444807F087FF69
:1008C000FFF7A8FF012240F22551404807F07FFFC3
:1008D00001213E4807F06FFF06B010BD10B5202182
:1008E0003A4808F043F8012808D12021374808F099
:1008F0004AF83748007808B1FFF706FE4021334830
:1009000008F034F8012808D14021304808F03BF8BD
:100910002F48007808B1FFF75DFD01202C490870D1
:1009200010BD30B58DB005460C460121084606F0D5
:10093000F0FE284805F0DEFF2448001D02900395D4
:10094000102004900594002006908020079000203D
:10095000089009900A904FF440500B9000200C90A2
:1009600002A91C4806F068F801220221194806F085
:100970009AF80E208DF8040000208DF805008DF8FF
:10098000060001208DF8070001A805F054FA0121A6
:10099000104806F07CF8012280210C4807F03CFF4B
:1009A00001210A4807F007FF0DB030BD10B54FF424
:1009B000005006F0A5F8012804D1400306F095F890
:1009C000FFF75CFE10BD0000000801400038014048
:1009D0003000002044000240002107E0002200E037
:1009E000521C43F278739A42FADB491C8142F5D3D8
:1009F0007047002105E0002200E0521C0E2AFCDBBB
:100A0000491C8142F7D3704730B57F4800684FF4E6
:100A10007A72B0FBF2F1B1F1807F01D301201DE0C9
:100A200021F07F40401E4FF0E022506150170F220E
:100A3000002807DA13071D0E744B00F00F04241F63
:100A40001D5503E013071C0E714B1C5400BF002002
:100A50004FF0E022906107201061002008B100BF34
:100A6000FEE74FF0E020006920F001004FF0E021A8
:100A7000086130BD4FF0E020006940F001004FF008
:100A8000E0210861704708B54FF4E06005F0CEF949
:100A90001C208DF8000000208DF8010005208DF845
:100AA000020001208DF80300684605F0C4F908BD76
:100AB0000EB50121084606F046FEFFF7E4FF4FF0B1
:100AC000804006F09BFE41F28830ADF804004720DC
:100AD000ADF800000020ADF80600ADF80200694650
:100AE0004FF0804006F05EFF0121880707F07CFD93
:100AF00001221146900707F0CCFA0121880707F080
:100B0000ADFA0021012006F01EFE0EBD0EB501213A
:100B1000062006F018FE684607F070FA4FF6FF70E0
:100B2000ADF804000020ADF80000ADF80600ADF807
:100B300002006946374806F035FF00221146354865
:100B400007F033FB0121334807F0D4FC3021314852
:100B500007F0BEFA07212F4807F002FD80212D483B
:100B600007F007FD01212B4807F078FB4FF6FF70D7
:100B7000ADF804004720ADF800000020ADF80600F5
:100B8000ADF802006946244806F00CFF0121224816
:100B900007F064FB0421204807F0E2FC01211E4815
:100BA00007F0B4FC20211C4807F0D1FC80211A4832
:100BB00007F0DFFC0121184807F050FA0121154821
:100BC00007F04CFA0EBD00201249243108880004B9
:100BD0001149243109880844704710B5012188075C
:100BE00007F005FD40B10121880707F011FD0B4812
:100BF0000068401C09490860084800680A2802D3B8
:100C000000200649086010BD1003002018ED00E028
:100C100000E400E000040040000800403400002030
:100C200000B589B014208DF8000000208DF8010077
:100C300001208DF802008DF80300684605F0FBF8EE
:100C400013208DF8000000208DF8010002208DF89F
:100C5000020001208DF80300684605F0ECF8AA4870
:100C600005F052F90121480606F06DFD012108202A
:100C700006F05CFD0121084606F058FD4FF4807037
:100C8000ADF8140003208DF8160048208DF81700E9
:100C900005A99E4806F094FA4FF40070ADF81400D0
:100CA00003208DF8160018208DF8170005A9974825
:100CB00006F086FA01214FF4EA1006F050FB06A870
:100CC00005F046FA00208DF81E008DF81F008DF803
:100CD000200001208DF8210000208DF822008DF8E1
:100CE00023008DF81A008DF81B0001208DF81C00E0
:100CF00002208DF81D000C20ADF8180006A98248CE
:100D000005F01BF900208DF80E008DF80F00012072
:100D10008DF810000020ADF80400ADF80600ADF825
:100D20000800ADF80A00ADF80C0001208DF81100A4
:100D300001A805F08CF90221734805F088FD012116
:100D4000714805F084FD012203216F4805F07EFC07
:100D500009B000BD7FB586B0DDE90E560798029058
:100D600004208DF80C009DF820008DF80D008DF802
:100D70000E50002407E009983044015D0DF10F008A
:100D80000155601CC4B2AC42F5DB01A95E4805F018
:100D90004DFA0AB070BD30B585B00446A07B28B9C5
:100DA0002068009000208DF8080001E02068019084
:100DB00004208DF80800E07B18B900208DF80900A8
:100DC00002E002208DF80900207B8DF80A00002542
:100DD00006E0201D415D0DF10B004155681CC5B2B8
:100DE000207BA842F5DC6946474805F01FFA05B0AC
:100DF00030BD10B50121444805F08FFC012805D114
:100E00000121414805F023FD00F097F810BD10B511
:100E100086B001AA00213C4805F0FDFA9DF80D00BE
:100E200000286AD1029880B20B2806D0A0F5806015
:100E3000093803D003285ED12EE05DE00298C0F3AC
:100E40000740012806D002280CD0032812D004281D
:100E500020D117E0DDF80F10DDF813002C4AC2E9AD
:100E6000001017E0DDF80F10DDF81300284AC2E982
:100E700004100FE0DDF80F10DDF81300244AC2E97A
:100E8000021007E0DDF80F10DDF81300204AC2E978
:100E9000061000BF00BF2FE00298C0F307400128F2
:100EA00006D002280CD0032812D0042820D117E045
:100EB000DDF80F40204608F028F91649086018E0D0
:100EC000DDF80F40604208F020F91249486010E058
:100ED000DDF80F40204608F018F90E49886008E058
:100EE000DDF80F40604208F010F90A49C86000E0E0
:100EF00000BF00BF00E000BF00BF0021024805F0B6
:100F000002FB06B010BD000000640040000C014070
:100F1000F02600201027002008B50020F9490870AD
:100F2000F9490870FFF77CFE6B4620221146F7480E
:100F3000FFF7D0F9F649086008BD1CB5F548006810
:100F400020280DD10020F4490870F448F44A1278A2
:100F500000EB0210C168EE480068FFF710FA1CBDF4
:100F600000220121EF4805F071FBEC48EC490978BB
:100F700000EB01100078002849D0E9480078EA49E0
:100F80000978884243D0E548E549097800EB01102B
:100F90000078082820DBE148E149097800EB0110DE
:100FA00000780838DD49DE4A127801EB021108703A
:100FB000DE4800680821CDE90010D848D8490978F2
:100FC00000EB011494E80F00FFF7C4FED748006857
:100FD0000830D649086097E0D4480168CF48D04A25
:100FE000127800EB02100078CDE90001CB48CC4923
:100FF000097800EB011494E80F00FFF7ABFE002026
:10100000C649C74A127801EB021108707CE0C44857
:101010000078C549097888426DD0C048C04A127826
:1010200000EB0210C168BA480068FFF7A8F9BC4895
:101030000078401CC0B2BA490870202801DB0020AB
:101040000870B4480068401CB2490860202801D3E9
:10105000202008600020B5490860B1480078B249F6
:10106000097888423DD0AD48AD49097800EB0110C0
:101070000078082821DBA948A949097800EB01106C
:1010800000780838C1B2A548A54A127800EB0210D2
:101090000170A64800680821CDE900109F48A049CA
:1010A000097800EB011494E80F00FFF753FE9F4806
:1010B000006808309D49086026E09C480168974810
:1010C000974A127800EB02100078CDE900019348AE
:1010D0009349097800EB011494E80F00FFF73AFEFA
:1010E00012E000208C49087020208A490860002006
:1010F0008E49086008E00020874908702020854953
:10110000086000208949086001221146854805F0E1
:101110009DFA00BF23E72DE9F84305460C46164625
:101120001F46A04614B90120BDE8F8830022012122
:101130007C4805F08BFA1C2094FBF0F100FB114079
:1011400028B11C2094FBF0F0401CC4B203E01C202A
:1011500094FBF0F0C4B26F480068A04206D20122AE
:101160001146704805F072FA0120DDE769466848CB
:101170000068FFF7EEF869496B4A127801EB02113B
:10118000C86069480078202802DB002066490870A2
:1011900000243EE029786148634A127800EB02108F
:1011A000C0680155601CC4B21C2C2DDB5B485E4935
:1011B000097800EB011046601C2058495A4A127801
:1011C00001EB0211087055485749097800EB0110EE
:1011D000077255480078401CC0B253490870202857
:1011E00001DB00200870694649480068FFF7B1F844
:1011F0004A494D4A127801EB0211C860454800681F
:10120000401E4449086000246D1CA8F1010000F054
:10121000FF08B8F1000FBDD104B340484249097836
:1012200000EB011046603D483F49097800EB011092
:1012300004703A483C49097800EB011007723548C0
:101240000068401E3349086037480078401CC0B22F
:1012500035490870202801DB002008702E480078EE
:1012600020B901202C490870FFF767FE01221146C2
:101270002C4805F0EBF9002056E7002000212C4A0D
:10128000116000BF03E000212A4A1154401CFF28CE
:10129000F9DD704710B50246002000BF03E00023CF
:1012A000244C2354401CFF28F9DD10BD0FB430B589
:1012B00000209DF8161000BF17E00DF11702135C17
:1012C000104A14781278521C0E4D2A70194A135580
:1012D0002A4612780C4B1B789A4204D10A4A12789B
:1012E000521C094B1A70421CD0B28842E5DB30BC5C
:1012F0005DF814FB024622B10F4802600F480170EE
:1013000023E01DE05400002055000020440C002084
:10131000580000203C00002041000020440900202B
:1013200039000020006400403800002050000020F8
:1013300044000020440B0020480000204C00002006
:10134000B2F5807F01D9FF2070470020FCE7000044
:1013500010B586B0044634208DF8000000208DF8CA
:10136000010004208DF8020001208DF8030068467A
:1013700004F061FD0121102006F0D8F90121C80414
:1013800006F0E1F92D48406820F480602B49486060
:101390000846406860F480604860C814ADF81400E6
:1013A00004208DF8170005A9244805F009FF0194D1
:1013B0000020ADF80800ADF80A00ADF80C00ADF85B
:1013C00010000C20ADF80E0001A91D4807F067F9C8
:1013D000012240F225511A4807F0F9F9012240F2A2
:1013E0002661174807F0F3F90121154807F0E3F9E2
:1013F00006B010BD10B52021114807F0B7FA01283A
:1014000008D120210E4807F0BEFA0E48007808B136
:1014100000F0CEF840210A4807F0A8FA012808D1C8
:101420004021074807F0AFFA0648007808B100F0FD
:1014300025F801200349087010BD0000001001408C
:10144000004C00405C00002038B504460020FE49F6
:101450000870FE490870FE490870FE4908701420A3
:10146000FD4908602046FFF773FF6B4620221146B6
:10147000FA48FEF72FFFFA49086038BD10B5F64864
:101480000068142800D110BD002240F22661F54802
:1014900007F09DF9F448EF49097810F8310018B3C6
:1014A000EC480078EA49097888421DD0EE48E949BD
:1014B000097810F83100401EEB49E64A127801F82D
:1014C00032000846E349097800EBC1004068E7496B
:1014D000097844182178E34807F0DAF9E3480078FE
:1014E000401CE24908705BE0DA480078D849097886
:1014F00088424CD0DC48D74A127800EBC2004168E1
:10150000D7480068FEF73BFFD2480078401CC0B2C5
:10151000D0490870142801DB00200870CE4800680C
:10152000401CCD490860142801D314200860002015
:10153000CE490870C7480078C549097888421CD050
:10154000C948C449097810F83100401EC649C14A4B
:10155000127801F832000846BE4A127800EBC20049
:101560004068C24A1278815CBE4807F091F9BF48D2
:101570000078401CBD49087012E00020BC4908708A
:101580001420B54908600020B849087008E0002020
:10159000B74908701420B04908600020B3490870AA
:1015A000012240F22661AF4807F011F900BF6AE757
:1015B00010B5AC4807F070F9C1B2A34802780078C2
:1015C000401CA14B1870AB488154184600789F49C5
:1015D0000978884204D19D480078401C9B490870D6
:1015E00010BDF8B505460C4626460CB90120F8BDDD
:1015F000002240F226619B4807F0E9F81C2094FB8A
:10160000F0F100FB114028B11C2094FBF0F0401CCD
:10161000C4B203E01C2094FBF0F0C4B28E48006812
:10162000A04207D2012240F226618E4807F0CFF88F
:10163000FF20DCE769468A480068FEF78AFE8A498F
:10164000834A127801EBC20148608148007814286F
:1016500002DB00207E49087000242FE028788249B0
:101660007B4A127801EBC20149680855601CC4B27C
:101670001C2C20DB1C217C48754A127800F83210A3
:1016800073480078401CC0B271490870142801DB0F
:1016900000200870694672480068FEF75AFE7249D9
:1016A0006B4A127801EBC20148606B480068401E2B
:1016B0006949086000246D1C701EC6B2002ECDD191
:1016C0009CB169486249097800F831406248006875
:1016D000401E614908605E480078401CC0B25C4909
:1016E0000870142801DB002008706148007820B9D8
:1016F000FFF7C4FE01205E490870012240F2266116
:10170000584807F064F8002071E770B505460024DA
:1017100000E0641C285D0028FBD1E1B22846FFF7F9
:1017200060FF70BD7EB50020F5E0534C2478002C9E
:101730004AD10022454C2478641EE1B24D4C645CD1
:10174000022C01D1541CE2B2404C24784B4D2D6840
:10175000022606FB0544E1B2464C645C0D2C01D127
:10176000541CE2B2394C2478444D2D68022606FB05
:101770000544641CE1B23F4C645C0A2C01D1541C4A
:10178000E2B2324C24783D4D2D68022606FB05441A
:10179000A41CE1B2374C645C032C01D1541CE2B2AE
:1017A000042A10D10124344D2C700120274C2478B8
:1017B000334D2C70254C2478304D2D68022606FBC5
:1017C0000544304D2C70A1E0204C24782D4D2D780F
:1017D000AC42F8D10024284D2C70002100238DE06C
:1017E000274C24780C44234D2C5D302C0EDB244CEC
:1017F00024780C442C5D392C08DC214C24780C44D2
:101800002C5D303CE4B20DF8014014E01C4C24780F
:101810000C44184D2C5D412C0DDB194C24780C44E4
:101820002C5D462C07DC164C24780C442C5D373C90
:10183000E4B20DF80140124C24780C44641C0D4DA8
:101840002C5D302C32DB1FE0E8000020E900002096
:10185000E0000020E1000020E4000020E41100206E
:10186000F0000020004C004044100020DE0000206A
:1018700060000020E41000207800002074000020A8
:10188000EA000020EB000020684C24780C44641C23
:101890002C5D392C0ADC654C24780C44641C2C5DCE
:1018A000303CE5B24C1C0DF8045018E05F4C247835
:1018B0000C44641C5E4D2C5D412C10DB5B4C247889
:1018C0000C44641C2C5D462C09DC584C24780C44D8
:1018D000641C2C5D373CE5B24C1C0DF804504C1CCC
:1018E0001DF804501DF8014005EB0414E6B21C4637
:1018F0005D1CEBB24F4D2E558C1CE1B24E4C246852
:10190000641E64008C423FF66BAF01204B4C247880
:10191000641C4A4D2C70494C2478494D2D78AC42BA
:101920007FF403AF7EBD10B50146012024E00A78A4
:1019300000EB8003434CE35C9A421CD14A7800EBF5
:10194000800323445B789A4215D18A7800EB8003A8
:1019500023449B789A420ED1CA7800EB800323443B
:10196000DB789A4207D10A7900EB800323441B7984
:101970009A4200D102E0401C1428D8DB00BF324A52
:101980001278324B1A70012801DB102800DD10BDDF
:101990002D4B187000BFFAE730B5C1B000244FF4EA
:1019A000807101A807F043F90025244800782449F4
:1019B0000978884221D0FFF7B5FEF0B10120244913
:1019C000087005221B49234807F03CF9A8B11948C3
:1019D000FFF7A9FF01A801231B4A04210090022060
:1019E00001F0CBFBC4B2214601A801F0B7FA1948B7
:1019F00010490A6802600979017141B030BD0020C8
:101A00000AE01149097801EB81010E4A1144095C91
:101A1000084A1154411CC8B20528F2DB0D49054A99
:101A200013680B6012790A7170470000EA00002009
:101A3000E41000206100002074000020E900002074
:101A4000E80000207A0000206600002067000020E7
:101A5000680000206900002008B50121512005F030
:101A600065FE0420ADF8000010208DF8030003206F
:101A70008DF802006946F94805F0A2FB0421F748F9
:101A800005F049FC4FF48040ADF8000010208DF8BF
:101A9000030003208DF802006946F14805F090FB31
:101AA0004FF48041EE4805F036FC08BD01460029A0
:101AB00001DD08467047002901DA4842FAE7084686
:101AC000F8E72DE9F04F85B08246DFF898B3E64895
:101AD0000068E54989680844E34949680844E249DF
:101AE000C9684418E11704EB9171881007F00DFBE9
:101AF0000290DD4800684042DB4989680844DA49C1
:101B000049680844D849C968441AE11704EB91713F
:101B1000881007F0FAFA0390D34909684942D24A7B
:101B200092681144D04A5268891ACF4AD2688818FC
:101B300007F0F9FA06460F46584607F04AFB00221E
:101B4000CA4BCDE9000107F0FFF9804632463B461B
:101B500007F0FAF9044607F077FBC54904900860DE
:101B600002A807C88AE8070005B0BDE8F08FFFB5F6
:101B700085B00446BF4D2846089907F0C8F80646C8
:101B8000DDE9060107F0BDF80746314607F0B9F870
:101B900001902846089907F0BAF80646DDE90601E3
:101BA00007F05DF80746314607F059F802902846DD
:101BB000089907F0ACF80646DDE9060107F04FF892
:101BC0000746314607F09DF803902846089907F02C
:101BD0009EF80646DDE9060107F093F80746314610
:101BE00007F03DF8049001A80FC884E80F0009B081
:101BF000F0BD2DE9FF470C9C9A4DDDE9000107F08F
:101C00002EF88046029907F02AF80746039907F054
:101C100026F806464FF0814107F0AFF820600098A3
:101C200080F000494846019907F019F8804602996A
:101C300007F015F80746039907F063F806464FF0DA
:101C4000814107F09AF86060009880F0004A5046A1
:101C5000019907F004F88146029907F052F880468E
:101C6000039906F0FCFF0746294607F050F80646A0
:101C70004FF0814107F081F8A060BDE8FF872DE9B2
:101C8000FC4104460D4616461F467BA103C9CDE91B
:101C90000001F8B28DF80300F0B28DF80400E8B24C
:101CA0008DF805009DF802009DF8031008449DF88A
:101CB000041008449DF805100844C0B28DF80600D1
:101CC0000023224608216846FFF725FABDE8FC817B
:101CD0007CB50446002040EA044040F440750020F2
:101CE000009000232A4604216846FFF714FA0020DA
:101CF00040EA044000F203350220009000232A4607
:101D000004216846FFF707FA002040EA044040F447
:101D100040750120009000232A4604216846FFF701
:101D2000FAF97CBD7CB50446002040EA044040F44A
:101D300040750020009000232A4604216846FFF7E2
:101D4000EAF9002040EA044000F203350420009044
:101D500000232A4604216846FFF7DDF9002040EA07
:101D6000044040F440750120009000232A460421DD
:101D70006846FFF7D0F97CBD10B50120FFF7A8FF3A
:101D80000220FFF7A5FF0320FFF7A2FF0420FFF7C3
:101D90009FFF10BD10B50120FFF7C4FF0A20FEF71A
:101DA0001BFE0220FFF7BEFF0A20FEF715FE0320F0
:101DB000FFF7B8FF0A20FEF70FFE0420FFF7B2FF7F
:101DC00010BDF8B504460D46002040EA044000F27C
:101DD000053600950023324604216846FFF79BF93B
:101DE000F8BD2DE9FC41064614461D464FF00000A3
:101DF00040EA064040F44177CDE900454FF000034A
:101E00003A464FF008016846FFF785F9BDE8FC81C6
:101E100038B504464FF0807040EA044000F20C45AB
:101E20000020009002232A4604216846FFF773F938
:101E300038BD1FB504464FF0807040EA044000F200
:101E40000940009004208DF80C0001208DF80E0050
:101E50008DF80F006846FEF79EFF1FBD0018014079
:101E60000010014090C4DF3A240900200000D03F58
:101E7000F40000200070124455AA0300000000FF87
:101E800010B50446394A00230120FFF7AAFF374A5C
:101E90005242D3140220FFF7A4FF344A0023032048
:101EA000FFF79FFF314A5242D3140420FFF799FFF6
:101EB00010BD704710B500210120FFF782FF0021FF
:101EC0000220FFF77EFF00210320FFF77AFF0021A9
:101ED0000420FFF776FF10BD2DE9FF47009807F0BB
:101EE00078F90746224A234B07F02EF8054607F0FB
:101EF00051F9044621460120FFF763FF019880F065
:101F00000049484607F065F90746194A194B07F09A
:101F10001BF8054607F03EF9044621460220FFF76C
:101F200050FF029807F055F90746114A114B07F088
:101F30000BF8054607F02EF9044621460320FFF76B
:101F400040FF039880F00049484607F042F90746F1
:101F5000074A084B06F0F8FF054607F01BF9044650
:101F600021460420FFF72DFFBDE8FF87801A0600F9
:101F70009EEFA7C64B97834008B50121402005F08E
:101F8000D5FB0320ADF8000010208DF803000320DE
:101F90008DF8020069460B4805F012F90321094843
:101FA00005F0B9F908BD10B50121064805F0A6F9FC
:101FB000C0F10100C4B222460121024805F0AFF988
:101FC00010BD00000018014038B504460020FE494D
:101FD0000870FE490870FE490870FE490870142018
:101FE000FD490860204600F064FB6B462022114644
:101FF000FA48FEF76FF9FA49086038BD10B5F6489F
:102000000068142800D110BD002240F22661F54876
:1020100006F0DDFBF448EF49097810F8310010B301
:10202000EC480078EA49097888421CD0EE48E94932
:10203000097810F83100401EEB49E64A127801F8A1
:1020400032000846E34A127800EBC2004068E74AD3
:102050001278815CE34806F01BFCE4480078401CE1
:10206000E24908705BE0DB480078D949097888428A
:102070004CD0DD48D74A127800EBC2004168D848FE
:102080000068FEF77CF9D3480078401CC0B2D14903
:102090000870142801DB00200870CF480068401C3D
:1020A000CD490860142801D3142008600020CF49CE
:1020B0000870C8480078C649097888421CD0CA48C8
:1020C000C449097810F83100401EC1B2C648C14A5F
:1020D000127800F83210BF4A127800EBC200406854
:1020E000C24A1278815CBF4806F0D2FBBF48007834
:1020F000401CBE49087012E00020BD490870142041
:10210000B54908600020B949087008E00020B849C6
:1021100008701420B04908600020B44908700122FA
:1021200040F22661AF4806F052FB00BF6BE710B5E6
:10213000AC4806F0B1FBC1B2A34802780078401C5D
:10214000A14B1870AB488154184600789F49097814
:10215000884204D19D480078401C9C49087010BDFD
:10216000F8B505460C4626460CB90120F8BD0022FC
:1021700040F226619B4806F02AFB1C2094FBF0F1FC
:1021800000FB114028B11C2094FBF0F0401CC4B2AD
:1021900003E01C2094FBF0F0C4B28F480068A0421A
:1021A00007D2012240F226618E4806F010FBFF2084
:1021B000DCE769468A480068FEF7CBF88A49844A1A
:1021C000127801EBC201486081480078142802DBD4
:1021D00000207F49087000242FE0287882497C4A3B
:1021E000127801EBC20149680855601CC4B21C2C6E
:1021F00020DB1C217C48764A127800F832107448A3
:102200000078401CC0B272490870142801DB00201D
:102210000870694672480068FEF79BF872496C4A7C
:10222000127801EBC20148606B480068401E6A49A1
:10223000086000246D1C701EC6B2002ECDD19CB16A
:1022400069486349097800F8314063480068401ED6
:10225000614908605E480078401CC0B25C49087063
:10226000142801DB002008706148007820B9FFF7CE
:10227000C5FE01205E490870012240F226615948DE
:1022800006F0A5FA002071E770B50546002400E0CD
:10229000641C285D0028FBD1E1B22846FFF760FFEF
:1022A00070BD30B5014600240A46524DAB5C551C4A
:1022B000EAB2504DAD5C43EA0524204630BD2DE91D
:1022C000FC414C484C490978455CA12D0ED006DCF8
:1022D0001A2D39D01B2D75D01C2D1DD129E1A22D11
:1022E00026D0A32D2ED0A42DF7D12CE04149424871
:1022F0000078401C0C5C414804703F480078801C0A
:102300000C5C204600F0B1FF3D4908603D493C4867
:10231000006806F0BFFF00D813E13B4800683B4966
:10232000086001203A49087000203A49086008E135
:10233000FFF7C0FD00203649087036490860304973
:102340000860FEE0FDE0FCE033A236A1684607F03D
:1023500079F907216846FFF703FF2B48006806F06C
:1023600038FF064632460B462FA1684607F06AF949
:1023700007216846FFF7F4FE2CA22AA1684607F061
:1023800061F907216846FFF7EBFE2B48006806F06D
:1023900020FF064632460B4623A1684607F052F955
:1023A00007216846FFF7DCFE24A21EA1684607F05D
:1023B00049F907216846FFF7D3FE2348006806F075
:1023C00008FF43E0A7E000001C0100201D010020E1
:1023D000160100201701002018010020841700209A
:1023E0002401002000440040E415002015010020D5
:1023F00000010020841600201E010020B0010020F2
:10240000100100200000C84398020020B401002001
:10241000140100200C0300202020796177203D204A
:102420000000000025730000256600002020706970
:10243000746368203D200000940200202020726F09
:102440006C6C203D200000009002002006463246C1
:102450000B46AFF22C01684607F0F4F807216846F6
:10246000FFF77EFE77A2AFF24401684607F0EAF874
:1024700007216846FFF774FE7448006806F0A9FE5D
:10248000064632460B46AFF26001684607F0DAF8BE
:1024900007216846FFF764FE6DA2AFF27801684637
:1024A00007F0D0F807216846FFF75AFE6A4800682F
:1024B00006F08FFE064632460B46AFF294016846A0
:1024C00007F0C0F807216846FFF74AFE63A2AFF2A3
:1024D000AC01684607F0B6F807216846FFF740FEF2
:1024E0006048006806F075FE064632460B46AFF2BD
:1024F000C801684607F0A6F807216846FFF730FED6
:1025000059A2AFF2E001684607F09CF80221684644
:10251000FFF726FE15E0012054490870544955483C
:102520000078401C0C5C204600F09FFE5249086079
:1025300007E0FFF7BFFC00204C4908704E490860D7
:1025400000BF00BFBDE8FC8130B54FF0FF3064E054
:102550004A4C2478002C37D10021494C2478641F40
:10256000E2B2434CA45C552C01D14C1CE1B2444C6A
:102570002478241FE2B23E4CA45CAA2C01D14C1C4E
:10258000E1B23F4C2478E41EE2B2394CA45C1E2C2C
:1025900001D14C1CE1B203293AD10124374D2C70F2
:1025A000374C2478641EE2B2314CA45C354D2C705B
:1025B000334C24782F4D2C70314C2478314D2D78AC
:1025C0002C44314D2C7023E02D4C24782E4D2D7849
:1025D000AC421DD10024294D2C70264C23780021BB
:1025E000002207E0224CE45C0C44E1B25C1CE3B244
:1025F000541CE2B2234C2478A242F3DBCC43E1B278
:102600001B4CE45C8C4203D1194C1A4D2D78605D53
:102610001B4C2478641C1A4D2C70194C24781B4DCB
:102620002D78AC4294D130BD10B5154800781749CB
:102630000978884205D0FFF787FF401C01D0FFF7DB
:102640003EFE10BD2020657A203D2000D8020020EB
:1026500020206579203D2000D402002020206578CC
:10266000203D2000D00200200D0A00006C01002057
:10267000841600201E0100201001002020010020EF
:102680001D010020210100201F0100201C0100204D
:1026900008B526208DF8000000208DF801000620E6
:1026A0008DF8020001208DF80300684603F0C3FB9B
:1026B00008BD10B586B004460121042005F036F8A7
:1026C0000121480405F03FF84FF4E06003F0AEFB51
:1026D00026208DF8000000208DF8010006208DF8DE
:1026E000020001208DF80300684603F0A4FB0420DB
:1026F000ADF8140018208DF8170003208DF816008F
:1027000005A9294804F05CFD0820ADF81400042058
:102710008DF8170005A9244804F052FD019400200B
:10272000ADF80800ADF80A00ADF80C00ADF81000E7
:102730000C20ADF80E0001A91C4805F0B0FF0122E5
:1027400040F22551194806F042F8012240F2266174
:10275000164806F03CF80121144806F02CF806B0A3
:1027600010BD10B52021114806F000F9012808D14C
:1027700020210E4806F007F90D48007808B1FFF750
:10278000D6FC4021094806F0F1F8012808D1402183
:10279000064806F0F8F80648007808B1FFF72EFC66
:1027A00001200349087010BD0008014000440040AA
:1027B0002801002008B501217D2004F0B7FFF0209A
:1027C000ADF8000048208DF8030003208DF80200CA
:1027D0006946994804F0F4FC4FF20300ADF800009C
:1027E00048208DF8030003208DF8020069469348C5
:1027F00004F0E6FC4FF47C70ADF8000048208DF842
:10280000030003208DF8020069468D4804F0D8FCCF
:102810004FF47F40ADF8000048208DF803000320FE
:102820008DF802006946874804F0CAFC4FF4FF4067
:10283000ADF8000048208DF8030003208DF8020059
:102840006946814804F0BCFC00208049087080483B
:1028500080490860804888607D48C8607E497D481E
:1028600041617E487B4988617D497A4801627848A8
:102870007849486278497748C16200207949086000
:102880007949086008BD2DE9FF4782B01C46DDE9A3
:102890000E78002000900190744801687448006828
:1028A00006F0EEFC04D000206F4908607149086012
:1028B0006F4801687048006806F023FA69490860AB
:1028C0000398096806F023FA05466A480168284615
:1028D00006F0C5F967490860634801686148006807
:1028E00006F00FFA81464946049806F010FA0646AB
:1028F0005C490298096806F00AFA82465D48016858
:10290000504606F0ACF90546314606F0A8F9A0603D
:10291000A06806F05EFC05464FF03332574B06F0D8
:102920007FFC02D85648A0600BE0A06806F051FC7E
:1029300005464FF03332534B06F05EFC01D8524847
:10294000A06048480068484908604948006847490D
:10295000086006B0BDE8F0872DE9F04188B0074671
:102960000E461446002539480078A0B100BF0DE09E
:1029700005EB4500374901EB800005EB4501434A73
:1029800002EB81030ECB0EC0681CC5B2042DEFDB39
:1029900000202E490870012E06D0022E0CD0032EE6
:1029A00015D0042E29D11BE02A4A07CA05AB07C35C
:1029B00002940020039021E0264A0C3207CA05AB9E
:1029C00007C384F0004002900020039016E0214AE3
:1029D000183207CA05AB07C30020029003940DE02C
:1029E0001C4AD2E90910D26ACDE9060205910020FD
:1029F000029084F00040039000E000BF00BF20463A
:102A000006F0AFFBB0F1000801DB404601E0C8F181
:102A1000000038B102ABCDE9006405A807C8FFF794
:102A200032FF01E00020049002A807C887E80700F1
:102A300008B0BDE8F081000000080140000C014032
:102A4000001001400014014000180140380100202E
:102A50008FC2753DD81B00208FC2F53C8FC275BD5B
:102A60008FC2F5BC3C010020400100203401002051
:102A7000B401002030010020980200203333E33FEE
:102A80009A99193F3333E3BF9A9919BFA81B0020C5
:102A9000014601EB41005E4A52F8200008B90820C7
:102AA0007047002001EB4102594B43F8220001EB33
:102AB000410203EB8202908001EB410203EB8202B0
:102AC000D08001EB410203EB8202107200BFE7E706
:102AD00010B5FDF799FF002404E02046FFF7D8FF6A
:102AE000601CC4B2102CF8DB10BD10B5FDF7C2FF9E
:102AF00010BD70B503460C46002101E0481CC1B270
:102B000001EB4100424D55F8200008B11029F5DBDA
:102B1000102901D1082070BD01EB41003C4D45F862
:102B2000203001EB410005EB8000848001EB410087
:102B300005EB8000C280002001EB4105344E06EB1E
:102B4000850528720846E6E7704710B5002420E0A6
:102B500004EB44002E4901EB8000007A002816DDCA
:102B600004EB44012A4A52F821008047002004EB7C
:102B70004401274A02EB8101087204EB440011462C
:102B800001EB8000C08810B92046FFF781FF601C70
:102B9000C4B2102CDCDBFFF7D7FF10BD002033E000
:102BA00000EB40011A4A52F8211059B300EB4001E2
:102BB00002EB81018988C1B9012100EB4002144B6D
:102BC00003EB8202117200EB40011A4602EB810115
:102BD000C988B9B100EB400102EB8101C98800EB63
:102BE000400203EB820291800CE000EB4001084AB6
:102BF00002EB81018988491E00EB4002044B03EB84
:102C000082029180411CC8B21028C9DB70470000C5
:102C1000081C002001205D4908705D485D4908607E
:102C200004205D49086000205C49486000215B4841
:102C30008160C1600120594908740020704710B5B7
:102C40008CB00446201D07C809AB07C301A809A919
:102C50000EC9FEF78CFF02A80DC80199CDE9072324
:102C6000CDE9051005A80FC8FFF736F90CB010BD67
:102C700010B5002445480078C0B100BF08E04548C1
:102C8000006850F82400007C00B105E0601CC4B26C
:102C9000414800688442F2DB00BF3D4850F8240000
:102CA0003F49086008460068FFF7C9FF10BD0EB530
:102CB0003C48007868B105203B4908703B480068F3
:102CC0004860002138488160C1600120364908749D
:102CD00018E03748007890B1052033490870334830
:102CE0000268344801786846FFF736FE2E489DE8B2
:102CF0000E00001D0EC001202B49087402E00020C8
:102D0000294908740EBD30B502460B460024002147
:102D100004E0555C2544ECB24D1CE9B20829F8DB0F
:102D20009C4201DB012000E0002030BD30B50346AD
:102D30000C460020214605E05D5C012D00D10120FC
:102D40004D1CE9B29142F7DD30BD0EB51A4800784E
:102D500090B1052019490870194802681548017892
:102D60006846FFF7F9FD15489DE80E00001D0EC0EE
:102D700001201249087402E00020104908740EBDB9
:102D800010B5FFF794FFFFF773FF10BD800100201F
:102D900058010020780100207C010020101D002037
:102DA000680100206C010020D41C002010010020CC
:102DB00014010020B00100208C010020FC1C002028
:102DC0009001002038B504460020FE490870FE49F5
:102DD0000870FE490870FE4908701420FD4908601B
:102DE000204600F0E0FC6B4620221146FA48FDF731
:102DF00071FAFA49086038BD10B5F6480068142821
:102E000000D110BD002240F22661F54805F0DFFC3C
:102E1000F448EF49097810F8310010B3EC48007815
:102E2000EA49097888421CD0EE48E949097810F847
:102E30003100401EEB49E64A127801F8320008469C
:102E4000E34A127800EBC2004068E74A1278815CDE
:102E5000E34805F01DFDE4480078401CE249087095
:102E60005BE0DB480078D949097888424CD0DD48DE
:102E7000D74A127800EBC2004168D8480068FDF7D5
:102E80007EFAD3480078401CC0B2D149087014289B
:102E900001DB00200870CF480068401CCD49086065
:102EA000142801D3142008600020CF490870C848B6
:102EB0000078C649097888421CD0CA48C4490978B4
:102EC00010F83100401EC1B2C648C14A127800F85D
:102ED0003210BF4A127800EBC2004068C24A127832
:102EE000815CBF4805F0D4FCBF480078401CBE4957
:102EF000087012E00020BD4908701420B549086030
:102F00000020B949087008E00020B8490870142072
:102F1000B04908600020B4490870012240F22661DF
:102F2000AF4805F054FC00BF6BE710B5AC4805F0A6
:102F3000B3FCC1B2A34802780078401CA14B1870C2
:102F4000AB488154184600789F490978884204D1DB
:102F50009D480078401C9C49087010BDF8B5054696
:102F60000C4626460CB90120F8BD002240F226612D
:102F70009B4805F02CFC1C2094FBF0F100FB114059
:102F800028B11C2094FBF0F0401CC4B203E01C20CC
:102F900094FBF0F0C4B28F480068A04207D201222F
:102FA00040F226618E4805F012FCFF20DCE76946FE
:102FB0008A480068FDF7CDF98A49844A127801EB06
:102FC000C201486081480078142802DB00207F4954
:102FD000087000242FE0287882497C4A127801EB9F
:102FE000C20149680855601CC4B21C2C20DB1C219E
:102FF0007C48764A127800F8321074480078401CF9
:10300000C0B272490870142801DB002008706946BC
:1030100072480068FDF79DF972496C4A127801EB1D
:10302000C20148606B480068401E6A49086000247D
:103030006D1C701EC6B2002ECDD19CB1694863498B
:10304000097800F8314063480068401E6149086013
:103050005E480078401CC0B25C490870142801DB4F
:10306000002008706148007820B9FFF7C5FE0120F4
:103070005E490870012240F22661594805F0A7FB1D
:10308000002071E770B50546002400E0641C285D4F
:103090000028FBD1E1B22846FFF760FF70BD30B5D4
:1030A0004FF0FF3062E0534C2478002C37D10022DF
:1030B000454C2478241FE1B24D4C645C552C01D161
:1030C000541CE2B2404C2478E41EE1B2484C645CEB
:1030D000AA2C01D1541CE2B23B4C2478A41EE1B2CC
:1030E000434C645C152C01D1541CE2B2032A38D144
:1030F0000124404D2C70344C2478641EE1B23C4CC9
:10310000645C3D4D2C70304C24783C4D2C702E4C22
:103110002478394D2D782C44394D2C7021E02A4CDF
:103120002478374D2D78AC421BD10024314D2C70C2
:10313000324C23780022002107E02D4CE45C14443B
:10314000E2B25C1CE3B24C1CE1B22B4C2478A142ED
:10315000F3DB274CE45C944203D1254C274D2D78BA
:10316000605D194C2478641C174D2C70164C247823
:10317000144D2D78AC4296D130BD2DE9F043054673
:103180000E46079C002700204FF055098046401C42
:1031900004F808904FF0AA098046401C04F80890F3
:1031A0004FF015098046401C04F8089003F1020C0A
:1031B0008046401C04F808C08046401C04F80850B3
:1031C00080461FE0A4010020A50100209B010020F3
:1031D0009C010020A0010020D01E0020AC01002096
:1031E00000480040301D00209A010020840100208A
:1031F000D01D0020A8010020A9010020A601002068
:10320000A7010020401C04F808605BB905EB060C20
:103210000CF0FF07844600F1010808F0FF0004F8F5
:103220000C7020E005EB060C0CF0FF07002111E00C
:1032300012F80190844600F1010808F0FF0004F83C
:103240000C9012F801C0BC440CF0FF0701F1010C16
:103250000CF0FF019942EBDB844600F1010808F015
:10326000FF0004F80C70BDE8F0832DE9F84F8246AA
:10327000504605F053FF009005F0ABFF804600225A
:10328000F84B05F0D3FE06460022F74B05F05CFE36
:10329000044605F0D9FF83465846BDE8F88F10B5BF
:1032A000014600200A46F14CA35C541CE2B2EF4CEC
:1032B000A45C43EA042010BD2DE9F04FC7B04FF4E1
:1032C000807107A805F0B3FC0020069003900490DD
:1032D0000590E7490870E548E649097810F801903B
:1032E000B9F1040F7ED009DCB9F1010F0DD0B9F1AD
:1032F000020F78D0B9F1030F76D1A9E1B9F1050F2A
:1033000073D0B9F1FF0FF7D1EBE1D849D948007874
:10331000401C0C5C132C02D0142C67D1BFE0D349A5
:10332000D4480078801C0E5C304605F00DFF8246C4
:103330000022D14B05F07AFE074605F085FFCF4904
:103340000860CA49CB480078C01C0E5C304605F0C6
:10335000FBFE07460022C84B05F068FE824605F0DA
:1033600073FFC6498860C149C2480078001D0E5CE1
:10337000304605F0E9FE82460022BF4B05F056FEBE
:10338000074605F061FFBD49C860B849B9480078F3
:10339000401D0E5C304605F0D7FE07460022B64BB6
:1033A00005F044FE824605F04FFFB4494861AF493D
:1033B000B0480078801D0E5C704205F0B4FE0746F0
:1033C0000022AD4B05F032FE824605F03DFFAB49D1
:1033D0008861A649A7480078C01D0E5C704205F0C0
:1033E000A2FE04E07CE1A4E08EE1DAE09EE0074684
:1033F0000022A14B05F01AFE824605F025FF9F49E9
:1034000008629A499B48007808300E5C304605F007
:103410009BFE82460022984B05F008FE074605F009
:1034200013FF9649486291499248007809300E5C32
:10343000304605F089FE074600228F4B05F0F6FD69
:10344000824605F001FF8D49C86200250BE08948DE
:103450000078801C28448549095C05F10800884AE9
:103460001154681CC5B2082DF1DB854A102185482E
:1034700000F039FA07A800907C487E490978084492
:10348000821C082321464846FFF777FE069007A8CE
:103490000699FFF763FD01207B49087047E07549F5
:1034A0000978891CC8B2FFF7FAFE784908607149AB
:1034B0000978091DC8B2FFF7F2FE754908606D4929
:1034C0000978891DC8B2FFF7EAFE724908606949A8
:1034D00009780831C8B2FFF7E2FE6F49086000259D
:1034E00009E064480078801C28446049085C64490D
:1034F0004855681CC5B2082DF3DB614A10216148AC
:1035000000F0F1F96548047007A800905748594940
:1035100009780844821C082321464846FFF72DFEFF
:10352000069007A80699FFF719FD00E000BF00BF4D
:10353000EBE04E494F480078401C0C5C082C2DD223
:10354000DFE804F02C040506072C081627E026E027
:1035500025E024E007A800231A46214600904846AB
:10356000FFF70BFE069007A80699FFF7F7FC16E099
:103570004B4800681421B0FBF1F0C0B28DF8080090
:1035800007A8012302AA214600904846FFF7F5FD4F
:10359000069007A80699FFF7E1FC00E000BF00BF16
:1035A000B3E0324933480078401C0C5C022C02D056
:1035B000042C4AD132E02D492E480078801C0E5C44
:1035C000384806702B480078C01C0E5C3046FFF768
:1035D0004CFE3549086035493348006805F05AFE0D
:1035E00000D833E03248006832490860012032498F
:1035F000087000202A49086007A800901B481D4950
:1036000009780844821C042321464846FFF7B5FD8B
:10361000069007A80699FFF7A1FC17E0FEF74AFC01
:103620000020254908701E4908601F49086007A846
:1036300000231A46214600904846FFF79EFD06905B
:1036400007A80699FFF78AFC00E000BF00BF5CE016
:10365000064908480078401C0C5C012C2ED0022C36
:103660003BD133E000E06F4000008940D01D0020D6
:103670008B010020A601002000408F40A81B0020E5
:10368000D022002010F0010838010020480100205D
:103690004C0100205001002054010020BA010020FC
:1036A0000C030020B0010020900100200000C8435E
:1036B00098020020B40100208C0100202B480078E3
:1036C000062802DC01202A49087007E0002028496A
:1036D000087003900490059000E000BF00BF14E064
:1036E00013E0012C02D0022C0BD103E00120204971
:1036F000087007E000201E490870039004900590B0
:1037000000E000BF00BF00E000BF00BF47B0BDE861
:10371000F08F10B51748007817490978884205D00E
:10372000FFF7BDFC401C01D0FFF7C6FD10BD0146F0
:10373000012903DB642901DA104806E0642903DB70
:10374000FF2901DC0E4800E00020704710B502465A
:103750000B460020002105E0545C8C400443E0B29D
:103760004C1CE1B29942F7DB10BD0000BA01002009
:103770008B010020A5010020A40100209CC4A03ED4
:103780009CC4A0BE08B527208DF8000000208DF84D
:10379000010006208DF8020001208DF80300684624
:1037A00002F049FB08BD10B586B00446012108208F
:1037B00003F0BCFF0121880403F0C5FF4FF4E06073
:1037C00002F034FB27208DF8000000208DF8010066
:1037D00006208DF8020001208DF80300684602F0F3
:1037E0002AFB4FF48060ADF8140018208DF8170004
:1037F00003208DF8160005A92B4803F0E1FC4FF4D7
:103800000060ADF8140004208DF8170005A92648C3
:1038100003F0D6FC01940020ADF80800ADF80A00D2
:10382000ADF80C00ADF810000C20ADF80E0001A9A9
:103830001E4804F034FF012240F225511B4804F0D9
:10384000C6FF012240F22661184804F0C0FF0121A2
:10385000164804F0B0FF06B010BD10B52021134883
:1038600005F084F8012805D12021104805F08BF8D7
:10387000FFF75BFB40210D4805F078F8012805D1E2
:1038800040210A4805F07FF8FFF7B6FA08210748FB
:1038900005F06CF8012806D10821044805F073F8FA
:1038A000024804F0F9FF10BD000C01400048004040
:1038B00070B504460D462668701C08D103F061F906
:1038C0002946204603F072FA03F067F90AE003F094
:1038D00058F9204603F09AF92946204603F066FA83
:1038E00003F05BF970BD2DE9F04105460E46174621
:1038F000002429E055F80480385D9C490870381987
:103900004078487018F101000AD103F03AF9974A5B
:10391000128891B2281903F07CFA03F03EF90CE00A
:1039200003F02FF9281903F071F9904A128891B227
:10393000281903F06EFA03F030F9012E00D105E0EA
:10394000A01C84B2B01E86B2002ED3D100BFBDE849
:10395000F08130B50346002013E01C5A834D2C60E3
:10396000012903D12C46247814540CE07F4C247890
:1039700014547E4C647815186C70841CA0B28C1E94
:10398000A1B20029E9D100BF30BD2DE9F74183B0D4
:103990000D4616460027002400200190A84604206A
:1039A000029003F0EEF806F2FF30800A0190352015
:1039B00003F082FB00BF08E04FF48062039902FB32
:1039C000071003F023F902907F1C0198874203D26D
:1039D0009DF808000428EFD0039C05E002CD2046A6
:1039E00003F0E4F90290241D03983044A04203D967
:1039F0009DF808000428F1D0039C09E058F8041B46
:103A00002068814203D0002006B0BDE8F081241D6B
:103A100003983044A042F1D803F0BFF80120F3E747
:103A200037B5044615462A462046019905F0E6F8C2
:103A300001203EBD2DE9F0414D4A10214D48FFF7D0
:103A400088FF4B4800784A49497840EA01204A49B2
:103A50000860474880784649C97840EA01204749CC
:103A60000860434800794249497940EA01204449C5
:103A700008603F4880793E49C97940EA01204149C0
:103A800008603B49087A05F05FFB064600223E4B82
:103A900005F0CCFA044605F0D7FB3C4908603449F0
:103AA000487A05F051FB06460022374B05F0BEFA76
:103AB000044605F0C9FB354988602D49887A05F030
:103AC00043FB06460022304B05F0B0FA044605F0F1
:103AD000BBFB2E49C8602649C87A05F035FB06466F
:103AE0000022294B05F0A2FA044605F0ADFB274958
:103AF00048611F49097B484205F015FB0646002234
:103B0000214B05F093FA044605F09EFB1F4988619E
:103B10001749497B484205F006FB064600221A4B2E
:103B200005F084FA044605F08FFB18490862104935
:103B3000887B05F009FB06460022134B05F076FA58
:103B4000044605F081FB114948620949C87B05F02C
:103B5000FBFA064600220C4B05F068FA044605F015
:103B600073FB0A49C862BDE8F0810000BC01002077
:103B7000D022002010F00108480100204C01002054
:103B8000500100205401002000408F40D81B00202D
:103B90002DE9F04704464FF07C51204605F0B7F878
:103BA000814625462E46FE48A0EB66063546294648
:103BB000484605F0ACF88246294605F0A8F880464C
:103BC0004FF07F5105F0A0F80746294605F09FF811
:103BD00005462846BDE8F08730B5002100230022C5
:103BE0004C1E72E0EF48007878BB0022EE48017866
:103BF000EE48405C552801D1501CC2B2EA4800781A
:103C0000401CC1B2E948405C51280BD0E748405CF9
:103C1000522807D0E548405C542803D0E348405C74
:103C2000532801D1501CC2B2022A49D10120DD4DD6
:103C30002870DD480078DE4D2870DB480078DD4DC7
:103C40002D782844DC4D28703AE0FFE7D64800780C
:103C5000D94D2D78A84233D10020D24D2870D448B8
:103C600003780022002107E0D048C05C1044C2B2B3
:103C7000581CC3B2481CC1B2CE4800788142F3DB65
:103C8000CA48CD4D2D78405D904219D1C74DC848E6
:103C90000078401C285C44B20022002109E0C4489E
:103CA00000780844C3B2C148C05CC44D6854481C85
:103CB000C1B2C0480078401C8142F0DBE0B230BDA8
:103CC000B9480078401CB84D2870B7480078BC4D02
:103CD0002D78A84286D100BFF1E72DE9F04F87B0DB
:103CE0008246BAF1510F7DD0BAF1520F03D0BAF12A
:103CF000540F78D137E1B148C078000200B2B14921
:103D00000880AE4880780988084400B2AD49088030
:103D1000AA484079000200B2AB490880A748007960
:103D20000988084400B2A8490880A448C079000264
:103D300000B2A6490880A148007A0988084400B268
:103D4000A24908809F48B0F9000005F0DEF9A049BB
:103D5000019004F0DCFF834605F03BFA8046002228
:103D60009C4B05F063F9064600229B4B05F0ECF8EE
:103D700000229A4BCDE9020105F058F9984A994B77
:103D8000CDE9040105F0E0F8044605F05DFA964936
:103D900008608D48B0F9000005F0B7F98C49019032
:103DA00004F0B5FF834605F014FA0022894BCDE9F3
:103DB000020105F03BF906460022874B05F0C4F8E6
:103DC00004460022854B05F031F9854A854BCDE943
:103DD000040105F0B9F8804605F036FA8349086019
:103DE0007A4801E054E042E1B0F9000005F08DF9B5
:103DF0007F49019004F08BFF834605F0EAF9002229
:103E0000744BCDE9020105F011F980460022724B96
:103E100005F09AF806460022704B05F007F90446B3
:103E20006F4A704B05F090F8CDE9040105F00CFAEB
:103E3000704908606C48006805F0CBF921F000413A
:103E4000044600226C4B05F0D7F902D200206649E7
:103E500008606648006805F0BCF921F0004104469E
:103E60000022654B05F0C8F902D200205F490860C6
:103E70006048006805F0ADF921F0004104460022D9
:103E80005D4B05F0B9F902D200205A490860EFE015
:103E90004A48C078000200B25849088047488078F4
:103EA0000988084400B25549088044484079000216
:103EB00000B253490880414800790988084400B29B
:103EC0004F4908803D48C079000200B24D49088042
:103ED0003A48007A0988084400B24A4908804748AD
:103EE000B0F9000005F011F94749059004F00FFF03
:103EF000834605F06EF906460022364B05F096F82B
:103F000004460022414B05F01FF8804605F09CF95D
:103F10003F4908603A48B0F9000005F004F9064648
:103F200000222C4B05F082F804460022374B05F0A6
:103F30000BF8804605F088F9364908603148B0F939
:103F4000000005F0F0F880460022224B05F06EF8E4
:103F5000064600222D4B04F0F7FF044605F074F9E5
:103F60002D49086084E01548C078000200B22B4952
:103F70000880124880780988084400B227490880E0
:103F80000E484079000200B2254908800B480079AC
:103F90000988084400B2224908800848C07941E0F5
:103FA000DF59375FCC020020E9000020E410002038
:103FB000EA00002079000020EB000020E022002031
:103FC000E8000020C6010020C8010020CA0100202E
:103FD000000048420000E04000409F4000806640F2
:103FE0004AD8124DFB2109401C020020200200206B
:103FF000000048C22402002000003440C00100201C
:10400000C2010020C4010020000080BF0000304039
:10401000100200201402002018020020CC01002011
:10402000CE010020000200B2FC490880FC48007A62
:104030000988084400B2F9490880FA48B0F900003C
:1040400005F063F80446F84904F061FEF74908609A
:10405000F748B0F9000005F058F8F6490860EF4855
:10406000B0F9000005F051F8F349086000E000BF26
:1040700000BF07B0BDE8F08F01B59AB000201990DD
:104080001890179016901A98159000201490159873
:10409000512808D01598522805D01598532802D0D9
:1040A000159854287ED1E548007800287BD11598D2
:1040B000FFF713FE159851281FD0522802D054281C
:1040C00051D135E0DE480068DE49DF4A127841F818
:1040D0002200DE480068DE49DB4A127841F82200FF
:1040E000DC480068DC49D84A127841F82200D648FA
:1040F0000078401CD449087045E0D8480168D84889
:10410000D84A127840F82210D7480068D749D54AD3
:10411000127841F82200D6480068D649D14A127870
:1041200041F82200CF480078401CCE4908702AE0B0
:10413000BE480068D049D14A127841F82200BD48F3
:104140000068CF49CD4A127841F82200BA48006889
:10415000CC49CA4A127841F82200C8480078401C6D
:10416000C64908700FE0B8480078401CB64908708E
:10417000BC480078401CBB490870C0480078401C0F
:10418000BE49087000BF00BFAF48007806280ADDAE
:10419000B44800780628FADDB84800780628F6DD2D
:1041A000002001E02CE2A8E119900DE0A549199842
:1041B00051F8200001461390149804F050FD14901B
:1041C0001998401CC0B219909F49097819988842E3
:1041D000ECDB9D48007804F0A1FF01461390149891
:1041E00004F0CBFDA8490860002014900846006840
:1041F000A6490860002019900DE09549199851F8DA
:10420000200001461390149804F029FD1490199889
:10421000401CC0B219908C49097819988842ECDB8F
:104220008948007804F07AFF01461390149804F04E
:10423000A4FD954908600020149008460068944940
:104240000860002019900DE08349199851F820006A
:1042500001461390149804F002FD14901998401C24
:10426000C0B219907849097819988842ECDB7648F1
:10427000007804F053FF01461390149804F07DFD7C
:104280008149086000201490084600688149086050
:10429000002019900DE07249199851F8200001464C
:1042A0001390149804F0DBFC14901998401CC0B2D1
:1042B00019906C49097819988842ECDB69480078B4
:1042C00004F02CFF01461390149804F056FD6E493B
:1042D000086000201490084600686F4908600020BC
:1042E00019900DE06149199851F82000014613908A
:1042F000149804F0B4FC14901998401CC0B21990A2
:104300005849097819988842ECDB5648007804F03F
:1043100005FF01461390149804F02FFD5A490860D8
:1043200000201490084600685C490860002019903D
:104330000DE05049199851F8200001461390149847
:1043400004F08DFC14901998401CC0B21990454996
:10435000097819988842ECDB4248007804F0DEFEC8
:1043600001461390149804F008FD474908600020A6
:104370001490084600684A490860002019900DE032
:104380003D49199851F8200001461390149804F003
:1043900066FC14901998401CC0B2199037490978EE
:1043A00019988842ECDB3548007804F0B7FE0146E6
:1043B0001390149804F0E1FC334908600020149035
:1043C0000846006837490860002019900DE02C4924
:1043D000199851F8200001461390149804F03FFCFE
:1043E00014901998401CC0B2199024490978199862
:1043F0008842ECDB2148007804F090FE01461390DF
:10440000149804F0BAFC2049086000201490084673
:104410000068254908600020199055E0D00100206F
:10442000E0220020CC010020000080BF28020020F4
:10443000CE0100202C02002030020020A402002027
:104440001C020020EC220020F402002020020020A8
:104450007C240020240200200C26002010020020D2
:104460002C260020F5020020140200204C260020FB
:10447000180200206C2600208C260020F602002066
:10448000AC260020CC260020A0020020A80200209C
:10449000AC020020B0020020B4020020B8020020CC
:1044A000BC020020C0020020C4020020FE4919986E
:1044B00051F8200001461390149804F0D0FB14909A
:1044C0001998401CC0B21990F84909781998884287
:1044D000ECDBF648007804F021FE014613901498B6
:1044E00004F04BFCF2490860002014900846006874
:1044F000F04908600120F0490870EF480078002872
:104500007ED0EE480168006804F001FC1290EC488F
:104510000168006804F0FBFB1090EA48016800683D
:1045200004F0F5FB0F90109904F099FB119012998B
:1045300004F095FB1390FFF72BFB1890E1481899B6
:10454000006804F0E4FBDF490860DD481899006862
:1045500004F0DDFBDA490860D8481899006804F0D7
:10456000D6FBD6490860D3480168006804F0CFFB49
:104570001290D5480168006804F0C9FB1090D34838
:104580000168006804F0C3FB0F90109904F067FB0A
:104590001190129904F063FB1390FFF7F9FA189049
:1045A000CA481899006804F0B2FBC8490860C648B8
:1045B0001899006804F0ABFBC3490860BD4818991E
:1045C000006804F0A4FBBB490860BC48006804F024
:1045D00000FECDE91001BA48006804F0FAFDCDE90B
:1045E0000E01DDE9102306F027FACDE9120104F0EF
:1045F0002BFEB7490860B348006804F0EAFD00E00C
:10460000CFE3CDE9100105F0C7FFCDE9120104F0B9
:104610001BFEB04908600846006804F0DAFDCDE9E9
:10462000080106F0C9FACDE90C01A948006804F0B8
:10463000D0FDCDE9040106F015FBCDE908019D4848
:10464000006804F0C6FDCDE90601DDE9082304F0A9
:104650007BFCCDE90A01DDE90C2304F075FCCDE912
:1046600010019C48006804F0B4FDCDE9040106F097
:10467000F9FACDE908019648006804F0AAFDCDE9F1
:10468000000106F0EFFACDE904018F48006804F05C
:10469000A0FDCDE90201DDE9042304F055FCCDE9DC
:1046A0000601DDE9082304F04FFCCDE90C01884840
:1046B000006804F08EFDCDE9040106F07DFACDE935
:1046C00008018248006804F084FDCDE90601DDE9B7
:1046D000082304F039FCCDE90A01DDE90C2304F0DC
:1046E0008CFBCDE90E01DDE9102304F027FCCDE9B8
:1046F000120104F0A9FD17907648006804F069FDE6
:10470000CDE9080106F0AEFACDE90C016948006870
:1047100004F05FFDCDE90A01DDE90C2304F014FC8F
:10472000CDE910016B48006804F053FDCDE90801A4
:1047300006F042FACDE90C016348006804F049FD37
:10474000CDE90A01DDE90C2304F0FEFBCDE90E0101
:10475000DDE9102304F051FBCDE9120104F074FDF2
:1047600016900021179804F08BFD03D2179880F063
:10477000004017900021169804F082FD03D216988D
:1047800080F00040169000214F48006804F082FD40
:1047900017D200214D48006804F072FD11D2DDE906
:1047A000160104F0EAFA0F9004F013FDCDE91001B0
:1047B00006F030F8CDE9120104F046FD46490860E4
:1047C00064E000214048006804F05AFD1DD2002139
:1047D0003E48006804F054FD17D2DDE9160104F0EC
:1047E000CCFA0D9004F0F5FCCDE90E0106F012F8BC
:1047F00000223A4BCDE9100104F0A6FBCDE91201ED
:1048000004F022FD3449086040E000212E48006891
:1048100004F040FD1DD200212C48006804F03AFD50
:1048200017D2DDE9160104F0A8FA0D9004F0D1FCCE
:10483000CDE90E0105F0EEFF294A2A4BCDE9100122
:1048400004F07FFBCDE9120104F0FEFC2249086070
:104850001CE0DDE9160104F090FA0B9004F0B9FCBD
:10486000CDE90C0105F0D6FF1D4A1E4BCDE90E0126
:1048700004F067FB0022194BCDE9100104F064FB42
:10488000CDE9120104F0E0FC13490860104800680B
:1048900004F09FFC124A134BCDE90E0104F0C6FB55
:1048A0000022114B22E00000CC260020F60200205E
:1048B000A0020020C8020020A4020020BC020020A8
:1048C000B8020020B4020020C4020020C002002070
:1048D0009002002094020020980200200000F0BF07
:1048E0004AD8124DFB21094000806640CDE91001F5
:1048F00004F02AFBCDE9120104F0A6FCFE49086091
:10490000FE48006804F065FCFD4AFE4BCDE90E014F
:1049100004F08CFB0022FC4BCDE9100104F014FBE9
:10492000CDE9120104F090FCF4490860F7480068F2
:1049300004F04FFCF24AF34BCDE90E0104F076FB94
:104940000022F14BCDE9100104F0FEFACDE912018D
:1049500004F07AFCED4908600846006804F039FC70
:104960000022EB4BCDE9060104F0EEFACDE9080197
:1049700006F078F9CDE90C01E048006804F029FC64
:104980000022E34BCDE9020104F0DEFACDE9040197
:1049900006F068F9CDE90801D748006804F019FC71
:1049A0000022DB4BCDE9020104F0CEFACDE904018F
:1049B00006F058F9CDE90601DDE9082304F0C4FA50
:1049C000CDE90A01DDE90C2304F0BEFACDE91001BE
:1049D000CE48006804F0FDFB0022CD4BCDE9060176
:1049E00004F0B2FACDE9080106F0E6F8CDE90C01D1
:1049F000C248006804F0EDFB0022C54BCDE902017E
:104A000004F0A2FACDE9040106F0D6F8CDE90801D8
:104A1000B948006804F0DDFB0022BD4BCDE902017E
:104A200004F092FACDE9040106F0C6F8CDE90601DA
:104A3000DDE9082304F088FACDE90A01DDE90C2359
:104A400004F082FACDE90E01DDE9102304F0D5F976
:104A5000CDE9120104F0F8FBAE490860AB480068EC
:104A600004F0B7FB0022AA4BCDE9060104F06CFA72
:104A7000CDE9080106F0F6F8CDE90C019F48006881
:104A800004F0A7FB0022A24BCDE9020104F05CFA7E
:104A9000CDE9040106F0E6F8CDE908019648006882
:104AA00004F097FB00229A4BCDE9020104F04CFA86
:104AB000CDE9040106F080F8CDE90601DDE908231F
:104AC00004F042FACDE90A01DDE90C2304F03CFAD6
:104AD000CDE910018D48006804F07BFB00228C4B6F
:104AE000CDE9060104F030FACDE9080106F064F8DA
:104AF000CDE90C018148006804F06BFB0022844B77
:104B0000CDE9020104F020FACDE9040106F054F8E1
:104B1000CDE908017848006804F05BFB00227C4B7B
:104B2000CDE9020104F010FACDE9040106F09AF88B
:104B3000CDE90601DDE9082304F006FACDE90A0112
:104B4000DDE90C2304F000FACDE90E01DDE91023C4
:104B500004F0F4F9CDE9120104F076FB6E49086027
:104B60006A48006804F035FB0022694BCDE9060174
:104B700004F0EAF9CDE9080106F074F8CDE90C017A
:104B80005E48006804F025FB0022614BCDE902017C
:104B900004F0DAF9CDE9040106F00EF8CDE90801D8
:104BA0005548006804F015FB0022594BCDE902017D
:104BB00004F0CAF9CDE9040106F054F8CDE9060184
:104BC000DDE9082304F0C0F9CDE90A01DDE90C2391
:104BD00004F0BAF9CDE910014C48006804F0F9FA84
:104BE00000224B4BCDE9060104F0AEF9CDE90801F6
:104BF00005F0E2FFCDE90C014048006804F0E9FA55
:104C00000022434BCDE9020104F09EF9CDE90401F5
:104C100006F028F8CDE908013748006804F0D9FA11
:104C200000223B4BCDE9020104F08EF9CDE90401ED
:104C300005F0C2FFCDE90601DDE9082304F084F99F
:104C4000CDE90A01DDE90C2304F07EF9CDE90E017E
:104C5000DDE9102304F0D1F8CDE9120104F0F4FAF3
:104C60002E4908602948006804F0B3FA0022284B56
:104C7000CDE9060104F068F9CDE9080105F09CFFD3
:104C8000CDE90C011D48006804F0A3FA0022204B76
:104C9000CDE9020104F058F9CDE9040105F0E2FF85
:104CA000CDE908011448006804F093FA0022184B7B
:104CB000CDE9020104F048F9CDE9040105F0D2FF85
:104CC000CDE90601DDE9082304F03EF9CDE90A014A
:104CD000DDE90C2304F038F9CDE910010B48006838
:104CE00004F077FA00220A4BCDE9060104F02CF912
:104CF000CDE9080114E00000900200209402002099
:104D00004AD8124DFB2109400080664098020020DD
:104D10000000E03F480200204C020020500200202A
:104D200005F0A0FFCDE90C01FE48006804F051FA3F
:104D30000022FD4BCDE9020104F006F9CDE90401A2
:104D400005F03AFFCDE90801F848006804F041FA9F
:104D50000022F54BCDE9020104F0F6F8CDE904019B
:104D600005F02AFFCDE90601DDE9082304F0ECF89F
:104D7000CDE90A01DDE90C2304F0E6F8CDE90E01E6
:104D8000DDE9102304F0DAF8CDE9120104F05CFA51
:104D9000E74908600020E7490870E7490870E749DB
:104DA00008701BB000BD01B598B000201790169098
:104DB0001590189814900020139012901190109054
:104DC0000F900E900D900C900B900A90FBF7FBFE4D
:104DD000099004F0A3F9DA4908601498512808D022
:104DE0001498522805D01498532802D014985428A7
:104DF00070D11498FEF771FFD2480068D249D34AA7
:104E0000127841F82200D2480068D249CF4A12787D
:104E100041F82200D0480068D049CC4A127841F8C5
:104E20002200CF480168CF48C84A127840F82210C3
:104E3000CD480068CD49C54A127841F82200CC48D7
:104E40000068CC49C14A127841F82200CA4800687B
:104E5000CA49BE4A127841F82200C9480068C949C7
:104E6000BA4A127841F82200C7480068C749B74AD1
:104E7000127841F82200B5480078401CB349087008
:104E800008460078062801DD0020087000201790F1
:104E90000DE0AD49179851F820000146099015988A
:104EA00003F0DDFE15901798401CC0B217901798BC
:104EB0000628EEDBB649159803F05FFF0990B54868
:104EC0000168099803F01DFFB349086000201590A0
:104ED00017900EE0E4E09F49179851F82000014632
:104EE0000990159803F0BBFE15901798401CC0B2AE
:104EF000179017980628EEDBA549159803F03DFF9B
:104F00000990A6480168099803F0FBFEA4490860CF
:104F10000020159017900DE09049179851F8200047
:104F200001460990159803F09AFE15901798401CB9
:104F3000C0B2179017980628EEDB9549159803F034
:104F40001CFF099097480168099803F0DAFE96491A
:104F500008600020159017900DE08249179851F8CD
:104F6000200001460990159803F079FE15901798D6
:104F7000401CC0B2179017980628EEDB844915989C
:104F800003F0FBFE894908600020159017900DE0A2
:104F90007649179851F8200001460990159803F0BA
:104FA0005EFE15901798401CC0B2179017980628FF
:104FB000EEDB7749159803F0E0FE7D49086000209C
:104FC000159017900DE06B49179851F82000014695
:104FD0000990159803F043FE15901798401CC0B235
:104FE000179017980628EEDB6949159803F0C5FE5F
:104FF000704908600020159017900DE05F491798E0
:1050000051F8200001460990159803F028FE1590EC
:105010001798401CC0B2179017980628EEDB5C4921
:10502000159803F0AAFE64490860002015901790B7
:105030000DE05449179851F8200001460990159841
:1050400003F00DFE15901798401CC0B217901798EA
:105050000628EEDB4E49159803F08FFE574908608D
:105060000020159017900DE04849179851F820003E
:1050700001460990159803F0F2FD15901798401C11
:10508000C0B2179017980628EEDB4149159803F037
:1050900074FE4B49086000201590012049490870B2
:1050A0004848007800283BD042480168006803F077
:1050B0002EFE08903E480168006803F028FE069026
:1050C0003A480168006803F022FE0590069903F053
:1050D000C6FD0790089903F0C2FD0990FEF758FD40
:1050E000169032481699006803F011FE2F490860A7
:1050F0002F481699006803F00AFE2D4908602D48D4
:105100001699006803F003FE2A4908602C480168DC
:10511000006803F0FCFD089028480168006853E02F
:10512000FDE30000940200200000E03F9002002018
:1051300054020020F4020020F5020020F6020020B4
:10514000E80200201C020020EC2200209C0200202B
:10515000200200207C240020240200200C260020B5
:10516000100200202C260020140200204C260020D3
:10517000180200206C260020280200208C26002027
:105180002C020020AC26002030020020CC2600207B
:105190000000C040A8020020E0010020AC02002076
:1051A000E4010020B0020020E8010020D40100202A
:1051B000D8010020DC010020EC010020F0010020DB
:1051C000F4010020A502002003F0A1FD0690FE4896
:1051D0000168006803F09BFD0590069903F03FFD10
:1051E0000790089903F03BFD0990FEF7D1FC16905B
:1051F000F5481699006803F08AFDF3490860F34802
:105200001699006803F083FDF0490860F04816998C
:10521000006803F07CFDEE490860EE480168006814
:1052200003F075FD1390EC480168EA48006803F04C
:105230006EFD1290E9480168E648006803F067FDDA
:105240001190E7480168E348006803F060FD1090A2
:10525000E1480168006803F05AFD0F90DF480168DB
:10526000DD48006803F053FD0E90DD480168DA4820
:10527000006803F04CFD0D90D8480168006803F009
:1052800046FD0C90D6480168D448006803F03FFD05
:105290000B90D3480168006803F039FD0A9011991A
:1052A0000D9803F0DCFC0690C9480168069803F0ED
:1052B0002EFD089010990E9803F023FD0490C3482A
:1052C0000168049803F023FD06904FF07C500C9980
:1052D00003F017FD03900A9903F013FD0490BA48F8
:1052E0000168049803F013FD0590069903F0B7FCDC
:1052F0000790089903F0B3FC4FF08041099003F048
:1053000006FDB849086012990B9803F0FAFC069064
:10531000AF480168069803F0FAFC08904FF07C5003
:105320000F9903F0EEFC03900A9903F0EAFC049055
:10533000A6480168049803F0EAFC069010990E98BC
:1053400003F08DFC0490A0480168049803F0DFFC92
:105350000590069903F083FC0790089903F07FFC01
:105360004FF08041099003F0D2FC9F490860084645
:105370000168006803F0CBFC04909A48016800685B
:1053800003F0C5FC0390049903F069FC059003F059
:1053900020FFCDE9060105F0BDFCCDE9080103F0D1
:1053A00053FF924908604FF07C500F9903F0A9FC1D
:1053B00005900C9903F0A5FC0690854801680698B5
:1053C00003F0A5FC089012990B9803F048FC049098
:1053D0007E480168049803F09AFC069011990D9894
:1053E00003F08FFC049078480168049803F08FFC68
:1053F0000590069903F033FC0790089903F02FFC01
:105400004FF08041099003F082FC794908601199BE
:105410000D9803F076FC039003F0DBFE00224FF0C2
:105420008043CDE9040103F08FFD0022714BCDE9EB
:10543000060103F089FDCDE9080103F005FF6E497F
:1054400008600B99129803F00AFC059003F0C1FE66
:1054500000224FF08043CDE9060103F075FDCDE950
:10546000080103F0F1FE654908604FF07C500F9988
:1054700003F047FC04900C9903F043FC059003F003
:10548000A8FE00224FF08043CDE9060103F05CFD49
:10549000CDE9080103F0D8FE5949086011990D982B
:1054A00003F02FFC029052480168029803F02FFC91
:1054B00004904FF07C500C9903F023FC01900A9962
:1054C00003F01FFC029049480168029803F01FFC9A
:1054D0000390049903F0C3FB059003F07AFE0022C9
:1054E0004FF04043CDE9060103F02EFDCDE9080160
:1054F00003F0AAFE434908600B99129803F0AFFB32
:1055000002903B480168029803F001FC0490109956
:105510000E9803F0F6FB029034480168029803F0FD
:10552000F6FB0390049903F09AFB059003F051FEFB
:1055300000224FF08043CDE9060103F005FDCDE9DF
:10554000080103F081FE304908604FF07C500F994C
:1055500003F0D7FB01900C9903F0D3FB0290244891
:105560000168029803F0D3FB04900D99119803F0A1
:1055700076FB02901D480168029803F0C8FB039077
:10558000049903F06CFB059003F023FE00224FF01A
:105590008043CDE9060103F0D7FCCDE9080103F013
:1055A00053FE1A490860184801680948006803F06A
:1055B000AEFB0790154801680448006803F0A7FB9C
:1055C0000690079924E00000EC010020F001002083
:1055D000F4010020480200204C020020500200206C
:1055E000540200203C02002040020020340200202F
:1055F000380200200000F0BF60020020640200209A
:10560000680200206C02002070020020740200205A
:1056100003F077FB0990FE480168FE48006803F03C
:1056200076FB0790FC480168FC48006803F06FFBBC
:105630000690079903F065FB0890099903F00FFBAA
:10564000F7490860F7480168F748006803F05FFB16
:105650000790F6480168F648006803F058FB06908A
:10566000079903F04EFB0990EB480168F148006888
:1056700003F04DFB0790F0480168E648006803F02E
:1056800046FB0690079903F03CFB0890099903F04C
:10569000E6FAEA490860E5480168E948006803F06D
:1056A00036FB0690E7480168DF48006803F02FFBEF
:1056B0000590069903F025FB0890DF480168D7485C
:1056C000006803F024FB0690D1480168D9480068BF
:1056D00003F01DFB0590069903F013FB0790089952
:1056E00003F0BDFAD849099003F011FBD7490860CF
:1056F000CB48006803F06DFD21F00041D44AD54B42
:10570000CDE9080103F078FD02D20020C449086009
:10571000CA48006803F05DFD21F00041CC4ACD4B42
:10572000CDE9080103F068FD02D20020C3490860FA
:10573000C648006803F04DFD21F00041C44AC54B46
:10574000CDE9080103F058FD02D20020BF490860EE
:105750000021B348006803F093FD54D00021B748FE
:10576000006803F08DFD4ED00021B848006803F0BA
:1057700087FD48D00021B848006803F08BFD42D275
:10578000A7480168B448006803F0C1FA0990B3481B
:105790000168099803F063FAB0490860A7480168F6
:1057A000AD48006803F0B3FA0990AD480168099864
:1057B00003F055FAAA490860A4480168A6480068A1
:1057C00003F0A5FA0990A7480168099803F047FA81
:1057D000A4490860A1480168A348006803F03FFAA3
:1057E000A14908609E480168A048006803F037FAA4
:1057F0009E4908609B4801689D48006803F02FFAA5
:105800009B49086006E000209449086094490860BC
:1058100094490860824801689648006803F077FA66
:10582000099091480168099803F019FA8E490860B7
:10583000824801688F48006803F069FA09908B4834
:105840000168099803F00BFA884908607F480168ED
:105850008848006803F05BFA099085480168099858
:1058600003F0FDF9824908607F48006882490860BA
:105870007E480068814908607D480068804908606A
:10588000FBF7A1F9099003F049FC7E4908607E48C6
:1058900001687C48006803F0FDFC15D27A48016875
:1058A0007848006803F02DFA059003F092FC774ADF
:1058B000774BCDE9060103F047FBCDE9080103F082
:1058C000C3FC744908601AE06E4801684FF09E40BE
:1058D00003F0C5F904906C480168049803F011FACC
:1058E000059003F076FC694A694BCDE9060103F0A7
:1058F0002BFBCDE9080103F0A7FC6649086060486E
:1059000001686548006803F002FA4F49049003F00B
:10591000FEF90690594801686048006800E060E1BF
:1059200003F0F5F94849029003F0F1F904905C485E
:10593000006880F0004002904F480168029803F030
:10594000E6F90390049903F0DCF90590069903F059
:10595000D8F907904F480168079803F0D8F94FF03D
:105960008041089003F009FA09904E4801680998AF
:1059700003F075F94B4908604048016846480068E3
:1059800003F0C5F93049049003F0C1F906903C4892
:1059900001684248006803F0BAF92B49029003F00D
:1059A000B6F90490344801683E48006803F0AFF946
:1059B0000390049903F053F90590069903F0A1F9B7
:1059C000079034480168079803F0A1F94FF080412F
:1059D000089003F0D2F9099031480168099803F062
:1059E0003EF92F490860244801682B48006803F0FD
:1059F0008EF90690224801682948006803F087F96B
:105A00001149029003F083F904901C4801684BE0AF
:105A100064020020DC01002068020020D801002080
:105A2000D002002074020020EC0100206C02002053
:105A3000F4010020D401002060020020D4020020E4
:105A4000F001002070020020000080BFD80200207A
:105A50001839359D46DF813F5C020020DC020020C2
:105A6000E0020020E4020020E0010020E401002028
:105A7000E801002058020020040200200802002053
:105A80000C020020EC020020E80200208DEDB5A001
:105A9000F7C6B03EF0020020540200205002002061
:105AA0004C02002048020020D048006803F02FF983
:105AB000CF49029003F02BF90390049903F021F9E8
:105AC0000590069903F0CBF80790CA48016807983B
:105AD00003F01DF94FF08041089003F04EF9099052
