:020000040800F2
:1000000090280020450100089D0200089F0200087A
:10001000A3020008A7020008AB02000800000000CD
:10002000000000000000000000000000AF02000817
:10003000B102000800000000B3020008B502000889
:100040005F0100085F0100085F0100085F01000810
:100050005F0100085F0100085F0100085F01000800
:100060005F0100085F0100085F0100085F010008F0
:100070005F0100085F010008A90900085F0100088E
:100080005F0100085F0100085F010008EF0D000834
:100090000B0E00085F0100085F0100085F01000807
:1000A0005F0100085F0100085F0100085F010008B0
:1000B000D70B00085F0100085F0100085F0100081E
:1000C0005F0100085F0100085F0100085F01000890
:1000D0005F010008D9080008C32700087339000829
:1000E0005F0100085F0100085F0100085F01000870
:1000F0005F0100085F0100085F0100085F01000860
:100100005F0100085F0100085F0100085F0100084F
:10011000F11300085F0100085F0100085F0100089B
:100120005F0100085F0100085F0100085F0100082F
:10013000DFF80CD009F05CFD0048004769010008B9
:10014000902800200648804706480047FEE7FEE763
:10015000FEE7FEE7FEE7FEE7FEE7FEE7FEE7FEE777
:1001600085910008310100081CB53FA103C9CDE904
:10017000000109F007F84FF4E13000F00FF94FF4F7
:10018000E13001F047FE4FF4164002F0A7FE4FF4B5
:10019000E13001F057F900F0BDFE01F013FE00F070
:1001A000B3FC00F02FFC01F055FC02F0A9FD02F0B9
:1001B00031FB03F0CBFC4FF47A7000F00BFC00F045
:1001C00000FD2B49086033E02A4800782A49097865
:1001D00088421CD003F08CFD28490870084600783E
:1001E00051280BD008460078522807D008460078DE
:1001F000532803D008460078542808D11F480078B7
:1002000003F0C8FF1E480078401C1D49087000F02C
:10021000D8FC1C4908600968154A1268881A09F058
:10022000C1FA1949086019491748006809F058FBD4
:10023000134800781528C7DB02F0C0FC1422062101
:10024000134802F0CCFC32220121124802F0C7FC14
:1002500014220A21104802F0C2FC02F0BCFC01E0AA
:1002600002F0E9FCFCE700001122334455667700F8
:1002700008000020E9000020E80000201000002015
:10028000000000200C00002004000020001B374A62
:10029000932E00086164000837260008704700BFED
:1002A000FEE700BFFEE700BFFEE700BFFEE77047C6
:1002B0007047704710B502F0E7FC10BD0246002001
:1002C00003E000231354431C98B28842F9DB7047C3
:1002D0002DE9F04F07460D461646994607EB0508EF
:1002E000BA460024A34601E0601C84B22A4850F8B4
:1002F000340008B1082CF7DD082C05DBFF2089F855
:1003000000000020BDE8F08F234840F8347000EB77
:10031000C4000571204800EBC40046711E4800EB84
:10032000C4008671A34605FB06F13846FFF7C6FFF9
:10033000002405E0CAF80080C246A844601C84B2CC
:10034000701EA042F6DC144800EBCB00DAE710B5D3
:1003500002461368907918B9FF200870002010BD7C
:100360009079401E9071907908B1186810601C4611
:10037000241D002008702046F1E7024609B9FF203D
:100380007047091F0B461068186013609079401C75
:1003900090710020F4E700006003002038B50446A7
:1003A0000020FE490870FE490870FE490870FE49A9
:1003B00008701420FD490870204600F03AFA6B4698
:1003C00020221146FA48FFF783FFFA49086038BD3A
:1003D00010B5F6480078142800D110BD002240F274
:1003E0002661F54808F037FDF448EF49097810F820
:1003F000310010B3EC480078EA49097888421CD0F3
:10040000EE48E949097810F83100401EEB49E64A08
:10041000127801F832000846E34A127800EBC20075
:100420004068E74A1278815CE34808F075FDE448CB
:100430000078401CE24908705CE0DB480078D9494C
:10044000097888424DD0DD48D74A127800EBC200C7
:100450004168D8480068FFF790FFD3480078401CF7
:10046000C0B2D1490870142801DB00200870CF48C1
:100470000078401CC0B2CD490870142801DB14205C
:1004800008700020CE490870C7480078C54909782F
:1004900088421CD0C948C449097810F83100401E70
:1004A000C1B2C648C04A127800F83210BE4A12786B
:1004B00000EBC2004068C24A1278815CBE4808F076
:1004C0002BFDBF480078401CBD49087012E0002099
:1004D000BC4908701420B54908700020B84908705C
:1004E00008E00020B74908701420B04908700020C7
:1004F000B3490870012240F22661AF4808F0ABFC16
:1005000000BF6AE710B5AC4808F00AFDC1B2A348C5
:1005100002780078401CA14B1870AB4881541846F3
:1005200000789F490978884204D19D480078401C92
:100530009B49087010BDF8B505460C4626460CB917
:100540000120F8BD002240F226619B4808F083FCA0
:100550001C2094FBF0F100FB114028B11C2094FBFF
:10056000F0F0401CC4B203E01C2094FBF0F0C4B2D5
:100570008E480078A04207DA012240F226618E48B8
:1005800008F069FCFF20DCE769468A480068FFF74D
:10059000DEFE8A49834A127801EBC2014860814835
:1005A0000078142802DB00207E49087000242FE028
:1005B000287882497B4A127801EBC20149680855C4
:1005C000601CC4B21C2C20DB1C217C48754A1278AC
:1005D00000F8321073480078401CC0B271490870AE
:1005E000142801DB00200870694672480068FFF794
:1005F000AEFE72496B4A127801EBC20148606B484B
:100600000078401E6949087000246D1C701EC6B237
:10061000002ECDD19CB169486249097800F831407B
:1006200062480078401E614908705E480078401CAE
:10063000C0B25C490870142801DB002008706148D2
:10064000007820B9FFF7C4FE01205E49087001223E
:1006500040F22661584808F0FEFB002071E770B5B3
:100660000546002400E0641C285D0028FBD1E1B2AF
:100670002846FFF760FF70BD10B54B480078494928
:100680000978884234D04D48474A127800EBC200BE
:10069000416848480068FFF770FE43480078401CF6
:1006A000C0B241490870142801DB002008703F489F
:1006B0000078401CC0B23D490870142801DB1420AA
:1006C0000870394800783749097888420CD03B4A8D
:1006D000354B1B7812F83310334B1B7802EBC302F7
:1006E000506800F01CF924E000203649087020E032
:1006F00032482D4A127800EBC20041682D4800684C
:10070000FFF73BFE28480078401CC0B2264908701D
:10071000142801DB0020087024480078401CC0B277
:1007200022490870142801DB142008700020254994
:10073000087010BD10B55CE0244A1278002A53D12D
:100740000020174A1278921ED1B21F4A525C552AD5
:1007500001D1421CD0B2124A1278521ED1B21A4AAA
:10076000525CAA2A01D1421CD0B20D4A1278184B11
:100770001B68022404FB0322D1B2134A525CFF2AF5
:1007800001D1421CD0B203282ED101220F4B1A7086
:10079000034A12780F4B1A70014A1DE02500002011
:1007A000260000202200002023000020240000203A
:1007B0005C0500202C00002000380140BC03002014
:1007C00021000020140000205C04002020000020F4
:1007D0001C000020270000201278094B1B6802240F
:1007E00004FB0322074B1A70074A1278521C064B6F
:1007F0001A70054A1278054B1B789A429CD110BD9D
:100800001C000020280000202600002025000020D9
:1008100008B525208DF8000000208DF80100032088
:100820008DF8020001208DF80300684605F047FEB0
:1008300008BD10B586B00446012144F2050007F05A
:10084000B9FA01A807F089F84FF40070ADF8040078
:1008500003208DF8060018208DF8070001A95948DB
:1008600006F0F2FF01A807F078F84FF48060ADF8C9
:10087000040004208DF8070001A9524806F0E4FFA7
:10088000514808F00DFA02A808F0B6FA02940020C8
:10089000ADF80C00ADF80E00ADF810000C20ADF86E
:1008A00012000020ADF8140002A9474808F03BFAF6
:1008B000012240F22661444808F0CDFAFFF7A8FF74
:1008C000012240F22551404808F0C5FA01213E4876
:1008D00008F0B5FA06B010BD10B520213A4808F06E
:1008E00089FB012808D12021374808F090FB3748C0
:1008F000007808B1FFF706FE4021334808F07AFB84
:10090000012808D14021304808F081FB2F480078A9
:1009100008B1FFF75DFD01202C49087010BD30B50E
:100920008DB005460C460121084607F036FA2848E6
:1009300006F024FB2448001D02900395102004902B
:1009400005940020069080200790002008900990D0
:100950000A904FF440500B9000200C9002A91C48C4
:1009600006F0AEFB01220221194806F0E0FB0E2042
:100970008DF8040000208DF805008DF80600012098
:100980008DF8070001A805F09AFD0121104806F036
:10099000C2FB012280210C4808F082FA01210A489A
:1009A00008F04DFA0DB030BD10B54FF4005006F010
:1009B000EBFB012804D1400306F0DBFBFFF75CFEF4
:1009C00010BD000000080140003801403000002048
:1009D00044000240002107E0002200E0521C43F2E4
:1009E00078739A42FADB491C8142F5D370470021A3
:1009F00005E0002200E0521C0E2AFCDB491C81426B
:100A0000F7D3704730B57F4800684FF47A72B0FB77
:100A1000F2F1B1F1807F01D301201DE021F07F4090
:100A2000401E4FF0E022506150170F22002807DAD5
:100A300013071D0E744B00F00F04241F1D5503E017
:100A400013071C0E714B1C5400BF00204FF0E02216
:100A5000906107201061002008B100BFFEE74FF051
:100A6000E020006920F001004FF0E021086130BD76
:100A70004FF0E020006940F001004FF0E0210861F4
:100A8000704708B54FF4E06005F014FD1C208DF8A8
:100A9000000000208DF8010005208DF802000120E3
:100AA0008DF80300684605F00AFD08BD0EB501216A
:100AB000084607F08CF9FFF7E4FF4FF0804007F09D
:100AC000E1F941F28830ADF804004720ADF80000AC
:100AD0000020ADF80600ADF8020069464FF08040F6
:100AE00007F0A4FA0121880708F0C2F80122114694
:100AF000900707F012FE0121880707F0F3FD00219F
:100B0000012007F064F90EBD0EB50121062007F0A3
:100B10005EF9684607F0B6FD4FF6FF70ADF80400C9
:100B20000020ADF80000ADF80600ADF802006946FF
:100B3000374807F07BFA00221146354807F079FE66
:100B40000121334808F01AF83021314807F004FE3B
:100B500007212F4808F048F880212D4808F04DF86B
:100B600001212B4807F0BEFE4FF6FF70ADF80400E0
:100B70004720ADF800000020ADF80600ADF80200F7
:100B80006946244807F052FA0121224807F0AAFEDC
:100B90000421204808F028F801211E4807F0FAFF38
:100BA00020211C4808F017F880211A4808F025F881
:100BB0000121184807F096FD0121154807F092FD24
:100BC0000EBD002012492431088800041149243147
:100BD00009880844704710B50121880708F04BF8D0
:100BE00040B10121880708F057F80B480068401C05
:100BF00009490860084800680A2802D3002006490D
:100C0000086010BD4803002018ED00E000E400E09B
:100C100000040040000800403400002000B589B006
:100C200014208DF8000000208DF8010001208DF8BF
:100C300002008DF80300684605F041FC13208DF892
:100C4000000000208DF8010002208DF80200012034
:100C50008DF80300684605F032FCAA4805F098FCC0
:100C60000121480607F0B3F80121082007F0A2F897
:100C70000121084607F09EF84FF48070ADF814008B
:100C800003208DF8160048208DF8170005A99E480E
:100C900006F0DAFD4FF40070ADF8140003208DF873
:100CA000160018208DF8170005A9974806F0CCFD0E
:100CB00001214FF4EA1006F096FE06A805F08CFD1F
:100CC00000208DF81E008DF81F008DF820000120F7
:100CD0008DF8210000208DF822008DF823008DF87A
:100CE0001A008DF81B0001208DF81C0002208DF8E1
:100CF0001D000C20ADF8180006A9824805F061FC23
:100D000000208DF80E008DF80F0001208DF81000E6
:100D10000020ADF80400ADF80600ADF80800ADF80D
:100D20000A00ADF80C0001208DF8110001A805F0B3
:100D3000D2FC0221734806F0CEF80121714806F07A
:100D4000CAF8012203216F4805F0C4FF09B000BDB5
:100D50007FB586B0DDE90E560798029004208DF825
:100D60000C009DF820008DF80D008DF80E50002429
:100D700007E009983044015D0DF10F000155601C3A
:100D8000C4B2AC42F5DB01A95E4805F093FD0AB0A0
:100D900070BD30B585B00446A07B28B920680090AE
:100DA00000208DF8080001E02068019004208DF8F3
:100DB0000800E07B18B900208DF8090002E002204D
:100DC0008DF80900207B8DF80A00002506E0201D23
:100DD000415D0DF10B004155681CC5B2207BA84256
:100DE000F5DC6946474805F065FD05B030BD10B536
:100DF0000121444805F0D5FF012805D101214148D2
:100E000006F069F800F097F810BD10B586B001AA99
:100E100000213C4805F043FE9DF80D0000286AD1F2
:100E2000029880B20B2806D0A0F58060093803D064
:100E300003285ED12EE05DE00298C0F30740012850
:100E400006D002280CD0032812D0042820D117E0A5
:100E5000DDF80F10DDF813002C4AC2E9001017E08E
:100E6000DDF80F10DDF81300284AC2E904100FE086
:100E7000DDF80F10DDF81300244AC2E9021007E084
:100E8000DDF80F10DDF81300204AC2E9061000BF9C
:100E900000BF2FE00298C0F30740012806D00228C7
:100EA0000CD0032812D0042820D117E0DDF80F4021
:100EB000204608F06EFC1649086018E0DDF80F4087
:100EC000604208F066FC1249486010E0DDF80F400F
:100ED000204608F05EFC0E49886008E0DDF80F400F
:100EE000604208F056FC0A49C86000E000BF00BF3D
:100EF00000E000BF00BF0021024805F048FE06B038
:100F000010BD000000640040000C0140502400208F
:100F10007024002008B50020F9490870F9490870CC
:100F2000FFF77CFE6B4620221146F748FFF7D0F909
:100F3000F649086008BD1CB5F548006820280DD1A9
:100F40000020F4490870F448F44A127800EB0210CB
:100F5000C168EE480068FFF710FA1CBD00220121AD
:100F6000EF4805F0B7FEEC48EC49097800EB0110BA
:100F70000078002849D0E9480078EA490978884291
:100F800043D0E548E549097800EB011000780828CE
:100F900020DBE148E149097800EB011000780838CE
:100FA000DD49DE4A127801EB02110870DE48006864
:100FB0000821CDE90010D848D849097800EB011480
:100FC00094E80F00FFF7C4FED74800680830D64900
:100FD000086097E0D4480168CF48D04A127800EB07
:100FE00002100078CDE90001CB48CC49097800EB2C
:100FF000011494E80F00FFF7ABFE0020C649C74A72
:10100000127801EB021108707CE0C4480078C549F1
:10101000097888426DD0C048C04A127800EB0210AF
:10102000C168BA480068FFF7A8F9BC480078401CBE
:10103000C0B2BA490870202801DB00200870B4480B
:101040000068401CB2490860202801D320200860B5
:101050000020B5490860B1480078B2490978884253
:101060003DD0AD48AD49097800EB01100078082863
:1010700021DBA948A949097800EB0110007808385C
:10108000C1B2A548A54A127800EB02100170A6482B
:1010900000680821CDE900109F48A049097800EBBD
:1010A000011494E80F00FFF753FE9F4800680830D2
:1010B0009D49086026E09C4801689748974A127845
:1010C00000EB02100078CDE90001934893490978BC
:1010D00000EB011494E80F00FFF73AFE12E0002045
:1010E0008C49087020208A49086000208E490860D9
:1010F00008E000208749087020208549086000200A
:101100008949086001221146854805F0E3FD00BFCA
:1011100023E72DE9F84305460C4616461F46A04630
:1011200014B90120BDE8F883002201217C4805F0B4
:10113000D1FD1C2094FBF0F100FB114028B11C20D4
:1011400094FBF0F0401CC4B203E01C2094FBF0F0D0
:10115000C4B26F480068A04206D20122114670480E
:1011600005F0B8FD0120DDE7694668480068FFF733
:10117000EEF869496B4A127801EB0211C8606948C0
:101180000078202802DB00206649087000243EE039
:1011900029786148634A127800EB0210C068015553
:1011A000601CC4B21C2C2DDB5B485E49097800EB47
:1011B000011046601C2058495A4A127801EB02116E
:1011C000087055485749097800EB011007725548D7
:1011D0000078401CC0B253490870202801DB002071
:1011E0000870694649480068FFF7B1F84A494D4A16
:1011F000127801EB0211C86045480068401E44495E
:10120000086000246D1CA8F1010000F0FF08B8F18F
:10121000000FBDD104B340484249097800EB0110EA
:1012200046603D483F49097800EB011004703A4898
:101230003C49097800EB0110077235480068401EF0
:101240003349086037480078401CC0B235490870FF
:10125000202801DB002008702E48007820B90120EA
:101260002C490870FFF767FE012211462C4805F053
:1012700031FD002056E7002000212C4A116000BFFC
:1012800003E000212A4A1154401CFF28F9DD704771
:1012900010B50246002000BF03E00023244C235475
:1012A000401CFF28F9DD10BD0FB430B500209DF8BB
:1012B000161000BF17E00DF11702135C104A1478E6
:1012C0001278521C0E4D2A70194A13552A4612786C
:1012D0000C4B1B789A4204D10A4A1278521C094BD3
:1012E0001A70421CD0B28842E5DB30BC5DF814FBBA
:1012F000024622B10F4802600F48017023E01DE052
:1013000054000020550000207C0C002058000020D4
:101310003C000020410000207C0900203900002012
:1013200000640040380000205000002044000020ED
:101330007C0B0020480000204C000020B2F5807F8C
:1013400001D9FF2070470020FCE7000010B586B0EF
:10135000044634208DF8000000208DF801000420A0
:101360008DF8020001208DF80300684605F0A7F80B
:101370000121102006F01EFD0121C80406F027FD02
:101380002D48406820F480602B494860084640683A
:1013900060F480604860C814ADF8140004208DF833
:1013A000170005A9244806F04FFA01940020ADF873
:1013B0000800ADF80A00ADF80C00ADF810000C20E4
:1013C000ADF80E0001A91D4807F0ADFC012240F266
:1013D00025511A4807F03FFD012240F226611748C7
:1013E00007F039FD0121154807F029FD06B010BDB1
:1013F00010B52021114807F0FDFD012808D120215A
:101400000E4807F004FE0E48007808B100F0CEF850
:1014100040210A4807F0EEFD012808D14021074885
:1014200007F0F5FD0648007808B100F025F8012026
:101430000349087010BD000000100140004C00403E
:101440005C00002038B504460020FE490870FE49C3
:101450000870FE490870FE4908701420FD490860B4
:101460002046FFF773FF6B4620221146FA48FEF72D
:101470002FFFFA49086038BD10B5F64800681428F7
:1014800000D110BD002240F22661F54807F0E3FCD0
:10149000F448EF49097810F8310018B3EC480078A7
:1014A000EA49097888421DD0EE48E949097810F8E0
:1014B0003100401EEB49E64A127801F83200084636
:1014C000E349097800EBC1004068E749097844180E
:1014D0002178E34807F020FDE3480078401CE2490A
:1014E00008705BE0DA480078D849097888424CD027
:1014F000DC48D74A127800EBC2004168D748006840
:10150000FEF73BFFD2480078401CC0B2D0490870BB
:10151000142801DB00200870CE480068401CCD492B
:101520000860142801D3142008600020CE490870F8
:10153000C7480078C549097888421CD0C948C449C1
:10154000097810F83100401EC649C14A127801F8E6
:1015500032000846BE4A127800EBC2004068C24A18
:101560001278815CBE4807F0D7FCBF480078401C69
:10157000BD49087012E00020BC4908701420B5492C
:1015800008600020B849087008E00020B7490870DA
:101590001420B04908600020B3490870012240F2CD
:1015A0002661AF4807F057FC00BF6AE710B5AC48AA
:1015B00007F0B6FCC1B2A34802780078401CA14BEA
:1015C0001870AB488154184600789F4909788842C2
:1015D00004D19D480078401C9B49087010BDF8B5A7
:1015E00005460C4626460CB90120F8BD002240F203
:1015F00026619B4807F02FFC1C2094FBF0F100FBB8
:10160000114028B11C2094FBF0F0401CC4B203E050
:101610001C2094FBF0F0C4B28E480068A04207D2B0
:10162000012240F226618E4807F015FCFF20DCE71E
:1016300069468A480068FEF78AFE8A49834A12781A
:1016400001EBC201486081480078142802DB0020C9
:101650007E49087000242FE0287882497B4A12785E
:1016600001EBC20149680855601CC4B21C2C20DB88
:101670001C217C48754A127800F8321073480078B3
:10168000401CC0B271490870142801DB00200870AA
:10169000694672480068FEF75AFE72496B4A127832
:1016A00001EBC20148606B480068401E6949086050
:1016B00000246D1C701EC6B2002ECDD19CB16948AD
:1016C0006249097800F8314062480068401E61496B
:1016D00008605E480078401CC0B25C49087014285D
:1016E00001DB002008706148007820B9FFF7C4FED4
:1016F00001205E490870012240F22661584807F037
:10170000AAFB002071E770B50546002400E0641CC8
:10171000285D0028FBD1E1B22846FFF760FF70BDCD
:101720007EB50020F5E0534C2478002C4AD10022ED
:10173000454C2478641EE1B24D4C645C022C01D10E
:10174000541CE2B2404C24784B4D2D68022606FB17
:101750000544E1B2464C645C0D2C01D1541CE2B24C
:10176000394C2478444D2D68022606FB0544641C40
:10177000E1B23F4C645C0A2C01D1541CE2B2324C01
:1017800024783D4D2D68022606FB0544A41CE1B2D9
:10179000374C645C032C01D1541CE2B2042A10D1F2
:1017A0000124344D2C700120274C2478334D2C70AB
:1017B000254C2478304D2D68022606FB0544304D1B
:1017C0002C70A1E0204C24782D4D2D78AC42F8D11E
:1017D0000024284D2C70002100238DE0274C247814
:1017E0000C44234D2C5D302C0EDB244C24780C440F
:1017F0002C5D392C08DC214C24780C442C5D303CC9
:10180000E4B20DF8014014E01C4C24780C44184D4F
:101810002C5D412C0DDB194C24780C442C5D462C9E
:1018200007DC164C24780C442C5D373CE4B20DF8F0
:101830000140124C24780C44641C0D4D2C5D302C5E
:1018400032DB1FE0E8000020E9000020E00000207B
:10185000E1000020E40000201C120020F000002025
:10186000004C00407C100020DE00002060000020C2
:101870001C1100207800002074000020EA000020E5
:10188000EB000020684C24780C44641C2C5D392C3F
:101890000ADC654C24780C44641C2C5D303CE5B2B9
:1018A0004C1C0DF8045018E05F4C24780C44641C68
:1018B0005E4D2C5D412C10DB5B4C24780C44641C89
:1018C0002C5D462C09DC584C24780C44641C2C5D9F
:1018D000373CE5B24C1C0DF804504C1C1DF804506C
:1018E0001DF8014005EB0414E6B21C465D1CEBB28A
:1018F0004F4D2E558C1CE1B24E4C2468641E640082
:101900008C423FF66BAF01204B4C2478641C4A4D4F
:101910002C70494C2478494D2D78AC427FF403AFAC
:101920007EBD10B50146012024E00A7800EB80035B
:10193000434CE35C9A421CD14A7800EB8003234479
:101940005B789A4215D18A7800EB800323449B7818
:101950009A420ED1CA7800EB80032344DB789A4286
:1019600007D10A7900EB800323441B799A4200D106
:1019700002E0401C1428D8DB00BF324A1278324BF8
:101980001A70012801DB102800DD10BD2D4B1870E6
:1019900000BFFAE730B5C1B000244FF4807101A850
:1019A00007F089FC002524480078244909788842FA
:1019B00021D0FFF7B5FEF0B10120244908700522BF
:1019C0001B49234807F082FCA8B11948FFF7A9FF7B
:1019D00001A801231B4A04210090022001F059FCB8
:1019E000C4B2214601A801F045FB194810490A6814
:1019F00002600979017141B030BD00200AE011494F
:101A0000097801EB81010E4A1144095C084A11541E
:101A1000411CC8B20528F2DB0D49054A13680B606A
:101A200012790A7170470000EA0000201C110020A2
:101A30006100002074000020E9000020E800002080
:101A40007A00002066000020670000206800002067
:101A50006900002008B50121512006F0ABF90420EF
:101A6000ADF8000010208DF8030003208DF802006F
:101A70006946CB4805F0E8FE0421C94805F08FFF10
:101A80004FF48040ADF8000010208DF803000320D3
:101A90008DF802006946C34805F0D6FE4FF4804138
:101AA000C04805F07CFF08BD0146002901DD08465D
:101AB0007047002901DA4842FAE70846F8E72DE9BD
:101AC000F04F85B08246DFF8E0B2B8480068B74909
:101AD00089680844B54949680844B449C968441844
:101AE000E11704EB9171881007F053FE0290AF48A4
:101AF00000684042AD4989680844AC4949680844D7
:101B0000AA49C968441AE11704EB9171881007F0DB
:101B100040FE0390A54909684942A44A92681144CD
:101B2000A24A5268891AA14AD268881807F03FFE73
:101B300006460F46584607F071FE00229C4BCDE941
:101B4000000107F045FD804632463B4607F040FD68
:101B5000044607F09FFE97490490086002A807C852
:101B60008AE8070005B0BDE8F08FFFB585B00446F0
:101B7000914D2846089907F00EFC0646DDE906015E
:101B800007F003FC0746314607F0FFFB01902846AB
:101B9000089907F000FC0646DDE9060107F0A3FB03
:101BA0000746314607F09FFB02902846089907F048
:101BB000F2FB0646DDE9060107F095FB07463146D4
:101BC00007F0E3FB03902846089907F0E4FB06467C
:101BD000DDE9060107F0D9FB0746314607F083FB34
:101BE000049001A80FC884E80F0009B0F0BD2DE9EA
:101BF000FF470C9C6C4DDDE9000107F074FB80464B
:101C0000029907F070FB0746039907F06CFB064644
:101C10004FF0814107F0F5FB2060009880F000490B
:101C20004846019907F05FFB8046029907F05BFB8D
:101C30000746039907F0A9FB06464FF0814107F0DC
:101C4000E0FB6060009880F0004A5046019907F080
:101C50004AFB8146029907F098FB8046039907F0FA
:101C600042FB0746294607F096FB06464FF08141A6
:101C700007F0C7FBA060BDE8FF872DE9FC410446E3
:101C80000D4616461F464DA103C9CDE90001F8B225
:101C90008DF80300F0B28DF80400E8B28DF805006D
:101CA0009DF802009DF8031008449DF804100844B4
:101CB0009DF805100844C0B28DF8060000232246A6
:101CC00008216846FFF725FABDE8FC817CB504468B
:101CD0000D46002040EA044000F2053608208DF849
:101CE00000008DF8014090208DF8020000208DF852
:101CF000030001950023224608216846FFF709FAF0
:101D00007CBD704710B500211E20FFF7DFFF0021CA
:101D10001420FFF7DBFF00211720FFF7D7FF00217A
:101D20001A20FFF7D3FF10BD7FB54FF07E5100980A
:101D300007F031FB054607F058FD044621461E20FA
:101D4000FFF7C4FF019880F000464FF07E51304607
:101D500007F021FB054607F048FD04462146142004
:101D6000FFF7B4FF4FF07E51029807F014FB0546D1
:101D700007F03BFD044621461720FFF7A7FF039815
:101D800080F000464FF07E51304607F004FB0546D8
:101D900007F02BFD044621461A20FFF797FF7FBD71
:101DA000001801400010014090C4DF3A5C09002097
:101DB0000000D03FF40000200070124455AA030038
:101DC000000000FF08B50121402005F0F3FF0320CB
:101DD000ADF8000010208DF8030003208DF80200FC
:101DE00069460B4805F030FD0321094805F0D7FD91
:101DF00008BD10B50121064805F0C4FDC0F1010081
:101E0000C4B222460121024805F0CDFD10BD0000FC
:101E10000018014038B504460020FE490870FE490C
:101E20000870FE490870FE4908701420FD490860DA
:101E3000204600F06EFC6B4620221146FA48FEF761
:101E400047FAFA49086038BD10B5F648006814280A
:101E500000D110BD002240F22661F54806F0FBFFDC
:101E6000F448EF49097810F8310010B3EC480078D5
:101E7000EA49097888421CD0EE48E949097810F807
:101E80003100401EEB49E64A127801F8320008465C
:101E9000E34A127800EBC2004068E74A1278815C9E
:101EA000E34807F039F8E4480078401CE24908703C
:101EB0005BE0DB480078D949097888424CD0DD489E
:101EC000D74A127800EBC2004168D8480068FEF794
:101ED00054FAD3480078401CC0B2D1490870142885
:101EE00001DB00200870CF480068401CCD49086025
:101EF000142801D3142008600020CF490870C84876
:101F00000078C649097888421CD0CA48C449097873
:101F100010F83100401EC1B2C648C14A127800F81C
:101F20003210BF4A127800EBC2004068C24A1278F1
:101F3000815CBF4806F0F0FFBF480078401CBE49F6
:101F4000087012E00020BD4908701420B5490860EF
:101F50000020B949087008E00020B8490870142032
:101F6000B04908600020B4490870012240F226619F
:101F7000AF4806F070FF00BF6BE710B5AC4806F045
:101F8000CFFFC1B2A34802780078401CA14B187063
:101F9000AB488154184600789F490978884204D19B
:101FA0009D480078401C9C49087010BDF8B5054656
:101FB0000C4626460CB90120F8BD002240F22661ED
:101FC0009B4806F048FF1C2094FBF0F100FB1140F9
:101FD00028B11C2094FBF0F0401CC4B203E01C208C
:101FE00094FBF0F0C4B28F480068A04207D20122EF
:101FF00040F226618E4806F02EFFFF20DCE769469E
:102000008A480068FEF7A3F98A49844A127801EBEE
:10201000C201486081480078142802DB00207F4913
:10202000087000242FE0287882497C4A127801EB5E
:10203000C20149680855601CC4B21C2C20DB1C215D
:102040007C48764A127800F8321074480078401CB8
:10205000C0B272490870142801DB0020087069467C
:1020600072480068FEF773F972496C4A127801EB06
:10207000C20148606B480068401E6A49086000243D
:102080006D1C701EC6B2002ECDD19CB1694863494B
:10209000097800F8314063480068401E61490860D3
:1020A0005E480078401CC0B25C490870142801DB0F
:1020B000002008706148007820B9FFF7C5FE0120B4
:1020C0005E490870012240F22661594806F0C3FEBD
:1020D000002071E770B50546002400E0641C285D0F
:1020E0000028FBD1E1B22846FFF760FF70BD30B594
:1020F000014600240A46524DAB5C551CEAB2504DD5
:10210000AD5C43EA0524204630BD2DE9F04F85B093
:102110004B484C490978405C04900498302875D0AD
:1021200009DCA0F11A0008282AD2DFE800F041D724
:10213000E5F1EF29EEEDA2282ED006DC312866D09D
:10214000402865D0A1281BD104E0A3282ED0A428C4
:10215000F9D12CE03A493B480078401C0C5C3A48E5
:10216000047038480078801C0C5C204601F009F9A6
:102170003649086036493548006807F0B1FB00D899
:10218000E5E13448006834490860012033490870AB
:10219000002033490860DAE1FFF7B4FD00202F4941
:1021A00008702F49086029490860D0E1CFE1CEE1ED
:1021B0002CA22FA102A807F08BFD0A2102A8FFF78D
:1021C000F5FE2C48006807F029FB05462A460B4619
:1021D00029A102A807F07CFD072102A8FFF7E6FE6F
:1021E00026A223A102A807F073FD0A2102A8FFF787
:1021F000DDFE2548006807F011FB05462A460B4620
:102200001DA102A807F064FD07213FE0EFE025E1F2
:102210006DE100001C0100201D01002016010020BE
:102220001701002018010020BC1700202401002005
:10223000004400401C160020150100200001002071
:10224000BC1600201E010020B0010020100100205B
:102250000000C843AC020020B4010020140100209B
:102260004403002020206D61675F78203D2000003E
:1022700025730000200300202566000020206D61EA
:10228000675F79203D2000002403002002A8FFF7AB
:102290008DFEF0A2AFF2280102A807F019FD0A2175
:1022A00002A8FFF783FEEE48006807F0B7FA05467C
:1022B0002A460B46AFF2400102A807F009FD0721AC
:1022C00002A8FFF773FEE7A2AFF25C0102A807F0D5
:1022D000FFFC022102A8FFF769FE38E10120E24974
:1022E0000870E249E2480078401C0C5C204601F08E
:1022F00048F8E04908602AE1FFF704FD0020DA49C8
:102300000870DC49086022E166E041E038E0FFE760
:10231000D649D7480078401C0C5C204607F058FA94
:102320000546D54AD54B07F053F982460022D44BD7
:1023300007F0C0F9074607F0ADFACE490860084635
:10234000006807F06BFA05464FF03332CD4B07F0CB
:102350008DFA03D8CC48C74908600DE0C54800682D
:1023600007F05CFA05464FF03332C84B07F06AFAC3
:1023700002D8C748BF4908600120C6490870E6E096
:10238000FFF7C0FC0020C3490870BA490860DEE0CE
:102390000120C1490870C1490870B449B4480078A7
:1023A000801C095CB14AB2480078401C105C41EACC
:1023B00000200FFA80F9484607F0F9F90746002295
:1023C000B74B07F077F9054607F064FAB54908609E
:1023D0000020A8490860BAE00020AF490870FFF764
:1023E00091FC0020A3490860AC490870AFE09F4908
:1023F0009F480078401C0C5C204607F0E9F907462E
:102400000022A94B07F056F9054607F043FAA74901
:102410000860964996480078801C0C5C204607F0BE
:10242000D7F907460022A24B07F044F9054607F00A
:1024300031FA9E4948608D498D480078C01C0C5C7B
:10244000204607F0C5F907460022994B07F032F9FC
:10245000054607F01FFA9549886078E0834984486B
:102460000078401C0C5C04EB8401480007F091F9F3
:1024700090490860084600688F4908608D480068E8
:102480008E49086079497A480078801C0C5C2046A7
:1024900007F09EF907460022814B07F00BF905462D
:1024A00007F0F8F986490860084600688549086021
:1024B00083480068844908606C496D480078C01CF6
:1024C0000C5C204607F084F905460022744B07F0A7
:1024D000F1F8074607F0DEF97C4908600846006815
:1024E0007B490860794800687A49086000BF01208C
:1024F00069490870694908705C495D480078801C2A
:10250000095C5A4A5A480078401C105C41EA002095
:102510000FFA80F97048006807F080F905460E460A
:10252000484607F044F900225D4BCDE9000107F071
:10253000C1F807462A46334606F0A3FF824607F055
:10254000A9F95849086000204A49086000BF00BF47
:1025500005B0BDE8F08F30B54FF0FF3064E05F4C60
:102560002478002C37D100215D4C2478641FE2B21E
:102570003E4CA45C552C01D14C1CE1B2584C247843
:10258000241FE2B2394CA45CAA2C01D14C1CE1B24C
:10259000534C2478E41EE2B2344CA45C1E2C01D1CE
:1025A0004C1CE1B203293AD101244C4D2C704C4C07
:1025B0002478641EE2B22D4CA45C4A4D2C70484C29
:1025C00024782B4D2C70464C2478464D2D782C4485
:1025D000454D2C7023E0424C2478434D2D78AC427D
:1025E0001DD100243D4D2C70214C23780021002268
:1025F00007E01E4CE45C0C44E1B25C1CE3B2541CEA
:10260000E2B2384C2478A242F3DBCC43E1B2174C5F
:10261000E45C8C4203D1154C154D2D78605D304C37
:102620002478641C2E4D2C702D4C24782F4D2D7841
:10263000AC4294D130BD10B5294800782B490978B7
:10264000884205D0FFF787FF401C01D0FFF75DFDF2
:1026500010BD000020206D61675F7A203D200000E2
:10266000280300200D0A00006C010020BC16002089
:102670001E010020100100204AD8124DFB21094004
:10268000008066403333E33F9A99193F3333E3BF09
:102690009A9919BF6D0100206E01002014010020DD
:1026A00000002440B401002000005940401C0020DC
:1026B00000408F4064020020680200206C0200206D
:1026C0007002002074020020780200207C020020AA
:1026D0008002002084020020AC02002020010020A3
:1026E0001D010020210100201F0100201C010020ED
:1026F00008B526208DF8000000208DF80100062086
:102700008DF8020001208DF80300684603F0D7FE23
:1027100008BD10B586B004460121042005F04AFB2F
:102720000121480405F053FB4FF4E06003F0C2FEC2
:1027300026208DF8000000208DF8010006208DF87D
:10274000020001208DF80300684603F0B8FE042063
:10275000ADF8140018208DF8170003208DF816002E
:1027600005A9294805F070F80820ADF814000420E8
:102770008DF8170005A9244805F066F8019400209B
:10278000ADF80800ADF80A00ADF80C00ADF8100087
:102790000C20ADF80E0001A91C4806F0C4FA012275
:1027A00040F22551194806F056FB012240F22661FD
:1027B000164806F050FB0121144806F040FB06B015
:1027C00010BD10B52021114806F014FC012808D1D5
:1027D00020210E4806F01BFC0D48007808B1FFF7D9
:1027E000CCFB4021094806F005FC012808D1402116
:1027F000064806F00CFC0648007808B1FFF724FBF9
:1028000001200349087010BD000801400044004049
:102810002801002008B501217D2005F0CBFAF02029
:10282000ADF8000048208DF8030003208DF8020069
:102830006946B44805F008F84FF20300ADF800000F
:1028400048208DF8030003208DF802006946AE4849
:1028500004F0FAFF4FF47C70ADF8000048208DF8CA
:10286000030003208DF802006946A84804F0ECFF3D
:102870004FF47F40ADF8000048208DF8030003209E
:102880008DF802006946A24804F0DEFF4FF4FF40D5
:10289000ADF8000048208DF8030003208DF80200F9
:1028A00069469C4804F0D0FF00209B4908709B4873
:1028B0009B4908609B4888609848C8609949984837
:1028C00041619948964988619849954801629348C1
:1028D0009349486293499248C16295489549086076
:1028E000002048608860944908609449086008BDE9
:1028F0002DE9FF4782B01C46DDE90E7800200090EC
:1029000001908F4801688F48006806F0DFFF04D00F
:1029100000208A4908608C4908608A4801688B4811
:10292000006806F032FD844908600846006806F039
:1029300075FF05460022864B06F084FF0CD27E48C8
:10294000006806F06BFF05460022824B06F08EFF02
:1029500002D200207849086077490398096806F098
:102960001AFD054678480168284606F0BCFC764901
:102970000860724801687048006806F006FD8146EC
:102980004946049806F007FD06466B490298096817
:1029900006F001FD82466C480168504606F0A3FC33
:1029A0000546314606F09FFCA060A06806F036FFA1
:1029B00005464FF03332684B06F058FF02D867489F
:1029C000A0600BE0A06806F029FF05464FF0333207
:1029D000634B06F037FF01D86248A060A06806F09C
:1029E0001DFF0546604A614B06F02CFF0AD8A0681F
:1029F00006F014FF05465C4A5D4B06F037FF01D830
:102A00000020A0604C4800684C4908604D480068B0
:102A10004B49086006B0BDE8F0872DE9F04188B069
:102A200007460E46144600253B480078A0B100BF7B
:102A30000DE005EB45003A4901EB800005EB45014F
:102A40004C4A02EB81030ECB0EC0681CC5B2042DAC
:102A5000EFDB002030490870012E06D0022E0CD08A
:102A6000032E17D0042E2BD11DE02D4A07CA05AB2B
:102A700007C302940020039023E0294AD2E90310FF
:102A80005269CDE90602059184F0004002900020D1
:102A9000039016E0224A183207CA05AB07C300208C
:102AA000029003940DE01E4AD2E90910D26ACDE9E2
:102AB000060205910020029084F00040039000E09F
:102AC00000BF00BF204606F090FEB0F1000801DB19
:102AD000404601E0C8F1000010B92748007838B13D
:102AE00002AB1448CDE9006407C8FFF701FF01E01D
:102AF0000020049002A807C887E8070008B0BDE8D6
:102B0000F081000000080140000C0140001001406D
:102B10000014014000180140380100208FC2753DAB
:102B2000101C00208FC2F53C8FC275BD8FC2F5BC52
:102B3000CDCC4C3D401C00203C0100204001002039
:102B400034010020B401002030010020AC0200203C
:102B50000000E03F0000E0BF3333E33F9A99193FA4
:102B60003333E3BF9A9919BF7B14AE47E17A843FB0
:102B7000E17A84BFE01B00206E010020014601EBDA
:102B800041005E4A52F8200008B908207047002032
:102B900001EB4102594B43F8220001EB410203EBE8
:102BA0008202908001EB410203EB8202D08001EBB4
:102BB000410203EB8202107200BFE7E710B5FDF798
:102BC00021FF002404E02046FFF7D8FF601CC4B2B8
:102BD000102CF8DB10BD10B5FDF74AFF10BD70B525
:102BE00003460C46002101E0481CC1B201EB410044
:102BF000424D55F8200008B11029F5DB102901D10C
:102C0000082070BD01EB41003C4D45F8203001EB40
:102C1000410005EB8000848001EB410005EB800062
:102C2000C280002001EB4105344E06EB8505287279
:102C30000846E6E7704710B5002420E004EB4400A6
:102C40002E4901EB8000007A002816DD04EB4401D8
:102C50002A4A52F821008047002004EB4401274A09
:102C600002EB8101087204EB4400114601EB800085
:102C7000C08810B92046FFF781FF601CC4B2102C39
:102C8000DCDBFFF7D7FF10BD002033E000EB400195
:102C90001A4A52F8211059B300EB400102EB8101AE
:102CA0008988C1B9012100EB4002144B03EB820279
:102CB000117200EB40011A4602EB8101C988B9B1DB
:102CC00000EB400102EB8101C98800EB400203EBFD
:102CD000820291800CE000EB4001084A02EB810186
:102CE0008988491E00EB4002044B03EB820291806D
:102CF000411CC8B21028C9DB704700004C1C0020E2
:102D000001206749087067486749086004206749DF
:102D10000860002066494860002165488160C16004
:102D20000120634908740020704710B58CB0044638
:102D3000201D07C809AB07C301A809A90EC9FEF7E2
:102D400014FF02A80DC80199CDE90723CDE90510AC
:102D500005A80FC8FEF7E8FF0CB010BD10B50024A1
:102D60004F480078C0B100BF08E04F48006850F8F5
:102D70002400007C00B105E0601CC4B24B48006830
:102D80008442F2DB00BF474850F8240049490860FC
:102D900008460068FFF7C9FF10BD0EB54648007829
:102DA00068B1052045490870454800684860002121
:102DB00042488160C1600120404908742BE04148CD
:102DC000007878B105203D49087000204860002156
:102DD0003A4881603A4801683848C1600120374963
:102DE000087418E03848007890B10520334908701D
:102DF00033480268354801786846FFF70EFE2F48D1
:102E00009DE80E00001D0EC001202C49087402E050
:102E100000202A4908740EBD30B502460B46002436
:102E2000002104E0555C2544ECB24D1CE9B20829B0
:102E3000F8DB9C4201DB012000E0002030BD30B512
:102E400003460C460020214605E05D5C012D00D1C3
:102E500001204D1CE9B29142F7DD30BD0EB51C4892
:102E6000007890B105201B4908701B48026817487C
:102E700001786846FFF7D1FD16489DE80E00001D59
:102E80000EC001201349087402E0002011490874A3
:102E90000EBD10B5FFF781FFFFF760FF10BD00000A
:102EA0008001002058010020780100207C010020D2
:102EB000541D0020680100206C010020181D002016
:102EC000100100206D01002014010020B00100203D
:102ED0008C010020401D00209001002038B50446E0
:102EE0000020FE490870FE490870FE490870FE493E
:102EF00008701420FD490860204600F0E0FC6B4695
:102F000020221146FA48FDF7E3F9FA49086038BD76
:102F100010B5F6480068142800D110BD002240F218
:102F20002661F54805F097FFF448EF49097810F855
:102F3000310010B3EC480078EA49097888421CD087
:102F4000EE48E949097810F83100401EEB49E64A9D
:102F5000127801F832000846E34A127800EBC2000A
:102F60004068E74A1278815CE34805F0D5FFE44801
:102F70000078401CE24908705BE0DB480078D949E2
:102F8000097888424CD0DD48D74A127800EBC2005D
:102F90004168D8480068FDF7F0F9D3480078401C34
:102FA000C0B2D1490870142801DB00200870CF4856
:102FB0000068401CCD490860142801D31420086023
:102FC0000020CF490870C8480078C649097888426F
:102FD0001CD0CA48C449097810F83100401EC1B25B
:102FE000C648C14A127800F83210BF4A127800EB86
:102FF000C2004068C24A1278815CBF4805F08CFF6D
:10300000BF480078401CBE49087012E00020BD494E
:1030100008701420B54908600020B949087008E01C
:103020000020B84908701420B04908600020B44955
:103030000870012240F22661AF4805F00CFF00BF86
:103040006BE710B5AC4805F06BFFC1B2A34802783E
:103050000078401CA14B1870AB488154184600788A
:103060009F490978884204D19D480078401C9C49BA
:10307000087010BDF8B505460C4626460CB901206F
:10308000F8BD002240F226619B4805F0E4FE1C20BA
:1030900094FBF0F100FB114028B11C2094FBF0F0F0
:1030A000401CC4B203E01C2094FBF0F0C4B28F4873
:1030B0000068A04207D2012240F226618E4805F046
:1030C000CAFEFF20DCE769468A480068FDF73FF941
:1030D0008A49844A127801EBC2014860814800782D
:1030E000142802DB00207F49087000242FE0287894
:1030F00082497C4A127801EBC20149680855601C7C
:10310000C4B21C2C20DB1C217C48764A127800F8C3
:10311000321074480078401CC0B2724908701428FC
:1031200001DB00200870694672480068FDF70FF95E
:1031300072496C4A127801EBC20148606B48006822
:10314000401E6A49086000246D1C701EC6B2002E25
:10315000CDD19CB169486349097800F83140634892
:103160000068401E614908605E480078401CC0B29B
:103170005C490870142801DB002008706148007861
:1031800020B9FFF7C5FE01205E490870012240F218
:103190002661594805F05FFE002071E770B50546CD
:1031A000002400E0641C285D0028FBD1E1B2284621
:1031B000FFF760FF70BD30B54FF0FF3062E0534C59
:1031C0002478002C37D10022454C2478241FE1B20A
:1031D0004D4C645C552C01D1541CE2B2404C247817
:1031E000E41EE1B2484C645CAA2C01D1541CE2B24A
:1031F0003B4C2478A41EE1B2434C645C152C01D1F5
:10320000541CE2B2032A38D10124404D2C70344CB6
:103210002478641EE1B23C4C645C3D4D2C70304C13
:1032200024783C4D2C702E4C2478394D2D782C442C
:10323000394D2C7021E02A4C2478374D2D78AC4242
:103240001BD10024314D2C70324C237800220021F8
:1032500007E02D4CE45C1444E2B25C1CE3B24C1C6D
:10326000E1B22B4C2478A142F3DB274CE45C94427E
:1032700003D1254C274D2D78605D194C2478641CB2
:10328000174D2C70164C2478144D2D78AC4296D1E5
:1032900030BD2DE9F04305460E46079C002700206F
:1032A0004FF055098046401C04F808904FF0AA09D9
:1032B0008046401C04F808904FF015098046401CD9
:1032C00004F8089003F1020C8046401C04F808C082
:1032D0008046401C04F8085080461FE0A4010020EE
:1032E000A50100209B0100209C010020A0010020DE
:1032F000141F0020AC01002000480040741D002075
:103300009A01002084010020141E0020A801002042
:10331000A9010020A6010020A7010020401C04F8FC
:1033200008605BB905EB060C0CF0FF07844600F162
:10333000010808F0FF0004F80C7020E005EB060C13
:103340000CF0FF07002111E012F80190844600F113
:10335000010808F0FF0004F80C9012F801C0BC440A
:103360000CF0FF0701F1010C0CF0FF019942EBDBBF
:10337000844600F1010808F0FF0004F80C70BDE875
:10338000F0832DE9F84F8246504606F00BFA009084
:1033900006F044FA80460022F84B06F08BF9064608
:1033A0000022F74B06F014F9044606F073FA834640
:1033B0005846BDE8F88F10B5014600200A46F14C8A
:1033C000A35C541CE2B2EF4CA45C43EA042010BDA1
:1033D0002DE9F04FC7B04FF4807107A805F06BFFDF
:1033E00000200690039004900590E7490870E54896
:1033F000E649097810F80190B9F1040F7ED009DC94
:10340000B9F1010F0DD0B9F1020F78D0B9F1030F66
:1034100076D1A9E1B9F1050F73D0B9F1FF0FF7D15A
:10342000EBE1D849D9480078401C0C5C132C02D041
:10343000142C67D1BFE0D349D4480078801C0E5CBF
:10344000304606F0C5F982460022D14B06F032F92B
:10345000074606F01FFACF490860CA49CB480078F2
:10346000C01C0E5C304606F0B3F907460022C84B7C
:1034700006F020F9824606F00DFAC6498860C14977
:10348000C2480078001D0E5C304606F0A1F9824665
:103490000022BF4B06F00EF9074606F0FBF9BD49C6
:1034A000C860B849B9480078401D0E5C304606F047
:1034B0008FF907460022B64B06F0FCF8824606F06C
:1034C000E9F9B4494861AF49B0480078801D0E5C05
:1034D000704206F06CF907460022AD4B06F0EAF8A0
:1034E000824606F0D7F9AB498861A649A74800781B
:1034F000C01D0E5C704206F05AF904E07CE1A4E0C5
:103500008EE1DAE09EE007460022A14B06F0D2F8F9
:10351000824606F0BFF99F4908629A499B480078A5
:1035200008300E5C304606F053F982460022984B74
:1035300006F0C0F8074606F0ADF996494862914991
:103540009248007809300E5C304606F041F9074693
:1035500000228F4B06F0AEF8824606F09BF98D49AB
:10356000C86200250BE089480078801C2844854902
:10357000095C05F10800884A1154681CC5B2082D81
:10358000F1DB854A1021854800F039FA07A8009040
:103590007C487E4909780844821C08232146484615
:1035A000FFF777FE069007A80699FFF763FD012055
:1035B0007B49087047E075490978891CC8B2FFF754
:1035C000FAFE7849086071490978091DC8B2FFF709
:1035D000F2FE754908606D490978891DC8B2FFF788
:1035E000EAFE72490860694909780831C8B2FFF7F4
:1035F000E2FE6F490860002509E064480078801CFD
:1036000028446049085C64494855681CC5B2082DC7
:10361000F3DB614A1021614800F0F1F9654804705C
:1036200007A800905748594909780844821C082384
:1036300021464846FFF72DFE069007A80699FFF79A
:1036400019FD00E000BF00BFEBE04E494F48007895
:10365000401C0C5C082C2DD2DFE804F02C0405067D
:10366000072C081627E026E025E024E007A8002321
:103670001A46214600904846FFF70BFE069007A821
:103680000699FFF7F7FC16E04B4800681421B0FBE1
:10369000F1F0C0B28DF8080007A8012302AA214664
:1036A00000904846FFF7F5FD069007A80699FFF73A
:1036B000E1FC00E000BF00BFB3E0324933480078CE
:1036C000401C0C5C022C02D0042C4AD132E02D4963
:1036D0002E480078801C0E5C384806702B48007815
:1036E000C01C0E5C3046FFF74CFE3549086035497A
:1036F0003348006806F0F4F800D833E03248006838
:103700003249086001203249087000202A490860C7
:1037100007A800901B481D4909780844821C04230F
:1037200021464846FFF7B5FD069007A80699FFF722
:10373000A1FC17E0FEF7E6FA0020254908701E49B3
:1037400008601F49086007A800231A462146009018
:103750004846FFF79EFD069007A80699FFF78AFCEA
:1037600000E000BF00BF5CE0064908480078401C4C
:103770000C5C012C2ED0022C3BD133E000E06F40DA
:1037800000008940141E00208B010020A6010020AB
:1037900000408F40E01B00201423002010F001089F
:1037A00038010020480100204C0100205001002079
:1037B00054010020BA01002044030020B001002081
:1037C000900100200000C843AC020020B40100209A
:1037D0008C0100202B480078062802DC01202A49B1
:1037E000087007E0002028490870039004900590B5
:1037F00000E000BF00BF14E013E0012C02D0022C57
:103800000BD103E001202049087007E000201E4989
:10381000087003900490059000E000BF00BF00E036
:1038200000BF00BF47B0BDE8F08F10B51748007863
:1038300017490978884205D0FFF7BDFC401C01D02C
:10384000FFF7C6FD10BD0146012903DB642901DA3B
:10385000104806E0642903DBFF2901DC0E4800E084
:103860000020704710B502460B460020002105E0FD
:10387000545C8C400443E0B24C1CE1B29942F7DB4B
:1038800010BD0000BA0100208B010020A50100201E
:10389000A40100209CC4A03E9CC4A0BE08B5272063
:1038A0008DF8000000208DF8010006208DF8020040
:1038B00001208DF80300684602F001FE08BD10B536
:1038C00086B004460121082004F074FA012188041E
:1038D00004F07DFA4FF4E06002F0ECFD27208DF853
:1038E000000000208DF8010006208DF80200012064
:1038F0008DF80300684602F0E2FD4FF48060ADF8F9
:10390000140018208DF8170003208DF8160005A963
:103910002B4803F099FF4FF40060ADF81400042029
:103920008DF8170005A9264803F08EFF01940020AA
:10393000ADF80800ADF80A00ADF80C00ADF81000C5
:103940000C20ADF80E0001A91E4805F0ECF901228B
:1039500040F225511B4805F07EFA012240F2266113
:10396000184805F078FA0121164805F068FA06B003
:1039700010BD10B52021134805F03CFB012805D1EE
:103980002021104805F043FBFFF75BFB40210D4869
:1039900005F030FB012805D140210A4805F037FB2E
:1039A000FFF7B6FA0821074805F024FB012806D1E5
:1039B0000821044805F02BFB024805F0B1FA10BDC0
:1039C000000C01400048004070B504460D462668D2
:1039D000701C08D103F019FC2946204603F02AFD8B
:1039E00003F01FFC0AE003F010FC204603F052FC39
:1039F0002946204603F01EFD03F013FC70BD2DE99F
:103A0000F04105460E461746002429E055F804808B
:103A1000385D9C49087038194078487018F10100E9
:103A20000AD103F0F2FB974A128891B2281903F0E9
:103A300034FD03F0F6FB0CE003F0E7FB281903F07C
:103A400029FC904A128891B2281903F026FD03F050
:103A5000E8FB012E00D105E0A01C84B2B01E86B2A6
:103A6000002ED3D100BFBDE8F08130B50346002061
:103A700013E01C5A834D2C60012903D12C46247875
:103A800014540CE07F4C247814547E4C6478151840
:103A90006C70841CA0B28C1EA1B20029E9D100BFB9
:103AA00030BD2DE9F74183B00D46164600270024AE
:103AB00000200190A8460420029003F0A6FB06F225
:103AC000FF30800A0190352003F03AFE00BF08E085
:103AD0004FF48062039902FB071003F0DBFB0290B6
:103AE0007F1C0198874203D29DF808000428EFD07C
:103AF000039C05E002CD204603F09CFC0290241DAF
:103B000003983044A04203D99DF808000428F1D05E
:103B1000039C09E058F8041B2068814203D0002070
:103B200006B0BDE8F081241D03983044A042F1D8CE
:103B300003F077FB0120F3E737B5044615462A4624
:103B40002046019905F09EFB01203EBD2DE9F04184
:103B50004D4A10214D48FFF788FF4B4800784A49ED
:103B6000497840EA01204A49086047488078464938
:103B7000C97840EA01204749086043480079424932
:103B8000497940EA0120444908603F4880793E492C
:103B9000C97940EA0120414908603B49087A05F0AB
:103BA00017FE064600223E4B05F084FD044605F054
:103BB00071FE3C4908603449487A05F009FE064622
:103BC0000022374B05F076FD044605F063FE3549CB
:103BD00088602D49887A05F0FBFD06460022304BAF
:103BE00005F068FD044605F055FE2E49C8602649DB
:103BF000C87A05F0EDFD06460022294B05F05AFD76
:103C0000044605F047FE274948611F49097B4842A1
:103C100005F0CDFD06460022214B05F04BFD044684
:103C200005F038FE1F4988611749497B484205F075
:103C3000BEFD064600221A4B05F03CFD044605F089
:103C400029FE184908621049887B05F0C1FD064627
:103C50000022134B05F02EFD044605F01BFE114912
:103C600048620949C87B05F0B3FD064600220C4BAB
:103C700005F020FD044605F00DFE0A49C862BDE8C6
:103C8000F0810000BC0100201423002010F0010886
:103C9000480100204C010020500100205401002068
:103CA00000408F40101C00202DE9F04704464FF0E3
:103CB0007C51204605F06FFB814625462E46FE4886
:103CC000A0EB660635462946484605F064FB824669
:103CD000294605F060FB80464FF07F5105F058FB08
:103CE0000746294605F057FB05462846BDE8F087FC
:103CF00030B50021002300224C1E72E0EF4800780E
:103D000078BB0022EE480178EE48405C552801D18E
:103D1000501CC2B2EA480078401CC1B2E948405C7D
:103D200051280BD0E748405C522807D0E548405C5A
:103D3000542803D0E348405C532801D1501CC2B240
:103D4000022A49D10120DD4D2870DD480078DE4D82
:103D50002870DB480078DD4D2D782844DC4D287034
:103D60003AE0FFE7D6480078D94D2D78A84233D104
:103D70000020D24D2870D44803780022002107E0AB
:103D8000D048C05C1044C2B2581CC3B2481CC1B277
:103D9000CE4800788142F3DBCA48CD4D2D78405D96
:103DA000904219D1C74DC8480078401C285C44B2E5
:103DB0000022002109E0C44800780844C3B2C14889
:103DC000C05CC44D6854481CC1B2C0480078401C57
:103DD0008142F0DBE0B230BDB9480078401CB84DFC
:103DE0002870B7480078BC4D2D78A84286D100BF16
:103DF000F1E72DE9F04F87B08246BAF1510F7DD03F
:103E0000BAF1520F03D0BAF1540F78D137E1B1486B
:103E1000C078000200B2B1490880AE4880780988B5
:103E2000084400B2AD490880AA484079000200B2B7
:103E3000AB490880A74800790988084400B2A8491E
:103E40000880A448C079000200B2A6490880A148B1
:103E500080790988084400B2A24908809F48B0F9D7
:103E6000000005F096FCA049019005F094FA834605
:103E700005F0D4FC804600229C4B05F01BFC064656
:103E800000229B4B05F0A4FB00229A4BCDE90201D6
:103E900005F010FC984A994BCDE9040105F098FB18
:103EA000044605F0F7FC964908608D48B0F900001B
:103EB00005F06FFC8C49019005F06DFA834605F022
:103EC000ADFC0022894BCDE9020105F0F3FB06466B
:103ED0000022874B05F07CFB04460022854B05F051
:103EE000E9FB854A854BCDE9040105F071FB80466D
:103EF00005F0D0FC834908607A4801E054E044E1D1
:103F0000B0F9000005F045FC7F49019005F043FA47
:103F1000834605F083FC0022744BCDE9020105F0D5
:103F2000C9FB80460022724B05F052FB0646002278
:103F3000704B05F0BFFB04466F4A704B05F048FB21
:103F4000CDE9040105F0A6FC704908606C480068E2
:103F500005F064FC21F0004104466D4A6D4B05F00C
:103F600071FC02D20020664908606648006805F0CE
:103F700055FC21F000410446654A664B05F062FCA1
:103F800002D200205F4908606048006805F046FCE6
:103F900021F0004104465E4A5E4B05F053FC02D21C
:103FA00000205A490860F1E04A48C078000200B297
:103FB00059490880474880780988084400B2564922
:103FC000088044484079000200B2544908804148C2
:103FD00000790988084400B2504908803D48C079FA
:103FE000000200B24E4908803A48807909880844A6
:103FF00000B24B4908804848B0F9000005F0C9FB01
:104000004849059005F0C7F9834605F007FC0646C8
:104010000022364B05F04EFB04460022424B05F0D1
:10402000D7FA804605F036FC404908603B48B0F9B5
:10403000000005F0BCFB064600222C4B05F03AFBC5
:1040400004460022384B05F0C3FA804605F022FCF6
:10405000374908603248B0F9000005F0A8FB8046F7
:104060000022224B05F026FB064600222E4B05F0CF
:10407000AFFA044605F00EFC2E49086086E01548AC
:10408000C078000200B22C49088012488078098864
:10409000084400B2284908800E484079000200B266
:1040A000264908800B4800790988084400B2234952
:1040B00008800848C07943E0DF59375FE0020020FC
:1040C000E90000201C110020EA00002079000020F7
:1040D000EB00002024230020E8000020C80100207D
:1040E000CA010020CC010020000048430000E0404D
:1040F00000409F40008066404AD8124DFB21094095
:10410000280200202C020020000082C33002002080
:104110009A9999999999C93FC2010020C401002038
:10412000C6010020000080BF000030401C020020BB
:104130002002002024020020CE010020D001002017
:10414000000200B2FE490880FE48807909880844D0
:1041500000B2FB490880FC48B0F9000005F019FBEB
:104160000446FA4905F017F9F9490860F948B0F929
:10417000000005F00EFBF8490860F148B0F90000B6
:1041800005F007FBF549086000E000BF00BF07B07D
:10419000BDE8F08F01B59AB00020199018901790E3
:1041A00016901A981590002014901598512808D050
:1041B0001598522805D01598532802D015985428E0
:1041C0007ED1E748007800287BD11598FFF711FED3
:1041D000159851281FD0522802D0542851D135E0CB
:1041E000E0480068E049E14A127841F82200E048DE
:1041F0000068E049DD4A127841F82200DE48006894
:10420000DE49DA4A127841F82200D8480078401C8A
:10421000D649087045E0DA480168DA48DA4A127887
:1042200040F82210D9480068D949D74A127841F895
:104230002200D8480068D849D34A127841F82200B1
:10424000D1480078401CD04908702AE0C048006876
:10425000D249D34A127841F82200BF480068D149B8
:10426000CF4A127841F82200BC480068CE49CC4AB7
:10427000127841F82200CA480078401CC8490870EA
:104280000FE0BA480078401CB8490870BE48007872
:10429000401CBD490870C2480078401CC0490870E5
:1042A00000BF00BFB148007806280ADDB648007894
:1042B0000628FADDBA4800780628F6DD002001E07D
:1042C00037E2B5E1199016E01998401C05F061FA43
:1042D000A5491290199851F82000014611901298A2
:1042E00005F059F81390149904F0FDFF14901998F3
:1042F000401CC0B219909D49097819988842E3DBA7
:10430000AA49149805F07DF8A94908600020149086
:1043100008460068A74908600020199016E019981F
:10432000401C05F036FA93491290199851F8200074
:1043300001461190129805F02EF81390149904F08C
:10434000D2FF14901998401CC0B21990874909787F
:1043500019988842E3DB9549149805F052F894497E
:104360000860002014900846006893490860002007
:10437000199016E01998401C05F00BFA7F4912902D
:10438000199851F8200001461190129805F003F891
:104390001390149904F0A7FF14901998401CC0B210
:1043A00019907249097819988842E3DB7F4914987B
:1043B00005F027F87E490860002014900846006840
:1043C0007E490860002019900DE06E49199851F857
:1043D000200001461390149804F085FF149019985A
:1043E000401CC0B219906849097819988842ECDBE2
:1043F0006548007805F0D6F901461390149805F049
:1044000000F86B49086000201490084600686C4969
:104410000860002019900DE05D49199851F82000BE
:1044200001461390149804F05EFF14901998401CF4
:10443000C0B219905449097819988842ECDB524867
:10444000007805F0AFF901461390149804F0D9FFF5
:1044500057490860002014900846006859490860D0
:10446000002019900DE04C49199851F820000146A0
:104470001390149804F037FF14901998401CC0B2A0
:1044800019904149097819988842ECDB3E48007838
:1044900005F088F901461390149804F0B2FF4449DE
:1044A0000860002014900846006847490860002012
:1044B00019900DE03949199851F8200001461390E0
:1044C000149804F010FF14901998401CC0B2199071
:1044D0003349097819988842ECDB3148007805F0B7
:1044E00061F901461390149804F08BFF304908607D
:1044F0000020149008460068344908600020199094
:104500000DE02849199851F820000146139014989D
:1045100004F0E9FE14901998401CC0B2199020498B
:10452000097819988842ECDB1D48007805F03AF9C3
:1045300001461390149804F064FF1D49086047E099
:10454000D201002024230020CE010020000080BFE3
:1045500034020020D0010020380200203C0200205C
:10456000B802002028020020302300202C03002065
:104570002C02002050230020300200207023002055
:104580001C020020902300202D0300202002002088
:10459000B023002024020020D0230020F02300209C
:1045A0002E030020102400203024002000001042A0
:1045B000B4020020BC020020C0020020C40200207F
:1045C000C8020020CC020020D0020020D40200202B
:1045D0000020149008460068FE49086000201990E9
:1045E0000DE0FD49199851F82000014613901498E8
:1045F00004F079FE14901998401CC0B21990F74944
:10460000097819988842ECDBF448007805F0CAF87C
:1046100001461390149804F0F4FEF149086000205C
:10462000149008460068EF4908600120EE490870C0
:10463000ED48007800287CD0EC480168006804F060
:10464000AAFE1290EA480168006804F0A4FE1090E7
:10465000E8480168006804F09EFE0F90109904F08D
:1046600042FE1190129904F03EFE1390FFF71CFBDE
:104670001890E0481899006804F08DFEDD49086044
:10468000DB481899006804F086FED9490860D748CD
:104690001899006804F07FFED4490860D148016889
:1046A000006804F078FE1290CA480168006804F0BF
:1046B00072FE1090D0480168006804F06CFE0F9004
:1046C000109904F010FE1190129904F00CFE139052
:1046D000FFF7EAFA1890C8481899006804F05BFEE2
:1046E000C5490860BB481899006804F054FEB949F0
:1046F0000860BC481899006804F04DFEB94908608C
:10470000BA48006805F08AF8CDE91001B848006899
:1047100005F084F8CDE90E01DDE9102306F0D2FCA6
:10472000CDE9120105F0B6F8B4490860B148006857
:1047300000E08DE305F072F8CDE9100106F072FAA1
:10474000CDE9120105F0A6F8AD49086008460068F9
:1047500005F064F8CDE9080106F074FDCDE90C011F
:10476000A648006805F05AF8CDE9040106F0C0FD3E
:10477000CDE908019B48006805F050F8CDE9060135
:10478000DDE9082304F024FFCDE90A01DDE90C236B
:1047900004F01EFFCDE910019948006805F03EF8CD
:1047A000CDE9040106F0A4FDCDE9080193480068B5
:1047B00005F034F8CDE9000106F09AFDCDE90401D9
:1047C0008448006805F02AF8CDE90201DDE90423F8
:1047D00004F0FEFECDE90601DDE9082304F0F8FE51
:1047E000CDE90C018548006805F018F8CDE9040111
:1047F00006F028FDCDE908017F48006805F00EF8B5
:10480000CDE90601DDE9082304F0E2FECDE90A0165
:10481000DDE90C2304F035FECDE90E01DDE91023BE
:1048200004F0D0FECDE9120105F034F81790744879
:10483000006804F0F3FFCDE9080106F059FDCDE969
:104840000C016848006804F0E9FFCDE90A01DDE9E0
:104850000C2304F0BDFECDE910016948006804F0A6
:10486000DDFFCDE9080106F0EDFCCDE90C0159486A
:10487000006804F0D3FFCDE90A01DDE90C2304F060
:10488000A7FECDE90E01DDE9102304F0FAFDCDE924
:10489000120104F0FFFF16900021179805F016F89A
:1048A00003D2179880F0004017900021169805F069
:1048B0000DF803D2169880F000401690002145486C
:1048C000006805F00DF817D200214B48006804F08D
:1048D000FDFF11D2DDE9160104F093FD0F9004F005
:1048E0009DFFCDE9100106F0DBFACDE9120104F0DD
:1048F000D1FF4449086064E000213648006804F0B4
:10490000E5FF1DD200213C48006804F0DFFF17D20C
:10491000DDE9160104F075FD0D9004F07FFFCDE98F
:104920000E0106F0BDFA0022374BCDE9100104F06C
:104930004FFECDE9120104F0ADFF3249086040E0BE
:1049400000212448006804F0CBFF1DD200212A4832
:10495000006804F0C5FF17D2DDE9160104F051FD2F
:104960000D9004F05BFFCDE90E0106F099FA274A9D
:10497000274BCDE9100104F028FECDE9120104F027
:1049800089FF204908601CE0DDE9160104F039FDCB
:104990000B9004F043FFCDE90C0106F081FA1B4AAD
:1049A0001B4BCDE90E0104F010FE0022164BCDE9A1
:1049B000100104F00DFECDE9120104F06BFF114966
:1049C00008601048006804F029FF0022114BCDE96F
:1049D000060121E0D8020020302400202E03002010
:1049E000B4020020DC020020B8020020D002002027
:1049F000CC020020C8020020D4020020A402002023
:104A0000A8020020AC0200200000F0BF4AD8124DDE
:104A1000FB2109400000E03F04F0DAFDCDE9080188
:104A200006F066FCCDE90C01FE48006804F0F6FED5
:104A30000022FD4BCDE9020104F0CAFDCDE90401DD
:104A400006F056FCCDE90801F848006804F0E6FEDF
:104A50000022F54BCDE9020104F0BAFDCDE90401D5
:104A600006F046FCCDE90601DDE9082304F0B0FDBF
:104A7000CDE90A01DDE90C2304F0AAFDCDE910011E
:104A8000EB48006804F0CAFE0022E74BCDE90601BE
:104A900004F09EFDCDE9080106F0D4FBCDE90C0140
:104AA000E048006804F0BAFE0022DF4BCDE90201C5
:104AB00004F08EFDCDE9040106F0C4FBCDE9080148
:104AC000DA48006804F0AAFE0022D74BCDE90201C3
:104AD00004F07EFDCDE9040106F0B4FBCDE906014A
:104AE000DDE9082304F074FDCDE90A01DDE90C23BA
:104AF00004F06EFDCDE90E01DDE9102304F0C1FCE8
:104B0000CDE9120104F0C6FECA490860C848006831
:104B100004F084FE0022C44BCDE9060104F058FDE8
:104B2000CDE9080106F0E4FBCDE90C01BD480068C1
:104B300004F074FE0022BC4BCDE9020104F048FDF4
:104B4000CDE9040106F0D4FBCDE90801B7480068BF
:104B500004F064FE0022B44BCDE9020104F038FDFC
:104B6000CDE9040106F06EFBCDE90601DDE908237D
:104B700004F02EFDCDE90A01DDE90C2304F028FD47
:104B8000CDE91001AA48006804F048FE0022A64BB7
:104B9000CDE9060104F01CFDCDE9080106F052FB49
:104BA000CDE90C019F48006804F038FE00229E4BBE
:104BB000CDE9020104F00CFDCDE9040106F042FB51
:104BC000CDE908019948006804F028FE0022964BC0
:104BD000CDE9020104F0FCFCCDE9040106F088FBFC
:104BE000CDE90601DDE9082304F0F2FCCDE90A0174
:104BF000DDE90C2304F0ECFCCDE90E01DDE9102326
:104C000004F0E0FCCDE9120104F044FE8A4908609A
:104C10008748006804F002FE0022834BCDE90601BC
:104C200004F0D6FCCDE9080106F062FBCDE90C01E9
:104C30007C48006804F0F2FD00227B4BCDE90201C4
:104C400004F0C6FCCDE9040106F0FCFACDE9080148
:104C50007648006804F0E2FD0022734BCDE90201C2
:104C600004F0B6FCCDE9040106F042FBCDE90601F3
:104C7000DDE9082304F0ACFCCDE90A01DDE90C23F1
:104C800004F0A6FCCDE910016948006804F0C6FDF7
:104C90000022654BCDE9060104F09AFCCDE908013C
:104CA00006F0D0FACDE90C015E48006804F0B6FDCC
:104CB00000225D4BCDE9020104F08AFCCDE904013C
:104CC00006F016FBCDE908015848006804F0A6FD7F
:104CD0000022554BCDE9020104F07AFCCDE9040134
:104CE00006F0B0FACDE90601DDE9082304F070FC16
:104CF000CDE90A01DDE90C2304F06AFCCDE90E01DF
:104D0000DDE9102304F0BDFBCDE9120104F0C2FD82
:104D10004A4908604648006804F080FD0022424B82
:104D2000CDE9060104F054FCCDE9080106F08AFA49
:104D3000CDE90C013B48006804F070FD00223A4BBD
:104D4000CDE9020104F044FCCDE9040106F0D0FAFB
:104D5000CDE908013548006804F060FD0022324BBF
:104D6000CDE9020104F034FCCDE9040106F0C0FAFB
:104D7000CDE90601DDE9082304F02AFCCDE90A01AA
:104D8000DDE90C2304F024FCCDE91001284800687B
:104D900004F044FD0022244BCDE9060104F018FC88
:104DA000CDE9080106F0A4FACDE90C011D48006820
:104DB00004F034FD00221C4BCDE9020104F008FC94
:104DC000CDE9040106F03EFACDE908011748006874
:104DD00004F024FD0022144BCDE9020104F0F8FB9D
:104DE000CDE9040106F02EFACDE90601DDE908233C
:104DF00004F0EEFBCDE90A01DDE90C2304F0E8FB49
:104E0000CDE90E01DDE9102304F0DCFBCDE9120150
:104E100004F040FD0A49086000200A4908700A4968
:104E2000087013E0A80200200000E03FA402002068
:104E3000AC02002054020020580200205C02002036
:104E4000600200202C0300202D030020FE49087082
:104E50001BB000BD01B598B00020169015901490BD
:104E60001898139000201290119010900F900E90AF
:104E70000D900C900B900A90FBF7A3FE099004F0A4
:104E800091FCF24908601398512808D013985228D1
:104E900005D01398532802D01398542879D1139829
:104EA000FEF7A7FFEA480068EA49EB4A127841F8A2
:104EB0002200EA480068EA49E74A127841F82200ED
:104EC000E8480168E848E44A127840F82210E748C8
:104ED0000068E749E04A127841F82200E548006896
:104EE000E549DD4A127841F82200E4480068E449C7
:104EF000D94A127841F82200E2480068E249D64ACD
:104F0000127841F82200E1480068E149D24A12785B
:104F100041F82200DF480068DF49CF4A127841F8A3
:104F20002200CD480078401CCB4908700846007824
:104F3000062801DD002008700020169016E0169863
:104F4000401C04F026FCC3490890169851F8200034
:104F500001460790089804F01EFA0990149904F08D
:104F6000C2F914901698401CC0B2169016980628E4
:104F7000E5DBCA49149804F044FA0990C84801686E
:104F8000099804F002FAC7490860002014901690AE
:104F900017E002E11698401C04F0FBFBB0490890B2
:104FA000169851F8200001460790089804F0F3F98C
:104FB0000990149904F097F914901698401CC0B207
:104FC000169016980628E5DBB449149804F019FAEF
:104FD0000990B5480168099804F0D7F9B349086009
:104FE00000201490169016E01698401C04F0D1FB97
:104FF0009D490890169851F820000146079008989E
:1050000004F0C9F90990149904F06DF914901698F8
:10501000401CC0B2169016980628E5DB9F491498EC
:1050200004F0EFF90990A2480168099804F0ADF97D
:10503000A04908600020149016900DE08C49169845
:1050400051F8200001460990149804F04CF914908E
:105050001698401CC0B2169016980628EEDB9649AA
:10506000149804F0CEF99549086000201490169029
:105070000DE08149169851F82000014609901498D6
:1050800004F031F914901698401CC0B2169016988E
:105090000628EEDB8849149804F0B3F988490860C3
:1050A0000020149016900DE07549169851F82000D4
:1050B00001460990149804F016F914901698401CB3
:1050C000C0B2169016980628EEDB7B49149804F0BF
:1050D00098F97C4908600020149016900DE06A4908
:1050E000169851F8200001460990149804F0FBF836
:1050F00014901698401CC0B2169016980628EEDB45
:105100006D49149804F07DF96F49086000201490EF
:1051100016900DE05E49169851F82000014609905E
:10512000149804F0E0F814901698401CC0B2169041
:1051300016980628EEDB6049149804F062F963497A
:1051400008600020149016900DE05349169851F80D
:10515000200001460990149804F0C5F814901698A0
:10516000401CC0B2169016980628EEDB52491498DF
:1051700004F047F956490860002014900120554971
:105180000870514800685449086050480068534905
:1051900008604F480068524908604E48007800286F
:1051A00001F063804F48007800284BD04E480068DB
:1051B000401C4D49086008460068B0F5487F04D19E
:1051C0000020086047490870FEE33E480168006817
:1051D00004F0E1F808903A480168006804F0DBF850
:1051E000069036480168006804F0D5F805900699E5
:1051F00004F079F80790089904F075F80990FEF723
:1052000053FD15902D481599006804F0C4F82B49FA
:1052100008602B481599006804F0BDF8284908601B
:1052200028481599006804F0B6F8264908602F4808
:1052300001682F48006804F0AEF812902D4801680C
:105240002B4859E01BE200002E030020140300202D
:105250002802002030230020B00200202C02002071
:105260005023002030020020702300201C02002068
:105270009023002020020020B023002024020020E0
:10528000D023002034020020F02300203802002028
:10529000102400203C020020302400200000104296
:1052A000BC020020E0010020C0020020E401002038
:1052B000C4020020E80100200000C040D40100200A
:1052C000D8010020DC010020EC010020F0010020CA
:1052D000F4010020B9020020200300202403002054
:1052E00028030020C0010020A00200205802002056
:1052F000540200205C020020006804F04CF8119079
:10530000FE480168FE48006804F045F81090FD482A
:105310000168006804F03FF80F90FB480168F94805
:10532000006804F038F80E90F4480168F548006809
:1053300004F031F80D90F4480168006804F02BF88F
:105340000C90EE480168F048006804F024F80B90D7
:10535000EA480168006804F01EF80A9011990D9857
:1053600004F013F8039004F059FA00224FF0804340
:10537000CDE9040104F02CF90022E44BCDE906014B
:1053800004F026F9CDE9080104F084FAE049086048
:105390000B99129803F0A7FF059004F03FFA002242
:1053A0004FF08043CDE9060104F012F9CDE9080180
:1053B00004F070FAD74908604FF07C500F9903F061
:1053C000E4FF04900C9903F0E0FF059004F026FA46
:1053D00000224FF08043CDE9060104F0F9F8CDE951
:1053E000080104F057FACC490860CA480168CB4864
:1053F000006803F0D0FF0990C7480168C8480068FA
:1054000003F0C9FF0890099903F0BFFFC549086080
:10541000C1480168C448006803F0BDFF0990BC485A
:105420000168BE48006803F0B6FF0890099903F0D0
:10543000ACFFBE490860B6480168B948006803F08F
:10544000AAFF0990B3480168B748006803F0A3FFBA
:105450000890099903F099FFB5490860B1480068C0
:1054600004F0DCF921F00041B24AB34BCDE9080168
:1054700004F0E8F902D20020AA490860AB480068AD
:1054800004F0CCF921F00041AA4AAB4BCDE9080168
:1054900004F0D8F902D20020A4490860A4480068AA
:1054A00004F0BCF921F00041A24AA34BCDE9080168
:1054B00004F0C8F902D200209D4908609F480168A5
:1054C0009848006803F061FF9D4908609D480168A5
:1054D0009648006803F059FF9B4908609B480168A3
:1054E0009348006803F051FF994908608D480068AF
:1054F000924908608D480068924908608C480068AD
:105500009249086000218748006804F0DFF94ED016
:1055100000218648006804F0D9F948D00021844869
:10552000006804F0D3F942D07E48016889480068D9
:1055300003F031FF099088480168099803F0D3FE11
:1055400085490860794801688448006803F023FFB2
:10555000099083480168099803F0C5FE80490860F6
:10556000734801687F48006803F015FF09907E4882
:105570000168099803F0B7FE7B4908607648016826
:105580007A48006803F0AFFE784908607448016803
:105590007748006803F0A7FE754908607248016803
:1055A0007448006803F09FFE7249086006E000201E
:1055B000694908606A4908606B4908605948016890
:1055C0006D48006803F0E7FE099068480168099893
:1055D00003F089FE6549086054480168674800681F
:1055E00003F0D9FE099062480168099803F07BFE38
:1055F0005F4908604E4801686148006803F0CBFECF
:1056000009905C480168099803F06DFE59490860EB
:105610004B4801685B48006803F0BDFE09905348A1
:105620000168099803F05FFE504908604648016828
:105630005548006803F0AFFE09904D48016809988D
:1056400003F051FE4A490860414801684F4800682C
:1056500003F0A1FE099047480168099803F043FE52
:10566000444908604148006849490860404800686A
:10567000484908603F48006847490860A4E5274852
:105680000168006803F087FE0890254801680068FB
:1056900003F081FE069024480168006803F07BFE59
:1056A0000590069903F01FFE0790089903F01BFE72
:1056B0000990FEF7F9FA15901B481599006803F058
:1056C0006AFE1949086016481599006803F063FEE0
:1056D0001349086011481599006803F05CFE0F49F2
:1056E00008602E480168006803F055FE08902C48B9
:1056F0000168006803F04FFE069053E0600200204E
:1057000054020020580200205C0200200000F0BF7C
:10571000880200208C02002090020020DC01002082
:10572000D8010020E4020020D4010020E80200207B
:10573000EC020020FCA9F1D24D62503FFC02002097
:1057400008030020000300200C03002004030020B5
:105750001003002074020020F002002078020020D4
:10576000F402002070020020F8020020E001002076
:10577000E4010020E8010020680200206C02002003
:10578000640200207C0200208002002084020020AD
:1057900004020020080200200C020020F401002076
:1057A000F0010020FE480168006803F0F4FD059058
:1057B000069903F098FD0790089903F094FD09906D
:1057C000FEF772FA1590F6481599006803F0E3FDAC
:1057D000F3490860F3481599006803F0DCFDF149CE
:1057E0000860F1481599006803F0D5FDEE4908609E
:1057F000EE480168EE48006803F0CDFD1290ED48D8
:105800000168EB48006803F0C6FD1190EA480168A2
:10581000E748006803F0BFFD1090E44801680068A5
:1058200003F0B9FD0F90E3480168E048006803F019
:10583000B2FD0E90E0480168DC48006803F0ABFD63
:105840000D90DC480168006803F0A5FD0C90DA4873
:105850000168D848006803F09EFD0B90D6480168A7
:10586000006803F098FD0A9011990D9803F03BFD34
:105870000690CD480168069803F08DFD08901099B8
:105880000E9803F082FD0490C6480168049803F066
:1058900082FD06904FF07C500C9903F076FD03904A
:1058A0000A9903F072FD0490BD480168049803F062
:1058B00072FD0590069903F016FD0790089903F014
:1058C00012FD4FF08041099003F065FDBB4908606F
:1058D00012990B9803F059FD0690B3480168069899
:1058E00003F059FD08904FF07C500F9903F04DFDE7
:1058F00003900A9903F049FD0490AA4801680498AE
:1059000003F049FD069010990E9803F0ECFC04900A
:10591000A3480168049803F03EFD0590069903F042
:10592000E2FC0790089903F0DEFC4FF080410990FB
:1059300003F031FDA249086008460168006803F0E1
:105940002AFD04909D480168006803F024FD03903F
:10595000049903F0C8FC059003F060FFCDE906014F
:1059600005F01EFDCDE9080103F094FF954908609C
:105970004FF07C500F9903F008FD05900C9903F04F
:1059800004FD069088480168069803F004FD08901D
:1059900012990B9803F0A7FC0490824801680498C0
:1059A00003F0F9FC069011990D9803F0EEFC0490B9
:1059B0007B480168049803F0EEFC0590069903F01B
:1059C00092FC0790089900E086E203F08CFC4FF00F
:1059D0008041099003F0DFFC7B49086011990D9824
:1059E00003F0D3FC039003F019FF00224FF0804333
:1059F000CDE9040103F0ECFD0022744BCDE9060172
:105A000003F0E6FDCDE9080103F044FF70490860AA
:105A10000B99129803F067FC059003F0FFFE00223B
:105A20004FF08043CDE9060103F0D2FDCDE9080136
:105A300003F030FF674908604FF07C500F9903F086
:105A4000A4FC04900C9903F0A0FC059003F0E6FE82
:105A500000224FF08043CDE9060103F0B9FDCDE906
:105A6000080103F017FF5C49086011990D9803F0D5
:105A70008CFC029054480168029803F08CFC04905E
:105A80004FF07C500C9903F080FC01900A9903F0D0
:105A90007CFC02904B480168029803F07CFC039068
:105AA000049903F020FC059003F0B8FE00224FF0AB
:105AB0004043CDE9060103F08BFDCDE9080103F079
:105AC000E9FE464908600B99129803F00CFC02901D
:105AD0003D480168029803F05EFC049010990E980E
