:020000040800F2
:100000008028002045010008A1020008A302000882
:10001000A7020008AB020008AF02000800000000C1
:10002000000000000000000000000000B302000813
:10003000B502000800000000B7020008B90200087D
:100040005F0100085F0100085F0100085F01000810
:100050005F0100085F0100085F0100085F01000800
:100060005F0100085F0100085F0100085F010008F0
:100070005F0100085F010008AD0900085F0100088A
:100080005F0100085F0100085F010008F30D000830
:100090000F0E00085F0100085F0100085F01000803
:1000A0005F0100085F0100085F0100085F010008B0
:1000B000DB0B00085F0100085F0100085F0100081A
:1000C0005F0100085F0100085F0100085F01000890
:1000D0005F010008DD080008BF2700086F3900082D
:1000E0005F0100085F0100085F0100085F01000870
:1000F0005F0100085F0100085F0100085F01000860
:100100005F0100085F0100085F0100085F0100084F
:10011000F51300085F0100085F0100085F01000897
:100120005F0100085F0100085F0100085F0100082F
:10013000DFF80CD00AF03AFB0048004769010008DC
:10014000802800200648804706480047FEE7FEE773
:10015000FEE7FEE7FEE7FEE7FEE7FEE7FEE7FEE777
:10016000419D0008310100081CB53FA103C9CDE93C
:10017000000109F0E5FD4FF4E13000F011F94FF412
:10018000E13001F049FE4FF4164002F0A5FE4FF4B5
:10019000E13001F059F900F0BFFE01F015FE00F06A
:1001A000B5FC00F031FC01F057FC02F0A7FD02F0B5
:1001B0002FFB03F0C9FC4FF47A7000F00DFC00F047
:1001C00002FD2B49086034E02A4800782A49097862
:1001D00088421DD003F0A7FF284908700846007820
:1001E00051280BD008460078522807D008460078DE
:1001F000532803D008460078542809D120491F48C5
:10020000007804F0B0F91F480078401C1D490870C0
:1002100000F0D9FC1C4908600968154A1268881A60
:100220000AF09EF8194908601949184800680AF050
:1002300035F9144800781528C6DB02F0BDFC1422FD
:100240000621144802F0C9FC32220121124802F0B2
:10025000C4FC14220A21114802F0BFFC02F0B9FCD0
:1002600001E002F0E6FCFCE711223344556677001A
:1002700008000020E9000020E80000201000002015
:10028000E8010020000000200C00002004000020F5
:10029000001B374A8F2E0008097000083D26000811
:1002A000704700BFFEE700BFFEE700BFFEE700BFEC
:1002B000FEE770477047704710B502F0E3FC10BDD1
:1002C0000246002003E000231354431C98B28842E6
:1002D000F9DB70472DE9F04F07460D461646994663
:1002E00007EB0508BA460024A34601E0601C84B26F
:1002F0002A4850F8340008B1082CF7DD082C05DB3B
:10030000FF2089F800000020BDE8F08F234840F866
:10031000347000EBC4000571204800EBC400467146
:100320001E4800EBC4008671A34605FB06F1384663
:10033000FFF7C6FF002405E0CAF80080C246A844C3
:10034000601C84B2701EA042F6DC144800EBCB00A7
:10035000DAE710B502461368907918B9FF200870E3
:10036000002010BD9079401E9071907908B11868F6
:1003700010601C46241D002008702046F1E702464C
:1003800009B9FF207047091F0B46106818601360F9
:100390009079401C90710020F4E70000F4020020E6
:1003A00038B504460020FE490870FE490870FE4931
:1003B0000870FE4908701420FD490870204600F0BE
:1003C0003AFA6B4620221146FA48FFF783FFFA49B2
:1003D000086038BD10B5F6480078142800D110BD6B
:1003E000002240F22661F54809F013FBF448EF497A
:1003F000097810F8310010B3EC480078EA49097820
:1004000088421CD0EE48E949097810F83100401EB6
:10041000EB49E64A127801F832000846E34A1278BE
:1004200000EBC2004068E74A1278815CE34809F0BB
:1004300051FBE4480078401CE24908705CE0DB486E
:100440000078D949097888424DD0DD48D74A1278DA
:1004500000EBC2004168D8480068FFF790FFD3481E
:100460000078401CC0B2D1490870142801DB00207C
:100470000870CF480078401CC0B2CD4908701428DD
:1004800001DB142008700020CE490870C7480078AE
:10049000C549097888421CD0C948C449097810F870
:1004A0003100401EC1B2C648C04A127800F832106E
:1004B000BE4A127800EBC2004068C24A1278815CE2
:1004C000BE4809F007FBBF480078401CBD490870D2
:1004D00012E00020BC4908701420B54908700020C3
:1004E000B849087008E00020B74908701420B049E6
:1004F00008700020B3490870012240F22661AF481D
:1005000009F087FA00BF6AE710B5AC4809F0E6FACF
:10051000C1B2A34802780078401CA14B1870AB48C8
:100520008154184600789F490978884204D19D4833
:100530000078401C9B49087010BDF8B505460C4674
:1005400026460CB90120F8BD002240F226619B48E6
:1005500009F05FFA1C2094FBF0F100FB114028B178
:100560001C2094FBF0F0401CC4B203E01C2094FB60
:10057000F0F0C4B28E480078A04207DA012240F2BF
:1005800026618E4809F045FAFF20DCE769468A4873
:100590000068FFF7DEFE8A49834A127801EBC20148
:1005A000486081480078142802DB00207E490870EA
:1005B00000242FE0287882497B4A127801EBC2019F
:1005C00049680855601CC4B21C2C20DB1C217C48E7
:1005D000754A127800F8321073480078401CC0B297
:1005E00071490870142801DB0020087069467248C0
:1005F0000068FFF7AEFE72496B4A127801EBC20148
:1006000048606B480078401E6949087000246D1CE2
:10061000701EC6B2002ECDD19CB1694862490978DE
:1006200000F8314062480078401E614908705E4819
:100630000078401CC0B25C490870142801DB00201F
:1006400008706148007820B9FFF7C4FE01205E49B8
:100650000870012240F22661584809F0DAF90020BA
:1006600071E770B50546002400E0641C285D002891
:10067000FBD1E1B22846FFF760FF70BD10B54B48D3
:10068000007849490978884234D04D48474A127861
:1006900000EBC200416848480068FFF770FE43481D
:1006A0000078401CC0B241490870142801DB0020CA
:1006B00008703F480078401CC0B23D4908701428BB
:1006C00001DB1420087039480078374909788842DE
:1006D0000CD03B4A354B1B7812F83310334B1B7848
:1006E00002EBC302506800F01CF924E000203649F8
:1006F000087020E032482D4A127800EBC2004168B1
:100700002D480068FFF73BFE28480078401CC0B227
:1007100026490870142801DB00200870244800785E
:10072000401CC0B222490870142801DB1420087054
:1007300000202549087010BD10B55CE0244A1278ED
:10074000002A53D10020174A1278921ED1B21F4AB4
:10075000525C552A01D1421CD0B2124A1278521E64
:10076000D1B21A4A525CAA2A01D1421CD0B20D4A17
:100770001278184B1B68022404FB0322D1B2134ADF
:10078000525CFF2A01D1421CD0B203282ED1012293
:100790000F4B1A70034A12780F4B1A70014A1DE072
:1007A0002500002026000020220000202300002039
:1007B00024000020F00400202C000020003801401C
:1007C000500300202100002014000020F00300202E
:1007D000200000201C000020270000201278094B78
:1007E0001B68022404FB0322074B1A70074A127885
:1007F000521C064B1A70054A1278054B1B789A4218
:100800009CD110BD1C0000202800002026000020E4
:100810002500002008B525208DF8000000208DF867
:10082000010003208DF8020001208DF803006846C6
:1008300006F023FC08BD10B586B00446012144F241
:10084000050008F095F801A807F065FE4FF4007068
:10085000ADF8040003208DF8060018208DF807007D
:1008600001A9594807F0CEFD01A807F054FE4FF446
:100870008060ADF8040004208DF8070001A95248FB
:1008800007F0C0FD514808F0E9FF02A809F092F80E
:1008900002940020ADF80C00ADF80E00ADF8100089
:1008A0000C20ADF812000020ADF8140002A9474852
:1008B00009F017F8012240F22661444809F0A9F82E
:1008C000FFF7A8FF012240F22551404809F0A1F8A6
:1008D00001213E4809F091F806B010BD10B5202165
:1008E0003A4809F065F9012808D12021374809F074
:1008F0006CF93748007808B1FFF706FE402133480D
:1009000009F056F9012808D14021304809F05DF975
:100910002F48007808B1FFF75DFD01202C490870D1
:1009200010BD30B58DB005460C460121084608F0D3
:1009300012F8284807F000F92448001D029003959A
:10094000102004900594002006908020079000203D
:10095000089009900A904FF440500B9000200C90A2
:1009600002A91C4807F08AF901220221194807F060
:10097000BCF90E208DF8040000208DF805008DF8DC
:10098000060001208DF8070001A806F076FB012182
:10099000104807F09EF9012280210C4809F05EF80A
:1009A00001210A4809F029F80DB030BD10B54FF407
:1009B000005007F0C7F9012804D1400307F0B7F948
:1009C000FFF75CFE10BD0000000801400038014048
:1009D0003000002044000240002107E0002200E037
:1009E000521C43F278739A42FADB491C8142F5D3D8
:1009F0007047002105E0002200E0521C0E2AFCDBBB
:100A0000491C8142F7D3704730B57F4800684FF4E6
:100A10007A72B0FBF2F1B1F1807F01D301201DE0C9
:100A200021F07F40401E4FF0E022506150170F220E
:100A3000002807DA13071D0E744B00F00F04241F63
:100A40001D5503E013071C0E714B1C5400BF002002
:100A50004FF0E022906107201061002008B100BF34
:100A6000FEE74FF0E020006920F001004FF0E021A8
:100A7000086130BD4FF0E020006940F001004FF008
:100A8000E0210861704708B54FF4E06006F0F0FA25
:100A90001C208DF8000000208DF8010005208DF845
:100AA000020001208DF80300684606F0E6FA08BD52
:100AB0000EB50121084607F068FFFFF7E4FF4FF08D
:100AC000804007F0BDFF41F28830ADF804004720B8
:100AD000ADF800000020ADF80600ADF80200694650
:100AE0004FF0804008F080F80121880708F09EFE52
:100AF00001221146900708F0EEFB0121880708F05B
:100B0000CFFB0021012007F040FF0EBD0EB50121F3
:100B1000062007F03AFF684608F092FB4FF6FF7098
:100B2000ADF804000020ADF80000ADF80600ADF807
:100B300002006946374808F057F800221146354848
:100B400008F055FC0121334808F0F6FD302131480A
:100B500008F0E0FB07212F4808F024FE80212D48F3
:100B600008F029FE01212B4808F09AFC4FF6FF708F
:100B7000ADF804004720ADF800000020ADF80600F5
:100B8000ADF802006946244808F02EF801212248F9
:100B900008F086FC0421204808F004FE01211E48CC
:100BA00008F0D6FD20211C4808F0F3FD80211A48EA
:100BB00008F001FE0121184808F072FB01211548D8
:100BC00008F06EFB0EBD0020124924310888000495
:100BD0001149243109880844704710B5012188075C
:100BE00008F027FE40B10121880708F033FE0B48CA
:100BF0000068401C09490860084800680A2802D3B8
:100C000000200649086010BDDC02002018ED00E05D
:100C100000E400E000040040000800403400002030
:100C200000B589B014208DF8000000208DF8010077
:100C300001208DF802008DF80300684606F01DFAC9
:100C400013208DF8000000208DF8010002208DF89F
:100C5000020001208DF80300684606F00EFAAA484B
:100C600006F074FA0121480607F08FFE01210820E2
:100C700007F07EFE0121084607F07AFE4FF48070EF
:100C8000ADF8140003208DF8160048208DF81700E9
:100C900005A99E4807F0B6FB4FF40070ADF81400AC
:100CA00003208DF8160018208DF8170005A9974825
:100CB00007F0A8FB01214FF4EA1007F072FC06A828
:100CC00006F068FB00208DF81E008DF81F008DF8DF
:100CD000200001208DF8210000208DF822008DF8E1
:100CE00023008DF81A008DF81B0001208DF81C00E0
:100CF00002208DF81D000C20ADF8180006A98248CE
:100D000006F03DFA00208DF80E008DF80F0001204E
:100D10008DF810000020ADF80400ADF80600ADF825
:100D20000800ADF80A00ADF80C0001208DF81100A4
:100D300001A806F0AEFA0221734806F0AAFE0121CE
:100D4000714806F0A6FE012203216F4806F0A0FDBF
:100D500009B000BD7FB586B0DDE90E560798029058
:100D600004208DF80C009DF820008DF80D008DF802
:100D70000E50002407E009983044015D0DF10F008A
:100D80000155601CC4B2AC42F5DB01A95E4806F017
:100D90006FFB0AB070BD30B585B00446A07B28B9A2
:100DA0002068009000208DF8080001E02068019084
:100DB00004208DF80800E07B18B900208DF80900A8
:100DC00002E002208DF80900207B8DF80A00002542
:100DD00006E0201D415D0DF10B004155681CC5B2B8
:100DE000207BA842F5DC6946474806F041FB05B088
:100DF00030BD10B50121444806F0B1FD012805D1F0
:100E00000121414806F045FE00F097F810BD10B5ED
:100E100086B001AA00213C4806F01FFC9DF80D0099
:100E200000286AD1029880B20B2806D0A0F5806015
:100E3000093803D003285ED12EE05DE00298C0F3AC
:100E40000740012806D002280CD0032812D004281D
:100E500020D117E0DDF80F10DDF813002C4AC2E9AD
:100E6000001017E0DDF80F10DDF81300284AC2E982
:100E700004100FE0DDF80F10DDF81300244AC2E97A
:100E8000021007E0DDF80F10DDF81300204AC2E978
:100E9000061000BF00BF2FE00298C0F307400128F2
:100EA00006D002280CD0032812D0042820D117E045
:100EB000DDF80F40204609F04AFA1649086018E0AC
:100EC000DDF80F40604209F042FA1249486010E034
:100ED000DDF80F40204609F03AFA0E49886008E034
:100EE000DDF80F40604209F032FA0A49C86000E0BC
:100EF00000BF00BF00E000BF00BF0021024806F0B5
:100F000024FC06B010BD000000640040000C01404D
:100F1000402400206024002008B50020F949087012
:100F2000F9490870FFF77CFE6B4620221146F7480E
:100F3000FFF7D0F9F649086008BD1CB5F548006810
:100F400020280DD10020F4490870F448F44A1278A2
:100F500000EB0210C168EE480068FFF710FA1CBDF4
:100F600000220121EF4806F093FCEC48EC49097897
:100F700000EB01100078002849D0E9480078EA49E0
:100F80000978884243D0E548E549097800EB01102B
:100F90000078082820DBE148E149097800EB0110DE
:100FA00000780838DD49DE4A127801EB021108703A
:100FB000DE4800680821CDE90010D848D8490978F2
:100FC00000EB011494E80F00FFF7C4FED748006857
:100FD0000830D649086097E0D4480168CF48D04A25
:100FE000127800EB02100078CDE90001CB48CC4923
:100FF000097800EB011494E80F00FFF7ABFE002026
:10100000C649C74A127801EB021108707CE0C44857
:101010000078C549097888426DD0C048C04A127826
:1010200000EB0210C168BA480068FFF7A8F9BC4895
:101030000078401CC0B2BA490870202801DB0020AB
:101040000870B4480068401CB2490860202801D3E9
:10105000202008600020B5490860B1480078B249F6
:10106000097888423DD0AD48AD49097800EB0110C0
:101070000078082821DBA948A949097800EB01106C
:1010800000780838C1B2A548A54A127800EB0210D2
:101090000170A64800680821CDE900109F48A049CA
:1010A000097800EB011494E80F00FFF753FE9F4806
:1010B000006808309D49086026E09C480168974810
:1010C000974A127800EB02100078CDE900019348AE
:1010D0009349097800EB011494E80F00FFF73AFEFA
:1010E00012E000208C49087020208A490860002006
:1010F0008E49086008E00020874908702020854953
:10110000086000208949086001221146854806F0E0
:10111000BFFB00BF23E72DE9F84305460C46164602
:101120001F46A04614B90120BDE8F8830022012122
:101130007C4806F0ADFB1C2094FBF0F100FB114055
:1011400028B11C2094FBF0F0401CC4B203E01C202A
:1011500094FBF0F0C4B26F480068A04206D20122AE
:101160001146704806F094FB0120DDE769466848A7
:101170000068FFF7EEF869496B4A127801EB02113B
:10118000C86069480078202802DB002066490870A2
:1011900000243EE029786148634A127800EB02108F
:1011A000C0680155601CC4B21C2C2DDB5B485E4935
:1011B000097800EB011046601C2058495A4A127801
:1011C00001EB0211087055485749097800EB0110EE
:1011D000077255480078401CC0B253490870202857
:1011E00001DB00200870694649480068FFF7B1F844
:1011F0004A494D4A127801EB0211C860454800681F
:10120000401E4449086000246D1CA8F1010000F054
:10121000FF08B8F1000FBDD104B340484249097836
:1012200000EB011046603D483F49097800EB011092
:1012300004703A483C49097800EB011007723548C0
:101240000068401E3349086037480078401CC0B22F
:1012500035490870202801DB002008702E480078EE
:1012600020B901202C490870FFF767FE01221146C2
:101270002C4806F00DFB002056E7002000212C4AE8
:10128000116000BF03E000212A4A1154401CFF28CE
:10129000F9DD704710B50246002000BF03E00023CF
:1012A000244C2354401CFF28F9DD10BD0FB430B589
:1012B00000209DF8161000BF17E00DF11702135C17
:1012C000104A14781278521C0E4D2A70194A135580
:1012D0002A4612780C4B1B789A4204D10A4A12789B
:1012E000521C094B1A70421CD0B28842E5DB30BC5C
:1012F0005DF814FB024622B10F4802600F480170EE
:1013000023E01DE05400002055000020100C0020B8
:10131000580000203C00002041000020100900205F
:1013200039000020006400403800002050000020F8
:1013300044000020100B0020480000204C0000203A
:10134000B2F5807F01D9FF2070470020FCE7000044
:1013500010B586B0044634208DF8000000208DF8CA
:10136000010004208DF8020001208DF8030068467A
:1013700005F083FE0121102007F0FAFA0121C804CC
:1013800007F003FB2D48406820F480602B4948603B
:101390000846406860F480604860C814ADF81400E6
:1013A00004208DF8170005A9244807F02BF80194B4
:1013B0000020ADF80800ADF80A00ADF80C00ADF85B
:1013C00010000C20ADF80E0001A91D4808F089FAA4
:1013D000012240F225511A4808F01BFB012240F27D
:1013E0002661174808F015FB0121154808F005FB98
:1013F00006B010BD10B52021114808F0D9FB012816
:1014000008D120210E4808F0E0FB0E48007808B112
:1014100000F0CEF840210A4808F0CAFB012808D1A4
:101420004021074808F0D1FB0648007808B100F0D9
:1014300025F801200349087010BD0000001001408C
:10144000004C00405C00002038B504460020FE49F6
:101450000870FE490870FE490870FE4908701420A3
:10146000FD4908602046FFF773FF6B4620221146B6
:10147000FA48FEF72FFFFA49086038BD10B5F64864
:101480000068142800D110BD002240F22661F54802
:1014900008F0BFFAF448EF49097810F8310018B3A2
:1014A000EC480078EA49097888421DD0EE48E949BD
:1014B000097810F83100401EEB49E64A127801F82D
:1014C00032000846E349097800EBC1004068E7496B
:1014D000097844182178E34808F0FCFAE3480078DA
:1014E000401CE24908705BE0DA480078D849097886
:1014F00088424CD0DC48D74A127800EBC2004168E1
:10150000D7480068FEF73BFFD2480078401CC0B2C5
:10151000D0490870142801DB00200870CE4800680C
:10152000401CCD490860142801D314200860002015
:10153000CE490870C7480078C549097888421CD050
:10154000C948C449097810F83100401EC649C14A4B
:10155000127801F832000846BE4A127800EBC20049
:101560004068C24A1278815CBE4808F0B3FABF48AE
:101570000078401CBD49087012E00020BC4908708A
:101580001420B54908600020B849087008E0002020
:10159000B74908701420B04908600020B3490870AA
:1015A000012240F22661AF4808F033FA00BF6AE733
:1015B00010B5AC4808F092FAC1B2A348027800789E
:1015C000401CA14B1870AB488154184600789F49C5
:1015D0000978884204D19D480078401C9B490870D6
:1015E00010BDF8B505460C4626460CB90120F8BDDD
:1015F000002240F226619B4808F00BFA1C2094FB65
:10160000F0F100FB114028B11C2094FBF0F0401CCD
:10161000C4B203E01C2094FBF0F0C4B28E48006812
:10162000A04207D2012240F226618E4808F0F1F96B
:10163000FF20DCE769468A480068FEF78AFE8A498F
:10164000834A127801EBC20148608148007814286F
:1016500002DB00207E49087000242FE028788249B0
:101660007B4A127801EBC20149680855601CC4B27C
:101670001C2C20DB1C217C48754A127800F83210A3
:1016800073480078401CC0B271490870142801DB0F
:1016900000200870694672480068FEF75AFE7249D9
:1016A0006B4A127801EBC20148606B480068401E2B
:1016B0006949086000246D1C701EC6B2002ECDD191
:1016C0009CB169486249097800F831406248006875
:1016D000401E614908605E480078401CC0B25C4909
:1016E0000870142801DB002008706148007820B9D8
:1016F000FFF7C4FE01205E490870012240F2266116
:10170000584808F086F9002071E770B505460024B6
:1017100000E0641C285D0028FBD1E1B22846FFF7F9
:1017200060FF70BD7EB50020F5E0534C2478002C9E
:101730004AD10022454C2478641EE1B24D4C645CD1
:10174000022C01D1541CE2B2404C24784B4D2D6840
:10175000022606FB0544E1B2464C645C0D2C01D127
:10176000541CE2B2394C2478444D2D68022606FB05
:101770000544641CE1B23F4C645C0A2C01D1541C4A
:10178000E2B2324C24783D4D2D68022606FB05441A
:10179000A41CE1B2374C645C032C01D1541CE2B2AE
:1017A000042A10D10124344D2C700120274C2478B8
:1017B000334D2C70254C2478304D2D68022606FBC5
:1017C0000544304D2C70A1E0204C24782D4D2D780F
:1017D000AC42F8D10024284D2C70002100238DE06C
:1017E000274C24780C44234D2C5D302C0EDB244CEC
:1017F00024780C442C5D392C08DC214C24780C44D2
:101800002C5D303CE4B20DF8014014E01C4C24780F
:101810000C44184D2C5D412C0DDB194C24780C44E4
:101820002C5D462C07DC164C24780C442C5D373C90
:10183000E4B20DF80140124C24780C44641C0D4DA8
:101840002C5D302C32DB1FE0E8000020E900002096
:10185000E0000020E1000020E4000020B0110020A2
:10186000F0000020004C004010100020DE0000209E
:1018700060000020B01000207800002074000020DC
:10188000EA000020EB000020684C24780C44641C23
:101890002C5D392C0ADC654C24780C44641C2C5DCE
:1018A000303CE5B24C1C0DF8045018E05F4C247835
:1018B0000C44641C5E4D2C5D412C10DB5B4C247889
:1018C0000C44641C2C5D462C09DC584C24780C44D8
:1018D000641C2C5D373CE5B24C1C0DF804504C1CCC
:1018E0001DF804501DF8014005EB0414E6B21C4637
:1018F0005D1CEBB24F4D2E558C1CE1B24E4C246852
:10190000641E64008C423FF66BAF01204B4C247880
:10191000641C4A4D2C70494C2478494D2D78AC42BA
:101920007FF403AF7EBD10B50146012024E00A78A4
:1019300000EB8003434CE35C9A421CD14A7800EBF5
:10194000800323445B789A4215D18A7800EB8003A8
:1019500023449B789A420ED1CA7800EB800323443B
:10196000DB789A4207D10A7900EB800323441B7984
:101970009A4200D102E0401C1428D8DB00BF324A52
:101980001278324B1A70012801DB102800DD10BDDF
:101990002D4B187000BFFAE730B5C1B000244FF4EA
:1019A000807101A808F065FA0025244800782449D0
:1019B0000978884221D0FFF7B5FEF0B10120244913
:1019C000087005221B49234808F05EFAA8B119489F
:1019D000FFF7A9FF01A801231B4A04210090022060
:1019E00001F055FCC4B2214601A801F041FB1948A1
:1019F00010490A6802600979017141B030BD0020C8
:101A00000AE01149097801EB81010E4A1144095C91
:101A1000084A1154411CC8B20528F2DB0D49054A99
:101A200013680B6012790A7170470000EA00002009
:101A3000B01000206100002074000020E9000020A8
:101A4000E80000207A0000206600002067000020E7
:101A5000680000206900002008B50121512006F02F
:101A600087FF0420ADF8000010208DF8030003204C
:101A70008DF802006946CB4806F0C4FC0421C94831
:101A800006F06BFD4FF48040ADF8000010208DF89B
:101A9000030003208DF802006946C34806F0B2FC3B
:101AA0004FF48041C04806F058FD08BD01460029AA
:101AB00001DD08467047002901DA4842FAE7084686
:101AC000F8E72DE9F04F85B08246DFF8E0B2B8487C
:101AD0000068B74989680844B54949680844B44969
:101AE000C9684418E11704EB9171881008F02FFCC5
:101AF0000290AF4800684042AD4989680844AC494B
:101B000049680844AA49C968441AE11704EB91716D
:101B1000881008F01CFC0390A54909684942A44AB2
:101B200092681144A24A5268891AA14AD268881858
:101B300008F01BFC06460F46584608F04DFC0022F4
:101B40009C4BCDE9000108F021FB804632463B4624
:101B500008F01CFB044608F07BFC974904900860E1
:101B600002A807C88AE8070005B0BDE8F08FFFB5F6
:101B700085B00446914D2846089908F0EAF90646D2
:101B8000DDE9060108F0DFF90746314608F0DBF928
:101B900001902846089908F0DCF90646DDE90601BF
:101BA00008F07FF90746314608F07BF90290284695
:101BB000089908F0CEF90646DDE9060108F071F94A
:101BC0000746314608F0BFF903902846089908F007
:101BD000C0F90646DDE9060108F0B5F907463146C9
:101BE00008F05FF9049001A80FC884E80F0009B05D
:101BF000F0BD2DE9FF470C9C6C4DDDE9000108F0BC
:101C000050F98046029908F04CF90746039908F00C
:101C100048F906464FF0814108F0D1F9206000985C
:101C200080F000494846019908F03BF98046029946
:101C300008F037F90746039908F085F906464FF092
:101C4000814108F0BCF96060009880F0004A50467D
:101C5000019908F026F98146029908F074F9804646
:101C6000039908F01EF90746294608F072F906465E
:101C70004FF0814108F0A3F9A060BDE8FF872DE98E
:101C8000FC4104460D4616461F464DA103C9CDE949
:101C90000001F8B28DF80300F0B28DF80400E8B24C
:101CA0008DF805009DF802009DF8031008449DF88A
:101CB000041008449DF805100844C0B28DF80600D1
:101CC0000023224608216846FFF725FABDE8FC817B
:101CD0007CB504460D46002040EA044000F205367B
:101CE00008208DF800008DF8014090208DF802004A
:101CF00000208DF803000195002322460821684644
:101D0000FFF709FA7CBD704710B500211E20FFF7D0
:101D1000DFFF00211420FFF7DBFF00211720FFF772
:101D2000D7FF00211A20FFF7D3FF10BD7FB54FF07A
:101D30007E51009808F00DF9054608F034FB044682
:101D400021461E20FFF7C4FF019880F000464FF0A7
:101D50007E51304608F0FDF8054608F024FB0446A5
:101D600021461420FFF7B4FF4FF07E51029808F08F
:101D7000F0F8054608F017FB044621461720FFF748
:101D8000A7FF039880F000464FF07E51304608F0E0
:101D9000E0F8054608F007FB044621461A20FFF745
:101DA00097FF7FBD001801400010014090C4DF3A4A
:101DB000F00800200000D03FF40000200070124422
:101DC00055AA0300000000FF08B50121402006F0DD
:101DD000CFFD0320ADF8000010208DF80300032094
:101DE0008DF8020069460B4806F00CFB03210948F8
:101DF00006F0B3FB08BD10B50121064806F0A0FBB4
:101E0000C0F10100C4B222460121024806F0A9FB3C
:101E100010BD00000018014038B504460020FE49FE
:101E20000870FE490870FE490870FE4908701420C9
:101E3000FD490860204600F06AFC6B4620221146EE
:101E4000FA48FEF747FAFA49086038BD10B5F64877
:101E50000068142800D110BD002240F22661F54828
:101E600007F0D7FDF448EF49097810F8310010B3B6
:101E7000EC480078EA49097888421CD0EE48E949E4
:101E8000097810F83100401EEB49E64A127801F853
:101E900032000846E34A127800EBC2004068E74A85
:101EA0001278815CE34807F015FEE4480078401C96
:101EB000E24908705BE0DB480078D949097888423C
:101EC0004CD0DD48D74A127800EBC2004168D848B0
:101ED0000068FEF754FAD3480078401CC0B2D149DC
:101EE0000870142801DB00200870CF480068401CEF
:101EF000CD490860142801D3142008600020CF4980
:101F00000870C8480078C649097888421CD0CA4879
:101F1000C449097810F83100401EC1B2C648C14A10
:101F2000127800F83210BF4A127800EBC200406805
:101F3000C24A1278815CBF4807F0CCFDBF480078E8
:101F4000401CBE49087012E00020BD4908701420F2
:101F5000B54908600020B949087008E00020B84978
:101F600008701420B04908600020B44908700122AC
:101F700040F22661AF4807F04CFD00BF6BE710B59B
:101F8000AC4807F0ABFDC1B2A34802780078401C12
:101F9000A14B1870AB488154184600789F490978C6
:101FA000884204D19D480078401C9C49087010BDAF
:101FB000F8B505460C4626460CB90120F8BD0022AE
:101FC00040F226619B4807F024FD1C2094FBF0F1B1
:101FD00000FB114028B11C2094FBF0F0401CC4B25F
:101FE00003E01C2094FBF0F0C4B28F480068A042CC
:101FF00007D2012240F226618E4807F00AFDFF2039
:10200000DCE769468A480068FEF7A3F98A49844AF2
:10201000127801EBC201486081480078142802DB85
:1020200000207F49087000242FE0287882497C4AEC
:10203000127801EBC20149680855601CC4B21C2C1F
:1020400020DB1C217C48764A127800F83210744854
:102050000078401CC0B272490870142801DB0020CF
:102060000870694672480068FEF773F972496C4A55
:10207000127801EBC20148606B480068401E6A4953
:10208000086000246D1C701EC6B2002ECDD19CB11C
:1020900069486349097800F8314063480068401E88
:1020A000614908605E480078401CC0B25C49087015
:1020B000142801DB002008706148007820B9FFF780
:1020C000C5FE01205E490870012240F22661594890
:1020D00007F09FFC002071E770B50546002400E082
:1020E000641C285D0028FBD1E1B22846FFF760FFA1
:1020F00070BD30B5014600240A46524DAB5C551CFC
:10210000EAB2504DAD5C43EA0524204630BD2DE9CE
:10211000F04F85B04B484C490978405C04900498D6
:10212000302875D009DCA0F11A0008282AD2DFE88F
:1021300000F041F1FFEEED29ECEBA2282ED006DCF9
:10214000312866D0402865D0A1281BD104E0A328FF
:102150002ED0A428F9D12CE03A493B480078401C05
:102160000C5C3A48047038480078801C0C5C2046AF
:1021700001F005F93649086036493548006808F02D
:102180008DF900D8E6E13448006834490860012040
:1021900033490870002033490860DBE1FFF7B4FDE4
:1021A00000202F4908702F49086029490860D1E1B3
:1021B000D0E1CFE12CA22EA102A808F067FB0521F7
:1021C00002A8FFF7F5FE2448006808F005F9054667
:1021D0002A460B4627A102A808F058FB072102A8AF
:1021E000FFF7E6FE24A222A102A808F04FFB072178
:1021F00002A8FFF7DDFE2248006808F0EDF805466A
:102200002A460B461BA102A808F040FB072139E033
:1022100005E13BE16EE100001C0100201D010020F2
:10222000160100201701002018010020501700207F
:102230002401002000440040B015002015010020BA
:1022400000010020501600201E010020B0010020D7
:10225000100100200000C84364020020B4010020E7
:1022600014010020D8020020207961773D00000091
:1022700025730000256600002070697463683D00C6
:102280006002002002A8FFF793FEF3A2AFF2200144
:1022900002A808F0FBFA062102A8FFF789FEF04821
:1022A000006808F099F805462A460B46AFF23C0153
:1022B00002A808F0EBFA072102A8FFF779FEE9A2CD
:1022C000AFF2540102A808F0E1FA032102A8FFF7D7
:1022D0006FFEE548006808F07FF805462A460B4681
:1022E000AFF2700102A808F0D1FA082102A8FFF7A6
:1022F0005FFEDEA2AFF2880102A808F0C7FA022151
:1023000002A8FFF755FE25E17EE059E050E017E016
:102310000EE0FFE70120D6490870D649D64800787C
:10232000401C0C5C204601F02AF8D449086011E1F9
:10233000FFF7EAFC0020CE490870D049086009E1A7
:10234000CC49CD480078401C0C5C204608F01EF8B3
:102350000546CB4ACB4B07F019FF07460022CA4B74
:1023600007F086FF824608F073F8C4490860084603
:10237000006808F031F805464FF03332C34B08F0DF
:1023800053F803D8C248BD4908600DE0BB48006857
:1023900008F022F805464FF03332BE4B08F030F813
:1023A00002D8BD48B54908600120BC490870D1E099
:1023B000FFF7AAFC0020B9490870B0490860C9E0DD
:1023C0000120B7490870B7490870AA49AA4800789F
:1023D000801C095CA74AA8480078401C105C41EAB0
:1023E00000200FFA80F9484607F0BFFF0746002299
:1023F000AD4B07F03DFF054608F02AF8AB490860F1
:1024000000209E490860A5E00020A5490870FFF75C
:102410007BFC002099490860A24908709AE0954920
:1024200095480078401C0C5C204607F0AFFF07463B
:1024300000229F4B07F01CFF054608F009F89D4954
:1024400008608C498C480078801C0C5C204607F0A2
:102450009DFF07460022984B07F00AFF054607F04C
:10246000F7FF94494860834983480078C01C0C5C9E
:10247000204607F08BFF074600228F4B07F0F8FE3F
:10248000054607F0E5FF8B49886063E079497A48A3
:102490000078401C0C5C04EB8401480007F057FFF7
:1024A00086490860084600688549086083480068D6
:1024B000844908606F4970480078801C0C5C204695
:1024C00007F064FF05460022774B07F0D1FE074670
:1024D00007F0BEFF7C490860084600687B49086039
:1024E000794800687A490860624963480078C01CEE
:1024F0000C5C00BF01206A4908706A4908705D4998
:102500005D480078801C095C5A4A5B480078401C92
:10251000105C41EA00200FFA80F96E48006807F06D
:102520005BFF07468846484607F01FFF0546002226
:102530005D4B07F09DFE3A464346CDE9000107F0AA
:102540007EFD824607F084FF5849086000204B4911
:10255000086000BF00BF05B0BDE8F08F30B54FF098
:10256000FF3064E05C4C2478002C37D100215B4CB8
:102570002478641FE2B23F4CA45C552C01D14C1C62
:10258000E1B2564C2478241FE2B23A4CA45CAA2C47
:1025900001D14C1CE1B2514C2478E41EE2B2354C1E
:1025A000A45C1E2C01D14C1CE1B203293AD10124B8
:1025B000494D2C70494C2478641EE2B22D4CA45C29
:1025C000474D2C70454C24782B4D2C70434C24786F
:1025D000434D2D782C44434D2C7023E03F4C247800
:1025E000404D2D78AC421DD100243B4D2C70224C27
:1025F00023780021002207E01E4CE45C0C44E1B289
:102600005C1CE3B2541CE2B2354C2478A242F3DBEA
:10261000CC43E1B2174CE45C8C4203D1154C164D0F
:102620002D78605D2D4C2478641C2C4D2C702B4C27
:1026300024782D4D2D78AC4294D130BD10B527486B
:10264000007829490978884205D0FFF787FF401CA8
:1026500001D0FFF75CFD10BD20726F6C6C3D000077
:102660005C02002020743D00BC0200200D0A000026
:102670006C010020501600201E01002010010020D7
:102680004AD8124DFB210940008066403333E33FB6
:102690009A99193F3333E3BF9A9919BF6D0100200E
:1026A0006E0100201401002000002440B40100202D
:1026B00000005940D41B002000408F402802002019
:1026C0002C020020300200203402002038020020BA
:1026D0003C02002064020020200100201D01002097
:1026E000210100201F0100201C01002008B5262028
:1026F0008DF8000000208DF8010006208DF8020002
:1027000001208DF80300684604F0B7FC08BD10B541
:1027100086B004460121042006F02AF9012148046C
:1027200006F033F94FF4E06004F0A2FC26208DF8A7
:10273000000000208DF8010006208DF80200012025
:102740008DF80300684604F098FC0420ADF81400EE
:1027500018208DF8170003208DF8160005A92948C8
:1027600005F050FE0820ADF8140004208DF8170085
:1027700005A9244805F046FE01940020ADF80800A4
:10278000ADF80A00ADF80C00ADF810000C20ADF863
:102790000E0001A91C4807F0A4F8012240F22551BF
:1027A000194807F036F9012240F22661164807F071
:1027B00030F90121144807F020F906B010BD10B51A
:1027C0002021114807F0F4F9012808D120210E48F2
:1027D00007F0FBF90D48007808B1FFF7D0FB402166
:1027E000094807F0E5F9012808D14021064807F01B
:1027F000ECF90648007808B1FFF728FB01200349EF
:10280000087010BD0008014000440040280100206D
:1028100008B501217D2006F0ABF8F020ADF80000EE
:1028200048208DF8030003208DF802006946B44863
:1028300005F0E8FD4FF20300ADF8000048208DF8E8
:10284000030003208DF802006946AE4805F0DAFD6A
:102850004FF47C70ADF8000048208DF80300032091
:102860008DF802006946A84805F0CCFD4FF47F4082
:10287000ADF8000048208DF8030003208DF8020019
:102880006946A24805F0BEFD4FF4FF40ADF80000D8
:1028900048208DF8030003208DF8020069469C480B
:1028A00005F0B0FD00209B4908709B489B490860DB
:1028B0009B4888609848C860994998484161994800
:1028C00096498861984995480162934893494862BE
:1028D00093499248C1629548954908600020486034
:1028E0008860944908609449086008BD2DE9FF4755
:1028F00082B01C46DDE90E780020009001908F48E0
:1029000001688F48006807F0BFFD04D000208A49A5
:1029100008608C4908608A4801688B48006807F0A5
:1029200012FB844908600846006807F055FD05461B
:102930000022864B07F064FD0CD27E48006807F049
:102940004BFD05460022824B07F06EFD02D20020AF
:102950007849086077490398096807F0FAFA05464C
:1029600078480168284607F09CFA76490860724862
:1029700001687048006807F0E6FA81464946049805
:1029800007F0E7FA06466B490298096807F0E1FA92
:1029900082466C480168504607F083FA0546314686
:1029A00007F07FFAA060A06807F016FD05464FF01B
:1029B0003332684B07F038FD02D86748A0600BE05F
:1029C000A06807F009FD05464FF03332634B07F06E
:1029D00017FD01D86248A060A06807F0FDFC05461D
:1029E000604A614B07F00CFD0AD8A06807F0F4FCC0
:1029F00005465C4A5D4B07F017FD01D80020A0603A
:102A00004C4800684C4908604D4800684B490860D4
:102A100006B0BDE8F0872DE9F04188B007460E46C4
:102A2000144600253B480078A0B100BF0DE005EB3F
:102A300045003A4901EB800005EB45014C4A02EBA9
:102A400081030ECB0EC0681CC5B2042DEFDB002045
:102A500030490870012E06D0022E0CD0032E17D05C
:102A6000042E2BD11DE02D4A07CA05AB07C30294E3
:102A70000020039023E0294AD2E903105269CDE9EE
:102A80000602059184F0004002900020039016E0B9
:102A9000224A183207CA05AB07C3002002900394EC
:102AA0000DE01E4AD2E90910D26ACDE9060205916D
:102AB0000020029084F00040039000E000BF00BFBF
:102AC000204607F070FCB0F1000801DB404601E051
:102AD000C8F1000010B92748007838B102AB14489B
:102AE000CDE9006407C8FFF701FF01E00020049072
:102AF00002A807C887E8070008B0BDE8F081000019
:102B000000080140000C0140001001400014014089
:102B100000180140380100208FC2753DA41B002021
:102B20008FC2F53C8FC275BD8FC2F5BCCDCC4C3D7C
:102B3000D41B00203C010020400100203401002073
:102B4000B401002030010020640200200000E03FBA
:102B50000000E0BF3333E33F9A99193F3333E3BFBB
:102B60009A9919BF7B14AE47E17A843FE17A84BF1A
:102B7000741B00206E010020014601EB41005E4AFB
:102B800052F8200008B908207047002001EB4102EC
:102B9000594B43F8220001EB410203EB8202908083
:102BA00001EB410203EB8202D08001EB410203EB17
:102BB0008202107200BFE7E710B5FDF725FF002481
:102BC00004E02046FFF7D8FF601CC4B2102CF8DBED
:102BD00010BD10B5FDF74EFF10BD70B503460C4695
:102BE000002101E0481CC1B201EB4100424D55F803
:102BF000200008B11029F5DB102901D1082070BD93
:102C000001EB41003C4D45F8203001EB410005EB64
:102C10008000848001EB410005EB8000C280002031
:102C200001EB4105344E06EB850528720846E6E7C0
:102C3000704710B5002420E004EB44002E4901EB5E
:102C40008000007A002816DD04EB44012A4A52F87D
:102C500021008047002004EB4401274A02EB810158
:102C6000087204EB4400114601EB8000C08810B9E3
:102C70002046FFF781FF601CC4B2102CDCDBFFF79D
:102C8000D7FF10BD002033E000EB40011A4A52F894
:102C9000211059B300EB400102EB81018988C1B9D1
:102CA000012100EB4002144B03EB8202117200EB96
:102CB00040011A4602EB8101C988B9B100EB40011D
:102CC00002EB8101C98800EB400203EB8202918094
:102CD0000CE000EB4001084A02EB81018988491EA3
:102CE00000EB4002044B03EB82029180411CC8B20E
:102CF0001028C9DB70470000E01B00200120674955
:102D00000870674867490860042067490860002028
:102D100066494860002165488160C16001206349BF
:102D200008740020704710B58CB00446201D07C8F9
:102D300009AB07C301A809A90EC9FEF718FF02A82D
:102D40000DC80199CDE90723CDE9051005A80FC8E5
:102D5000FEF7ECFF0CB010BD10B500244F48007812
:102D6000C0B100BF08E04F48006850F82400007C64
:102D700000B105E0601CC4B24B4800688442F2DB3D
:102D800000BF474850F824004949086008460068D9
:102D9000FFF7C9FF10BD0EB54648007868B10520A1
:102DA00045490870454800684860002142488160F4
:102DB000C1600120404908742BE04148007878B197
:102DC00005203D4908700020486000213A48816094
:102DD0003A4801683848C16001203749087418E052
:102DE0003848007890B105203349087033480268AC
:102DF000354801786846FFF70EFE2F489DE80E0023
:102E0000001D0EC001202C49087402E000202A4950
:102E100008740EBD30B502460B460024002104E0C4
:102E2000555C2544ECB24D1CE9B20829F8DB9C4204
:102E300001DB012000E0002030BD30B503460C4628
:102E40000020214605E05D5C012D00D101204D1CD4
:102E5000E9B29142F7DD30BD0EB51C48007890B163
:102E600005201B4908701B4802681748017868460E
:102E7000FFF7D1FD16489DE80E00001D0EC0012091
:102E80001349087402E00020114908740EBD10B502
:102E9000FFF781FFFFF760FF10BD000080010020F9
:102EA00058010020780100207C010020E81C00204F
:102EB000680100206C010020AC1C002010010020E3
:102EC0006D01002014010020B00100208C010020C1
:102ED000D41C00209001002038B504460020FE4993
:102EE0000870FE490870FE490870FE4908701420F9
:102EF000FD490860204600F0E0FC6B4620221146A8
:102F0000FA48FDF7E7F9FA49086038BD10B5F64808
:102F10000068142800D110BD002240F22661F54857
:102F200006F077FDF448EF49097810F8310010B346
:102F3000EC480078EA49097888421CD0EE48E94913
:102F4000097810F83100401EEB49E64A127801F882
:102F500032000846E34A127800EBC2004068E74AB4
:102F60001278815CE34806F0B5FDE4480078401C27
:102F7000E24908705BE0DB480078D949097888426B
:102F80004CD0DD48D74A127800EBC2004168D848DF
:102F90000068FDF7F4F9D3480078401CC0B2D1496D
:102FA0000870142801DB00200870CF480068401C1E
:102FB000CD490860142801D3142008600020CF49AF
:102FC0000870C8480078C649097888421CD0CA48A9
:102FD000C449097810F83100401EC1B2C648C14A40
:102FE000127800F83210BF4A127800EBC200406835
:102FF000C24A1278815CBF4806F06CFDBF48007879
:10300000401CBE49087012E00020BD490870142021
:10301000B54908600020B949087008E00020B849A7
:1030200008701420B04908600020B44908700122DB
:1030300040F22661AF4806F0ECFC00BF6BE710B52C
:10304000AC4806F04BFDC1B2A34802780078401CA2
:10305000A14B1870AB488154184600789F490978F5
:10306000884204D19D480078401C9C49087010BDDE
:10307000F8B505460C4626460CB90120F8BD0022DD
:1030800040F226619B4806F0C4FC1C2094FBF0F142
:1030900000FB114028B11C2094FBF0F0401CC4B28E
:1030A00003E01C2094FBF0F0C4B28F480068A042FB
:1030B00007D2012240F226618E4806F0AAFCFF20CA
:1030C000DCE769468A480068FDF743F98A49844A83
:1030D000127801EBC201486081480078142802DBB5
:1030E00000207F49087000242FE0287882497C4A1C
:1030F000127801EBC20149680855601CC4B21C2C4F
:1031000020DB1C217C48764A127800F83210744883
:103110000078401CC0B272490870142801DB0020FE
:103120000870694672480068FDF713F972496C4AE5
:10313000127801EBC20148606B480068401E6A4982
:10314000086000246D1C701EC6B2002ECDD19CB14B
:1031500069486349097800F8314063480068401EB7
:10316000614908605E480078401CC0B25C49087044
:10317000142801DB002008706148007820B9FFF7AF
:10318000C5FE01205E490870012240F226615948BF
:1031900006F03FFC002071E770B50546002400E012
:1031A000641C285D0028FBD1E1B22846FFF760FFD0
:1031B00070BD30B54FF0FF3062E0534C2478002CE6
:1031C00037D10022454C2478241FE1B24D4C645C79
:1031D000552C01D1541CE2B2404C2478E41EE1B2DB
:1031E000484C645CAA2C01D1541CE2B23B4C2478BC
:1031F000A41EE1B2434C645C152C01D1541CE2B214
:10320000032A38D10124404D2C70344C2478641E9C
:10321000E1B23C4C645C3D4D2C70304C24783C4D0C
:103220002C702E4C2478394D2D782C44394D2C702F
:1032300021E02A4C2478374D2D78AC421BD1002454
:10324000314D2C70324C23780022002107E02D4CA8
:10325000E45C1444E2B25C1CE3B24C1CE1B22B4CC3
:103260002478A142F3DB274CE45C944203D1254C43
:10327000274D2D78605D194C2478641C174D2C70F7
:10328000164C2478144D2D78AC4296D130BD2DE9E2
:10329000F04305460E46079C002700204FF05509D5
:1032A0008046401C04F808904FF0AA098046401C54
:1032B00004F808904FF015098046401C04F8089067
:1032C00003F1020C8046401C04F808C08046401CF4
:1032D00004F8085080461FE0A4010020A50100204A
:1032E0009B0100209C010020A0010020A81E0020BE
:1032F000AC01002000480040081D00209A01002079
:1033000084010020A81D0020A8010020A9010020A0
:10331000A6010020A7010020401C04F808605BB94A
:1033200005EB060C0CF0FF07844600F1010808F0DD
:10333000FF0004F80C7020E005EB060C0CF0FF0712
:10334000002111E012F80190844600F1010808F014
:10335000FF0004F80C9012F801C0BC440CF0FF0709
:1033600001F1010C0CF0FF019942EBDB844600F106
:10337000010808F0FF0004F80C70BDE8F0832DE9A7
:10338000F84F8246504606F0EBFF009007F024F815
:1033900080460022F84B06F06BFF06460022F74BF2
:1033A00006F0F4FE044607F053F883465846BDE89D
:1033B000F88F10B5014600200A46F14CA35C541C5E
:1033C000E2B2EF4CA45C43EA042010BD2DE9F04FBB
:1033D000C7B04FF4807107A806F04BFD002006909F
:1033E000039004900590E7490870E548E64909789C
:1033F00010F80190B9F1040F7ED009DCB9F1010F8A
:103400000DD0B9F1020F78D0B9F1030F76D1A9E14F
:10341000B9F1050F73D0B9F1FF0FF7D1EBE1D8493E
:10342000D9480078401C0C5C132C02D0142C67D1B6
:10343000BFE0D349D4480078801C0E5C304606F0CB
:10344000A5FF82460022D14B06F012FF074606F088
:10345000FFFFCF490860CA49CB480078C01C0E5C0A
:10346000304606F093FF07460022C84B06F000FFE7
:10347000824606F0EDFFC6498860C149C24800781F
:10348000001D0E5C304606F081FF82460022BF4BD5
:1034900006F0EEFE074606F0DBFFBD49C860B849FE
:1034A000B9480078401D0E5C304606F06FFF0746B5
:1034B0000022B64B06F0DCFE824606F0C9FFB44996
:1034C0004861AF49B0480078801D0E5C704206F03C
:1034D0004CFF07460022AD4B06F0CAFE824606F0BE
:1034E000B7FFAB498861A649A7480078C01D0E5CAC
:1034F000704206F03AFF04E07CE1A4E08EE1DAE0FD
:103500009EE007460022A14B06F0B2FE824606F07E
:103510009FFF9F4908629A499B48007808300E5CDB
:10352000304606F033FF82460022984B06F0A0FE9C
:10353000074606F08DFF9649486291499248007807
:1035400009300E5C304606F021FF074600228F4B03
:1035500006F08EFE824606F07BFF8D49C86200258C
:103560000BE089480078801C28448549095C05F1F6
:103570000800884A1154681CC5B2082DF1DB854A41
:103580001021854800F039FA07A800907C487E4950
:1035900009780844821C082321464846FFF777FE35
:1035A000069007A80699FFF763FD01207B49087084
:1035B00047E075490978891CC8B2FFF7FAFE7849D7
:1035C000086071490978091DC8B2FFF7F2FE754914
:1035D00008606D490978891DC8B2FFF7EAFE724993
:1035E0000860694909780831C8B2FFF7E2FE6F49FF
:1035F0000860002509E064480078801C2844604980
:10360000085C64494855681CC5B2082DF3DB614A63
:103610001021614800F0F1F96548047007A8009096
:103620005748594909780844821C082321464846CE
:10363000FFF72DFE069007A80699FFF719FD00E099
:1036400000BF00BFEBE04E494F480078401C0C5CC7
:10365000082C2DD2DFE804F02C040506072C0816F0
:1036600027E026E025E024E007A800231A462146AB
:1036700000904846FFF70BFE069007A80699FFF753
:10368000F7FC16E04B4800681421B0FBF1F0C0B223
:103690008DF8080007A8012302AA21460090484699
:1036A000FFF7F5FD069007A80699FFF7E1FC00E09B
:1036B00000BF00BFB3E0324933480078401C0C5CC7
:1036C000022C02D0042C4AD132E02D492E48007839
:1036D000801C0E5C384806702B480078C01C0E5CBD
:1036E0003046FFF74CFE35490860354933480068DD
:1036F00006F0D4FE00D833E0324800683249086052
:1037000001203249087000202A49086007A800906B
:103710001B481D4909780844821C04232146484659
:10372000FFF7B5FD069007A80699FFF7A1FC17E083
:10373000FEF7EAFA0020254908701E4908601F4973
:10374000086007A800231A46214600904846FFF764
:103750009EFD069007A80699FFF78AFC00E000BFCF
:1037600000BF5CE0064908480078401C0C5C012C56
:103770002ED0022C3BD133E000E06F4000008940A6
:10378000A81D00208B010020A601002000408F40D2
:10379000741B0020A822002010F00108380100202E
:1037A000480100204C01002050010020540100205D
:1037B000BA010020D8020020B001002090010020B2
:1037C0000000C84364020020B40100208C010020E6
:1037D0002B480078062802DC01202A49087007E0FF
:1037E00000202849087003900490059000E000BF75
:1037F00000BF14E013E0012C02D0022C0BD103E037
:1038000001202049087007E000201E49087003903D
:103810000490059000E000BF00BF00E000BF00BFC3
:1038200047B0BDE8F08F10B5174800781749097800
:10383000884205D0FFF7BDFC401C01D0FFF7C6FD54
:1038400010BD0146012903DB642901DA104806E0B6
:10385000642903DBFF2901DC0E4800E000207047EB
:1038600010B502460B460020002105E0545C8C4058
:103870000443E0B24C1CE1B29942F7DB10BD0000FA
:10388000BA0100208B010020A5010020A401002026
:103890009CC4A03E9CC4A0BE08B527208DF80000A3
:1038A00000208DF8010006208DF8020001208DF81F
:1038B0000300684603F0E1FB08BD10B586B004467E
:1038C0000121082005F054F80121880405F05DF875
:1038D0004FF4E06003F0CCFB27208DF800000020BF
:1038E0008DF8010006208DF8020001208DF80300FC
:1038F000684603F0C2FB4FF48060ADF81400182056
:103900008DF8170003208DF8160005A92B4804F048
:1039100079FD4FF40060ADF8140004208DF8170015
:1039200005A9264804F06EFD01940020ADF80800BA
:10393000ADF80A00ADF80C00ADF810000C20ADF8A1
:103940000E0001A91E4805F0CCFF012240F22551CE
:103950001B4806F05EF8012240F22661184806F086
:1039600058F80121164806F048F806B010BD10B509
:103970002021134806F01CF9012805D12021104808
:1039800006F023F9FFF75BFB40210D4806F010F924
:10399000012805D140210A4806F017F9FFF7B6FAC9
:1039A0000821074806F004F9012806D10821044837
:1039B00006F00BF9024806F091F810BD000C01402A
:1039C0000048004070B504460D462668701C08D1BA
:1039D00004F0F9F92946204604F00AFB04F0FFF947
:1039E0000AE004F0F0F9204604F032FA29462046B5
:1039F00004F0FEFA04F0F3F970BD2DE9F04105463C
:103A00000E461746002429E055F80480385D9C498D
:103A1000087038194078487018F101000AD104F094
:103A2000D2F9974A128891B2281904F014FB04F0D5
:103A3000D6F90CE004F0C7F9281904F009FA904A05
:103A4000128891B2281904F006FB04F0C8F9012E7F
:103A500000D105E0A01C84B2B01E86B2002ED3D1E6
:103A600000BFBDE8F08130B50346002013E01C5ACA
:103A7000834D2C60012903D12C46247814540CE08A
:103A80007F4C247814547E4C647815186C70841C18
:103A9000A0B28C1EA1B20029E9D100BF30BD2DE932
:103AA000F74183B00D461646002700240020019000
:103AB000A8460420029004F086F906F2FF30800A3E
:103AC0000190352004F01AFC00BF08E04FF480623A
:103AD000039902FB071004F0BBF902907F1C0198C8
:103AE000874203D29DF808000428EFD0039C05E02C
:103AF00002CD204604F07CFA0290241D0398304445
:103B0000A04203D99DF808000428F1D0039C09E0E5
:103B100058F8041B2068814203D0002006B0BDE89D
:103B2000F081241D03983044A042F1D804F057F9E5
:103B30000120F3E737B5044615462A462046019989
:103B400006F07EF901203EBD2DE9F0414D4A1021DD
:103B50004D48FFF788FF4B4800784A49497840EACA
:103B600001204A490860474880784649C97840EAB8
:103B7000012047490860434800794249497940EAB1
:103B80000120444908603F4880793E49C97940EAAC
:103B90000120414908603B49087A06F0F7FB0646D8
:103BA00000223E4B06F064FB044606F051FC3C4903
:103BB00008603449487A06F0E9FB06460022374B94
:103BC00006F056FB044606F043FC354988602D4953
:103BD000887A06F0DBFB06460022304B06F048FBF5
:103BE000044606F035FC2E49C8602649C87A06F01E
:103BF000CDFB06460022294B06F03AFB044606F0B0
:103C000027FC274948611F49097B484206F0ADFB64
:103C100006460022214B06F02BFB044606F018FC5A
:103C20001F4988611749497B484206F09EFB0646BA
:103C300000221A4B06F01CFB044606F009FC18494A
:103C400008621049887B06F0A1FB06460022134B50
:103C500006F00EFB044606F0FBFB114948620949D9
:103C6000C87B06F093FB064600220C4B06F000FBD7
:103C7000044606F0EDFB0A49C862BDE8F081000089
:103C8000BC010020A822002010F0010848010020FB
:103C90004C010020500100205401002000408F40C2
:103CA000A41B00202DE9F04704464FF07C5120462C
:103CB00006F04FF9814625462E46FE48A0EB6606E3
:103CC00035462946484606F044F98246294606F01C
:103CD00040F980464FF07F5106F038F907462946F3
:103CE00006F037F905462846BDE8F0872DE9F84F7C
:103CF0000446E168084606F02CF90090A1680846E1
:103D000006F027F981466168084606F022F98246E6
:103D10002168084606F01DF98346514606F0C1F8B1
:103D20008046494606F0BDF80746009906F0B9F806
:103D30000646FFF7B7FF05462946206806F009F951
:103D400020602946606806F004F960602946A06892
:103D500006F0FFF8A0602946E06806F0FAF8E06097
:103D6000BDE8F88F2DE9F84F04460D461646316838
:103D7000084606F0EEF800902968084606F0E9F8D3
:103D800082462168084606F0E4F88346514606F06C
:103D900088F88146009906F084F88046FFF782FF94
:103DA00007463946206806F0D4F82060394628686E
:103DB00006F0CFF828603946306806F0CAF830605F
:103DC000BDE8F88F2DE9F04F8DB0074688461546BF
:103DD0001E46DDE9169A189C2946284606F0B9F8D1
:103DE00041460590404606F0B4F8394603903846FF
:103DF00006F0AFF80290039906F053F80490059985
:103E000006F04FF88346FFF74DFF0C9051465046A1
:103E100006F09FF849460590484606F09AF8314664
:103E20000390304606F095F80290039906F039F8B1
:103E30000490059906F035F88346FFF733FF0B90A1
:103E40005146284606F085F849460390404606F05C
:103E500080F831460290384606F07BF801900299CE
:103E600006F01FF88346039906F01BF804900C999E
:103E700006F06FF805900B9906F06BF80A904FF07A
:103E80007E500A9906F05FF8834606F0A5FA0022F4
:103E90004FF08043CDE9000106F0EAF9CDE90201D7
:103EA00008F05CF8CDE9040106F0D2FA0990494621
:103EB000284606F04EF883465146404606F049F83B
:103EC0005946059006F03FF808905146384606F0EE
:103ED00040F883463146284606F03BF8594605909F
:103EE00006F031F807903146404606F032F8834636
:103EF0004946384606F02DF85946059006F023F855
:103F0000069006AA07A908A8FFF72CFF4FF07E50DD
:103F10000A9905F0C6FF834606F05EFA00224FF0CC
:103F20008043CDE9000106F0A3F9CDE9020108F0D4
:103F300015F8CDE9040106F08BFA2060DDE90801EF
:103F400006F007F860600999079806F002F8A0608B
:103F50000999069805F0FDFFE0600DB0BDE8F08F0F
:103F60002DE9FC5F07460C4615461E46DDE90EAB03
:103F7000DDE90C894146284605F0EBFF49460190F2
:103F8000204605F0E6FF0090019905F0DCFFCAF835
:103F900000004946384605F0DCFF314601902846CE
:103FA00005F0D7FF0090019905F0CDFFCBF8000098
:103FB0003146204605F0CDFF41460190384605F0D8
:103FC000C8FF0090019905F0BEFF10990860BDE898
:103FD000FC9F2DE9F05F07460C4615461E46DDE9BD
:103FE0000DABDDF83090DDF828803146384605F01D
:103FF00058FFC9F800004146204605F052FFCAF8B4
:10400000000028460B9905F04CFFCBF80000BDE8F6
:10401000F09F2DE9F84F04460D461646E968E06822
:1040200005F097FF8146A968A06805F092FF8246D7
:104030006968606805F08DFF83462968206805F08F
:1040400088FF5946009005F07EFF8046514605F0F6
:104050007AFF0746494605F076FF3060A968E068B8
:1040600005F077FF8146E968A06805F072FF824697
:104070002968606805F06DFF83466968206805F06F
:1040800068FF5946009005F00CFF8046514605F048
:1040900008FF0746494605F056FF7060E96860680A
:1040A00005F057FF00906968E06805F052FF81460F
:1040B000296801E0DF59375FA06805F04AFF8246B2
:1040C000A968206805F045FF8346514605F0E9FEE2
:1040D0000746494605F0E5FE8046009905F033FFA6
:1040E000B0606968A06805F034FF0090A968606856
:1040F00005F02FFF81462968E06805F02AFF824617
:10410000E968206805F025FF8346514605F0C9FEA1
:104110000746494605F0C5FE8046009905F013FFA5
:10412000F060BDE8F88F30B50021002300224C1E5E
:1041300072E0F748007878BB0022F6480178F6482C
:10414000405C552801D1501CC2B2F2480078401C96
:10415000C1B2F148405C51280BD0EF48405C522876
:1041600007D0ED48405C542803D0EB48405C53280E
:1041700001D1501CC2B2022A49D10120E44D28705D
:10418000E4480078E54D2870E2480078E44D2D7849
:104190002844E44D28703AE0FFE7DE480078E14D1E
:1041A0002D78A84233D10020D94D2870DB48037800
:1041B0000022002107E0D848C05C1044C2B2581C5D
:1041C000C3B2481CC1B2D64800788142F3DBD24862
:1041D000D44D2D78405D904219D1CF4DCF48007815
:1041E000401C285C44B20022002109E0CB48007842
:1041F0000844C3B2C848C05CCB4D6854481CC1B227
:10420000C7480078401C8142F0DBE0B230BDC148B5
:104210000078401CBF4D2870BE480078C34D2D78F3
:10422000A84286D100BFF1E72DE9F04F89B0824660
:104230000C469146BAF1510F7ED0BAF1520F03D01D
:10424000BAF1540F79D12BE1B748C078000200B21F
:10425000E080E088B4498978084400B2E080B24840
:104260004079000200B220812089AF4909790844D1
:1042700000B22081AC48C079000200B26081608940
:10428000A9498979084400B26081B4F9060006F0B2
:104290005EF8A749019005F05CFE834606F09CF8A5
:1042A00007460022A34B05F0E3FF0022A24BCDE915
:1042B000020105F06BFF0022A04BCDE9040105F0DF
:1042C000D7FF05469E4A9F4B05F060FFCDE90601EA
:1042D00006F0BEF8C9F80C00B4F9080006F037F88B
:1042E0009349019005F035FE834606F075F80546C2
:1042F0000022904B05F0BCFF074600228E4B05F0D4
:1043000045FF00228D4BCDE9020105F0B1FF8C4A3B
:104310008C4BCDE9040105F039FFCDE9060106F02B
:1043200097F8C9F81000B4F90A0006F010F88649A9
:10433000019005F00EFE01E04DE00FE1834606F02E
:104340004BF8054600227B4B05F092FF00227A4B8A
:10435000CDE9020105F01AFF0022784BCDE90401F6
:1043600005F086FF0746764A764B05F00FFFCDE94C
:10437000060106F06DF8C9F81400D9F80C0006F033
:104380002BF821F000410546704A714B06F038F8D1
:1043900002D20020C9F80C00D9F8100006F01CF871
:1043A00021F000410546694A694B06F029F802D21E
:1043B0000020C9F81000D9F8140006F00DF821F01B
:1043C00000410546614A624B06F01AF802D200200D
:1043D000C9F81400C3E05448C078000200B220803D
:1043E000208851498978084400B220804E4840799D
:1043F000000200B2608060884B490979084400B22D
:1044000060804948C079000200B2A080A088464977
:104410008979084400B2A080B4F9000005F097FF44
:104420004C49059005F095FD834605F0D5FF002227
:10443000404BCDE9060105F01BFF07460022464B25
:1044400005F0A4FE054606F003F8C9F80000B4F92B
:10445000020005F08AFF07460022364B05F008FFF0
:1044600000223D4BCDE9060105F090FE054605F022
:10447000EFFFC9F80400B4F9040005F076FF00224C
:104480002C4BCDE9060105F0F3FE05460022324B28
:1044900005F07CFE074605F0DBFFC9F808005EE08A
:1044A0002148C078000200B2A081A0891E49897805
:1044B000084400B2A0811C484079000200B2E081AB
:1044C000E08919490979084400B2E0811648C079A9
:1044D000000200B22082208A13498979084400B280
:1044E0002082B4F90C0005F032FF0546194905F0A9
:1044F00030FDC9F81800B4F90E0005F028FFC9F81E
:104500001C00B4F9100005F022FFC9F8200026E0D5
:1045100098020020E9000020B0100020EA000020EE
:1045200079000020EB000020B8220020E8000020E5
:10453000000048430000E04000409F40008066408B
:104540004AD8124DFB210940000082C39A999999DB
:104550009999C93F000080BF0000304000BF00BFF4
:1045600009B0BDE8F08F03B599B0002018901790FE
:10457000199816900020159014901698512808D07C
:104580001698522805D01698532802D01698542809
:104590007ED1FE48007800287BD1FD4AFD4916985F
:1045A000FFF742FE169851281FD0522802D05428F7
:1045B00051D135E0F648C068F749F84A127841F819
:1045C0002200F3480069F649F44A127841F82200C3
:1045D000EF484069F349F14A127841F82200EF4868
:1045E0000078401CED49087045E0E9480068EE4954
:1045F000EE4A127841F82200E5484068EC49EB4A5F
:10460000127841F82200E2488068EA49E74A1278C5
:1046100041F82200E5480078401CE44908702AE08F
:10462000DB488069E449E54A127841F82200D8481D
:10463000C069E349E14A127841F82200D448006A8F
:10464000E049DE4A127841F82200DC480078401C3C
:10465000DA4908700FE0D1480078401CCF49087053
:10466000D2480078401CD1490870D4480078401CDA
:10467000D249087000BF00BFC8480078062808DD8E
:10468000CA4800780628FADDCC480078062801E000
:10469000F1E16EE1F3DD0020149016E01498401C67
:1046A00005F055FEBC491290149851F820000146BF
:1046B0001190129805F04DFC1390159905F0F1FB3F
:1046C00015901498401CC0B21490B44909781498FD
:1046D0008842E3DBBC49159805F071FCBB490860D2
:1046E0000020159008460068B94908600020149021
:1046F00016E01498401C05F02AFEA949129014985F
:1047000051F8200001461190129805F022FC1390F8
:10471000159905F0C6FB15901498401CC0B2149072
:104720009E49097814988842E3DBA749159805F05B
:1047300046FCA64908600020159008460068A54977
:1047400008600020149016E01498401C05F0FFFD4E
:1047500094491290149851F8200001461190129833
:1047600005F0F7FB1390159905F09BFB1590149835
:10477000401CC0B214908949097814988842E3DB40
:104780009149159805F01BFC904908600020159090
:104790000846006890490860002014900DE08249A6
:1047A000149851F8200001461390159805F079FBF4
:1047B00015901498401CC0B214907C490978149844
:1047C0008842ECDB7948007805F0CAFD0146139079
:1047D000159805F0F4FB7D49086000201590084607
:1047E00000687E490860002014900DE0704914981C
:1047F00051F8200001461390159805F052FB1590D2
:104800001498401CC0B214906849097814988842E2
:10481000ECDB6648007805F0A3FD0146139015987F
:1048200005F0CDFB69490860002015900846006836
:104830006B490860002014900DE05E49149851F80F
:10484000200001461390159805F02BFB1590149845
:10485000401CC0B214905549097814988842ECDB8A
:104860005248007805F07CFD01461390159805F03C
:10487000A6FB564908600020159008460068594973
:104880000860002014900DE04B49149851F8200066
:1048900001461390159805F004FB15901498401CE0
:1048A000C0B214904549097814988842ECDB43481B
:1048B000007805F055FD01461390159805F07FFB33
:1048C0004249086000201590084600684649086083
:1048D000002014900DE03A49149851F82000014648
:1048E0001390159805F0DDFA15901498401CC0B28D
:1048F00014903249097814988842ECDB2F480078EC
:1049000005F02EFD01461390159805F058FB2F4930
:1049100008600020159008460068344908600020AF
:1049200014900DE02749149851F820000146139087
:10493000159805F0B6FA15901498401CC0B2149062
:104940001E49097814988842ECDB1C48007805F071
:1049500007FD01461390159805F031FB1B490860CF
:104960000020159008460068214908600120074989
:1049700008700648007800287DD01A4A1849174860
:10498000FFF7F0F91A4A1949174833E0700200207E
:10499000D8220020C422002020230020C0020020B2
:1049A000402300206023002080230020C10200203B
:1049B000A0230020C0230020E0230020C20200200A
:1049C0000024002020240020000010426C0200205F
:1049D00074020020780200207C0200208002002067
:1049E00084020020880200208C0200209002002017
:1049F00094020020FFF7B6F9FE48006805F0ECFCD1
:104A0000CDE90E01FC48006805F0E6FCCDE90C019B
:104A1000DDE90E2307F034F921F00041F74AF84BA5
:104A2000CDE9100105F0AFFBCDE9120105F010FD55
:104A3000F4490860F448006805F0CEFCCDE91001A7
:104A400006F0CEFECDE9120105F002FDEF49086047
:104A50000846006805F0C0FCCDE9080107F0D0F970
:104A6000CDE90C01E748006805F0B6FCCDE904018A
:104A700007F01CFA00E052E3CDE90801E4480068C1
:104A800005F0AAFCCDE90601DDE9082305F07EFB6F
:104A9000CDE90A01DDE90C2305F078FBCDE9100131
:104AA000DA48006805F098FCCDE9040107F0FEF94A
:104AB000CDE90801D348006805F08EFCCDE900017E
:104AC00007F0F4F9CDE90401D248006805F084FC50
:104AD000CDE90201DDE9042305F058FBCDE906012B
:104AE000DDE9082305F052FBCDE90C01C54800685B
:104AF00005F072FCCDE9040107F082F9CDE9080167
:104B0000C548006805F068FCCDE90601DDE9082329
:104B100005F03CFBCDE90A01DDE90C2305F08FFA35
:104B2000CDE90E01DDE9102305F02AFBCDE91201E4
:104B300005F08EFC1890B548006805F04DFCCDE9F5
:104B4000080107F0B3F9CDE90C01B148006805F0A0
:104B500043FCCDE90A01DDE90C2305F017FBCDE9A3
:104B60001001AA48006805F037FCCDE9080107F0FC
:104B700047F9CDE90C01A748006805F02DFCCDE907
:104B80000A01DDE90C2305F001FBCDE90E01DDE9A9
:104B9000102305F054FACDE9120105F059FC1790E5
:104BA0000021189805F070FC03D2189880F000409E
:104BB00018900021179805F067FC03D2179880F031
:104BC0000040179000219348006805F067FC17D259
:104BD00000219148006805F057FC11D2DDE917016A
:104BE00005F0EDF90F9005F0F7FBCDE9100106F0A7
:104BF00035FFCDE9120105F02BFC8849086064E01F
:104C000000218448006805F03FFC1DD20021824845
:104C1000006805F039FC17D2DDE9170105F0CFF97E
:104C20000D9005F0D9FBCDE90E0106F017FF00222B
:104C30007B4BCDE9100105F0A9FACDE9120105F091
:104C400007FC7649086040E000217248006805F0E2
:104C500025FC1DD200217048006805F01FFC17D20A
:104C6000DDE9170105F0ABF90D9005F0B5FBCDE9D5
:104C70000E0106F0F3FE614A614BCDE9100105F02B
:104C800082FACDE9120105F0E3FB644908601CE0FB
:104C9000DDE9170105F093F90B9005F09DFBCDE9D7
:104CA0000C0106F0DBFE554A554BCDE90E0105F02F
:104CB0006AFA00225A4BCDE9100105F067FACDE9F6
:104CC000120105F0C5FB554908605448006805F01D
:104CD00083FB0022534BCDE9060105F057FACDE9DD
:104CE000080107F0E3F8CDE90C014848006805F039
:104CF00073FB00224B4BCDE9020105F047FACDE9E9
:104D0000040107F0D3F8CDE908013E48006805F03A
:104D100063FB0022434BCDE9020105F037FACDE9F0
:104D2000040107F0C3F8CDE90601DDE9082305F029
:104D30002DFACDE90A01DDE90C2305F027FACDE9CA
:104D400010013648006805F047FB0022354BCDE9DD
:104D5000060105F01BFACDE9080107F051F8CDE98D
:104D60000C012A48006805F037FB00222D4BCDE9E5
:104D7000020105F00BFACDE9040107F041F8CDE995
:104D800008012048006805F027FB0022254BCDE9EB
:104D9000020105F0FBF9CDE9040107F031F8CDE996
:104DA0000601DDE9082305F0F1F9CDE90A01DDE9A5
:104DB0000C2305F0EBF9CDE90E01DDE9102305F038
:104DC0003EF9CDE9120105F043FB1A99086013483A
:104DD000006805F001FB0022124BCDE9060105F049
:104DE000D5F9CDE9080107F061F8CDE90C010748D4
:104DF000006819E088020020840200204AD8124D81
:104E0000FB2109405C02002080020020600200209B
:104E100094020020900200208C02002064020020F6
:104E20000000F0BF0000E03F05F0D6FA0022F84B8A
:104E3000CDE9020105F0AAF9CDE9040107F036F841
:104E4000CDE90801F348006805F0C6FA0022F04BEE
:104E5000CDE9020105F09AF9CDE9040106F0D0FF91
:104E6000CDE90601DDE9082305F090F9CDE90A0155
:104E7000DDE90C2305F08AF9CDE91001E648006868
:104E800005F0AAFA0022E24BCDE9060105F07EF911
:104E9000CDE9080106F0B4FFCDE90C01DF48006858
:104EA00005F09AFA0022DA4BCDE9020105F06EF91D
:104EB000CDE9040106F0A4FFCDE90801D54800685A
:104EC00005F08AFA0022D24BCDE9020105F05EF925
:104ED000CDE9040106F0EAFFCDE90601DDE908238A
:104EE00005F054F9CDE90A01DDE90C2305F04EF98E
:104EF000CDE90E01DDE9102305F042F9CDE91201FB
:104F000005F0A6FA1A994860C348006805F064FAEB
:104F10000022BF4BCDE9060105F038F9CDE90801C3
:104F200006F0C4FFCDE90C01BC48006805F054FA56
:104F30000022B74BCDE9020105F028F9CDE90401C3
:104F400006F05EFFCDE90801B248006805F044FABA
:104F50000022AF4BCDE9020105F018F9CDE90401BB
:104F600006F0A4FFCDE90601DDE9082305F00EF9FE
:104F7000CDE90A01DDE90C2305F008F9CDE91001BE
:104F8000A548006805F028FA0022A14BCDE90601EA
:104F900005F0FCF8CDE9080106F032FFCDE90C017F
:104FA0009E48006805F018FA0022994BCDE90201ED
:104FB00005F0ECF8CDE9040106F078FFCDE9080131
:104FC0009448006805F008FA0022914BCDE90201EF
:104FD00005F0DCF8CDE9040106F012FFCDE9060189
:104FE000DDE9082305F0D2F8CDE90A01DDE90C235B
:104FF00005F0CCF8CDE90E01DDE9102305F01FF82E
:10500000CDE9120105F024FA1A99886082480068F7
:1050100005F0E2F900227E4BCDE9060105F0B6F875
:10502000CDE9080106F0ECFECDE90C017B480068F3
:1050300005F0D2F90022764BCDE9020105F0A6F881
:10504000CDE9040106F032FFCDE90801714800689E
:1050500005F0C2F900226E4BCDE9020105F096F889
:10506000CDE9040106F022FFCDE90601DDE90823C0
:1050700005F08CF8CDE90A01DDE90C2305F086F88E
:10508000CDE910016448006805F0A6F90022604BE4
:10509000CDE9060105F07AF8CDE9080106F006FF32
:1050A000CDE90C015D48006805F096F90022584BE7
:1050B000CDE9020105F06AF8CDE9040106F0A0FE91
:1050C000CDE908015348006805F086F90022504BED
:1050D000CDE9020105F05AF8CDE9040106F090FE91
:1050E000CDE90601DDE9082305F050F8CDE90A0114
:1050F000DDE90C2305F04AF8CDE90E01DDE91023C6
:1051000005F03EF8CDE9120105F0A2F91A99C86040
:1051100000204349087043490870434908701BB098
:1051200000BD07B596B00020159014901698139006
:1051300000201290119010900F900E900D900C90F6
:105140000B900A90FBF73FFD099005F009F93749EC
:1051500008601398512808D01398522805D0139846
:10516000532802D01398542851D1314A3149139809
:10517000FFF75AF82E48C0682F49304A127841F894
:1051800022002B4800692E492C4A127841F822004F
:10519000274840692B49294A127841F822002448BF
:1051A00000682949254A127841F8220020484068C1
:1051B0002649224A127841F822001D488068244975
:1051C0001E4A127841F822001948806921491B4A79
:1051D000127841F822001648C0691F49174A127810
:1051E00041F822001248006A1C49144A127841F81A
:1051F000220012480078401C1049087008460078C8
:10520000062801DD00200870002015903FE048E1ED
:105210000000E03F5C0200206402002060020020E9
:10522000C0020020C1020020C2020020B4020020FF
:10523000D8220020C4220020202300206802002061
:10524000402300206023002080230020A023002092
:10525000C0230020E0230020002400202024002080
:105260001598401C05F073F8FE490890159851F800
:10527000200001460790089804F06BFE09901499ED
:1052800004F00FFE14901598401CC0B215901598AC
:105290000628E5DBF449149804F091FE0990F348E0
:1052A0000168099804F04FFE1899C8600020149016
:1052B000159016E01598401C05F049F8EC49089047
:1052C000159851F8200001460790089804F041FE17
:1052D0000990149904F0E5FD14901598401CC0B293
:1052E000159015980628E5DBDF49149804F067FE51
:1052F0000990E0480168099804F025FE18990861B2
:1053000000201490159016E01598401C05F01FF829
:10531000D9490890159851F820000146079008983F
:1053200004F017FE0990149904F0BBFD1490159831
:10533000401CC0B2159015980628E5DBCA491498A0
:1053400004F03DFE0990CD480168099804F0FBFD8A
:10535000189948610020149015900DE0C8491598DF
:1053600051F8200001460990149804F09AFD149019
:105370001598401CC0B2159015980628EEDBC1495F
:10538000149804F01CFE18990860002014901590E1
:105390000DE0BD49159851F8200001460990149878
:1053A00004F07FFD14901598401CC0B2159015981C
:1053B0000628EEDBB349149804F001FE1899486002
:1053C0000020149015900DE0B049159851F8200078
:1053D00001460990149804F064FD14901598401C3F
:1053E000C0B2159015980628EEDBA649149804F073
:1053F000E6FD189988600020149015900DE0A449EE
:10540000159851F8200001460990149804F049FDC0
:1054100014901598401CC0B2159015980628EEDB24
:105420009849149804F0CBFD1899886100201490D5
:1054300015900DE09749159851F820000146099004
:10544000149804F02EFD14901598401CC0B21590CD
:1054500015980628EEDB8B49149804F0B0FD1899D6
:10546000C8610020149015900DE08B49159851F8F3
:10547000200001460990149804F013FD149015982B
:10548000401CC0B2159015980628EEDB7D49149893
:1054900004F095FD189908620020149001207F49BE
:1054A00008707E48007800287ED07D48007800286B
:1054B0007BD07C480068401C7A4908600846006838
:1054C000B0F5487F04D10020086075490870FDE3FD
:1054D000189A08321899091D1898FEF743FC179876
:1054E00040680990179800680890099904F031FD08
:1054F0001290179880680990179800680890099989
:1055000004F027FD11901798C0680990179800685B
:105510000890099904F01DFD1090179840680990B3
:10552000179840680890099904F013FD0F90179898
:1055300080680990179840680890099904F009FD5F
:105540000E901798C06809901798406808900999BC
:1055500004F0FFFC0D9017988068099017988068F8
:105560000890099904F0F5FC0C901798C068099010
:10557000179880680890099904F0EBFC0B90179835
:10558000C06809901798C0680890099904F0E1FC78
:105590000A9011990D9804F0D6FC039004F01CFFBA
:1055A00000224FF0804301E0FEE37EE1CDE90401FB
:1055B00004F0ECFD00223C4BCDE9060104F0E6FDD1
:1055C000CDE9080104F044FF384908600B991298AE
:1055D00004F067FC059004F0FFFE00224FF08043CA
:1055E000CDE9060104F0D2FDCDE9080104F030FF59
:1055F0002F4908604FF07C500F9904F0A4FC0490F0
:105600000C9904F0A0FC059004F0E6FE00224FF097
:105610008043CDE9060104F0B9FDCDE9080104F0AD
:1056200017FF24490860189880680790204801688F
:10563000079804F08EFC09901898406807901D4860
:105640000168079804F085FC0890099904F07BFC38
:10565000194908601898006807901648016807986B
:105660002CE00000202300200000104274020020E3
:105670004023002078020020602300207C020020CC
:10568000802300200000C040A0230020C023002071
:10569000E0230020002400202024002071020020AC
:1056A000C0010020580200200000F0BF400200208E
:1056B00044020020480200209C02002004F049FC23
:1056C0000990189880680790FE480168079804F0D0
:1056D00040FC0890099904F036FCFB4908601898D2
:1056E00040680790F7480168079804F032FC099079
:1056F000189800680790F5480168079804F029FC9D
:105700000890099904F01FFCF1490860F14800680D
:1057100004F062FE21F00041EF4AF04BCDE90801B0
:1057200004F06EFE02D20020EA490860E6480068F4
:1057300004F052FE21F00041E74AE84BCDE90801B0
:1057400004F05EFE02D20020DF490860E0480068F5
:1057500004F042FE21F00041DF4AE04BCDE90801B0
:1057600004F04EFE02D20020D94908600021D94839
:10577000006804F089FE54D00021D348006804F08A
:1057800083FE4ED00021D248006804F07DFE48D050
:10579000D0480168D248006804F0DBFB0990D1488A
:1057A0000168099804F07DFBCE490860C64801688D
:1057B000CD48006804F0CDFB0990CC4801680998F9
:1057C00004F06FFBC9490860C1480168C848006817
:1057D00004F0BFFB0990C7480168099804F061FB19
:1057E000C44908601898C0680990BE4801680998C3
:1057F00004F057FB1899C860189800690990BB48D5
:105800000168099804F04DFB1899086118984069DF
:105810000990B8480168099804F043FB1899486159
:1058200006E00020AF490860B0490860B14908604F
:10583000A8480168B048006804F08BFB09901898EC
:10584000C06801460890099804F02BFB1899C860BD
:105850009D480168A948006804F07BFB09901898EE
:10586000006901460890099804F01BFB189908612B
:1058700097480168A248006804F06BFB09901898EB
:10588000406901460890099804F00BFB189948619B
:105890001898C0689B490860189800699A49086080
:1058A0001898406999490860B9E3189A083218991C
:1058B000091D1898FEF756FA189A203218991C31CB
:1058C00018981830FEF74EFA179840680990179804
:1058D00000680890099904F03CFB129017988068C2
:1058E0000990179800680890099904F032FB11900C
:1058F0001798C0680990179800680890099904F0F3
:1059000028FB1090179840680990179840680890F5
:10591000099904F01EFB0F9017988068099017985A
:1059200040680890099904F014FB0E901798C0681D
:105930000990179840680890099904F00AFB0D90A7
:10594000179880680990179880680890099904F062
:1059500000FB0C901798C068099017988068089011
:10596000099904F0F6FA0B901798C06809901798F7
:10597000C0680890099904F0ECFA0A9011990D9802
:1059800004F08FFA06901898006A01460590069870
:1059900004F0DFFA089010990E9804F0D4FA0490FD
:1059A0001898C06901460390049804F0D2FA069052
:1059B0004FF07C500C9904F0C6FA03900A9904F059
:1059C000C2FA04901898806901460390049804F084
:1059D000C0FA0590069904F064FA0790089904F05B
:1059E00060FA4FF08041099004F0B3FA484908602A
:1059F00012990B9804F0A7FA06901898006A0146CD
:105A00000590069804F0A5FA08904FF07C500F9985
:105A100004F099FA03900A9904F095FA0490189802
:105A2000C06901460390049804F093FA0690109917
:105A30000E9804F036FA0490189880690146039095
:105A4000049804F086FA0590069904F02AFA079063
:105A5000089904F026FA4FF08041099004F079FA91
:105A60002C49086008460168006804F072FA049046
:105A700027480168006804F06CFA0390049904F068
:105A800010FA059004F0A8FCCDE9060106F066FACC
:105A9000CDE9080104F0DCFC1F4908604FF07C50A0
:105AA0000F9904F050FA05900C9904F04CFA069006
:105AB0001898006A01460590069804F04AFA089082
:105AC00012992BE040020020A00200204402002096
:105AD000A40200209C020020FCA9F1D24D62503F9C
