:020000040800F2
:1000000078280020450100089D0200089F02000892
:10001000A3020008A7020008AB02000800000000CD
:10002000000000000000000000000000AF02000817
:10003000B102000800000000B3020008B502000889
:100040005F0100085F0100085F0100085F01000810
:100050005F0100085F0100085F0100085F01000800
:100060005F0100085F0100085F0100085F010008F0
:100070005F0100085F010008A90900085F0100088E
:100080005F0100085F0100085F010008EF0D000834
:100090000B0E00085F0100085F0100085F01000807
:1000A0005F0100085F0100085F0100085F010008B0
:1000B000D70B00085F0100085F0100085F0100081E
:1000C0005F0100085F0100085F0100085F01000890
:1000D0005F010008D90800084B270008FF38000816
:1000E0005F0100085F0100085F0100085F01000870
:1000F0005F0100085F0100085F0100085F01000860
:100100005F0100085F0100085F0100085F0100084F
:10011000F11300085F0100085F0100085F0100089B
:100120005F0100085F0100085F0100085F0100082F
:10013000DFF80CD009F0A0FA004800476901000878
:10014000782800200648804706480047FEE7FEE77B
:10015000FEE7FEE7FEE7FEE7FEE7FEE7FEE7FEE777
:100160000D8C0008310100081CB53FA103C9CDE981
:10017000000108F04BFD4FF4E13000F00FF94FF4AF
:10018000E13001F047FE4FF4164002F06DFE4FF4EF
:10019000E13001F057F900F0BDFE01F013FE00F070
:1001A000B3FC00F02FFC01F055FC02F06FFD02F0F3
:1001B000F5FA03F091FC4FF47A7000F00BFC00F0BC
:1001C00000FD2B49086033E02A4800782A49097865
:1001D00088421CD003F052FD284908700846007878
:1001E00051280BD008460078522807D008460078DE
:1001F000532803D008460078542808D11F480078B7
:1002000003F08EFF1E480078401C1D49087000F066
:10021000D8FC1C4908600968154A1268881A09F058
:1002200005F81949086019491748006809F09CF851
:10023000134800781528C7DB02F086FC142206213B
:10024000134802F092FC32220121124802F08DFC88
:1002500014220A21104802F088FC02F082FC01E01E
:1002600002F0AFFCFCE70000112233445566770032
:1002700008000020E9000020E80000201000002015
:10028000000000200C00002004000020001B374A62
:100290001F2E0008E75E0008C9250008704700BF50
:1002A000FEE700BFFEE700BFFEE700BFFEE77047C6
:1002B0007047704710B502F0ADFC10BD024600203B
:1002C00003E000231354431C98B28842F9DB7047C3
:1002D0002DE9F04F07460D461646994607EB0508EF
:1002E000BA460024A34601E0601C84B22A4850F8B4
:1002F000340008B1082CF7DD082C05DBFF2089F855
:1003000000000020BDE8F08F234840F8347000EB77
:10031000C4000571204800EBC40046711E4800EB84
:10032000C4008671A34605FB06F13846FFF7C6FFF9
:10033000002405E0CAF80080C246A844601C84B2CC
:10034000701EA042F6DC144800EBCB00DAE710B5D3
:1003500002461368907918B9FF200870002010BD7C
:100360009079401E9071907908B1186810601C4611
:10037000241D002008702046F1E7024609B9FF203D
:100380007047091F0B461068186013609079401C75
:1003900090710020F4E700004403002038B50446C3
:1003A0000020FE490870FE490870FE490870FE49A9
:1003B00008701420FD490870204600F03AFA6B4698
:1003C00020221146FA48FFF783FFFA49086038BD3A
:1003D00010B5F6480078142800D110BD002240F274
:1003E0002661F54808F07BFAF448EF49097810F8DF
:1003F000310010B3EC480078EA49097888421CD0F3
:10040000EE48E949097810F83100401EEB49E64A08
:10041000127801F832000846E34A127800EBC20075
:100420004068E74A1278815CE34808F0B9FAE4488A
:100430000078401CE24908705CE0DB480078D9494C
:10044000097888424DD0DD48D74A127800EBC200C7
:100450004168D8480068FFF790FFD3480078401CF7
:10046000C0B2D1490870142801DB00200870CF48C1
:100470000078401CC0B2CD490870142801DB14205C
:1004800008700020CE490870C7480078C54909782F
:1004900088421CD0C948C449097810F83100401E70
:1004A000C1B2C648C04A127800F83210BE4A12786B
:1004B00000EBC2004068C24A1278815CBE4808F076
:1004C0006FFABF480078401CBD49087012E0002058
:1004D000BC4908701420B54908700020B84908705C
:1004E00008E00020B74908701420B04908700020C7
:1004F000B3490870012240F22661AF4808F0EFF9D5
:1005000000BF6AE710B5AC4808F04EFAC1B2A34884
:1005100002780078401CA14B1870AB4881541846F3
:1005200000789F490978884204D19D480078401C92
:100530009B49087010BDF8B505460C4626460CB917
:100540000120F8BD002240F226619B4808F0C7F95F
:100550001C2094FBF0F100FB114028B11C2094FBFF
:10056000F0F0401CC4B203E01C2094FBF0F0C4B2D5
:100570008E480078A04207DA012240F226618E48B8
:1005800008F0ADF9FF20DCE769468A480068FFF70C
:10059000DEFE8A49834A127801EBC2014860814835
:1005A0000078142802DB00207E49087000242FE028
:1005B000287882497B4A127801EBC20149680855C4
:1005C000601CC4B21C2C20DB1C217C48754A1278AC
:1005D00000F8321073480078401CC0B271490870AE
:1005E000142801DB00200870694672480068FFF794
:1005F000AEFE72496B4A127801EBC20148606B484B
:100600000078401E6949087000246D1C701EC6B237
:10061000002ECDD19CB169486249097800F831407B
:1006200062480078401E614908705E480078401CAE
:10063000C0B25C490870142801DB002008706148D2
:10064000007820B9FFF7C4FE01205E49087001223E
:1006500040F22661584808F042F9002071E770B571
:100660000546002400E0641C285D0028FBD1E1B2AF
:100670002846FFF760FF70BD10B54B480078494928
:100680000978884234D04D48474A127800EBC200BE
:10069000416848480068FFF770FE43480078401CF6
:1006A000C0B241490870142801DB002008703F489F
:1006B0000078401CC0B23D490870142801DB1420AA
:1006C0000870394800783749097888420CD03B4A8D
:1006D000354B1B7812F83310334B1B7802EBC302F7
:1006E000506800F01CF924E000203649087020E032
:1006F00032482D4A127800EBC20041682D4800684C
:10070000FFF73BFE28480078401CC0B2264908701D
:10071000142801DB0020087024480078401CC0B277
:1007200022490870142801DB142008700020254994
:10073000087010BD10B55CE0244A1278002A53D12D
:100740000020174A1278921ED1B21F4A525C552AD5
:1007500001D1421CD0B2124A1278521ED1B21A4AAA
:10076000525CAA2A01D1421CD0B20D4A1278184B11
:100770001B68022404FB0322D1B2134A525CFF2AF5
:1007800001D1421CD0B203282ED101220F4B1A7086
:10079000034A12780F4B1A70014A1DE02500002011
:1007A000260000202200002023000020240000203A
:1007B000400500202C00002000380140A00300204C
:1007C0002100002014000020400400202000002010
:1007D0001C000020270000201278094B1B6802240F
:1007E00004FB0322074B1A70074A1278521C064B6F
:1007F0001A70054A1278054B1B789A429CD110BD9D
:100800001C000020280000202600002025000020D9
:1008100008B525208DF8000000208DF80100032088
:100820008DF8020001208DF80300684605F08BFB6F
:1008300008BD10B586B00446012144F2050006F05B
:10084000FDFF01A806F0CDFD4FF40070ADF80400E7
:1008500003208DF8060018208DF8070001A95948DB
:1008600006F036FD01A806F0BCFD4FF48060ADF83F
:10087000040004208DF8070001A9524806F028FD65
:10088000514807F051FF02A807F0FAFF0294002038
:10089000ADF80C00ADF80E00ADF810000C20ADF86E
:1008A00012000020ADF8140002A9474807F07FFFAE
:1008B000012240F22661444808F011F8FFF7A8FF32
:1008C000012240F22551404808F009F801213E4834
:1008D00007F0F9FF06B010BD10B520213A4808F026
:1008E000CDF8012808D12021374808F0D4F837483E
:1008F000007808B1FFF706FE4021334808F0BEF843
:10090000012808D14021304808F0C5F82F48007868
:1009100008B1FFF75DFD01202C49087010BD30B50E
:100920008DB005460C460121084606F07AFF28489E
:1009300006F068F82448001D0290039510200490EA
:1009400005940020069080200790002008900990D0
:100950000A904FF440500B9000200C9002A91C48C4
:1009600006F0F2F801220221194806F024F90E20BF
:100970008DF8040000208DF805008DF80600012098
:100980008DF8070001A805F0DEFA0121104806F0F5
:1009900006F9012280210C4807F0C6FF01210A4810
:1009A00007F091FF0DB030BD10B54FF4005006F0C8
:1009B0002FF9012804D1400306F01FF9FFF75CFE70
:1009C00010BD000000080140003801403000002048
:1009D00044000240002107E0002200E0521C43F2E4
:1009E00078739A42FADB491C8142F5D370470021A3
:1009F00005E0002200E0521C0E2AFCDB491C81426B
:100A0000F7D3704730B57F4800684FF47A72B0FB77
:100A1000F2F1B1F1807F01D301201DE021F07F4090
:100A2000401E4FF0E022506150170F22002807DAD5
:100A300013071D0E744B00F00F04241F1D5503E017
:100A400013071C0E714B1C5400BF00204FF0E02216
:100A5000906107201061002008B100BFFEE74FF051
:100A6000E020006920F001004FF0E021086130BD76
:100A70004FF0E020006940F001004FF0E0210861F4
:100A8000704708B54FF4E06005F058FA1C208DF867
:100A9000000000208DF8010005208DF802000120E3
:100AA0008DF80300684605F04EFA08BD0EB5012129
:100AB000084606F0D0FEFFF7E4FF4FF0804006F056
:100AC00025FF41F28830ADF804004720ADF8000062
:100AD0000020ADF80600ADF8020069464FF08040F6
:100AE00006F0E8FF0121880707F006FE0122114603
:100AF000900707F056FB0121880707F037FB00211C
:100B0000012006F0A8FE0EBD0EB50121062006F05C
:100B1000A2FE684607F0FAFA4FF6FF70ADF804003F
:100B20000020ADF80000ADF80600ADF802006946FF
:100B3000374806F0BFFF00221146354807F0BDFBDD
:100B40000121334807F05EFD3021314807F048FBB2
:100B500007212F4807F08CFD80212D4807F091FDDB
:100B600001212B4807F002FC4FF6FF70ADF804009E
:100B70004720ADF800000020ADF80600ADF80200F7
:100B80006946244806F096FF0121224807F0EEFB53
:100B90000421204807F06CFD01211E4807F03EFDAE
:100BA00020211C4807F05BFD80211A4807F069FDF1
:100BB0000121184807F0DAFA0121154807F0D6FAA2
:100BC0000EBD002012492431088800041149243147
:100BD00009880844704710B50121880707F08FFD88
:100BE00040B10121880707F09BFD0B480068401CBD
:100BF00009490860084800680A2802D3002006490D
:100C0000086010BD2C03002018ED00E000E400E0B7
:100C100000040040000800403400002000B589B006
:100C200014208DF8000000208DF8010001208DF8BF
:100C300002008DF80300684605F085F913208DF851
:100C4000000000208DF8010002208DF80200012034
:100C50008DF80300684605F076F9AA4805F0DCF93E
:100C60000121480606F0F7FD0121082006F0E6FD07
:100C70000121084606F0E2FD4FF48070ADF8140043
:100C800003208DF8160048208DF8170005A99E480E
:100C900006F01EFB4FF40070ADF8140003208DF831
:100CA000160018208DF8170005A9974806F010FBCC
:100CB00001214FF4EA1006F0DAFB06A805F0D0FA9D
:100CC00000208DF81E008DF81F008DF820000120F7
:100CD0008DF8210000208DF822008DF823008DF87A
:100CE0001A008DF81B0001208DF81C0002208DF8E1
:100CF0001D000C20ADF8180006A9824805F0A5F9E2
:100D000000208DF80E008DF80F0001208DF81000E6
:100D10000020ADF80400ADF80600ADF80800ADF80D
:100D20000A00ADF80C0001208DF8110001A805F0B3
:100D300016FA0221734805F012FE0121714805F0F0
:100D40000EFE012203216F4805F008FD09B000BD29
:100D50007FB586B0DDE90E560798029004208DF825
:100D60000C009DF820008DF80D008DF80E50002429
:100D700007E009983044015D0DF10F000155601C3A
:100D8000C4B2AC42F5DB01A95E4805F0D7FA0AB05F
:100D900070BD30B585B00446A07B28B920680090AE
:100DA00000208DF8080001E02068019004208DF8F3
:100DB0000800E07B18B900208DF8090002E002204D
:100DC0008DF80900207B8DF80A00002506E0201D23
:100DD000415D0DF10B004155681CC5B2207BA84256
:100DE000F5DC6946474805F0A9FA05B030BD10B5F5
:100DF0000121444805F019FD012805D10121414890
:100E000005F0ADFD00F097F810BD10B586B001AA51
:100E100000213C4805F087FB9DF80D0000286AD1B1
:100E2000029880B20B2806D0A0F58060093803D064
:100E300003285ED12EE05DE00298C0F30740012850
:100E400006D002280CD0032812D0042820D117E0A5
:100E5000DDF80F10DDF813002C4AC2E9001017E08E
:100E6000DDF80F10DDF81300284AC2E904100FE086
:100E7000DDF80F10DDF81300244AC2E9021007E084
:100E8000DDF80F10DDF81300204AC2E9061000BF9C
:100E900000BF2FE00298C0F30740012806D00228C7
:100EA0000CD0032812D0042820D117E0DDF80F4021
:100EB000204608F0B2F91649086018E0DDF80F4046
:100EC000604208F0AAF91249486010E0DDF80F40CE
:100ED000204608F0A2F90E49886008E0DDF80F40CE
:100EE000604208F09AF90A49C86000E000BF00BFFC
:100EF00000E000BF00BF0021024805F08CFB06B0F7
:100F000010BD000000640040000C014038240020A7
:100F10005824002008B50020F9490870F9490870E4
:100F2000FFF77CFE6B4620221146F748FFF7D0F909
:100F3000F649086008BD1CB5F548006820280DD1A9
:100F40000020F4490870F448F44A127800EB0210CB
:100F5000C168EE480068FFF710FA1CBD00220121AD
:100F6000EF4805F0FBFBEC48EC49097800EB011079
:100F70000078002849D0E9480078EA490978884291
:100F800043D0E548E549097800EB011000780828CE
:100F900020DBE148E149097800EB011000780838CE
:100FA000DD49DE4A127801EB02110870DE48006864
:100FB0000821CDE90010D848D849097800EB011480
:100FC00094E80F00FFF7C4FED74800680830D64900
:100FD000086097E0D4480168CF48D04A127800EB07
:100FE00002100078CDE90001CB48CC49097800EB2C
:100FF000011494E80F00FFF7ABFE0020C649C74A72
:10100000127801EB021108707CE0C4480078C549F1
:10101000097888426DD0C048C04A127800EB0210AF
:10102000C168BA480068FFF7A8F9BC480078401CBE
:10103000C0B2BA490870202801DB00200870B4480B
:101040000068401CB2490860202801D320200860B5
:101050000020B5490860B1480078B2490978884253
:101060003DD0AD48AD49097800EB01100078082863
:1010700021DBA948A949097800EB0110007808385C
:10108000C1B2A548A54A127800EB02100170A6482B
:1010900000680821CDE900109F48A049097800EBBD
:1010A000011494E80F00FFF753FE9F4800680830D2
:1010B0009D49086026E09C4801689748974A127845
:1010C00000EB02100078CDE90001934893490978BC
:1010D00000EB011494E80F00FFF73AFE12E0002045
:1010E0008C49087020208A49086000208E490860D9
:1010F00008E000208749087020208549086000200A
:101100008949086001221146854805F027FB00BF88
:1011100023E72DE9F84305460C4616461F46A04630
:1011200014B90120BDE8F883002201217C4805F0B4
:1011300015FB1C2094FBF0F100FB114028B11C2092
:1011400094FBF0F0401CC4B203E01C2094FBF0F0D0
:10115000C4B26F480068A04206D20122114670480E
:1011600005F0FCFA0120DDE7694668480068FFF7F2
:10117000EEF869496B4A127801EB0211C8606948C0
:101180000078202802DB00206649087000243EE039
:1011900029786148634A127800EB0210C068015553
:1011A000601CC4B21C2C2DDB5B485E49097800EB47
:1011B000011046601C2058495A4A127801EB02116E
:1011C000087055485749097800EB011007725548D7
:1011D0000078401CC0B253490870202801DB002071
:1011E0000870694649480068FFF7B1F84A494D4A16
:1011F000127801EB0211C86045480068401E44495E
:10120000086000246D1CA8F1010000F0FF08B8F18F
:10121000000FBDD104B340484249097800EB0110EA
:1012200046603D483F49097800EB011004703A4898
:101230003C49097800EB0110077235480068401EF0
:101240003349086037480078401CC0B235490870FF
:10125000202801DB002008702E48007820B90120EA
:101260002C490870FFF767FE012211462C4805F053
:1012700075FA002056E7002000212C4A116000BFBB
:1012800003E000212A4A1154401CFF28F9DD704771
:1012900010B50246002000BF03E00023244C235475
:1012A000401CFF28F9DD10BD0FB430B500209DF8BB
:1012B000161000BF17E00DF11702135C104A1478E6
:1012C0001278521C0E4D2A70194A13552A4612786C
:1012D0000C4B1B789A4204D10A4A1278521C094BD3
:1012E0001A70421CD0B28842E5DB30BC5DF814FBBA
:1012F000024622B10F4802600F48017023E01DE052
:101300005400002055000020600C002058000020F0
:101310003C0000204100002060090020390000202E
:1013200000640040380000205000002044000020ED
:10133000600B0020480000204C000020B2F5807FA8
:1013400001D9FF2070470020FCE7000010B586B0EF
:10135000044634208DF8000000208DF801000420A0
:101360008DF8020001208DF80300684604F0EBFDC3
:101370000121102006F062FA0121C80406F06BFA80
:101380002D48406820F480602B494860084640683A
:1013900060F480604860C814ADF8140004208DF833
:1013A000170005A9244805F093FF01940020ADF82B
:1013B0000800ADF80A00ADF80C00ADF810000C20E4
:1013C000ADF80E0001A91D4807F0F1F9012240F225
:1013D00025511A4807F083FA012240F22661174886
:1013E00007F07DFA0121154807F06DFA06B010BD2F
:1013F00010B52021114807F041FB012808D1202118
:101400000E4807F048FB0E48007808B100F0CEF80F
:1014100040210A4807F032FB012808D14021074843
:1014200007F039FB0648007808B100F025F80120E4
:101430000349087010BD000000100140004C00403E
:101440005C00002038B504460020FE490870FE49C3
:101450000870FE490870FE4908701420FD490860B4
:101460002046FFF773FF6B4620221146FA48FEF72D
:101470002FFFFA49086038BD10B5F64800681428F7
:1014800000D110BD002240F22661F54807F027FA8E
:10149000F448EF49097810F8310018B3EC480078A7
:1014A000EA49097888421DD0EE48E949097810F8E0
:1014B0003100401EEB49E64A127801F83200084636
:1014C000E349097800EBC1004068E749097844180E
:1014D0002178E34807F064FAE3480078401CE249C9
:1014E00008705BE0DA480078D849097888424CD027
:1014F000DC48D74A127800EBC2004168D748006840
:10150000FEF73BFFD2480078401CC0B2D0490870BB
:10151000142801DB00200870CE480068401CCD492B
:101520000860142801D3142008600020CE490870F8
:10153000C7480078C549097888421CD0C948C449C1
:10154000097810F83100401EC649C14A127801F8E6
:1015500032000846BE4A127800EBC2004068C24A18
:101560001278815CBE4807F01BFABF480078401C27
:10157000BD49087012E00020BC4908701420B5492C
:1015800008600020B849087008E00020B7490870DA
:101590001420B04908600020B3490870012240F2CD
:1015A0002661AF4807F09BF900BF6AE710B5AC4869
:1015B00007F0FAF9C1B2A34802780078401CA14BA9
:1015C0001870AB488154184600789F4909788842C2
:1015D00004D19D480078401C9B49087010BDF8B5A7
:1015E00005460C4626460CB90120F8BD002240F203
:1015F00026619B4807F073F91C2094FBF0F100FB77
:10160000114028B11C2094FBF0F0401CC4B203E050
:101610001C2094FBF0F0C4B28E480068A04207D2B0
:10162000012240F226618E4807F059F9FF20DCE7DD
:1016300069468A480068FEF78AFE8A49834A12781A
:1016400001EBC201486081480078142802DB0020C9
:101650007E49087000242FE0287882497B4A12785E
:1016600001EBC20149680855601CC4B21C2C20DB88
:101670001C217C48754A127800F8321073480078B3
:10168000401CC0B271490870142801DB00200870AA
:10169000694672480068FEF75AFE72496B4A127832
:1016A00001EBC20148606B480068401E6949086050
:1016B00000246D1C701EC6B2002ECDD19CB16948AD
:1016C0006249097800F8314062480068401E61496B
:1016D00008605E480078401CC0B25C49087014285D
:1016E00001DB002008706148007820B9FFF7C4FED4
:1016F00001205E490870012240F22661584807F037
:10170000EEF8002071E770B50546002400E0641C87
:10171000285D0028FBD1E1B22846FFF760FF70BDCD
:101720007EB50020F5E0534C2478002C4AD10022ED
:10173000454C2478641EE1B24D4C645C022C01D10E
:10174000541CE2B2404C24784B4D2D68022606FB17
:101750000544E1B2464C645C0D2C01D1541CE2B24C
:10176000394C2478444D2D68022606FB0544641C40
:10177000E1B23F4C645C0A2C01D1541CE2B2324C01
:1017800024783D4D2D68022606FB0544A41CE1B2D9
:10179000374C645C032C01D1541CE2B2042A10D1F2
:1017A0000124344D2C700120274C2478334D2C70AB
:1017B000254C2478304D2D68022606FB0544304D1B
:1017C0002C70A1E0204C24782D4D2D78AC42F8D11E
:1017D0000024284D2C70002100238DE0274C247814
:1017E0000C44234D2C5D302C0EDB244C24780C440F
:1017F0002C5D392C08DC214C24780C442C5D303CC9
:10180000E4B20DF8014014E01C4C24780C44184D4F
:101810002C5D412C0DDB194C24780C442C5D462C9E
:1018200007DC164C24780C442C5D373CE4B20DF8F0
:101830000140124C24780C44641C0D4D2C5D302C5E
:1018400032DB1FE0E8000020E9000020E00000207B
:10185000E1000020E400002000120020F000002041
:10186000004C004060100020DE00002060000020DE
:10187000001100207800002074000020EA00002001
:10188000EB000020684C24780C44641C2C5D392C3F
:101890000ADC654C24780C44641C2C5D303CE5B2B9
:1018A0004C1C0DF8045018E05F4C24780C44641C68
:1018B0005E4D2C5D412C10DB5B4C24780C44641C89
:1018C0002C5D462C09DC584C24780C44641C2C5D9F
:1018D000373CE5B24C1C0DF804504C1C1DF804506C
:1018E0001DF8014005EB0414E6B21C465D1CEBB28A
:1018F0004F4D2E558C1CE1B24E4C2468641E640082
:101900008C423FF66BAF01204B4C2478641C4A4D4F
:101910002C70494C2478494D2D78AC427FF403AFAC
:101920007EBD10B50146012024E00A7800EB80035B
:10193000434CE35C9A421CD14A7800EB8003234479
:101940005B789A4215D18A7800EB800323449B7818
:101950009A420ED1CA7800EB80032344DB789A4286
:1019600007D10A7900EB800323441B799A4200D106
:1019700002E0401C1428D8DB00BF324A1278324BF8
:101980001A70012801DB102800DD10BD2D4B1870E6
:1019900000BFFAE730B5C1B000244FF4807101A850
:1019A00007F0CDF9002524480078244909788842B9
:1019B00021D0FFF7B5FEF0B10120244908700522BF
:1019C0001B49234807F0C6F9A8B11948FFF7A9FF3A
:1019D00001A801231B4A04210090022001F01FFCF2
:1019E000C4B2214601A801F00BFB194810490A684E
:1019F00002600979017141B030BD00200AE011494F
:101A0000097801EB81010E4A1144095C084A11541E
:101A1000411CC8B20528F2DB0D49054A13680B606A
:101A200012790A7170470000EA00002000110020BE
:101A30006100002074000020E9000020E800002080
:101A40007A00002066000020670000206800002067
:101A50006900002008B50121512005F0EFFE0420A7
:101A6000ADF8000010208DF8030003208DF802006F
:101A70006946CB4805F02CFC0421C94805F0D3FC8D
:101A80004FF48040ADF8000010208DF803000320D3
:101A90008DF802006946C34805F01AFC4FF48041F6
:101AA000C04805F0C0FC08BD0146002901DD08461C
:101AB0007047002901DA4842FAE70846F8E72DE9BD
:101AC000F04F85B08246DFF8E0B2B8480068B74909
:101AD00089680844B54949680844B449C968441844
:101AE000E11704EB9171881007F097FB0290AF4863
:101AF00000684042AD4989680844AC4949680844D7
:101B0000AA49C968441AE11704EB9171881007F0DB
:101B100084FB0390A54909684942A44A926811448C
:101B2000A24A5268891AA14AD268881807F083FB32
:101B300006460F46584607F0B5FB00229C4BCDE900
:101B4000000107F089FA804632463B4607F084FAE6
:101B5000044607F0E3FB97490490086002A807C811
:101B60008AE8070005B0BDE8F08FFFB585B00446F0
:101B7000914D2846089907F052F90646DDE906011D
:101B800007F047F90746314607F043F90190284628
:101B9000089907F044F90646DDE9060107F0E7F881
:101BA0000746314607F0E3F802902846089907F007
:101BB00036F90646DDE9060107F0D9F80746314651
:101BC00007F027F903902846089907F028F90646F8
:101BD000DDE9060107F01DF90746314607F0C7F8B1
:101BE000049001A80FC884E80F0009B0F0BD2DE9EA
:101BF000FF470C9C6C4DDDE9000107F0B8F880460A
:101C0000029907F0B4F80746039907F0B0F80646C2
:101C10004FF0814107F039F92060009880F00049C9
:101C20004846019907F0A3F88046029907F09FF80B
:101C30000746039907F0EDF806464FF0814107F09B
:101C400024F96060009880F0004A5046019907F03E
:101C50008EF88146029907F0DCF88046039907F078
:101C600086F80746294607F0DAF806464FF0814124
:101C700007F00BF9A060BDE8FF872DE9FC410446A1
:101C80000D4616461F464DA103C9CDE90001F8B225
:101C90008DF80300F0B28DF80400E8B28DF805006D
:101CA0009DF802009DF8031008449DF804100844B4
:101CB0009DF805100844C0B28DF8060000232246A6
:101CC00008216846FFF725FABDE8FC817CB504468B
:101CD0000D46002040EA044000F2053608208DF849
:101CE00000008DF8014090208DF8020000208DF852
:101CF000030001950023224608216846FFF709FAF0
:101D00007CBD704710B500211E20FFF7DFFF0021CA
:101D10001420FFF7DBFF00211720FFF7D7FF00217A
:101D20001A20FFF7D3FF10BD7FB54FF07E5100980A
:101D300007F075F8054607F09CFA044621461E2078
:101D4000FFF7C4FF019880F000464FF07E51304607
:101D500007F065F8054607F08CFA04462146142082
:101D6000FFF7B4FF4FF07E51029807F058F8054690
:101D700007F07FFA044621461720FFF7A7FF0398D4
:101D800080F000464FF07E51304607F048F8054697
:101D900007F06FFA044621461A20FFF797FF7FBD30
:101DA000001801400010014090C4DF3A40090020B3
:101DB0000000D03FF40000200070124455AA030038
:101DC000000000FF08B50121402005F037FD032089
:101DD000ADF8000010208DF8030003208DF80200FC
:101DE00069460B4805F074FA0321094805F01BFB0E
:101DF00008BD10B50121064805F008FBC0F101003F
:101E0000C4B222460121024805F011FB10BD0000BA
:101E10000018014038B504460020FE490870FE490C
:101E20000870FE490870FE4908701420FD490860DA
:101E3000204600F032FC6B4620221146FA48FEF79D
:101E400047FAFA49086038BD10B5F648006814280A
:101E500000D110BD002240F22661F54806F03FFD9A
:101E6000F448EF49097810F8310010B3EC480078D5
:101E7000EA49097888421CD0EE48E949097810F807
:101E80003100401EEB49E64A127801F8320008465C
:101E9000E34A127800EBC2004068E74A1278815C9E
:101EA000E34806F07DFDE4480078401CE2490870F4
:101EB0005BE0DB480078D949097888424CD0DD489E
:101EC000D74A127800EBC2004168D8480068FEF794
:101ED00054FAD3480078401CC0B2D1490870142885
:101EE00001DB00200870CF480068401CCD49086025
:101EF000142801D3142008600020CF490870C84876
:101F00000078C649097888421CD0CA48C449097873
:101F100010F83100401EC1B2C648C14A127800F81C
:101F20003210BF4A127800EBC2004068C24A1278F1
:101F3000815CBF4806F034FDBF480078401CBE49B4
:101F4000087012E00020BD4908701420B5490860EF
:101F50000020B949087008E00020B8490870142032
:101F6000B04908600020B4490870012240F226619F
:101F7000AF4806F0B4FC00BF6BE710B5AC4806F004
:101F800013FDC1B2A34802780078401CA14B187021
:101F9000AB488154184600789F490978884204D19B
:101FA0009D480078401C9C49087010BDF8B5054656
:101FB0000C4626460CB90120F8BD002240F22661ED
:101FC0009B4806F08CFC1C2094FBF0F100FB1140B8
:101FD00028B11C2094FBF0F0401CC4B203E01C208C
:101FE00094FBF0F0C4B28F480068A04207D20122EF
:101FF00040F226618E4806F072FCFF20DCE769465D
:102000008A480068FEF7A3F98A49844A127801EBEE
:10201000C201486081480078142802DB00207F4913
:10202000087000242FE0287882497C4A127801EB5E
:10203000C20149680855601CC4B21C2C20DB1C215D
:102040007C48764A127800F8321074480078401CB8
:10205000C0B272490870142801DB0020087069467C
:1020600072480068FEF773F972496C4A127801EB06
:10207000C20148606B480068401E6A49086000243D
:102080006D1C701EC6B2002ECDD19CB1694863494B
:10209000097800F8314063480068401E61490860D3
:1020A0005E480078401CC0B25C490870142801DB0F
:1020B000002008706148007820B9FFF7C5FE0120B4
:1020C0005E490870012240F22661594806F007FC7B
:1020D000002071E770B50546002400E0641C285D0F
:1020E0000028FBD1E1B22846FFF760FF70BD30B594
:1020F000014600240A46524DAB5C551CEAB2504DD5
:10210000AD5C43EA0524204630BD2DE9FE4F4C4826
:102110004C490978405C02900298212876D009DC6D
:10212000A0F11A0007282AD2DFE800F041D5E3EB3E
:10213000FD29FC00A2282ED006DC302867D03128EB
:1021400066D0A1281BD104E0A3282ED0A428F9D161
:102150002CE03B493B480078401C0C5C3A4804703A
:1021600038480078801C0C5C204601F0D0F83749D4
:10217000086037493548006807F0F6F800D8B0E144
:102180003448006834490860012034490870002050
:1021900033490860A5E1FFF7B5FD00202F4908701D
:1021A0002F490860294908609BE19AE199E12DA235
:1021B0002FA1684607F0D0FA08216846FFF7F6FE1F
:1021C0002448006807F06EF805462A460B4629A108
:1021D000684607F0C1FA07216846FFF7E7FE26A226
:1021E00023A1684607F0B8FA0A216846FFF7DEFE29
:1021F0002448006807F056F805462A460B461DA1FC
:10220000684607F0A9FA072168463DE0E0E0EAE009
:1022100020E100001C0100201D010020160100200B
:102220001701002018010020A01700202401002021
:10223000004400400016002015010020000100208D
:10224000A01600201E010020B00100201001002077
:102250000000C8439C020020B401002014010020AB
:10226000280300202020796177203D200000000015
:1022700025730000256600002020706974636820C3
:102280003D20000098020020FFF790FED5A2AFF29B
:102290002001684607F060FA09216846FFF786FECC
:1022A000D348006806F0FEFF05462A460B46AFF20B
:1022B0003C01684607F050FA07216846FFF776FEB2
:1022C000CCA2AFF25401684607F046FA02216846F4
:1022D000FFF76CFE05E10120C7490870C749C848EF
:1022E0000078401C0C5C204601F011F8C5490860DC
:1022F000F7E0FFF707FD0020BF490870C1490860FB
:10230000EFE0BE49BE480078401C0C5C204606F059
:10231000A3FF0546BC4ABD4B06F09EFE07460022C1
:10232000BB4B01E030E027E006F008FF824606F0F4
:10233000F5FFB44908600846006806F0B3FF05469B
:102340004FF03332B34B06F0D5FF03D8B248AD4956
:1023500008600DE0AB48006806F0A4FF05464FF0AA
:102360003332AE4B06F0B2FF02D8AD48A549086043
:102370000120AC490870B4E0FFF7C4FC0020A94973
:102380000870A0490860ACE00120A7490870A7497F
:1023900008709A499A480078801C095C974A9848C6
:1023A0000078401C105C41EA00200FFA80F9484692
:1023B00006F041FF074600229D4B06F0BFFE054692
:1023C00006F0ACFF9B49086000208E49086088E059
:1023D000002095490870FFF795FC002089490860A6
:1023E000924908707DE0854985480078401C0C5C66
:1023F000204606F031FF074600228F4B06F09EFE76
:10240000054606F08BFF8D4908607C497C480078C2
:10241000801C0C5C204606F01FFF07460022864BFE
:1024200006F08CFE054606F079FF84494860734942
:1024300073480078C01C0C5C204606F00DFF074670
:1024400000227D4B06F07AFE054606F067FF7B49C9
:10245000886046E069496A480078401C0C5C204668
:1024600006F0E4FE76490860084600687549086091
:102470007348006874490860604961480078801CAE
:102480000C5C204606F0E8FE07460022684B06F08A
:1024900055FE054606F042FF6C4908600846006894
:1024A0006B490860694800686A49086053495448A4
:1024B0000078C01C0C5C204606F0CEFE05460022CB
:1024C0005B4B06F03BFE074606F028FF62490860BA
:1024D00008460068614908605F4800686049086014
:1024E00000BF00BFBDE8FE8F30B54FF0FF3064E0A5
:1024F0005C4C2478002C37D100215B4C2478641F7D
:10250000E2B23E4CA45C552C01D14C1CE1B2564CBD
:102510002478241FE2B2394CA45CAA2C01D14C1CB3
:10252000E1B2514C2478E41EE2B2344CA45C1E2C7F
:1025300001D14C1CE1B203293AD10124494D2C7040
:10254000494C2478641EE2B22C4CA45C474D2C709C
:10255000454C24782A4D2C70434C2478434D2D78DB
:102560002C44434D2C7023E03F4C2478404D2D7873
:10257000AC421DD100243B4D2C70214C237800210E
:10258000002207E01D4CE45C0C44E1B25C1CE3B2A9
:10259000541CE2B2354C2478A242F3DBCC43E1B2C6
:1025A000164CE45C8C4203D1144C154D2D78605DC3
:1025B0002D4C2478641C2C4D2C702B4C24782D4DE4
:1025C0002D78AC4294D130BD10B527480078294908
:1025D0000978884205D0FFF787FF401C01D0FFF73C
:1025E00094FD10BD2020726F6C6C203D2000000017
:1025F000940200200D0A00006C010020A0160020AB
:102600001E010020100100204AD8124DFB21094074
:10261000008066403333E33F9A99193F3333E3BF79
:102620009A9919BF6D0100206E010020140100204D
:1026300000002440B401002000005940241C002068
:10264000580200205C02002060020020640200208A
:10265000680200206C02002070020020740200203A
:1026600078020020200100201D010020210100200F
:102670001F0100201C01002008B526208DF8000055
:1026800000208DF8010006208DF8020001208DF851
:102690000300684603F057FC08BD10B586B0044639
:1026A0000121042005F0CAF80121480405F0D3F8FF
:1026B0004FF4E06003F042FC26208DF8000000207B
:1026C0008DF8010006208DF8020001208DF803002E
:1026D000684603F038FC0420ADF8140018208DF88B
:1026E000170003208DF8160005A9294804F0F0FD15
:1026F0000820ADF8140004208DF8170005A924481F
:1027000004F0E6FD01940020ADF80800ADF80A00E1
:10271000ADF80C00ADF810000C20ADF80E0001A9CA
:102720001C4806F044F8012240F22551194806F0F1
:10273000D6F8012240F22661164806F0D0F80121B1
:10274000144806F0C0F806B010BD10B5202111489D
:1027500006F094F9012808D120210E4806F09BF9D3
:102760000D48007808B1FFF708FC4021094806F041
:1027700085F9012808D14021064806F08CF9064861
:10278000007808B1FFF760FB01200349087010BD15
:1027900000080140004400402801002008B5012144
:1027A0007D2005F04BF8F020ADF8000048208DF8B2
:1027B000030003208DF802006946B54804F088FD47
:1027C0004FF20300ADF8000048208DF8030003200D
:1027D0008DF802006946AF4804F07AFD4FF47C7032
:1027E000ADF8000048208DF8030003208DF80200AA
:1027F0006946A94804F06CFD4FF47F40ADF8000035
:1028000048208DF8030003208DF802006946A34894
:1028100004F05EFD4FF4FF40ADF8000048208DF855
:10282000030003208DF8020069469D4804F050FD26
:1028300000209C4908709C489C4908609C4888601E
:102840009948C8609A49994841619A48974988616E
:10285000994996480162944894494862944993483A
:10286000C162914895490860954848600020886099
:10287000944908609449086008BD2DE9FF4782B07B
:102880001C46DDE90E780020009001908F48016819
:102890008F48006806F05EFD04D000208A49086079
:1028A0008C4908608A4801688B48006806F0B1FAD4
:1028B000844908600846006806F0F4FC05464FF0BD
:1028C0003332864B06F002FD0DD27E48006806F0DA
:1028D000E9FC05464FF03332814B06F00BFD02D286
:1028E00000207849086077490398096806F097FA4C
:1028F000054678480168284606F039FA75490860A7
:10290000714801686F48006806F083FA81464946BD
:10291000049806F084FA06466A490298096806F0A7
:102920007EFA82466B480168504606F020FA05465A
:10293000314606F01CFAA060A06806F0B3FC05461C
:102940004FF03332674B06F0D5FC02D86648A060E2
:102950000BE0A06806F0A6FC05464FF03332634B4F
:1029600006F0B4FC01D86248A060A06806F09AFCAA
:102970000546604A604B06F0A9FC0AD8A06806F03C
:1029800091FC05465B4A5D4B06F0B4FC01D8002083
:10299000A0604C4800684C4908604D4800684B49AD
:1029A000086006B0BDE8F0872DE9F04188B0074621
:1029B0000E46144600253B480078A0B100BF0DE04C
:1029C00005EB4500394901EB800005EB45014C4A18
:1029D00002EB81030ECB0EC0681CC5B2042DEFDBE9
:1029E000002030490870012E06D0022E0CD0032E94
:1029F00017D0042E2BD11DE02C4A07CA05AB07C304
:102A000002940020039023E0284AD2E9031052697F
:102A1000CDE90602059184F0004002900020039069
:102A200016E0224A183207CA05AB07C300200290FD
:102A300003940DE01D4AD2E90910D26ACDE90602DD
:102A400005910020029084F00040039000E000BF58
:102A500000BF204606F00DFCB0F1000801DB404647
:102A600001E0C8F1000010B92648007838B102AB87
:102A70001248CDE9006407C8FFF7FFFE01E000201F
:102A8000049002A807C887E8070008B0BDE8F081F5
:102A900000080140000C01400010014000140140FA
:102AA00000180140380100208FC2753DF41B002042
:102AB0008FC2F53C8FC275BD8FC2F5BC241C0020AF
:102AC0000AD7A33B3C010020400100203401002034
:102AD000B4010020300100209C0200203333D33F9A
:102AE0003333D3BF3333E33F9A99193F3333E3BFD3
:102AF0009A9919BF7B14AE47E17A843FE17A84BF8B
:102B0000C41B00206E010020014601EB41005E4A1B
:102B100052F8200008B908207047002001EB41025C
:102B2000594B43F8220001EB410203EB82029080F3
:102B300001EB410203EB8202D08001EB410203EB87
:102B40008202107200BFE7E710B5FDF75BFF0024BB
:102B500004E02046FFF7D8FF601CC4B2102CF8DB5D
:102B600010BD10B5FDF784FF10BD70B503460C46CF
:102B7000002101E0481CC1B201EB4100424D55F873
:102B8000200008B11029F5DB102901D1082070BD03
:102B900001EB41003C4D45F8203001EB410005EBD5
:102BA0008000848001EB410005EB8000C2800020A2
:102BB00001EB4105344E06EB850528720846E6E731
:102BC000704710B5002420E004EB44002E4901EBCF
:102BD0008000007A002816DD04EB44012A4A52F8EE
:102BE00021008047002004EB4401274A02EB8101C9
:102BF000087204EB4400114601EB8000C08810B954
:102C00002046FFF781FF601CC4B2102CDCDBFFF70D
:102C1000D7FF10BD002033E000EB40011A4A52F804
:102C2000211059B300EB400102EB81018988C1B941
:102C3000012100EB4002144B03EB8202117200EB06
:102C400040011A4602EB8101C988B9B100EB40018D
:102C500002EB8101C98800EB400203EB8202918004
:102C60000CE000EB4001084A02EB81018988491E13
:102C700000EB4002044B03EB82029180411CC8B27E
:102C80001028C9DB70470000301C00200120674974
:102C90000870674867490860042067490860002099
:102CA00066494860002165488160C1600120634930
:102CB00008740020704710B58CB00446201D07C86A
:102CC00009AB07C301A809A90EC9FEF74EFF02A868
:102CD0000DC80199CDE90723CDE9051005A80FC856
:102CE000FFF722F80CB010BD10B500244F48007853
:102CF000C0B100BF08E04F48006850F82400007CD5
:102D000000B105E0601CC4B24B4800688442F2DBAD
:102D100000BF474850F82400494908600846006849
:102D2000FFF7C9FF10BD0EB54648007868B1052011
:102D30004549087045480068486000214248816064
:102D4000C1600120404908742BE04148007878B107
:102D500005203D4908700020486000213A48816004
:102D60003A4801683848C16001203749087418E0C2
:102D70003848007890B1052033490870334802681C
:102D8000354801786846FFF70FFE2F489DE80E0092
:102D9000001D0EC001202C49087402E000202A49C1
:102DA00008740EBD30B502460B460024002104E035
:102DB000555C2544ECB24D1CE9B20829F8DB9C4275
:102DC00001DB012000E0002030BD30B503460C4699
:102DD0000020214605E05D5C012D00D101204D1C45
:102DE000E9B29142F7DD30BD0EB51C48007890B1D4
:102DF00005201B4908701B4802681748017868467F
:102E0000FFF7D2FD16489DE80E00001D0EC0012000
:102E10001349087402E00020114908740EBD10B572
:102E2000FFF781FFFFF760FF10BD00008001002069
:102E300058010020780100207C010020381D00206E
:102E4000680100206C010020FC1C00201001002003
:102E50006D01002014010020B00100208C01002031
:102E6000241D00209001002038B504460020FE49B2
:102E70000870FE490870FE490870FE490870142069
:102E8000FD490860204600F0E0FC6B462022114618
:102E9000FA48FDF71DFAFA49086038BD10B5F64842
:102EA0000068142800D110BD002240F22661F548C8
:102EB00005F015FDF448EF49097810F8310010B31A
:102EC000EC480078EA49097888421CD0EE48E94984
:102ED000097810F83100401EEB49E64A127801F8F3
:102EE00032000846E34A127800EBC2004068E74A25
:102EF0001278815CE34805F053FDE4480078401CFB
:102F0000E24908705BE0DB480078D94909788842DB
:102F10004CD0DD48D74A127800EBC2004168D8484F
:102F20000068FDF72AFAD3480078401CC0B2D149A6
:102F30000870142801DB00200870CF480068401C8E
:102F4000CD490860142801D3142008600020CF491F
:102F50000870C8480078C649097888421CD0CA4819
:102F6000C449097810F83100401EC1B2C648C14AB0
:102F7000127800F83210BF4A127800EBC2004068A5
:102F8000C24A1278815CBF4805F00AFDBF4800784C
:102F9000401CBE49087012E00020BD490870142092
:102FA000B54908600020B949087008E00020B84918
:102FB00008701420B04908600020B449087001224C
:102FC00040F22661AF4805F08AFC00BF6BE710B500
:102FD000AC4805F0E9FCC1B2A34802780078401C77
:102FE000A14B1870AB488154184600789F49097866
:102FF000884204D19D480078401C9C49087010BD4F
:10300000F8B505460C4626460CB90120F8BD00224D
:1030100040F226619B4805F062FC1C2094FBF0F115
:1030200000FB114028B11C2094FBF0F0401CC4B2FE
:1030300003E01C2094FBF0F0C4B28F480068A0426B
:1030400007D2012240F226618E4805F048FCFF209D
:10305000DCE769468A480068FDF779F98A49844ABD
:10306000127801EBC201486081480078142802DB25
:1030700000207F49087000242FE0287882497C4A8C
:10308000127801EBC20149680855601CC4B21C2CBF
:1030900020DB1C217C48764A127800F832107448F4
:1030A0000078401CC0B272490870142801DB00206F
:1030B0000870694672480068FDF749F972496C4A20
:1030C000127801EBC20148606B480068401E6A49F3
:1030D000086000246D1C701EC6B2002ECDD19CB1BC
:1030E00069486349097800F8314063480068401E28
:1030F000614908605E480078401CC0B25C490870B5
:10310000142801DB002008706148007820B9FFF71F
:10311000C5FE01205E490870012240F2266159482F
:1031200005F0DDFB002071E770B50546002400E0E6
:10313000641C285D0028FBD1E1B22846FFF760FF40
:1031400070BD30B54FF0FF3062E0534C2478002C56
:1031500037D10022454C2478241FE1B24D4C645CE9
:10316000552C01D1541CE2B2404C2478E41EE1B24B
:10317000484C645CAA2C01D1541CE2B23B4C24782C
:10318000A41EE1B2434C645C152C01D1541CE2B284
:10319000032A38D10124404D2C70344C2478641E0D
:1031A000E1B23C4C645C3D4D2C70304C24783C4D7D
:1031B0002C702E4C2478394D2D782C44394D2C70A0
:1031C00021E02A4C2478374D2D78AC421BD10024C5
:1031D000314D2C70324C23780022002107E02D4C19
:1031E000E45C1444E2B25C1CE3B24C1CE1B22B4C34
:1031F0002478A142F3DB274CE45C944203D1254CB4
:10320000274D2D78605D194C2478641C174D2C7067
:10321000164C2478144D2D78AC4296D130BD2DE952
:10322000F04305460E46079C002700204FF0550945
:103230008046401C04F808904FF0AA098046401CC4
:1032400004F808904FF015098046401C04F80890D7
:1032500003F1020C8046401C04F808C08046401C64
:1032600004F8085080461FE0A4010020A5010020BA
:103270009B0100209C010020A0010020F81E0020DE
:10328000AC01002000480040581D00209A01002099
:1032900084010020F81D0020A8010020A9010020C1
:1032A000A6010020A7010020401C04F808605BB9BB
:1032B00005EB060C0CF0FF07844600F1010808F04E
:1032C000FF0004F80C7020E005EB060C0CF0FF0783
:1032D000002111E012F80190844600F1010808F085
:1032E000FF0004F80C9012F801C0BC440CF0FF077A
:1032F00001F1010C0CF0FF019942EBDB844600F177
:10330000010808F0FF0004F80C70BDE8F0832DE917
:10331000F84F8246504605F089FF009005F0C2FF45
:1033200080460022F84B05F009FF06460022F74BC5
:1033300005F092FE044605F0F1FF83465846BDE8CD
:10334000F88F10B5014600200A46F14CA35C541CCE
:10335000E2B2EF4CA45C43EA042010BD2DE9F04F2B
:10336000C7B04FF4807107A805F0E9FC0020069073
:10337000039004900590E7490870E548E64909780C
:1033800010F80190B9F1040F7ED009DCB9F1010FFA
:103390000DD0B9F1020F78D0B9F1030F76D1A9E1C0
:1033A000B9F1050F73D0B9F1FF0FF7D1EBE1D849AF
:1033B000D9480078401C0C5C132C02D0142C67D127
:1033C000BFE0D349D4480078801C0E5C304605F03D
:1033D00043FF82460022D14B05F0B0FE074605F0C0
:1033E0009DFFCF490860CA49CB480078C01C0E5CDD
:1033F000304605F031FF07460022C84B05F09EFE1F
:10340000824605F08BFFC6498860C149C2480078F2
:10341000001D0E5C304605F01FFF82460022BF4BA8
:1034200005F08CFE074605F079FFBD49C860B84934
:10343000B9480078401D0E5C304605F00DFF074688
:103440000022B64B05F07AFE824605F067FFB449CC
:103450004861AF49B0480078801D0E5C704205F0AD
:10346000EAFE07460022AD4B05F068FE824605F0F5
:1034700055FFAB498861A649A7480078C01D0E5C7E
:10348000704205F0D8FE04E07CE1A4E08EE1DAE0D1
:103490009EE007460022A14B05F050FE824605F053
:1034A0003DFF9F4908629A499B48007808300E5CAE
:1034B000304605F0D1FE82460022984B05F03EFED4
:1034C000074605F02BFF96494862914992480078DB
:1034D00009300E5C304605F0BFFE074600228F4BD8
:1034E00005F02CFE824605F019FF8D49C8620025C3
:1034F0000BE089480078801C28448549095C05F167
:103500000800884A1154681CC5B2082DF1DB854AB1
:103510001021854800F039FA07A800907C487E49C0
:1035200009780844821C082321464846FFF777FEA5
:10353000069007A80699FFF763FD01207B490870F4
:1035400047E075490978891CC8B2FFF7FAFE784947
:10355000086071490978091DC8B2FFF7F2FE754984
:1035600008606D490978891DC8B2FFF7EAFE724903
:103570000860694909780831C8B2FFF7E2FE6F496F
:103580000860002509E064480078801C28446049F0
:10359000085C64494855681CC5B2082DF3DB614AD4
:1035A0001021614800F0F1F96548047007A8009007
:1035B0005748594909780844821C0823214648463F
:1035C000FFF72DFE069007A80699FFF719FD00E00A
:1035D00000BF00BFEBE04E494F480078401C0C5C38
:1035E000082C2DD2DFE804F02C040506072C081661
:1035F00027E026E025E024E007A800231A4621461C
:1036000000904846FFF70BFE069007A80699FFF7C3
:10361000F7FC16E04B4800681421B0FBF1F0C0B293
:103620008DF8080007A8012302AA21460090484609
:10363000FFF7F5FD069007A80699FFF7E1FC00E00B
:1036400000BF00BFB3E0324933480078401C0C5C37
:10365000022C02D0042C4AD132E02D492E480078A9
:10366000801C0E5C384806702B480078C01C0E5C2D
:103670003046FFF74CFE354908603549334800684D
:1036800005F072FE00D833E0324800683249086025
:1036900001203249087000202A49086007A80090DC
:1036A0001B481D4909780844821C042321464846CA
:1036B000FFF7B5FD069007A80699FFF7A1FC17E0F4
:1036C000FEF720FB0020254908701E4908601F49AD
:1036D000086007A800231A46214600904846FFF7D5
:1036E0009EFD069007A80699FFF78AFC00E000BF40
:1036F00000BF5CE0064908480078401C0C5C012CC7
:103700002ED0022C3BD133E000E06F400000894016
:10371000F81D00208B010020A601002000408F40F2
:10372000C41B0020F822002010F0010838010020FE
:10373000480100204C0100205001002054010020CD
:10374000BA01002028030020B001002090010020D1
:103750000000C8439C020020B40100208C0100201E
:103760002B480078062802DC01202A49087007E06F
:1037700000202849087003900490059000E000BFE5
:1037800000BF14E013E0012C02D0022C0BD103E0A7
:1037900001202049087007E000201E4908700390AE
:1037A0000490059000E000BF00BF00E000BF00BF34
:1037B00047B0BDE8F08F10B5174800781749097871
:1037C000884205D0FFF7BDFC401C01D0FFF7C6FDC5
:1037D00010BD0146012903DB642901DA104806E027
:1037E000642903DBFF2901DC0E4800E0002070475C
:1037F00010B502460B460020002105E0545C8C40C9
:103800000443E0B24C1CE1B29942F7DB10BD00006A
:10381000BA0100208B010020A5010020A401002096
:103820009CC4A03E9CC4A0BE08B527208DF8000013
:1038300000208DF8010006208DF8020001208DF88F
:103840000300684602F07FFB08BD10B586B0044651
:103850000121082003F0F2FF0121880403F0FBFF9F
:103860004FF4E06002F06AFB27208DF80000002092
:103870008DF8010006208DF8020001208DF803006C
:10388000684602F060FB4FF48060ADF81400182029
:103890008DF8170003208DF8160005A92B4803F0BA
:1038A00017FD4FF40060ADF8140004208DF81700E8
:1038B00005A9264803F00CFD01940020ADF808008E
:1038C000ADF80A00ADF80C00ADF810000C20ADF812
:1038D0000E0001A91E4804F06AFF012240F22551A2
:1038E0001B4804F0FCFF012240F22661184804F056
:1038F000F6FF0121164804F0E6FF06B010BD10B532
:103900002021134805F0BAF8012805D120211048DC
:1039100005F0C1F8FFF75BFB40210D4805F0AEF85C
:10392000012805D140210A4805F0B5F8FFF7B6FA9D
:103930000821074805F0A2F8012806D1082104480B
:1039400005F0A9F8024805F02FF810BD000C014061
:103950000048004070B504460D462668701C08D12A
:1039600003F097F92946204603F0A8FA03F09DF9E1
:103970000AE003F08EF9204603F0D0F929462046EC
:1039800003F09CFA03F091F970BD2DE9F041054672
:103990000E461746002429E055F80480385D9C49FE
:1039A000087038194078487018F101000AD103F006
:1039B00070F9974A128891B2281903F0B2FA03F00D
:1039C00074F90CE003F065F9281903F0A7F9904A9F
:1039D000128891B2281903F0A4FA03F066F9012EB7
:1039E00000D105E0A01C84B2B01E86B2002ED3D157
:1039F00000BFBDE8F08130B50346002013E01C5A3B
:103A0000834D2C60012903D12C46247814540CE0FA
:103A10007F4C247814547E4C647815186C70841C88
:103A2000A0B28C1EA1B20029E9D100BF30BD2DE9A2
:103A3000F74183B00D461646002700240020019070
:103A4000A8460420029003F024F906F2FF30800A11
:103A50000190352003F0B8FB00BF08E04FF480620E
:103A6000039902FB071003F059F902907F1C01989B
:103A7000874203D29DF808000428EFD0039C05E09C
:103A800002CD204603F01AFA0290241D0398304418
:103A9000A04203D99DF808000428F1D0039C09E056
:103AA00058F8041B2068814203D0002006B0BDE80E
:103AB000F081241D03983044A042F1D803F0F5F8BA
:103AC0000120F3E737B5044615462A4620460199FA
:103AD00005F01CF901203EBD2DE9F0414D4A1021B1
:103AE0004D48FFF788FF4B4800784A49497840EA3B
:103AF00001204A490860474880784649C97840EA29
:103B0000012047490860434800794249497940EA21
:103B10000120444908603F4880793E49C97940EA1C
:103B20000120414908603B49087A05F095FB0646AB
:103B300000223E4B05F002FB044605F0EFFB3C493A
:103B400008603449487A05F087FB06460022374B67
:103B500005F0F4FA044605F0E1FB354988602D498B
:103B6000887A05F079FB06460022304B05F0E6FA2C
:103B7000044605F0D3FB2E49C8602649C87A05F0F3
:103B80006BFB06460022294B05F0D8FA044605F0E7
:103B9000C5FB274948611F49097B484205F04BFB9B
:103BA00006460022214B05F0C9FA044605F0B6FB93
:103BB0001F4988611749497B484205F03CFB06468E
:103BC00000221A4B05F0BAFA044605F0A7FB184983
:103BD00008621049887B05F03FFB06460022134B24
:103BE00005F0ACFA044605F099FB11494862094911
:103BF000C87B05F031FB064600220C4B05F09EFA0F
:103C0000044605F08BFB0A49C862BDE8F08100005C
:103C1000BC010020F822002010F00108480100201B
:103C20004C010020500100205401002000408F4032
:103C3000F41B00202DE9F04704464FF07C5120464C
:103C400005F0EDF8814625462E46FE48A0EB6606B7
:103C500035462946484605F0E2F88246294605F0F1
:103C6000DEF880464FF07F5105F0D6F8074629462A
:103C700005F0D5F805462846BDE8F08730B50021A7
:103C8000002300224C1E72E0EF48007878BB00222F
:103C9000EE480178EE48405C552801D1501CC2B274
:103CA000EA480078401CC1B2E948405C51280BD07A
:103CB000E748405C522807D0E548405C542803D0D0
:103CC000E348405C532801D1501CC2B2022A49D1BA
:103CD0000120DD4D2870DD480078DE4D2870DB487E
:103CE0000078DD4D2D782844DC4D28703AE0FFE760
:103CF000D6480078D94D2D78A84233D10020D24D36
:103D00002870D44803780022002107E0D048C05C26
:103D10001044C2B2581CC3B2481CC1B2CE4800788D
:103D20008142F3DBCA48CD4D2D78405D904219D1D8
:103D3000C74DC8480078401C285C44B200220021CE
:103D400009E0C44800780844C3B2C148C05CC44D0F
:103D50006854481CC1B2C0480078401C8142F0DB66
:103D6000E0B230BDB9480078401CB84D2870B74863
:103D70000078BC4D2D78A84286D100BFF1E72DE92F
:103D8000F04F87B08246BAF1510F7DD0BAF1520F91
:103D900003D0BAF1540F78D137E1B148C0780002AE
:103DA00000B2B1490880AE4880780988084400B262
:103DB000AD490880AA484079000200B2AB490880AA
:103DC000A74800790988084400B2A8490880A44897
:103DD000C079000200B2A6490880A148807909880C
:103DE000084400B2A24908809F48B0F9000005F0DD
:103DF00014FAA049019005F012F8834605F052FA32
:103E0000804600229C4B05F099F9064600229B4B08
:103E100005F022F900229A4BCDE9020105F08EF956
:103E2000984A994BCDE9040105F016F9044605F0CE
:103E300075FA964908608D48B0F9000005F0EDF973
:103E40008C49019004F0EBFF834605F02BFA002229
:103E5000894BCDE9020105F071F906460022874B36
:103E600005F0FAF804460022854B05F067F9854A0B
:103E7000854BCDE9040105F0EFF8804605F04EFAD8
:103E8000834908607A4801E054E044E1B0F9000059
:103E900005F0C3F97F49019004F0C1FF834605F0A6
:103EA00001FA0022744BCDE9020105F047F9804682
:103EB0000022724B05F0D0F806460022704B05F048
:103EC0003DF904466F4A704B05F0C6F8CDE9040190
:103ED00005F024FA704908606C48006805F0E2F9C2
:103EE00021F0004104466D4A6D4B05F0EFF902D216
:103EF0000020664908606648006805F0D3F921F0A3
:103F000000410446654A664B05F0E0F902D2002004
:103F10005F4908606048006805F0C4F921F000417D
:103F200004465E4A5E4B05F0D1F902D200205A49A0
:103F30000860F1E04A48C078000200B259490880A0
:103F4000474880780988084400B2564908804448A8
:103F50004079000200B2544908804148007909883C
:103F6000084400B2504908803D48C079000200B2C0
:103F70004E4908803A4880790988084400B24B4984
:103F800008804848B0F9000005F047F94849059015
:103F900004F045FF834605F085F906460022364BBE
:103FA00005F0CCF804460022424B05F055F8804657
:103FB00005F0B4F9404908603B48B0F9000005F04D
:103FC0003AF9064600222C4B05F0B8F804460022C8
:103FD000384B05F041F8804605F0A0F937490860F4
:103FE0003248B0F9000005F026F980460022224B45
:103FF00005F0A4F8064600222E4B05F02DF80446E5
:1040000005F08CF92E49086086E01548C07800025A
:1040100000B22C490880124880780988084400B210
:10402000284908800E484079000200B226490880DD
:104030000B4800790988084400B2234908800848E1
:10404000C07943E0DF59375FD0020020E90000204B
:1040500000110020EA00002079000020EB00002081
:1040600008230020E8000020C6010020C80100202D
:10407000CA0100200000A0410000E04000409F4035
:10408000008066404AD8124DFB2109401C020020E6
:1040900020020020000034C3240200209A9999993C
:1040A0009999C93FC0010020C2010020C40100202D
:1040B000000080BF000030401002002014020020E9
:1040C00018020020CC010020CE010020000200B226
:1040D000FE490880FE4880790988084400B2FB49FF
:1040E0000880FC48B0F9000005F097F80446FA494A
:1040F00004F095FEF9490860F948B0F9000005F0B0
:104100008CF8F8490860F148B0F9000005F085F82E
:10411000F549086000E000BF00BF07B0BDE8F08FC0
:1041200001B59AB0002019901890179016901A981F
:104130001590002014901598512808D015985228F1
:1041400005D01598532802D0159854287ED1E748F9
:10415000007800287BD11598FFF711FE159851289B
:104160001FD0522802D0542851D135E0E0480068D1
:10417000E049E14A127841F82200E0480068E0494D
:10418000DD4A127841F82200DE480068DE49DA4A4A
:10419000127841F82200D8480078401CD6490870AF
:1041A00045E0DA480168DA48DA4A127840F8221025
:1041B000D9480068D949D74A127841F82200D8482E
:1041C0000068D849D34A127841F82200D1480078D3
:1041D000401CD04908702AE0C0480068D249D34A40
:1041E000127841F82200BF480068D149CF4A1278BE
:1041F00041F82200BC480068CE49CC4A127841F808
:104200002200CA480078401CC84908700FE0BA482C
:104210000078401CB8490870BE480078401CBD4971
:104220000870C2480078401CC049087000BF00BF39
:10423000B148007806280ADDB64800780628FADD7D
:10424000BA4800780628F6DD002001E037E2B5E143
:10425000199016E01998401C04F0DFFFA549129050
:10426000199851F8200001461190129804F0D7FDDA
:104270001390149904F07BFD14901998401CC0B25F
:1042800019909D49097819988842E3DBAA49149846
:1042900004F0FBFDA949086000201490084600685E
:1042A000A74908600020199016E01998401C04F0F6
:1042B000B4FF93491290199851F8200001461190CB
:1042C000129804F0ACFD1390149904F050FD149072
:1042D0001998401CC0B219908749097819988842EA
:1042E000E3DB9549149804F0D0FD94490860002060
:1042F000149008460068934908600020199016E061
:104300001998401C04F089FF7F491290199851F8C0
:10431000200001461190129804F081FD1390149929
:1043200004F025FD14901998401CC0B219907249F0
:10433000097819988842E3DB7F49149804F0A5FDB9
:104340007E49086000201490084600687E49086095
:10435000002019900DE06E49199851F8200001468F
:104360001390149804F003FD14901998401CC0B2E7
:1043700019906849097819988842ECDB65480078FB
:1043800004F054FF01461390149804F07EFD6B492D
:10439000086000201490084600686C4908600020FE
:1043A00019900DE05D49199851F8200001461390CD
:1043B000149804F0DCFC14901998401CC0B21990B9
:1043C0005449097819988842ECDB5248007804F087
:1043D0002DFF01461390149804F057FD57490860CB
:1043E0000020149008460068594908600020199080
:1043F0000DE04C49199851F820000146139014988B
:1044000004F0B5FC14901998401CC0B219904149B1
:10441000097819988842ECDB3E48007804F006FFE2
:1044200001461390149804F030FD444908600020C0
:1044300014900846006847490860002019900DE074
:104440003949199851F8200001461390149804F046
:104450008EFC14901998401CC0B219903349097809
:1044600019988842ECDB3148007804F0DFFE014601
:104470001390149804F009FD30490860002014904E
:104480000846006834490860002019900DE028496A
:10449000199851F8200001461390149804F067FC15
:1044A00014901998401CC0B21990204909781998A5
:1044B0008842ECDB1D48007804F0B8FE01461390FA
:1044C000149804F0E2FC1D49086047E0D001002088
:1044D00008230020CC010020000080BF280200201B
:1044E000CE0100202C02002030020020A802002073
:1044F0001C020020142300201003002020020020B2
:104500003423002024020020542300201002002025
:1045100074230020110300201402002094230020A3
:1045200018020020B4230020D4230020120300200E
:10453000F42300201424002000001042A4020020D4
:10454000AC020020B0020020B4020020B80200201B
:10455000BC020020C0020020C402002000201490F1
:1045600008460068FE490860002019900DE0FD49EA
:10457000199851F8200001461390149804F0F7FBA5
:1045800014901998401CC0B21990F74909781998ED
:104590008842ECDBF448007804F048FE01461390B2
:1045A000149804F072FCF149086000201490084649
:1045B0000068EF4908600120EE490870ED48007876
:1045C00000287CD0EC480168006804F028FC1290B8
:1045D000EA480168006804F022FC1090E84801688D
:1045E000006804F01CFC0F90109904F0C0FB1190BF
:1045F000129904F0BCFB1390FFF71CFB1890E048E5
:104600001899006804F00BFCDD490860DB48189934
:10461000006804F004FCD9490860D748189900687C
:1046200004F0FDFBD4490860D1480168006804F03B
:10463000F6FB1290CA480168006804F0F0FB109085
:10464000D0480168006804F0EAFB0F90109904F06C
:104650008EFB1190129904F08AFB1390FFF7EAFA8F
:104660001890C8481899006804F0D9FBC54908603B
:10467000BB481899006804F0D2FBB9490860BC48EF
:104680001899006804F0CBFBB9490860BA48006883
:1046900004F008FECDE91001B848006804F002FEFD
:1046A000CDE90E01DDE9102306F050FACDE9120143
:1046B00004F034FEB4490860B148006800E08DE3BE
:1046C00004F0F0FDCDE9100105F0F0FFCDE9120195
:1046D00004F024FEAD4908600846006804F0E2FDDD
:1046E000CDE9080106F0F2FACDE90C01A648006810
:1046F00004F0D8FDCDE9040106F03EFBCDE9080148
:104700009B48006804F0CEFDCDE90601DDE90823F1
:1047100004F0A2FCCDE90A01DDE90C2304F09CFCC5
:10472000CDE910019948006804F0BCFDCDE9040111
:1047300006F022FBCDE908019348006804F0B2FDC1
:10474000CDE9000106F018FBCDE9040184480068BA
:1047500004F0A8FDCDE90201DDE9042304F07CFCAE
:10476000CDE90601DDE9082304F076FCCDE90C0172
:104770008548006804F096FDCDE9040106F0A6FA2C
:10478000CDE908017F48006804F08CFDCDE9060101
:10479000DDE9082304F060FCCDE90A01DDE90C2322
:1047A00004F0B3FBCDE90E01DDE9102304F04EFC6B
:1047B000CDE9120104F0B2FD17907448006804F0CE
:1047C00071FDCDE9080106F0D7FACDE90C01684882
:1047D000006804F067FDCDE90A01DDE90C2304F06F
:1047E0003BFCCDE910016948006804F05BFDCDE9B0
:1047F000080106F06BFACDE90C015948006804F095
:1048000051FDCDE90A01DDE90C2304F025FCCDE9D9
:104810000E01DDE9102304F078FBCDE9120104F06C
:104820007DFD16900021179804F094FD03D217988F
:1048300080F0004017900021169804F08BFD03D201
:10484000169880F00040169000214548006804F05A
:104850008BFD17D200214B48006804F07BFD11D27C
:10486000DDE9160104F011FB0F9004F01BFDCDE90A
:10487000100106F059F8CDE9120104F04FFD44494A
:10488000086064E000213648006804F063FD1DD232
:1048900000213C48006804F05DFD17D2DDE91601F7
:1048A00004F0F3FA0D9004F0FDFCCDE90E0106F0E2
:1048B0003BF80022374BCDE9100104F0CDFBCDE9E8
:1048C000120104F02BFD3249086040E00021244829
:1048D000006804F049FD1DD200212A48006804F058
:1048E00043FD17D2DDE9160104F0CFFA0D9004F074
:1048F000D9FCCDE90E0106F017F8274A274BCDE980
:10490000100104F0A6FBCDE9120104F007FD2049D7
:1049100008601CE0DDE9160104F0B7FA0B9004F022
:10492000C1FCCDE90C0105F0FFFF1B4A1B4BCDE993
:104930000E0104F08EFB0022164BCDE9100104F0AD
:104940008BFBCDE9120104F0E9FC11490860104825
:10495000006804F0A7FC0022114BCDE9060121E01C
:10496000C80200201424002012030020A40200200A
:10497000CC020020A8020020C0020020BC020020BF
:10498000B8020020C40200209402002098020020F7
:104990009C0200200000F0BF4AD8124DFB210940C4
:1049A0000000E03F04F058FBCDE9080106F0E4F90F
:1049B000CDE90C01FE48006804F074FC0022FD4BB8
:1049C000CDE9020104F048FBCDE9040106F0D4F979
:1049D000CDE90801F848006804F064FC0022F54BBA
:1049E000CDE9020104F038FBCDE9040106F0C4F979
:1049F000CDE90601DDE9082304F02EFBCDE90A012B
:104A0000DDE90C2304F028FBCDE91001EB48006838
:104A100004F048FC0022E74BCDE9060104F01CFB42
:104A2000CDE9080106F052F9CDE90C01E048006833
:104A300004F038FC0022DF4BCDE9020104F00CFB4E
:104A4000CDE9040106F042F9CDE90801DA48006831
:104A500004F028FC0022D74BCDE9020104F0FCFA57
:104A6000CDE9040106F032F9CDE90601DDE90823BC
:104A700004F0F2FACDE90A01DDE90C2304F0ECFAC6
:104A8000CDE90E01DDE9102304F03FFACDE9120172
:104A900004F044FCCA490860C848006804F002FCFD
:104AA0000022C44BCDE9060104F0D6FACDE9080195
:104AB00006F062F9CDE90C01BD48006804F0F2FB94
:104AC0000022BC4BCDE9020104F0C6FACDE9040195
:104AD00006F052F9CDE90801B748006804F0E2FB9E
:104AE0000022B44BCDE9020104F0B6FACDE904018D
:104AF00006F0ECF8CDE90601DDE9082304F0ACFA94
:104B0000CDE90A01DDE90C2304F0A6FACDE9100194
:104B1000AA48006804F0C6FB0022A64BCDE90601B6
:104B200004F09AFACDE9080106F0D0F8CDE90C01BD
:104B30009F48006804F0B6FB00229E4BCDE90201BD
:104B400004F08AFACDE9040106F0C0F8CDE90801C5
:104B50009948006804F0A6FB0022964BCDE90201BB
:104B600004F07AFACDE9040106F006F9CDE9060170
:104B7000DDE9082304F070FACDE90A01DDE90C2330
:104B800004F06AFACDE90E01DDE9102304F05EFAC3
:104B9000CDE9120104F0C2FB8A4908608748006829
:104BA00004F080FB0022834BCDE9060104F054FAA7
:104BB000CDE9080106F0E0F8CDE90C017C48006879
:104BC00004F070FB00227B4BCDE9020104F044FAB3
:104BD000CDE9040106F07AF8CDE9080176480068CD
:104BE00004F060FB0022734BCDE9020104F034FABB
:104BF000CDE9040106F0C0F8CDE90601DDE908239E
:104C000004F02AFACDE90A01DDE90C2304F024FAC4
:104C1000CDE910016948006804F044FB0022654BAF
:104C2000CDE9060104F018FACDE9080106F04EF8C6
:104C3000CDE90C015E48006804F034FB00225D4BB6
:104C4000CDE9020104F008FACDE9040106F094F878
:104C5000CDE908015848006804F024FB0022554BB8
:104C6000CDE9020104F0F8F9CDE9040106F02EF8CF
:104C7000CDE90601DDE9082304F0EEF9CDE90A01EA
:104C8000DDE90C2304F0E8F9CDE90E01DDE910239C
:104C900004F03BF9CDE9120104F040FB4A490860F9
:104CA0004648006804F0FEFA0022424BCDE90601B6
:104CB00004F0D2F9CDE9080106F008F8CDE90C01BD
:104CC0003B48006804F0EEFA00223A4BCDE90201BD
:104CD00004F0C2F9CDE9040106F04EF8CDE908016F
:104CE0003548006804F0DEFA0022324BCDE90201BB
:104CF00004F0B2F9CDE9040106F03EF8CDE9060171
:104D0000DDE9082304F0A8F9CDE90A01DDE90C2367
:104D100004F0A2F9CDE910012848006804F0C2FAB5
:104D20000022244BCDE9060104F096F9CDE90801F3
:104D300006F022F8CDE90C011D48006804F0B2FA33
:104D400000221C4BCDE9020104F086F9CDE90401F3
:104D500005F0BCFFCDE908011748006804F0A2FA8D
:104D60000022144BCDE9020104F076F9CDE90401EB
:104D700005F0ACFFCDE90601DDE9082304F06CF98C
:104D8000CDE90A01DDE90C2304F066F9CDE90E0155
:104D9000DDE9102304F05AF9CDE9120104F0BEFA5E
:104DA0000A49086000200A4908700A49087013E09F
:104DB000980200200000E03F940200209C020020A6
:104DC000480200204C020020500200205402002023
:104DD0001003002011030020FE4908701BB000BD25
:104DE00001B598B000201690159014901898139063
:104DF00000201290119010900F900E900D900C903A
:104E00000B900A90FBF7DDFE099004F00FFAF249CF
:104E100008601398512808D01398522805D0139889
:104E2000532802D01398542879D11398FEF7A7FF7E
:104E3000EA480068EA49EB4A127841F82200EA4859
:104E40000068EA49E74A127841F82200E848006819
:104E5000E849E44A127841F82200E7480168E74847
:104E6000E04A127840F82210E5480168E548DD4A3A
:104E7000127840F82210E4480068E449D94A1278D0
:104E800041F82200E2480168E248D64A127840F828
:104E90002210E1480168E148D24A127840F8221015
:104EA000DF480068DF49CF4A127841F82200CD4838
:104EB0000078401CCB49087008460078062801DDC0
:104EC000002008700020169016E01698401C04F090
:104ED000A4F9C3490890169851F82000014607909C
:104EE000089803F09CFF0990149903F040FF149078
:104EF0001698401CC0B2169016980628E5DBCA49E1
:104F0000149803F0C2FF0990C8480168099803F09B
:104F100080FFC749086000201490169017E0F6E063
:104F20001698401C04F079F9B0490890169851F889
:104F3000200001460790089803F071FF099014992A
:104F400003F015FF14901698401CC0B216901698E6
:104F50000628E5DBB449149803F097FF0990B5489B
:104F60000168099803F055FFB349086000201490C8
:104F7000169016E01698401C04F04FF99D490890D1
:104F8000169851F8200001460790089803F047FF53
:104F90000990149903F0EBFE14901698401CC0B2CF
:104FA000169016980628E5DB9F49149803F06DFFCC
:104FB0000990A2480168099803F02BFFA0490860F6
:104FC0000020149016900DE08C49169851F820009E
:104FD00001460990149803F0CAFE14901698401CDC
:104FE000C0B2169016980628EEDB9649149803F086
:104FF0004CFF954908600020149016900DE08149FF
:10500000169851F8200001460990149803F0AFFE5D
:1050100014901698401CC0B2169016980628EEDB25
:105020008849149803F031FF8849086000201490E3
:1050300016900DE07549169851F820000146099028
:10504000149803F094FE14901698401CC0B2169069
:1050500016980628EEDB7B49149803F016FF7C496E
:1050600008600020149016900DE06A49169851F8D7
:10507000200001460990149803F079FE14901698C8
:10508000401CC0B2169016980628EEDB6D491498A5
:1050900003F0FBFE6F4908600020149016900DE0AD
:1050A0005E49169851F8200001460990149803F0C3
:1050B0005EFE14901698401CC0B2169016980628F2
:1050C000EEDB6049149803F0E0FE634908600020BD
:1050D000149016900DE05349169851F8200001469F
:1050E0000990149803F043FE14901698401CC0B227
:1050F000169016980628EEDB5249149803F0C5FE68
:105100005649086000201490012055490870544801
:10511000007800285CD04E480168006803F07FFEEC
:1051200008904A480168006803F079FE06904648F6
:105130000168006803F073FE0590069903F017FEFE
:105140000790089903F013FE0990FEF773FD159080
:105150003D481599006803F062FE3B4908603B48F2
:105160001599006803F05BFE3849086038481599C6
:10517000006803F054FE364908603848016800684A
:1051800003F04DFE089034480168006803F047FEC4
:10519000069030480168006803F041FE05900699CA
:1051A00003F0E5FD0790089903F0E1FD0990FEF793
:1051B00041FD159027481599006803F030FE2549F8
:1051C000086025481599006803F029FE224949E046
:1051D000FDE3000012030020040300201C02002055
:1051E00014230020A00200202002002034230020ED
:1051F00024020020542300201002002074230020E9
:10520000140200209423002018020020B423002060
:1052100028020020D42300202C020020F4230020A8
:10522000300200201424002000001042AC020020B4
:10523000E0010020B0020020E4010020B4020020C0
:10524000E80100200000C040D4010020D801002067
:10525000DC010020EC010020F0010020F40100201E
:10526000A90200200860FE481599006803F0D7FDE8
:10527000FB490860FB480168FB48006803F0CFFD6C
:105280001290FA480168F848006803F0C8FD1190D0
:10529000F7480168F448006803F0C1FD1090F14838
:1052A0000168006803F0BBFD0F90F0480168ED480D
:1052B000006803F0B4FD0E90ED480168E94800680D
:1052C00003F0ADFD0D90E9480168006803F0A7FD0B
:1052D0000C90E7480168E548006803F0A0FD0B90DA
:1052E000E3480168006803F09AFD0A9011990D984F
:1052F00003F03DFD0690DA480168069803F08FFD43
:10530000089010990E9803F084FD0490D948016824
:10531000049803F084FD06904FF07C500C9903F044
:1053200078FD03900A9903F074FD0490D248016857
:10533000049803F074FD0590069903F018FD07909A
:10534000089903F014FD4FF08041099003F067FDC8
:10535000CA49086012990B9803F05BFD0690C0489B
:105360000168069803F05BFD08904FF07C500F99A0
:1053700003F04FFD03900A9903F04BFD0490BD48E4
:105380000168049803F04BFD069010990E9803F005
:10539000EEFC0490B8480168049803F040FD0590C5
:1053A000069903F0E4FC0790089903F0E0FC4FF045
:1053B0008041099003F033FDB14908600846016857
:1053C000006803F02CFD0490AC480168006803F00D
:1053D00026FD0390049903F0CAFC059003F062FFD8
:1053E000CDE9060105F020FDCDE9080103F096FFA7
:1053F000A44908604FF07C500F9903F00AFD059016
:105400000C9903F006FD069095480168069803F094
:1054100006FD089012990B9803F0A9FC049095489A
:105420000168049803F0FBFC069011990D9803F0B5
:10543000F0FC049090480168049803F0F0FC05909B
:10544000069903F094FC0790089903F090FC4FF044
:105450008041099003F0E3FC8B49086011990D9895
:1054600003F0D7FC039003F01DFF00224FF08043B0
:10547000CDE9040103F0F0FD0022844BCDE90601E3
:1054800003F0EAFDCDE9080103F048FF8049086018
:105490000B99129803F06BFC059003F003FF0022B8
:1054A0004FF08043CDE9060103F0D6FDCDE90801B8
:1054B00003F034FF774908604FF07C500F9903F0F8
:1054C000A8FC04900C9903F0A4FC059003F0EAFEFC
:1054D00000224FF08043CDE9060103F0BDFDCDE988
:1054E000080103F01BFF6C49086011990D9803F047
:1054F00090FC029064480168029803F090FC0490CC
:105500004FF07C500C9903F084FC01900A9903F051
:1055100080FC02905B480168029803F080FC0390D5
:10552000049903F024FC059003F0BCFE00224FF028
:105530004043CDE9060103F08FFDCDE9080103F0FA
:10554000EDFE564908600B99129803F010FC02908A
:105550004D480168029803F062FC049010990E987F
:1055600003F057FC029047480168029803F057FC8B
:105570000390049903F0FBFB059003F093FE0022D7
:105580004FF08043CDE9060103F066FDCDE9080147
:1055900003F0C4FE424908604FF07C500F9903F0BD
:1055A00038FC01900C9903F034FC029036480168F5
:1055B000029803F034FC04900D99119803F0D7FB86
:1055C000029030480168029803F029FC0390049986
:1055D00003F0CDFB059003F065FE00224FF0804301
:1055E000CDE9060103F038FDCDE9080103F096FE90
:1055F0002C4908602A4801681948006803F00FFC2C
:105600000790284801681B48006803F008FC0690D2
:10561000079903F0FEFB09901E48016822480068C4
:1056200003F0FDFB07901C4801682048006803F068
:10563000F6FB0690079903F0ECFB0890099903F03C
:1056400096FB1B490860174801680B48006803F087
:10565000E6FB079011480168014800682AE0000055
:10566000F40100204C0200204802002050020020DB
:1056700054020020F0010020EC0100203C02002038
:105680004002002034020020380200200000F0BF59
:105690007C0200208002002084020020880200207A
:1056A0008C02002090020020DC010020D8010020A4
:1056B000D402002003F0B3FB0690079903F0A9FB86
:1056C0000990FE480168FE48006803F0A8FB0790B7
:1056D000FC480168FC48006803F0A1FB06900799AC
:1056E00003F097FB0890099903F041FBF749086024
:1056F000F7480168F748006803F091FB0790F64807
:105700000168F648006803F08AFB0690079903F0E9
:1057100080FB0990EB480168F148006803F07FFBCB
:105720000790F0480168E648006803F078FB0690AF
:10573000079903F06EFB0890099903F018FBEA49FA
:105740000860EA48006803F0ADFD21F00041E84A36
:10575000E84BCDE9080103F0B9FD02D20020E3498E
:105760000860DA48006803F09DFD21F00041E04A3E
:10577000E04BCDE9080103F0A9FD02D20020D34996
:105780000860D948006803F08DFD21F00041D84A37
:10579000D84BCDE9080103F099FD02D20020D2498F
:1057A0000860D5480168D148006803F032FBD3494E
:1057B0000860D3480168C548006803F02AFBD14956
:1057C0000860D1480168C848006803F022FBCF494F
:1057D0000860C6480068C8490860BC480068C849F5
:1057E0000860C1480068C84908600021BF480068D7
:1057F00003F0B0FD4ED00021B448006803F0AAFDCC
:1058000048D00021B848006803F0A4FD42D0B74852
:105810000168BF48006803F002FB0990BD480168B9
:10582000099803F0A4FABB490860A8480168BA487F
:10583000006803F0F4FA0990B8480168099803F089
:1058400096FAB6490860A8480168B548006803F0B0
:10585000E6FA0990B3480168099803F088FAB1495B
:105860000860AC480168B048006803F080FAAE49AF
:105870000860AA480168AD48006803F078FAAB49AF
:105880000860A8480168AA48006803F070FAA849AF
:10589000086006E000209F490860A0490860A1490F
:1058A000086092480168A348006803F0B8FA0990BC
:1058B0009D480168099803F05AFA9B49086083489B
:1058C00001689D48006803F0AAFA099097480168AA
:1058D000099803F04CFA9549086083480168974895
:1058E000006803F09CFA099091480168099803F058
:1058F0003EFA8F490860814801689148006803F0CA
:105900008EFA099088480168099803F030FA8649B0
:1059100008607C4801688B48006803F080FA0990B1
:1059200082480168099803F022FA804908607748A4
:1059300001688548006803F072FA09907C480168A4
:10594000099803F014FA7A490860774800687F499B
:105950000860764800687E490860754800687D499F
:105960000860FBF72EF9099003F060FC7A490860A3
:105970007A4801687848006803F0F6FC15D2774849
:1059800001687548006803F044FA059003F08AFC4A
:10599000734A744BCDE9060103F05EFBCDE90801C3
:1059A00003F0BCFC704908601CE06B4801684FF0D4
:1059B0009E4003F0DCF9049068480168049803F005
:1059C00028FA059003F06EFC654A664B00E08FE113
:1059D000CDE9060103F040FBCDE9080103F09EFC90
:1059E000614908605B4801686048006803F017FA85
:1059F0005F49049003F013FA0690554801685D482A
:105A0000006803F00CFA5A49029003F008FA049077
:105A10005948006880F0004002904C4801680298A4
:105A200003F0FDF90390049903F0F3F9059006994A
:105A300003F0EFF907904C480168079803F0EFF97D
:105A40004FF08041089003F020FA09904B4801681C
:105A5000099803F08CF9494908603D4801684348BA
:105A6000006803F0DCF94249049003F0D8F906908D
:105A7000384801683F48006803F0D1F93C4902907A
:105A800003F0CDF90490314801683C48006803F008
:105A9000C6F90390049903F06AF90590069903F09A
:105AA000B8F9079030480168079803F0B8F94FF04B
:105AB0008041089003F0E9F9099061E08402002038
:105AC000D40100207C020020DC010020D80200204C
:105AD00088020020F00100208C020020EC01002050
