:020000040800F2
:100000005028002045010008A1020008A3020008B2
:10001000A7020008AB020008AF02000800000000C1
:10002000000000000000000000000000B302000813
:10003000B502000800000000B7020008B90200087D
:100040005F0100085F0100085F0100085F01000810
:100050005F0100085F0100085F0100085F01000800
:100060005F0100085F0100085F0100085F010008F0
:100070005F0100085F010008AD0900085F0100088A
:100080005F0100085F0100085F010008F30D000830
:100090000F0E00085F0100085F0100085F01000803
:1000A0005F0100085F0100085F0100085F010008B0
:1000B000DB0B00085F0100085F0100085F0100081A
:1000C0005F0100085F0100085F0100085F01000890
:1000D0005F010008DD080008BF2700086F3900082D
:1000E0005F0100085F0100085F0100085F01000870
:1000F0005F0100085F0100085F0100085F01000860
:100100005F0100085F0100085F0100085F0100084F
:10011000F51300085F0100085F0100085F01000897
:100120005F0100085F0100085F0100085F0100082F
:10013000DFF80CD009F0C6FB004800476901000851
:10014000502800200648804706480047FEE7FEE7A3
:10015000FEE7FEE7FEE7FEE7FEE7FEE7FEE7FEE777
:10016000598E0008310100081CB53FA103C9CDE933
:10017000000108F071FE4FF4E13000F011F94FF486
:10018000E13001F049FE4FF4164002F0A5FE4FF4B5
:10019000E13001F059F900F0BFFE01F015FE00F06A
:1001A000B5FC00F031FC01F057FC02F0A7FD02F0B5
:1001B0002FFB03F0C9FC4FF47A7000F00DFC00F047
:1001C00002FD2B49086034E02A4800782A49097862
:1001D00088421DD003F0F6FD2849087008460078D3
:1001E00051280BD008460078522807D008460078DE
:1001F000532803D008460078542809D120491F48C5
:10020000007803F0FEFF1F480078401C1D4908706D
:1002100000F0D9FC1C4908600968154A1268881A60
:1002200009F02AF91949086019491848006809F0C5
:10023000C1F9144800781528C6DB02F0BDFC142271
:100240000621144802F0C9FC32220121124802F0B2
:10025000C4FC14220A21114802F0BFFC02F0B9FCD0
:1002600001E002F0E6FCFCE711223344556677001A
:1002700008000020E9000020E80000201000002015
:10028000E4010020000000200C00002004000020F9
:10029000001B374A8F2E00084F6100083D260008DA
:1002A000704700BFFEE700BFFEE700BFFEE700BFEC
:1002B000FEE770477047704710B502F0E3FC10BDD1
:1002C0000246002003E000231354431C98B28842E6
:1002D000F9DB70472DE9F04F07460D461646994663
:1002E00007EB0508BA460024A34601E0601C84B26F
:1002F0002A4850F8340008B1082CF7DD082C05DB3B
:10030000FF2089F800000020BDE8F08F234840F866
:10031000347000EBC4000571204800EBC400467146
:100320001E4800EBC4008671A34605FB06F1384663
:10033000FFF7C6FF002405E0CAF80080C246A844C3
:10034000601C84B2701EA042F6DC144800EBCB00A7
:10035000DAE710B502461368907918B9FF200870E3
:10036000002010BD9079401E9071907908B11868F6
:1003700010601C46241D002008702046F1E702464C
:1003800009B9FF207047091F0B46106818601360F9
:100390009079401C90710020F4E70000C00200201A
:1003A00038B504460020FE490870FE490870FE4931
:1003B0000870FE4908701420FD490870204600F0BE
:1003C0003AFA6B4620221146FA48FFF783FFFA49B2
:1003D000086038BD10B5F6480078142800D110BD6B
:1003E000002240F22661F54808F09FFBF448EF49EF
:1003F000097810F8310010B3EC480078EA49097820
:1004000088421CD0EE48E949097810F83100401EB6
:10041000EB49E64A127801F832000846E34A1278BE
:1004200000EBC2004068E74A1278815CE34808F0BC
:10043000DDFBE4480078401CE24908705CE0DB48E2
:100440000078D949097888424DD0DD48D74A1278DA
:1004500000EBC2004168D8480068FFF790FFD3481E
:100460000078401CC0B2D1490870142801DB00207C
:100470000870CF480078401CC0B2CD4908701428DD
:1004800001DB142008700020CE490870C7480078AE
:10049000C549097888421CD0C948C449097810F870
:1004A0003100401EC1B2C648C04A127800F832106E
:1004B000BE4A127800EBC2004068C24A1278815CE2
:1004C000BE4808F093FBBF480078401CBD49087047
:1004D00012E00020BC4908701420B54908700020C3
:1004E000B849087008E00020B74908701420B049E6
:1004F00008700020B3490870012240F22661AF481D
:1005000008F013FB00BF6AE710B5AC4808F072FBB7
:10051000C1B2A34802780078401CA14B1870AB48C8
:100520008154184600789F490978884204D19D4833
:100530000078401C9B49087010BDF8B505460C4674
:1005400026460CB90120F8BD002240F226619B48E6
:1005500008F0EBFA1C2094FBF0F100FB114028B1ED
:100560001C2094FBF0F0401CC4B203E01C2094FB60
:10057000F0F0C4B28E480078A04207DA012240F2BF
:1005800026618E4808F0D1FAFF20DCE769468A48E8
:100590000068FFF7DEFE8A49834A127801EBC20148
:1005A000486081480078142802DB00207E490870EA
:1005B00000242FE0287882497B4A127801EBC2019F
:1005C00049680855601CC4B21C2C20DB1C217C48E7
:1005D000754A127800F8321073480078401CC0B297
:1005E00071490870142801DB0020087069467248C0
:1005F0000068FFF7AEFE72496B4A127801EBC20148
:1006000048606B480078401E6949087000246D1CE2
:10061000701EC6B2002ECDD19CB1694862490978DE
:1006200000F8314062480078401E614908705E4819
:100630000078401CC0B25C490870142801DB00201F
:1006400008706148007820B9FFF7C4FE01205E49B8
:100650000870012240F22661584808F066FA00202E
:1006600071E770B50546002400E0641C285D002891
:10067000FBD1E1B22846FFF760FF70BD10B54B48D3
:10068000007849490978884234D04D48474A127861
:1006900000EBC200416848480068FFF770FE43481D
:1006A0000078401CC0B241490870142801DB0020CA
:1006B00008703F480078401CC0B23D4908701428BB
:1006C00001DB1420087039480078374909788842DE
:1006D0000CD03B4A354B1B7812F83310334B1B7848
:1006E00002EBC302506800F01CF924E000203649F8
:1006F000087020E032482D4A127800EBC2004168B1
:100700002D480068FFF73BFE28480078401CC0B227
:1007100026490870142801DB00200870244800785E
:10072000401CC0B222490870142801DB1420087054
:1007300000202549087010BD10B55CE0244A1278ED
:10074000002A53D10020174A1278921ED1B21F4AB4
:10075000525C552A01D1421CD0B2124A1278521E64
:10076000D1B21A4A525CAA2A01D1421CD0B20D4A17
:100770001278184B1B68022404FB0322D1B2134ADF
:10078000525CFF2A01D1421CD0B203282ED1012293
:100790000F4B1A70034A12780F4B1A70014A1DE072
:1007A0002500002026000020220000202300002039
:1007B00024000020BC0400202C0000200038014050
:1007C0001C0300202100002014000020BC03002096
:1007D000200000201C000020270000201278094B78
:1007E0001B68022404FB0322074B1A70074A127885
:1007F000521C064B1A70054A1278054B1B789A4218
:100800009CD110BD1C0000202800002026000020E4
:100810002500002008B525208DF8000000208DF867
:10082000010003208DF8020001208DF803006846C6
:1008300005F0AFFC08BD10B586B00446012144F2B6
:10084000050007F021F901A806F0F1FE4FF4007051
:10085000ADF8040003208DF8060018208DF807007D
:1008600001A9594806F05AFE01A806F0E0FE4FF42F
:100870008060ADF8040004208DF8070001A95248FB
:1008800006F04CFE514808F075F802A808F01EF971
:1008900002940020ADF80C00ADF80E00ADF8100089
:1008A0000C20ADF812000020ADF8140002A9474852
:1008B00008F0A3F8012240F22661444808F035F917
:1008C000FFF7A8FF012240F22551404808F02DF91A
:1008D00001213E4808F01DF906B010BD10B52021D9
:1008E0003A4808F0F1F9012808D12021374808F0EA
:1008F000F8F93748007808B1FFF706FE4021334881
:1009000008F0E2F9012808D14021304808F0E9F95F
:100910002F48007808B1FFF75DFD01202C490870D1
:1009200010BD30B58DB005460C460121084607F0D4
:100930009EF8284806F08CF92448001D0290039583
:10094000102004900594002006908020079000203D
:10095000089009900A904FF440500B9000200C90A2
:1009600002A91C4806F016FA01220221194806F0D5
:1009700048FA0E208DF8040000208DF805008DF84F
:10098000060001208DF8070001A805F002FC0121F6
:10099000104806F02AFA012280210C4808F0EAF8F3
:1009A00001210A4808F0B5F80DB030BD10B54FF47C
:1009B000005006F053FA012804D1400306F043FA30
:1009C000FFF75CFE10BD0000000801400038014048
:1009D0003000002044000240002107E0002200E037
:1009E000521C43F278739A42FADB491C8142F5D3D8
:1009F0007047002105E0002200E0521C0E2AFCDBBB
:100A0000491C8142F7D3704730B57F4800684FF4E6
:100A10007A72B0FBF2F1B1F1807F01D301201DE0C9
:100A200021F07F40401E4FF0E022506150170F220E
:100A3000002807DA13071D0E744B00F00F04241F63
:100A40001D5503E013071C0E714B1C5400BF002002
:100A50004FF0E022906107201061002008B100BF34
:100A6000FEE74FF0E020006920F001004FF0E021A8
:100A7000086130BD4FF0E020006940F001004FF008
:100A8000E0210861704708B54FF4E06005F07CFB99
:100A90001C208DF8000000208DF8010005208DF845
:100AA000020001208DF80300684605F072FB08BDC6
:100AB0000EB50121084606F0F4FFFFF7E4FF4FF002
:100AC000804007F049F841F28830ADF80400472033
:100AD000ADF800000020ADF80600ADF80200694650
:100AE0004FF0804007F00CF90121880707F02AFF3A
:100AF00001221146900707F07AFC0121880707F0D0
:100B00005BFC0021012006F0CCFF0EBD0EB50121DB
:100B1000062006F0C6FF684607F01EFC4FF6FF7081
:100B2000ADF804000020ADF80000ADF80600ADF807
:100B300002006946374807F0E3F8002211463548BD
:100B400007F0E1FC0121334807F082FE30213148F3
:100B500007F06CFC07212F4807F0B0FE80212D48DC
:100B600007F0B5FE01212B4807F026FD4FF6FF7078
:100B7000ADF804004720ADF800000020ADF80600F5
:100B8000ADF802006946244807F0BAF8012122486E
:100B900007F012FD0421204807F090FE01211E48B5
:100BA00007F062FE20211C4807F07FFE80211A48D2
:100BB00007F08DFE0121184807F0FEFB01211548C2
:100BC00007F0FAFB0EBD002012492431088800040A
:100BD0001149243109880844704710B5012188075C
:100BE00007F0B3FE40B10121880707F0BFFE0B48B4
:100BF0000068401C09490860084800680A2802D3B8
:100C000000200649086010BDA802002018ED00E091
:100C100000E400E000040040000800403400002030
:100C200000B589B014208DF8000000208DF8010077
:100C300001208DF802008DF80300684605F0A9FA3E
:100C400013208DF8000000208DF8010002208DF89F
:100C5000020001208DF80300684605F09AFAAA48C0
:100C600005F000FB0121480606F01BFF01210820CA
:100C700006F00AFF0121084606F006FF4FF48070D7
:100C8000ADF8140003208DF8160048208DF81700E9
:100C900005A99E4806F042FC4FF40070ADF8140020
:100CA00003208DF8160018208DF8170005A9974825
:100CB00006F034FC01214FF4EA1006F0FEFC06A811
:100CC00005F0F4FB00208DF81E008DF81F008DF854
:100CD000200001208DF8210000208DF822008DF8E1
:100CE00023008DF81A008DF81B0001208DF81C00E0
:100CF00002208DF81D000C20ADF8180006A98248CE
:100D000005F0C9FA00208DF80E008DF80F000120C3
:100D10008DF810000020ADF80400ADF80600ADF825
:100D20000800ADF80A00ADF80C0001208DF81100A4
:100D300001A805F03AFB0221734805F036FF0121B6
:100D4000714805F032FF012203216F4805F02CFEA7
:100D500009B000BD7FB586B0DDE90E560798029058
:100D600004208DF80C009DF820008DF80D008DF802
:100D70000E50002407E009983044015D0DF10F008A
:100D80000155601CC4B2AC42F5DB01A95E4805F018
:100D9000FBFB0AB070BD30B585B00446A07B28B916
:100DA0002068009000208DF8080001E02068019084
:100DB00004208DF80800E07B18B900208DF80900A8
:100DC00002E002208DF80900207B8DF80A00002542
:100DD00006E0201D415D0DF10B004155681CC5B2B8
:100DE000207BA842F5DC6946474805F0CDFB05B0FD
:100DF00030BD10B50121444805F03DFE012805D164
:100E00000121414805F0D1FE00F097F810BD10B562
:100E100086B001AA00213C4805F0ABFC9DF80D000E
:100E200000286AD1029880B20B2806D0A0F5806015
:100E3000093803D003285ED12EE05DE00298C0F3AC
:100E40000740012806D002280CD0032812D004281D
:100E500020D117E0DDF80F10DDF813002C4AC2E9AD
:100E6000001017E0DDF80F10DDF81300284AC2E982
:100E700004100FE0DDF80F10DDF81300244AC2E97A
:100E8000021007E0DDF80F10DDF81300204AC2E978
:100E9000061000BF00BF2FE00298C0F307400128F2
:100EA00006D002280CD0032812D0042820D117E045
:100EB000DDF80F40204608F0D6FA1649086018E021
:100EC000DDF80F40604208F0CEFA1249486010E0A9
:100ED000DDF80F40204608F0C6FA0E49886008E0A9
:100EE000DDF80F40604208F0BEFA0A49C86000E031
:100EF00000BF00BF00E000BF00BF0021024805F0B6
:100F0000B0FC06B010BD000000640040000C0140C1
:100F1000102400203024002008B50020F949087072
:100F2000F9490870FFF77CFE6B4620221146F7480E
:100F3000FFF7D0F9F649086008BD1CB5F548006810
:100F400020280DD10020F4490870F448F44A1278A2
:100F500000EB0210C168EE480068FFF710FA1CBDF4
:100F600000220121EF4805F01FFDEC48EC4909780B
:100F700000EB01100078002849D0E9480078EA49E0
:100F80000978884243D0E548E549097800EB01102B
:100F90000078082820DBE148E149097800EB0110DE
:100FA00000780838DD49DE4A127801EB021108703A
:100FB000DE4800680821CDE90010D848D8490978F2
:100FC00000EB011494E80F00FFF7C4FED748006857
:100FD0000830D649086097E0D4480168CF48D04A25
:100FE000127800EB02100078CDE90001CB48CC4923
:100FF000097800EB011494E80F00FFF7ABFE002026
:10100000C649C74A127801EB021108707CE0C44857
:101010000078C549097888426DD0C048C04A127826
:1010200000EB0210C168BA480068FFF7A8F9BC4895
:101030000078401CC0B2BA490870202801DB0020AB
:101040000870B4480068401CB2490860202801D3E9
:10105000202008600020B5490860B1480078B249F6
:10106000097888423DD0AD48AD49097800EB0110C0
:101070000078082821DBA948A949097800EB01106C
:1010800000780838C1B2A548A54A127800EB0210D2
:101090000170A64800680821CDE900109F48A049CA
:1010A000097800EB011494E80F00FFF753FE9F4806
:1010B000006808309D49086026E09C480168974810
:1010C000974A127800EB02100078CDE900019348AE
:1010D0009349097800EB011494E80F00FFF73AFEFA
:1010E00012E000208C49087020208A490860002006
:1010F0008E49086008E00020874908702020854953
:10110000086000208949086001221146854805F0E1
:101110004BFC00BF23E72DE9F84305460C46164675
:101120001F46A04614B90120BDE8F8830022012122
:101130007C4805F039FC1C2094FBF0F100FB1140C9
:1011400028B11C2094FBF0F0401CC4B203E01C202A
:1011500094FBF0F0C4B26F480068A04206D20122AE
:101160001146704805F020FC0120DDE7694668481B
:101170000068FFF7EEF869496B4A127801EB02113B
:10118000C86069480078202802DB002066490870A2
:1011900000243EE029786148634A127800EB02108F
:1011A000C0680155601CC4B21C2C2DDB5B485E4935
:1011B000097800EB011046601C2058495A4A127801
:1011C00001EB0211087055485749097800EB0110EE
:1011D000077255480078401CC0B253490870202857
:1011E00001DB00200870694649480068FFF7B1F844
:1011F0004A494D4A127801EB0211C860454800681F
:10120000401E4449086000246D1CA8F1010000F054
:10121000FF08B8F1000FBDD104B340484249097836
:1012200000EB011046603D483F49097800EB011092
:1012300004703A483C49097800EB011007723548C0
:101240000068401E3349086037480078401CC0B22F
:1012500035490870202801DB002008702E480078EE
:1012600020B901202C490870FFF767FE01221146C2
:101270002C4805F099FB002056E7002000212C4A5D
:10128000116000BF03E000212A4A1154401CFF28CE
:10129000F9DD704710B50246002000BF03E00023CF
:1012A000244C2354401CFF28F9DD10BD0FB430B589
:1012B00000209DF8161000BF17E00DF11702135C17
:1012C000104A14781278521C0E4D2A70194A135580
:1012D0002A4612780C4B1B789A4204D10A4A12789B
:1012E000521C094B1A70421CD0B28842E5DB30BC5C
:1012F0005DF814FB024622B10F4802600F480170EE
:1013000023E01DE05400002055000020DC0B0020ED
:10131000580000203C00002041000020DC08002094
:1013200039000020006400403800002050000020F8
:1013300044000020DC0A0020480000204C0000206F
:10134000B2F5807F01D9FF2070470020FCE7000044
:1013500010B586B0044634208DF8000000208DF8CA
:10136000010004208DF8020001208DF8030068467A
:1013700004F00FFF0121102006F086FB0121C804B4
:1013800006F08FFB2D48406820F480602B494860B0
:101390000846406860F480604860C814ADF81400E6
:1013A00004208DF8170005A9244806F0B7F8019429
:1013B0000020ADF80800ADF80A00ADF80C00ADF85B
:1013C00010000C20ADF80E0001A91D4807F015FB18
:1013D000012240F225511A4807F0A7FB012240F2F2
:1013E0002661174807F0A1FB0121154807F091FB82
:1013F00006B010BD10B52021114807F065FC01288A
:1014000008D120210E4807F06CFC0E48007808B186
:1014100000F0CEF840210A4807F056FC012808D118
:101420004021074807F05DFC0648007808B100F04D
:1014300025F801200349087010BD0000001001408C
:10144000004C00405C00002038B504460020FE49F6
:101450000870FE490870FE490870FE4908701420A3
:10146000FD4908602046FFF773FF6B4620221146B6
:10147000FA48FEF72FFFFA49086038BD10B5F64864
:101480000068142800D110BD002240F22661F54802
:1014900007F04BFBF448EF49097810F8310018B316
:1014A000EC480078EA49097888421DD0EE48E949BD
:1014B000097810F83100401EEB49E64A127801F82D
:1014C00032000846E349097800EBC1004068E7496B
:1014D000097844182178E34807F088FBE34800784E
:1014E000401CE24908705BE0DA480078D849097886
:1014F00088424CD0DC48D74A127800EBC2004168E1
:10150000D7480068FEF73BFFD2480078401CC0B2C5
:10151000D0490870142801DB00200870CE4800680C
:10152000401CCD490860142801D314200860002015
:10153000CE490870C7480078C549097888421CD050
:10154000C948C449097810F83100401EC649C14A4B
:10155000127801F832000846BE4A127800EBC20049
:101560004068C24A1278815CBE4807F03FFBBF4822
:101570000078401CBD49087012E00020BC4908708A
:101580001420B54908600020B849087008E0002020
:10159000B74908701420B04908600020B3490870AA
:1015A000012240F22661AF4807F0BFFA00BF6AE7A8
:1015B00010B5AC4807F01EFBC1B2A3480278007812
:1015C000401CA14B1870AB488154184600789F49C5
:1015D0000978884204D19D480078401C9B490870D6
:1015E00010BDF8B505460C4626460CB90120F8BDDD
:1015F000002240F226619B4807F097FA1C2094FBDA
:10160000F0F100FB114028B11C2094FBF0F0401CCD
:10161000C4B203E01C2094FBF0F0C4B28E48006812
:10162000A04207D2012240F226618E4807F07DFADF
:10163000FF20DCE769468A480068FEF78AFE8A498F
:10164000834A127801EBC20148608148007814286F
:1016500002DB00207E49087000242FE028788249B0
:101660007B4A127801EBC20149680855601CC4B27C
:101670001C2C20DB1C217C48754A127800F83210A3
:1016800073480078401CC0B271490870142801DB0F
:1016900000200870694672480068FEF75AFE7249D9
:1016A0006B4A127801EBC20148606B480068401E2B
:1016B0006949086000246D1C701EC6B2002ECDD191
:1016C0009CB169486249097800F831406248006875
:1016D000401E614908605E480078401CC0B25C4909
:1016E0000870142801DB002008706148007820B9D8
:1016F000FFF7C4FE01205E490870012240F2266116
:10170000584807F012FA002071E770B5054600242A
:1017100000E0641C285D0028FBD1E1B22846FFF7F9
:1017200060FF70BD7EB50020F5E0534C2478002C9E
:101730004AD10022454C2478641EE1B24D4C645CD1
:10174000022C01D1541CE2B2404C24784B4D2D6840
:10175000022606FB0544E1B2464C645C0D2C01D127
:10176000541CE2B2394C2478444D2D68022606FB05
:101770000544641CE1B23F4C645C0A2C01D1541C4A
:10178000E2B2324C24783D4D2D68022606FB05441A
:10179000A41CE1B2374C645C032C01D1541CE2B2AE
:1017A000042A10D10124344D2C700120274C2478B8
:1017B000334D2C70254C2478304D2D68022606FBC5
:1017C0000544304D2C70A1E0204C24782D4D2D780F
:1017D000AC42F8D10024284D2C70002100238DE06C
:1017E000274C24780C44234D2C5D302C0EDB244CEC
:1017F00024780C442C5D392C08DC214C24780C44D2
:101800002C5D303CE4B20DF8014014E01C4C24780F
:101810000C44184D2C5D412C0DDB194C24780C44E4
:101820002C5D462C07DC164C24780C442C5D373C90
:10183000E4B20DF80140124C24780C44641C0D4DA8
:101840002C5D302C32DB1FE0E8000020E900002096
:10185000E0000020E1000020E40000207C110020D6
:10186000F0000020004C0040DC0F0020DE000020D3
:10187000600000207C100020780000207400002010
:10188000EA000020EB000020684C24780C44641C23
:101890002C5D392C0ADC654C24780C44641C2C5DCE
:1018A000303CE5B24C1C0DF8045018E05F4C247835
:1018B0000C44641C5E4D2C5D412C10DB5B4C247889
:1018C0000C44641C2C5D462C09DC584C24780C44D8
:1018D000641C2C5D373CE5B24C1C0DF804504C1CCC
:1018E0001DF804501DF8014005EB0414E6B21C4637
:1018F0005D1CEBB24F4D2E558C1CE1B24E4C246852
:10190000641E64008C423FF66BAF01204B4C247880
:10191000641C4A4D2C70494C2478494D2D78AC42BA
:101920007FF403AF7EBD10B50146012024E00A78A4
:1019300000EB8003434CE35C9A421CD14A7800EBF5
:10194000800323445B789A4215D18A7800EB8003A8
:1019500023449B789A420ED1CA7800EB800323443B
:10196000DB789A4207D10A7900EB800323441B7984
:101970009A4200D102E0401C1428D8DB00BF324A52
:101980001278324B1A70012801DB102800DD10BDDF
:101990002D4B187000BFFAE730B5C1B000244FF4EA
:1019A000807101A807F0F1FA002524480078244945
:1019B0000978884221D0FFF7B5FEF0B10120244913
:1019C000087005221B49234807F0EAFAA8B1194814
:1019D000FFF7A9FF01A801231B4A04210090022060
:1019E00001F055FCC4B2214601A801F041FB1948A1
:1019F00010490A6802600979017141B030BD0020C8
:101A00000AE01149097801EB81010E4A1144095C91
:101A1000084A1154411CC8B20528F2DB0D49054A99
:101A200013680B6012790A7170470000EA00002009
:101A30007C1000206100002074000020E9000020DC
:101A4000E80000207A0000206600002067000020E7
:101A5000680000206900002008B50121512006F02F
:101A600013F80420ADF8000010208DF803000320C7
:101A70008DF802006946CB4805F050FD0421C948A5
:101A800005F0F7FD4FF48040ADF8000010208DF810
:101A9000030003208DF802006946C34805F03EFDAF
:101AA0004FF48041C04805F0E4FD08BD014600291F
:101AB00001DD08467047002901DA4842FAE7084686
:101AC000F8E72DE9F04F85B08246DFF8E0B2B8487C
:101AD0000068B74989680844B54949680844B44969
:101AE000C9684418E11704EB9171881007F0BBFC3A
:101AF0000290AF4800684042AD4989680844AC494B
:101B000049680844AA49C968441AE11704EB91716D
:101B1000881007F0A8FC0390A54909684942A44A27
:101B200092681144A24A5268891AA14AD268881858
:101B300007F0A7FC06460F46584607F0D9FC0022DE
:101B40009C4BCDE9000107F0ADFB804632463B4699
:101B500007F0A8FB044607F007FD974904900860CA
:101B600002A807C88AE8070005B0BDE8F08FFFB5F6
:101B700085B00446914D2846089907F076FA064646
:101B8000DDE9060107F06BFA0746314607F067FA10
:101B900001902846089907F068FA0646DDE9060133
:101BA00007F00BFA0746314607F007FA029028467D
:101BB000089907F05AFA0646DDE9060107F0FDF933
:101BC0000746314607F04BFA03902846089907F07C
:101BD0004CFA0646DDE9060107F041FA07463146B0
:101BE00007F0EBF9049001A80FC884E80F0009B0D2
:101BF000F0BD2DE9FF470C9C6C4DDDE9000107F0BD
:101C0000DCF98046029907F0D8F90746039907F0F6
:101C1000D4F906464FF0814107F05DFA2060009844
:101C200080F000494846019907F0C7F980460299BB
:101C300007F0C3F90746039907F011FA06464FF07B
:101C4000814107F048FA6060009880F0004A5046F1
:101C5000019907F0B2F98146029907F000FA80462F
:101C6000039907F0AAF90746294607F0FEF9064648
:101C70004FF0814107F02FFAA060BDE8FF872DE902
:101C8000FC4104460D4616461F464DA103C9CDE949
:101C90000001F8B28DF80300F0B28DF80400E8B24C
:101CA0008DF805009DF802009DF8031008449DF88A
:101CB000041008449DF805100844C0B28DF80600D1
:101CC0000023224608216846FFF725FABDE8FC817B
:101CD0007CB504460D46002040EA044000F205367B
:101CE00008208DF800008DF8014090208DF802004A
:101CF00000208DF803000195002322460821684644
:101D0000FFF709FA7CBD704710B500211E20FFF7D0
:101D1000DFFF00211420FFF7DBFF00211720FFF772
:101D2000D7FF00211A20FFF7D3FF10BD7FB54FF07A
:101D30007E51009807F099F9054607F0C0FB04466C
:101D400021461E20FFF7C4FF019880F000464FF0A7
:101D50007E51304607F089F9054607F0B0FB04468E
:101D600021461420FFF7B4FF4FF07E51029807F090
:101D70007CF9054607F0A3FB044621461720FFF730
:101D8000A7FF039880F000464FF07E51304607F0E1
:101D90006CF9054607F093FB044621461A20FFF72D
:101DA00097FF7FBD001801400010014090C4DF3A4A
:101DB000BC0800200000D03FF40000200070124456
:101DC00055AA0300000000FF08B50121402005F0DE
:101DD0005BFE0320ADF8000010208DF80300032007
:101DE0008DF8020069460B4805F098FB032109486D
:101DF00005F03FFC08BD10B50121064805F02CFC9C
:101E0000C0F10100C4B222460121024805F035FCB0
:101E100010BD00000018014038B504460020FE49FE
:101E20000870FE490870FE490870FE4908701420C9
:101E3000FD490860204600F06AFC6B4620221146EE
:101E4000FA48FEF747FAFA49086038BD10B5F64877
:101E50000068142800D110BD002240F22661F54828
:101E600006F063FEF448EF49097810F8310010B32A
:101E7000EC480078EA49097888421CD0EE48E949E4
:101E8000097810F83100401EEB49E64A127801F853
:101E900032000846E34A127800EBC2004068E74A85
:101EA0001278815CE34806F0A1FEE4480078401C0B
:101EB000E24908705BE0DB480078D949097888423C
:101EC0004CD0DD48D74A127800EBC2004168D848B0
:101ED0000068FEF754FAD3480078401CC0B2D149DC
:101EE0000870142801DB00200870CF480068401CEF
:101EF000CD490860142801D3142008600020CF4980
:101F00000870C8480078C649097888421CD0CA4879
:101F1000C449097810F83100401EC1B2C648C14A10
:101F2000127800F83210BF4A127800EBC200406805
:101F3000C24A1278815CBF4806F058FEBF4800785C
:101F4000401CBE49087012E00020BD4908701420F2
:101F5000B54908600020B949087008E00020B84978
:101F600008701420B04908600020B44908700122AC
:101F700040F22661AF4806F0D8FD00BF6BE710B510
:101F8000AC4806F037FEC1B2A34802780078401C86
:101F9000A14B1870AB488154184600789F490978C6
:101FA000884204D19D480078401C9C49087010BDAF
:101FB000F8B505460C4626460CB90120F8BD0022AE
:101FC00040F226619B4806F0B0FD1C2094FBF0F126
:101FD00000FB114028B11C2094FBF0F0401CC4B25F
:101FE00003E01C2094FBF0F0C4B28F480068A042CC
:101FF00007D2012240F226618E4806F096FDFF20AE
:10200000DCE769468A480068FEF7A3F98A49844AF2
:10201000127801EBC201486081480078142802DB85
:1020200000207F49087000242FE0287882497C4AEC
:10203000127801EBC20149680855601CC4B21C2C1F
:1020400020DB1C217C48764A127800F83210744854
:102050000078401CC0B272490870142801DB0020CF
:102060000870694672480068FEF773F972496C4A55
:10207000127801EBC20148606B480068401E6A4953
:10208000086000246D1C701EC6B2002ECDD19CB11C
:1020900069486349097800F8314063480068401E88
:1020A000614908605E480078401CC0B25C49087015
:1020B000142801DB002008706148007820B9FFF780
:1020C000C5FE01205E490870012240F22661594890
:1020D00006F02BFD002071E770B50546002400E0F6
:1020E000641C285D0028FBD1E1B22846FFF760FFA1
:1020F00070BD30B5014600240A46524DAB5C551CFC
:10210000EAB2504DAD5C43EA0524204630BD2DE9CE
:10211000F04F85B04B484C490978405C04900498D6
:10212000302875D009DCA0F11A0008282AD2DFE88F
:1021300000F041F1FFEEED29ECEBA2282ED006DCF9
:10214000312866D0402865D0A1281BD104E0A328FF
:102150002ED0A428F9D12CE03A493B480078401C05
:102160000C5C3A48047038480078801C0C5C2046AF
:1021700001F005F93649086036493548006807F02E
:1021800019FA00D8E6E134480068344908600120B3
:1021900033490870002033490860DBE1FFF7B4FDE4
:1021A00000202F4908702F49086029490860D1E1B3
:1021B000D0E1CFE12CA22EA102A807F0F3FB05216C
:1021C00002A8FFF7F5FE2448006807F091F90546DC
:1021D0002A460B4627A102A807F0E4FB072102A824
:1021E000FFF7E6FE24A222A102A807F0DBFB0721ED
:1021F00002A8FFF7DDFE2248006807F079F90546DE
:102200002A460B461BA102A807F0CCFB072139E0A8
:1022100005E13BE16EE100001C0100201D010020F2
:102220001601002017010020180100201C170020B3
:1022300024010020004400407C15002015010020EE
:10224000000100201C1600201E010020B00100200B
:10225000100100200000C84330020020B40100201B
:1022600014010020A4020020207961773D000000C5
:1022700025730000256600002070697463683D00C6
:102280002C02002002A8FFF793FEF3A2AFF2200178
:1022900002A807F087FB062102A8FFF789FEF04895
:1022A000006807F025F905462A460B46AFF23C01C7
:1022B00002A807F077FB072102A8FFF779FEE9A241
:1022C000AFF2540102A807F06DFB032102A8FFF74B
:1022D0006FFEE548006807F00BF905462A460B46F5
:1022E000AFF2700102A807F05DFB082102A8FFF71A
:1022F0005FFEDEA2AFF2880102A807F053FB0221C5
:1023000002A8FFF755FE25E17EE059E050E017E016
:102310000EE0FFE70120D6490870D649D64800787C
:10232000401C0C5C204601F02AF8D449086011E1F9
:10233000FFF7EAFC0020CE490870D049086009E1A7
:10234000CC49CD480078401C0C5C204607F0AAF828
:102350000546CB4ACB4B06F0A5FF07460022CA4BE9
:1023600007F012F8824607F0FFF8C44908600846F3
:10237000006807F0BDF805464FF03332C34B07F055
:10238000DFF803D8C248BD4908600DE0BB480068CB
:1023900007F0AEF805464FF03332BE4B07F0BCF8FD
:1023A00002D8BD48B54908600120BC490870D1E099
:1023B000FFF7AAFC0020B9490870B0490860C9E0DD
:1023C0000120B7490870B7490870AA49AA4800789F
:1023D000801C095CA74AA8480078401C105C41EAB0
:1023E00000200FFA80F9484607F04BF80746002214
:1023F000AD4B06F0C9FF054607F0B6F8AB490860DB
:1024000000209E490860A5E00020A5490870FFF75C
:102410007BFC002099490860A24908709AE0954920
:1024200095480078401C0C5C204607F03BF80746B6
:1024300000229F4B06F0A8FF054607F095F89D493E
:1024400008608C498C480078801C0C5C204607F0A2
:1024500029F807460022984B06F096FF054607F03C
:1024600083F894494860834983480078C01C0C5C19
:10247000204607F017F8074600228F4B06F084FF2E
:10248000054607F071F88B49886063E079497A481E
:102490000078401C0C5C04EB8401480006F0E3FF6C
:1024A00086490860084600688549086083480068D6
:1024B000844908606F4970480078801C0C5C204695
:1024C00006F0F0FF05460022774B06F05DFF074659
:1024D00007F04AF87C490860084600687B490860B4
:1024E000794800687A490860624963480078C01CEE
:1024F0000C5C00BF01206A4908706A4908705D4998
:102500005D480078801C095C5A4A5B480078401C92
:10251000105C41EA00200FFA80F96E48006806F06E
:10252000E7FF07468846484606F0ABFF054600220F
:102530005D4B06F029FF3A464346CDE9000106F01F
:102540000AFE824607F010F85849086000204B49FF
:10255000086000BF00BF05B0BDE8F08F30B54FF098
:10256000FF3064E05C4C2478002C37D100215B4CB8
:102570002478641FE2B23F4CA45C552C01D14C1C62
:10258000E1B2564C2478241FE2B23A4CA45CAA2C47
:1025900001D14C1CE1B2514C2478E41EE2B2354C1E
:1025A000A45C1E2C01D14C1CE1B203293AD10124B8
:1025B000494D2C70494C2478641EE2B22D4CA45C29
:1025C000474D2C70454C24782B4D2C70434C24786F
:1025D000434D2D782C44434D2C7023E03F4C247800
:1025E000404D2D78AC421DD100243B4D2C70224C27
:1025F00023780021002207E01E4CE45C0C44E1B289
:102600005C1CE3B2541CE2B2354C2478A242F3DBEA
:10261000CC43E1B2174CE45C8C4203D1154C164D0F
:102620002D78605D2D4C2478641C2C4D2C702B4C27
:1026300024782D4D2D78AC4294D130BD10B527486B
:10264000007829490978884205D0FFF787FF401CA8
:1026500001D0FFF75CFD10BD20726F6C6C3D000077
:102660002802002020743D00880200200D0A00008E
:102670006C0100201C1600201E010020100100200B
:102680004AD8124DFB210940008066403333E33FB6
:102690009A99193F3333E3BF9A9919BF6D0100200E
:1026A0006E0100201401002000002440B40100202D
:1026B00000005940A01B002000408F40F401002082
:1026C000F8010020FC01002000020020040200208C
:1026D0000802002030020020200100201D010020FF
:1026E000210100201F0100201C01002008B5262028
:1026F0008DF8000000208DF8010006208DF8020002
:1027000001208DF80300684603F043FD08BD10B5B5
:1027100086B004460121042005F0B6F901214804E1
:1027200005F0BFF94FF4E06003F02EFD26208DF890
:10273000000000208DF8010006208DF80200012025
:102740008DF80300684603F024FD0420ADF8140062
:1027500018208DF8170003208DF8160005A92948C8
:1027600004F0DCFE0820ADF8140004208DF81700FA
:1027700005A9244804F0D2FE01940020ADF8080019
:10278000ADF80A00ADF80C00ADF810000C20ADF863
:102790000E0001A91C4806F030F9012240F2255133
:1027A000194806F0C2F9012240F22661164806F0E7
:1027B000BCF90121144806F0ACF906B010BD10B503
:1027C0002021114806F080FA012808D120210E4866
:1027D00006F087FA0D48007808B1FFF7D0FB4021DA
:1027E000094806F071FA012808D14021064806F090
:1027F00078FA0648007808B1FFF728FB0120034962
:10280000087010BD0008014000440040280100206D
:1028100008B501217D2005F037F9F020ADF8000062
:1028200048208DF8030003208DF802006946B44863
:1028300004F074FE4FF20300ADF8000048208DF85C
:10284000030003208DF802006946AE4804F066FEDE
:102850004FF47C70ADF8000048208DF80300032091
:102860008DF802006946A84804F058FE4FF47F40F6
:10287000ADF8000048208DF8030003208DF8020019
:102880006946A24804F04AFE4FF4FF40ADF800004C
:1028900048208DF8030003208DF8020069469C480B
:1028A00004F03CFE00209B4908709B489B4908604F
:1028B0009B4888609848C860994998484161994800
:1028C00096498861984995480162934893494862BE
:1028D00093499248C1629548954908600020486034
:1028E0008860944908609449086008BD2DE9FF4755
:1028F00082B01C46DDE90E780020009001908F48E0
:1029000001688F48006806F04BFE04D000208A4919
:1029100008608C4908608A4801688B48006806F0A6
:102920009EFB844908600846006806F0E1FD054604
:102930000022864B06F0F0FD0CD27E48006806F0BF
:10294000D7FD05460022824B06F0FAFD02D2002098
:102950007849086077490398096806F086FB0546C0
:1029600078480168284606F028FB764908607248D6
:1029700001687048006806F072FB81464946049879
:1029800006F073FB06466B490298096806F06DFB7A
:1029900082466C480168504606F00FFB05463146FA
:1029A00006F00BFBA060A06806F0A2FD05464FF004
:1029B0003332684B06F0C4FD02D86748A0600BE0D4
:1029C000A06806F095FD05464FF03332634B06F0E4
:1029D000A3FD01D86248A060A06806F089FD054605
:1029E000604A614B06F098FD0AD8A06806F080FDA9
:1029F00005465C4A5D4B06F0A3FD01D80020A060AF
:102A00004C4800684C4908604D4800684B490860D4
:102A100006B0BDE8F0872DE9F04188B007460E46C4
:102A2000144600253B480078A0B100BF0DE005EB3F
:102A300045003A4901EB800005EB45014C4A02EBA9
:102A400081030ECB0EC0681CC5B2042DEFDB002045
:102A500030490870012E06D0022E0CD0032E17D05C
:102A6000042E2BD11DE02D4A07CA05AB07C30294E3
:102A70000020039023E0294AD2E903105269CDE9EE
:102A80000602059184F0004002900020039016E0B9
:102A9000224A183207CA05AB07C3002002900394EC
:102AA0000DE01E4AD2E90910D26ACDE9060205916D
:102AB0000020029084F00040039000E000BF00BFBF
:102AC000204606F0FCFCB0F1000801DB404601E0C6
:102AD000C8F1000010B92748007838B102AB14489B
:102AE000CDE9006407C8FFF701FF01E00020049072
:102AF00002A807C887E8070008B0BDE8F081000019
:102B000000080140000C0140001001400014014089
:102B100000180140380100208FC2753D701B002055
:102B20008FC2F53C8FC275BD8FC2F5BCCDCC4C3D7C
:102B3000A01B00203C0100204001002034010020A7
:102B4000B401002030010020300200200000E03FEE
:102B50000000E0BF3333E33F9A99193F3333E3BFBB
:102B60009A9919BF7B14AE47E17A843FE17A84BF1A
:102B7000401B00206E010020014601EB41005E4A2F
:102B800052F8200008B908207047002001EB4102EC
:102B9000594B43F8220001EB410203EB8202908083
:102BA00001EB410203EB8202D08001EB410203EB17
:102BB0008202107200BFE7E710B5FDF725FF002481
:102BC00004E02046FFF7D8FF601CC4B2102CF8DBED
:102BD00010BD10B5FDF74EFF10BD70B503460C4695
:102BE000002101E0481CC1B201EB4100424D55F803
:102BF000200008B11029F5DB102901D1082070BD93
:102C000001EB41003C4D45F8203001EB410005EB64
:102C10008000848001EB410005EB8000C280002031
:102C200001EB4105344E06EB850528720846E6E7C0
:102C3000704710B5002420E004EB44002E4901EB5E
:102C40008000007A002816DD04EB44012A4A52F87D
:102C500021008047002004EB4401274A02EB810158
:102C6000087204EB4400114601EB8000C08810B9E3
:102C70002046FFF781FF601CC4B2102CDCDBFFF79D
:102C8000D7FF10BD002033E000EB40011A4A52F894
:102C9000211059B300EB400102EB81018988C1B9D1
:102CA000012100EB4002144B03EB8202117200EB96
:102CB00040011A4602EB8101C988B9B100EB40011D
:102CC00002EB8101C98800EB400203EB8202918094
:102CD0000CE000EB4001084A02EB81018988491EA3
:102CE00000EB4002044B03EB82029180411CC8B20E
:102CF0001028C9DB70470000AC1B00200120674989
:102D00000870674867490860042067490860002028
:102D100066494860002165488160C16001206349BF
:102D200008740020704710B58CB00446201D07C8F9
:102D300009AB07C301A809A90EC9FEF718FF02A82D
:102D40000DC80199CDE90723CDE9051005A80FC8E5
:102D5000FEF7ECFF0CB010BD10B500244F48007812
:102D6000C0B100BF08E04F48006850F82400007C64
:102D700000B105E0601CC4B24B4800688442F2DB3D
:102D800000BF474850F824004949086008460068D9
:102D9000FFF7C9FF10BD0EB54648007868B10520A1
:102DA00045490870454800684860002142488160F4
:102DB000C1600120404908742BE04148007878B197
:102DC00005203D4908700020486000213A48816094
:102DD0003A4801683848C16001203749087418E052
:102DE0003848007890B105203349087033480268AC
:102DF000354801786846FFF70EFE2F489DE80E0023
:102E0000001D0EC001202C49087402E000202A4950
:102E100008740EBD30B502460B460024002104E0C4
:102E2000555C2544ECB24D1CE9B20829F8DB9C4204
:102E300001DB012000E0002030BD30B503460C4628
:102E40000020214605E05D5C012D00D101204D1CD4
:102E5000E9B29142F7DD30BD0EB51C48007890B163
:102E600005201B4908701B4802681748017868460E
:102E7000FFF7D1FD16489DE80E00001D0EC0012091
:102E80001349087402E00020114908740EBD10B502
:102E9000FFF781FFFFF760FF10BD000080010020F9
:102EA00058010020780100207C010020B41C002083
:102EB000680100206C010020781C00201001002017
:102EC0006D01002014010020B00100208C010020C1
:102ED000A01C00209001002038B504460020FE49C7
:102EE0000870FE490870FE490870FE4908701420F9
:102EF000FD490860204600F0E0FC6B4620221146A8
:102F0000FA48FDF7E7F9FA49086038BD10B5F64808
:102F10000068142800D110BD002240F22661F54857
:102F200005F003FEF448EF49097810F8310010B3BA
:102F3000EC480078EA49097888421CD0EE48E94913
:102F4000097810F83100401EEB49E64A127801F882
:102F500032000846E34A127800EBC2004068E74AB4
:102F60001278815CE34805F041FEE4480078401C9B
:102F7000E24908705BE0DB480078D949097888426B
:102F80004CD0DD48D74A127800EBC2004168D848DF
:102F90000068FDF7F4F9D3480078401CC0B2D1496D
:102FA0000870142801DB00200870CF480068401C1E
:102FB000CD490860142801D3142008600020CF49AF
:102FC0000870C8480078C649097888421CD0CA48A9
:102FD000C449097810F83100401EC1B2C648C14A40
:102FE000127800F83210BF4A127800EBC200406835
:102FF000C24A1278815CBF4805F0F8FDBF480078EE
:10300000401CBE49087012E00020BD490870142021
:10301000B54908600020B949087008E00020B849A7
:1030200008701420B04908600020B44908700122DB
:1030300040F22661AF4805F078FD00BF6BE710B5A0
:10304000AC4805F0D7FDC1B2A34802780078401C17
:10305000A14B1870AB488154184600789F490978F5
:10306000884204D19D480078401C9C49087010BDDE
:10307000F8B505460C4626460CB90120F8BD0022DD
:1030800040F226619B4805F050FD1C2094FBF0F1B6
:1030900000FB114028B11C2094FBF0F0401CC4B28E
:1030A00003E01C2094FBF0F0C4B28F480068A042FB
:1030B00007D2012240F226618E4805F036FDFF203E
:1030C000DCE769468A480068FDF743F98A49844A83
:1030D000127801EBC201486081480078142802DBB5
:1030E00000207F49087000242FE0287882497C4A1C
:1030F000127801EBC20149680855601CC4B21C2C4F
:1031000020DB1C217C48764A127800F83210744883
:103110000078401CC0B272490870142801DB0020FE
:103120000870694672480068FDF713F972496C4AE5
:10313000127801EBC20148606B480068401E6A4982
:10314000086000246D1C701EC6B2002ECDD19CB14B
:1031500069486349097800F8314063480068401EB7
:10316000614908605E480078401CC0B25C49087044
:10317000142801DB002008706148007820B9FFF7AF
:10318000C5FE01205E490870012240F226615948BF
:1031900005F0CBFC002071E770B50546002400E087
:1031A000641C285D0028FBD1E1B22846FFF760FFD0
:1031B00070BD30B54FF0FF3062E0534C2478002CE6
:1031C00037D10022454C2478241FE1B24D4C645C79
:1031D000552C01D1541CE2B2404C2478E41EE1B2DB
:1031E000484C645CAA2C01D1541CE2B23B4C2478BC
:1031F000A41EE1B2434C645C152C01D1541CE2B214
:10320000032A38D10124404D2C70344C2478641E9C
:10321000E1B23C4C645C3D4D2C70304C24783C4D0C
:103220002C702E4C2478394D2D782C44394D2C702F
:1032300021E02A4C2478374D2D78AC421BD1002454
:10324000314D2C70324C23780022002107E02D4CA8
:10325000E45C1444E2B25C1CE3B24C1CE1B22B4CC3
:103260002478A142F3DB274CE45C944203D1254C43
:10327000274D2D78605D194C2478641C174D2C70F7
:10328000164C2478144D2D78AC4296D130BD2DE9E2
:10329000F04305460E46079C002700204FF05509D5
:1032A0008046401C04F808904FF0AA098046401C54
:1032B00004F808904FF015098046401C04F8089067
:1032C00003F1020C8046401C04F808C08046401CF4
:1032D00004F8085080461FE0A4010020A50100204A
:1032E0009B0100209C010020A0010020741E0020F2
:1032F000AC01002000480040D41C00209A010020AE
:1033000084010020741D0020A8010020A9010020D4
:10331000A6010020A7010020401C04F808605BB94A
:1033200005EB060C0CF0FF07844600F1010808F0DD
:10333000FF0004F80C7020E005EB060C0CF0FF0712
:10334000002111E012F80190844600F1010808F014
:10335000FF0004F80C9012F801C0BC440CF0FF0709
:1033600001F1010C0CF0FF019942EBDB844600F106
:10337000010808F0FF0004F80C70BDE8F0832DE9A7
:10338000F84F8246504606F077F8009006F0B0F805
:1033900080460022F84B05F0F7FF06460022F74B67
:1033A00005F080FF044606F0DFF883465846BDE886
:1033B000F88F10B5014600200A46F14CA35C541C5E
:1033C000E2B2EF4CA45C43EA042010BD2DE9F04FBB
:1033D000C7B04FF4807107A805F0D7FD0020069014
:1033E000039004900590E7490870E548E64909789C
:1033F00010F80190B9F1040F7ED009DCB9F1010F8A
:103400000DD0B9F1020F78D0B9F1030F76D1A9E14F
:10341000B9F1050F73D0B9F1FF0FF7D1EBE1D8493E
:10342000D9480078401C0C5C132C02D0142C67D1B6
:10343000BFE0D349D4480078801C0E5C304606F0CB
:1034400031F882460022D14B05F09EFF074606F078
:103450008BF8CF490860CA49CB480078C01C0E5C85
:10346000304606F01FF807460022C84B05F08CFFD7
:10347000824606F079F8C6498860C149C24800789A
:10348000001D0E5C304606F00DF882460022BF4B50
:1034900005F07AFF074606F067F8BD49C860B849ED
:1034A000B9480078401D0E5C304605F0FBFF07462A
:1034B0000022B64B05F068FF824606F055F8B44985
:1034C0004861AF49B0480078801D0E5C704205F03D
:1034D000D8FF07460022AD4B05F056FF824606F0A6
:1034E00043F8AB498861A649A7480078C01D0E5C27
:1034F000704205F0C6FF04E07CE1A4E08EE1DAE072
:103500009EE007460022A14B05F03EFF824606F0F2
:103510002BF89F4908629A499B48007808300E5C56
:10352000304605F0BFFF82460022984B05F02CFF85
:10353000074606F019F89649486291499248007882
:1035400009300E5C304605F0ADFF074600228F4B78
:1035500005F01AFF824606F007F88D49C86200257B
:103560000BE089480078801C28448549095C05F1F6
:103570000800884A1154681CC5B2082DF1DB854A41
:103580001021854800F039FA07A800907C487E4950
:1035900009780844821C082321464846FFF777FE35
:1035A000069007A80699FFF763FD01207B49087084
:1035B00047E075490978891CC8B2FFF7FAFE7849D7
:1035C000086071490978091DC8B2FFF7F2FE754914
:1035D00008606D490978891DC8B2FFF7EAFE724993
:1035E0000860694909780831C8B2FFF7E2FE6F49FF
:1035F0000860002509E064480078801C2844604980
:10360000085C64494855681CC5B2082DF3DB614A63
:103610001021614800F0F1F96548047007A8009096
:103620005748594909780844821C082321464846CE
:10363000FFF72DFE069007A80699FFF719FD00E099
:1036400000BF00BFEBE04E494F480078401C0C5CC7
:10365000082C2DD2DFE804F02C040506072C0816F0
:1036600027E026E025E024E007A800231A462146AB
:1036700000904846FFF70BFE069007A80699FFF753
:10368000F7FC16E04B4800681421B0FBF1F0C0B223
:103690008DF8080007A8012302AA21460090484699
:1036A000FFF7F5FD069007A80699FFF7E1FC00E09B
:1036B00000BF00BFB3E0324933480078401C0C5CC7
:1036C000022C02D0042C4AD132E02D492E48007839
:1036D000801C0E5C384806702B480078C01C0E5CBD
:1036E0003046FFF74CFE35490860354933480068DD
:1036F00005F060FF00D833E03248006832490860C6
:1037000001203249087000202A49086007A800906B
:103710001B481D4909780844821C04232146484659
:10372000FFF7B5FD069007A80699FFF7A1FC17E083
:10373000FEF7EAFA0020254908701E4908601F4973
:10374000086007A800231A46214600904846FFF764
:103750009EFD069007A80699FFF78AFC00E000BFCF
:1037600000BF5CE0064908480078401C0C5C012C56
:103770002ED0022C3BD133E000E06F4000008940A6
:10378000741D00208B010020A601002000408F4006
:10379000401B00207422002010F001083801002096
:1037A000480100204C01002050010020540100205D
:1037B000BA010020A4020020B001002090010020E6
:1037C0000000C84330020020B40100208C0100201A
:1037D0002B480078062802DC01202A49087007E0FF
:1037E00000202849087003900490059000E000BF75
:1037F00000BF14E013E0012C02D0022C0BD103E037
:1038000001202049087007E000201E49087003903D
:103810000490059000E000BF00BF00E000BF00BFC3
:1038200047B0BDE8F08F10B5174800781749097800
:10383000884205D0FFF7BDFC401C01D0FFF7C6FD54
:1038400010BD0146012903DB642901DA104806E0B6
:10385000642903DBFF2901DC0E4800E000207047EB
:1038600010B502460B460020002105E0545C8C4058
:103870000443E0B24C1CE1B29942F7DB10BD0000FA
:10388000BA0100208B010020A5010020A401002026
:103890009CC4A03E9CC4A0BE08B527208DF80000A3
:1038A00000208DF8010006208DF8020001208DF81F
:1038B0000300684602F06DFC08BD10B586B00446F2
:1038C0000121082004F0E0F80121880404F0E9F85F
:1038D0004FF4E06002F058FC27208DF80000002033
:1038E0008DF8010006208DF8020001208DF80300FC
:1038F000684602F04EFC4FF48060ADF814001820CA
:103900008DF8170003208DF8160005A92B4803F049
:1039100005FE4FF40060ADF8140004208DF8170088
:1039200005A9264803F0FAFD01940020ADF808002F
:10393000ADF80A00ADF80C00ADF810000C20ADF8A1
:103940000E0001A91E4805F058F8012240F2255149
:103950001B4805F0EAF8012240F22661184805F0FC
:10396000E4F80121164805F0D4F806B010BD10B5F2
:103970002021134805F0A8F9012805D1202110487D
:1039800005F0AFF9FFF75BFB40210D4805F09CF90E
:10399000012805D140210A4805F0A3F9FFF7B6FA3E
:1039A0000821074805F090F9012806D108210448AC
:1039B00005F097F9024805F01DF910BD000C014013
:1039C0000048004070B504460D462668701C08D1BA
:1039D00003F085FA2946204603F096FB03F08BFAA4
:1039E0000AE003F07CFA204603F0BEFA294620469E
:1039F00003F08AFB03F07FFA70BD2DE9F041054624
:103A00000E461746002429E055F80480385D9C498D
:103A1000087038194078487018F101000AD103F095
:103A20005EFA974A128891B2281903F0A0FB03F0BE
:103A300062FA0CE003F053FA281903F095FA904A61
:103A4000128891B2281903F092FB03F054FA012E68
:103A500000D105E0A01C84B2B01E86B2002ED3D1E6
:103A600000BFBDE8F08130B50346002013E01C5ACA
:103A7000834D2C60012903D12C46247814540CE08A
:103A80007F4C247814547E4C647815186C70841C18
:103A9000A0B28C1EA1B20029E9D100BF30BD2DE932
:103AA000F74183B00D461646002700240020019000
:103AB000A8460420029003F012FA06F2FF30800AB2
:103AC0000190352003F0A6FC00BF08E04FF48062AF
:103AD000039902FB071003F047FA02907F1C01983C
:103AE000874203D29DF808000428EFD0039C05E02C
:103AF00002CD204603F008FB0290241D03983044B9
:103B0000A04203D99DF808000428F1D0039C09E0E5
:103B100058F8041B2068814203D0002006B0BDE89D
:103B2000F081241D03983044A042F1D803F0E3F95A
:103B30000120F3E737B5044615462A462046019989
:103B400005F00AFA01203EBD2DE9F0414D4A102151
:103B50004D48FFF788FF4B4800784A49497840EACA
:103B600001204A490860474880784649C97840EAB8
:103B7000012047490860434800794249497940EAB1
:103B80000120444908603F4880793E49C97940EAAC
:103B90000120414908603B49087A05F083FC06464C
:103BA00000223E4B05F0F0FB044605F0DDFC3C49ED
:103BB00008603449487A05F075FC06460022374B08
:103BC00005F0E2FB044605F0CFFC354988602D493D
:103BD000887A05F067FC06460022304B05F0D4FBDE
:103BE000044605F0C1FC2E49C8602649C87A05F094
:103BF00059FC06460022294B05F0C6FB044605F099
:103C0000B3FC274948611F49097B484205F039FC4C
:103C100006460022214B05F0B7FB044605F0A4FC44
:103C20001F4988611749497B484205F02AFC06462E
:103C300000221A4B05F0A8FB044605F095FC184934
:103C400008621049887B05F02DFC06460022134BC4
:103C500005F09AFB044605F087FC114948620949C2
:103C6000C87B05F01FFC064600220C4B05F08CFBC0
:103C7000044605F079FC0A49C862BDE8F0810000FD
:103C8000BC0100207422002010F00108480100202F
:103C90004C010020500100205401002000408F40C2
:103CA000701B00202DE9F04704464FF07C51204660
:103CB00005F0DBF9814625462E46FE48A0EB660658
:103CC00035462946484605F0D0F98246294605F092
:103CD000CCF980464FF07F5105F0C4F907462946DC
:103CE00005F0C3F905462846BDE8F0872DE9F84FF1
:103CF0000446E168084605F0B8F90090A168084656
:103D000005F0B3F981466168084605F0AEF98246D0
:103D10002168084605F0A9F98346514605F04DF99A
:103D20008046494605F049F90746009905F045F9EE
:103D30000646FFF7B7FF05462946206805F095F9C6
:103D400020602946606805F090F960602946A06807
:103D500005F08BF9A0602946E06805F086F9E0607F
:103D6000BDE8F88F2DE9F84F04460D461646316838
:103D7000084605F07AF900902968084605F075F9BB
:103D800082462168084605F070F98346514605F0E1
:103D900014F98146009905F010F98046FFF782FF7B
:103DA00007463946206805F060F9206039462868E2
:103DB00005F05BF928603946306805F056F9306047
:103DC000BDE8F88F30B50021002300224C1E72E0C0
:103DD000B948007878BB0022B8480178B848405C00
:103DE000552801D1501CC2B2B4480078401CC1B261
:103DF000B348405C51280BD0B148405C522807D0F2
:103E0000AF48405C542803D0AD48405C532801D1F2
:103E1000501CC2B2022A49D10120A74D2870A748E0
:103E20000078A84D2870A5480078A74D2D78284423
:103E3000A64D28703AE0FFE7A0480078A34D2D7802
:103E4000A84233D100209C4D28709E480378002260
:103E5000002107E09A48C05C1044C2B2581CC3B2AB
:103E6000481CC1B2984800788142F3DB9448974DD2
:103E70002D78405D904219D1914D92480078401CB8
:103E8000285C44B20022002109E08E4800780844F2
:103E9000C3B28B48C05C8E4D6854481CC1B28A487E
:103EA0000078401C8142F0DBE0B230BD83480078EE
:103EB000401C824D287081480078864D2D78A8429C
:103EC00086D100BFF1E72DE9F04F89B082460C465C
:103ED0009146BAF1510F7CD0BAF1520F03D0BAF12A
:103EE000540F77D150E17A48C078000200B2E080E8
:103EF000E08877498978084400B2E08074484079C6
:103F0000000200B22081208971490979084400B279
:103F100020816F48C079000200B2608160896C49DD
:103F20008979084400B26081B4F9060005F09BFA73
:103F30006949019005F099F8834605F0D9FA0746DA
:103F40000022664B05F020FA0022654BCDE9020104
:103F500005F0A8F90022634BCDE9040105F014FA3D
:103F60000546614A614B05F09DF9CDE9060105F072
:103F7000FBFAC9F80C00B4F9080005F074FA5649C8
:103F8000019005F072F8834605F0B2FA054600226A
:103F9000524B05F0F9F907460022514B05F082F922
:103FA0000022504BCDE9020105F0EEF94E4A4F4B8D
:103FB000CDE9040105F076F9CDE9060105F0D4FA62
:103FC000C9F81000B4F90A0005F04DFA484901900B
:103FD00001E04FE010E105F048F8834605F088FA6B
:103FE000054600223D4B05F0CFF900223C4BCDE9C0
:103FF000020105F057F900223A4BCDE9040105F022
:10400000C3F90746384A394B05F04CF9CDE90601AA
:1040100005F0AAFAC9F81400D9F80C0005F068FAFE
:1040200021F000410546334A334B05F075FA02D2C0
:104030000020C9F80C00D9F8100005F059FA21F059
:10404000004105462B4A2C4B05F066FA02D20020AF
:10405000C9F81000D9F8140005F04AFA21F000411F
:104060000546244A244B05F057FA02D20020C9F82D
:104070001400C2E01648C078000200B220802088F8
:1040800013498978084400B2208011484079000221
:1040900000B2608060880E490979084400B26080EF
:1040A0000B48C079000200B2A080A0880849897935
:1040B000084423E0DF59375F64020020E900002054
:1040C0007C100020EA00002079000020EB00002096
:1040D00084220020E8000020000048430000E04067
:1040E00000409F40008066404AD8124DFB210940A5
:1040F000000082C39A9999999999C93F00B2A0800A
:10410000B4F9000005F0AFF9FE49059004F0ADFFE9
:10411000834605F0EDF90022FB4BCDE9060105F0E1
:1041200033F907460022F94B05F0BCF8054605F0C7
:104130001BFAC9F80000B4F9020005F0A2F907461D
:104140000022F14B05F020F90022F04BCDE90601E9
:1041500005F0A8F8054605F007FAC9F80400B4F917
:10416000040005F08EF90022E74BCDE9060105F0C9
:104170000BF905460022E54B05F094F8074605F0DB
:10418000F3F9C9F8080038E0E148C078000200B24D
:10419000A081A089DE498978084400B2A081DC486A
:1041A0004079000200B2E081E089D94909790844E8
:1041B00000B2E081D648C079000200B22082208A95
:1041C000D3498979084400B22082B4F90C0005F083
:1041D0004AF90546CB4904F048FFC9F81800B4F97C
:1041E0000E0005F040F9C9F81C00B4F9100005F004
:1041F0003AF9C9F8200000E000BF00BF09B0BDE8EF
:10420000F08F03B599B00020189017901998169068
:104210000020159014901698512808D0169852280E
:1042200005D01698532802D0169854287ED1B94844
:10423000007800287BD1B84AB8491698FFF743FEAA
:10424000169851281FD0522802D0542851D135E059
:10425000B148C068B249B34A127841F82200AE486A
:104260000069B149AF4A127841F82200AA48406972
:10427000AE49AC4A127841F82200AA480078401CA6
:10428000A849087045E0A4480068A949A94A1278DD
:1042900041F82200A0484068A749A64A127841F890
:1042A00022009D488068A549A24A127841F8220060
:1042B000A0480078401C9F4908702AE09648806911
:1042C0009F49A04A127841F822009348C0699E494C
:1042D0009C4A127841F822008F48006A9B49994A0B
:1042E000127841F8220097480078401C95490870E0
:1042F0000FE08C480078401C8A4908708D4800788F
:10430000401C8C4908708F480078401C8D4908700B
:1043100000BF00BF83480078062808DD8548007884
:104320000628FADD87480078062801E028E2A4E1A3
:10433000F3DD0020149016E01498401C05F093F86B
:1043400077491290149851F8200001461190129864
:1043500004F08BFE1390159904F02FFE159014981D
:10436000401CC0B214906F49097814988842E3DB6E
:104370007749159804F0AFFE764908600020159043
:1043800008460068744908600020149016E01498EC
:10439000401C05F068F864491290149851F8200008
:1043A00001461190129804F060FE1390159904F0E4
:1043B00004FE15901498401CC0B214905949097815
:1043C00014988842E3DB6249159804F084FE614941
:1043D00008600020159008460068604908600020C9
:1043E000149016E01498401C05F03DF84F491290C7
:1043F000149851F8200001461190129804F035FEEF
:104400001390159904F0D9FD15901498401CC0B272
:1044100014904449097814988842E3DB4C49159874
:1044200004F059FE4B4908600020159008460068CA
:104430004B490860002014900DE03D49149851F854
:10444000200001461390159804F0B7FD15901498BC
:10445000401CC0B214903749097814988842ECDBAC
:104460003448007805F008F801461390159804F0D8
:1044700032FE384908600020159008460068394926
:104480000860002014900DE02B49149851F820008A
:1044900001461390159804F090FD15901498401C57
:1044A000C0B214902349097814988842ECDB214863
:1044B000007804F0E1FF01461390159804F00BFE1C
:1044C00024490860002015900846006826490860C5
:1044D000002014900DE01949149851F8200001466D
:1044E0001390159804F069FD15901498401CC0B203
:1044F00014901049097814988842ECDB0D48007834
:1045000034E00000000080BF0000E04000003040C8
:10451000842200203C020020A422002090220020BF
:10452000EC2200208C0200200C2300202C230020F1
:104530004C2300208D0200206C2300208C230020BF
:10454000AC2300208E020020CC230020EC2300208E
:1045500000001042380200204002002044020020E7
:10456000480200204C0200205002002004F084FF8A
:1045700001461390159804F0AEFDFE490860002036
:10458000159008460068FC490860002014900DE072
:10459000FA49149851F8200001461390159804F038
:1045A0000CFD15901498401CC0B21490F449097881
:1045B00014988842ECDBF248007804F05DFF014675
:1045C0001390159804F087FDEA49086000201590C3
:1045D00008460068EB490860002014900DE0EA49A5
:1045E000149851F8200001461390159804F0E5FC4A
:1045F00015901498401CC0B21490E14909781498A1
:104600008842ECDBDE48007804F036FF0146139068
:10461000159804F060FDD749086000201590084601
:104620000068DA490860002014900DE0D849149819
:1046300051F8200001461390159804F0BEFC159027
:104640001498401CC0B21490CD490978149888423F
:10465000ECDBCB48007804F00FFF0146139015986F
:1046600004F039FDC3490860002015900846006831
:10467000C84908600120C8490870C7480078002868
:104680007ED0BD4AC549C648FFF76CFBC14ABF4949
:10469000BC48FFF767FBB848006804F029FFCDE984
:1046A0001001BE48006804F023FFCDE90E01DDE9EA
:1046B000102306F071FBCDE9120104F055FFB94952
:1046C0000860B748006804F013FFCDE9100106F058
:1046D00013F9CDE9120104F047FFB3490860084619
:1046E000006804F005FFCDE9080106F015FCCDE9EE
:1046F0000C01AC48006804F0FBFECDE9040106F0B3
:1047000061FCCDE90801A348006804F0F1FECDE9A1
:104710000601DDE9082304F0C5FDCDE90A01DDE964
:104720000C2304F0BFFDCDE910019F48006804F0A0
:10473000DFFECDE9040106F045FCCDE9080199480A
:10474000006804F0D5FECDE9000106F03BFCCDE9A0
:1047500004018E48006804F0CBFECDE90201DDE9DA
:10476000042304F09FFDCDE90601DDE9082304F0F0
:1047700099FDCDE90C018B48006804F0B9FE00E01A
:104780002EE3CDE9040106F0C7FBCDE908017D4821
:10479000006804F0ADFECDE90601DDE9082304F070
:1047A00081FDCDE90A01DDE90C2304F0D4FCCDE95B
:1047B0000E01DDE9102304F06FFDCDE9120104F0D4
:1047C000D3FE18907848006804F092FECDE9080105
:1047D00006F0F8FBCDE90C016E48006804F088FE95
:1047E000CDE90A01DDE90C2304F05CFDCDE91001FF
:1047F0006D48006804F07CFECDE9080106F08CFBF2
:10480000CDE90C016148006804F072FECDE90A01AF
:10481000DDE90C2304F046FDCDE90E01DDE91023AE
:1048200004F099FCCDE9120104F09EFE17900021DE
:10483000189804F0B5FE03D2189880F00040189044
:104840000021179804F0ACFE03D2179880F00040C6
:10485000179000214D48006804F0ACFE17D20021EB
:104860004848006804F09CFE11D2DDE9170104F00D
:1048700032FC0F9004F03CFECDE9100106F07AF90D
:10488000CDE9120104F070FE4849086064E000219F
:104890003E48006804F084FE1DD2002139480068BB
:1048A00004F07EFE17D2DDE9170104F014FC0D9030
:1048B00004F01EFECDE90E0106F05CF900223C4B2F
:1048C000CDE9100104F0EEFCCDE9120104F04CFE3C
:1048D0003649086040E000212C48006804F06AFE78
:1048E0001DD200212748006804F064FE17D2DDE9DC
:1048F000170104F0F0FB0D9004F0FAFDCDE90E0174
:1049000006F038F92B4A2C4BCDE9100104F0C7FC16
:10491000CDE9120104F028FE244908601CE0DDE91D
:10492000170104F0D8FB0B9004F0E2FDCDE90C0177
:1049300006F020F91F4A204BCDE90E0104F0AFFC30
:1049400000221B4BCDE9100104F0ACFCCDE91201B3
:1049500004F00AFE154908601448006804F0C8FD18
:104960000022164BCDE9060104F09CFCCDE90801BC
:1049700026E000003802002054020020AC23002072
:104980008E02002058020020CC2300205C02002070
:10499000EC230020600200203C0200205002002096
:1049A0004C020020280200202C02002030020020AF
:1049B0000000F0BF4AD8124DFB2109400000E03F43
:1049C00006F000FBCDE90C01FE48006804F090FD04
:1049D0000022FD4BCDE9020104F064FCCDE90401A5
:1049E00006F0F0FACDE90801F848006804F080FD0F
:1049F0000022F54BCDE9020104F054FCCDE904019D
:104A000006F0E0FACDE90601DDE9082304F04AFCEE
:104A1000CDE90A01DDE90C2304F044FCCDE91001E5
:104A2000EB48006804F064FD0022E74BCDE9060185
:104A300004F038FCCDE9080106F06EFACDE90C016E
:104A4000E048006804F054FD0022DF4BCDE902018C
:104A500004F028FCCDE9040106F05EFACDE9080176
:104A6000DA48006804F044FD0022D74BCDE902018A
:104A700004F018FCCDE9040106F04EFACDE9060178
:104A8000DDE9082304F00EFCCDE90A01DDE90C2381
:104A900004F008FCCDE90E01DDE9102304F05BFB16
:104AA000CDE9120104F060FD1A990860C848006859
:104AB00004F01EFD0022C44BCDE9060104F0F2FB18
:104AC000CDE9080106F07EFACDE90C01BD48006889
:104AD00004F00EFD0022BC4BCDE9020104F0E2FB24
:104AE000CDE9040106F06EFACDE90801B748006887
:104AF00004F0FEFC0022B44BCDE9020104F0D2FB2D
:104B0000CDE9040106F008FACDE90601DDE9082344
:104B100004F0C8FBCDE90A01DDE90C2304F0C2FB77
:104B2000CDE91001AA48006804F0E2FC0022A64B7F
:104B3000CDE9060104F0B6FBCDE9080106F0ECF979
:104B4000CDE90C019F48006804F0D2FC00229E4B86
:104B5000CDE9020104F0A6FBCDE9040106F0DCF981
:104B6000CDE908019948006804F0C2FC0022964B88
:104B7000CDE9020104F096FBCDE9040106F022FA2A
:104B8000CDE90601DDE9082304F08CFBCDE90A013B
:104B9000DDE90C2304F086FBCDE90E01DDE91023ED
:104BA00004F07AFBCDE9120104F0DEFC1A994860AA
:104BB0008748006804F09CFC0022834BCDE9060185
:104BC00004F070FBCDE9080106F0FCF9CDE90C0119
:104BD0007C48006804F08CFC00227B4BCDE902018C
:104BE00004F060FBCDE9040106F096F9CDE9080177
:104BF0007648006804F07CFC0022734BCDE902018A
:104C000004F050FBCDE9040106F0DCF9CDE9060122
:104C1000DDE9082304F046FBCDE90A01DDE90C23B8
:104C200004F040FBCDE910016948006804F060FC25
:104C30000022654BCDE9060104F034FBCDE9080103
:104C400006F06AF9CDE90C015E48006804F050FCFA
:104C500000225D4BCDE9020104F024FBCDE9040103
:104C600006F0B0F9CDE908015848006804F040FCAE
:104C70000022554BCDE9020104F014FBCDE90401FB
:104C800006F04AF9CDE90601DDE9082304F00AFB44
:104C9000CDE90A01DDE90C2304F004FBCDE90E01A6
:104CA000DDE9102304F057FACDE9120104F05CFCB1
:104CB0001A9988604648006804F01AFC0022424BAA
:104CC000CDE9060104F0EEFACDE9080106F024F979
:104CD000CDE90C013B48006804F00AFC00223A4B85
:104CE000CDE9020104F0DEFACDE9040106F06AF92B
:104CF000CDE908013548006804F0FAFB0022324B88
:104D0000CDE9020104F0CEFACDE9040106F05AF92A
:104D1000CDE90601DDE9082304F0C4FACDE90A0172
:104D2000DDE90C2304F0BEFACDE910012848006843
:104D300004F0DEFB0022244BCDE9060104F0B2FAB8
:104D4000CDE9080106F03EF9CDE90C011D480068E7
:104D500004F0CEFB00221C4BCDE9020104F0A2FAC4
:104D6000CDE9040106F0D8F8CDE90801174800683C
:104D700004F0BEFB0022144BCDE9020104F092FACC
:104D8000CDE9040106F0C8F8CDE90601DDE9082304
:104D900004F088FACDE90A01DDE90C2304F082FA77
:104DA000CDE90E01DDE9102304F076FACDE9120118
:104DB00004F0DAFB1A99C860002006490870064919
:104DC00008700BE02C0200200000E03F28020020C9
:104DD000300200208C0200208D020020FE49087065
:104DE0001BB000BD07B596B0002015901490169822
:104DF000139000201290119010900F900E900D9033
:104E00000C900B900A90FBF7DEFE099004F034FB47
:104E1000F24908601398512808D01398522805D0F9
:104E20001398532802D0139854287BD1EC4AED49AB
:104E30001398FFF748F8EA48C068EB49EB4A127844
:104E400041F82200E6480069E949E84A127841F849
:104E50002200E3484069E749E44A127841F8220019
:104E6000DF480068E449E14A127841F82200DC4852
:104E70004068E249DD4A127841F82200D84880684B
:104E8000DF49DA4A127841F82200D5488069DD49C5
:104E9000D64A127841F82200D148C069DA49D34A8B
:104EA000127841F82200CE48006AD849CF4A1278D9
:104EB00041F82200CD480078401CCC4908700846D3
:104EC0000078062801DD002008700020159016E00B
:104ED0001598401C04F0C7FAC3490890159851F87A
:104EE000200001460790089804F0BFF80990149933
:104EF00004F063F814901598401CC0B215901598F2
:104F00000628E5DBC249149804F0E5F80990C14889
:104F10000168099804F0A3F81899C860002014905B
:104F2000159017E0F6E01598401C04F09CFAB04983
:104F30000890159851F8200001460790089804F051
:104F400094F80990149904F038F814901598401CBE
:104F5000C0B2159015980628E5DBAD49149804F009
:104F6000BAF80990AC480168099804F078F81899E3
:104F7000086100201490159016E01598401C04F06C
:104F800072FA9C490890159851F820000146079044
:104F9000089804F06AF80990149904F00EF8149037
:104FA0001598401CC0B2159015980628E5DB984965
:104FB000149804F090F8099098480168099804F052
:104FC0004EF8189948610020149015900DE08A4918
:104FD000159851F8200001460990149803F0EDFF50
:104FE00014901598401CC0B2159015980628EEDB59
:104FF0008B49149804F06FF81899086000201490F9
:1050000015900DE07D49159851F820000146099052
:10501000149803F0D2FF14901598401CC0B215905C
:1050200015980628EEDB7E49149804F054F8189978
:1050300048600020149015900DE07149159851F8C2
:10504000200001460990149803F0B7FF14901598BA
:10505000401CC0B2159015980628EEDB70491498D4
:1050600004F039F8189988600020149015900DE02C
:105070006449159851F8200001460990149803F0EE
:105080009CFF14901598401CC0B2159015980628E6
:10509000EEDB6349149804F01EF81899886100202B
:1050A000149015900DE05849159851F820000146CC
:1050B0000990149803F081FF14901598401CC0B219
:1050C000159015980628EEDB5549149804F003F85E
:1050D0001899C8610020149015900DE04B4915985F
:1050E00051F8200001460990149803F066FF1490CF
:1050F0001598401CC0B2159015980628EEDB48495B
:10510000149803F0E8FF1899086200201490012019
:10511000444908704348007800285BD04248007832
:10512000002858D041480068401C404908600846A3
:105130000068B0F5487F04D1002008603A49087043
:10514000FEE3189A08321899091D1898FEF70AFE0E
:10515000179840680990179800680890099903F01B
:1051600084FF12901798806809901798006808903B
:10517000099903F07AFF11901798C0680990179861
:1051800000680890099903F070FF10901798406824
:105190000990179840680890099903F066FF0F90EE
:1051A000179880680990179840680890099903F04B
:1051B0005CFF0E901798C068099017984068089097
:1051C000099903F052FF0D9017988068099017987D
:1051D00080682DE0FDE39FE18E0200208002002028
:1051E000A422002090220020EC2200203402002083
:1051F0000C2300202C2300204C2300206C230020B3
:105200008C230020AC230020CC230020EC230020A2
:10521000000010424002002044020020480200200A
:105220000000C0403D020020C001002024020020F8
:105230000890099903F019FF0C901798C06809901D
:10524000179880680890099903F00FFF0B90179842
:10525000C06809901798C0680890099903F005FF85
:105260000A9011990D9803F0FAFE039004F040F9AA
:1052700000224FF08043CDE9040104F013F800222E
:10528000FE4BCDE9060104F00DF8CDE9080104F06C
:105290006BF9FB4908600B99129803F08EFE05909C
:1052A00004F026F900224FF08043CDE9060103F017
:1052B000F9FFCDE9080104F057F9F24908604FF011
:1052C0007C500F9903F0CBFE04900C9903F0C7FEBD
:1052D000059004F00DF900224FF08043CDE906015E
:1052E00003F0E0FFCDE9080104F03EF9E64908606B
:1052F000189880680790E3480168079803F0B5FEA6
:105300000990189840680790DF480168079803F0F3
:10531000ACFE0890099903F0A2FEDC4908601898D9
:1053200000680790D8480168079803F09EFE09902E
:10533000189880680790D2480168079803F095FE96
:105340000890099903F08BFED149086018984068CD
:105350000790CB480168079803F087FE09901898DA
:1053600000680790C7480168079803F07EFE089020
:10537000099903F074FEC7490860C448006804F046
:10538000B7F821F00041C44AC44BCDE9080104F04C
:10539000C3F802D20020BD490860BD48006804F08F
:1053A000A7F821F00041BC4ABC4BCDE9080104F04C
:1053B000B3F802D20020B6490860B648006804F08D
:1053C00097F821F00041B44AB44BCDE9080104F04C
:1053D000A3F802D20020AF4908600021AB48006862
:1053E00004F0DEF854D00021A948006804F0D8F891
:1053F0004ED00021A748006804F0D2F848D0A34856
:105400000168A748006803F030FE0990A5480168CC
:10541000099803F0D2FDA34908609D480168A2489D
:10542000006803F022FE0990A0480168099803F083
:10543000C4FD9E490860974801689D48006803F0D4
:1054400014FE09909B480168099803F0B6FD99493C
:1054500008601898C068099092480168099803F09C
:10546000ACFD1899C8601898006909908F480168C8
:10547000099803F0A2FD18990861189840690990ED
:105480008C480168099803F098FD1899486106E076
:1054900000208449086085490860864908607B4887
:1054A00001688548006803F0E0FD09901898C0681D
:1054B00001460890099803F080FD1899C860744867
:1054C00001687E48006803F0D0FD099018980069D3
:1054D00001460890099803F070FD189908616D481D
:1054E00001687748006803F0C0FD0990189840698A
:1054F00001460890099803F060FD189948611898D2
:10550000C06870490860189800696F490860189869
:1055100040696E490860B9E3189A08321899091D64
:105520001898FEF71FFC189A203218991C31189809
:105530001830FEF717FC1798406809901798006814
:105540000890099903F091FD1290179880680990CE
:10555000179800680890099903F087FD1190179833
:10556000C0680990179800680890099903F07DFDBC
:10557000109017984068099017984068089009990A
:1055800003F073FD0F901798806809901798406892
:105590000890099903F069FD0E901798C06809906A
:1055A000179840680890099903F05FFD0D901798CF
:1055B00080680990179880680890099903F055FD54
:1055C0000C901798C06809901798806808900999FE
:1055D00003F04BFD0B901798C06809901798C068AE
:1055E0000890099903F041FD0A9011990D9803F074
:1055F000E4FC06901898006A01460590069803F0AE
:1056000034FD089010990E9803F029FD0490189825
:10561000C06901460390049803F027FD06904FF0FF
:105620007C500C9903F01BFD03900A9903F017FDC1
:1056300004901898806901460390049803F015FDC2
:105640000590069903F0B9FC0790089903F0B5FCA2
:105650004FF08041099003F008FD1D490860129940
:105660000B9803F0FCFC06901898006A0146059020
:10567000069803F0FAFC08902CE000000000F0BF50
:105680000C020020100200201402002068020020FA
:105690006C02002070020020FCA9F1D24D62503F44
:1056A000040200207402002008020020780200207A
:1056B000000200207C020020F8010020FC010020F4
:1056C000F4010020C4010020C8010020CC0100200A
:1056D000D80100204FF07C500F9903F0C0FC0390DC
:1056E0000A9903F0BCFC04901898C0690146039025
:1056F000049803F0BAFC069010990E9803F05DFC34
:1057000004901898806901460390049803F0ADFC5A
:105710000590069903F051FC0790089903F04DFCA1
:105720004FF08041099003F0A0FCFE490860084654
:105730000168006803F099FC0290FB48016800686A
:1057400003F093FC0190029903F037FC039003F0FF
:10575000CFFECDE9040105F08DFCCDE9060103F093
:1057600003FFF249099003F080FCF14908604FF013
:105770007C500F9903F073FC05900C9903F06FFCBB
:1057800006901898006A01460590069803F06DFC93
:10579000089012990B9803F010FC04901898C069B7
:1057A00001460390049803F060FC069011990D984F
:1057B00003F055FC04901898806901460390049802
:1057C00003F053FC0590069903F0F7FB0790089946
:1057D00003F0F3FB4FF04041099003F046FCD5493C
:1057E000086011990D9803F03AFC039003F080FED5
:1057F00000224FF08043CDE9040103F053FD002265
:10580000CD4BCDE9060103F04DFDCDE9080103F0D4
:10581000ABFECA4908600B99129803F0CEFB0590C5
:1058200003F066FE00224FF08043CDE9060103F04D
:1058300039FDCDE9080103F097FEC14908604FF03A
:105840007C500F9903F00BFC04900C9903F007FCBB
:10585000059003F04DFE00224FF08043CDE9060194
:1058600003F020FDCDE9080103F07EFEB549086094
:1058700011990D9803F0F3FB0290AE48016802986D
:1058800003F0F3FB04904FF07C500C9903F0E7FB1E
:1058900001900A9903F0E3FB0290A5480168029881
:1058A00003F0E3FB0390049903F087FB059003F0FA
:1058B0001FFE00224FF08043CDE9060103F0F2FC09
:1058C000CDE9080103F050FE9F4908600B9912983A
:1058D00003F073FB029097480168029803F0C5FB40
:1058E000049010990E9803F0BAFB0290904801685A
:1058F000029803F0BAFB0390049903F0B0FB059003
:1059000003F0F6FD00224FF04043CDE9060103F01D
:10591000C9FCCDE9080103F027FE8C4908604FF06F
:105920007C500F9903F09BFB01900C9903F097FBBF
:10593000029080480168029803F097FB049000E011
:10594000A4E10D99119803F038FB029078480168A2
:10595000029803F08AFB0390049903F080FB059002
:1059600003F0C6FD00224FF08043CDE9060103F0AD
:1059700099FCCDE9080103F0F7FD75490860189816
:10598000006A059071480168059803F06EFB079066
:105990001898C06905906E480168059803F065FB8A
:1059A0000690079903F05BFB0990189880680590B2
:1059B00063480168059803F058FB07901898406801
:1059C000059060480168059803F04FFB0690079921
:1059D00000E09BE203F043FB0890099903F0EDFA25
:1059E0005C490860189880690590594801680598D5
:1059F00003F03BFB07901898006A05905248016835
:105A0000059803F032FB0690079903F028FB0990F4
:105A10001898006805904B480168059803F025FB2D
:105A2000079018988068059044480168059803F02D
:105A30001CFB0690079903F012FB0890099903F0EC
:105A4000BCFA454908601898C06905903E4801684D
:105A5000059803F00AFB07901898806905903B4869
:105A60000168059803F001FB0690079903F0F7FA27
:105A7000099018984068059030480168059803F02F
:105A8000F4FA07901898006805902D480168059869
:105A900003F0EBFA0690079903F0E1FA08900999F0
:105AA00003F08BFA2D4908602A48006803F020FDB6
:105AB00021F000412A4A2B4BCDE9080103F02CFDCF
:105AC00002D20020234908602348006803F010FD3B
:105AD00021F00041224A234BCDE9080103F01CFDCF
