:020000040800F2
:100000005028002045010008A1020008A3020008B2
:10001000A7020008AB020008AF02000800000000C1
:10002000000000000000000000000000B302000813
:10003000B502000800000000B7020008B90200087D
:100040005F0100085F0100085F0100085F01000810
:100050005F0100085F0100085F0100085F01000800
:100060005F0100085F0100085F0100085F010008F0
:100070005F0100085F010008AD0900085F0100088A
:100080005F0100085F0100085F010008F30D000830
:100090000F0E00085F0100085F0100085F01000803
:1000A0005F0100085F0100085F0100085F010008B0
:1000B000DB0B00085F0100085F0100085F0100081A
:1000C0005F0100085F0100085F0100085F01000890
:1000D0005F010008DD080008EF250008E73600088A
:1000E0005F0100085F0100085F0100085F01000870
:1000F0005F0100085F0100085F0100085F01000860
:100100005F0100085F0100085F0100085F0100084F
:10011000F51300085F0100085F0100085F01000897
:100120005F0100085F0100085F0100085F0100082F
:10013000DFF80CD009F0D6F8004800476901000844
:10014000502800200648804706480047FEE7FEE7A3
:10015000FEE7FEE7FEE7FEE7FEE7FEE7FEE7FEE777
:10016000DD880008310100081CB540A103C9CDE9B4
:10017000000108F0B3FB4FF4E13000F011F94FF447
:10018000E13001F021FF4FF4164002F061FD4FF421
:10019000E13001F059F900F0BFFE01F0EDFE00F092
:1001A000B5FC00F031FC01F057FC02F079FC02F0E4
:1001B00047FA03F085FB4FF47A7000F00DFC01F074
:1001C000DBFD00F000FD2B49086033E02A48007891
:1001D0002A49097888421CD003F044FC2849087059
:1001E0000846007851280BD008460078522807D0DE
:1001F00008460078532803D008460078542808D1D0
:100200001F48007803F07EFE1E480078401C1D4900
:10021000087000F0D8FC1C4908600968154A12688B
:10022000881A08F06BFE19490860194917480068D8
:1002300008F020FF134800781528C7DB02F08EFB7A
:1002400014220621134802F09AFB3222012112489F
:1002500002F095FB14220A21104802F090FB02F0F4
:100260008AFB01E002F0B7FBFCE7000011223344F7
:100270005566770008000020E9000020E800002013
:1002800010000020000000200C00002004000020CE
:10029000001B374A0D2C0008C75B0008E524000846
:1002A000704700BFFEE700BFFEE700BFFEE700BFEC
:1002B000FEE770477047704710B502F0B5FB10BD00
:1002C0000246002003E000231354431C98B28842E6
:1002D000F9DB70472DE9F04F07460D461646994663
:1002E00007EB0508BA460024A34601E0601C84B26F
:1002F0002A4850F8340008B1082CF7DD082C05DB3B
:10030000FF2089F800000020BDE8F08F234840F866
:10031000347000EBC4000571204800EBC400467146
:100320001E4800EBC4008671A34605FB06F1384663
:10033000FFF7C6FF002405E0CAF80080C246A844C3
:10034000601C84B2701EA042F6DC144800EBCB00A7
:10035000DAE710B502461368907918B9FF200870E3
:10036000002010BD9079401E9071907908B11868F6
:1003700010601C46241D002008702046F1E702464C
:1003800009B9FF207047091F0B46106818601360F9
:100390009079401C90710020F4E7000028030020B1
:1003A00038B504460020FE490870FE490870FE4931
:1003B0000870FE4908701420FD490870204600F0BE
:1003C0003AFA6B4620221146FA48FFF783FFFA49B2
:1003D000086038BD10B5F6480078142800D110BD6B
:1003E000002240F22661F54808F0E1F8F448EF49B0
:1003F000097810F8310010B3EC480078EA49097820
:1004000088421CD0EE48E949097810F83100401EB6
:10041000EB49E64A127801F832000846E34A1278BE
:1004200000EBC2004068E74A1278815CE34808F0BC
:100430001FF9E4480078401CE24908705CE0DB48A2
:100440000078D949097888424DD0DD48D74A1278DA
:1004500000EBC2004168D8480068FFF790FFD3481E
:100460000078401CC0B2D1490870142801DB00207C
:100470000870CF480078401CC0B2CD4908701428DD
:1004800001DB142008700020CE490870C7480078AE
:10049000C549097888421CD0C948C449097810F870
:1004A0003100401EC1B2C648C04A127800F832106E
:1004B000BE4A127800EBC2004068C24A1278815CE2
:1004C000BE4808F0D5F8BF480078401CBD49087008
:1004D00012E00020BC4908701420B54908700020C3
:1004E000B849087008E00020B74908701420B049E6
:1004F00008700020B3490870012240F22661AF481D
:1005000008F055F800BF6AE710B5AC4808F0B4F839
:10051000C1B2A34802780078401CA14B1870AB48C8
:100520008154184600789F490978884204D19D4833
:100530000078401C9B49087010BDF8B505460C4674
:1005400026460CB90120F8BD002240F226619B48E6
:1005500008F02DF81C2094FBF0F100FB114028B1AD
:100560001C2094FBF0F0401CC4B203E01C2094FB60
:10057000F0F0C4B28E480078A04207DA012240F2BF
:1005800026618E4808F013F8FF20DCE769468A48A8
:100590000068FFF7DEFE8A49834A127801EBC20148
:1005A000486081480078142802DB00207E490870EA
:1005B00000242FE0287882497B4A127801EBC2019F
:1005C00049680855601CC4B21C2C20DB1C217C48E7
:1005D000754A127800F8321073480078401CC0B297
:1005E00071490870142801DB0020087069467248C0
:1005F0000068FFF7AEFE72496B4A127801EBC20148
:1006000048606B480078401E6949087000246D1CE2
:10061000701EC6B2002ECDD19CB1694862490978DE
:1006200000F8314062480078401E614908705E4819
:100630000078401CC0B25C490870142801DB00201F
:1006400008706148007820B9FFF7C4FE01205E49B8
:100650000870012240F22661584807F0A8FF0020E8
:1006600071E770B50546002400E0641C285D002891
:10067000FBD1E1B22846FFF760FF70BD10B54B48D3
:10068000007849490978884234D04D48474A127861
:1006900000EBC200416848480068FFF770FE43481D
:1006A0000078401CC0B241490870142801DB0020CA
:1006B00008703F480078401CC0B23D4908701428BB
:1006C00001DB1420087039480078374909788842DE
:1006D0000CD03B4A354B1B7812F83310334B1B7848
:1006E00002EBC302506800F01CF924E000203649F8
:1006F000087020E032482D4A127800EBC2004168B1
:100700002D480068FFF73BFE28480078401CC0B227
:1007100026490870142801DB00200870244800785E
:10072000401CC0B222490870142801DB1420087054
:1007300000202549087010BD10B55CE0244A1278ED
:10074000002A53D10020174A1278921ED1B21F4AB4
:10075000525C552A01D1421CD0B2124A1278521E64
:10076000D1B21A4A525CAA2A01D1421CD0B20D4A17
:100770001278184B1B68022404FB0322D1B2134ADF
:10078000525CFF2A01D1421CD0B203282ED1012293
:100790000F4B1A70034A12780F4B1A70014A1DE072
:1007A0002500002026000020220000202300002039
:1007B00024000020240500202C00002000380140E7
:1007C00084030020210000201400002024040020C5
:1007D000200000201C000020270000201278094B78
:1007E0001B68022404FB0322074B1A70074A127885
:1007F000521C064B1A70054A1278054B1B789A4218
:100800009CD110BD1C0000202800002026000020E4
:100810002500002008B525208DF8000000208DF867
:10082000010003208DF8020001208DF803006846C6
:1008300005F0F1F908BD10B586B00446012144F277
:10084000050006F063FE01A806F033FC4FF40070CB
:10085000ADF8040003208DF8060018208DF807007D
:1008600001A9594806F09CFB01A806F022FC4FF4B0
:100870008060ADF8040004208DF8070001A95248FB
:1008800006F08EFB514807F0B7FD02A807F060FEA6
:1008900002940020ADF80C00ADF80E00ADF8100089
:1008A0000C20ADF812000020ADF8140002A9474852
:1008B00007F0E5FD012240F22661444807F077FE8B
:1008C000FFF7A8FF012240F22551404807F06FFED4
:1008D00001213E4807F05FFE06B010BD10B5202193
:1008E0003A4807F033FF012808D12021374807F0A4
:1008F0003AFF3748007808B1FFF706FE4021334839
:1009000007F024FF012808D14021304807F02BFFD1
:100910002F48007808B1FFF75DFD01202C490870D1
:1009200010BD30B58DB005460C460121084606F0D5
:10093000E0FD284805F0CEFE2448001D02900395F6
:10094000102004900594002006908020079000203D
:10095000089009900A904FF440500B9000200C90A2
:1009600002A91C4805F058FF01220221194805F090
:100970008AFF0E208DF8040000208DF805008DF808
:10098000060001208DF8070001A805F044F90121B7
:10099000104805F06CFF012280210C4807F02CFE66
:1009A00001210A4807F0F7FD0DB030BD10B54FF436
:1009B000005005F095FF012804D1400305F085FFA4
:1009C000FFF75CFE10BD0000000801400038014048
:1009D0003000002044000240002107E0002200E037
:1009E000521C43F278739A42FADB491C8142F5D3D8
:1009F0007047002105E0002200E0521C0E2AFCDBBB
:100A0000491C8142F7D3704730B57F4800684FF4E6
:100A10007A72B0FBF2F1B1F1807F01D301201DE0C9
:100A200021F07F40401E4FF0E022506150170F220E
:100A3000002807DA13071D0E744B00F00F04241F63
:100A40001D5503E013071C0E714B1C5400BF002002
:100A50004FF0E022906107201061002008B100BF34
:100A6000FEE74FF0E020006920F001004FF0E021A8
:100A7000086130BD4FF0E020006940F001004FF008
:100A8000E0210861704708B54FF4E06005F0BEF85A
:100A90001C208DF8000000208DF8010005208DF845
:100AA000020001208DF80300684605F0B4F808BD87
:100AB0000EB50121084606F036FDFFF7E4FF4FF0C2
:100AC000804006F08BFD41F28830ADF804004720ED
:100AD000ADF800000020ADF80600ADF80200694650
:100AE0004FF0804006F04EFE0121880707F06CFCB5
:100AF00001221146900707F0BCF90121880707F091
:100B00009DF90021012006F00EFD0EBD0EB501215C
:100B1000062006F008FD684607F060F94FF6FF7002
:100B2000ADF804000020ADF80000ADF80600ADF807
:100B300002006946374806F025FE00221146354876
:100B400007F023FA0121334807F0C4FB3021314874
:100B500007F0AEF907212F4807F0F2FB80212D485E
:100B600007F0F7FB01212B4807F068FA4FF6FF70FA
:100B7000ADF804004720ADF800000020ADF80600F5
:100B8000ADF802006946244806F0FCFD0121224828
:100B900007F054FA0421204807F0D2FB01211E4837
:100BA00007F0A4FB20211C4807F0C1FB80211A4854
:100BB00007F0CFFB0121184807F040F90121154843
:100BC00007F03CF90EBD00201249243108880004CA
:100BD0001149243109880844704710B5012188075C
:100BE00007F0F5FB40B10121880707F001FC0B4835
:100BF0000068401C09490860084800680A2802D3B8
:100C000000200649086010BD1003002018ED00E028
:100C100000E400E000040040000800403400002030
:100C200000B589B014208DF8000000208DF8010077
:100C300001208DF802008DF80300684604F0EBFFF8
:100C400013208DF8000000208DF8010002208DF89F
:100C5000020001208DF80300684604F0DCFFAA487A
:100C600005F042F80121480606F05DFC012108204C
:100C700006F04CFC0121084606F048FC4FF4807059
:100C8000ADF8140003208DF8160048208DF81700E9
:100C900005A99E4806F084F94FF40070ADF81400E1
:100CA00003208DF8160018208DF8170005A9974825
:100CB00006F076F901214FF4EA1006F040FA06A892
:100CC00005F036F900208DF81E008DF81F008DF814
:100CD000200001208DF8210000208DF822008DF8E1
:100CE00023008DF81A008DF81B0001208DF81C00E0
:100CF00002208DF81D000C20ADF8180006A98248CE
:100D000005F00BF800208DF80E008DF80F00012083
:100D10008DF810000020ADF80400ADF80600ADF825
:100D20000800ADF80A00ADF80C0001208DF81100A4
:100D300001A805F07CF80221734805F078FC012138
:100D4000714805F074FC012203216F4805F06EFB29
:100D500009B000BD7FB586B0DDE90E560798029058
:100D600004208DF80C009DF820008DF80D008DF802
:100D70000E50002407E009983044015D0DF10F008A
:100D80000155601CC4B2AC42F5DB01A95E4805F018
:100D90003DF90AB070BD30B585B00446A07B28B9D6
:100DA0002068009000208DF8080001E02068019084
:100DB00004208DF80800E07B18B900208DF80900A8
:100DC00002E002208DF80900207B8DF80A00002542
:100DD00006E0201D415D0DF10B004155681CC5B2B8
:100DE000207BA842F5DC6946474805F00FF905B0BD
:100DF00030BD10B50121444805F07FFB012805D125
:100E00000121414805F013FC00F097F810BD10B522
:100E100086B001AA00213C4805F0EDF99DF80D00CF
:100E200000286AD1029880B20B2806D0A0F5806015
:100E3000093803D003285ED12EE05DE00298C0F3AC
:100E40000740012806D002280CD0032812D004281D
:100E500020D117E0DDF80F10DDF813002C4AC2E9AD
:100E6000001017E0DDF80F10DDF81300284AC2E982
:100E700004100FE0DDF80F10DDF81300244AC2E97A
:100E8000021007E0DDF80F10DDF81300204AC2E978
:100E9000061000BF00BF2FE00298C0F307400128F2
:100EA00006D002280CD0032812D0042820D117E045
:100EB000DDF80F40204608F018F81649086018E0E1
:100EC000DDF80F40604208F010F81249486010E069
:100ED000DDF80F40204608F008F80E49886008E069
:100EE000DDF80F40604208F000F80A49C86000E0F1
:100EF00000BF00BF00E000BF00BF0021024805F0B6
:100F0000F2F906B010BD000000640040000C014082
:100F1000102400203024002008B50020F949087072
:100F2000F9490870FFF77CFE6B4620221146F7480E
:100F3000FFF7D0F9F649086008BD1CB5F548006810
:100F400020280DD10020F4490870F448F44A1278A2
:100F500000EB0210C168EE480068FFF710FA1CBDF4
:100F600000220121EF4805F061FAEC48EC490978CC
:100F700000EB01100078002849D0E9480078EA49E0
:100F80000978884243D0E548E549097800EB01102B
:100F90000078082820DBE148E149097800EB0110DE
:100FA00000780838DD49DE4A127801EB021108703A
:100FB000DE4800680821CDE90010D848D8490978F2
:100FC00000EB011494E80F00FFF7C4FED748006857
:100FD0000830D649086097E0D4480168CF48D04A25
:100FE000127800EB02100078CDE90001CB48CC4923
:100FF000097800EB011494E80F00FFF7ABFE002026
:10100000C649C74A127801EB021108707CE0C44857
:101010000078C549097888426DD0C048C04A127826
:1010200000EB0210C168BA480068FFF7A8F9BC4895
:101030000078401CC0B2BA490870202801DB0020AB
:101040000870B4480068401CB2490860202801D3E9
:10105000202008600020B5490860B1480078B249F6
:10106000097888423DD0AD48AD49097800EB0110C0
:101070000078082821DBA948A949097800EB01106C
:1010800000780838C1B2A548A54A127800EB0210D2
:101090000170A64800680821CDE900109F48A049CA
:1010A000097800EB011494E80F00FFF753FE9F4806
:1010B000006808309D49086026E09C480168974810
:1010C000974A127800EB02100078CDE900019348AE
:1010D0009349097800EB011494E80F00FFF73AFEFA
:1010E00012E000208C49087020208A490860002006
:1010F0008E49086008E00020874908702020854953
:10110000086000208949086001221146854805F0E1
:101110008DF900BF23E72DE9F84305460C46164636
:101120001F46A04614B90120BDE8F8830022012122
:101130007C4805F07BF91C2094FBF0F100FB11408A
:1011400028B11C2094FBF0F0401CC4B203E01C202A
:1011500094FBF0F0C4B26F480068A04206D20122AE
:101160001146704805F062F90120DDE769466848DC
:101170000068FFF7EEF869496B4A127801EB02113B
:10118000C86069480078202802DB002066490870A2
:1011900000243EE029786148634A127800EB02108F
:1011A000C0680155601CC4B21C2C2DDB5B485E4935
:1011B000097800EB011046601C2058495A4A127801
:1011C00001EB0211087055485749097800EB0110EE
:1011D000077255480078401CC0B253490870202857
:1011E00001DB00200870694649480068FFF7B1F844
:1011F0004A494D4A127801EB0211C860454800681F
:10120000401E4449086000246D1CA8F1010000F054
:10121000FF08B8F1000FBDD104B340484249097836
:1012200000EB011046603D483F49097800EB011092
:1012300004703A483C49097800EB011007723548C0
:101240000068401E3349086037480078401CC0B22F
:1012500035490870202801DB002008702E480078EE
:1012600020B901202C490870FFF767FE01221146C2
:101270002C4805F0DBF8002056E7002000212C4A1E
:10128000116000BF03E000212A4A1154401CFF28CE
:10129000F9DD704710B50246002000BF03E00023CF
:1012A000244C2354401CFF28F9DD10BD0FB430B589
:1012B00000209DF8161000BF17E00DF11702135C17
:1012C000104A14781278521C0E4D2A70194A135580
:1012D0002A4612780C4B1B789A4204D10A4A12789B
:1012E000521C094B1A70421CD0B28842E5DB30BC5C
:1012F0005DF814FB024622B10F4802600F480170EE
:1013000023E01DE05400002055000020440C002084
:10131000580000203C00002041000020440900202B
:1013200039000020006400403800002050000020F8
:1013300044000020440B0020480000204C00002006
:10134000B2F5807F01D9FF2070470020FCE7000044
:1013500010B586B0044634208DF8000000208DF8CA
:10136000010004208DF8020001208DF8030068467A
:1013700004F051FC0121102006F0C8F80121C80436
:1013800006F0D1F82D48406820F480602B49486071
:101390000846406860F480604860C814ADF81400E6
:1013A00004208DF8170005A9244805F0F9FD0194E3
:1013B0000020ADF80800ADF80A00ADF80C00ADF85B
:1013C00010000C20ADF80E0001A91D4807F057F8D9
:1013D000012240F225511A4807F0E9F8012240F2B3
:1013E0002661174807F0E3F80121154807F0D3F804
:1013F00006B010BD10B52021114807F0A7F901284B
:1014000008D120210E4807F0AEF90E48007808B147
:1014100000F0CEF840210A4807F098F9012808D1D9
:101420004021074807F09FF90648007808B100F00E
:1014300025F801200349087010BD0000001001408C
:10144000004C00405C00002038B504460020FE49F6
:101450000870FE490870FE490870FE4908701420A3
:10146000FD4908602046FFF773FF6B4620221146B6
:10147000FA48FEF72FFFFA49086038BD10B5F64864
:101480000068142800D110BD002240F22661F54802
:1014900007F08DF8F448EF49097810F8310018B3D7
:1014A000EC480078EA49097888421DD0EE48E949BD
:1014B000097810F83100401EEB49E64A127801F82D
:1014C00032000846E349097800EBC1004068E7496B
:1014D000097844182178E34807F0CAF8E34800780F
:1014E000401CE24908705BE0DA480078D849097886
:1014F00088424CD0DC48D74A127800EBC2004168E1
:10150000D7480068FEF73BFFD2480078401CC0B2C5
:10151000D0490870142801DB00200870CE4800680C
:10152000401CCD490860142801D314200860002015
:10153000CE490870C7480078C549097888421CD050
:10154000C948C449097810F83100401EC649C14A4B
:10155000127801F832000846BE4A127800EBC20049
:101560004068C24A1278815CBE4807F081F8BF48E3
:101570000078401CBD49087012E00020BC4908708A
:101580001420B54908600020B849087008E0002020
:10159000B74908701420B04908600020B3490870AA
:1015A000012240F22661AF4807F001F800BF6AE768
:1015B00010B5AC4807F060F8C1B2A34802780078D3
:1015C000401CA14B1870AB488154184600789F49C5
:1015D0000978884204D19D480078401C9B490870D6
:1015E00010BDF8B505460C4626460CB90120F8BDDD
:1015F000002240F226619B4806F0D9FF1C2094FB94
:10160000F0F100FB114028B11C2094FBF0F0401CCD
:10161000C4B203E01C2094FBF0F0C4B28E48006812
:10162000A04207D2012240F226618E4806F0BFFF99
:10163000FF20DCE769468A480068FEF78AFE8A498F
:10164000834A127801EBC20148608148007814286F
:1016500002DB00207E49087000242FE028788249B0
:101660007B4A127801EBC20149680855601CC4B27C
:101670001C2C20DB1C217C48754A127800F83210A3
:1016800073480078401CC0B271490870142801DB0F
:1016900000200870694672480068FEF75AFE7249D9
:1016A0006B4A127801EBC20148606B480068401E2B
:1016B0006949086000246D1C701EC6B2002ECDD191
:1016C0009CB169486249097800F831406248006875
:1016D000401E614908605E480078401CC0B25C4909
:1016E0000870142801DB002008706148007820B9D8
:1016F000FFF7C4FE01205E490870012240F2266116
:10170000584806F054FF002071E770B505460024E4
:1017100000E0641C285D0028FBD1E1B22846FFF7F9
:1017200060FF70BD7EB50020F5E0534C2478002C9E
:101730004AD10022454C2478641EE1B24D4C645CD1
:10174000022C01D1541CE2B2404C24784B4D2D6840
:10175000022606FB0544E1B2464C645C0D2C01D127
:10176000541CE2B2394C2478444D2D68022606FB05
:101770000544641CE1B23F4C645C0A2C01D1541C4A
:10178000E2B2324C24783D4D2D68022606FB05441A
:10179000A41CE1B2374C645C032C01D1541CE2B2AE
:1017A000042A10D10124344D2C700120274C2478B8
:1017B000334D2C70254C2478304D2D68022606FBC5
:1017C0000544304D2C70A1E0204C24782D4D2D780F
:1017D000AC42F8D10024284D2C70002100238DE06C
:1017E000274C24780C44234D2C5D302C0EDB244CEC
:1017F00024780C442C5D392C08DC214C24780C44D2
:101800002C5D303CE4B20DF8014014E01C4C24780F
:101810000C44184D2C5D412C0DDB194C24780C44E4
:101820002C5D462C07DC164C24780C442C5D373C90
:10183000E4B20DF80140124C24780C44641C0D4DA8
:101840002C5D302C32DB1FE0E8000020E900002096
:10185000E0000020E1000020E4000020E41100206E
:10186000F0000020004C004044100020DE0000206A
:1018700060000020E41000207800002074000020A8
:10188000EA000020EB000020684C24780C44641C23
:101890002C5D392C0ADC654C24780C44641C2C5DCE
:1018A000303CE5B24C1C0DF8045018E05F4C247835
:1018B0000C44641C5E4D2C5D412C10DB5B4C247889
:1018C0000C44641C2C5D462C09DC584C24780C44D8
:1018D000641C2C5D373CE5B24C1C0DF804504C1CCC
:1018E0001DF804501DF8014005EB0414E6B21C4637
:1018F0005D1CEBB24F4D2E558C1CE1B24E4C246852
:10190000641E64008C423FF66BAF01204B4C247880
:10191000641C4A4D2C70494C2478494D2D78AC42BA
:101920007FF403AF7EBD10B50146012024E00A78A4
:1019300000EB8003434CE35C9A421CD14A7800EBF5
:10194000800323445B789A4215D18A7800EB8003A8
:1019500023449B789A420ED1CA7800EB800323443B
:10196000DB789A4207D10A7900EB800323441B7984
:101970009A4200D102E0401C1428D8DB00BF324A52
:101980001278324B1A70012801DB102800DD10BDDF
:101990002D4B187000BFFAE730B5C1B000244FF4EA
:1019A000807101A807F033F8002524480078244905
:1019B0000978884221D0FFF7B5FEF0B10120244913
:1019C000087005221B49234807F02CF8A8B11948D4
:1019D000FFF7A9FF01A801231B4A04210090022060
:1019E00001F011FBC4B2214601A801F0FDF919482C
:1019F00010490A6802600979017141B030BD0020C8
:101A00000AE01149097801EB81010E4A1144095C91
:101A1000084A1154411CC8B20528F2DB0D49054A99
:101A200013680B6012790A7170470000EA00002009
:101A3000E41000206100002074000020E900002074
:101A4000E80000207A0000206600002067000020E7
:101A5000680000206900002008B50121512005F030
:101A600055FD0420ADF8000010208DF80300032080
:101A70008DF802006946F94805F092FA0421F7480A
:101A800005F039FB4FF48040ADF8000010208DF8D0
:101A9000030003208DF802006946F14805F080FA42
:101AA0004FF48041EE4805F026FB08BD01460029B1
:101AB00001DD08467047002901DA4842FAE7084686
:101AC000F8E72DE9F04F85B08246DFF898B3E64895
:101AD0000068E54989680844E34949680844E249DF
:101AE000C9684418E11704EB9171881007F0FDF9FB
:101AF0000290DD4800684042DB4989680844DA49C1
:101B000049680844D849C968441AE11704EB91713F
:101B1000881007F0EAF90390D34909684942D24A8C
:101B200092681144D04A5268891ACF4AD2688818FC
:101B300007F0E9F906460F46584607F03AFA002240
:101B4000CA4BCDE9000107F0EFF8804632463B462C
:101B500007F0EAF8044607F067FAC5490490086000
:101B600002A807C88AE8070005B0BDE8F08FFFB5F6
:101B700085B00446BF4D2846089906F0B8FF0646D2
:101B8000DDE9060106F0ADFF0746314606F0A9FF84
:101B900001902846089906F0AAFF0646DDE90601ED
:101BA00006F04DFF0746314606F049FF02902846F1
:101BB000089906F09CFF0646DDE9060106F03FFFA6
:101BC0000746314606F08DFF03902846089906F037
:101BD0008EFF0646DDE9060106F083FF0746314623
:101BE00006F02DFF049001A80FC884E80F0009B08B
:101BF000F0BD2DE9FF470C9C9A4DDDE9000106F090
:101C00001EFF8046029906F01AFF0746039906F068
:101C100016FF06464FF0814106F09FFF20600098B6
:101C200080F000494846019906F009FF8046029974
:101C300006F005FF0746039906F053FF06464FF0EE
:101C4000814106F08AFF6060009880F0004A5046AB
:101C5000019906F0F4FE8146029906F042FF8046A3
:101C6000039906F0ECFE0746294606F040FF0646BB
:101C70004FF0814106F071FFA060BDE8FF872DE9BC
:101C8000FC4104460D4616461F467BA103C9CDE91B
:101C90000001F8B28DF80300F0B28DF80400E8B24C
:101CA0008DF805009DF802009DF8031008449DF88A
:101CB000041008449DF805100844C0B28DF80600D1
:101CC0000023224608216846FFF725FABDE8FC817B
:101CD0007CB50446002040EA044040F440750020F2
:101CE000009000232A4604216846FFF714FA0020DA
:101CF00040EA044000F203350220009000232A4607
:101D000004216846FFF707FA002040EA044040F447
:101D100040750120009000232A4604216846FFF701
:101D2000FAF97CBD7CB50446002040EA044040F44A
:101D300040750020009000232A4604216846FFF7E2
:101D4000EAF9002040EA044000F203350420009044
:101D500000232A4604216846FFF7DDF9002040EA07
:101D6000044040F440750120009000232A460421DD
:101D70006846FFF7D0F97CBD10B50120FFF7A8FF3A
:101D80000220FFF7A5FF0320FFF7A2FF0420FFF7C3
:101D90009FFF10BD10B50120FFF7C4FF0A20FEF71A
:101DA0001BFE0220FFF7BEFF0A20FEF715FE0320F0
:101DB000FFF7B8FF0A20FEF70FFE0420FFF7B2FF7F
:101DC00010BDF8B504460D46002040EA044000F27C
:101DD000053600950023324604216846FFF79BF93B
:101DE000F8BD2DE9FC41064614461D464FF00000A3
:101DF00040EA064040F44177CDE900454FF000034A
:101E00003A464FF008016846FFF785F9BDE8FC81C6
:101E100038B504464FF0807040EA044000F20C45AB
:101E20000020009002232A4604216846FFF773F938
:101E300038BD1FB504464FF0807040EA044000F200
:101E40000940009004208DF80C0001208DF80E0050
:101E50008DF80F006846FEF79EFF1FBD0018014079
:101E60000010014090C4DF3A240900200000D03F58
:101E7000F40000200070124455AA0300000000FF87
:101E800010B50446394A00230120FFF7AAFF374A5C
:101E90005242D3140220FFF7A4FF344A0023032048
:101EA000FFF79FFF314A5242D3140420FFF799FFF6
:101EB00010BD704710B500210120FFF782FF0021FF
:101EC0000220FFF77EFF00210320FFF77AFF0021A9
:101ED0000420FFF776FF10BD2DE9FF47009807F0BB
:101EE00068F80746224A234B06F01EFF054607F016
:101EF00041F8044621460120FFF763FF019880F076
:101F00000049484607F055F80746194A194B06F0AC
:101F10000BFF054607F02EF8044621460220FFF786
:101F200050FF029807F045F80746114A114B06F09A
:101F3000FBFE054607F01EF8044621460320FFF786
:101F400040FF039880F00049484607F032F8074602
:101F5000074A084B06F0E8FE054607F00BF8044672
:101F600021460420FFF72DFFBDE8FF87801A0600F9
:101F70009EEFA7C64B97834008B50121402005F08E
:101F8000C5FA0320ADF8000010208DF803000320EF
:101F90008DF8020069460B4805F002F80321094854
:101FA00005F0A9F808BD10B50121064805F096F81E
:101FB000C0F10100C4B222460121024805F09FF899
:101FC00010BD00000018014038B504460020F74954
:101FD0000870F7490870F7490870F749087014202D
:101FE000F6490860204600F0AAFA6B462022114606
:101FF000F348FEF76FF9F349086038BD10B5EF48B4
:102000000068142800D110BD002240F22661EE487D
:1020100006F0CDFAED48E849097810F8310010B320
:10202000E5480078E349097888421CD0E748E2494E
:10203000097810F83100401EE449DF4A127801F8AF
:1020400032000846DC4A127800EBC2004068E04AE1
:102050001278815CDC4806F00BFBDD480078401C00
:10206000DB4908705BE0D4480078D249097888429F
:102070004CD0D648D04A127800EBC2004168D14813
:102080000068FEF77CF9CC480078401CC0B2CA4911
:102090000870142801DB00200870C8480068401C44
:1020A000C6490860142801D3142008600020C849DC
:1020B0000870C1480078BF49097888421CD0C348DD
:1020C000BD49097810F83100401EC1B2BF48BA4A74
:1020D000127800F83210B84A127800EBC20040685B
:1020E000BB4A1278815CB84806F0C2FAB84800785A
:1020F000401CB749087012E00020B649087014204F
:10210000AE4908600020B249087008E00020B149DB
:1021100008701420A94908600020AD490870012208
:1021200040F22661A84806F042FA00BF6BE710B5FE
:10213000A54806F0A1FAC1B29C4802780078401C7C
:102140009A4B1870A4488154184600789849097829
:10215000884204D196480078401C9549087010BD0B
:10216000F8B505460C4626460CB90120F8BD0022FC
:1021700040F22661944806F01AFA1C2094FBF0F114
:1021800000FB114028B11C2094FBF0F0401CC4B2AD
:1021900003E01C2094FBF0F0C4B288480068A04221
:1021A00007D2012240F22661874806F000FAFF209C
:1021B000DCE7694683480068FEF7CBF883497D4A2F
:1021C000127801EBC20148607A480078142802DBDB
:1021D00000207849087000242FE028787B49754A50
:1021E000127801EBC20149680855601CC4B21C2C6E
:1021F00020DB1C2175486F4A127800F832106D48B8
:102200000078401CC0B26B490870142801DB002024
:10221000087069466B480068FEF79BF86B49654A91
:10222000127801EBC201486064480068401E6349AF
:10223000086000246D1C701EC6B2002ECDD19CB16A
:1022400062485C49097800F831405C480068401EEB
:102250005A49086057480078401CC0B25549087078
:10226000142801DB002008705A48007820B9FFF7D5
:10227000C5FE012057490870012240F226615248EC
:1022800006F095F9002071E770B50546002400E0DE
:10229000641C285D0028FBD1E1B22846FFF760FFEF
:1022A00070BD30B5014600240A464B4DAB5C551C51
:1022B000EAB2494DAD5C43EA0524204630BD7CB509
:1022C000454846490978455CA12D0ED006DC1A2DFB
:1022D00039D01B2D52D01C2D66D15DE0A22D26D009
:1022E000A32D2ED0A42D5FD12CE03B493B48007894
:1022F000401C0C5C3A48047038480078801C0C5C28
:10230000204600F0F8FE3749086037493548006834
:1023100006F0B0FE00D847E0344800683449086051
:102320000120344908700020334908603CE0FFF781
:10233000C1FD00202F4908702F4908602949086015
:1023400032E031E030E02D492848006806F0CFFB4C
:10235000064606F0F6FD000A8DF8000027492348DE
:10236000006806F0C4FB064606F0EBFDC0B28DF82F
:10237000010002216846FFF7F3FE15E00120204925
:102380000870154915480078401C0C5C204600F088
:10239000B2FE1449086007E0FFF78CFD00201849E1
:1023A00008701049086000BF00BF7CBD1C01002000
:1023B0001D01002016010020170100201801002037
:1023C000841700202401002000440040E415002070
:1023D0001501002000010020841600201E010020AD
:1023E000B0010020100100200000C8439802002026
:1023F000B4010020140100200C0300200000204143
:102400006C01002030B54FF0FF3064E03C4C247884
:10241000002C37D100213B4C2478641FE2B23A4CA7
:10242000A45C552C01D14C1CE1B2364C2478241FFD
:10243000E2B2354CA45CAA2C01D14C1CE1B2314C67
:102440002478E41EE2B2304CA45C1E2C01D14C1C5A
:10245000E1B203293AD10124294D2C70294C24786A
:10246000641EE2B2284CA45C284D2C70254C2478C4
:10247000274D2C70234C2478244D2D782C44254D49
:102480002C7023E01F4C2478224D2D78AC421DD1B6
:1024900000241B4D2C701E4C23780021002207E0E5
:1024A000194CE45C0C44E1B25C1CE3B2541CE2B293
:1024B000164C2478A242F3DBCC43E1B2124CE45C2C
:1024C0008C4203D1104C124D2D78605D0D4C247858
:1024D000641C0C4D2C700B4C24780F4D2D78AC42A5
:1024E00094D130BD10B5074800780B49097888426F
:1024F00005D0FFF787FF401C01D0FFF7E0FE10BDBD
:10250000200100201D010020841600202101002050
:102510001E0100201F0100201C01002008B52620FC
:102520008DF8000000208DF8010006208DF80200D3
:1025300001208DF80300684603F06DFB08BD10B55F
:1025400086B004460121042004F0E0FF0121480484
:1025500004F0E9FF4FF4E06003F058FB26208DF80B
:10256000000000208DF8010006208DF802000120F7
:102570008DF80300684603F04EFB0420ADF814000C
:1025800018208DF8170003208DF8160005A929489A
:1025900004F006FD0820ADF8140004208DF81700A3
:1025A00005A9244804F0FCFC01940020ADF80800C3
:1025B000ADF80A00ADF80C00ADF810000C20ADF835
:1025C0000E0001A91C4805F05AFF012240F22551D6
:1025D000194805F0ECFF012240F22661164805F08B
:1025E000E6FF0121144805F0D6FF06B010BD10B576
:1025F0002021114806F0AAF8012808D120210E4810
:1026000006F0B1F80D48007808B1FFF790FD4021C1
:10261000094806F09BF8012808D14021064806F039
:10262000A2F80648007808B1FFF7E8FC012003494A
:10263000087010BD0008014000440040280100203F
:1026400008B501217D2004F061FFF020ADF8000005
:1026500048208DF8030003208DF802006946994850
:1026600004F09EFC4FF20300ADF8000048208DF806
:10267000030003208DF802006946934804F090FCA3
:102680004FF47C70ADF8000048208DF80300032063
:102690008DF8020069468D4804F082FC4FF47F40BB
:1026A000ADF8000048208DF8030003208DF80200EB
:1026B0006946874804F074FC4FF4FF40ADF8000011
:1026C00048208DF8030003208DF8020069468148F8
:1026D00004F066FC0020804908708048804908604A
:1026E000804888607D48C8607E497D4841617E4859
:1026F0007B4988617D497A48016278487849486217
:1027000078497748C16200207949086079490860B2
:1027100008BD2DE9FF4782B01C46DDE90E78002098
:1027200000900190744801687448006806F098FCB5
:1027300004D000206F490860714908606F48016843
:102740007048006806F0CDF9694908600398096887
:1027500006F0CDF905466A480168284606F06FF98B
:1027600067490860634801686148006806F0B9F984
:1027700081464946049806F0BAF906465C49029833
:10278000096806F0B4F982465D480168504606F0D3
:1027900056F90546314606F052F9A060A06806F0E9
:1027A00008FC05464FF03332574B06F029FC02D89F
:1027B0005648A0600BE0A06806F0FBFB05464FF012
:1027C0003332534B06F008FC01D85248A060484809
:1027D000006848490860494800684749086006B0F1
:1027E000BDE8F0872DE9F04188B007460E46144653
:1027F000002539480078A0B100BF0DE005EB450089
:10280000374901EB800005EB4501434A02EB8103A8
:102810000ECB0EC0681CC5B2042DEFDB00202E4984
:102820000870012E06D0022E0CD0032E15D0042ED7
:1028300029D11BE02A4A07CA05AB07C3029400202E
:10284000039021E0264A0C3207CA05AB07C384F087
:10285000004002900020039016E0214A183207CA77
:1028600005AB07C30020029003940DE01C4AD2E997
:102870000910D26ACDE9060205910020029084F089
:102880000040039000E000BF00BF204606F059FB67
:10289000B0F1000801DB404601E0C8F1000038B1AA
:1028A00002ABCDE9006405A807C8FFF732FF01E0DD
:1028B0000020049002A807C887E8070008B0BDE818
:1028C000F081000000080140000C014000100140B0
:1028D0000014014000180140380100208FC2753DEE
:1028E000D81B00208FC2F53C8FC275BD8FC2F5BCCE
:1028F0003C0100204001002034010020B4010020F0
:1029000030010020980200203333E33F9A99193FA9
:102910003333E3BF9A9919BFA81B0020014601EB8E
:1029200041005E4A52F8200008B908207047002094
:1029300001EB4102594B43F8220001EB410203EB4A
:102940008202908001EB410203EB8202D08001EB16
:10295000410203EB8202107200BFE7E710B5FEF7F9
:1029600053F8002404E02046FFF7D8FF601CC4B2EF
:10297000102CF8DB10BD10B5FEF77CF810BD70B55B
:1029800003460C46002101E0481CC1B201EB4100A6
:10299000424D55F8200008B11029F5DB102901D16E
:1029A000082070BD01EB41003C4D45F8203001EBA3
:1029B000410005EB8000848001EB410005EB8000C5
:1029C000C280002001EB4105344E06EB85052872DC
:1029D0000846E6E7704710B5002420E004EB440009
:1029E0002E4901EB8000007A002816DD04EB44013B
:1029F0002A4A52F821008047002004EB4401274A6C
:102A000002EB8101087204EB4400114601EB8000E7
:102A1000C08810B92046FFF781FF601CC4B2102C9B
:102A2000DCDBFFF7D7FF10BD002033E000EB4001F7
:102A30001A4A52F8211059B300EB400102EB810110
:102A40008988C1B9012100EB4002144B03EB8202DB
:102A5000117200EB40011A4602EB8101C988B9B13D
:102A600000EB400102EB8101C98800EB400203EB5F
:102A7000820291800CE000EB4001084A02EB8101E8
:102A80008988491E00EB4002044B03EB82029180CF
:102A9000411CC8B21028C9DB70470000081C002088
:102AA00001205D4908705D485D49086004205D496A
:102AB000086000205C49486000215B488160C1607B
:102AC0000120594908740020704710B58CB00446A5
:102AD000201D07C809AB07C301A809A90EC9FFF744
:102AE00046F802A80DC80199CDE90723CDE90510E4
:102AF00005A80FC8FFF7F0F90CB010BD10B5002401
:102B000045480078C0B100BF08E04548006850F86B
:102B10002400007C00B105E0601CC4B2414800689C
:102B20008442F2DB00BF3D4850F824003F49086072
:102B300008460068FFF7C9FF10BD0EB53C48007895
:102B400068B105203B4908703B4800684860002197
:102B500038488160C16001203649087418E0374860
:102B6000007890B105203349087033480268344832
:102B700001786846FFF736FE2E489DE80E00001DDE
:102B80000EC001202B49087402E000202949087476
:102B90000EBD30B502460B460024002104E0555C12
:102BA0002544ECB24D1CE9B20829F8DB9C4201DB5C
:102BB000012000E0002030BD30B503460C46002067
:102BC000214605E05D5C012D00D101204D1CE9B2DC
:102BD0009142F7DD30BD0EB51A48007890B105205E
:102BE0001949087019480268154801786846FFF7C6
:102BF000F9FD15489DE80E00001D0EC00120124988
:102C0000087402E00020104908740EBD10B5FFF7EB
:102C100094FFFFF773FF10BD8001002058010020D2
:102C2000780100207C010020101D00206801002098
:102C30006C010020D41C0020100100201401002091
:102C4000B00100208C010020FC1C0020900100201D
:102C500038B504460020FE490870FE490870FE4958
:102C60000870FE4908701420FD490860204600F0F5
:102C7000E0FC6B4620221146FA48FDF72BFBFA498F
:102C8000086038BD10B5F6480068142800D110BDA2
:102C9000002240F22661F54805F089FCF448EF492E
:102CA000097810F8310010B3EC480078EA49097847
:102CB00088421CD0EE48E949097810F83100401EDE
:102CC000EB49E64A127801F832000846E34A1278E6
:102CD00000EBC2004068E74A1278815CE34805F0E7
:102CE000C7FCE4480078401CE24908705BE0DB4820
:102CF0000078D949097888424CD0DD48D74A127803
:102D000000EBC2004168D8480068FDF738FBD348A3
:102D10000078401CC0B2D1490870142801DB0020A3
:102D20000870CF480068401CCD490860142801D3C2
:102D3000142008600020CF490870C8480078C649B0
:102D4000097888421CD0CA48C449097810F8310073
:102D5000401EC1B2C648C14A127800F83210BF4ABC
:102D6000127800EBC2004068C24A1278815CBF480A
:102D700005F07EFCBF480078401CBE49087012E098
:102D80000020BD4908701420B54908600020B949E9
:102D9000087008E00020B84908701420B0490860A5
:102DA0000020B4490870012240F22661AF4805F0C6
:102DB000FEFB00BF6BE710B5AC4805F05DFCC1B28F
:102DC000A34802780078401CA14B1870AB4881548E
:102DD000184600789F490978884204D19D480078B8
:102DE000401C9C49087010BDF8B505460C462646A7
:102DF0000CB90120F8BD002240F226619B4805F085
:102E0000D6FB1C2094FBF0F100FB114028B11C20E4
:102E100094FBF0F0401CC4B203E01C2094FBF0F0E3
:102E2000C4B28F480068A04207D2012240F2266156
:102E30008E4805F0BCFBFF20DCE769468A48006845
:102E4000FDF787FA8A49844A127801EBC20148608B
:102E500081480078142802DB00207F490870002494
:102E60002FE0287882497C4A127801EBC201496838
:102E70000855601CC4B21C2C20DB1C217C48764AFF
:102E8000127800F8321074480078401CC0B27249C1
:102E90000870142801DB0020087069467248006839
:102EA000FDF757FA72496C4A127801EBC20148608B
:102EB0006B480068401E6A49086000246D1C701E43
:102EC000C6B2002ECDD19CB169486349097800F89B
:102ED000314063480068401E614908605E480078E0
:102EE000401CC0B25C490870142801DB0020087047
:102EF0006148007820B9FFF7C5FE01205E490870DF
:102F0000012240F22661594805F051FB002071E78B
:102F100070B50546002400E0641C285D0028FBD144
:102F2000E1B22846FFF760FF70BD30B54FF0FF30CB
:102F300062E0534C2478002C37D10022454C247891
:102F4000241FE1B24D4C645C552C01D1541CE2B2FB
:102F5000404C2478E41EE1B2484C645CAA2C01D1B8
:102F6000541CE2B23B4C2478A41EE1B2434C645C96
:102F7000152C01D1541CE2B2032A38D10124404D52
:102F80002C70344C2478641EE1B23C4C645C3D4DA2
:102F90002C70304C24783C4D2C702E4C2478394DBC
:102FA0002D782C44394D2C7021E02A4C2478374D53
:102FB0002D78AC421BD10024314D2C70324C23783B
:102FC0000022002107E02D4CE45C1444E2B25C1CBA
:102FD000E3B24C1CE1B22B4C2478A142F3DB274C2A
:102FE000E45C944203D1254C274D2D78605D194C4B
:102FF0002478641C174D2C70164C2478144D2D78B1
:10300000AC4296D130BD2DE9F04305460E46079CF3
:10301000002700204FF055098046401C04F8089016
:103020004FF0AA098046401C04F808904FF015099B
:103030008046401C04F8089003F1020C8046401CB6
:1030400004F808C08046401C04F8085080461FE081
:10305000A4010020A50100209B0100209C0100206C
:10306000A0010020D01E0020AC010020004800403C
:10307000301D00209A01002084010020D01D002076
:10308000A8010020A9010020A6010020A70100201E
:10309000401C04F808605BB905EB060C0CF0FF0758
:1030A000844600F1010808F0FF0004F80C7020E0ED
:1030B00005EB060C0CF0FF07002111E012F801905F
:1030C000844600F1010808F0FF0004F80C9012F8A3
:1030D00001C0BC440CF0FF0701F1010C0CF0FF0132
:1030E0009942EBDB844600F1010808F0FF0004F888
:1030F0000C70BDE8F0832DE9F84F8246504605F08C
:10310000FDFE009005F055FF80460022F84B05F0CB
:103110007DFE06460022F74B05F006FE044605F04C
:1031200083FF83465846BDE8F88F10B5014600205E
:103130000A46F14CA35C541CE2B2EF4CA45C43EA97
:10314000042010BD2DE9F04FC7B04FF4807107A8DF
:1031500005F05DFC00200690039004900590E7497F
:103160000870E548E649097810F80190B9F1040FB4
:103170007ED009DCB9F1010F0DD0B9F1020F78D082
:10318000B9F1030F76D1A9E1B9F1050F73D0B9F107
:10319000FF0FF7D1EBE1D849D9480078401C0C5C0F
:1031A000132C02D0142C67D1BFE0D349D448007847
:1031B000801C0E5C304605F0B7FE82460022D14BE3
:1031C00005F024FE074605F02FFFCF490860CA49E5
:1031D000CB480078C01C0E5C304605F0A5FE0746C3
:1031E0000022C84B05F012FE824605F01DFFC649BD
:1031F0008860C149C2480078001D0E5C304605F069
:1032000093FE82460022BF4B05F000FE074605F004
:103210000BFFBD49C860B849B9480078401D0E5C35
:10322000304605F081FE07460022B64B05F0EEFD64
:10323000824605F0F9FEB4494861AF49B0480078CC
:10324000801D0E5C704205F05EFE07460022AD4B0D
:1032500005F0DCFD824605F0E7FEAB498861A64932
:10326000A7480078C01D0E5C704205F04CFE04E0DB
:103270007CE1A4E08EE1DAE09EE007460022A14B6B
:1032800005F0C4FD824605F0CFFE9F4908629A49C9
:103290009B48007808300E5C304605F045FE8246BB
:1032A0000022984B05F0B2FD074605F0BDFE964999
:1032B000486291499248007809300E5C304605F02A
:1032C00033FE074600228F4B05F0A0FD824605F035
:1032D000ABFE8D49C86200250BE089480078801C50
:1032E00028448549095C05F10800884A1154681C86
:1032F000C5B2082DF1DB854A1021854800F039FA66
:1033000007A800907C487E4909780844821C08235D
:1033100021464846FFF777FE069007A80699FFF773
:1033200063FD01207B49087047E075490978891CD5
:10333000C8B2FFF7FAFE7849086071490978091D9B
:10334000C8B2FFF7F2FE754908606D490978891D1A
:10335000C8B2FFF7EAFE7249086069490978083186
:10336000C8B2FFF7E2FE6F490860002509E0644833
:103370000078801C28446049085C64494855681CF2
:10338000C5B2082DF3DB614A1021614800F0F1F964
:103390006548047007A800905748594909780844BF
:1033A000821C082321464846FFF72DFE069007A8F9
:1033B0000699FFF719FD00E000BF00BFEBE04E49A2
:1033C0004F480078401C0C5C082C2DD2DFE804F03C
:1033D0002C040506072C081627E026E025E024E04B
:1033E00007A800231A46214600904846FFF70BFE27
:1033F000069007A80699FFF7F7FC16E04B4800680F
:103400001421B0FBF1F0C0B28DF8080007A8012329
:1034100002AA214600904846FFF7F5FD069007A84E
:103420000699FFF7E1FC00E000BF00BFB3E03249BE
:1034300033480078401C0C5C022C02D0042C4AD18A
:1034400032E02D492E480078801C0E5C384806700A
:103450002B480078C01C0E5C3046FFF74CFE354907
:10346000086035493348006805F004FE00D833E0B1
:103470003248006832490860012032490870002053
:103480002A49086007A800901B481D49097808448C
:10349000821C042321464846FFF7B5FD069007A885
:1034A0000699FFF7A1FC17E0FEF704FD002025496F
:1034B00008701E4908601F49086007A800231A46C3
:1034C000214600904846FFF79EFD069007A8069902
:1034D000FFF78AFC00E000BF00BF5CE00649084837
:1034E0000078401C0C5C012C2ED0022C3BD133E028
:1034F00000E06F4000008940D01D00208B010020BB
:10350000A601002000408F40A81B0020D0220020F0
:1035100010F0010838010020480100204C01002073
:103520005001002054010020BA0100200C030020AB
:10353000B0010020900100200000C8439802002044
:10354000B40100208C0100202B480078062802DC02
:1035500001202A49087007E00020284908700390DC
:103560000490059000E000BF00BF14E013E0012CC0
:1035700002D0022C0BD103E001202049087007E0A3
:1035800000201E49087003900490059000E000BFE1
:1035900000BF00E000BF00BF47B0BDE8F08F10B52E
:1035A0001748007817490978884205D0FFF7BDFC15
:1035B000401C01D0FFF7C6FD10BD0146012903DB09
:1035C000642901DA104806E0642903DBFF2901DCE5
:1035D0000E4800E00020704710B502460B46002060
:1035E000002105E0545C8C400443E0B24C1CE1B285
:1035F0009942F7DB10BD0000BA0100208B010020CA
:10360000A5010020A40100209CC4A03E9CC4A0BE33
:1036100008B527208DF8000000208DF80100062055
:103620008DF8020001208DF80300684602F0F3FADD
:1036300008BD10B586B004460121082003F066FFDE
:103640000121880403F06FFF4FF4E06002F0DEFA1E
:1036500027208DF8000000208DF8010006208DF84D
:10366000020001208DF80300684602F0D4FA4FF4FE
:103670008060ADF8140018208DF8170003208DF835
:10368000160005A92B4803F08BFC4FF40060ADF841
:10369000140004208DF8170005A9264803F080FCCB
:1036A00001940020ADF80800ADF80A00ADF80C0058
:1036B000ADF810000C20ADF80E0001A91E4804F072
:1036C000DEFE012240F225511B4804F070FF01226A
:1036D00040F22661184804F06AFF0121164804F000
:1036E0005AFF06B010BD10B52021134805F02EF882
:1036F000012805D12021104805F035F8FFF75BFBC4
:1037000040210D4805F022F8012805D140210A4842
:1037100005F029F8FFF7B6FA0821074805F016F872
:10372000012806D10821044805F01DF8024804F0DC
:10373000A3FF10BD000C01400048004070B50446D6
:103740000D462668701C08D103F00BF92946204667
:1037500003F01CFA03F011F90AE003F002F9204625
:1037600003F044F92946204603F010FA03F005F966
:1037700070BD2DE9F04105460E461746002429E0AC
:1037800055F80480385D9C490870381940784870B5
:1037900018F101000AD103F0E4F8974A128891B2B7
:1037A000281903F026FA03F0E8F80CE003F0D9F842
:1037B000281903F01BF9904A128891B2281903F0D6
:1037C00018FA03F0DAF8012E00D105E0A01C84B24B
:1037D000B01E86B2002ED3D100BFBDE8F08130B557
:1037E0000346002013E01C5A834D2C60012903D1AD
:1037F0002C46247814540CE07F4C247814547E4CCE
:10380000647815186C70841CA0B28C1EA1B20029BB
:10381000E9D100BF30BD2DE9F74183B00D46164612
:103820000027002400200190A8460420029003F005
:1038300098F806F2FF30800A0190352003F02CFB47
:1038400000BF08E04FF48062039902FB071003F009
:10385000CDF802907F1C0198874203D29DF80800A2
:103860000428EFD0039C05E002CD204603F08EF93A
:103870000290241D03983044A04203D99DF808000B
:103880000428F1D0039C09E058F8041B2068814209
:1038900003D0002006B0BDE8F081241D0398304419
:1038A000A042F1D803F069F80120F3E737B50446E8
:1038B00015462A462046019905F090F801203EBDA4
:1038C0002DE9F0414D4A10214D48FFF788FF4B4844
:1038D00000784A49497840EA01204A490860474847
:1038E00080784649C97840EA012047490860434842
:1038F00000794249497940EA0120444908603F483B
:1039000080793E49C97940EA0120414908603B4934
:10391000087A05F009FB064600223E4B05F076FAD0
:10392000044605F081FB3C4908603449487A05F0BB
:10393000FBFA06460022374B05F068FA044605F00C
:1039400073FB354988602D49887A05F0EDFA064603
:103950000022304B05F05AFA044605F065FB2E496B
:10396000C8602649C87A05F0DFFA06460022294BCE
:1039700005F04CFA044605F057FB274948611F49FA
:10398000097B484205F0BFFA06460022214B05F0AC
:103990003DFA044605F048FB1F4988611749497BF9
:1039A000484205F0B0FA064600221A4B05F02EFAFE
:1039B000044605F039FB184908621049887B05F078
:1039C000B3FA06460022134B05F020FA044605F030
:1039D0002BFB114948620949C87B05F0A5FA064648
:1039E00000220C4B05F012FA044605F01DFB0A49B3
:1039F000C862BDE8F0810000BC010020D022002098
:103A000010F00108480100204C0100205001002066
:103A10005401002000408F40D81B00202DE9F047C2
:103A200004464FF07C51204605F061F8814625465A
:103A30002E46FE48A0EB660635462946484605F068
:103A400056F88246294605F052F880464FF07F51DD
:103A500005F04AF80746294605F049F80546284684
:103A6000BDE8F08730B50021002300224C1E72E033
:103A7000EF48007878BB0022EE480178EE48405CC1
:103A8000552801D1501CC2B2EA480078401CC1B28E
:103A9000E948405C51280BD0E748405C522807D0E9
:103AA000E548405C542803D0E348405C532801D1EA
:103AB000501CC2B2022A49D10120DD4D2870DD48D8
:103AC0000078DE4D2870DB480078DD4D2D782844E5
:103AD000DC4D28703AE0FFE7D6480078D94D2D78C4
:103AE000A84233D10020D24D2870D4480378002258
:103AF000002107E0D048C05C1044C2B2581CC3B2D9
:103B0000481CC1B2CE4800788142F3DBCA48CD4D93
:103B10002D78405D904219D1C74DC8480078401CAF
:103B2000285C44B20022002109E0C448007808441F
:103B3000C3B2C148C05CC44D6854481CC1B2C0483F
:103B40000078401C8142F0DBE0B230BDB94800781B
:103B5000401CB84D2870B7480078BC4D2D78A8425D
:103B600086D100BFF1E72DE9F04F87B08246BAF168
:103B7000510F7DD0BAF1520F03D0BAF1540F78D162
:103B800037E1B148C078000200B2B1490880AE48C0
:103B900080780988084400B2AD490880AA48407975
:103BA000000200B2AB490880A748007909880844A0
:103BB00000B2A8490880A448C079000200B2A64912
:103BC0000880A148007A0988084400B2A249088008
:103BD0009F48B0F9000005F088F9A049019004F071
:103BE00086FF834605F0E5F9804600229C4B05F0F0
:103BF0000DF9064600229B4B05F096F800229A4BE1
:103C0000CDE9020105F002F9984A994BCDE904018A
:103C100005F08AF8044605F007FA964908608D48D1
:103C2000B0F9000005F061F98C49019004F05FFFE4
:103C3000834605F0BEF90022894BCDE9020105F06B
:103C4000E5F806460022874B05F06EF80446002290
:103C5000854B05F0DBF8854A854BCDE9040105F07D
:103C600063F8804605F0E0F9834908607A4801E08E
:103C700054E042E1B0F9000005F037F97F490190C6
:103C800004F035FF834605F094F90022744BCDE92A
:103C9000020105F0BBF880460022724B05F044F8A3
:103CA00006460022704B05F0B1F804466F4A704B8F
:103CB00005F03AF8CDE9040105F0B6F9704908605D
:103CC0006C48006805F075F921F0004104460022B7
:103CD0006C4B05F081F902D2002066490860664805
:103CE000006805F066F921F0004104460022654BAA
:103CF00005F072F902D200205F4908606048006850
:103D000005F057F921F00041044600225D4B05F013
:103D100063F902D200205A490860EFE04A48C078AF
:103D2000000200B258490880474880780988084452
:103D300000B25549088044484079000200B2534916
:103D40000880414800790988084400B24F4908803A
:103D50003D48C079000200B24D4908803A48007AD7
:103D60000988084400B24A4908804748B0F9000071
:103D700005F0BBF84749059004F0B9FE834605F00D
:103D800018F906460022364B05F040F8044600229A
:103D9000414B04F0C9FF804605F046F93F490860F1
:103DA0003A48B0F9000005F0AEF8064600222C4B68
:103DB00005F02CF804460022374B04F0B5FF80468E
:103DC00005F032F9364908603148B0F9000005F0D5
:103DD0009AF880460022224B05F018F80646002289
:103DE0002D4B04F0A1FF044605F01EF92D49086093
:103DF00084E01548C078000200B22B4908801248C0
:103E000080780988084400B2274908800E48407924
:103E1000000200B2254908800B480079098808444F
:103E200000B2224908800848C07941E0DF59375F75
:103E3000CC020020E9000020E4100020EA0000206D
:103E400079000020EB000020E0220020E8000020A4
:103E5000C6010020C8010020CA0100200000614501
:103E60000000E04000409F40008066404AD8124D6C
:103E7000FB2109401C02002020020020000061C537
:103E80002402002000003440C0010020C2010020B4
:103E9000C4010020000080BF00003040100200205C
:103EA0001402002018020020CC010020CE010020C6
:103EB000000200B2FC490880FC48007A09880844E6
:103EC00000B2F9490880FA48B0F9000005F00DF891
:103ED0000446F84904F00BFEF7490860F748B0F9CA
:103EE000000005F002F8F6490860EF48B0F900005C
:103EF00004F0FBFFF349086000E000BF00BF07B01B
:103F0000BDE8F08F01B59AB0002019901890179075
:103F100016901A981590002014901598512808D0E2
:103F20001598522805D01598532802D01598542872
:103F30007ED1E548007800287BD11598FFF713FE65
:103F4000159851281FD0522802D0542851D135E05D
:103F5000DE480068DE49DF4A127841F82200DE4878
:103F60000068DE49DB4A127841F82200DC4800682C
:103F7000DC49D84A127841F82200D6480078401C23
:103F8000D449087045E0D8480168D848D84A127822
:103F900040F82210D7480168D748D54A127840F82F
:103FA0002210D6480068D649D14A127841F822003A
:103FB000CF480078401CCE4908702AE0BE4800680F
:103FC000D049D14A127841F82200BD480068CF4953
:103FD000CD4A127841F82200BA480068CC49CA4A52
:103FE000127841F82200C8480078401CC649087081
:103FF0000FE0B8480078401CB6490870BC4800780B
:10400000401CBB490870C0480078401CBE4908707D
:1040100000BF00BFAF48007806280ADDB44800782A
:104020000628FADDB84800780628F6DD002001E011
:104030002CE2A8E119900DE0A549199851F820004B
:1040400001461390149804F0FAFC14901998401C3F
:10405000C0B219909F49097819988842ECDB9D48B5
:10406000007804F04BFF01461390149804F075FD9E
:10407000A84908600020149008460068A649086016
:10408000002019900DE09549199851F8200001463B
:104090001390149804F0D3FC14901998401CC0B2EB
:1040A00019908C49097819988842ECDB8948007886
:1040B00004F024FF01461390149804F04EFD954936
:1040C00008600020149008460068944908600020A9
:1040D00019900DE08349199851F82000014613907A
:1040E000149804F0ACFC14901998401CC0B21990BC
:1040F0007849097819988842ECDB7648007804F012
:10410000FDFE01461390149804F027FD81490860D4
:10411000002014900846006881490860002019902A
:104120000DE07249199851F8200001461390149837
:1041300004F085FC14901998401CC0B219906C4989
:10414000097819988842ECDB6948007804F0D6FEBB
:1041500001461390149804F000FD6E490860002099
:104160001490084600686F490860002019900DE01F
:104170006149199851F8200001461390149804F0F1
:104180005EFC14901998401CC0B2199058490978E7
:1041900019988842ECDB5648007804F0AFFE0146DF
:1041A0001390149804F0D9FC5A4908600020149028
:1041B000084600685C490860002019900DE05049ED
:1041C000199851F8200001461390149804F037FC18
:1041D00014901998401CC0B2199045490978199853
:1041E0008842ECDB4248007804F088FE01461390D8
:1041F000149804F0B2FC4749086000201490084667
:1042000000684A490860002019900DE03D4919985E
:1042100051F8200001461390149804F010FC1490FB
:104220001998401CC0B219903749097819988842EA
:10423000ECDB3548007804F061FE014613901498D9
:1042400004F08BFC33490860002014900846006895
:1042500037490860002019900DE02C49199851F851
:10426000200001461390149804F0E9FB149019986B
:10427000401CC0B219902449097819988842ECDB97
:104280002148007804F03AFE01461390149804F097
:1042900064FC204908600020149008460068254905
:1042A00008600020199055E0D0010020E022002095
:1042B000CC010020000080BF28020020CE01002099
:1042C0002C02002030020020A40200201C0200204A
:1042D000EC220020F4020020200200200C23002009
:1042E000240200202C230020100200204C23002058
:1042F000F5020020140200206C2300201802002088
:104300008C230020AC230020F6020020CC230020C8
:10431000EC230020A0020020A8020020AC02002014
:10432000B0020020B4020020B8020020BC0200202D
:10433000C0020020C4020020FE49199851F8200054
:1043400001461390149804F07AFB14901998401CBD
:10435000C0B21990F849097819988842ECDBF64800
:10436000007804F0CBFD01461390149804F0F5FB9F
:10437000F24908600020149008460068F04908607F
:104380000120F0490870EF48007800287ED0EE4800
:104390000168006804F0ABFB1290EC48016800680B
:1043A00004F0A5FB1090EA480168006804F09FFB48
:1043B0000F90109904F043FB1190129904F03FFB09
:1043C0001390FFF72BFB1890E1481899006804F050
:1043D0008EFBDF490860DD481899006804F087FB10
:1043E000DA490860D8481899006804F080FBD6497B
:1043F0000860D3480168006804F079FB1290D54842
:104400000168006804F073FB1090D34801680068ED
:1044100004F06DFB0F90109904F011FB11901299AC
:1044200004F00DFB1390FFF7F9FA1890CA48189999
:10443000006804F05CFBC8490860C6481899006829
:1044400004F055FBC3490860BD481899006804F0A2
:104450004EFBBB490860BC48006804F0AAFDCDE9EA
:104460001001BA48006804F0A4FDCDE90E01DDE9B1
:10447000102305F007FDCDE9120104F0D5FDB74981
:104480000860B348006804F094FD00E08CE3CDE9D7
:10449000100105F0A7FACDE9120104F0C5FDB049FD
:1044A00008600846006804F084FDCDE9080105F0C5
:1044B000A9FDCDE90C01A948006804F07AFDCDE919
:1044C000040105F0F5FDCDE908019D48006804F000
:1044D00070FDCDE90601DDE9082304F025FCCDE9F6
:1044E0000A01DDE90C2304F01FFCCDE910019C4812
:1044F000006804F05EFDCDE9040105F0D9FDCDE9C9
:1045000008019648006804F054FDCDE9000105F06B
:10451000CFFDCDE904018F48006804F04AFDCDE9E4
:104520000201DDE9042304F0FFFBCDE90601DDE92A
:10453000082304F0F9FBCDE90C018848006804F079
:1045400038FDCDE9040105F05DFDCDE908018248A3
:10455000006804F02EFDCDE90601DDE9082304F032
:10456000E3FBCDE90A01DDE90C2304F036FBCDE9DC
:104570000E01DDE9102304F0D1FBCDE9120104F0B6
:1045800053FD17907648006804F013FDCDE908014B
:1045900005F08EFDCDE90C016948006804F009FDC5
:1045A000CDE90A01DDE90C2304F0BEFBCDE91001E1
:1045B0006B48006804F0FDFCCDE9080105F022FD20
:1045C000CDE90C016348006804F0F3FCCDE90A0171
:1045D000DDE90C2304F0A8FBCDE90E01DDE9102391
:1045E00004F0FBFACDE9120104F01EFD1690002143
:1045F000179804F035FD03D2179880F0004017900B
:104600000021169804F02CFD03D2169880F000408B
:10461000169000214F48006804F02CFD17D20021AD
:104620004D48006804F01CFD11D2DDE9160104F0CC
:1046300094FA0F9004F0BDFCCDE9100105F010FBD9
:10464000CDE9120104F0F0FC4649086064E0002165
:104650004048006804F004FD1DD200213E48006877
:1046600004F0FEFC17D2DDE9160104F076FA0D9095
:1046700004F09FFCCDE90E0105F0F2FA00223A4B5E
:10468000CDE9100104F050FBCDE9120104F0CCFC9F
:104690003449086040E000212E48006804F0EAFC3C
:1046A0001DD200212C48006804F0E4FC17D2DDE99B
:1046B000160104F052FA0D9004F07BFCCDE90E01D6
:1046C00005F0CEFA294A2A4BCDE9100104F029FB66
:1046D000CDE9120104F0A8FC224908601CE0DDE9E4
:1046E000160104F03AFA0B9004F063FCCDE90C01DA
:1046F00005F0B6FA1D4A1E4BCDE90E0104F011FB80
:104700000022194BCDE9100104F00EFBCDE9120196
:1047100004F08AFC134908601248006804F049FC60
:104720000022144BCDE9060104F0FEFACDE90801A0
:1047300022E00000EC230020F6020020A00200206E
:10474000C8020020A4020020BC020020B802002001
:10475000B4020020C4020020C00200209002002009
:1047600094020020980200200000F0BF4AD8124DA9
:10477000FB2109400000E03F05F09AFCCDE90C0167
:10478000FE48006804F015FC0022FD4BCDE9020153
:1047900004F0CAFACDE9040105F08AFCCDE908016C
:1047A000F848006804F005FC0022F54BCDE9020151
:1047B00004F0BAFACDE9040105F07AFCCDE906016E
:1047C000DDE9082304F0B0FACDE90A01DDE90C23A4
:1047D00004F0AAFACDE91001EB48006804F0E9FB07
:1047E0000022E74BCDE9060104F09EFACDE908016D
:1047F00005F008FCCDE90C01E048006804F0D9FBA5
:104800000022DF4BCDE9020104F08EFACDE904016C
:1048100005F0F8FBCDE90801DA48006804F0C9FBAF
:104820000022D74BCDE9020104F07EFACDE9040164
:1048300005F0E8FBCDE90601DDE9082304F074FA90
:10484000CDE90A01DDE90C2304F06EFACDE90E0191
:10485000DDE9102304F0C1F9CDE9120104F0E4FB15
:10486000CA490860C848006804F0A3FB0022C44B92
:10487000CDE9060104F058FACDE9080105F018FC6D
:10488000CDE90C01BD48006804F093FB0022BC4B4D
:10489000CDE9020104F048FACDE9040105F008FC75
:1048A000CDE90801B748006804F083FB0022B44B4F
:1048B000CDE9020104F038FACDE9040105F0A2FBCC
:1048C000CDE90601DDE9082304F02EFACDE90A015D
:1048D000DDE90C2304F028FACDE91001AA480068AC
:1048E00004F067FB0022A64BCDE9060104F01CFA98
:1048F000CDE9080105F086FBCDE90C019F48006871
:1049000004F057FB00229E4BCDE9020104F00CFAA3
:10491000CDE9040105F076FBCDE90801994800686E
:1049200004F047FB0022964BCDE9020104F0FCF9AC
:10493000CDE9040105F0BCFBCDE90601DDE9082362
:1049400004F0F2F9CDE90A01DDE90C2304F0ECF9F9
:10495000CDE90E01DDE9102304F0E0F9CDE9120103
:1049600004F062FB8A4908608748006804F021FB74
:104970000022834BCDE9060104F0D6F9CDE9080108
:1049800005F096FBCDE90C017C48006804F011FBB2
:1049900000227B4BCDE9020104F0C6F9CDE9040108
:1049A00005F030FBCDE908017648006804F001FB12
:1049B0000022734BCDE9020104F0B6F9CDE9040100
:1049C00005F076FBCDE90601DDE9082304F0ACF93A
:1049D000CDE90A01DDE90C2304F0A6F9CDE91001C7
:1049E0006948006804F0E5FA0022654BCDE906014C
:1049F00004F09AF9CDE9080105F004FBCDE90C01BA
:104A00005E48006804F0D5FA00225D4BCDE9020152
:104A100004F08AF9CDE9040105F04AFBCDE908016B
:104A20005848006804F0C5FA0022554BCDE9020150
:104A300004F07AF9CDE9040105F0E4FACDE90601C4
:104A4000DDE9082304F070F9CDE90A01DDE90C2362
:104A500004F06AF9CDE90E01DDE9102304F0BDF898
:104A6000CDE9120104F0E0FA4A49086046480068BE
:104A700004F09FFA0022424BCDE9060104F054F9FC
:104A8000CDE9080105F0BEFACDE90C013B4800680C
:104A900004F08FFA00223A4BCDE9020104F044F908
:104AA000CDE9040105F004FBCDE9080135480068B3
:104AB00004F07FFA0022324BCDE9020104F034F910
:104AC000CDE9040105F0F4FACDE90601DDE908239A
:104AD00004F02AF9CDE90A01DDE90C2304F024F9F8
:104AE000CDE910012848006804F063FA0022244B45
:104AF000CDE9060104F018F9CDE9080105F0D8FA6E
:104B0000CDE90C011D48006804F053FA00221C4B4B
:104B1000CDE9020104F008F9CDE9040105F072FACB
:104B2000CDE908011748006804F043FA0022144B4D
:104B3000CDE9020104F0F8F8CDE9040105F062FACC
:104B4000CDE90601DDE9082304F0EEF8CDE90A011C
:104B5000DDE90C2304F0E8F8CDE90E01DDE91023CE
:104B600004F0DCF8CDE9120104F05EFA0A490860AD
:104B700000200A4908700A49087013E094020020D6
:104B80000000E03F90020020980200204802002030
:104B90004C0200205002002054020020F4020020A9
:104BA000F5020020FD4908701BB000BD01B598B0AA
:104BB00000201790169015901898149000201390CC
:104BC0001290119010900F900E900D900C900B90F1
:104BD0000A90FBF7F8FF099004F090F9F04908609B
:104BE0001498512808D01498522805D014985328A6
:104BF00002D01498542870D11498FEF7B4FFE948F5
:104C00000068E949E94A127841F82200E84800685A
:104C1000E849E64A127841F82200E7480068E74987
:104C2000E24A127841F82200E5480068E549DF4A87
:104C3000127841F82200E4480068E449DB4A12781F
:104C400041F82200E2480068E249D84A127841F867
:104C50002200E1480068E149D44A127841F8220074
:104C6000DF480068DF49D14A127841F82200DE4867
:104C70000068DE49CD4A127841F82200CB4800781E
:104C8000401CCA49087008460078062801DD00204B
:104C90000870002017900DE0C349179851F82000C4
:104CA00001460990159803F0CAFE15901798401C0C
:104CB000C0B2179017980628EEDBCD49159803F07F
:104CC0004CFF0990CB480168099803F00AFFCA49D4
:104CD00008600020159017900EE0E4E0B5491798A1
:104CE00051F8200001460990159803F0A8FE159090
:104CF0001798401CC0B2179017980628EEDBBC49E5
:104D0000159803F02AFF0990BC480168099803F040
:104D1000E8FEBB4908600020159017900DE0A749F8
:104D2000179851F8200001460990159803F087FE66
:104D300015901798401CC0B2179017980628EEDB04
:104D4000AB49159803F009FF0990AE48016809982E
:104D500003F0C7FEAC4908600020159017900DE0E5
:104D60009849179851F8200001460990159803F0CA
:104D700066FE15901798401CC0B217901798062829
:104D8000EEDB9B49159803F0E8FEA049086000207F
:104D9000159017900DE08D49179851F820000146A5
:104DA0000990159803F04BFE15901798401CC0B25F
:104DB000179017980628EEDB8D49159803F0CDFE65
:104DC000934908600020159017900DE081491798CD
:104DD00051F8200001460990159803F030FE159017
:104DE0001798401CC0B2179017980628EEDB804930
:104DF000159803F0B2FE87490860002015901790BF
:104E00000DE07649179851F8200001460990159851
:104E100003F015FE15901798401CC0B21790179814
:104E20000628EEDB7249159803F097FE7A49086070
:104E30000020159017900DE06A49179851F820004E
:104E400001460990159803F0FAFD15901798401C3B
:104E5000C0B2179017980628EEDB6549159803F045
:104E60007CFE6E4908600020159017900DE05F49A8
:104E7000179851F8200001460990159803F0DFFDBE
:104E800015901798401CC0B2179017980628EEDBB3
:104E90005749159803F061FE61490860002015909C
:104EA0000120604908705F480078002875D0594893
:104EB0000168006803F01BFE08905548016800680F
:104EC00003F015FE069051480168006803F00FFEDC
:104ED0000590069903F0B3FD0790089903F0AFFD24
:104EE0000990FEF79BFD169048481699006803F05C
:104EF000FEFD4649086046481699006803F0F7FD34
:104F00004349086043481699006803F0F0FD4149A1
:104F1000086043480168006803F0E9FD08903F48D5
:104F20000168006803F0E3FD06903B4801680068F3
:104F300003F0DDFD0590069903F081FD07900899C7
:104F400003F07DFD0990FEF769FD16903248169931
:104F5000006803F0CCFD30490860304816990068BD
:104F600003F0C5FD2D4908602D481699006803F02F
:104F7000BEFD2B4908602C480168006803F0B7FDAE
:104F800013902A4801682848006803F0B0FD129089
:104F900027480168244800684CE0FDE3F602002041
:104FA000E80200201C020020EC2200209C020020CD
:104FB000200200200C230020240200202C230020AB
:104FC000100200204C230020140200206C2300203B
:104FD000180200208C23002028020020AC2300208F
:104FE0002C020020CC23002030020020EC230020E3
:104FF0000000C040A8020020E0010020AC02002018
:10500000E4010020B0020020E8010020D4010020CB
:10501000D8010020DC010020EC010020F00100207C
:10502000F4010020A5020020480200204C020020CC
:105030005002002003F05BFD1190FE480168FE481D
:10504000006803F054FD1090FC480168006803F00C
:105050004EFD0F90FA480168F848006803F047FDDC
:105060000E90F4480168F548006803F040FD0D908B
:10507000F3480168006803F03AFD0C90ED480168C0
:10508000EF48006803F033FD0B90EA4801680068C0
:1050900003F02DFD0A9011990D9803F0D0FC0690B5
:1050A000E8480168069803F022FD089010990E98D0
:1050B00003F017FD0490E4480168049803F017FD1D
:1050C00006904FF07C500C9903F00BFD03900A9969
:1050D00003F007FD0490DD480168049803F007FD24
:1050E0000590069903F0ABFC0790089903F0A7FC24
:1050F0004FF08041099003F0FAFCD54908601299FD
:105100000B9803F0EEFC0690CE480168069803F079
:10511000EEFC08904FF07C500F9903F0E2FC0390F6
:105120000A9903F0DEFC0490C7480168049803F074
:10513000DEFC069010990E9803F081FC0490C348A1
:105140000168049803F0D3FC0590069903F077FCFE
:105150000790089903F073FC4FF08041099003F029
:10516000C6FCBC49086008460168006803F0BFFC43
:105170000490B7480168006803F0B9FC03900499F3
:1051800003F05DFC059003F014FFCDE9060104F087
:10519000E7FFCDE9080103F047FFAF4908604FF092
:1051A0007C500F9903F09DFC05900C9903F099FC3D
:1051B0000690A4480168069803F099FC089012999B
:1051C0000B9803F03CFC04909F480168049803F09E
:1051D0008EFC069011990D9803F083FC04909B4877
:1051E0000168049803F083FC0590069903F027FCFE
:1051F0000790089903F023FC4FF08041099003F0D9
:1052000076FC9649086011990D9803F06AFC0390AA
:1052100003F0CFFE00224FF08043CDE9040103F0FC
:1052200083FD00228E4BCDE9060103F07DFDCDE923
:10523000080103F0F9FE8B4908600B99129803F0FE
:10524000FEFB059003F0B5FE00224FF08043CDE950
:10525000060103F069FDCDE9080103F0E5FE82498E
:1052600008604FF07C500F9903F03BFC04900C99C0
:1052700003F037FC059003F09CFE00224FF08043C2
:10528000CDE9060103F050FDCDE9080103F0CCFEA5
:105290007649086011990D9803F023FC02906F483D
:1052A0000168029803F023FC04904FF07C500C99A5
:1052B00003F017FC01900A9903F013FC0290664872
:1052C0000168029803F013FC0390049903F0B7FB04
:1052D000059003F06EFE00224FF04043CDE9060139
:1052E00003F022FDCDE9080103F09EFE604908604D
:1052F0000B99129803F0A3FB02905848016802989A
:1053000003F0F5FB049010990E9803F0EAFB02906D
:1053100051480168029803F0EAFB0390049903F0F6
:105320008EFB059003F045FE00224FF08043CDE94F
:10533000060103F0F9FCCDE9080103F075FE4D49C3
:1053400008604FF07C500F9903F0CBFB01900C9953
:1053500003F0C7FB029041480168029803F0C7FBC5
:1053600004900D99119803F06AFB02903A48016885
:10537000029803F0BCFB0390049903F060FB0590D6
:1053800003F017FE00224FF08043CDE9060103F041
:10539000CBFCCDE9080103F047FE374908603548EA
:1053A00001682848006803F0A2FB079032480168B2
:1053B0002548006803F09BFB0690079903F091FBDA
:1053C0000990294801682D48006803F090FB079078
:1053D000264801682A48006803F089FB069007996F
:1053E00003F07FFB0890099903F029FB2549086029
:1053F000214801681548006803F079FB07901C48B4
:1054000001681048006803F072FB0690079903F0EA
:1054100068FB0990154801681B48006803F067FBAA
:105420000790104801681548006803F060FB06907B
:1054300007992BE054020020480200204C02002073
:1054400050020020F4010020F0010020EC010020B7
:105450003C020020400200203402002038020020DC
:105460000000F0BF600200206402002068020020FB
:105470006C0200207002002074020020DC01002079
:10548000D8010020D0020020D401002003F029FB25
:105490000890099903F0D3FAFE490860FE480168B4
:1054A000FE48006803F023FB0790FD480168FD48B3
:1054B000006803F01CFB0690079903F012FB0990AB
:1054C000F9480168F948006803F011FB0790F848B3
:1054D0000168F848006803F00AFB0690079903F09A
:1054E00000FB0890099903F0AAFAF3490860F34811
:1054F000006803F05EFD21F00041F14AF14BCDE977
:10550000080103F069FD02D20020EC490860E1487F
:10551000006803F04EFD21F00041E94AE94BCDE976
:10552000080103F059FD02D20020DA490860E24880
:10553000006803F03EFD21F00041E14AE14BCDE976
:10554000080103F049FD02D20020DB490860002178
:10555000DA48006803F084FD54D00021CD4800688B
:1055600003F07EFD4ED00021D348006803F078FDA3
:1055700048D00021D448006803F07CFD42D2CF48D7
:105580000168D148006803F0B2FA0990CF48016879
:10559000099803F054FACD490860BE480168CA482A
:1055A000006803F0A4FA0990C9480168099803F05B
:1055B00046FAC7490860C0480168C348006803F05C
:1055C00096FA0990C3480168099803F038FAC1496E
:1055D0000860BE480168C048006803F030FABE4960
:1055E0000860BB480168BD48006803F028FABB4961
:1055F0000860B8480168BA48006803F020FAB84962
:10560000086006E00020B1490860B1490860B1496E
:105610000860AA480168B348006803F068FA099076
:10562000AD480168099803F00AFAAB490860994847
:105630000168AC48006803F05AFA0990A74801686D
:10564000099803F0FCF9A54908609B480168A54842
:10565000006803F04CFA0990A1480168099803F02A
:10566000EEF99F4908609C4800689F4908609B4884
:1056700000689E4908609A4800689D490860FBF7E9
:10568000A2FA099003F03AFC9A4908609A48016826
:105690009848006803F0EEFC15D2974801689548D9
:1056A000006803F01EFA059003F083FC934A944BC4
:1056B000CDE9060103F038FBCDE9080103F0B4FCA5
:1056C000904908601AE08B4801684FF09E4003F053
:1056D000B6F9049088480168049803F002FA05902E
:1056E00003F067FC854A864BCDE9060103F01CFBFD
:1056F000CDE9080103F098FC824908607C48016804
:105700008148006803F0F3F98049049003F0EFF951
:105710000690764801687E48006803F0E8F97B4906
:10572000029003F0E4F904907A48006880F00040A9
:1057300002906D480168029803F0D9F9039004992A
:1057400003F0CFF90590069903F0CBF907906D4867
:105750000168079803F0CBF94FF08041089003F0FF
:10576000FCF909906C480168099803F068F96A49E6
:1057700008605E4801686448006803F0B8F963494E
:10578000049003F0B4F90690594801686048006835
:1057900003F0ADF95D4900E01AE1029003F0A7F9CA
:1057A0000490514801685C48006803F0A0F9039038
:1057B000049903F044F90590069903F092F90790D3
:1057C00050480168079803F092F94FF08041089023
:1057D00003F0C3F909904F480168099803F02FF9C5
:1057E0004C490860404801684748006803F07FF969
:1057F00006903F4801684748006803F078F943493C
:10580000029003F074F90490384801684248006837
:1058100003F06DF93D49029003F069F90390049992
:1058200003F05FF90590069903F009F907903548F0
:105830000168079803F05BF94FF08041089003F08E
:105840008CF9099032480168099803F0F8F830495A
:105850000860254801682E48006803F048F9069062
:10586000224801682B48006803F041F9274902905B
:1058700003F03DF904901E4801682748006803F0D2
:1058800036F92249029003F032F90390049903F0AB
:10589000D6F843E0D40200206C020020F001002082
:1058A00070020020EC01002060020020D8010020DE
:1058B00064020020D4010020D8020020D002002081
:1058C0001839359D46DF813F5C020020DC02002054
:1058D000E0020020E4020020E0010020E4010020BA
:1058E000E8010020580200200402002008020020E5
:1058F0000C020020EC020020E80200208DEDB5A093
:10590000F7C6B03EF002002054020020000080BF25
:10591000500200204C020020480200200590069909
:1059200003F0DFF80790AD480168079803F0DFF84F
:105930004FF08041089003F010F90990A8480168E1
:10594000099803F07CF8A6490860084601680068D9
:1059500003F0CDF80890A3480168006803F0C7F889
:105960000690A1480168006803F0C1F804909F48C0
:105970000168006803F0BBF80390049903F05FF836
:105980000590069903F05BF80790089903F057F823
:105990000990FEF743F8169094481699006803F0B2
:1059A000A6F89249086090481699006803F09FF89D
:1059B0008D4908608B481699006803F098F889496A
:1059C000086087481699006803F091F884490860D8
:1059D00019B000BD2DE9F04F89B0844801684FF03F
:1059E000804003F084F802907E480168029803F03A
:1059F0007EF804907C4801684FF0404003F077F84F
:105A0000029077480168029803F071F803900499B6
:105A100003F015F8059003F0CCFACDE9060103F088
:105A2000E1FF82460022724B03F07EF98046714A04
:105A3000714B03F0EBF906460022704B03F074F94A
:105A4000044603F0F1FA6E490860664801684FF0B9
:105A5000804003F04CF8019062480168019803F01F
:105A600046F88246604801684FF0404003F03FF836
:105A700001905D480168019803F039F8834651466A
:105A800003F02FF881464FF07E5102F0D8FF044614
:105A900003F08FFA07468846544801684FF080406B
:105AA00003F025F8834650480168584603F01FF874
:105AB00081464C4801684FF0804003F018F8834657
:105AC00047480168584603F012F88246494602F0FA
:105AD000B6FF044603F06DFA3A464346CDE90201AB
